:10000000380D0010190400003304000094040000AF
:1000100035040000370400003904000043D9FFEF25
:1000200000000000000000000000000091C302007A
:100030003D0400000000000011C4020055C402008D
:10004000419C02004D9C0200599C0200659C0200EC
:10005000719C02007D9C0200899C0200959C02001C
:10006000A19C0200AD9C0200B99C0200C59C02004C
:10007000D19C0200DD9C0200E99C0200F59C02007C
:10008000019D02000D9D0200199D0200259D0200A8
:10009000319D02003D9D0200499D0200559D0200D8
:1000A000619D02006D9D0200799D0200859D020008
:1000B000919D02009D9D0200A99D0200B59D020038
:1000C000C19D0200CD9D0200D99D0200E59D020068
:1000D000F19D0200FD9D0200099E0200159E020096
:0400E000219E02005B
:0402FC00FFFFFFFF02
:100300002B498D462B492C480A1A04D081F30988C1
:10031000022282F31488294829492A4A00F037F832
:1003200029482A492A4A00F032F82A482A492B4A01
:1003300000F02DF82A482B492B4A00F028F82B48CA
:100340002B492C4A00F023F82B482C492C4A00F06A
:100350001EF82C482C49002200F024F82B482C4988
:10036000091A00220260043001601E481E498842BA
:1003700005D00268043003B4904703BCF7E70020BF
:100380008646EC4600200021224A9047FEE788423C
:1003900007D0521A05D0037801300B700131013AB1
:1003A000F9D17047884202D002700130FAE77047F5
:1003B000380D0010380D0010380D0010F86A0600D6
:1003C00000000010FC040010BC040000BC0400008D
:1003D0000C2C0300F86A060000000010000000105A
:1003E0000C2C03000C2C03000C2C03000C2C030021
:1003F0000C2C03000C2C03000C2C03000C2C030011
:10040000F86A0600605664A05C8B64A000A859A03E
:10041000605664A085980000DFF88CD023488047A0
:10042000DFF884D022488047224823490160FFF743
:1004300067BF2FE02EE02DE02CE02BE02AE029E042
:1004400028E027E026E025E024E023E022E021E088
:1004500020E01FE01EE01DE01CE01BE01AE019E0B8
:1004600018E017E016E015E014E013E012E011E0E8
:1004700010E00FE00EE00DE00CE00BE00AE009E018
:1004800008E007E006E005E004E003E002E001E048
:1004900000E0FFE71EF0040F0CBFEFF30880EFF35E
:1004A000098027F097BF0000000001108D98000020
:0C04B000F9D9020008ED00E00000000097
:1004BC0010B540F217402DF0CBFC002140F2174054
:1004CC002DF0EDFC142440F217402DF0A7FC322047
:1004DC002CF000FE40F217402DF0ADFC32202CF039
:1004EC00F9FD013CEFD140F217402DF097FCFA20BA
:1004FC002CF0F0FD40F217402DF09DFCFA202CF072
:10050C00E9FDF0E710B50023032482B05022CDE9B9
:10051C000043034903482DF095F802B010BD00BF0D
:10052C000C2C0300BD040000CB1E012BA0F86A109C
:10053C0003D90239022904D970470022034BC3F8AE
:10054C00DC204FF0FF33C0F8D0307047B45664A0B5
:10055C004FF0FF33C0F8D030704700BF70B5B2F524
:10056C00004F06460C4682B044D015462AB1022AEA
:10057C007DD0042A6ED002B070BD086F91F86E1059
:10058C00036809011B6901F0F001984794F86E109B
:10059C00206FC943036809015B6901F0F0019847BA
:1005AC00A06F01A903685B699847019994F86C30B6
:1005BC00CAB223EA010394F86E1062F307054B40AC
:1005CC0094F8811062F30F2584F86E30A4F86C5007
:1005DC000029D0D103F00F030F2BCCD1012184F8CB
:1005EC0081102046B368314A98470621204633686B
:1005FC009847C0E7002120462D4AB36898472D48FC
:10060C0004F174012DF05AFA002838D0002120464C
:10061C00B368294A98470023204619460322F568F7
:10062C00A84703212046336998472046234AB368DC
:10063C0001219847A06F0F2103681B69984700237D
:10064C004FF6FF7284F86E30A4F86C20A4F880305A
:10065C0002B070BD0023C568032208461946A8479E
:10066C0003212046336902B0BDE8704018470023CF
:10067C000846D6F80CC01946E0472946F1E7606FEA
:10068C0004F170012DF006FA0028BFD10C4804F1DA
:10069C007C012DF013FA0028B8D1E06F04F1780139
:1006AC002DF0F8F90028B1D1BFE700BF982C03005A
:1006BC00142C0300342C0300402C03006C2C03007E
:1006CC00602C0300F0B5B2F5004F06460C4683B023
:1006DC0024D015460AB103B0F0BD086F2CF06AFFA8
:1006EC0040F6B7339842F6D9606F694603681B69C8
:1006FC00984740F20113BDF804209A422FD00023F2
:10070C00204619460322F568A84703212046336981
:10071C00984720467369984703B0F0BD6C311C486C
:10072C002DF0CCF904F17401E06E2DF0B3F9002535
:10073C000823184A606F01928DF80250ADF8003012
:10074C00036869465B6998472CF028FF0746B36835
:10075C0029462046104A2767984703B0F0BD40F25F
:10076C00D973BDF806209A42C9D1BDF80030082BC8
:10077C00C5D19DF80230012BC1D92B462946204604
:10078C000222F568A8470221204633699847C0E742
:10079C00B02C03000101D907B42C0300F0B5B2F55D
:1007AC00004F06460C4683B024D015460AB103B060
:1007BC00F0BD086F2CF0FEFE40F6B7339842F6D928
:1007CC00606F694603681B69984740F20113BDF8D6
:1007DC0004209A422FD00023204619460322F568A4
:1007EC00A8470321204633699847204673699847E8
:1007FC0003B0F0BD6C311C482DF060F904F17401AC
:10080C00E06E2DF047F900250823184A606F01921D
:10081C008DF80250ADF80030036869465B69984763
:10082C002CF0BCFE0746B36829462046104A2767C1
:10083C00984703B0F0BD40F2D973BDF806209A4238
:10084C00C9D1BDF80030082BC5D19DF80230012B61
:10085C00C1D92B46294620460222F568A847022119
:10086C00204633699847C0E7D02C03000101D90713
:10087C00D82C03002DE9F0418AB004460D464548BA
:10088C0001A990462DF01AF960B1002303222846E5
:10089C001946E668B04703212846236998470AB0F1
:1008AC00BDE8F0810646694601982DF0F3F807463D
:1008BC0028BBB8F5004F28D0B8F1000FEFD120229B
:1008CC00414602A830F060FD00984121036802AA5D
:1008DC005E692023B047034600284BD10146022213
:1008EC002846E668B04702212846236998470098B5
:1008FC002023026841219469274AA047CFE7334659
:10090C00194603222846E668C4E70146234A2846CE
:10091C00A36898470098412103681F4A5E69202309
:10092C00B04708B13B46EBE72022AA2102A830F0E1
:10093C002BFD00984121036802AA9E692023B04731
:10094C0006462022552102A830F01EFDEEB9009873
:10095C004321036802AA9E691423B04701238DF832
:10096C000830002891D100984621046802AAA46995
:10097C00A04794E74346414628460322E668B04721
:10098C000321284623699847B1E701238DF80830E5
:10099C007BE700BFF42C0300605664A0FC2C030022
:1009AC0030B5B2F5004F05460C4693B005D012B9E0
:1009BC001C4B1B6813BB13B030BD2046AB68002129
:1009CC00194A9847194A1A4992F83D3003A80193DD
:1009DC0092F83C30009392F83B3092F83A2030F089
:1009EC009FFB01212046AB6803AA984700220D4BC0
:1009FC001A602CF0D3FDE06613B030BD13462046D0
:100A0C0002221946D5F80CC0E04720462B6902217A
:100A1C00984701212046AB68064A13B0BDE8304028
:100A2C00184700BF985764A0102D0300686E64A08F
:100A3C00282D0300502D030070B5B2F5004F06466B
:100A4C000C4682B055D01546002A50D1086F01A92A
:100A5C0003681B699847002871D1019AE36F04F170
:100A6C0080059342A36FB8BFE2679A4282EAE273B1
:100A7C00A3EBE273C3F34233C3EB431CB8BFA267CF
:100A8C0003EB8C033E491214284630F049FBB36843
:100A9C002A46002120469847C8202CF01BFB636F88
:100AAC000133052B636722D9A26FB2F5702F4CDA94
:100ABC00284682EAE273A3EBE273C3F34233C3EB3F
:100ACC00431C3049019203EB8C03121430F028FBC9
:100ADC002A4600212046B36898470023032220466B
:100AEC001946F568A847032120463369984702B098
:100AFC0070BD00212046244AB3689847234804F16E
:100B0C006C012CF0DBFF60B1002320461946032258
:100B1C00F568A84703212046336902B0BDE8704050
:100B2C001847E06E04F170012CF0B4FF0028EBD1F3
:100B3C004FF4C8136067A367E36702B070BD2B4620
:100B4C00294603222046F568CCE7E26FB2F50C1F6C
:100B5C000ADC0023204619460222F568A847022128
:100B6C00204633699847C2E7C2F34233C3EB4311C3
:100B7C00019203EB8103284605491214A6E700BF36
:100B8C00942D0300B82D0300702D03008C2D030051
:100B9C00E42D03002DE9F041B2F5004F06460C465A
:100BAC0084B031D0154612B104B0BDE8F081D1F853
:100BBC0080002CF0FFFCB0F5FA6F7CD84FF4FA777C
:100BCC00E36F206F04F17401C3F10402194403684C
:100BDC000097DF69039203ABB847E36F039A1344A2
:100BEC00032BE367E0D994F874304A2B69D00023C7
:100BFC00032220461946F568A8470321204633698D
:100C0C00984704B0BDE8F08100212046384AB3680B
:100C1C009847384804F16C012CF050FF60B1002368
:100C2C00032220461946F568A8470321204633695C
:100C3C0004B0BDE8F0411847E06E04F170012CF0EF
:100C4C0029FF0028EBD14FF4FA78E06704F1740720
:100C5C00206F39460268CDF80080D56903AB0522B8
:100C6C00A8470228F4D16422206F2349036800921C
:100C7C001D6A012203ABA8470028B8D14FF4FA78BB
:100C8C00206F39460268CDF80080D56903AB052288
:100C9C00A8470228F4D16421206F03AB02680091AD
:100CAC00156A15490122A8470028A0D12CF076FC22
:100CBC00C4F8800078E72B46294603222046F568C5
:100CCC00B2E794F875302E2B91D194F87630482BEE
:100CDC008DD194F87730612B89D12B46294620464B
:100CEC000222F568A84702212046336998475BE742
:100CFC00102E03002C2E0300342E030070B5B2F519
:100D0C00004F06460D4682B021D014460AB102B0FF
:100D1C0070BD684601A9CDE9002205F071FC18B13F
:100D2C00214B009A9A4222D0A86F2CF043FCB0F5CC
:100D3C00FA6FECD96C6F0134032C6C6727D01B490C
:100D4C001B4805F07BFC2CF029FCA867DFE7B36897
:100D5C00184A2846002198471449154805F06EFC9E
:100D6C002CF01CFC0023C5E91D3002B070BD019AAB
:100D7C0003F144339A42D7D1234621462846022216
:100D8C00F468A0470221284633699847CCE7002332
:100D9C00284619462246D6F80CC0E047214628467C
:100DAC0033699847B3E700BF4534231288776655FB
:100DBC0044332211402E0300B2F5004F2DE9F047C9
:100DCC0007460C4606D0022A154671D0042A63D079
:100DDC00BDE8F08700212046BB683B4A98474FF09E
:100DEC0029084FF0070914254FEAC91606F47C466A
:100DFC003146204626F015F8294642462046013554
:100E0C0025F06DFEB5F58A7FF2D108F10108B8F135
:100E1C00480F09F10809E6D14FF049084FF00709CE
:100E2C0014254FEAE9067601B6B23146204625F084
:100E3C00F8FF294642462046013525F050FEB5F50F
:100E4C008A7FF2D108F10108B8F1680F09F108099D
:100E5C00E6D169264FF007081425C8F3CF09494697
:100E6C00204625F0DEFF294632462046013525F086
:100E7C0036FEB5F58A7FF2D10136882E08F10808C6
:100E8C00EAD12046BB680921104A984720463B68A6
:100E9C000621BDE8F0471847204600230921FD68CC
:100EAC000322A84720463B690321BDE8F0471847B9
:100EBC00C668092120460023B047294620463B69D5
:100ECC00BDE8F047184700BF582E0300702E0300F2
:100EDC00B2F5004F70B505460C4608D0102A01D06B
:100EEC00C2B170BD6B690846BDE87040184700215F
:100EFC0020462E4AAB689847012120462C4AAB6805
:100F0C009847022120462B4AAB6898472CF046FBA9
:100F1C00E06670BDC86E2CF04DFBB0F57A7FE0D367
:100F2C002CF03CFB03460121234804F17002E366DC
:100F3C002CF060FE064698B9AB68022120461F4A89
:100F4C009847206F2CF08EFE334631462046EE68D3
:100F5C000222B04720462B690221BDE87040184799
:100F6C00061F02212046092E06D8DFE806F01905D7
:100F7C00050505140F05050AAB68114ABDE870405C
:100F8C001847AB680F4ABDE870401847AB680E4A6B
:100F9C00BDE870401847AB680C4ABDE87040184774
:100FAC00AB680B4ABDE87040184700BFA42E030085
:100FBC00BC2E0300E82E0300F82E0300082F0300BC
:100FCC00982F0300602F0300202F03007C2F0300B9
:100FDC00402F0300B2F5004F70B505460C4608D003
:100FEC00102A01D0C2B170BD6B690846BDE87040D3
:100FFC001847002120462E4AAB689847012120460D
:10100C002C4AAB689847022120462B4AAB6898477C
:10101C002CF0C4FAE06670BDC86E2CF0CBFAB0F5BB
:10102C007A7FE0D32CF0BAFA03460121234804F16D
:10103C007002E3662CF0DEFD064698B9AB6802211F
:10104C0020461F4A9847206F2CF00CFE3346314641
:10105C002046EE680222B04720462B690221BDE8EB
:10106C0070401847061F02212046092E06D8DFE8DB
:10107C0006F01905050505140F05050AAB68114A9C
:10108C00BDE870401847AB680F4ABDE87040184780
:10109C00AB680E4ABDE870401847AB680C4ABDE817
:1010AC0070401847AB680B4ABDE87040184700BF4A
:1010BC00B02F0300CC2F0300E82E0300FC2F0300FD
:1010CC00082F0300982F0300602F0300202F03002C
:1010DC007C2F0300402F0300B2F5004F70B506467D
:1010EC000C4616D0154622B1022A35D0042A22D03D
:1010FC0070BD91F86C20214B642153F8220001F053
:10110C004FF894F86C30013303F0070384F86C301B
:10111C0070BD002120461A4AB36898470121204629
:10112C00184AB3689847336806212046984700232D
:10113C0084F86C3070BD2046B3680121124A984780
:10114C00002320461946F5680322A8472046336938
:10115C000321BDE8704018478368012120460B4AE3
:10116C0098470023204619462A46D6F80CC0E0477B
:10117C00294620463369BDE8704018475C330300AC
:10118C000C300300243003005430030040300300C3
:10119C002DE9F0410646884682B00021B0F868502F
:1011AC0025F03FFE0021304625F03DFE0021304663
:1011BC0025F03EFE0021114825F038FE104C082386
:1011CC0008EA050502E034F8103F6BB11D42FAD075
:1011DC002789E388A28861883046009725F08CFD2A
:1011EC0034F8103F002BF1D1B6F8683023EA08032D
:1011FC00A6F8683002B0BDE8F08100BFB45664A018
:10120C00883403002DE9F04105460C4617461E466E
:10121C00DFF8348008EBC203998825F002FEB5F89C
:10122C00D8302846E218C2EB02125200143258F899
:10123C00371093B24FF4077226F053F83046BDE8DE
:10124C00F0412BF047BF00BFE834030070B50C46EB
:10125C0005461646B0F8D83082B01C440021C4EBC9
:10126C00041425F0DEFD64000021284625F0DBFD8A
:10127C0014340021284625F0DBFDA4B200211F48C0
:10128C0025F0D4FD04F11D02009240F26B2322469E
:10129C001421284625F030FDA6B147F6E07128460A
:1012AC0025F0BFFD14212246284625F01CFF31787D
:1012BC0041B15E2908D0284625F078FF16F8011FA9
:1012CC000029F6D102B070BD16F8013F002BF9D001
:1012DC00472B07D0522B0BD047F6E071284625F050
:1012EC00A0FDEBE74FF47871284625F09AFDE5E771
:1012FC004FF4F841284625F094FDDFE7B45664A07E
:10130C00B2F5004F00D0704770B50C460021054671
:10131C0084F8741020461E4AAB6898471D4804F1A7
:10132C006C012CF0CBFB80B12046AB6800211A4A33
:10133C009847002320461946EE680322B047204602
:10134C002B690321BDE870401847E06E04F1700171
:10135C002CF0A0FB0028E7D1206F40F6C4120368E4
:10136C0004F178015B69984706460028DCD10146F8
:10137C00AB682046094A9847334631462046EE680A
:10138C000222B04720462B690221BDE87040184765
:10139C006C3003008830030090300300B830030039
:1013AC002DE9F04FB2F5004F80460C4683B00BD0C0
:1013BC00102A02D003B0BDE8F08F0846D8F81430DC
:1013CC0003B0BDE8F04F184700212046D8F808308C
:1013DC00754A9847D4F8DC3001212046002B40F0A8
:1013EC009780D8F80830714A98474FF6FF7120461D
:1013FC00D8F804309847D8F8003010212046984788
:10140C00D4F8DC30002BD5D10421204601919A462A
:10141C000321D8F80830664A9847DFF898B1664D32
:10142C00664BA94693E80300654E664FCBF8000067
:10143C008BF8041005E0D9F8143009F11009BB42FF
:10144C0015D0A9EB05031B11F35C032BF3D1BAF1F7
:10145C00000F62D14FF0010AD9F8001058462FF056
:10146C0087FED9F8143009F11009BB42E9D1BAF161
:10147C00000F0CD0019B4F4A99B2013301932046C7
:10148C00D8F80830984700224F4B83F86C20019B0A
:10149C00204699B2013301934C4AD8F8083098474A
:1014AC00464B4FF0000993E80300DFF80CA1CBF892
:1014BC0000008BF8041005E0DAF814300AF1100A79
:1014CC00BB4215D0AAEB05031B11F35C042BF3D123
:1014DC00B9F1000F31D14FF00109DAF8001035489D
:1014EC002FF046FEDAF814300AF1100ABB42E9D1AB
:1014FC00B9F1000F3FF45EAFD8F808302D4A204602
:10150C00BDF80410984700222F4B83F86C2051E74C
:10151C00D8F808302E4A984767E726482FF0B0FFD6
:10152C002C4BBAF1040F1A889B782BF800205844E6
:10153C00837012D00AF1010A8EE71E482FF0A0FF2B
:10154C00244BB9F1040F1A889B782BF800205844CF
:10155C00837015D009F10109BFE7019B204699B2B0
:10156C000133144A0193D8F8083098471A4B134AA0
:10157C004FF0010A92E803001970CBF800006BE7FA
:10158C00019B204699B201330A4A0193D8F80830DE
:10159C009847114B094A4FF0010992E80300197062
:1015AC00CBF8000099E700BFDC3003001C310300CE
:1015BC0040310300205764A0103503004C31030068
:1015CC00805664A0AD130000B45664A058310300DB
:1015DC00F830030054310300245764A070B59AB05E
:1015EC002AF0E2FE294E0DF103043546214632461F
:1015FC00432303F1070E92F800C002F8013B5FFA97
:10160C008EF3FF2B01F801CFF3D13346432201E0D7
:10161C00FF2A0DD093F800C0D11D944503F10103AE
:10162C00CAB2F5D02AF0DAFE06F1C0401AB070BD8D
:10163C004FF0640C16494FF0204303F8012B8B42FA
:10164C00FBD1BCF1010CF6D13246432301E0FF2B58
:10165C000DD092F800C0D91D9C4502F10102CBB20D
:10166C00F5D02AF0BBFE06F1C0401AB070BD0DF1EA
:10167C00670314F8012F9C4205F8012BF9D106F5EC
:10168C00803616F1BF4FAED1CCE700BF000001A0F1
:10169C00000400A0B2F5004F00D070472DE9F041D6
:1016AC000C4605460021AB681B4A204698474FF470
:1016BC000000FFF793FF064604F16C07324617490A
:1016CC0038462FF02DFD002120463A46AB6898474E
:1016DC00B6F5000F4FF0010120460ED0AB68104A52
:1016EC009847002320461946EE680322B04720464F
:1016FC002B690321BDE8F0411847AB68094A9847AC
:10170C00002320461946EE680222B04720462B697A
:10171C000221BDE8F0411847643103007831030021
:10172C00AC3103009C3103002DE9F043144606460E
:10173C0083B00F4647F6E07125F073FB2146304627
:10174C0025F071FB2146304625F072FB294D08230C
:10175C00DFF8A48003E035F8103F002B44D01F4283
:10176C00F9D00021404625F061FB2989EB88AA8835
:10177C0000913046698825F0BFFA0121304625F0EA
:10178C0055FBD5F80C9099F8001081B30024304625
:10179C0025F0E0FD19F8011F0444A4B20029F6D18C
:1017AC00640847F6E071304625F03BFBEA886B880D
:1017BC0030461344013BC4EB630425F0C7FD84465B
:1017CC002989AB881FFA8CFC0B44013BA3EB0C035F
:1017DC00A4B2E968C3F34F032246304625F081FDDD
:1017EC0035F8103F002BBAD103B0BDE8F0830C469E
:1017FC00D7E700BF88340300B45664A038B50C4654
:10180C000546B0F8681000226140FFF78DFFB5F86F
:10181C0068301C43A5F8684038BD00BF30B58BB0AC
:10182C00054608A91D482DF004F808B10BB030BDD1
:10183C00044608982DF035F84FF4807108982DF077
:10184C003CF826F0CDF9214609AA08982DF00DF8A0
:10185C00CDE90044069440F2DF144FF4F8400394B1
:10186C0047F6E072022140F27F24099B0790059213
:10187C0004914FF4F0724FF420712846029425F035
:10188C0095FA2846064925F05FFD1F222846054992
:10189C0025F06DFD26F0B8F90BB030BDC431030056
:1018AC003C370600C83103002DE9F04FAF4C8DB02A
:1018BC00E422002120462FF067FD4FF0FF3310216A
:1018CC00012005AAC4F8DC302BF02EFD10B10DB0B0
:1018DC00BDE8F08FA64805AA02A92DF04BFB28B154
:1018EC0005982BF044FD0DB0BDE8F08FA14803A97D
:1018FC002CF09FFF20B1059902982DF09CFBEFE78F
:10190C000646014604AA0398DFF86C822CF0ADFF62
:10191C002046FFF783FF45463346B146974F23E0F9
:10192C00B4F86A10032900F08580B4F8D8302A89FD
:10193C00934813442A8B9BB2A4F8D8301344A5EBDC
:10194C0008021211092B815405F110027DDC0023D1
:10195C00C4F8D0301368002B00F089802B46BBF103
:10196C00000F40F084801546AB4218D04FF6F6714C
:10197C002046FFF70DFCB4F868100022204681F0D9
:10198C000901FFF7D1FEB4F868304FF4004243F080
:10199C000903A4F86830214638466B6898470A2238
:1019AC00059808A92BF096FD824670B14FF0000BFC
:1019BC00D4F8D030002BB3D1002E37D1324621468B
:1019CC0038466B6898472A46C4E7099B204606931D
:1019DC000A9B07AA06A9079325F02CFA0B9B012B4F
:1019EC0001D0D146E2E7DDE9092052EA0003DDD05F
:1019FC000821DFF890A192B280B2BAF8023093427B
:101A0C000BD8BAF80630934207D3BAF804308342A5
:101A1C0003D8BAF8083083424DD23AF8101F002987
:101A2C00EBD1CA45C2D0D1468B46C1E72A464FF00E
:101A3C00FF368FE7EB68002B3FF477AFD4F8E0600C
:101A4C00CEB10026C4F8E0606FE74FF0000A0195B4
:101A5C00A4F8D8A055469246A9B2002220460135DA
:101A6C00FFF7F4FB0A2DF7D15246019D6FE703985F
:101A7C002CF0EFFE3FE74FF6F7713C48FFF788FB81
:101A8C00B4F868103246394881F01801FFF74CFE63
:101A9C00B4F86830C4F8D06043F01803A4F8683088
:101AAC0000F0C4FBD4F8D030002BBFD04FF0FF3681
:101ABC00B4F86A1039E7D1453FF478AFB4F8683020
:101ACC0019428ED04FF4787228480191FFF72CFE02
:101ADC0000F088FB64202BF0FDFA002201992348CA
:101AEC00FFF722FEEEB1BAF80030D8060FD54FF052
:101AFC00FF3213F00803C4F8D020C4F8E02032D031
:101B0C000023C4F8DC30D1464FF0FF3B08E71B073D
:101B1C007FF567AF0023D1464FF0FF3BC4F8DC30B4
:101B2C0046E76B681149BAF8002014489847BAF890
:101B3C000030D907EBD54FF0FF39FA230422314698
:101B4C000A48C4F8D090FFF75DFB0421BAF80030C6
:101B5C00C4F8D0901A07C4F8DC60A4F86A10D2D488
:101B6C00D146B346E1E6D1469B46D9E6B45664A0CD
:101B7C00D8310300C4310300103503007C3303005B
:101B8C00805664A0883403003A222F2330B50131EB
:101B9C0089B08DF80120ADF802308DF800000DD021
:101BAC00684601A92CF0DCF828B9684604A92CF089
:101BBC00BDF8002858D0092009B030BD01463C487A
:101BCC002FF072FA684601A92CF0CAF800284DD102
:101BDC00DDE90150A5FB0003000D190D40EA0330AF
:101BEC002DF098FF0446294632482FF05DFADDE9C6
:101BFC00021231482FF058FA4FF0894120462EF04E
:101C0C0047FA002845D04FF06A5120462EF0A9F82B
:101C1C004FF0894104462EF03BFA002840D04FF09B
:101C2C006A5120462EF09DF84FF0894104462EF063
:101C3C002FFAF8B920462DF0A6FF0B4602461F4896
:101C4C002FF032FA684604A92CF070F8E8B91C4859
:101C5C002FF04AFADDE904121A482FF025FADDE9D3
:101C6C00061219482FF020FA0020A5E717482FF08C
:101C7C003BFAA0E74FF06A5120462EF072F82DF097
:101C8C0082FF02460B461248DAE712482FF02CFA74
:101C9C0091E720462DF077FF02460B460E48CFE722
:101CAC0020462DF070FF02460B460C48C8E700BFDB
:101CBC00E4310300FC3103002432030060320300E2
:101CCC00A8320300BC320300F0320300443303009B
:101CDC0048320300243303009032030078320300AF
:101CEC004FF0FF32014B1A60704700BF9C5764A045
:101CFC00F0B5002506468BB025F072FF294609AADF
:101D0C0030462CF0B2FD47F6E0774FF4F842022350
:101D1C0040F2DF1140F27F261A4C03910792049394
:101D2C004FF4F072099B4FF420712046CDE90575F4
:101D3C00CDE90055029625F039F82046124925F0D8
:101D4C0003FB1F222046114925F011FB3946204682
:101D5C0025F067F82946204625F065F820465823DB
:101D6C001A220B4925F0BDFA76231A22204609497E
:101D7C0025F0B7FA2046084925F0E3FC25F044FF8E
:101D8C000BB0F0BDA05764A03C3706001036030022
:101D9C002C3603005C3603008C36030000232DE93F
:101DAC00F041424C8EB01021012007AA23602BF089
:101DBC00BBFA10B10EB0BDE8F0813D4807AA06A9E8
:101DCC002DF0D8F8002861D13A4805A92CF031FD46
:101DDC00002857D1384808A92BF070FE0028E9D10B
:101DEC00089809A92BF056FE0028E3D14FF4FA7697
:101DFC000C90099804AB02680096D5690AA90522D3
:101E0C00A8470228F5D10598FFF772FF2368002B2D
:101E1C0035D12A4F2A4EDFF8AC8002E02368002B24
:101E2C002DD139464FF4FA733046079A25F02EFE21
:101E3C0003A902A804F0E4FB00282DD1002364229E
:101E4C0009980C9904930AAB194403680092DD6954
:101E5C00012204ABA847049B012BDFD19DF828304D
:101E6C007C2BDBD14FF4C871099804AB026800914C
:101E7C00156A41460422A8470028CFD09AE7059856
:101E8C002CF0E7FCDDE906012DF0D5F807982BF0D6
:101E9C006EFA0EB0BDE8F0810399029801F10131A0
:101EAC0000F1013004F0CAFBC8E700BF9C5764A0E6
:101EBC00D8310300C43103002C2E03008C360300F0
:101ECC00A05764A0382E0300002300B50E4883B041
:101EDC0001932FF009F904F01DFB60B900210B4AA6
:101EEC0001A826F08BFEFEF70DFB00F001F9002097
:101EFC0003B05DF804FB06482FF0F6F804F032FB53
:101F0C0004F0E8FAEAE700BFCC3603000037030020
:101F1C00F036030010B582B007F01CFB002203243E
:101F2C0011464FF0FF3026F0BDF807F0B5F9002050
:101F3C0007F0E0F907F0E6FA012007F0E3F90648AC
:101F4C00002301904FF4C0620449009404482BF024
:101F5C0079FB002002B010BDA86F64A00437030009
:101F6C00D51E000084B0002303930023029320238A
:101F7C0001930AE0039B5A1C03921B781A46029B9E
:101F8C0013440293019B01330193019BB3F5FC2F86
:101F9C00F0D3029B184604B07047000000B583B024
:101FAC0001900091FFF7DEFF0346054A1360054BD5
:101FBC004FF0FF321A600023184603B05DF804FBA3
:101FCC00605864A0645864A000B591B03F4B0022E7
:101FDC001A600023019303230093002340223C4901
:101FEC003C482BF02FFB0EAB19463B482CF021FC48
:101FFC000346002B66D10E9B0DAA002118462CF02F
:10200C0034FC25F0EDFD0D9B4FF4F84207920022B5
:10201C000692002205920222049240F2DF120392F1
:10202C0040F27F22029200220192002200924FF491
:10203C00F0724FF42071294824F0B8FE2849274843
:10204C0025F082F9B522D221264825F039FD01214F
:10205C00224825F0D8F925F0D7FD0023ADF83E3005
:10206C000EE00E9BBDF83E20114618462CF025FCC8
:10207C0001202BF02FF8BDF83E300133ADF83E3087
:10208C00BDF83E30FF2BECD902E00A202BF022F8F1
:10209C000E4B1B68002BF8D0134B1A6809AB134975
:1020AC0018462FF03DF801210C4825F0ACF909A990
:1020BC0040F2D1130522094825F013F900210748F5
:1020CC0025F0A1F900BF11B05DF804FB645864A0C1
:1020DC0038380300A91F000040380300005864A0E2
:1020EC003C370600D03F0300605864A0443803001E
:1020FC0000B585B001AB1A46102101202BF014F964
:10210C000346002B43D103AB194623482CF091FB1B
:10211C000346002B3BD1039B02AA002118462CF04E
:10212C00A4FBFFF751FF642140F20B2000F038F8BC
:10213C00642140F2932000F033F8642140F20F3018
:10214C0000F02EF8642140F2164000F029F86421CA
:10215C0040F20F3000F024F8642140F2932000F09C
:10216C001FF8642140F20B2000F01AF801F0ECF992
:10217C000346184601F0ACF94FF47A702AF0AAFF26
:10218C00064800F009FC039B18462CF062FB00BFCC
:10219C0005B05DF804FB00BF40380300AC39030008
:1021AC0070B50D4E044633680D4663B10B4B1E687B
:1021BC0007F03AFB01462A463046B1FBF4F1BDE884
:1021CC0070402CF0FFBD054905482CF0EBFD4FF09D
:1021DC00FF333360EAE700BF685864A06C5864A012
:1021EC006034030010B50D4C236873B10C4B1C68A4
:1021FC0007F01AFB01460B4B2046BDE81040A3FB31
:10220C000131142209092CF0DDBD054906482CF0DA
:10221C00C9FD4FF0FF332360E8E700BF685864A0A6
:10222C006C5864A0D34D62106034030010B50D4C93
:10223C0023687BB10C4B1C6807F0F6FA01460B4B7C
:10224C002046BDE81040A3FB01314FF4FA72490956
:10225C002CF0B8BD044906482CF0A4FD4FF0FF3318
:10226C002360E7E7685864A06C5864A01F85EB51A5
:10227C00603403004FF0FF32014B1A60704700BF0F
:10228C00F85864A02DE9F04F002593B0099025F083
:10229C00A7FC29460BAA09982CF0E7FA4FF4F8434F
:1022AC000221079340F2DF1347F6E07BCDE90331BF
:1022BC0040F27F23454EDFF818A14FF4F072CDE9C0
:1022CC0005B502934FF420710B9B3046CDE90055B8
:1022DC0024F06CFD5146304625F036F8304625F09A
:1022EC0035F80346DFF8EC901F224C4630463A494D
:1022FC00099325F03CF8F3695946ADF83430336A4C
:10230C0030460EAFADF836300C9524F08AFD5146B0
:10231C00304625F019F839460CA84FF4B47225F064
:10232C006AFE494638464FF4B472DDF838B0BDF851
:10233C003EA025F076FE34F860390DF14008063BDE
:10234C0041463846ADF83C3080222B46CDF838B0AB
:10235C00ADF83EA025F035FE98E80300099A87E811
:10236C00030042322B464146384692B225F0F5FD29
:10237C00109B1A4A49F8603CC3F30F434033E38087
:10238C00174B2146C4E90223164B30462361BDF896
:10239C004430C4E90655A380A56225F0D2F929463C
:1023AC00304624F040FDB4F86620B4F86430009256
:1023BC003046B4F86220B4F8601024F09DFC25F08F
:1023CC0023FCA56613B0BDE8F08F00BF085964A0CC
:1023DC003C370600D85864A0BC390300843603008F
:1023EC0081220000B062040010B5124C82B020466D
:1023FC00002124F018FD2046002124F012FD204677
:10240C00002124F013FD0C4A0C4B126819681212AF
:10241C0002F109030912204600930A3A01F109035B
:10242C000A3924F069FC0021204602B0BDE81040B6
:10243C0024F0FCBC085964A0005964A0045964A0A1
:10244C0000232DE9F04FB74CB74FB4F86410B4F833
:10245C006020DFF8D8820A445210B4F866103A6053
:10246C00B4F86220B24D0A445210B24E8DB0C8F886
:10247C00002010212A460120C4E91D33C4E91B3376
:10248C003360E3672AF050FF10B10DB0BDE8F08F58
:10249C00A949AA4A28682AF086FF2A46A84804A90E
:1024AC002CF068FD28B128682AF061FF0DB0BDE85A
:1024BC00F08FA44803A92CF0BCF920B1296804982A
:1024CC002CF0B9FDEFE7014605AA03982CF0CDF9E5
:1024DC009D4806A92BF0F2FA18B103982CF0B9F923
:1024EC00ECE79A4906982BF0D5FA0028F5D1039819
:1024FC00FFF7C8FE2BF052F83368814633B1ECE796
:10250C0014202AF0E7FD3368002BE6D10023214686
:10251C002A688F4825F0BAFA82462BF03FF8CB4652
:10252C008146BAF1000FEBD15845E9D0DFF81CB267
:10253C006422DBF8000009A903685B6998478246AE
:10254C002BF02CF8834A13681060BAF1000FD7D126
:10255C00626F002A00F0AF80C21A0A9B216F0998A3
:10256C005B1A0A93E16E02FB03F3401A099002FB1B
:10257C0000F0002BBCBF03F57F43FF33A16F002895
:10258C004FEA2343B8BF00F57F40C3EBC35301EBC5
:10259C004321B8BFFF30E36F0014B1F5963F03EB56
:1025AC00402380F285806C488142B8BF0146B3F568
:1025BC00963FA16779DA68488342B8BF034601FBAE
:1025CC0002FB03FB02F2DFF894C138688CFB0BAE04
:1025DC008CFB02ACD217C2EBAC1A4FEAEB7BB4F813
:1025EC0064C0CBEBAE1BACF10B0CD8F800208344D1
:1025FC00BBEB0C2FE36792444FEA0C2E05DDF34640
:10260C0001EBD17149104942A167B4F860100B314C
:10261C00BBEB012F4FEA012C06DAE346A16F01EB6D
:10262C00D17149104942A167B4F866100B39BAEB65
:10263C00012F4FEA012C05DDE24603EBD3735B104F
:10264C005B42E367B4F862300B33BAEB032F4FEA0B
:10265C00032106DA8A46E36F03EBD3735B105B420C
:10266C00E36758457ED0A36E002B58D14FEA2B233D
:10267C000A3B07934FEA2A230A3B08AA07A93448C6
:10268C000893C7F800B0C8F800A024F0DDFB304870
:10269C0025F0FEFCBDF82020BDF81C10304825F0BC
:1026AC0029FB4FF0FF33A3662AE74FF4963386E7F6
:1026BC004FF496317BE7CDF804904FF0100A914619
:1026CC00E26622670A202AF005FDDBF8000064228E
:1026DC00036809A95B699847D4E91B320999BAF1D7
:1026EC00010A0B440A99E3660A442267EAD1002BDB
:1026FC001046B8BF0F331B114A46E3664FF0FF3349
:10270C000028B8BF0F300011DDF804906367019208
:10271C0020672AF043FF0F4B019A18601DE7FFF763
:10272C0063FEA3E7785864A0045964A0005964A020
:10273C00745864A0F85864A0E0390300EC39030025
:10274C00D8310300C431030088300300FC5864A066
:10275C00085964A0705864A000D4FEFFD34D6210D9
:10276C007022040052457FF47EAFC9E64FF0FF3271
:10277C0083699A66704700BF2DE9F047A8B0002125
:10278C0008AA044640682CF070F825F029FA0520B8
:10279C002AF0A0FC002347F6E0710222CDE90513D4
:1027AC004FF4F84040F27F21049240F2DF1204F122
:1027BC000806CDE90212CDE900334FF4F072089B04
:1027CC004FF420710790304624F0F0FA30466B49F4
:1027DC0024F0BAFD6A4B04F16C071B68002B00F067
:1027EC0094800F2140F2E7702268664B12681B68D8
:1027FC00CDE90110092111A8009163492EF090FC3C
:10280C001F22304611A924F0B2FD0021304624F0DD
:10281C000AFB304624F09AFD4FF00008636A054627
:10282C00ADF82830A36A122109A8ADF82A30CDF8EA
:10283C00248025F071FB2368D3E90192002A6BD127
:10284C003C466FF49971BDF82630BDF82A2009A8D2
:10285C00D21A0A44521B0023C2F34F020FA925F0CF
:10286C0062FB4FF00208D9F80030002B41D0322324
:10287C0080220BA909A825F056FBBDF82430BDF821
:10288C0028200FA9D21A6FF4F1731A44C2F34F0225
:10289C0000230BA825F07BFB09F1100504F1600A5D
:1028AC0055F8103CA946002B65D0322380220DA987
:1028BC000BA825F06CFB55E90401002355F8082CF6
:1028CC00C4E90201DDE90D10226155F8042CC4E9BC
:1028DC000010A2612034A24505F1100544F8043C17
:1028EC0024F80C3CDCD1B8F1010F02D04FF00108F8
:1028FC00B9E7002339463046A36024F022FF2CF0C0
:10290C0023F998B328B0BDE8F08723681F2230461E
:10291C00196824F02CFD78E705F14202022392B2EB
:10292C000BA909A825F019FB80220BA80DA925F0ED
:10293C0078FBBDF83430C4E92148A4F86C307F33FF
:10294C00A4F87030BDF83630A4F88080A4F86E304E
:10295C003F33A4F872300D4B8C3444F8183C0C4BBC
:10296C0044F8143C0B4B44F8103C6AE725F052F940
:10297C0028B0BDE8F087A5F11009B4E73C37060094
:10298C00645864A0605864A0F039030084360300D6
:10299C0079270000B0620400F0B5054683B04FF40F
:1029AC00B6702CF0D7F81021044601AA01202AF0A9
:1029BC00BBFC08B1002301935CB14FF4B67200214B
:1029CC0020462EF0E1FC019B256023B920462CF01B
:1029DC00C5F803B0F0BD69461C4801AA2CF0CAFA30
:1029EC0018B101982AF0C3FCF0E71948211D2BF00F
:1029FC0020FF20B1DDE900012CF01DFBF1E72046A2
:102A0C00FFF7BAFEA36E93B904F1080704F16C0644
:102A1C00EB6813B19847C30714D44FF0FF3331461A
:102A2C003846019A25F032F840B1A36E1BB16068AC
:102A3C002BF00FFFDEE72046FFF79EFEA36E002B68
:102A4C00E6D0F4E72046FFF797FEE6E7D83103001F
:102A5C00C43103008069FFF79FBF00BF4FF0FF3206
:102A6C008369C3F8E420704730B50E4B05461968EE
:102A7C0083B009B147F6E0710B4C24F0D4F9284629
:102A8C0047F6E07124F0CDF9A38862882188E488A8
:102A9C002846013C013B00940132013124F02CF911
:102AAC0003B030BD705964A0745964A0D0B58EB019
:102ABC00044603A91C482BF0BCFE1C4A13680133C6
:102ACC0029D04FF4F0704FF0FF31009011604FF4AB
:102ADC007A7041F2883142F2107647F23057144B3B
:102AEC0076220A93134BCDE904010B93124BDC2194
:102AFC000C93124B12480D934FF42073CDE90667DB
:102B0C0025F0FCFA04A903982BF0BCFFA069FFF791
:102B1C00ABFF0EB0D0BD002313602BF0EFFFA0690C
:102B2C00FFF7A2FF0EB0D0BDC4310300705964A0F2
:102B3C0039810200F18102001183020085830200B9
:102B4C00D03F03002DE9F04F4FF48A7097B02CF072
:102B5C0001F8DFF870B0CBF80000B0B14FF48A7216
:102B6C00002104462EF010FC4FF0FF331021012001
:102B7C00154AC4F804312AF0D7FB48B1DBF8000041
:102B8C002BF0ECFF0023CBF8003017B0BDE8F08F32
:102B9C000D4A0E480CA92CF0EDF920B10A4B18681F
:102BAC002AF0E5FBEAE7DBF80010094860312BF06E
:102BBC0040FE064670B1044B0C9819682CF03BFA99
:102BCC00ECE700BF6C5964A0685964A0D8310300CD
:102BDC00C4310300DBF80030012503F5887203F5DE
:102BEC008671186E2BF076FEDBF8004024F0F8FFAF
:102BFC00314604F164030DAA206E09932BF035FEC7
:102C0C004FF4F84347F6E0710793022340F2DF10CC
:102C1C00CDE9043140F27F234FF4F072CDE902305C
:102C2C004FF420710D9BCDE900660696204624F0EA
:102C3C00BDF8D649204624F087FB204624F086FBBD
:102C4C001F22D349C4F80001204624F090FB47F61C
:102C5C00E071204624F0E5F83146204624F0E3F8F4
:102C6C00E3690DF13809ADF83C30236A0821484678
:102C7C000E96ADF83E3025F04FF9D4F800314846A9
:102C8C0046339AB210A905230DF1480A25F065F9CF
:102C9C000DF1400C9CE8030080228AE80300052318
:102CAC006146504625F073F910AB1846294625F0BD
:102CBC0033F99AE80300BDF840306422A4F864307C
:102CCC007F33A4F86830BDF84230C4F88060A4F8B3
:102CDC0066303F33A4F86A30AE4BE467E366AE4B24
:102CEC00DFF8B8822367AE4BAE4F636710AB83E857
:102CFC0003001846514625F094F9BDF84A20BDF85A
:102D0C004E3041469B1A03EBD37343FA05F206325D
:102D1C0092B20523504625F020F9B8F80030204631
:102D2C000A9324F013FB0A9B10330344A8F80430D5
:102D3C00B8F8023020460A9324F008FB6FF4F17CBB
:102D4C000A9B5146103303449BB2A4F88A30A8F86E
:102D5C000630D8F800304846C4F88430BDF8382026
:102D6C00BDF83C30C4E927469B1A6344A7FB0323F8
:102D7C00B8F80420C3F34F03A4F888208A4AC4F897
:102D8C009460C4F88C20894A0A93C4F89020324687
:102D9C0025F0FDF80A9B5422484604F1F00125F079
:102DAC00F6F8042204F1F80104F1F00025F039F9E9
:102DBC00142104F1F80025F093F833464FF4C8724F
:102DCC005146484625F0E3F84FF49072504604F112
:102DDC00E80125F010F920466C4924F0B5FA294693
:102DEC00204624F010FB3146204624F01FF847F60D
:102DFC00E071204624F015F804F1F00103C989E8CC
:102E0C000300BDF83E302046BDF83A20BDF838101E
:102E1C000093BDF83C3023F06FFF04F1F80003C8B9
:102E2C0089E80300BDF83E30BDF83A20BDF83810F3
:102E3C0020460093BDF83C3023F05EFF2046FFF7A0
:102E4C0013FE2046B8F8006024F080FAB8F802307F
:102E5C008219574920460833163224F042FA0026CC
:102E6C004FEA0528A7FB08384FEA480808F4F84849
:102E7C004146204623F0D5FFB4F8EA20B4F8E81018
:102E8C00204631442A44013623F029FEB6F5C87F8A
:102E9C00EED10135612DE2D14FF00108414E0025F4
:102EAC004FEA0827A6FB07373F0907F4787739461E
:102EBC00204623F0B6FFB4F8EA20B4F8E8104244F8
:102ECC00294420466032013523F009FEB5F5C87F50
:102EDC00EDD108F10108B8F1610FE0D14FF0010814
:102EEC00304E00254FEA0827A6FB0737C7F34427C7
:102EFC003946204623F095FFB4F8EA20B4F8E810E0
:102F0C00424429442046C032013523F0E8FDB5F592
:102F1C00C87FEDD108F10108B8F1610FE1D120466D
:102F2C0047F6E07123F07DFF2046099924F009FC57
:102F3C0024F06AFEDBF8004005E0DBF80040D4F832
:102F4C000431002B69D1D4F8E430002B61D1194B3A
:102F5C004FF4FA72514618682AF0BCFA044600285D
:102F6C00EBD1139BDBF800000E93149B494610AA7F
:102F7C00109323F05FFF159BDBF80000012B1BD097
:102F8C00524600F1640124F015FCD6E73C370600EC
:102F9C001C3A030084360300692A0000745964A0AB
:102FAC00B0620400ABAAAAAAEC360300B92A00004E
:102FBC00383A0300685964A0109BB0F8F2209A428A
:102FCC00DEDCB0F8F6209342DADC0E9AB0F8F010A2
:102FDC009142D5DCB0F8F4108A42D1DCB0F8FE2076
:102FEC00934274DCD0F81011D31A01FB03F3B0F840
:102FFC00FA100132521AB3FBF2F1C0F80C11006E48
:10300C002BF05BFC4FF0FF33DBF80000C0F8043111
:10301C00B6E7206E2BF01DFCCDE50121204624F0F7
:10302C00F2F9B4F8FA20B4F8FE5016460A92206E63
:10303C0004F5887204F58671B4F8F870B4F8FC8065
:10304C002BF048FCD4F80C31AA1B02FB0333D4F848
:10305C001021B3FBF2F3D4F80821EB1A93420B9333
:10306C002FD0B2BBA7F10F03099308F10F0620462E
:10307C00012123F0DBFE204647F6E07123F0D1FE60
:10308C000A9A204643463946009523F035FE0B9BA1
:10309C002046C4F80831002123F0C8FE204647F62C
:1030AC00E07123F0BEFE2046002123F0BCFED4F8D4
:1030BC0008212046541D334609990094053A23F003
:1030CC001BFE0023DBF80040C4F804313BE721462B
:1030DC0093E72046002123F0A9FE2046002123F08F
:1030EC00A0FE2046002123F09EFED4F80821A7F173
:1030FC000F031946099308F10F06531D0093204640
:10310C003346053A23F0F8FDB1E700BF4FF4F8431E
:10311C00F0B515460C460646002783B0019302F124
:10312C0008030093083A01F10803083924F0C8FD9C
:10313C00AB1D3046CDE90037AA1FA31DA11F24F0FB
:10314C00BFFD47F6FF7C2B1D304600932A1F231D25
:10315C00211FCDF804C024F0B3FDAB1CCDE9003722
:10316C003046A31CAA1EA11E24F0AAFD03B0F0BD7C
:10317C0010B5A2B0384808A92BF05BFB08B122B0FF
:10318C0010BD044608982BF08CFB4FF48071089806
:10319C002BF093FB24F024FD214609AA08982BF070
:1031AC0064FB4FF4F84047F6E072022340F2DF1163
:1031BC00CDE90044069440F27F24CDE90432079017
:1031CC00099B4FF4F072039102944FF420710AA8FA
:1031DC0023F0ECFD21490AA824F0B6F81F2220495F
:1031EC000AA824F0C4F80AA824F0B0F81D4B84B245
:1031FC001B784FF42072012B234621D01A490AA8C0
:10320C0024F07AF84FF42072184963000AA824F0CD
:10321C0073F84FF42072C4F1780315499B000AA887
:10322C00A4EB840424F068F84FF4207211490AA826
:10323C0004F5F07324F060F824F0E6FC22B010BD25
:10324C000D490AA824F058F8C4F178034FF4207201
:10325C0007499B00E3E700BFC43103003C3706007D
:10326C004C3A0300805964A0CC3A0300F03A0300B6
:10327C008C3A0300B03A0300643A03002DE9F04F96
:10328C004FF0FF3700238B46144695B003900797F9
:10329C00864A584613702BF02BFE24B9844B1B68BE
:1032AC00032B00F0DB80FFF763FF00230493804BBC
:1032BC00DFF8008202930DF120090025D8F80430C4
:1032CC00D8F808200398069299B292B20593AA46B0
:1032DC00FFF71CFF2E462F46494658462BF0B4FDEF
:1032EC00044670B9089BD8070FD4322029F0F2FE9F
:1032FC00494658462BF0A8FD4FF0FF3504460028F0
:10330C00F0D0322029F0E6FEE6E7002DF9D0DDE919
:10331C00092332200AF1010A17441E4429F0DAFE6F
:10332C00BAF1040F40F0978042464946BF08B608F0
:10333C00584609970A962BF0F3FD029B049F1E1D1D
:10334C0099E80F0086E80F00594B7D1C1D60FEF7B5
:10335C0049FFBDF81820BDF8141002F108030093C2
:10336C00039801F108030194083A083924F0A8FCE9
:10337C001FB96DE0322029F0ADFE494658462BF0BE
:10338C0063FD0028F6D1089BD907F3D4029B032DCB
:10339C0003F1100308F11008029301D004958CE797
:1033AC0058462BF0B1FD0546434F0DF150080CACBF
:1033BC00D7E9016A03981FFA8AF2B1B2FFF7A6FEA9
:1033CC00214658462BF040FD0028F9D12368DA0736
:1033DC00F6D50290FEF706FF02981FFA8AF2B1B2F8
:1033EC0002F1080301900093039801F10803083AD5
:1033FC00083924F065FC02E0322029F06BFE4946C6
:10340C0058462BF021FD0028F6D1089BDB07F3D49E
:10341C004FF49670103429F05DFEA04507F11007AB
:10342C00C6D10D9BA3F23623302B2ED965B9079B41
:10343C003BB900231E4A936403F04CF815B0BDE869
:10344C00F08F4FF0FF33079301234FF0FF341FE74A
:10345C00FFF78EFE91E74FF0FF353DE7154A174910
:10346C0058462BF05DFD164A164958462BF058FD70
:10347C005846154A15492BF053FD58462BF044FD80
:10348C000028D6D000230793DEE70E9BA3F5CB7361
:10349C00302BCBD8119BA3F59473302BC6D8129B31
:1034AC00D83B302BC2D8002DC3D0EBE7805964A099
:1034BC00686E64A0343B0300143B03006C6E64A084
:1034CC00443B03007C6E64A0543B03008C6E64A0F0
:1034DC0030B5194D044685B010212A46012029F03B
:1034EC0023FF10B1002005B030BD2A46134801A9B6
:1034FC002BF040FD28B1286829F039FF002005B0D9
:10350C0030BD0F4802A92BF094F920B1296801981D
:10351C002BF091FDEFE703AA014602982BF0A5F9D9
:10352C00084B01999B6C0398002B0CBF22464FF063
:10353C00FF32FFF7A3FEE9E77C5964A0D831030002
:10354C00C4310300686E64A010B586B00022124826
:10355C0001A92BF00FFDD8B90524019802A92BF075
:10356C0073FC029810F0010010D0322029F0B2FD4B
:10357C00013CF2D14FF0FF34002101982BF05BFDA0
:10358C000A2029F0A7FD204606B010BD0446F3E73B
:10359C004FF0FF34F7E700BFD83103004FF0FF3096
:1035AC00FFF796BF2DE9F041504C2388312B84BF97
:1035BC00002323800C2849D00A281DD00D2855D073
:1035CC0008285CD025884A4E4A4905EB45023388C9
:1035DC0002EB02120A44D05401339BB2322B3380DB
:1035EC0004D96B1C9BB2312B238059D8BDE8F04118
:1035FC00414B186829F0F0BD27887B1C9BB2312BFE
:10360C002380F3D93B4901F6C3180B4633310A46E4
:10361C0001F1300ED2F800C056689568D0681032AF
:10362C007245C3F800C05E609D60D86003F1100362
:10363C00F0D110889278414518809A70E5D13322E8
:10364C0020212E482DF0A0FE2780CFE740F6F61261
:10365C00202128482DF098FE0023254A2380138032
:10366C00254BBDE8F041186829F0B6BD0022BDE835
:10367C00F0411F4B1A80204B186829F0ADBD1C4936
:10368C000B88002BB2D0202522881A4802EB42026C
:10369C00013B02EB02129BB202440B80D554A5E70E
:1036AC0001F6C3180A4633310B4601F130071E6888
:1036BC00D3F804E0D3F808C0D8681033BB421660C6
:1036CC00C2F804E0C2F808C0D06002F11002EED1DA
:1036DC0018889B78414510809370E3D133222021C8
:1036EC0006482DF051FE258080E700BF8C5964A060
:1036FC008E5964A0886364A0885964A04B6D64A043
:10370C002DE9F84FDFF898B0DBF8000008B9BDE8F8
:10371C00F88F4FF0FF3129F03CFD2249224823F06D
:10372C0013FE0021204823F06EFE00211E4823F0DA
:10373C007FFB4FF478711C4823F073FB4FF0140897
:10374C00DFF868A0DFF86890174F4E465546C02446
:10375C0015F8012F16F8013F9A420AD0214642462D
:10376C00384623F0C0FC3846297823F01FFD2B780F
:10377C0033700834B4F5167FEAD108F10808B8F5AF
:10378C00D27F0AF1330A09F13309DED1064801214F
:10379C0023F039FEDBF80000BDE8F84F29F01CBD22
:1037AC00885964A02C250600806D64A0876364A0F2
:1037BC008F5964A02DE9F0474FF0000881468CB07A
:1037CC0024F00EFA414609AA48462BF04EF84FF465
:1037DC00F8430221079340F2DF1347F6E07ACDE974
:1037EC00033140F27F232B4F4FF4F0724FF42071D2
:1037FC0002933846099BCDE905A8CDE9008823F052
:10380C00D5FA3846244923F09FFD1F223846234918
:10381C0023F0ADFD5146384623F003FB1A234FF439
:10382C00A5723846CDE90A320AA90BAA23F00CFB83
:10383C00BDF82C20BDF82810194845244546194ED2
:10384C0024F058FA2146384623F084FD16F8014F2F
:10385C000544002CF6D16A0840F28B13C2F15902D0
:10386C000C48104923F03DFD21464FF4D274094811
:10387C0023F0D9FA4FF418731222BE210548009494
:10388C0023F03AFAFFF73CFF24F0BEF90CB0BDE888
:10389C00F08700BF806D64A03C370600843B0300BA
:1038AC00B0620400843603002DE9F04340F6F612B2
:1038BC0083B000212E482DF067FD40F6F612202132
:1038CC002C482DF061FD00232B4C2C4E2C4D224608
:1038DC001021012033802B8029F026FD10B103B07C
:1038EC00BDE8F0832246274801A92BF043FB28B101
:1038FC00206829F03CFD03B0BDE8F08369462248FE
:10390C002AF097FF58BBDFF88480D8F800305BB3FF
:10391C000098FFF74FFF4E264FF000091C4F02E0B6
:10392C0017F8016F86B1D8F800000028F8D04FF0D6
:10393C00FF3129F02EFC2B883046322B88BFA5F89E
:10394C000090FFF72FFEEBE7FFF7DAFEFEF76EFCB9
:10395C004FF4FA6029F0BEFB00982AF07AFF216838
:10396C0001982BF068FBC3E7404629F0C1FBCFE779
:10397C00905964A0886364A0845964A08C5964A095
:10398C008E5964A0D8310300C4310300885964A057
:10399C00AC3B03000122014B1A607047E86D64A038
:1039AC002DE9F04F054689B062482BF0D3F8012180
:1039BC008246614823F03AFA47F6E0715E4823F0FC
:1039CC0030FAEA88AB8800926A8829885A4823F032
:1039DC0093F90321594804AA2AF00CF900284FD175
:1039EC0013274FF0010940F25F28AB46524ECDF839
:1039FC000CA05546CF24304606AA05A9CDE90547AB
:103A0C0023F022FA01342B463046069A0599CDF85C
:103A1C00009023F0F5FA444505F10205EBD140F294
:103A2C00A312013797420AF5487AE2D1DDF80CA0CF
:103A3C00404C51462246049807AB5D462AF04AF9A1
:103A4C00C0B904982AF00EF901213B4823F0EEF995
:103A5C000021394823F0E5F9E888AB886A88298881
:103A6C000090354823F048F950462BF077F809B010
:103A7C00BDE8F08F079BA342E3D0FEF7D7FBE0E74E
:103A8C00064603212E4804AA2AF0B4F8044600285E
:103A9C00A6D04FF416222B4F3968881824F0D7FA89
:103AAC00FEF7C4FB0021244823F0C0F90021224872
:103ABC0023F0B9F947F6E0711F4823F0B2F922233D
:103ACC0012220093CE2140F25F231B4823F014F9FD
:103ADC00092E4FF014034FF0D0021CD00D2E07D13D
:103AEC000D2C0CBF18491949134823F0FAFB03E0BD
:103AFC001749114823F0F5FB01210F4823F096F9E3
:103B0C004FF4FA6029F0E6FA4FF41622386881185F
:103B1C0024F09DFA98E70D2C07D0092C0CBF0D4909
:103B2C000D49054823F0DDFBE6E70C49024823F07C
:103B3C00D8FBE1E700E20400EC6D64A0C43B030099
:103B4C00D03B030018000010483C0300683C030005
:103B5C00843C0300003C0300283C0300DC3B0300D6
:103B6C002DE9F04F04468BB07D482AF0F3FF8246D6
:103B7C0001217C48CDF80CA023F058F947F6E071F0
:103B8C00784823F04EF9E288A38800926288218855
:103B9C00744823F0B1F80121734806AA2AF02AF8D8
:103BAC00814640B10121714806AA2AF023F8054646
:103BBC00002840F08E806A4E03993246069809AB75
:103BCC002AF072F8054606982AF04CF8002D41D1DF
:103BDC004FF0130B4B4640F25F27D94640F2A31827
:103BEC009B46CDE90454DDF80CA05E4ECF24AAF11F
:103BFC000205304608AA07A9CDE9074923F024F9A4
:103C0C00DDE90712304635F8023F013423F026F97E
:103C1C00BC42EED109F10109C1450AF5487AE5D15A
:103C2C00D946DDE90454D5B901214E4823F0FEF8FC
:103C3C0000214C4823F0F5F8E088A388628821889D
:103C4C000090484823F058F803982AF087FF0BB0EF
:103C5C00BDE8F08F099BB342BAD0FEF7E7FA4FF4F8
:103C6C0016222225424E3168881824F0F0F9FEF70E
:103C7C00DDFA00213B4823F0D9F80021394823F024
:103C8C00D2F847F6E071374823F0CBF840F25F23C7
:103C9C001222CE213348009523F02EF8B9F1090FEA
:103CAC004CD0B9F10D0F42D01423D02231492D48FC
:103CBC0023F017FB01212B4823F0B8F84FF4FA60DE
:103CCC0029F008FA4FF416223068811824F0BFF955
:103CDC00AAE74FF41622264E3168881824F0B7F95B
:103CEC00FEF7A4FA00211F4823F0A0F800211D487C
:103CFC0023F099F847F6E0711A4823F092F8222342
:103D0C0012220093CE2140F25F23164822F0F4FFDA
:103D1C00B9F1090F19D0B9F10D0FC5D1092D06D183
:103D2C001423D02214490F4823F0DBFAC2E71423E2
:103D3C00D02212490B4823F0D4FABBE71423D0222B
:103D4C000F49084823F0CDFAB4E70D2DF6D0092D14
:103D5C00F4D11423D0220B49024823F0C2FAA9E76C
:103D6C0000E20400EC6D64A0C43B0300D03B0300F4
:103D7C00180000102C3D0300083D0300E83C030034
:103D8C00943C0300B83C030010B51C46A0F1CF03D3
:103D9C00B3F5C87F82B015D2A1F11303B3F5C87F78
:103DAC0010D2A2F1CF03B3F5C87F0BD2A4F1130349
:103DBC00B3F5C87F06D2134600940A460146024862
:103DCC0022F0A0FE02B010BDEC6D64A010B5124A3A
:103DDC0082B013780133DBB2052B137016D80F4A5F
:103DEC0032F8131051240E4B0E48198023F01BF897
:103DFC0047F6E0710B4823F014F8A123122222217C
:103E0C000848009422F078FF02B010BD002347F65A
:103E1C00FF711370E6E700BFE46D64A0543D03002E
:103E2C0000000010EC6D64A0F0B58BB009AA002165
:103E3C002AF01BFD002523F0D3FE47F6E0764FF465
:103E4C00F841022240F2DF1340F27F27194CCDE9F2
:103E5C000651CDE90426CDE900554FF4F0720393D9
:103E6C004FF42071099B2046029722F09FFF2046B9
:103E7C00114923F069FA1F222046104923F077FAE2
:103E8C003146204622F0CDFF20460D4923F059FC47
:103E9C00294640F2A315204622F0C5FF40F25F23CD
:103EAC001222CE212046009522F026FF23F0ACFEF4
:103EBC000BB0F0BDEC6D64A03C370600383D030040
:103ECC00783D030000232DE9F04FBA4CBA4D91B068
:103EDC002246102101202B6029F026FA10B111B0D6
:103EEC00BDE8F08F2246B54808A92BF043F828B15D
:103EFC00206829F03CFA11B0BDE8F08FB04807A952
:103F0C002AF097FC20B1216808982BF094F8EFE781
:103F1C000BAA01460646AB4F07982AF0A6FC079859
:103F2C00FFF782FF3988A84822F07DFF47F6E07141
:103F3C00A54822F076FF4FF0510CA123122222212A
:103F4C00A148CDF800C022F0D7FE4FF0FF31302051
:103F5C00FDF71AFEB246B04606E04FF0FF3220687D
:103F6C000CA929F0B7FA30B12B68002BF5D00798C3
:103F7C002AF06FFCC7E70D9B934809930E9B0AAA86
:103F8C0009A90A9322F056FF099BCF3BB3F5C87FD2
:103F9C000AD20A9B133BB3F5C87F05D20F9B012BAA
:103FAC000BD04FF00008DFE7884987480CAA23F0B4
:103FBC0001FC0F9B002BF4D0D6E72AF0BDFD39880D
:103FCC008148002952D122F02CFFB8F1000F5DD0AE
:103FDC00DDE909890AF1FF3B711E08F1FF325846F1
:103FEC0009F1FF33CDE904320391FFF7CDFE3146E1
:103FFC0058464B46059AFFF7C7FE731C19465846A0
:10400C0009F1010B059A5B460591FFF7BDFE42468F
:10401C005046049B0399FFF7B7FE42463146504683
:10402C004B46FFF7B1FE4246504608F101080AF133
:10403C00010A5B460599FFF7A7FEDDE9031342462B
:10404C005046FFF7A1FE424631464B465046FFF71D
:10405C009BFE42465B4650460599FFF795FEDDE90F
:10406C000968B24646464FF0FF387DE722F0D9FE8C
:10407C00B8F1000F4AD00A9B324600935146099B77
:10408C00514822F03FFDDDE90968EAE7DDE90968FE
:10409C00A6F1D003B3F5C87F08F1FF3B53D3A6F1CB
:1040AC00CF03B3F5C87F08F1010937D2BBF1120F6A
:1040BC0000F3B380B8F1130F40F0B68013223146F1
:1040CC00414822F00CFD4FF014094A4631463E4857
:1040DC0022F005FDA6F1CE03B3F5C87F1BD2BBF1D0
:1040EC00120F06F1010640F3F8805A463146364865
:1040FC0022F0F5FCB8F5D17F40F3E98031464A4611
:10410C00314822F0ECFCDDE90968AAE72E48DDE92C
:10411C00091222F0E4FCDDE90968A2E7A6F1CE035E
:10412C00B3F5C87F9DD2BBF1120F51DCB8F1130F60
:10413C0021D1CF2642463146234822F0D0FCB9F596
:10414C00D17FE8DCDAE7BBF1120F06F1FF3A18DC9D
:10415C00B8F1130F00F0AB80B8F1120F81D15146BA
:10416C001322194822F0BBFC40F25F239E42D2D0AE
:10417C004FF01309A9E7B9F1120F7FF772AFCF26F1
:10418C00DDE7BBF5D17F32DD40F25F239E423FF489
:10419C0068AF08F10109A6F1CE03B3F5C87FBAD216
:1041AC00BBF1120F06F1010613DCB8F1130FC1D0ED
:1041BC00C5E700BFE06D64A0E86D64A0D8310300D2
:1041CC00C431030000000010EC6D64A0783D0300C6
:1041DC00CF26BBF5D17FB2DC5A463146414822F09E
:1041EC007EFCA8F11303B3F5C87FA8D2A2E75A4608
:1041FC0051463C4822F073FC40F2A313984518D169
:10420C0040F25F239E4286D04FF4D172314635483E
:10421C0022F065FC4FF4D279BDE7BBF5D17F27DDE9
:10422C00B9F5D17FBCDC50E7B9F1130F7FF419AFAE
:10423C009EE7424651462B4822F051FC40F2A31314
:10424C0008F1010999451DD140F25F239E423FF4CC
:10425C0062AF40F2A1123146224822F040FC4246A5
:10426C003146204822F03BFCB9F5D17F93DC2CE79A
:10427C005A4631461B4822F032FC40F2A3139845B3
:10428C00F2D0ECE751464A46164822F028FC40F2A0
:10429C005F239E423FF43FAF5A463146114822F00D
:1042AC001EFC424631460F4822F019FC0DE7132242
:1042BC0051460C4822F013FC51461422094822F0B6
:1042CC000EFC40F25F239E423FF425AFF6E64246D9
:1042DC003146044822F003FC10E7B8F1130F3FF409
:1042EC0029AF0BE7EC6D64A04FF0FF32024B1B685B
:1042FC00C3F8D42B704700BF4C6E64A0F0B50546D4
:10430C008BB023F06DFC09AA002128462AF0ADFAE7
:10431C000221002304914FF4F84240F27F2140F235
:10432C00DF1047F6E077CDE90632CDE90033CDE971
:10433C000210104C104E0597099B4FF4F0724FF47D
:10434C002071206822F032FD3146206822F0FCFFFB
:10435C001F222068094923F00AF83946206822F008
:10436C0060FD3146206822F0EFFF23F04DFC0BB0CE
:10437C00F0BD00BF4C6E64A03C370600183E030035
:10438C002DE9F04F0025DFF81C818BB0D8F8000028
:10439C004549D0E9072300F66424ADF80C20ADF8AC
:1043AC000E30029522F0D0FFD8F8000022F0CEFF9C
:1043BC0003460DF1080948469BB20A21019323F0EC
:1043CC00ABFD019B484603F1460292B2022308A9B9
:1043DC0023F0C3FD99E80300D8F8003004AF03F6CE
:1043EC00CC3383E8030087E803003846022123F02E
:1043FC0093FD019B68261A1D92B2442A38BF4422B1
:10440C009146DFF8A8B0DFF8A8A0D8F80000036E3A
:10441C0006A9AB4205F1010526D9BDF81630BDF849
:10442C00122001339B1A99451EDA01234A4638465D
:10443C0023F079FD069AD8F80000079B22608219B8
:10444C00A2606360311F1B4AC3F30F430144023364
:10445C00092DC4E903BAA161E26106F18006A0F856
:10446C00D23B04F12004D2D108A8012123F054FD41
:10447C000023BDF82220BDF820100F4801F17F0564
:10448C00218002F13F01E18062800C490C4AC4E9B1
:10449C000201C4E90633A5802261A3620BB0BDE81A
:1044AC00F08F00BF4C6E64A03C3706001546000030
:1044BC0094DE0300D144000084360300F542000072
:1044CC00B062040070B50446636888B01C4E039358
:1044DC0023681C493068029322F036FF306822F0C2
:1044EC0035FF0546022102A823F0FAFC02234022E4
:1044FC0002A804A923F04BFD2369ADB28BB1BDF822
:10450C00103069460093BDF81230306801AA01934F
:10451C0022F09AFCBDF80420BDF80010206923F0AD
:10452C00E9FB2A4602A806A923F065FDBDF81A305E
:10453C00BDF81820A168306822F0D3FE08B070BD19
:10454C004C6E64A03C37060070B52A4C86B023F044
:10455C0047FB2949206822F0F7FE206822F0F6FE7E
:10456C0047F6E0710546206822F05BFC00212068CC
:10457C0022F059FC2068B0F8D26BB0F8D03BB0F800
:10458C00CE2BB0F8CC1B009622F0B6FB2068036E45
:10459C001BBB90F8E03B102B27D0092B27D0174ED4
:1045AC00174A302B08BF1646314622F02EFF024622
:1045BC00206802A900F6CC3092B223F032FD02A89A
:1045CC00AAB204A923F017FD20683146BDF81230B9
:1045DC00BDF8102022F085FE206800F6642123F03F
:1045EC00B0F823F011FB06B070BD044EDCE7054EAD
:1045FC00DAE700BF4C6E64A03C370600403E030077
:10460C00743E0300543E030008B5806900F0FEFDC3
:10461C00054B1B68D3F8D80BFFF770FEFFF7B0FE05
:10462C00BDE80840FFF790BF4C6E64A010B59AB07F
:10463C0002460D4901A82CF073FD01230B4901AA78
:10464C000BA82CF06DFD01216A460BA829F0D2FABB
:10465C00044610B120461AB010BD009829F002FB98
:10466C0020461AB010BD00BF9C3E0300A43E0300C0
:10467C0010B58CB002460A4902A82CF051FD01215C
:10468C0002A801AA29F0B6FA044610B120460CB0D3
:10469C0010BD019829F0E6FA20460CB010BD00BF01
:1046AC00B83E03002DE9F04F8046002395B0DFF8AB
:1046BC00E0B0384942460AA8DBF8005004932CF0CD
:1046CC002FFD0AA803A929F0D4FF18B1302015B08A
:1046DC00BDE8F08F304903982AF029F800283FD024
:1046EC00049C002C50D0002C34DD01242646DFF82D
:1046FC00AC902B4FDFF8ACA064353246494607A886
:10470C002CF00EFD4FF0500C3A4603982B1D07A9C8
:10471C00CDF800C02AF04CF80028D7D13246282614
:10472C00514605A82CF0FCFC00963A46039805F17E
:10473C00550305A92AF03CF80134E4B2264630B9F9
:10474C00DBF8002045F8808B136E01331366049B55
:10475C009C42D2DD039829F0C4FF15B0BDE8F08F60
:10476C0002461149039804AB29F0F6FF049C002C77
:10477C00B9D10E49039829F0DAFF22460A49039869
:10478C0004AB29F0E9FFABE7039829F0AAFF9DE7FA
:10479C004C6E64A0D03E0300E83E0300083F0300CB
:1047AC00EC360300103F0300F43E0300003F03000F
:1047BC002DE9F04707468EB0DFF8D0A03A463449D1
:1047CC0004A8DAF800402CF0ABFC012104A801AAE3
:1047DC0029F010FA054618B128460EB0BDE8F0874E
:1047EC00019802A929F091FA029B83B304F16408A1
:1047FC002E46A9462C460BE02C2B2FD04F2E03D83F
:10480C0008EB060213710136029B0134A3421ED938
:10481C000122019803AB0DF1030129F045FA80BB8D
:10482C00039BA3B19DF803300D2BEDD0B9F1000F14
:10483C00E2D00A2B18D0272EE6D808EB060282F815
:10484C005530029B0134A34206F10106E0D80198D1
:10485C0029F008FA28460EB0BDE8F08746443071BE
:10486C004FF001090646CFE74644DAF8002086F8F7
:10487C005500136E48F8807B01330646814613665B
:10488C00C2E70546019829F0EDF9E3E74C6E64A008
:10489C00B83E030070B540F6E430A6B02AF05AF9E1
:1048AC006A4C206078B140F6E43200212CF06CFDAB
:1048BC001021012003AA28F037FD30B120682AF01E
:1048CC004DF90023236026B070BD614803AA04A9EA
:1048DC002AF050FB18B1039828F049FDEEE75D482B
:1048EC0002A929F0A6FF054620B1DDE903102AF044
:1048FC00A2FBF0E72368029A4FF0FF31C3F8D82BE4
:10490C003020FDF741F92846FFF790FE06460120BE
:10491C00FFF78CFE0EB168B90126002306A8069697
:10492C008DF81C308DF86D3000F070FC029829F079
:10493C0090FFDAE72A46484906A82CF0F1FB012142
:10494C0005AA06A829F056F90546002863D00122CD
:10495C00414906A88DF804502CF0E2FB012105AA70
:10496C0006A829F047F9064600283CD08DF805002A
:10497C00002D54D00020FFF77BFE054601208DF85A
:10498C000450FFF775FE8DF80500002D4DD12368FE
:10499C002846C3F8DC5B1D6626ADFFF709FF05F85A
:1049AC00940C236815F8942C83F8E02B0298FFF7ED
:1049BC00A5FCFFF7E5FCFFF7C7FD2368D3F8D43B54
:1049CC00002BB3D14FF0FF32039806A928F082FDDB
:1049DC000028F2D120684FF4FA73039A00F6642190
:1049EC0023F054F8E9E7059829F03CF9281E18BF84
:1049FC00012000F198028DF805606A44236812F8D2
:104A0C00942C1E66C3F8DC0B002ACDD1FFF74AFEAE
:104A1C0023680246C8E7059829F024F997E723682C
:104A2C002846C3F8DC5B1D66F0E70D3818BF012083
:104A3C0000222368C3F8DC0B1A6600F198030DEB17
:104A4C00030515F8943C002BABD1A6E74C6E64A083
:104A5C00D8310300C4310300D03E03004FF0FF32C5
:104A6C000021064B1B68C3F82422C3F80C22C3F8A0
:104A7C001012C3F81422C3F81C127047546E64A0B1
:104A8C0030B400254FF0FF34054B06491B68064A2D
:104A9C00C3F82852C3F81442C0E9032130BC704754
:104AAC00546E64A010C903004D5000002DE9F04174
:104ABC008EB0054623F094F84FF41622504C514B0F
:104ACC0021681868D1F8E81102FB010123F0BFFA44
:104ADC002068D0F810328BBBD0F81C32DBB98DB10A
:104AEC002368D3F82C52EDB9D3F8303253B123F0FC
:104AFC00B9F800222368C3F83052C3F814220EB060
:104B0C00BDE8F08123F080F800222368C3F814225A
:104B1C000EB0BDE8F081C6224FF48E713A4823F0F6
:104B2C00E9F8DCE723F076F800222368C3F82C229E
:104B3C000022C3F814220EB0BDE8F0816E460021AD
:104B4C0022F071F90021206822F06BF90021206815
:104B5C0022F06CF92D49206822F0F6FB236802AF95
:104B6C0003F5FA7292E8030086E803001846012167
:104B7C0022F05CF9206800F1640122F0E2FD236868
:104B8C002349D3F8C82104A80132D3F8C4312CF03E
:104B9C00C7FA04A9206822F038FC8046236803F584
:104BAC00F67393E8030086E803000A21304623F0ED
:104BBC00B3F91FFA88F23946304623F032FA97E8F7
:104BCC00030086E80300206822F0C0FB0246394649
:104BDC0092B2304623F00FFA47F6E071206822F0CB
:104BEC0020F90021206822F00EFC2068BDF80A3064
:104BFC00BDF8082004A922F074FB20686CE700BF04
:104C0C00546E64A018000010F46403003C370600D6
:104C1C00183F030010B50D4C2368D3F8102272B95D
:104C2C00D3E971020132824228BF00224FF0FF31DA
:104C3C00C3F8C821C3F81812C3F8301210BD0020F5
:104C4C00C3F81002FFF732FF2368E9E7546E64A043
:104C5C0010B50F4C2368D3F810228AB9D3F8C821A9
:104C6C000AB9D3F8C4214FF0FF3100200A44C3F82D
:104C7C00C821C3F81812C3F81002C3F82C1210BDC7
:104C8C000020C3F81002FFF711FF2368E6E700BF0E
:104C9C00546E64A0AB492DE9F04FD1F800A000236D
:104CAC004FF0FF325646BBB0079306930493D6F8E9
:104CBC00DC0109A928F00EFC002840F0CF80099BEC
:104CCC000493013300F0FA809E4B049A1E68D6F8C8
:104CDC00D0319A4200F0C880D6F8D831049A9A4262
:104CEC0000F0CA804FF0FF330693049B0B93079898
:104CFC00D6F8C411049A0546022900F1010A00F104
:104D0C00FF300B46144628BF02230992059002F18E
:104D1C00010902F1FF3B002900F0A3804FF0000CC9
:104D2C00CDF80CB06746604619E0534538BFAAEB86
:104D3C00030A0AF10102554601209246494538BF43
:104D4C00A9EB01094C4609F10109BCF1000F0CBF9C
:104D5C000122022293424FF0010C40F28280B5FBFB
:104D6C00F3F203FB1255B4FBF1F201FB124406EB18
:104D7C00C502D2F8D0B1A6465C454FEAC5081FD192
:104D8C0092F8CC21E2B18742DFD80028CDD0AFB960
:104D9C00059A013214BF4FF0FF329A1E0592039A06
:104DAC0014BF3D4603F1FF35002ABCBF52180392D5
:104DBC00039A07461446013A0392C6E73846C4E7FD
:104DCC00D6F82432704647460994002B6DD1D6F89C
:104DDC003422002A00F083808DF8343033460DF1F4
:104DEC0034081B6E01341A6857494346009421A8B5
:104DFC002CF096F9012121A80AAA28F0FBFE002824
:104E0C0050D10A9828F02EFF504BEC1C1B6806F56D
:104E1C00097203F53B1321A803F50053E1B223F00B
:104E2C0011F8024600283DD1022346490E68069926
:104E3C00374487F8CC31099BC7F8D03100297ED094
:104E4C000B998B426CD04FF0FF33D6F8DC0109A9DB
:104E5C00069328F03FFB00283FF431AF394B1E6816
:104E6C0045E74FF0FF3222E796F8CC31022B7FF466
:104E7C0033AF0323079007E096F8D431022B7FF46D
:104E8C0031AF0122042307920C93049B0022D6F825
:104E9C00E0010BA90B9328F0A4FA0022294B0692EF
:104EAC001E6804E7274B09981E68069A12BB02235A
:104EBC003744C7F8D00187F8CC31F8E60446214BCB
:104ECC00DDF810B01B685A46D3F8E0010BA9CDF8F9
:104EDC002CB028F086FA20463BB0BDE8F08F326E3D
:104EEC000DF1340840461A4955322CF019F9154B7E
:104EFC001B6876E74FF0FF3300220B900BA9D6F816
:104F0C00E0010C9328F06DFA022300220D49069261
:104F1C000E68374487F8CC31099BC7F8D031C6E608
:104F2C000C941446D6F8E0010BA90692079528F0CC
:104F3C0058FA099B22460493024B1E68B7E60A46B0
:104F4C00B5E600BF546E64A0343F03001800001097
:104F5C00283F03002DE9F04F0469ADF5077DB4F847
:104F6C000C80E2890188478806AD86AE04F11500F5
:104F7C0010F8023C10F801CCDB0810F803EC4FEAF7
:104F8C00DC0C5B0143EA8C2343EADE0325F8023B8D
:104F9C00AE4200F10300EBD1002A4BD002FB0843D8
:104FAC0003F212331E4600204346B846CDE90421D5
:104FBC00DFF88890B246F61A3446ABB3CDE901302F
:104FCC00059D08F1010B039603E0544505F102051C
:104FDC0027D014F8013B06AA32F81360002EF4D047
:104FEC0029466F1C33464246D9F8000021F036FFA3
:104FFC00334642463946D9F8000021F02FFF2946A6
:10500C0033465A46D9F8000021F028FF33465A4659
:10501C003946D9F8000021F021FF544505F102056D
:10502C00D7D1DDE90130039E049A0130824208F1A8
:10503C000208BFD10DF5077DBDE8F08F546E64A05A
:10504C004FF0FF3270B5114C114E2368114DD3F84F
:10505C001012C3F82822C3F81422C0E9035671B900
:10506C00D3E971020132824228BF00224FF0FF3196
:10507C00C3F8C821C3F81812C3F8301270BD002051
:10508C00C3F81002FFF712FD2368E9E7546E64A021
:10509C003CD003008D4A0000F0B505468BB022F0E1
:1050AC009FFD09AA0021284629F0DFFB02210023DD
:1050BC0004914FF4F84240F27F2140F2DF1047F6A2
:1050CC00E077CDE90632CDE90033CDE902100D4C85
:1050DC000D4E05974FF4F072099B4FF42071206828
:1050EC0021F064FE3146206822F02EF93946206802
:1050FC0021F097FE3146206822F026F922F084FD3B
:10510C000BB0F0BD546E64A03C3706002DE9F041A5
:10511C0000271A4DDFF868802B681A4EB0B0C3F820
:10512C00C4711CE08DF80C70D3F8C4411A6E0134B4
:10513C001268314603AB17A800942BF0F1FF012144
:10514C0002AA17A828F056FDA8B92A680298D2F826
:10515C00C4310133C2F8C43128F084FD2B68D3F874
:10516C003422002ADED11A6E4146553203A82BF0A8
:10517C00D7FF2B68D8E730B0BDE8F081546E64A03F
:10518C00283F0300343F030070B51F4C4FF0FF3233
:10519C00236882B0D3F8DC0103F5E471D3F8C8516D
:1051AC004FF0FF3628F06FF92368FA226946D3F8DE
:1051BC00E00128F08FF9B0B9009AAA42F4D1019914
:1051CC004A1C0ED02268D2F81C52B5B900234FF0FD
:1051DC00FF30C2F8E811C2F81832C2F81402C2F853
:1051EC001C3202B070BD2368D3F81C020028DBD13E
:1051FC00C3F81C62FFF75AFCD6E7C2F81C02FFF793
:10520C0055FC22680199E1E7546E64A02DE9F04742
:10521C0006468EB04FF40E7029F09CFCBF4C2060FB
:10522C00E8B105464FF40E7200212CF0ADF80421C4
:10523C00032005F5EE7228F077F898B12068D0F8C5
:10524C00E431002B62D1D0F8DC31002B55D1D0F8F1
:10525C00E031002B4CD129F081FC002323600EB0EF
:10526C00BDE8F08722680821032002F5F07228F0CF
:10527C005BF80028E2D13379002B63D0002325683A
:10528C00C5F834320023022705F5F27CC5F8E43169
:10529C004FF42072CDE9007CA149A24828F0D2F944
:1052AC000028CBD14FF0FF329F4F23683968C3E9F8
:1052BC0085221E66C3F81C02C3F80C02C3F8C80191
:1052CC00C3F82002C3F81022002945D01021012078
:1052DC0004AA28F029F80028B0D1944804AA05A9FA
:1052EC0029F048FE00283DD0049828F040F8A5E7A6
:1052FC00184628F03CF82068ADE7184628F037F837
:10530C002068D0F8E031002BA5D0F1E74FF0FF3248
:10531C000692D0F8DC0106A9002608AD28F0B3F8F7
:10532C0023684FF0FF32D3F8E0012946089628F0A5
:10533C00D1F8089B0133F3D12068D0F8DC31002B75
:10534C0085D0DAE796F85530002B97D14FF0FF3324
:10535C002568C5F8343295E73A460121032027F039
:10536C00E3FFB3E7724803A929F063FA064620B1BC
:10537C00DDE9041029F05FFEB6E7FFF7C7FE2368EE
:10538C00D3F8C4311BB9039829F063FAF0E70398FA
:10539C00FFF782FED4F800806649D8F81C304046EE
:1053AC00ADF81C30D8F820300696ADF81E3021F040
:1053BC00CBFF21680DF11809484633464A2201F506
:1053CC00FA7122F0CAFD99E80300236808AD03F5D1
:1053DC00FE7203F5FA7382E8030093E8030085E894
:1053EC0003002846052122F097FD282328460DEBC3
:1053FC000301402222F0CBFDDDE90A32C8E9193263
:10540C004D4BDFF838A1C8F870304D4BDFF83491B4
:10541C00C8F87430282328460DEB03014022C8F845
:10542C006CA0C8F87C60C8F8809022F0B0FDDDE973
:10543C000A32C8E92132444B2846C8F89030434B15
:10544C004022C8F894302823C8E927690DEB0301E2
:10545C00C8F88CA022F09BFDDDE90A32C8E929329C
:10546C003B4B2168C8F8B0303A4B2846642201F512
:10547C00F671C8F8B430C8E92F690223C8F8ACA09B
:10548C0022F09FFD2823284640220DEB030122F039
:10549C0098FD2368D3F80C52DDE90A32C8E93132A1
:1054AC002D4BC8E93769C8F8D0302C4BC8F8CCA0C4
:1054BC00C8F8EC60C8F8D430CDB164E7D3F8143236
:1054CC001BBB002238680DF10B0128F003F80228F1
:1054DC004CD09DF80B30012B75D0022B6FD0002BCC
:1054EC003ED02368D3F80C32002B7FF44CAF29F05C
:1054FC0023FB2368D3F81822002ADFD0FFF744FEE1
:10550C0028F04CF823680546D8E74FF0FF30FFF73A
:10551C00CDFA28F043F80546D3E700BF546E64A0DB
:10552C00483F0300A14C0000506E64A0D83103002A
:10553C00C43103003C3706005D4C0000EC36030020
:10554C00E4C10300614F00004D50000010C903007E
:10555C00214C000068D70300694A0000B8BA030068
:10556C004FF0FF322368C3F80C220CE74FF0FF32E8
:10557C0004980AA927F0AEFF06460028B1D120688E
:10558C00D0F81082B8F1000F31D10D9B012B1ED039
:10559C00D0F82832002B3FD12268D2F820324BB100
:1055AC00D2F80832D2F804229B1A13F1800F42DB96
:1055BC00802B2DDC00222368C3F8202291E70020E9
:1055CC00FFF746FB8DE70020FFF724FB89E74FF040
:1055DC00FF33C0E984332368D3F820223ABB0C9AFA
:1055EC00C3F804224FF0FF32C3F8202279E74FF4BE
:1055FC00FA73049A00F1640122F048FA284627F065
:10560C00D9FFB0F57A6F1AD20D9B012BC4D1E2E70A
:10561C000020FFF71DFBCDE7284627F0CBFF40F617
:10562C00B7339842F0D94046FFF7F4FAECE70C9AFE
:10563C00C3F80822D6E70020FFF7ECFABAE74FF0E0
:10564C00FF322368C3E9846227F0A8FF0546DBE735
:10565C008269D2F8C83183F00103C2F8C8317047AF
:10566C004FF0FF3283699A60704700BF2DE9F04F0D
:10567C0004460026254695B022F0B2FA55F80C0BDC
:10568C00314609AA29F0F1F84FF4F8434FF002091A
:10569C0047F6E07B079340F2DF1140F27F23DFF8FF
:1056AC00BCA14FF4F072CDE90231CDE905B6099BEE
:1056BC004FF420712846CDE90066CDF8109021F00A
:1056CC0075FB5146284621F03FFE284621F03EFE50
:1056DC001F22A4F8C0016249284621F048FE594611
:1056EC00284621F09EFB3146284621F09CFBA36AFC
:1056FC000AA8ADF82C30E36A0821ADF82E300A96D2
:10570C0022F00AFCB4F8C0214B46463292B210A9E2
:10571C000AA822F022FC10A8012122F0FDFBBDF802
:10572C0040303146A4F86C307F33A4F87030BDF8AB
:10573C0042302846A4F86E303F33A4F87230494BFF
:10574C00C4E921466367484B04F5D677A367474BFA
:10575C000DF13008E36721F056FE3146284621F062
:10576C0065FB2846012121F04EFE2846404921F0D8
:10577C00EBFD3121284621F0EDFDA4F8C2012846AD
:10578C0021F0E4FD024692B2A4F8C4210832802A2A
:10579C0038BF8022B4F8C2B139460BEB4B0B4FEA41
:1057AC004B0B0AA80BF18A0B92B222F024FC97E85F
:1057BC0003001FFA8BF288E803003946404622F0BA
:1057CC0030FC97E803004B4688E8030080224046F3
:1057DC0012A922F0F6FB334612A80EA9802222F061
:1057EC00A2FB0F9BB4F8C221C4F890300E9B40462C
:1057FC00DFF880B0DFF88080C4F88C301F4B0432A7
:10580C0092B20EA9C4F89C30C4E929463346C4F8B8
:10581C009480C4F898B022F0D4FB0F9B4946C4F88E
:10582C00B0300E9B3846C4F8AC30C4E92D8BC4E9BB
:10583C003146C4F8BC6022F06FFB51462846C4F8D0
:10584C00D46021F081FD284604F16C0121F079FF30
:10585C0022F0DAF915B0BDE8F08F00BF3C37060036
:10586C00503F0300843603006D560000B062040004
:10587C00F48E05005D560000EC3603003481030005
:10588C002DE9F04F4FF4E8708BB029F063F9744DAB
:10589C00286098B10446012600214FF4E8722BF0E1
:1058AC0073FD704804F5E671C4F8BC6129F07DF90C
:1058BC0038B1286829F052F900232B600BB0BDE8F1
:1058CC00F08FDFF8A4A110215246304627F02CFDB2
:1058DC0028B12B68D3F8CC0129F072F9E9E75246CC
:1058EC00624803A929F046FB20B1DAF8000027F042
:1058FC003EFDEEE729685E4828F09BFF28B1DAF8F8
:10590C000010039829F097FBEFE72868FFF7AEFE2D
:10591C0028688368002B40F084800DF1220B00F185
:10592C006C014FF4FA73DAF800200C3022F0AEF868
:10593C00D5F8008004A9D8F8CC0129F048F9002842
:10594C0040F08A80D8F8C81101296ED0049A93B21D
:10595C0003EB83031214DB0B002978D1454907A80C
:10596C002BF0DEFB08F10C063046434921F0ECFC31
:10597C000021304621F047FD47F6E071304621F01A
:10598C0050FA0DF11B07B8F8AC411FE05F2A31D07B
:10599C00B8F8AE211C4421F0A6FB47F6E071304666
:1059AC0021F03FFA397804F1FF39202904D05F291E
:1059BC0002D0304621F0FAFB304606AA05A921F0A8
:1059CC00A8FB059B994517DCBB4525D0002130462B
:1059DC0021F029FA0021304621F023FA002130462B
:1059EC0021F024FA17F8012F21462E2A3046B8F858
:1059FC00C231CBD15B08CBE73046002121F011FA44
:105A0C00B8F8C431069A30461344013B009305990B
:105A1C00A31E21F071F9D7E728688368002B3FF4A7
:105A2C007EAF006828F015FF69E7049B01F1663131
:105A3C0003EBC30381FB0321DA17C2EB610202F50E
:105A4C00001293B203EB83030492DB0B12140B4989
:105A5C0007A82BF065FB85E7094B079382E700BF8E
:105A6C005C6E64A08C2D0300586E64A0D8310300CA
:105A7C00C4310300743F0300F48E0500803F030023
:105A8C00457272004FF0FF3283699A60704700BF15
:105A9C0001224FF0FF318369C3F80422C3F81022AE
:105AAC00C3F81412704700BF10B4012102244FF048
:105ABC00FF328369C3F80442C3F8101210BCC3F858
:105ACC001422704710B4012103244FF0FF32836974
:105ADC00C3F80442C3F8101210BCC3F81422704768
:105AEC0010B4002104244FF0FF328369C3F8044240
:105AFC00C3F8101210BCC3F81422704710B4002164
:105B0C0005244FF0FF328369C3F80442C3F8101226
:105B1C0010BCC3F81422704710B4002106244FF0B7
:105B2C00FF328369C3F80442C3F8101210BCC3F8E7
:105B3C00142270472DE9F0430D469846174600F1A4
:105B4C000C0485B000210646204621F06CF900219A
:105B5C00204621F066F90021204621F067F96A8879
:105B6C00298820460132013121F0BDFA41462046F8
:105B7C0021F057F93978202902D0204621F016FB64
:105B8C0002A9204603AA21F0C4FAB5F800C0B6F861
:105B9C000A320CF1010C0CEB0301029B01F1FF39F1
:105BAC004B451FDB6A882046013221F09CFA4146A6
:105BBC00204621F036F97978202902D0204621F0B0
:105BCC00F5FA03AA204602A921F0A3FA2D88B6F80B
:105BDC000A22029B05EB4205023DAB4217DB05B0E6
:105BEC00BDE8F0830021204621F01BF9B6F80C1219
:105BFC00039A4B461144013900912046029921F039
:105C0C007BF82988B6F80A3201311944CAE72046D4
:105C1C00002121F006F9B6F80C12039A2B468D18C8
:105C2C00013D20460299009521F066F805B0BDE8CB
:105C3C00F08300BF70B584B0044602A828F0E8FFDA
:105C4C00002840F0C58047F6E07604F10C052846A4
:105C5C00614921F079FB2846002121F0D4FB28462C
:105C6C0047F6E07121F0DDF89DF80C205B4901A8A6
:105C7C002BF056FAD4F8043201AA012B14BF334688
:105C8C004FF47873204604F5D671FFF753FF314675
:105C9C00284621F0C6F8B4F8E631B4F8E4212846D9
:105CAC0001334F49013221F01CFB9DF80D204B496B
:105CBC0001A82BF035FAD4F8043201AA022B14BF38
:105CCC0033464FF47873204604F5DA71FFF732FF50
:105CDC003146284621F0A5F8B4F8EE31B4F8EC21A1
