:10000000580D0010FD0100001702000078020000EA
:10001000190200001B0200001D020000CBE5FFEFEB
:100020000000000000000000000000003106030096
:100030002102000000000000C106030005070300C4
:10004000F9D9020009DA020019DA020029DA0200FD
:1000500039DA020049DA020059DA020069DA0200EC
:1000600079DA020089DA020099DA0200A9DA0200DC
:10007000B9DA0200C9DA0200D9DA0200E9DA0200CC
:10008000F9DA020009DB020019DB020029DB0200B9
:1000900039DB020049DB020059DB020069DB0200A8
:1000A00079DB020089DB020099DB0200A9DB020098
:1000B000B9DB0200C9DB0200D9DB0200E9DB020088
:1000C000F9DB020009DC020019DC020029DC020075
:1000D00039DC020049DC020059DC020069DC020064
:0400E00079DC0200C5
:1000E4002B498D462B492C480A1A04D081F30988E0
:1000F400022282F31488294829492A4A00F037F851
:1001040029482A492A4A00F032F82A482A492B4A1F
:1001140000F02DF82A482B492B4A00F028F82B48E8
:100124002B492C4A00F023F82B482C492C4A00F088
:100134001EF82C482C49002200F024F82B482C49A6
:10014400091A00220260043001601E481E498842D8
:1001540005D00268043003B4904703BCF7E70020DD
:100164008646EC4600200021224A9047FEE788425A
:1001740007D0521A05D0037801300B700131013ACF
:10018400F9D17047884202D002700130FAE7704713
:10019400580D0010580D0010580D001008B6060038
:1001A400000000101C050010A0020000A0020000C6
:1001B400D274030008B6060000000010000000100E
:1001C400D4740300D4740300D4740300D4740300FF
:1001D400D4740300D4740300D4740300D4740300EF
:1001E40008B60600605664A0F08A64A000A859A06E
:1001F400605664A035CD0000DFF88CD023488047DA
:10020400DFF884D022488047224823490160FFF761
:1002140067BF2FE02EE02DE02CE02BE02AE029E060
:1002240028E027E026E025E024E023E022E021E0A6
:1002340020E01FE01EE01DE01CE01BE01AE019E0D6
:1002440018E017E016E015E014E013E012E011E006
:1002540010E00FE00EE00DE00CE00BE00AE009E036
:1002640008E007E006E005E004E003E002E001E066
:1002740000E0FFE71EF0040F0CBFEFF30880EFF37C
:1002840009802CF083BB0000000001103DCD00006C
:0C029400C532030008ED00E0000000008F
:1002A00000B585B00190009140F2174032F056FF42
:1002B000002140F2174032F075FF0023039310E055
:1002C00040F2174032F032FF322031F03DF940F277
:1002D000174032F037FF322031F036F9039B0133FB
:1002E0000393039B132BEBDD40F2174032F01EFF0C
:1002F000FA2031F029F940F2174032F023FFFA20BA
:1003000031F022F9F0E7000000B585B000238DF848
:100310000F3000230193032300930023502206494A
:10032000064831F021FC03468DF80F309DF80F3060
:10033000184605B05DF804FBD4740300A102000068
:1003400010B588B0039002911346ADF80630029BB9
:100350006C330793BDF80630B3F5004F34D1079BDB
:100360001946424831F080FD079B1A68079B083305
:100370001946104631F064FD01238DF81830012331
:100380008DF8193040F2D973ADF81A3008238DF882
:10039000143000238DF8153000238DF81630079B9C
:1003A0009B681B685B69079A926805A91046984785
:1003B00031F08CFB0246079B5A60039B9B682C4ADA
:1003C0000021029898474DE0BDF80630002B49D136
:1003D000079B5B68184631F087FB034640F6B7324F
:1003E00093423FD9079B9B681B681B69079A9268D9
:1003F00005A9104698479DF81830012B22D19DF889
:100400001930012B1ED1BDF81A3040F2D972934237
:1004100018D19DF81430082B14D19DF81530002BFD
:1004200010D19DF81630012B0CD9039BDC680023FA
:10043000022200210298A047039B1B690221029817
:1004400098470BE0039BDC680023032200210298FD
:10045000A047039B1B69032102989847039B5B6994
:100460000298984700BF08B010BD00BF9475030004
:100470009875030010B588B0039002911346ADF84B
:100480000630029B6C330793BDF80630B3F5004F7E
:1004900034D1079B1946424831F0E6FC079B1A68A5
:1004A000079B08331946104631F0CAFC01238DF82A
:1004B000183001238DF8193040F2D973ADF81A3095
:1004C00008238DF8143000238DF8153000238DF8A3
:1004D0001630079B9B681B685B69079A926805A9A1
:1004E0001046984731F0F2FA0246079B5A60039B88
:1004F0009B682C4A0021029898474DE0BDF80630D1
:10050000002B49D1079B5B68184631F0EDFA034692
:1005100040F6B73293423FD9079B9B681B681B6923
:10052000079A926805A9104698479DF81830012B44
:1005300022D19DF81930012B1ED1BDF81A3040F29E
:10054000D972934218D19DF81430082B14D19DF81C
:100550001530002B10D19DF81630012B0CD9039BC0
:10056000DC680023022200210298A047039B1B693C
:100570000221029898470BE0039BDC6800230322CA
:1005800000210298A047039B1B690321029898470A
:10059000039B5B690298984700BF08B010BD00BF7D
:1005A000B4750300BC75030010B590B003900291C0
:1005B0001346ADF8063041230E9304AB19466E483E
:1005C00031F052FC03468DF83F309DF83F30002B50
:1005D0000CD0039BDC680023032200210298A04773
:1005E000039B1B69032102989847C2E0049B05AA5C
:1005F0001146184631F024FC03468DF83F309DF833
:100600003F30002B0CD0039BDC6800230322002129
:100610000298A047039B1B69032102989847A8E012
:10062000BDF80630B3F5004F69D1039B9B68534A70
:10063000002102989847059B1B685C690598202358
:100640004F4A0E99A04703468DF83F309DF83F3042
:10065000002B0CD0039BDC680023032200210298AE
:10066000A047039B1B6903210298984781E006ABD2
:100670002022AA21184635F0BCFA059B1B689C690C
:10068000059806AA20230E99A04703468DF83F300F
:1006900006AB20225521184635F0ABFA9DF83F30C5
:1006A000002B0BD1059B1B689C6905980E9B991C20
:1006B00006AA1423A04703468DF83F3001238DF886
:1006C00018309DF83F30002B08D1059B1B689C69B2
:1006D00005980E9B591D06AA0123A0479DF83F309F
:1006E000002B46D0039BDC680023032200210298E4
:1006F000A047039B1B6903210298984739E0BDF886
:100700000630002B35D106AB20220021184635F0EB
:1007100070FA059B1B685C69059806AA20230E9950
:10072000A04703468DF83F309DF83F30002B0CD09A
:10073000039BDC680023032200210298A047039B4F
:100740001B690321029898470BE0039BDC68002398
:10075000022200210298A047039B1B6902210298F4
:100760009847059B1B689C6905982023044A0E99AD
:10077000A04710B010BD00BFD8750300E07503009E
:100780007C5764A010B588B0039002911346ADF871
:100790000630029B6C330593BDF80630B3F5004F6D
:1007A00039D1039B9B688B4A002102989847059B8F
:1007B0001946894831F058FB03468DF81F309DF8E3
:1007C0001F30002B0AD1059B1A68059B043319467C
:1007D000104631F035FB03468DF81F309DF81F3071
:1007E000002B0CD0039BDC6800230322002102981D
:1007F000A047039B1B69032102989847E8E0059BEB
:100800004FF4C812DA60059B4FF4C8121A61059BB9
:1008100000229A60DCE0BDF80630002B40F0D88062
:10082000059B5B681B681B69059A526804A9104602
:10083000984703468DF81F309DF81F30002B0CD0D1
:10084000039BDC680023032200210298A047039B3E
:100850001B69032102989847BAE0059B1A69049B1B
:100860009A4202DA049A059B1A61059BDA68049B96
:100870009A4202DD049A059BDA60049B002B03DA9E
:10088000049B5B42069301E0049B0693069B5B0B73
:1008900003F0070213465B019B1A9B001344069367
:1008A000059B03F11400049B1A14069B4B4935F079
:1008B0006DF8039B9B68059A1432002102989847B3
:1008C000C82030F041FE059B9B685A1C059B9A602E
:1008D000059B9B68052B7BD9059BDB68B3F5702FC7
:1008E00032DA059BDB680493049B002B03DA049B3C
:1008F0005B42069301E0049B0693069B5B0B03F0AF
:10090000070213465B019B1A9B0013440693059B49
:1009100003F11400049B1A14069B314935F036F894
:10092000039B9B68059A1432002102989847039B09
:10093000DC680023032200210298A047039B1B6967
:1009400003210298984743E0059B1B69B3F50C1FF0
:1009500032DD059B1B690493049B002B03DA049B87
:100960005B42069301E0049B0693069B5B0B03F03E
:10097000070213465B019B1A9B0013440693059BD9
:1009800003F11400049B1A14069B164934F0FEFF71
:10099000039B9B68059A1432002102989847039B99
:1009A000DC680023032200210298A047039B1B69F7
:1009B0000321029898470BE0039BDC680023022286
:1009C00000210298A047039B1B69022102989847C7
:1009D00008B010BDF475030010760300187603000C
:1009E0003C7603006876030030B58BB00590049127
:1009F0001346ADF80E30049B6C330893BDF80E30EF
:100A0000B3F5004F40F09D80059B9B687D4A002117
:100A100004989847089B19467B4831F025FA03460D
:100A20008DF827309DF82730002B0AD1089B1A68D3
:100A3000089B04331946104631F002FA03468DF83C
:100A400027309DF82730002B0CD0059BDC68002355
:100A5000032200210498A047059B1B6903210498E9
:100A60009847CDE0089B00221A6100BF089B5B6895
:100A70001B68DC69089B5868089B03F1080107ABF9
:100A80004FF4FA7200920522A0470346022BEDD1E3
:100A9000089B5B681B681C6A089B586807AB64224C
:100AA000009201225949A04703468DF827309DF84E
:100AB0002730002B0CD0059BDC680023032200218B
:100AC0000498A047059B1B6903210498984797E069
:100AD00000BF089B5B681B68DC69089B5868089B23
:100AE00003F1080107AB4FF4FA7200920522A04708
:100AF0000346022BEDD1089B5B681B681C6A089BB0
:100B0000586807AB6422009201224049A04703467F
:100B10008DF827309DF82730002B0CD0059BDC6822
:100B20000023032200210498A047059B1B69032191
:100B30000498984764E030F0C9FF0246089B5A6168
:100B40005EE0BDF80E30002B5AD1089B5B69184659
:100B500030F0CAFF0346B3F5FA6F0CD9059BDC6889
:100B60000023032200210498A047059B1B69032151
:100B70000498984744E0089B1B69C3F1040307935A
:100B8000089B5B681B68DC69089B5868089B03F13D
:100B90000802089B1B69D118079A07AB4FF4FA7536
:100BA0000095A047089B1A69079B1A44089B1A6185
:100BB000089B1B69032B23D9089B08330422144983
:100BC000184634F053FE0346002B0CD1059BDC681D
:100BD0000023022200210498A047059B1B690221E3
:100BE000049898470CE0059BDC6800230322002151
:100BF0000498A047059B1B6903210498984700BFF0
:100C00000BB030BD94760300B0760300B8760300D5
:100C1000BC76030010B588B0039002911346ADF87E
:100C20000630029B6C330793BDF80630B3F5004FD6
:100C300012D1039B9B68304A0021029898472F49A4
:100C40002F4808F0B3F830F041FF0246079BDA6006
:100C5000079B00229A604CE0BDF80630002B48D17B
:100C600000230593059B069305AA06AB114618467B
:100C700008F06AF80346002B13D0069B214A9342E2
:100C80000FD1059B204A93420BD1039BDC680023C4
:100C9000022200210298A047039B1B6902210298AF
:100CA0009847079BDB68184630F01EFF0346B3F5F4
:100CB000FA6F1ED9079B9B685A1C079B9A60079B7B
:100CC0009B68032B0CD1039BDC68002303220021CB
:100CD0000298A047039B1B6903210298984708E0EC
:100CE0000649074808F062F830F0F0FE0246079B1C
:100CF000DA6008B010BD00BFC4760300887766557F
:100D000044332211453423128978675600B5A1B0C7
:100D100001904FF020431B93514B1E932FF09AFCF0
:100D200089E000231D9343238DF87F3017E01E9A3E
:100D30001D9B13441B78D9B202AA1D9B13440A467B
:100D40001A701E9A1D9B13449DF87F201A701D9BDC
:100D500001331D939DF87F3007338DF87F301D9B45
:100D6000632BE4D900231D9343238DF87F3010E0DB
:100D70001E9A1D9B13441B78DBB29DF87F209A427C
:100D800061D11D9B01331D939DF87F3007338DF892
:100D90007F301D9B632BEBD900231C9311E00023B4
:100DA0001D9307E01B9A1D9B1344FF221A701D9B85
:100DB00001331D931D9BB3F5806FF3D31C9B01334F
:100DC0001C931C9B632BEAD900231D9343238DF8AE
:100DD0007F3010E01E9A1D9B13441B78DBB29DF8F8
:100DE0007F209A4231D11D9B01331D939DF87F30A6
:100DF00007338DF87F301D9B632BEBD900231D93A8
:100E000043238DF87F300FE01E9A1D9B134402A9E7
:100E10001D9A0A4412781A701D9B01331D939DF888
:100E20007F3007338DF87F301D9B632BECD91E9BE1
:100E300003F580331E931B9B03F500031E9A9A4211
:100E4000FFF46FAF02E000BF00E000BF2FF020FC16
:100E50001E9B03F1C043184621B05DF804FB00BFA0
:100E6000000001A010B586B0039002911346ADF8C2
:100E70000630029B6C330593BDF80630B3F5004F86
:100E80003FD1039B9B68204A0021029898474FF46A
:100E90000000FFF73BFF0490059B049A1B4918468E
:100EA00034F074FD039B9B68059A002102989847D3
:100EB000049BB3F5000F12D1039B9B68144A0121D8
:100EC00002989847039BDC680023022200210298C5
:100ED000A047039B1B6902210298984711E0039BDE
:100EE0009B680C4A012102989847039BDC68002309
:100EF000032200210298A047039B1B69032102984B
:100F0000984700BF06B010BDDC760300F076030002
:100F1000147703002477030010B596B00590049170
:100F20001346ADF80E30049B6C331593BDF80E30AC
:100F3000B3F5004F2BD1059B9B68234A00210498F1
:100F40009847224B93F83A301946204B93F83B30A0
:100F50001C461E4B93F83C301A461C4B93F83D3010
:100F600006A80193009223460A46194934F00EFD63
:100F7000059B9B6806AA012104989847154B0022FF
:100F80001A6030F0A3FD0246159B1A6019E0BDF807
:100F90000E30002B15D10F4B1B68002B11D0059B79
:100FA000DC680023022200210498A047059B1B69EE
:100FB000022104989847059B9B68074A01210498E1
:100FC000984716B010BD00BF3C770300706E64A058
:100FD00054770300605664A07C77030000B587B0A7
:100FE00001900023ADF80E30012304932AE0002382
:100FF000059321E0049BDB00013BDB109B029BB2CD
:1010000003F4F843ADF80C30019BBDF80C201146F9
:10101000184629F092FC0198059B03F11401049BEA
:1010200028331A4629F0D6FA059B01330593BDF8FB
:101030000E300133ADF80E30059BFF2BDADD049B3B
:1010400001330493049B1F2BD1DD012304932AE079
:10105000049BDB00013BDB105B019BB203F4787364
:10106000ADF80C300023059317E0019BBDF80C2070
:101070001146184629F061FC0198059B03F1140103
:10108000049B48331A4629F0A5FA059B01330593C2
:10109000BDF80E300133ADF80E30059BFF2BE4DDBB
:1010A000049B01330493049B1F2BD1DD0123049384
:1010B00029E0049BDB00013BDB109BB203F01F0324
:1010C000ADF80C300023059317E0019BBDF80C2010
:1010D0001146184629F031FC0198059B03F11401D3
:1010E000049B68331A4629F075FA059B0133059372
:1010F000BDF80E300133ADF80E30059BFF2BE4DD5B
:10110000049B01330493049B1F2BD2DD00BF00BF5F
:1011100007B05DF804FB000010B584B003900291A5
:101120001346ADF80630BDF80630B3F5004F14D1C4
:10113000039B9B681B4A0021029898470298FFF77F
:101140004DFF039B9B68184A092102989847039B0F
:101150001B6806210298984721E0BDF80630022B53
:101160000CD1039BDC680023022209210298A047CE
:10117000039B1B6902210298984710E0BDF80630D6
:10118000042B0CD1039BDC68002303220921029865
:10119000A047039B1B6903210298984700BF04B036
:1011A00010BD00BF9C770300B477030010B586B074
:1011B000039002911346ADF80630029B6C33059301
:1011C000BDF80630B3F5004F17D1039B9B684B4A1F
:1011D000002102989847039B9B68494A0121029885
:1011E0009847039B9B68474A02210298984730F032
:1011F0006DFC0246059B1A607DE0BDF80630102BA1
:1012000004D1039B5B690298984774E0BDF80630EF
:10121000002B70D1059B1B68184630F065FC034617
:10122000B3F57A7F67D330F051FC0246059B1A6014
:10123000059B04331A460121334830F09DFE0346D6
:101240008DF813309DF81330002B17D1039B9B684A
:101250002E4A022102989847059B5B68184630F099
:10126000C5FE039BDC680023022200210298A047F0
:10127000039B1B690221029898473CE09DF81330BC
:101280000A2B06D1039B9B68214A022102989847AA
:1012900031E09DF81330042B06D1039B9B681D4A57
:1012A00002210298984726E09DF813300D2B06D1B5
:1012B000039B9B68184A0221029898471BE09DF8FF
:1012C0001330092B06D1039B9B68144A0221029814
:1012D000984710E09DF813300A2B06D1039B9B68BA
:1012E0000F4A02210298984705E0039B9B680D4A2C
:1012F00002210298984700BF06B010BDE8770300AE
:10130000007803002C7803003C7803004C7803003D
:101310006478030084780300A4780300C078030095
:10132000DC780300FC78030010B586B003900291CE
:101330001346ADF80630029B6C330593BDF80630BA
:10134000B3F5004F17D1039B9B684B4A00210298CD
:101350009847039B9B68494A012102989847039B41
:101360009B68474A02210298984730F0AFFB02463B
:10137000059B1A607DE0BDF80630102B04D1039B5D
:101380005B690298984774E0BDF80630002B70D175
:10139000059B1B68184630F0A7FB0346B3F57A7F20
:1013A00067D330F093FB0246059B1A60059B04331C
:1013B0001A460121334830F0DFFD03468DF8133023
:1013C0009DF81330002B17D1039B9B682E4A0221F6
:1013D00002989847059B5B68184630F007FE039B10
:1013E000DC680023022200210298A047039B1B69AE
:1013F0000221029898473CE09DF813300A2B06D151
:10140000039B9B68214A02210298984731E09DF88E
:101410001330042B06D1039B9B681D4A02210298BE
:10142000984726E09DF813300D2B06D1039B9B684F
:10143000184A0221029898471BE09DF81330092BA7
:1014400006D1039B9B68144A02210298984710E03A
:101450009DF813300A2B06D1039B9B680F4A02218B
:101460000298984705E0039B9B680D4A0221029869
:10147000984700BF06B010BD14790300307903000F
:101480002C780300607903004C7803006478030033
:1014900084780300A4780300C0780300DC7803009C
:1014A000FC78030010B586B0039002911346ADF8A6
:1014B0000630029B6C330493BDF80630B3F5004F41
:1014C0005BD1049B00221A72039B9B682C4A00216B
:1014D00002989847049B19462A4830F0C5FC0346F9
:1014E0008DF817309DF81730002B1DD1049B1A681A
:1014F000049B04331946104630F0A2FC03468DF8D5
:1015000017309DF81730002B0ED1049B5B681B68C9
:101510005B69049A5068049A02F10C0140F6C41207
:10152000984703468DF817309DF81730002B12D0DE
:10153000039B9B68144A002102989847039BDC6830
:101540000023032200210298A047039B1B6903216B
:101550000298984711E0039B9B680C4A002102986F
:101560009847039BDC680023022200210298A047D1
:10157000039B1B6902210298984706B010BD00BF6B
:10158000707903008C79030094790300BC7903001F
:1015900010B588B0039002911346ADF80630029B57
:1015A0006C330693BDF80630B3F5004F6ED1039B44
:1015B0009B68764A002102989847069B0833194693
:1015C000734830F051FC03468DF81F309DF81F30F2
:1015D000002B0AD1069B9A68069B043319461046D5
:1015E00030F02EFC03468DF81F309DF81F30002B85
:1015F00008D1069B10331946664830F035FC034687
:101600008DF81F309DF81F30002B0AD1069B1A69F8
:10161000069B0C331946104630F012FC03468DF839
:101620001F309DF81F30002B11D0039B9B685A4A36
:10163000002102989847039BDC68002303220021C5
:101640000298A047039B1B69032102989847039BBC
:101650009B68524A012102989847069BDB681B68E9
:101660001B69069AD2680F2110469847069BFF22F5
:101670001A70069BFF225A70069B00221A75069B61
:1016800000229A70069B00225A757BE0BDF8063056
:10169000002B56D1069B5B681B681B69069A506835
:1016A000069A92781201D2B211469847069B5B685F
:1016B0001B685B69069A5068069A9278D2431201B9
:1016C000D2B211469847069BDB681B685B69069A95
:1016D000D26804A910469847049BDAB2069B5A7058
:1016E000069B5B785BB2DB435AB2069B1B785BB20E
:1016F00013405BB28DF81730069B9A789DF817302F
:101700005340DAB2069B9A70069B5A78069B1A7071
:10171000069B5B7D002B35D1069B9B7803F00F0366
:101720000F2B2FD1069B01225A75039B9B681C4AE5
:10173000012102989847039B1B680621029898474D
:1017400020E0BDF80630022B0CD1039BDC6800239F
:10175000022200210298A047039B1B6902210298E4
:1017600098470FE0BDF80630042B0BD1039BDC68D3
:101770000023032200210298A047039B1B69032139
:101780000298984700BF08B010BD00BF287A030038
:10179000487A0300547A0300607A0300807A0300D9
:1017A000AC7A030010B586B0039002911346ADF8F1
:1017B0000630029B6C330593BDF80630B3F5004F3D
:1017C00014D1039B9B682D4A002102989847039BE4
:1017D0009B682B4A012102989847039B1B680621AE
:1017E00002989847059B00221A7044E0BDF8063025
:1017F000002B13D1059B1B781A46224B53F822303D
:101800006421184601F05AF9059B1B780133DBB2BD
:1018100003F00703DAB2059B1A702CE0BDF806301E
:10182000022B12D1039B9B68174A0121029898470B
:10183000039BDC680023022200210298A047039B3F
:101840001B6902210298984715E0BDF80630042B69
:1018500011D1039B9B680D4A012102989847039B75
:10186000DC680023032200210298A047039B1B6928
:1018700003210298984700BF06B010BDC47A030048
:10188000DC7A0300207F0300F87A03000C7B03005E
:1018900010B588B0039002911346ADF806300323CB
:1018A0000793844B049300230593BDF80630B3F5EA
:1018B000004F40F0F480039B9B687F4A0021029810
:1018C0009847029BD3F8DC30002B06D0039B9B6823
:1018D0007A4A01210298984705E0039B9B68784A61
:1018E000012102989847039B5B684FF6FF710298AD
:1018F0009847039B1B68102102989847029BD3F8D6
:10190000DC30002B40F0D380039B9C68079B5A1C63
:1019100007929BB26B4A19460298A047049B6A4AF9
:101920001068186012791A7100230593674B0693AB
:1019300038E0069B654A9B1A1B111A46644B9B5C58
:10194000032B2CD1059B002B0BD0049834F0CDF940
:1019500003461A46049B13445E4A11889278198004
:101960009A70059B042B11D1039B9C68079B5A1C02
:1019700007929BB2049A19460298A047049B524AC8
:101980001068186012791A7100230593069B1B6872
:101990001946049834F022F8059B01330593069B01
:1019A00010330693069B5B684B4A9342C1D1059B5B
:1019B000002B0ED0039B9C68079B5A1C07929BB27E
:1019C000049A19460298A047049B00221A7000232B
:1019D0000593039B9C68079B5A1C07929BB23F4A46
:1019E00019460298A047049B374A1068186012797C
:1019F0001A7100230593354B069338E0069B334A52
:101A00009B1A1B111A46324B9B5C042B2CD1059B55
:101A1000002B0BD0049834F068F903461A46049B57
:101A200013442C4A1188927819809A70059B042BD4
:101A300011D1039B9C68079B5A1C07929BB2049A86
:101A400019460298A047049B1F4A10681860127933
:101A50001A7100230593069B1B681946049833F0FE
:101A6000BDFF059B01330593069B10330693069B30
:101A70005B68194A9342C1D1059B002B17D0039B89
:101A80009C68079B5A1C07929BB2049A19460298BD
:101A9000A047049B00221A700023059307E0BDF8BD
:101AA0000630102B03D1039B5B690298984700BF57
:101AB00008B010BDD05664A0247B0300407B030017
:101AC000647B0300887B0300947B0300807D03001C
:101AD000485764A09C7B030091180000A07B030082
:101AE00082B00346ADF80630BDF806301A46120142
:101AF000D31A5B009BB214339BB2184602B07047F6
:101B000010B58AB003900B46ADF80A301346ADF815
:101B10000830039B47F6E071184628F00EFF039B40
:101B2000BDF808201146184628F009FF039BBDF8B0
:101B300008201146184628F007FF424B099378E029
:101B4000099B1A88BDF80A3013409BB2002B6DD058
:101B500000213D4828F0F6FE0398099B5B88194652
:101B6000099B9B881A46099BDB881C46099B1B899D
:101B70000093234628F04CFE039B0121184628F0D1
:101B8000E1FE0023ADF82230099BDB68079310E0EB
:101B9000039A079B1B781946104629F063F8034601
:101BA0009AB2BDF822301344ADF82230079B0133BE
:101BB0000793079B1B78002BEAD1BDF822305B0806
:101BC000ADF82230039B47F6E071184628F0B5FEC9
:101BD000099B5B881A46099BDB881344013B5B1019
:101BE000ADF81A30BDF81A20BDF82230D31AADF87E
:101BF0001830039B184629F031F80346ADF816302B
:101C0000099B9B881A46099B1B8913445A1EBDF8E1
:101C10001630D31A5B10ADF814300398099BD968BD
:101C2000BDF81820BDF8143028F0DBFF099B1033F5
:101C30000993099B1B88002B82D100BF00BF0AB00B
:101C400010BD00BFA87E0300645664A000B583B039
:101C500001900B46ADF80230BDF802304FF47872B7
:101C600019460198FFF74CFF00F04EFF64202FF05B
:101C70006BFCBDF80230002219460198FFF740FFC7
:101C800000BF03B05DF804FB00B585B001900B46C2
:101C9000ADF80230019BB3F86820BDF80230534024
:101CA000ADF80E30BDF80E30002219460198FFF74E
:101CB00027FF019BB3F86820BDF8023013439AB2A6
:101CC000019BA3F8682000BF05B05DF804FB00008D
:101CD00010B586B003900B46ADF80A30039BB3F8FD
:101CE0006820BDF80A301340ADF81230039B002184
:101CF000184628F022FE039B0021184628F01FFEFC
:101D0000039B0021184628F01FFE00211A4828F0E6
:101D100019FE1A4B05931AE0059B1A88BDF812307C
:101D200013409BB2002B0FD00398059B5B8819468C
:101D3000059B9B881A46059BDB881C46059B1B89D7
:101D40000093234628F064FD059B10330593059B03
:101D50001B88002BE0D1039BB3F868301AB2BDF9A1
:101D60000A30DB431BB213401BB29AB2039BA3F8A9
:101D7000682000BF06B010BD645664A0A87E0300B2
:101D800000B58BB005900B460392ADF81230059B61
:101D9000B3F8D820BDF8123013449BB21846FFF7B1
:101DA0009FFE0346ADF81E3000230893059B0021DB
:101DB000184628F0C2FD059B0021184628F0BFFDFB
:101DC000059B0021184628F0BFFD0021334828F06C
:101DD000B9FD0598BDF81E20BDF81E301D330093D7
:101DE00040F26B23142128F013FD039B002B51D0EC
:101DF000059B47F6E071184628F09FFD059BBDF84E
:101E00001E201421184628F0B6FD039B09933DE0DF
:101E1000089B002B0ED1099B1B785E2B02D101235E
:101E2000089330E0059A099B1B781946104628F064
:101E300013FE28E0099B1B78472B06D1059B4FF426
:101E40007871184628F079FD1BE0099B1B78522B0E
:101E500006D1059B4FF4F841184628F06EFD10E0BE
:101E6000099B1B78592B06D1059B47F6E071184654
:101E700028F063FD05E0059B47F6E071184628F061
:101E80005CFD00230893099B01330993099B1B7890
:101E9000002BBDD100BF0BB05DF804FB645664A0FD
:101EA00030B585B0039001930B46ADF80A30134668
:101EB000ADF80830039ABDF808301249DB000B4436
:101EC0009B881946104628F038FD039CBDF8083061
:101ED0000C4A52F83350039BB3F8D820BDF80A30AF
:101EE00013449BB21846FFF7FBFD03464FF40772FD
:101EF0002946204628F075FE01982FF025FB00BFEB
:101F000005B030BD807E030082B001900B46ADF875
:101F10000230019BBDF80220A3F86A20BDF8023010
:101F2000032B03D0BDF80230042B03D10B4B00224E
:101F3000C3F8DC20BDF80230022B07D0BDF8023018
:101F4000032B03D0BDF80230042B04D1019B4FF0CA
:101F5000FF32C3F8D02000BF02B07047645664A0BF
:101F600082B00190019B4FF0FF32C3F8D02000BF38
:101F700002B0704710B596B0019000230E93002375
:101F80000D93002314938F4B13930023129300237C
:101F90001193002310938B4B1393E42200218A4862
:101FA00033F027FE884B4FF0FF32C3F8DC20864B1E
:101FB0000022C3F8E02004AB1A46102101202FF0C4
:101FC00028FC0346002B40F0718104AA07AB194698
:101FD0007E4830F0BFFD0346002B40F0638106AB26
:101FE00019467B4830F055FA0346002B40F05481E7
:101FF000069B05AA0021184630F06FFA724800F0DF
:1020000063F93DE1139A129B9A4211D04FF6F67193
:102010006D48FFF75DFE09216B48FFF735FE139B06
:102020005B684FF4004268496A489847139B1293D3
:10203000049B08A90A2218462FF0DBFC0346002B5C
:1020400040F09A80099B03930A9B029302AA03AB78
:1020500019465D4828F07AFC0B9B012B40F08A80E2
:10206000099B0E9A9A4204D10A9B0D9A9A4200F05B
:102070008380099BADF832300A9BADF83030564B67
:1020800015931AE0159B5B88BDF832209A4211D354
:10209000159BDB88BDF832209A420BD8159B9B8894
:1020A000BDF830209A4205D3159B1B89BDF830201E
:1020B0009A4207D9159B10331593159B1B88002B4B
:1020C000E0D100E000BF159A149B9A424FD0159BB7
:1020D0001A883D4BB3F8683013409BB2002B46D0B2
:1020E000159B1B8819463848FFF7B0FD109B002B45
:1020F00010D0159B1B8803F01003002B2AD0324B05
:102100004FF0FF32C3F8D0202F4B4FF0FF32C3F80F
:10211000E0201FE0139B5B68159A12882A492D481E
:102120009847159B1B8803F00103002B12D0264B08
:102130004FF0FF32C3F8D020284CFA2304220021AC
:102140002148A047264B04211F4898471E4B0022D8
:10215000C3F8DC20159B1B8803F00803002B06D076
:10216000194B0022C3F8DC204FF0FF331193159B6D
:10217000149301E000231493134BD3F8D030002BB9
:1021800036D0114BB3F86A30032B31D1139BDB6887
:10219000002B2DD00C4BD3F8E030002B22D14FF682
:1021A000F7710948FFF794FD18210748FFF76CFD08
:1021B000054B0022C3F8D0204FF0FF33109300F0FE
:1021C000AAFC15E0807D0300645664A0EC7B03004C
:1021D000E4740300087F0300A87E0300A11E000032
:1021E000091F0000334B0022C3F8E02000231093A6
:1021F000304BD3F8D030002B39D02E4BB3F86A10C7
:10220000139B2D4A9B1A1B111A46C9B22B4B99548A
:10221000284BB3F8D820139B1B8913449AB2254B43
:10222000A3F8D820139B10331393224BB3F8D83064
:102230001A46139B1B891344092B13DD1D4B0022E7
:10224000A3F8D82000230F9309E01D4C0F9B9BB2ED
:10225000002219461748A0470F9B01330F930F9B8D
:10226000092BF2D9134B0022C3F8D02008E0109BB1
:10227000002B05D1139B5B6800220E49114898473B
:10228000139B1B68002B03D0119B002B3FF4BAAEAD
:10229000069B184630F014F9079B049A114618461D
:1022A00030F0CFFC049B18462FF0D8FA00BF16B0D0
:1022B00010BD00BF645664A0807D0300485764A031
:1022C000811D0000087F030000B58DB009900BABA5
:1022D0001946224830F0DDF80346002B3AD10B9B1B
:1022E000184630F018F90B9B4FF48071184630F007
:1022F0001FF929F079FA0B9B0AAA0021184630F041
:10230000ECF809980A9B4FF4F842079200220692D3
:1023100047F6E07205920222049240F2DF12039225
:1023200040F27F22029200220192002200924FF49A
:10233000F0724FF4207128F0C5FA099B084918463D
:1023400028F08AFC099B1F220649184628F099FCB0
:1023500029F05EFA00BF0DB05DF804FBE4740300E1
:10236000BC830600F87B03002DE9F0438FB00346E1
:1023700000918DF807309DF807308DF828303A230A
:102380008DF829302F238DF82A3000238DF82B303B
:102390004FF000024FF00003CDE90C234FF0000393
:1023A0000B93009BB3F1FF3F05D19DF80730194611
:1023B000614833F0AFFA07AA0AAB114618462FF06E
:1023C00099FE0346002B40F0AA80009BB3F1FF3F2B
:1023D0007FD1079B002298469146089B00221E460B
:1023E000174606FB09F208FB07F31344A8FB064552
:1023F0002B441D46CDE90C45CDE90C45DDE90C012A
:102400004FF000024FF00003020D42EA01320B0DC3
:102410001046194631F0B6FF03460B93079B194649
:10242000464833F077FA089B099A1946444833F036
:1024300071FA4FF089410B9832F062FA0346002B93
:102440003FD04FF089410B9832F02CF903460B93A3
:102450004FF089410B9832F053FA0346002B27D0F6
:102460004FF089410B9832F01DF903460B934FF062
:1024700089410B9832F044FA0346002B0FD04FF0FD
:1024800089410B9832F00EF903460B930B9831F00B
:10249000B2FF02460B462B4833F03CFA19E00B988A
:1024A00031F0A9FF02460B46274833F033FA10E01B
:1024B0000B9831F0A0FF02460B46244833F02AFA6D
:1024C00007E00B9831F097FF02460B46204833F0A7
:1024D00021FA03AA0AAB114618462FF0F1FD034674
:1024E000002B14D1009BB3F1FF3F0ED1194833F0FC
:1024F00031FA039B049A1946174833F00BFA059BEF
:10250000069A1946154833F005FA00230FE0009BA0
:10251000B3F1FF3F0AD1124833F01CFA06E0009BEA
:10252000B3F1FF3F02D10F4833F014FA09231846E4
:102530000FB0BDE8F08300BF087C0300207C0300DF
:10254000487C03006C7C0300847C03009C7C0300BB
:10255000B47C0300CC7C0300E07C0300147D03000A
:10256000487D0300687D030082B00190034B4FF06B
:10257000FF321A6000BF02B0704700BFFC5764A072
:1025800000B58DB0099029F02FF90BAB1A46002148
:1025900009982FF0A2FF0B9B4FF4F84207920022FC
:1025A000069247F6E07205920222049240F2DF1290
:1025B000039240F27F2202920022019200220092B6
:1025C0004FF4F0724FF42071154828F07BF915494B
:1025D000134828F041FB1F221349114828F051FBF2
:1025E00047F6E0710E4828F0A8F900210C4828F0C1
:1025F000A6F958231A220D49094828F0F2FA762341
:102600001A220B49064828F0ECFA0A49044828F037
:10261000E0FE29F0FDF800BF0DB05DF804FB00BF3F
:102620009C5764A0BC830600487F0300647F0300BE
:10263000947F0300E07F030010B594B0039008ABD3
:1026400012935D4B00221A6004AB1A461021012040
:102650002FF0DFF80346002B40F0AC8004AA05AB56
:102660001946564830F076FA0346002B40F09A801F
:1026700006AB194652482FF00CFF0346002B40F0E2
:102680008B80129B19464F482FF0EEFB03468DF8C6
:102690004F309DF84F30002B0AD1129B1A68129BC5
:1026A0000433194610462FF0CBFB03468DF84F300C
:1026B0009DF84F30002B7AD1129B00221A6100BF87
:1026C000129B5B681B68DC69129B5868129B03F1C4
:1026D000080107AB4FF4FA7200920522A0470346A7
:1026E000022BEDD1069B1846FFF74AFF4CE0049AF7
:1026F0004FF4FA733449354829F062F80EAA0FAB4B
:102700001146184606F020FB0346002B0BD00F9B0A
:1027100003F1013311930E9B03F1013310931099D0
:10272000119806F043FB00230793129B5B681B681C
:10273000DC69129B5868129B03F10802129B1B690B
:10274000D11807AB642200920122A047079B012BFE
:102750001AD1129B08331A781D4B1B789A4213D159
:10276000129B5B681B681C6A129B586807AB4FF48E
:10277000C872009204221749A04703468DF84F30D3
:102780009DF84F30002B14D10B4B1B68002BAED0A3
:10279000069B18462FF094FE059B049A1146184696
:1027A00030F04FFA049B18462FF058F802E000BFB3
:1027B00000E000BF14B010BDFC5764A0BC7F030054
:1027C000C87F0300CC7F0300E07F03009C5764A018
:1027D000D47F0300D87F030000B583B000230193AA
:1027E0000E4833F0B7F806F0FBF90346002B06D08D
:1027F0000B4833F0AFF806F01FFA06F0CBF901AB47
:10280000084A002118462AF00BF8FDF77DFD00F07C
:10281000FDF80023184603B05DF804FB2080030098
:10282000448003005480030000B585B003900291FA
:102830000AF0EAF9002200214FF0FF3029F090FA67
:1028400009F0B2FE002009F037FF0AF05DF901201F
:1028500009F05EFF074B01930323009300234FF41D
:10286000C062054905482FF07FF90023184605B0DE
:102870005DF804FB286F64A058800300D92700008E
:1028800084B00023039300230293202301930AE0E2
:10289000039B5A1C03921B781A46029B1344029313
:1028A000019B01330193019BB3F5FC2FF0D3029BF5
:1028B000184604B07047000000B583B00190009145
:1028C000FFF7DEFF0346054A1360054B4FF0FF326A
:1028D0001A600023184603B05DF804FB605864A03A
:1028E000645864A000B591B03F4B00221A600023E9
:1028F000019303230093002340223C493C482FF0DE
:1029000033F90EAB19463B482FF0C3FD0346002BAD
:1029100066D10E9B0DAA002118462FF0DEFD28F08F
:1029200063FF0D9B4FF4F8420792002206920022AB
:1029300005920222049240F2DF12039240F27F22BB
:10294000029200220192002200924FF4F0724FF4A2
:102950002071294827F0B6FF2849274828F07CF93C
:10296000B522D221264829F031FA0121224828F047
:10297000DFF928F04DFF0023ADF83E300EE00E9B4E
:10298000BDF83E20114618462FF0D2FD01202EF052
:10299000DBFDBDF83E300133ADF83E30BDF83E30D2
:1029A000FF2BECD902E00A202EF0CEFD0E4B1B6867
:1029B000002BF8D0134B1A6809AB1349184632F0B4
:1029C000E5FF01210C4828F0B3F909A940F2D11321
:1029D0000522094828F005F90021074828F0A8F940
:1029E00000BF11B05DF804FB645864A08C81030043
:1029F000B928000094810300005864A0BC8306003D
:102A0000A8F30400605864A09881030000B585B065
:102A100001AB1A46102101202EF0FBFE0346002BCD
:102A200043D103AB194623482FF033FD0346002B57
:102A30003BD1039B02AA002118462FF04EFDFFF761
:102A400051FF642140F20B2000F038F8642140F27D
:102A5000932000F033F8642140F20F3000F02EF89C
:102A6000642140F2164000F029F8642140F20F3052
:102A700000F024F8642140F2932000F01FF8642154
:102A800040F20B2000F01AF801F0BEFE0346184693
:102A900001F066FE4FF47A702EF056FD064800F005
:102AA0002BFE039B18462FF00BFD00BF05B05DF811
:102AB00004FB00BF948103000083030010B582B0C3
:102AC000019000910D4B1B68002B07D10C490D485C
:102AD0002FF034FF094B4FF0FF321A60084B1C688F
:102AE0000AF0E0F80246019BB2FBF3F3009A1946A4
:102AF00020462FF03AFF00BF02B010BD6C5864A012
:102B0000685864A01083030008B51421FA20FFF769
:102B1000D5FF00BF08BD08B54FF4FA716420FFF778
:102B2000CDFF00BF08BD000000B597B009906D4B08
:102B30001B68159328F058FE13AB1A46002109981C
:102B40002FF0CBFC139B4FF4F84207920022069221
:102B500047F6E07205920222049240F2DF120392DD
:102B600040F27F22029200220192002200924FF452
:102B7000F0724FF420715C4827F0A4FE5B495A487C
:102B800028F06AF8584828F069F8034614931F2281
:102B90005749554828F075F80023ADF84430002314
:102BA000ADF84630504BDB699BB2ADF848304E4B28
:102BB0001B6A9BB2ADF84A3047F6E0714A4827F0ED
:102BC000BCFE4A49484828F047F80FA911AB4FF41A
:102BD000B472184629F062F80BAB0FAA92E8030012
:102BE00083E803003F4B1B6803F160010FAB4FF418
:102BF000B472184629F06DF80FAB0BAA92E80300E7
:102C000083E80300374B1B68B3F86030063B9BB288
:102C1000ADF840300DA90FA80023802229F018F844
:102C20000FAB0DAA92E8030083E80300149B9BB24C
:102C300042339AB20DA90FA8002328F0C3FFBDF8B4
:102C40003420159B1A80BDF83820159B9A80BDF85A
:102C50003620159B5A80BDF8363040339AB2159B0A
:102C6000DA80159B234A9A60159B234ADA60159BEC
:102C7000224A1A61159B00229A61159B0022DA6193
:102C8000159B20331593159B00229A60154B1B68EA
:102C90001946154828F09DFB0021134827F04FFEE8
:102CA000104B1B68B3F8603019460E4B1B68B3F825
:102CB00062301A460B4B1B68B3F864301846094B58
:102CC0001B68B3F8663000930346074827F0A0FD61
:102CD00028F09EFD034B1B6800229A6600BF17B0C8
:102CE0005DF804FB00000010705864A0BC8306006F
:102CF000188303003C830300012D000094D70300D8
:102D000082B00190034B4FF0FF321A6000BF02B057
:102D1000704700BFDC5864A000B583B00F4B1B6840
:102D20001B120A3B01930E4B1B681B120A3B0093BC
:102D30006A4601AB19460B4827F013FE094829F0F3
:102D400005F8019B9BB2009A92B21946064828F0FA
:102D5000E9FD00BF03B05DF804FB00BFD05864A0DC
:102D6000D45864A0705864A0701F040000B585B0EA
:102D70000021144827F0E3FD0021124827F0DDFD73
:102D80000021104827F0DEFD0F4B1B681B120A3B89
:102D900003930E4B1B681B120A3B02930399029A82
:102DA000039B13331846029B1333009303460548D5
:102DB00027F02EFD0021034827F0C4FD00BF05B019
:102DC0005DF804FB705864A0D05864A0D45864A087
:102DD00000B58DB001900091154B1B681B685B69B5
:102DE000134A106802A96422984703468DF82330DD
:102DF0002EF06CFE07900F4B1B68079AD31A0193B5
:102E00000C4A079B13609DF82330002B40F06C8127
:102E1000094B1B685B6F002B50D1074B1B680022CE
:102E2000DA66054B1B6800221A670023099324E029
:102E3000D85864A0605964A0000000100A202EF049
:102E400083FB994B1B681B685B69974A106802A952
:102E500064229847954B1B68D96E029A934B1B6866
:102E60000A44DA66914B1B68196F039A8F4B1B68F3
:102E70000A441A67099B01330993099B0F2BDDDD77
:102E80008A4B1B68D96E894B1B68099A91FBF2F239
:102E9000DA66864B1B68196F844B1B68099A91FB95
:102EA000F2F21A67814B1B684FF0FF325A6700231A
:102EB00001932EF00BFE03467D4A1360029A7B4B72
:102EC0001B68DB6ED31A0293039A784B1B681B6F47
:102ED000D31A0393039B019A02FB03F3002B02DA3C
:102EE00003F57F43FF331B140693029B019A02FBF9
:102EF00003F3002B02DA03F57F43FF331B14059322
:102F0000069B5B420693694B1B68996F069B5A02AE
:102F1000664B1B680A449A67644B1B68D96F059B14
:102F20005A02624B1B680A44DA67604B1B689B6F4E
:102F3000B3F5963F04DB5D4B1B684FF496329A67FE
:102F40005A4B1B689B6F13F5963F03DC574B1B686E
:102F5000584A9A67554B1B68DB6FB3F5963F04DB05
:102F6000524B1B684FF49632DA67504B1B68DB6F8D
:102F700013F5963F03DC4D4B1B684E4ADA674B4B0B
:102F80001B689B6F019A02FB03F34B4A82FB0312FF
:102F90009211DB17D21A494B1B6813440B93434B16
:102FA0001B68DB6F019A02FB03F3434A82FB0312A7
:102FB0009211DB17D21A424B1B6813440A933B4B06
:102FC0001B68B3F864300B3B1B020B9A9A4210DD6E
:102FD000364B1B68B3F864300B3B1B020B93334B2F
:102FE0001B689B6F314A1268D90F0B445B105B4220
:102FF00093672E4B1B68B3F860300B331B020B9AA0
:103000009A4210DA294B1B68B3F860300B331B026D
:103010000B93264B1B689B6F244A1268D90F0B44F5
:103020005B105B429367214B1B68B3F866300B3B28
:103030001B020A9A9A4210DD1C4B1B68B3F86630DB
:103040000B3B1B020A93194B1B68DB6F174A126874
:10305000D90F0B445B105B42D367144B1B68B3F86A
:1030600062300B331B020A9A9A4210DA0F4B1B682C
:10307000B3F862300B331B020A930C4B1B68DB6FF7
:103080000A4A1268D90F0B445B105B42D3670B4BA3
:103090001B680B9A9A4204D1094B1B680A9A9A4200
:1030A00022D0024B1B680DE0D85864A0000000102D
:1030B000605964A000D4FEFFD34D6210D05864A0C4
:1030C000D45864A09B6E002B01D0FFF74FFE084A36
:1030D0000B9B1360074A0A9B1360FFF71DFE064B0C
:1030E0001B684FF0FF329A6600BF0DB05DF804FB1D
:1030F000D05864A0D45864A00000001000B58DB072
:1031000001905B4B00221A605A4B1B6800225A67E1
:10311000584B1B6800229A67564B1B680022DA67DF
:10312000544B1B680022DA66524B1B6800221A6758
:10313000504B1B68B3F860301A464E4B1B68B3F80F
:1031400064301344DA0F13445B101A464A4B1A607A
:10315000484B1B68B3F862301A46464B1B68B3F8FD
:1031600066301344DA0F13445B101A46434B1A605F
:10317000434A102101202EF04CFB0346002B73D153
:103180003F4B1B683F4A404918462EF086FB05AB73
:103190003B4A19463D482FF0DDFC0346002B5ED12B
:1031A00006AB19463A482FF074F90346002B4FD16D
:1031B000069B04AA002118462FF08FF903AB19468D
:1031C00034482EF051FE03468DF82F309DF82F30F5
:1031D000002B07D1039B304918462EF031FE0346E1
:1031E0008DF82F309DF82F30002B2DD1069B1846DF
:1031F000FFF79AFC2EF06AFC0A9021E01D4B1B6839
:1032000019461F4B1A680023244828F0D9FA099060
:103210002EF05CFC0890089A0A9BD31A0793089B2F
:103220000A93099B002B08D1079B002B05D0079B15
:10323000069A11461846FFF7CBFD14202EF084F9AC
:103240000B4B1B68002BD9D0069B18462FF038F982
:10325000059B0B4A1268114618462FF0F2FC084BEA
:103260001B6818462EF0FAFA00BF0DB05DF804FB9B
:10327000DC5864A000000010D05864A0D45864A0AA
:10328000645964A04483030048830300548303000B
:103290006083030064830300D85864A0705864A05E
:1032A00082B00190019B9B694FF0FF329A6600BF8C
:1032B00002B0704770B5B2B00990099B6C3331937E
:1032C000099B5B682AAA002118462FF006F928F00E
:1032D0008BFA05202EF038F9099B03F108002A9B90
:1032E0004FF4F84207920022069247F6E0720592E8
:1032F0000222049240F2DF12039240F27F220292F5
:1033000000220192002200924FF4F0724FF42071DB
:1033100027F0D8FA099B0833AB49184627F09CFCE4
:10332000AA4B1B68002B00F0B080099B1B681D682E
:10333000A74B1E684F234F2B05D04F234E2B02D097
:103340004F23442B01D1012200E0002213469B00B1
:1033500013445B001A464F234A2B05D16323612B8C
:1033600002D174236E2B56D04F23462B51D04F23BE
:103370004D2B05D16323612B02D17423722B46D0D0
:103380004F23412B02D16323702B3ED04F234D2B73
:1033900005D16323612B02D17423792B33D04F23C2
:1033A0004A2B05D16323752B02D174236E2B28D0B1
:1033B0004F234A2B05D16323752B02D174236C2B29
:1033C0001DD04F23412B02D16323752B15D04F23E2
:1033D000532B10D04F234F2B0BD04F234E2B06D007
:1033E0004F23442B01D1022316E00F2314E00123C5
:1033F00012E0002310E009230EE008230CE007236D
:103400000AE0062308E0052306E0042304E0032382
:1034100002E0022300E0012399182023302B38BF5B
:103420003023DBB2A3F1300213469B0013445B0050
:103430001A463523303BD0183223303B4FF47A7292
:1034400003FB02F23023303B642404FB03F3D41863
:103450003223A3F1300213469B0013445B00E218B1
:103460003223303B13440BAC02930190009133465E
:103470002A465849204632F089FA099B08330BA99D
:103480001F22184627F0FDFB09E0099B03F1080005
:10349000099B1B681B681F22194627F0F2FB099B3A
:1034A00008330021184627F04AFA099B08331846CA
:1034B00027F0D4FB03462D930023ADF8A030002362
:1034C000ADF8A230099B5B6A9BB2ADF8A430099BB2
:1034D0009B6A9BB2ADF8A63028AB1221184628F0A3
:1034E00045FB099B1B685B683093099B1B689B68C5
:1034F000002B37D02D9B9BB242339AB226A928A825
:10350000022328F05FFB24A926AB8022184628F06E
:10351000E0FBBDF89020319B1A80BDF89220319BD2
:103520005A80BDF890307F339AB2319B9A80BDF8B3
:1035300092303F339AB2319BDA80319B264A9A60AF
:10354000319B264ADA60319B254A1A61319B099AE0
:103550009A61319B0022DA61319B00229A82319B71
:1035600020333193BDF8A6300133BDF8A2209B1A59
:103570001A462D9BD31AA3F59A732C932C9B5B08A8
:103580009AB222A928A8002328F0FAFA00232E9341
:1035900067E026A928A83223802228F0F1FABDF896
:1035A000A4300133BDF8A0209B1AA3F5F2732B932E
:1035B0002B9B5B089AB222A926A8002328F024FBA3
:1035C00000232F9343E000BFBC830600645864A02F
:1035D000605864A06C83030098830300A13200004C
:1035E00094D7030024A926A83223802228F00CFBBC
:1035F000BDF89020319B1A80BDF89220319B5A80F3
:10360000BDF89420319B9A80BDF89620319BDA80DA
:10361000309B1A68319B9A60309B5A68319BDA6004
:10362000309B9A68319B1A61309BDA68319B9A61B2
:10363000319B0022DA61319B00229A82319B203338
:103640003193309B103330932F9B01332F932F9B5B
:10365000022B03D8309B1B68002BC3D12E9B013358
:103660002E932E9B012B03D8309B1B68002B90D1EF
:10367000319B00229A60099B03F10802099B6C337D
:103680001946104627F0A5FE2FF0BAF80346002B86
:1036900001D128F0C5F800BF32B070BD00B585B0CB
:1036A00001904FF4B6702FF0B1F80390019A1021F9
:1036B00001202EF0AEF80346002B03D0019B002220
:1036C0001A6006E0019B1B68044A054918462EF063
:1036D000E4F8039B184605B05DF804FBA0830300E3
:1036E000A483030000B583B0019001982FF096F8F1
:1036F00000BF03B05DF804FB00B587B0019003ABD9
:103700001846FFF7CBFF0590059B002B5CD04FF4CC
:10371000B6720021059832F06CFA059B019A1A6086
:10372000039B002B4CD003AA04AB194628482FF06A
:1037300011FA0346002B3FD1059B04331946254857
:103740002EF0A7FE0346002B30D10598FFF7B2FDFF
:1037500023E0019BDB68002B0AD0019BDB689847C4
:10376000034603F00103002B02D00598FFF7A2FDEA
:10377000059B03F10800059B03F16C01039A4FF0D0
:10378000FF3328F01DF80346002B06D0059B9B6EE7
:10379000002B02D10598FFF78DFD059B9B6E002B3A
:1037A000D7D0059B5B6818462EF08AFE049B039ACF
:1037B000114618462FF045FA039B18462EF04EF896
:1037C0000598FFF78FFF00E000BF07B05DF804FB2E
:1037D000B4830300C083030000B583B00190019B54
:1037E0009B691846FFF788FF00BF03B05DF804FB34
:1037F00082B00190019B9B694FF0FF32C3F8E42037
:1038000000BF02B07047000010B584B00390154BA4
:103810001B68002B05D1039B0021184627F08FF869
:1038200005E0039B47F6E071184627F088F8039BF4
:1038300047F6E071184627F080F803980A4B1B887A
:10384000591C094B5B885A1C074B9B885C1E064B16
:10385000DB88013B0093234626F0DAFF00BF04B06B
:1038600010BD00BF705964A0685964A000B591B044
:10387000039005AB19461F482EF00BFE1E4B1B682C
:10388000B3F1FF3F05D11C4B00221A602EF08EFFD2
:1038900027E0194B4FF0FF321A6041F2883307934B
:1038A00042F21073089347F2305309934FF47A733E
:1038B0000693124B0C93124B0D93124B0E93124B1B
:1038C0000F934FF4F07300934FF420737622DC21B2
:1038D0000E4829F077F8059B06AA114618462EF0E7
:1038E00029FF039B9B691846FFF78EFF00BF11B0AD
:1038F0005DF804FBC4830300705964A0F5C902009D
:10390000B1CA0200FDCB020071CC0200A8F3040092
:1039100000B589B001900023ADF81630012306935D
:1039200039E0069B1B02604A82FB03121211DB176F
:10393000D31A0493049BDB109B029BB203F4F8435D
:10394000ADF80E30002307931EE0019BBDF80E205A
:103950001146184626F0F1FF0198019BB3F8E830B4
:103960001A46079BD118019BB3F8EA301A46069B0A
:1039700013441A4626F02EFE079B01330793BDF829
:1039800016300133ADF81630079BB3F5C87FDCDB8A
:10399000069B01330693069B602BC2DD0123069331
:1039A0003AE0069B1B02404A82FB03121211DB170E
:1039B000D31A0493049BDB105B019BB203F478736E
:1039C000ADF80E30002307931FE0019BBDF80E20D9
:1039D0001146184626F0B1FF0198019BB3F8E83074
:1039E0001A46079BD118019BB3F8EA301A46069B8A
:1039F000134460331A4626F0EDFD079B013307930D
:103A0000BDF816300133ADF81630079BB3F5C87F0B
:103A1000DBDB069B01330693069B602BC1DD012394
:103A2000069339E0069B1B021F4A82FB0312121108
:103A3000DB17D31A0493049BDB109BB203F01F0324
:103A4000ADF80E30002307931FE0019BBDF80E2058
:103A50001146184626F071FF0198019BB3F8E83033
:103A60001A46079BD118019BB3F8EA301A46069B09
:103A70001344C0331A4626F0ADFD079B013307936C
:103A8000BDF816300133ADF81630079BB3F5C87F8B
:103A9000DBDB069B01330693069B602BC2DD00BF78
:103AA00000BF09B05DF804FBABAAAA2A30B595B0F7
:103AB0000990099B6433139327F096FE099B1B6EB4
:103AC00010AA002118462EF008FD0998109B4FF40B
:103AD000F84207920022069247F6E072059202220F
:103AE000049240F2DF12039240F27F2202920022FF
:103AF0000192002200924FF4F0724FF4207126F0F0
:103B0000E1FE099BB349184627F0A6F8099B184621
:103B100027F0A4F803461A46099BC3F80021099B25
:103B20001F22AD49184627F0ACF8099B47F6E07113
:103B3000184626F002FF099B0021184626F0FFFEDA
:103B40000023ADF838300023ADF83A30099BDB692B
:103B50009BB2ADF83C30099B1B6A9BB2ADF83E307E
:103B60000EAB0821184628F001F8099BD3F8003164
:103B70009BB246339AB20CA90EA8052328F022F86E
:103B80000AAB0CAA92E8030083E803000CA90AA878
:103B90000523802228F038F80CAB0121184627F0C5
:103BA000E5FFBDF83020139B1A80BDF830307F331D
:103BB0009AB2139B9A80BDF83220139B5A80BDF8AD
:103BC00032303F339AB2139BDA80139B834A9A6058
:103BD000139B834ADA60139B824A1A61139B099AEA
:103BE0009A61139B0022DA61139B203313930CAB71
:103BF0000AAA92E8030083E803000AA90CAB642236
:103C0000184628F066F8BDF82E301A46BDF82A305E
:103C1000D31ADA0F13445B109BB206339AB20AA888
:103C20000523714927F0CEFF6F4B1C88099B18466E
:103C300027F014F803469BB223449BB210339AB288
:103C4000694B9A80684B5C88099B184627F006F8F8
:103C500003469BB223449BB210339AB2624BDA8084
:103C6000614B1A88139B1A805F4B9A88139B9A802A
:103C70005D4B5A88139B5A805B4BDA88139BDA8022
:103C8000139B5A4A9A60139B594ADA60139B00228D
:103C90001A61139B099A9A61139B0022DA61139BA4
:103CA000203313934FF4F2731293BDF83C30013379
:103CB000BDF838209B1A1A46129BD31A1293129BF6
:103CC0004C4AA2FB03235B081193119B9BB20AA9E8
:103CD0000EA8002227F098FF099B03F1F001119B29
:103CE0009BB20EA8542227F08FFF099B03F1F0002E
:103CF000099BF8330422194627F0EBFF099BF833A0
:103D00001421184627F016FF0AA90EA800234FF425
:103D1000C87227F079FF099B03F1E8010AAB4FF461
:103D20009072184627F0BAFF099B2A49184626F0D8
:103D300093FF099B0121184626F0FAFF099B0021F9
:103D4000184626F0FFFD099B47F6E071184626F05D
:103D5000F4FD099A0EABF03292E8030083E8030009
:103D60000998BDF838301946BDF83A301A46BDF802
:103D70003C301C46BDF83E300093234626F048FDFB
:103D8000099A0EABF83292E8030083E80300099821
:103D9000BDF838301946BDF83A301A46BDF83C3007
:103DA0001C46BDF83E300093234626F031FD0998AD
:103DB000FFF72AFD099C0C4B1B881D46099B1846E2
:103DC00026F04CFF03462B4403F11602064B5B889A
:103DD000083311E0BC830600C8830300E4830300BA
:103DE000F137000094D70300685964A0EC83030006
:103DF0006D380000ABAAAAAA0C49204626F0F1FEB5
:103E00000998FFF785FD099B47F6E071184626F0F3
:103E100094FD099A099B64331946104627F0D9FA94
:103E200027F0F6FC00BF15B030BD00BFF0830300E3
:103E300010B588B00390039B0121184626F078FF47
:103E4000039A05ABF83292E8030083E80300039B72
:103E5000186E039B03F58671039B03F588731A465E
:103E60002EF074FB039BD3F80C31BDF81A200132FD
:103E7000BDF81610521A03FB02F2039BD3F810315F
:103E8000B2FBF3F30793BDF81A301A46079BD31A17
:103E90000793039BD3F80831079A9A4270D0039B8B
:103EA000D3F80831002B25D0039B0021184626F0BB
:103EB00049FD039B0021184626F03FFD039B00218E
:103EC000184626F03CFD0398BDF81430A3F10F010D
:103ED000039BD3F80831053B1C46BDF8183003F1AD
:103EE0000F02039BD3F80831053300931346224693
:103EF00026F08EFC039B0121184626F023FD039B30
:103F000047F6E071184626F018FD0398BDF8143006
:103F10001946BDF816301A46BDF818301C46BDF8D3
:103F20001A300093234626F073FC039B079AC3F8CC
:103F30000821039B0021184626F004FD039B47F649
:103F4000E071184626F0F9FC039B0021184626F084
:103F5000F6FC0398BDF81430A3F10F01039BD3F8CE
:103F60000831053B1C46BDF8183003F10F02039BD6
:103F7000D3F80831053300931346224626F048FC57
:103F800000BF08B010BD000000B58BB001904FF429
:103F90008A702EF03BFC0346854A1360844B1B68F5
:103FA000002B00F00081824B1B684FF48A720021C5
:103FB000184631F01EFE7E4B1B680022C3F8E42039
:103FC0007B4B1B684FF0FF32C3F80421794A102164
:103FD00001202DF01EFC0346002B40F0DB80754BCA
:103FE0001B68754A754918462DF057FC09AB714A94
:103FF000194673482EF0AEFD0346002B40F0C580F5
:104000006B4B1B68603319466E482EF042FA03462C
:10401000002B40F0B380664B1B68186E644B1B6826
:1040200003F58671624B1B6803F588731A462EF000
:104030008DFA5F4B1B681846FFF738FD91E05D4B2A
:104040001B6803A94FF4FA7218462DF0D2FC034600
:10405000002B76D1049B0893059B0793544B1B6858
:10406000184607AA08AB194626F070FC069B012BE0
:104070005DD14F4B1B68B3F8F2301A46079B9A424A
:1040800055DC4B4B1B68B3F8F6301A46079B9A4237
:104090004DDB474B1B68B3F8F0301A46089B9A4239
:1040A00045DC434B1B68B3F8F4301A46089B9A4230
:1040B0003DDB3F4B1B68B3F8FE301A46079B9A4224
:1040C00005DA3B4B1B680022C3F80C211EE0384B7D
:1040D0001B68B3F8FE301A46079BD31A1A46344BB6
:1040E0001B68D3F8103103FB02F2314B1B68B3F8A5
:1040F000FE3001332E490968B1F8FA105B1A1946EF
:104100002B4B1B68B2FBF1F2C3F80C21284B1B6848
:104110001A6E274B1B68D3F80C31194610462EF047
:1041200007FA234B1B684FF0FF32C3F80421204BE2
:104130001B6818461E4B1B68643303AA194627F0F8
:1041400099F91B4B1B68D3F80431002B09D0184B8D
:104150001B681846FFF76CFE154B1B680022C3F85E
:104160000421134B1B68D3F8E430002B3FF467AFF6
:104170000F4B1B681B6E18462EF0A2F9099B0D4AC7
:104180001268114618462EF05CFD0A4B1B68184653
:104190002DF064FB064B1B6818462EF03FFB044BCA
:1041A00000221A6000E000BF0BB05DF804FB00BF06
:1041B000745964A0785964A004840300088403003F
:1041C00014840300C483030010B584B003900B462D
:1041D000ADF80A301346ADF80830BDF80A30A3F147
:1041E0000801BDF80830A3F10802BDF80A3003F158
:1041F0000800BDF8083008334FF4F84401940093E8
:104200000346039827F070FBBDF80A30991FBDF8EC
:1042100008309A1FBDF80A30981DBDF808300633E3
:104220000024019400930346039827F05DFBBDF83A
:104230000A30191FBDF808301A1FBDF80A30181DC2
:10424000BDF80830043347F6FF7401940093034629
:10425000039827F049FBBDF80A30991EBDF80830D5
:104260009A1EBDF80A30981CBDF8083002330024AD
:10427000019400930346039827F036FB00BF04B077
:1042800010BD10B584B003900B46ADF80A3013464C
:10429000ADF80830BDF80A30A3F10801BDF80830C8
:1042A000A3F10802BDF80A3003F10800BDF8083098
:1042B00008330024019400930346039827F014FB6D
:1042C00000BF04B010BD000000B5A5B022AB194678
:1042D0004D482EF0DEF80346002B40F09080229BE4
:1042E00018462EF018F9229B4FF4807118462EF0D4
:1042F0001FF927F079FA229B21AA002118462EF0F7
:10430000ECF8219B09A84FF4F8420792002206928C
:1043100047F6E07205920222049240F2DF12039205
:1043200040F27F22029200220192002200924FF47A
:10433000F0724FF4207126F0C5FA09AB33491846E4
:1043400026F08AFC09AB1F223149184626F099FC59
:1043500009AB184626F082FC0346ADF88E302D4B93
:104360001B78012B20D1BDF88E3009A84FF42072A4
:10437000294926F042FCBDF88E30C3F178039B003A
:1043800009A84FF42072254926F037FCBDF88E307D
:104390001A469B00D31A03F5F07309A84FF4207254
:1043A0001F4926F02AFC28E0BDF88E3009A84FF4FA
:1043B00020721C4926F021FCBDF88E305B0009A854
:1043C0004FF42072184926F018FCBDF88E30C3F166
:1043D00078039B0009A84FF42072104926F00DFCC9
:1043E000BDF88E301A469B00D31A03F5F07309A866
:1043F0004FF420720A4926F000FC27F009FA00BFAA
:1044000025B05DF804FB00BF20840300BC830600D8
:10441000248403007C5964A03C840300648403006A
:1044200088840300A4840300C884030010B59AB0F4
:104430000390029101924FF0FF3317934FF0FF3337
:104440001693904B00221A7002982EF03BFB019BB2
:10445000002B1DD18C4B1B68032B19D10023189303
:104460000FE0189B1B01884A1344191D189B1B0160
:10447000864A13441A4602982EF03EFB189B0133DD
:104480001893189B022BECDD00231793002316933F
:10449000179B002B00F09B80FFF716FF002318935B
:1044A00091E000231593794A189B1B0113440433B0
:1044B0001B6899B2754A189B1B01134408331B688B
:1044C0009BB21A460398FFF77FFE00230D9300234B
:1044D0000E930023199321E010AB194602982EF099
:1044E0008DFA0346002B16D1109B03F00103002B1D
:1044F0000ED0159B002B0ED00D9A119B13440D93DB
:104500000E9A129B13440E93199B0133199302E0E8
:104510004FF0FF33159332202DF016F8199B032B23
:10452000DAD90D9B1A46199BB2FBF3F311930E9B3C
:104530001A46199BB2FBF3F31293189B1B01534AC3
:104540001A4410AB194602982EF0D6FA4E4A189B20
:104550001B0113441C1D10AB0FCB84E80F00189BEC
:1045600001331A46484B1A60FEF7CEFA00BF474A9D
:10457000189B1B01134404331B6899B2434A189BD0
:104580001B01134408331B689BB21A460398FFF7BC
:1045900078FE189B002B01D1FFF796FE10AB194651
:1045A00002982EF02BFA0346002B04D1109B03F047
:1045B0000103002B03D032202CF0C6FFEEE700BF32
:1045C000189B01331893189B022B7FF76AAF029850
:1045D0002EF085FA03468DF85330179B002B00F020
:1045E0009E80002318935DE0294A189B1B01134409
:1045F00004331B6899B2264A189B1B0113440833E5
:104600001B689BB21A460398FFF7DEFD04AA189BAD
:104610001B011344194602982EF0F0F90346002BB3
:10462000F4D1189B1B0168336B44583B1B6803F0A3
:104630000103002BEAD0FEF767FA00BF144A189B6B
:104640001B01134404331B6899B2114A189B1B01C8
:10465000134408331B689BB21A460398FFF711FEF8
:1046600010AB194602982EF0C9F90346002B04D16D
:10467000109B03F00103002B0CD032202CF064FFC0
:10468000EEE700BF7C5964A0706E64A0088503004B
:104690005885030000BF4FF496702CF055FF189B0F
:1046A00001331893189B012B9EDD2A4B5B68A3F105
:1046B0001802059B9A4232DC264B5B6803F1180214
:1046C000059B9A422BDB234B9B68A3F11802069BA8
:1046D0009A4224DC1F4B9B6803F11802069B9A4206
:1046E0001DDB1C4B5B69A3F11802099B9A4216DC87
:1046F000184B5B6903F11802099B9A420FDB154BBB
:104700009B69A3F118020A9B9A4208DC114B9B6932
:1047100003F118020A9B9A4201DB002316939DF8CD
:104720005330002B02D1169B002B09D04FF0FF33E2
:1047300017934FF0FF330193074B01221A7083E662
:10474000064B00229A6404F025FA00BF00BF1AB09D
:1047500010BD00BF588503007C5964A0706E64A032
:1047600000B587B00190224A102101202DF051F8A8
:104770000346002B36D11E4B1B681E4A1E491846A5
:104780002DF08BF805AB1A4A19461C482EF0E2F9B9
:104790000346002B21D104AB194619482DF079FEB0
:1047A0000346002B12D1049B03AA002118462DF0CA
:1047B00094FE144B9B6C002B02D04FF0FF330193FF
:1047C000039B0599019A1846FFF730FE059B084A9E
:1047D0001268114618462EF034FA054B1B6818462D
:1047E0002DF03CF80023184607B05DF804FB00BF2D
:1047F000805964A0EC840300F0840300FC8403006F
:1048000020840300706E64A000B589B04FF0FF33C0
:10481000079305AB0022194616482EF09BF9034674
:10482000002B21D10023069313E0059B01AA11461A
:1048300018462EF0E3F8019B03F00103002B02D190
:104840000023079308E032202CF07EFE069B013304
:104850000693069B042BE8D9059B002118462EF0F1
:10486000F0F90A202CF070FE079B184609B05DF89D
:1048700004FB00BFFC84030000B583B001904FF03F
:10488000FF30FFF76DFF00BF03B05DF804FB0000D1
:1048900030B583B04C4B1B68002B00F092804A4B24
:1048A0001B684FF0FF3118462CF0D9FE47494848A5
:1048B00026F0D2F90021464826F03AFA0021444871
:1048C00026F042F84FF47871414826F036F800237C
:1048D0008DF8063065E000238DF8073058E09DF82C
:1048E00006209DF807103B4813465B0013441A014D
:1048F000134403440B4419789DF806209DF80700E3
:10490000354C13465B0013441A01134423440344FB
:104910001B78994237D09DF807301833D9009DF89D
:104920000630DB0014331A46294826F024F89DF897
:1049300006209DF80710274813465B0013441A0110
:10494000134403440B441B781946214826F084F88D
:104950009DF806109DF807409DF806209DF8070079
:104960001C4D0B465B000B4419010B442B442344A4
:104970001C78194913465B0013441A0113440B4475
:10498000034422461A709DF8073001338DF8073032
:104990009DF80730322BA2D99DF8063001338DF8EF
:1049A00006309DF80630312B95D90121084826F0B4
:1049B000BFF90A4B00221A60034B1B6818462CF003
:1049C00074FE00BF03B030BDDC6D64A0AC710600A6
:1049D000845964A0E45964A0DC6364A0D86D64A029
:1049E00000B583B00123019317E0019B5A1E1346C3
:1049F0005B0013441A0113440E4A9818019A134697
:104A00005B0013441A0113440A4A13443322194623
:104A100031F0C6F8019B01330193019B312BE4D99E
:104A200033222021044831F0E4F800BF03B05DF8E0
:104A300004FB00BFE45964A0A76364A000B583B081
:104A400003468DF80730514B1B68002B00F09A800D
:104A50004E4B1B684FF0FF3118462CF000FE4C4BBC
:104A60001B88322B02D94A4B00221A80494B1B88E3
:104A7000312B02D9474B00221A809DF807300C2BAE
:104A80000CD140F6F6122021434831F0B2F8404BE9
:104A900000221A803F4B00221A806AE09DF80730FE
:104AA0000A2B12D13B4B1B8801339AB2394B1A8027
:104AB000384B1B88312B5CD9FFF792FF354B1B8895
:104AC000013B9AB2334B1A8053E09DF807300D2B0F
:104AD00003D12F4B00221A804BE09DF80730082BA2
:104AE0001AD12B4B1B88002B43D0294B1B88013B31
:104AF0009AB2274B1A80274B1B881A46244B1B88D7
:104B00001846254913465B0013441A0113440B440D
:104B1000034420221A702CE01E4B1B881A461C4BA3
:104B20001B8818461C4913465B0013441A011344A2
:104B30000B4403449DF807201A70154B1B88013362
:104B40009AB2134B1A80124B1B88322B11D9114B7E
:104B50001B8801339AB20F4B1A800E4B1B88312BE6
:104B600007D9FFF73DFF0B4B1B88013B9AB2094B5E
:104B70001A800A4B4FF0FF321A60044B1B6818462C
:104B80002CF093FD00BF03B05DF804FBDC6D64A066
:104B9000D26D64A0D46D64A0E45964A0D86D64A003
:104BA00000B583B0019006E0019B5A1C01921B786E
:104BB0001846FFF743FF019B1B78002BF4D100BF81
:104BC00000BF03B05DF804FB00B593B0099026F078
:104BD0000BFE0DAB1A46002109982DF07EFC0D9BB3
:104BE0004FF4F84207920022069247F6E0720592CF
:104BF0000222049240F2DF12039240F27F220292DC
:104C000000220192002200924FF4F0724FF42071C2
:104C1000524825F057FE5249504826F01DF81F22F1
:104C200050494E4826F02DF847F6E0714B4825F0E4
:104C300084FE0023119373E0119B5B014A4A1344E5
:104C40000E930E9B1B69002B15D00E9B1B880C939B
:104C50000E9B5B880B930BAA0CAB19463F4825F0C3
:104C600080FE0E9B1B690C9A91B20B9A92B2184669
:104C700026F058FE0FE00E9B1B8819460E9B5B88A2
:104C80001A460E9B9B8818460E9BDB8800930346B2
:104C9000324825F0BDFD00230F93334A119B5B0181
:104CA000134408331B6810930DE0109B1B781946C2
:104CB0002A4825F0D7FF03461A460F9B13440F934B
:104CC000109B01331093109B1B78002BEDD10F9B91
:104CD0005B080F93244A119B5B0113440833196846
:104CE000214A119B5B0113441B8818461E4A119BE5
:104CF0005B01134404331B8803445B101A460F9B6B
:104D0000D31A1846184A119B5B01134406331B88BB
:104D100002330246114825F064FF119B01331193C1
:104D2000114A119B5B01134408331B68002B83D18C
:104D300000210A4825F003FE4FF4D27300934FF48C
:104D400018731222BE21054825F062FDFFF7A0FD71
:104D500026F05EFD00BF13B05DF804FB845964A02B
:104D6000BC83060080850300DC85030082B00190CF
:104D7000024B01221A6000BF02B07047E06D64A0D0
:104D800000B587B0019040F6F61200212E4830F0B1
:104D900030FF40F6F61220212C4830F02AFF2C4B31
:104DA00000221A802A4B1A882A4B1A802A4A10217C
:104DB00001202CF02EFD0346002B40D1264B1B6812
:104DC000264A274918462CF068FD04AB224A1946AA
:104DD00024482DF0BFFE0346002B2BD105AB19460E
:104DE00021482DF056FB0346002B1CD11F4B0022FF
:104DF0001A601F4B1B68002B02D11D482CF0B2FB20
:104E0000059B1846FFF7E0FE1A48FFF7C9FEFFF7BB
:104E10003FFDFDF780FE4FF4FA602CF095FB059BFB
:104E200018462DF04DFB049B0B4A1268114618469C
:104E30002DF007FF084B1B6818462CF00FFD00BF34
:104E400007B05DF804FB00BFDC6364A0E45964A014
:104E5000D46D64A0D26D64A0E46D64A0A885030045
:104E6000AC850300B4850300C0850300E06D64A039
:104E7000DC6D64A0C485030000B58DB009900BAB58
:104E80001A46002109982DF028FB26F0ADFC0B9B5B
:104E90004FF4F84207920022069247F6E07205921C
:104EA0000222049240F2DF12039240F27F22029229
:104EB00000220192002200924FF4F0724FF4207110
:104EC000144825F0FFFC1449124825F0C5FE1F22A6
:104ED0001249104825F0D5FE47F6E0710D4825F03F
:104EE0002CFD0F490B4826F074FA0021094825F0E3
:104EF00026FD40F2A313009340F25F231222CE213D
:104F0000044825F085FC26F083FC00BF0DB05DF859
:104F100004FB00BFE86D64A0BC8306003C86030070
:104F2000E887030000B583B001900D4B1B78013377
:104F3000DAB20B4B1A700A4B1B78052B02D9084BBF
:104F400000221A70064B1B781A46064B33F81220C3
:104F5000054B1A8000F0B0FA00BF03B05DF804FB07
:104F60004C6E64A0888803000400001000B58FB068
:104F700003909D482DF04AFC0A9001219B4825F0A2
:104F8000E1FC47F6E071994825F0D7FC039B1B88AC
:104F90001946039B5B881A46039B9B881846039B14
:104FA000DB8800930346914825F032FC08AB1A4693
:104FB00001218F482CF0E0FF03468DF827309DF843
:104FC00027308DF837309DF83730002B0DD008ABE7
:104FD0001A46012187482CF0CFFF03468DF8363062
:104FE0009DF836308DF8373002E0FF238DF83630EB
:104FF0009DF83730002B55D1089805AB7A4A0A99AD
:105000002DF018F803468DF83730089B18462CF021
:10501000EDFF9DF83730002B06D0059B724A934276
:1050200002D0FDF778FD3DE00A9B0B930023ADF81D
:10503000323032E00023ADF8343020E0BDF83430B7
:10504000CF330793BDF832301333069306AA07AB6C
:105050001946664825F085FC079B1946069B1846AD
:10506000BDF834305B000B9A13441B8802465F483E
:1050700025F072FEBDF834300133ADF83430BDF8A0
:105080003430B3F5C87FD9D30B9B03F548730B932A
:10509000BDF832300133ADF83230BDF83230B3F5FF
:1050A000C87FC7D39DF83730002B7DD0524B1B688B
:1050B00003F51623504A11684FF41622184626F0BD
:1050C00023FEFDF728FD0021484825F03BFC002188
:1050D000464825F034FC47F6E071444825F02DFCA5
:1050E0002223009340F25F231222CE213F4825F075
:1050F0008FFB9DF82730092B1CD19DF836300D2BE6
:1051000006D11423D0223D49384825F06AFD38E005
:105110009DF83630092B06D11423D0223849334864
:1051200025F05FFD2DE01423D02234492F4825F0CF
:1051300058FD26E09DF827300D2B1CD19DF8363008
:105140000D2B06D11423D0222E49284825F049FDE5
:1051500017E09DF83630092B06D11423D0222A49B6
:10516000224825F03EFD0CE01423D02225491F489B
:1051700025F037FD05E01423D02224491B4825F0F3
:1051800030FD0121194825F0DDFB4FF4FA602CF0C9
:10519000DBF9194B1868184B1B6803F516234FF4FD
:1051A0001622194626F0B0FD0121104825F0CAFB51
:1051B00000210E4825F0C1FB039B1B881946039B69
:1051C0005B881A46039B9B881846039BDB880093E9
:1051D0000346064825F01CFB0A982DF01FFB00BF74
:1051E0000FB05DF804FB00BF00E20400E86D64A0AE
:1051F0005886030064860300400000107086030098
:1052000094860300C4860300E48603000887030035
:1052100000B58FB0039098482DF0F8FA0A9001215C
:10522000964825F08FFB47F6E071944825F085FB02
:10523000039B1B881946039B5B881A46039B9B882C
:105240001846039BDB88009303468C4825F0E0FA60
:1052500008AB1A4603218A482CF08EFE03468DF8CF
:1052600027309DF827308DF837309DF83730002BE8
:105270000DD008AB1A46032182482CF07DFE034670
:105280008DF836309DF836308DF8373002E0FF2348
:105290008DF836309DF83730002B50D10A9B0C9397
:1052A0000023ADF82C302DE00023ADF82E301FE0A8
:1052B000BDF82E30CF330793BDF82C30133306934F
:1052C00006AA07AB19466D4825F04BFB079B19460C
:1052D000069B1A46012300930C9B684825F030FE7C
:1052E0000C9B02330C93BDF82E300133ADF82E30F9
:1052F000BDF82E30B3F5C87FDAD3BDF82C300133BA
:10530000ADF82C30BDF82C30B3F5C87FCCD308985D
:1053100005AB594A0A992CF0A4FE03468DF83730A4
:105320009DF83730002B05D0059B534A934201D09E
:10533000FDF7F1FB089B18462CF058FE7DE0524B20
:105340001B6803F51623504A11684FF416221846BD
:1053500026F0DAFCFDF7DFFB0021484825F0F2FAE1
:105360000021464825F0EBFA47F6E071434825F066
:10537000E4FA2223009340F25F231222CE213F4819
:1053800025F046FA9DF82730092B1CD19DF83630C0
:105390000D2B06D11423D0223C49384825F021FC9E
:1053A00038E09DF83630092B06D11423D022384935
:1053B000324825F016FC2DE01423D02235492F4821
:1053C00025F00FFC26E09DF827300D2B1CD19DF811
:1053D00036300D2B06D11423D0222F49274825F033
:1053E00000FC17E09DF83630092B06D11423D0229B
:1053F0002A49224825F0F5FB0CE01423D022274946
:105400001E4825F0EEFB05E01423D02224491B485A
:1054100025F0E7FB0121194825F094FA4FF4FA60D2
:105420002CF092F8184B1868174B1B6803F51623DD
:105430004FF41622194626F067FC01210F4825F08B
:1054400081FA00210D4825F078FA039B1B88194644
:10545000039B5B881A46039B9B881846039BDB884B
:1054600000930346054825F0D3F90A982DF0D6F9A4
:1054700000BF0FB05DF804FB00E20400E86D64A01B
:105480005886030064860300400000101487030060
:10549000388703006087030080870300A08703002C
:1054A000BC87030082B00190024B01221A6000BF4A
:1054B00002B07047486E64A000B585B0104B0393EE
:1054C000104B1B881946104825F039FA47F6E07151
:1054D0000D4825F032FA039B1B881946039B5B8815
:1054E0001A46039B9B881846039BDB880093034660
:1054F000054825F08DF900BF05B05DF804FB00BF3D
:10550000E887030004000010E86D64A000B583B0D4
:1055100001900091019BCE2B10DD019B40F25E2299
:1055200093420BDC009B122B08DD009BB3F5D17F6F
:1055300004DC009A0199034825F04CF800BF03B041
:105540005DF804FBE86D64A000B583B001900091A4
:10555000019B5A1E009B013B19461046FFF7D6FFE0
:10556000019B013B00991846FFF7D0FF019B5A1E93
:10557000009B013319461046FFF7C8FF009B013B13
:1055800019460198FFF7C2FF00990198FFF7BEFF87
:10559000009B013319460198FFF7B8FF019B5A1C85
:1055A000009B013B19461046FFF7B0FF019B0133FA
:1055B00000991846FFF7AAFF019B5A1C009B013374
:1055C00019461046FFF7A2FF00BF03B05DF804FBC9
:1055D00000B587B00590049103920293059BCE2BF2
:1055E00022DD059B40F25E2293421DDC049B122BC0
:1055F0001ADD049BB3F5D17F16DC039BCE2B13DDA4
:10560000039B40F25E2293420EDC029B122B0BDDC9
:10561000029BB3F5D17F07DC029B0093039B049AA6
:105620000599034824F0E8FF00BF07B05DF804FBCC
:10563000E86D64A000B585B00390029101920093DB
:10564000039B581E029B591E019B5A1E009B013B47
:10565000FFF7BEFF039B581E019B5A1E009B029939
:10566000FFF7B6FF039B581E029B591C019B5A1E55
:10567000009B0133FFF7ACFF029B591E009B013BCF
:10568000019A0398FFF7A4FF009B019A02990398DF
:10569000FFF79EFF029B591C009B0133019A039860
:1056A000FFF796FF039B581C029B591E019B5A1C37
:1056B000009B013BFFF78CFF039B581C019B5A1C6E
:1056C000009B0299FFF784FF039B581C029B591C07
:1056D000019B5A1C009B0133FFF77AFF00BF05B006
:1056E0005DF804FB00B591B0039000230F930023F5
:1056F0000E9300230D93614B00221A60604A102123
:1057000001202CF086F80346002B40F0B3805C4B60
:105710001B685C4A5C4918462CF0BFF80BAB584A32
:1057200019465A482DF016FA0346002B40F09D808A
:105730000CAB194656482CF0ACFE0346002B40F04B
:105740008D800C9B08AA002118462CF0C6FE0C9BED
:105750001846FFF791FBFFF7AFFE4FF0FF31302007
:10576000FCF702FE72E0464B1B6804A94FF0FF32C3
:1057700018462CF03EF90346002B67D1059B0A938F
:10578000069B099309AA0AAB1946424825F0DEF8A0
:105790000A9BCE2B4FDD0A9B40F25E2293424ADCED
:1057A000099B122B47DD099BB3F5D17F43DC079B97
:1057B000012B3DD12DF01CF8374B1B88002B16D147
:1057C000354B1B881946334825F0B7F80F9B002B43
:1057D00006D00A9A099B0D990E98FFF72BFF1FE040
:1057E0000A9B099A11461846FFF7AEFE18E02A4BAD
:1057F0001B881946274825F0A0F80F9B002B09D0DD
:105800000A9A099B009313460D9A0E99214824F099
:10581000F3FE05E00A9B099A19461E4824F0DAFEB9
:105820004FF0FF330F930A9B0E93099B0D930DE0EE
:1058300000230F930AE004AB1A461849154825F0D7
:1058400019FE079B002B01D100230F930B4B1B6804
:10585000002B88D00C9B18462CF032FE0B9B084A7C
:105860001268114618462DF0ECF9054B1B681846D6
:105870002BF0F4FF00BF11B05DF804FB486E64A08C
:10588000506E64A0CC870300D0870300D887030044
:10589000E4870300E86D64A004000010E8870300BB
:1058A00000B583B00190019B9B69184601F0D4FBC1
:1058B000074B1B68D3F8D83B184600F00BFA00F0F2
:1058C00079F800F069F900BF03B05DF804FB00BF90
:1058D000546E64A000B58DB00190019B1B88ADF89B
:1058E0002430019B5B88ADF82630019B9B88ADF886
:1058F0002830019BDB88ADF82A30254B1B682549F1
:10590000184625F0A9F9224B1B68184625F0A6F980
:105910000346ADF82E3009AB0221184626F00AF9ED
:1059200007A909A80223402226F06EF9019B1B69F2
:10593000002B16D0BDF81C300693BDF81E30059321
:10594000134B1B68184605AA06AB194625F009F843
:10595000019B1B69069A91B2059A92B2184625F0EE
:10596000E1FFBDF82E2003A909AB184626F096F9F1
:10597000074B1B681846019B9968BDF80C301A4606
:10598000BDF80E3025F02DF900BF0DB05DF804FB19
:10599000546E64A0BC83060082B00190044B1B6867
:1059A0004FF0FF32C3F8D42B00BF02B0704700BFE6
:1059B000546E64A000B58DB06F4B1B6803F6642372
:1059C00009930023ADF818300023ADF81A306A4B64
:1059D0001B68DB699BB2ADF81C30674B1B681B6A08
:1059E0009BB2ADF81E30644B1B686449184625F025
:1059F00033F9614B1B68184625F030F90346ADF8C2
:105A0000223006AB0A21184626F0B0F8BDF8223045
:105A100046339AB2694606A8022326F0D3F804ABAF
:105A200006AA92E8030083E80300534B1B6803F6C1
:105A3000CC3304AA92E8030083E8030004AB0221FC
:105A4000184626F093F8BDF822300433ADF82E3016
:105A5000BDF82E30432B02D84423ADF82E3000235E
:105A60000A9350E0444B1B681A6E0A9B9A424ED927
:105A7000BDF82E20BDF816300133BDF812105B1AA8
:105A80009A4246DABDF82E2002A904A8012326F086
:105A900077F8BDF80820099B1A80BDF80A20099BF9
:105AA0005A80BDF80C20099B9A80BDF80E20099BF6
:105AB000DA80314B1A680A9BDB016033134403F12F
:105AC0000802099B9A60099B2D4ADA60099B2D4ABE
:105AD0001A61294B1A680A9BDB01603313441A1DB3
