:10000000340D0010010300001B0300007C030000FE
:100010001D0300001F03000021030000D7DFFFEFD6
:1000200000000000000000000000000061C60200A7
:100030002503000000000000F1C6020035C70200E1
:10004000E1930200F1930200019402001194020076
:100050002194020031940200419402005194020064
:100060006194020071940200819402009194020054
:10007000A1940200B1940200C1940200D194020044
:10008000E1940200F1940200019502001195020032
:100090002195020031950200419502005195020020
:1000A0006195020071950200819502009195020010
:1000B000A1950200B1950200C1950200D195020000
:1000C000E1950200F19502000196020011960200EE
:1000D00021960200319602004196020051960200DC
:0400E0006196020023
:0402FC00FFFFFFFF02
:10030000DFF88CD023488047DFF884D0224880472C
:1003100022482349016000F045B82FE02EE02DE08F
:100320002CE02BE02AE029E028E027E026E025E089
:1003300024E023E022E021E020E01FE01EE01DE0B9
:100340001CE01BE01AE019E018E017E016E015E0E9
:1003500014E013E012E011E010E00FE00EE00DE019
:100360000CE00BE00AE009E008E007E006E005E049
:1003700004E003E002E001E000E0FFE71EF0040F0C
:100380000CBFEFF30880EFF3098027F059BA0000A3
:100390000000011005D60100DDE5020008ED00E0D7
:1003A0000000000027498D4627482849284A00F0C8
:1003B00037F828482849294A00F032F828482949BE
:1003C000294A00F02DF8294829492A4A00F028F83E
:1003D00029482A492A4A00F023F82A482A492B4A60
:1003E00000F01EF82A482B49002200F024F82A4881
:1003F0002A49091A00220260043001601C481D4984
:10040000884205D00268043003B4904703BCF7E784
:1004100000208646EC4600200021214A9047FEE756
:10042000884207D0521A05D0037801300B70013191
:10043000013AF9D17047884202D002700130FAE7E0
:1004400070470000340D001090910600000000106D
:10045000F8040010A4040000A4040000705203007B
:100460009091060000000010000000107052030080
:100470007052030070520300705203007052030068
:1004800070520300705203007052030090910600F6
:10049000605664A0709164A000A859A0605664A042
:0404A000FDD5010085
:1004A40010B540F217402EF0E5FA002140F2174053
:1004B4002EF004FB142440F217402EF0C3FA32202D
:1004C4002DF05AFB40F217402EF0C8FA32202DF0DE
:1004D40053FB013CEFD140F217402EF0B3FAFA205F
:1004E4002DF04AFB40F217402EF0B8FAFA202DF016
:1004F40043FBF0E710B50023032482B05022CDE97A
:100504000043034903482DF041FE02B010BD00BF73
:1005140070520300A504000070B50D4E0446336804
:100524000D4663B10B4B1E681DF03EF801462A468A
:100534003046B1FBF4F1BDE870402FF007BA05492D
:1005440005482FF0ECF94FF0FF333360EAE700BFC2
:10055400605664A0645664A07852030010B50D4C34
:10056400236873B10C4B1C681DF01EF801460B4B3D
:100574002046BDE81040A3FB0131142209092FF0E5
:10058400E5B9054906482FF0CAF94FF0FF33236057
:10059400E8E700BF605664A0645664A0D34D6210BF
:1005A4007852030010B50D4C23687BB10C4B1C68CA
:1005B4001CF0FAFF01460B4B2046BDE81040A3FB9C
:1005C40001314FF4FA7249092FF0C0B904490648C1
:1005D4002FF0A5F94FF0FF332360E7E7605664A0DE
:1005E400645664A01F85EB5178520300CB1E012B87
:1005F400A0F86A1003D90239022904D970470022ED
:10060400034BC3F8DC204FF0FF33C0F8D030704701
:10061400BC5664A04FF0FF33C0F8D030704700BF21
:1006240070B5B2F5004F06460C4682B044D015466C
:100634002AB1022A7DD0042A6ED002B070BD086FA0
:1006440091F86E10036809011B6901F0F0019847E5
:1006540094F86E10206FC943036809015B6901F0C7
:10066400F0019847A06F01A903685B6998479DF85A
:10067400042094F86C3094F86E1023EA02034B4083
:1006840062F3070594F8811062F30F2584F86E3045
:10069400A4F86C500029D0D103F00F030F2BCCD158
:1006A400012184F881102046B368314A9847062115
:1006B400204633689847C0E7002120462D4AB36896
:1006C40098472D4804F174012DF0ECFF002838D030
:1006D40000212046B368294A98470023204619463A
:1006E4000322F568A847032120463369984720462A
:1006F400234AB36801219847A06F0F2103681B693F
:10070400984700234FF6FF7284F86E30A4F86C20EB
:10071400A4F8803002B070BD0023C56803220846E7
:100724001946A84703212046336902B0BDE870404A
:10073400184700230846D6F80CC01946E047294656
:10074400F1E7606F04F170012DF098FF0028BFD12C
:100754000C4804F17C012DF0A5FF0028B8D1E06F0E
:1007640004F178012DF08AFF0028B1D1BFE700BF62
:100774000453030080520300A0520300AC52030050
:10078400D8520300CC520300F0B5B2F5004F064630
:100794000C4683B024D015460AB103B0F0BD086FEF
:1007A4002DF0B2FC40F6B7339842F6D9606F694633
:1007B40003681B69984740F20113BDF804209A426C
:1007C4002FD00023204619460322F568A8470321A9
:1007D40020463369984720467369984703B0F0BDB3
:1007E4006C311C482DF05EFF04F17401E06E2DF0B5
:1007F40045FF00250823184A606F01928DF80250C6
:10080400ADF80030036869465B6998472DF06EFCCB
:100814000746B36829462046104A2767984703B01D
:10082400F0BD40F2D973BDF806209A42C9D1BDF893
:100834000030082BC5D19DF80230012BC1D92B46BD
:10084400294620460222F568A8470221204633693A
:100854009847C0E71C5303000101D9072053030044
:10086400F0B5B2F5004F06460C4683B024D01546C9
:100874000AB103B0F0BD086F2DF046FC40F6B73363
:100884009842F6D9606F694603681B69984740F23D
:100894000113BDF804209A422FD0002320461946A4
:1008A4000322F568A8470321204633699847204668
:1008B4007369984703B0F0BD6C311C482DF0F2FE0B
:1008C40004F17401E06E2DF0D9FE00250823184AC6
:1008D400606F01928DF80250ADF8003003686946EC
:1008E4005B6998472DF002FC0746B3682946204609
:1008F400104A2767984703B0F0BD40F2D973BDF89A
:1009040006209A42C9D1BDF80030082BC5D19DF804
:100914000230012BC1D92B46294620460222F56814
:10092400A8470221204633699847C0E73C53030097
:100934000101D907445303002DE9F0418AB004466C
:100944000D46454801A990462DF0ACFE60B1002348
:10095400032228461946E668B0470321284623693E
:1009640098470AB0BDE8F0810646694601982DF023
:1009740085FE074628BBB8F5004F28D0B8F1000F14
:10098400EFD12022414602A831F00AFC009841210F
:10099400036802AA5E692023B047034600284BD1AE
:1009A400014602222846E668B04702212846236908
:1009B400984700982023026841219469274AA04758
:1009C400CFE73346194603222846E668C4E70146C2
:1009D400234A2846A36898470098412103681F4A80
:1009E4005E692023B04708B13B46EBE72022AA21E9
:1009F40002A831F0D5FB00984121036802AA9E6940
:100A04002023B04706462022552102A831F0C8FB16
:100A1400EEB900984321036802AA9E691423B047E3
:100A240001238DF80830002891D1009846210468EC
:100A340002AAA469A04794E74346414628460322F4
:100A4400E668B0470321284623699847B1E70123A4
:100A54008DF808307BE700BF60530300685664A03C
:100A64006853030030B5B2F5004F05460C4693B009
:100A740005D012B91C4B1B6813BB13B030BD204604
:100A8400AB680021194A9847194A1A4992F83D302F
:100A940003A8019392F83C30009392F83B3092F80B
:100AA4003A2031F049FA01212046AB6803AA98475D
:100AB40000220D4B1A602DF019FBE06613B030BD17
:100AC4001346204602221946D5F80CC0E0472046BA
:100AD4002B690221984701212046AB68064A13B0CE
:100AE400BDE83040184700BFA05764A07C53030002
:100AF400607364A094530300BC53030070B5B2F553
:100B0400004F06460C4682B055D01546002A50D1F7
:100B1400086F01A903681B699847002871D1019ADD
:100B2400E36F04F180059342A36FB8BFE2679A4272
:100B340082EAE273A3EBE273C3F34233C3EB431CD5
:100B4400B8BFA26703EB8C033E491214284631F068
:100B5400F3F9B3682A46002120469847C8202DF0AF
:100B64000BF8636F0133052B636722D9A26FB2F5CB
:100B7400702F4CDA284682EAE273A3EBE273C3F3E4
:100B84004233C3EB431C3049019203EB8C03121430
:100B940031F0D2F92A4600212046B3689847002351
:100BA400032220461946F568A847032120463369E5
:100BB400984702B070BD00212046244AB368984784
:100BC400234804F16C012DF06DFD60B10023204633
:100BD40019460322F568A84703212046336902B069
:100BE400BDE870401847E06E04F170012DF046FD39
:100BF4000028EBD14FF4C8136067A367E36702B022
:100C040070BD2B46294603222046F568CCE7E26FE7
:100C1400B2F50C1F0ADC0023204619460222F568AF
:100C2400A8470221204633699847C2E7C2F34233FA
:100C3400C3EB4311019203EB8103284605491214C7
:100C4400A6E700BF0054030024540300DC53030050
:100C5400F8530300505403002DE9F041B2F5004F5E
:100C640006460C4684B032D0154612B104B0BDE835
:100C7400F081D1F880002DF047FAB0F5FA6F00F258
:100C840083804FF4FA77E36F206F04F17401C3F1AA
:100C94000402194403680097DF69039203ABB84761
:100CA400E36F039A1344032BE367DFD994F874309A
:100CB4004A2B77D00123F568002B6BD119462046C7
:100CC4000222A8470221204633699847CEE7002133
:100CD40020463C4AB36898473B4804F16C012DF028
:100CE400E1FC60B10023032220461946F568A847B9
:100CF40003212046336904B0BDE8F0411847E06E93
:100D040004F170012DF0BAFC0028EBD14FF4FA780D
:100D1400E06704F17407206F39460268CDF800805B
:100D2400D56903AB0522A8470228F4D16422206FB9
:100D34002649036800921D6A012203ABA847B0B993
:100D44004FF4FA78206F39460268CDF80080D569EF
:100D540003AB0522A8470228F4D16421206F03AB1A
:100D640002680091156A19490122A847A8B1002315
:100D74000322F56820461946A84703212046336913
:100D8400984704B0BDE8F0812B462946032220464B
:100D9400F568ACE700230322ECE72DF0A7F9C4F8CB
:100DA400800063E794F875302E2B83D194F8763065
:100DB400482B7FF47FAF94F87730612B7FF47AAFC0
:100DC4002B4678E77C54030098540300A054030096
:100DD40070B5B2F5004F06460D4682B021D01446D8
:100DE4000AB102B070BD684601A9CDE9002204F041
:100DF40093FA18B1214B009A9A4222D0A86F2DF091
:100E040083F9B0F5FA6FECD96C6F0134032C6C677D
:100E140027D01B491B4804F09DFA2DF067F9A867F9
:100E2400DFE7B368184A2846002198471449154853
:100E340004F090FA2DF05AF90023C5E91D3002B0F0
:100E440070BD019A03F144339A42D7D12346214617
:100E540028460222F468A0470221284633699847AD
:100E6400CCE70023284619462246D6F80CC0E047B2
:100E74002146284633699847B3E700BF4534231217
:100E84008877665544332211AC540300B2F5004F01
:100E94002DE9F04707460C4606D0022A154671D0C4
:100EA400042A63D0BDE8F08700212046BB683B4A92
:100EB40098474FF029084FF0070914254FEAC9163F
:100EC40006F47C463146204625F023F8294642465E
:100ED4002046013524F074FEB5F58A7FF2D108F17D
:100EE4000108B8F1480F09F10809E6D14FF04908A3
:100EF4004FF0070914254FEAE9067601B6B23146E8
:100F0400204625F006F8294642462046013524F0BD
:100F140057FEB5F58A7FF2D108F10108B8F1680FE0
:100F240009F10809E6D169264FF007081425C8F32A
:100F3400CF094946204624F0ECFF29463246204694
:100F4400013524F03DFEB5F58A7FF2D10136882EB5
:100F540008F10808EAD12046BB680921104A9847DD
:100F640020463B680621BDE8F04718472046002389
:100F74000921FD680322A84720463B690321BDE8F7
:100F8400F0471847C668092120460023B047294680
:100F940020463B69BDE8F047184700BFC45403002E
:100FA400DC540300B2F5004F70B505460C4608D07A
:100FB400102A01D0C2B170BD6B690846BDE870400B
:100FC4001847002120462C4AAB6898470121204647
:100FD4002A4AAB68984702212046294AAB689847B9
:100FE4002DF084F8E06670BDC86E2DF08DF8B0F574
:100FF4007A7FE0D32DF07AF803460121214804F1E9
:101004007002E3662DF0FAFB064698B9AB6802213C
:1010140020461D4A9847206F2DF02AFC334631465E
:101024002046EE680222B04720462B690221BDE823
:1010340070401847061F02212046AB68092E06D8C7
:10104400DFE806F01505050505110D0505090F4A2C
:10105400BDE8704018470E4ABDE8704018470D4A75
:10106400BDE8704018470C4ABDE8704018470B4A69
:10107400BDE87040184700BF105503002855030011
:1010840054550300645503007455030004560300CB
:10109400CC5503008C550300E8550300AC55030000
:1010A400B2F5004F70B505460C4608D0102A01D0A1
:1010B400C2B170BD6B690846BDE870401847002195
:1010C40020462C4AAB689847012120462A4AAB683F
:1010D400984702212046294AAB6898472DF006F824
:1010E400E06670BDC86E2DF00FF8B0F57A7FE0D3DE
:1010F4002CF0FCFF03460121214804F17002E36651
:101104002DF07CFB064698B9AB68022120461D4AA7
:101114009847206F2DF0ACFB334631462046EE68ED
:101124000222B04720462B690221BDE870401847CF
:10113400061F02212046AB68092E06D8DFE806F018
:101144001505050505110D0505090F4ABDE8704093
:1011540018470E4ABDE8704018470D4ABDE8704074
:1011640018470C4ABDE8704018470B4ABDE8704068
:10117400184700BF1C56030038560300545503009B
:10118400685603007455030004560300CC5503004D
:101194008C550300E8550300AC550300B2F5004F2D
:1011A40070B506460C4616D0154622B1022A35D033
:1011B400042A22D070BD91F86C20214B642153F88D
:1011C4002200FFF7A9F994F86C30013303F0070308
:1011D40084F86C3070BD002120461A4AB3689847E1
:1011E40001212046184AB3689847336806212046EF
:1011F4009847002384F86C3070BD2046B368012101
:10120400124A9847002320461946F5680322A84746
:10121400204633690321BDE87040184783680121E3
:1012240020460B4A98470023204619462A46D6F8FA
:101234000CC0E047294620463369BDE87040184792
:10124400C85903007856030090560300C0560300A3
:10125400AC5603002DE9F0410646884682B00021D1
:10126400B0F8685024F055FE0021304624F053FEB7
:101274000021304624F054FE0021114824F04EFE93
:10128400104C082308EA050502E034F8103F6BB15E
:101294001D42FAD02789E388A288618830460097E6
:1012A40024F0A3FD34F8103F002BF1D1B6F86830D8
:1012B40023EA0803A6F8683002B0BDE8F08100BF55
:1012C400BC5664A0EC5A03002DE9F04105460C46D7
:1012D40017461E46DFF8348008EBC203998824F0D1
:1012E40018FEB5F8D8302846E218C2EB02125200B4
:1012F400143258F8371093B24FF4077225F0D3F82C
:101304003046BDE8F0412CF037BC00BF4C5B030015
:1013140070B50C4605461646B0F8D83082B01C4469
:101324000021C4EB041424F0F4FD640000212846D9
:1013340024F0F1FD14340021284624F0F1FDA4B278
:1013440000211F4824F0EAFD04F11D02009240F23E
:101354006B2322461421284624F047FDA6B147F604
:10136400E071284624F0D5FD14212246284624F0B5
:1013740068FF317841B15E2908D0284624F0D2FFB5
:1013840016F8011F0029F6D102B070BD16F8013F0E
:10139400002BF9D0472B07D0522B0BD047F6E07126
:1013A400284624F0B6FDEBE74FF47871284624F084
:1013B400B0FDE5E74FF4F841284624F0AAFDDFE745
:1013C400BC5664A0B2F5004F00D0704770B50C460F
:1013D4000021054684F8741020461E4AAB689847DD
:1013E4001D4804F16C012DF05DF980B12046AB6815
:1013F40000211A4A9847002320461946EE68032222
:10140400B04720462B690321BDE870401847E06EC1
:1014140004F170012DF032F90028E7D1206F40F675
:10142400C412036804F178015B69984706460028F2
:10143400DCD10146AB682046094A98473346314619
:101444002046EE680222B04720462B690221BDE8FF
:1014540070401847D8560300F4560300FC560300A6
:10146400245703002DE9F04FB2F5004F80460C4697
:1014740083B00BD0102A02D003B0BDE8F08F084629
:10148400D8F8143003B0BDE8F04F184700212046C7
:10149400D8F80830754A9847D4F8DC300121204642
:1014A400002B40F09780D8F80830714A98474FF6DF
:1014B400FF712046D8F804309847D8F8003010213E
:1014C40020469847D4F8DC30002BD5D1042120469F
:1014D40001919A460321D8F80830664A9847DFF804
:1014E40098B1664D664BA94693E80300654E664F76
:1014F400CBF800008BF8041005E0D9F8143009F19A
:101504001009BB4215D0A9EB05031B11F35C032B97
:10151400F3D1BAF1000F62D14FF0010AD9F80010EB
:10152400584630F031FDD9F8143009F11009BB42A6
:10153400E9D1BAF1000F0CD0019B4F4A99B20133A3
:1015440001932046D8F80830984700224F4B83F87F
:101554006C20019B204699B2013301934C4AD8F880
:1015640008309847464B4FF0000993E80300DFF832
:101574000CA1CBF800008BF8041005E0DAF8143065
:101584000AF1100ABB4215D0AAEB05031B11F35C48
:10159400042BF3D1B9F1000F31D14FF00109DAF87E
:1015A4000010354830F0F0FCDAF814300AF1100A73
:1015B400BB42E9D1B9F1000F3FF45EAFD8F808306F
:1015C4002D4A2046BDF80410984700222F4B83F87B
:1015D4006C2051E7D8F808302E4A984767E7264828
:1015E40030F05AFE2C4BBAF1040F1A889B782BF872
:1015F40000205844837012D00AF1010A8EE71E4875
:1016040030F04AFE244BB9F1040F1A889B782BF86A
:1016140000205844837015D009F10109BFE7019BEC
:10162400204699B20133144A0193D8F808309847F8
:101634001A4B134A4FF0010A92E803001970CBF8D1
:1016440000006BE7019B204699B201330A4A0193DB
:10165400D8F808309847114B094A4FF0010992E82D
:1016640003001970CBF8000099E700BF4857030046
:1016740088570300AC570300285764A0745B030029
:10168400B8570300885664A069140000BC5664A0CF
:10169400C457030064570300C05703002C5764A0C9
:1016A40070B59AB02AF0ECFF294E0DF103043546CB
:1016B40021463246432303F1070E92F800C002F894
:1016C400013B5FFA8EF3FF2B01F801CFF3D13346D0
:1016D400432201E0FF2A0DD093F800C0D11D9445A8
:1016E40003F10103CAB2F5D02AF0E8FF06F1C040C5
:1016F4001AB070BD4FF0640C16494FF0204303F844
:10170400012B8B42FBD1BCF1010CF6D132464323B1
:1017140001E0FF2B0DD092F800C0D91D9C4502F1C9
:101724000102CBB2F5D02AF0C9FF06F1C0401AB0CD
:1017340070BD0DF1670314F8012F9C4205F8012BCD
:10174400F9D106F5803616F1BF4FAED1CCE700BF14
:10175400000001A0000400A0B2F5004F00D07047C3
:101764002DE9F0410C4605460021AB681B4A204692
:1017740098474FF40000FFF793FF064604F16C0707
:1017840032461749384630F0D7FB002120463A4606
:10179400AB689847B6F5000F4FF0010120460ED014
:1017A400AB68104A9847002320461946EE68032286
:1017B400B04720462B690321BDE8F0411847AB68C8
:1017C400094A9847002320461946EE680222B0478A
:1017D40020462B690221BDE8F0411847D057030089
:1017E400E457030018580300085803002DE9F04398
:1017F4001446064683B00F4647F6E07124F089FB91
:101804002146304624F087FB2146304624F088FBED
:10181400294D0823DFF8A48003E035F8103F002B9E
:1018240044D01F42F9D00021404624F077FB298997
:10183400EB88AA8800913046698824F0D6FA012101
:10184400304624F06BFBD5F80C9099F8001081B366
:101854000024304624F068FE19F8011F0444A4B2A1
:101864000029F6D1640847F6E071304624F051FBB4
:10187400EA886B8830461344013BC4EB630424F0CC
:101884004FFE84462989AB881FFA8CFC0B44013B2C
:10189400A3EB0C03A4B2E968C3F34F03224630461A
:1018A40024F001FE35F8103F002BBAD103B0BDE897
:1018B400F0830C46D7E700BFEC5A0300BC5664A083
:1018C40038B50C460546B0F8681000226140FFF7B1
:1018D4008DFFB5F868301C43A5F8684038BD00BFDB
:1018E40030B58BB0054608A91D482DF00EFD08B192
:1018F4000BB030BD044608982DF049FD4FF48071BB
:1019040008982DF051FD25F021FB214609AA0898DD
:101914002DF01FFDCDE90044069440F2DF144FF48E
:10192400F840039447F6E072022140F27F24099BB9
:101934000790059204914FF4F0724FF420712846F9
:10194400029424F0ABFA2846064924F0E7FD1F224E
:101954002846054924F0F7FD25F00CFB0BB030BDFB
:1019640030580300445C0600345803002DE9F04F5E
:10197400AF4C8DB0E4220021204630F011FC4FF032
:10198400FF331021012005AAC4F8DC302CF054FAEE
:1019940010B10DB0BDE8F08FA64805AA02A92EF03B
:1019A400CBF828B105982CF06CFA0DB0BDE8F08F97
:1019B400A14803A92DF0A9FC20B1059902982EF0A5
:1019C40028F9EFE70646014604AA0398DFF86C827B
:1019D4002DF0BFFC2046FFF783FF45463346B14652
:1019E400974F23E0B4F86A10032900F08580B4F817
:1019F400D8302A89934813442A8B9BB2A4F8D83050
:101A04001344A5EB08021211092B815405F11002AD
:101A14007DDC0023C4F8D0301368002B00F08980EB
:101A24002B46BBF1000F40F084801546AB4218D022
:101A34004FF6F6712046FFF70DFCB4F8681000224B
:101A4400204681F00901FFF7D1FEB4F868304FF465
:101A5400004243F00903A4F86830214638466B6815
:101A640098470A22059808A92CF0D4FA824670B146
:101A74004FF0000BD4F8D030002BB3D1002E37D167
:101A84003246214638466B6898472A46C4E7099B84
:101A9400204606930A9B07AA06A9079324F042FA54
:101AA4000B9B012B01D0D146E2E7DDE9092052EA84
:101AB4000003DDD00821DFF890A192B280B2BAF819
:101AC400023093420BD8BAF80630934207D3BAF8DF
:101AD4000430834203D8BAF8083083424DD23AF82E
:101AE400101F0029EBD1CA45C2D0D1468B46C1E7AD
:101AF4002A464FF0FF368FE7EB68002B3FF477AFB1
:101B0400D4F8E060CEB10026C4F8E0606FE74FF08F
:101B1400000A0195A4F8D8A055469246A9B200221D
:101B240020460135FFF7F4FB0A2DF7D15246019DFB
:101B34006FE703982DF000FC3FE74FF6F7713C4840
:101B4400FFF788FBB4F868103246394881F0180171
:101B5400FFF74CFEB4F86830C4F8D06043F01803C3
:101B6400A4F86830FEF71EFDD4F8D030002BBFD0A7
:101B74004FF0FF36B4F86A1039E7D1453FF478AF37
:101B8400B4F8683019428ED04FF478722848019125
:101B9400FFF72CFEFEF7E2FC64202BF0EDFF0022A1
:101BA40001992348FFF722FEEEB1BAF80030D806B7
:101BB4000FD54FF0FF3213F00803C4F8D020C4F857
:101BC400E02032D00023C4F8DC30D1464FF0FF3B94
:101BD40008E71B077FF567AF0023D1464FF0FF3BB3
:101BE400C4F8DC3046E76B681149BAF800201448A1
:101BF4009847BAF80030D907EBD54FF0FF39FA23EC
:101C0400042231460A48C4F8D090FFF75DFB042152
:101C1400BAF80030C4F8D0901A07C4F8DC60A4F80D
:101C24006A10D2D4D146B346E1E6D1469B46D9E602
:101C3400BC5664A04458030030580300745B03008E
:101C4400E8590300885664A0EC5A03003A222F2373
:101C540030B5013189B08DF80120ADF802308DF82E
:101C640000000DD0684601A92CF086FE28B968460C
:101C740004A92CF067FE002858D0092009B030BD13
:101C840001463C4830F01CF9684601A92CF074FE6A
:101C940000284DD1DDE90150A5FB0003000D190D0D
:101CA40040EA03302EF042FE04462946324830F022
:101CB40007F9DDE90212314830F002F94FF08941A9
:101CC40020462FF0F1F8002845D04FF06A51204605
:101CD4002EF053FF4FF0894104462FF0E5F8002819
:101CE40040D04FF06A5120462EF047FF4FF0894113
:101CF40004462FF0D9F8F8B920462EF050FE0B46D2
:101D040002461F4830F0DCF8684604A92CF01AFE9D
:101D1400E8B91C4830F0F4F8DDE904121A4830F050
:101D2400CFF8DDE90612194830F0CAF80020A5E71B
:101D3400174830F0E5F8A0E74FF06A5120462EF03E
:101D44001CFF2EF02CFE02460B461248DAE712481E
:101D540030F0D6F891E720462EF021FE02460B46DD
:101D64000E48CFE720462EF01AFE02460B460C48DA
:101D7400C8E700BF50580300685803009058030098
:101D8400CC58030014590300285903005C5903007C
:101D9400B0590300B458030090590300FC580300E1
:101DA400E45803004FF0FF32014B1A60704700BF44
:101DB400A45764A0F0B5002506468BB025F0C6F8FC
:101DC400294609AA30462DF0C4FA47F6E0774FF4C5
:101DD400F842022340F2DF1140F27F261A4C0391AD
:101DE400079204934FF4F072099B4FF4207120463C
:101DF400CDE90575CDE90055029624F04FF820464B
:101E0400124924F08BFB1F222046114924F09BFB2E
:101E14003946204624F07DF82946204624F07BF8F4
:101E2400204658231A220B4924F03DFB76231A221C
:101E34002046094924F037FB2046084924F0BCFD1C
:101E440025F098F80BB0F0BDA85764A0445C0600D8
:101E5400745C0300905C0300C05C0300F05C03004E
:101E640000232DE9F041424C8EB01021012007AA35
:101E740023602BF0E1FF10B10EB0BDE8F0813D48C6
:101E840007AA06A92DF058FE002861D13A4805A9F1
:101E94002DF03BFA002857D1384808A92CF002FC51
:101EA4000028E9D1089809A92CF0E8FB0028E3D11F
:101EB4004FF4FA760C90099804AB02680096D56941
:101EC4000AA90522A8470228F5D10598FFF772FF51
:101ED4002368002B35D12A4F2A4EDFF8AC8002E06C
:101EE4002368002B2DD139464FF4FA733046079AF4
:101EF40024F05CFF03A902A803F00EFA00282DD1F8
:101F04000023642209980C9904930AAB19440368CA
:101F14000092DD69012204ABA847049B012BDFD1A9
:101F24009DF828307C2BDBD14FF4C871099804ABA1
:101F340002680091156A41460422A8470028CFD0C0
:101F44009AE705982DF0F8F9DDE906012DF061FE18
:101F540007982BF096FF0EB0BDE8F0810399029824
:101F640001F1013100F1013003F0F4F9C8E700BFD9
:101F7400A45764A044580300305803009854030045
:101F8400F05C0300A85764A0A4540300002300B528
:101F94000E4883B001932FF0B3FF04F05DFC60B9E9
:101FA40000210B4A01A826F0D9F8FEF7A3FA00F0A5
:101FB40001F9002003B05DF804FB06482FF0A0FFF0
:101FC40004F072FC04F028FCEAE700BF305D030073
:101FD400645D0300545D030010B582B01BF07AF910
:101FE4000022032411464FF0FF3025F077FA1BF04E
:101FF4001DF800201BF048F81BF04EF901201BF0DF
:102004004BF80648002301904FF4C0620449009441
:1020140004482CF0BBF8002002B010BDD87964A0AD
:10202400685D0300911F000084B000230393002324
:102034000293202301930AE0039B5A1C03921B780A
:102044001A46029B13440293019B01330193019BA3
:10205400B3F5FC2FF0D3029B184604B07047000080
:1020640000B583B001900091FFF7DEFF0346054AF7
:102074001360054B4FF0FF321A600023184603B07B
:102084005DF804FB685864A06C5864A000B591B076
:102094003F4B00221A600023019303230093002383
:1020A40040223C493C482CF071F80EAB19463B48A1
:1020B4002DF02BF90346002B66D10E9B0DAA0021AF
:1020C40018462DF046F924F041FF0D9B4FF4F842D9
:1020D400079200220692002205920222049240F204
:1020E400DF12039240F27F22029200220192002228
:1020F40000924FF4F0724FF42071294823F0CEFE81
:102104002849274824F00AFAB522D221264824F087
:1021140069FE0121224824F06DFA24F02BFF0023EC
:10212400ADF83E300EE00E9BBDF83E201146184639
:102134002DF03AF901202BF01FFDBDF83E3001339C
:10214400ADF83E30BDF83E30FF2BECD902E00A205A
:102154002BF012FD0E4B1B68002BF8D0134B1A68A2
:1021640009AB134918462FF0E7FE01210C4824F06F
:1021740041FA09A940F2D1130522094824F093F940
:102184000021074824F036FA00BF11B05DF804FBC3
:102194006C5864A09C5E030065200000A45E0300EC
:1021A400085864A0445C0600A4F90300685864A0BD
:1021B400A85E030000B585B001AB1A4610210120CA
:1021C4002BF03AFE0346002B43D103AB19462348B8
:1021D4002DF09BF80346002B3BD1039B02AA002160
:1021E40018462DF0B6F8FFF751FF642140F20B209A
:1021F400FEF792F9642140F29320FEF78DF96421F1
:1022040040F20F30FEF788F9642140F21640FEF7E1
:1022140083F9642140F20F30FEF77EF9642140F225
:102224009320FEF779F9642140F20B20FEF774F94C
:1022340003F018F80346184602F0D8FF4FF47A70FA
:102244002BF09AFC064802F03DFA039B18462DF049
:1022540073F800BF05B05DF804FB00BFA45E030083
:1022640010600300882008B512F08FFF12F09AFC6A
:10227400BDE8084005220248114612F049B900BFE2
:102284003886030030B583B00FF0D8FE88250446A5
:102294000FF0DCFE0021084A03460092084622465D
:1022A400019510F041FA05221146044803B0BDE837
:1022B400304012F02DB900BFFF5555003886030099
:1022C4002DE9F04F85B00FF0B9FEDFF8E480074642
:1022D4000FF0BCFED8F800402CB1204605B0BDE894
:1022E400F04F06F091BEC92306461A462146204601
:1022F40006F020F80125814633463A4621460095EA
:10230400204606F00DF92A4664232146C8F8000049
:10231400204606F00FF88246484606F04DF98346FB
:10232400882012F032FF12F03DFC504606F044F9CA
:102334008822204B2146CDE90032204664232246E0
:1023440010F0F2F9504606F013FE0546484606F032
:1023540033F955F8040B12F023FF64212246084692
:10236400013414F033FF642CF3D1D8F8000006F0E4
:1023740023F900223346484611460292CDE900670C
:1023840007F05EFB05220C48114612F0C1F84846DE
:1023940006F0A2F8504606F09FF8584606F00CF9ED
:1023A400D8F80040204605B0BDE8F04F06F02CBE3A
:1023B400745864A0FF5555003886030030B583B0C7
:1023C40005460DF0D9FA044628460DF0EFFA054605
:1023D4000B4B0C4A013DCDE9003200212B46A21ED5
:1023E400012010F0A1F9084812F0DAFE4FF0FF3195
:1023F4002B460020621803B0BDE8304015F0F4BC51
:10240400F3F3E6FFDCCEC0FFA8A851FF30B50368A4
:102414000446013B83B01C2B10D8DFE803F0320FD5
:102424000F0F0F0F0F0F0F0F0F0F0F2A240F0F0F88
:102434000F0F0F0F0F0F0F0F0F0F140003B0BDE896
:1024440030400CF01DBF40F2611140680DF086FD74
:102454000446012109F0B2FD2046114903B0BDE84C
:10246400304009F093BD406803B0BDE83040FFF749
:10247400A5BF0DF0B1FC214603B0BDE830400CF01F
:1024840024B90FF0DBFD0346412503EBD3735B1046
:1024940060680022194600950EF09AF803B030BD2A
:1024A400545428FF38B5036804460E3B182B0ED845
:1024B400DFE803F0514C0D0D0D0D0D0D0D0D0D0D3F
:1024C4000D0D0D180D0D0D0D0D0D0D0D1100BDE8AB
:1024D40038400CF0D5BE80680DF0ECFCE368022BAC
:1024E40040D038BD3949406808F087FD0E21606846
:1024F40008F0BEFD4FF4047160680DF02FFD054631
:102504000E210AF0CFFA284631490AF097FA4FF41F
:10251400006160680DF022FD00210AF0BEFE40F665
:10252400010160680DF01AFD00210AF0B6FE4FF4B7
:10253400B07160680DF012FD0446264909F020FDD3
:102544002046BDE83840244909F002BD4068BDE892
:102554003840FFF733BF0DF03FFC2146BDE838405B
:102564000CF0B3B8B0F5006F0ED040F601039842FA
:10257400B7D100230124194819491A4A1A4D046095
:102584002B600B60136038BD154B1A6872B10024C0
:102594001C600FF0DFFC03461349124A0968204609
:1025A4005B1A1360BDE838400BF02ABB01221A60A5
:1025B4000FF0D0FC03460B490B4A096860685B1AAC
:1025C4001360BDE838400BF01BBB00BFC487050097
:1025D40024F2030020600300149A0500785864A0D4
:1025E4007C5864A0845864A0805864A0F0B5436803
:1025F40005460B2B83B008D0122B0FD0052B10D01F
:1026040003B0BDE8F0400AF043BF194812F0C8FD1A
:10261400D5E90623D5E9040115F0E6FB002003B053
:10262400F0BD00680AF0E0F90446124E286801AAD9
:1026340069460AF0EBF9DDE9002337889B1A07FBAA
:1026440004F40133A40094FBF3F494FBF7F304259E
:1026540007FB1344E41B013421460122304611F0E8
:1026640057FF013D3C44F7D1002003B0F0BD00BF4B
:10267400A8A851FFA884030038B543680446052B75
:102684002FD0122B38D14FF07F4012F089FD2068F3
:102694000DF010FCB0F5006F37D040F601039842FE
:1026A4001DD1206808F0B2FE002853D04FF0FF304F
:1026B40012F076FDD4E905512A482369E269C91A62
:1026C4004388521BD21A038802EBD272C91A01EB57
:1026D400D171521049100132013111F019FF00205B
:1026E40038BD006808F092FED4E9041240B11E48D7
:1026F40011F00EFF002038BDBDE838400AF0E8B9FB
:102704001A4811F005FF002038BD206808F07EFE4D
:1027140020B34FF0FF3012F043FD154B15481968F4
:10272400154BE269002918BF1846D4E9053124691C
:10273400D21A091B03884488C91A121B02EBD272ED
:1027440001EBD171521049100132013111F0E0FE58
:10275400002038BD094812F023FDABE7074812F00A
:102764001FFDDAE7D46A0300C06B0300347803006A
:102774007C5864A05C6B0300586A0300A8A851FF4E
:1027840038B545681DB1BDE8384009F0C5B8044600
:102794000E21006808F068FA20684FF07F4108F0C5
:1027A40016FC284638BD00BF02680F2A05D01E2A31
:1027B4000DD00E2A04D00CF063BD084B1B681847DB
:1027C400C3685A6812B11B686E2B03D0704700228D
:1027D400C26070470122024B1A6070478C5864A093
:1027E400785864A010B542680446531F88B0132B70
:1027F40013D8DFE803F00A12121212121212124254
:102804001212121912120F0F0F0F284812F0BDFCEA
:1028140012F0C8F9002008B010BD002A39D008B061
:10282400BDE8104009F078B800231A46D4F810C067
:10283400C1696CF30F03D4F814C04FF0FF306CF38C
:102844001F430093A36963F30F0261F31F420192D4
:1028540012F0A6FC164812F0CFFC022012F036FD4E
:10286400206803A9142208F06FFB03A80E2269460E
:1028740014F085F9002008B010BD0E4812F090FC49
:10288400D4E90401D4E9062312F026FE002008B09E
:1028940010BD0E21006808F0E7F920684FF07F4171
:1028A40008F095FB002008B010BD00BFA8A851FF98
:1028B400008E0500C0C0C0FF10B584B00C4612F0F5
:1028C4009BFB01A811F028FF9DF80C30DBB92068B0
:1028D400012804D10E4A2360106004B010BD0D4CD1
:1028E4002368012B05D10A200FF036FB2368012B46
:1028F400F9D0074B1868A0F10100B0FA80F0400944
:10290400186004B010BD01230020236004B010BD82
:10291400785864A07C5864A02DE9F84F304B0546E4
:102924004FF4047118680DF019FB642D80464EDCD9
:102934000021404609F0B0FF2A46002140460AF033
:1029440092F80FF007FB0746DFF898B0264EDFF841
:102954009C90DFF89CA0DBF8003023B3D9F800404A
:10296400642DA4EB070416DC05200FF0F5FADBF860
:102974000030012B06D10A200FF0EEFADBF800300C
:10298400012BF8D03368012B13D0A542E3D8642D72
:1029940013DCBDE8F88F4046214609F07DFF404630
:1029A4000BF0FBFFE0E70FF0D5FADAF80030C41AB9
:1029B400D6E70023642D3360EBDD094B4FF404713B
:1029C40018680DF0CBFABDE8F84F0DF043BE044B88
:1029D4004FF4047118680DF0C1FA0DF022FEA7E758
:1029E4009C5864A07C5864A0785864A0805864A063
:1029F400845864A038B5037805460C463BB30130CF
:102A04002FF04AFC092C00F1010C25D901231A46A8
:102A140003EB83035B00B4FBF3F1092902F1010228
:102A2400F6D80021AB1803F80C1002442A442844B9
:102A34000C4DA5FB0413DB0803EB8301A4EB41015C
:102A4400303102F8011990421C46F2D138BD092CEC
:102A54004FF0FF309C46D9D8002105EB0C0301222E
:102A64005970E2E7CDCCCCCC002330B5384A87B0DE
:102A74004FF4B0711068CDE90133CDE90333059308
:102A84000DF06CFA9DF80430054623B10DF10500F4
:102A94002FF002FC431C44245A1E01A82D49024471
:102AA40002F8014F11F8014F0133002CF8D12A4AE2
:102AB400183311686B4403F8144C013101A8FFF773
:102AC40099FF9DF80430002B3CD00DF105031A4604
:102AD40013F8011B204601340029F8D102304FF0CD
:102AE4002E0C002400F118031C496B4482F800C02A
:102AF400096803F8144C01A8FFF77CFF9DF8043023
:102B04001BB322460DF105031C4613F8011B1046A6
:102B140001320029F8D102304FF02F0C0022104965
:102B240000F1180349686B4484F800C001A803F855
:102B3400142C0139FFF75EFF284601A909F020FA99
:102B440007B030BD012001AAC9E7012001ACE3E7C9
:102B54009C5864A028600300885864A0945864A01A
:102B6400A05864A02DE9F04F474E83B00DF034F91E
:102B74000BF020FF12F016F833891B0700F1818057
:102B84000FF05CFA07460FF061FA80463F4808F000
:102B940007FE3F4808F076FE3E4807F0E3FD0DF0DF
:102BA4001BF9A8F13D08A7F1500203460521009244
:102BB400CDF80480384A39480AF05CFEDFF8E0803A
:102BC4000024C8F800000DF007F907EBD7777F1051
:102BD400013F344A02210346CDE9007432480AF029
:102BE40049FE324B324D18600DF034FD314808F087
:102BF400D7FD314808F046FE304807F0B3FD4FF4E6
:102C0400B071D8F800000DF0A9F90DF023FD0DF016
:102C1400E3F80BF0C2FE12F0EFF901F035F8336877
:102C24002C601B6803B3DFF898B0DFF898A0DFF8D6
:102C34009890DFF89880264FCBF80040CAF80040FF
:102C4400C9F80040FFF710FF2A68336853F82230B0
:102C540098472B683268013352F82320C8F80040A3
:102C64003C602B60002AE7D100230D4A2B601068DA
:102C74000BF076FF0D4B186803B0BDE8F04F0BF076
:102C84006FBF11F02BF87BE7A05864A0E927000080
:102C94007D260000F1250000A92400008C600300BB
:102CA4009C5864A01124000054600300985864A048
:102CB400885864A085270000D5CA000095D4000078
:102CC4007C5864A0845864A0805864A0945864A07C
:102CD400905864A0037810B5F3B14FF0000C431C76
:102CE4001A4614780CF1010C0133002CF8D10B783E
:102CF4007BB10A460CF1FF3E86440EF8013F1446B0
:102D040012F8013F002BF8D1C1F1010161442144C3
:102D140042180023137010BD02469C46E7E700BF2B
:102D240010B5094C2368012B05D10A200FF014F9C2
:102D34002368012BF9D0054B186801280ABF00222B
:102D440000201A6010BD00BF7C5864A0785864A0AD
:102D54002DE9F84F144600286CD00D46002969D09F
:102D640006460FF06BF982460FF070F9DFF8089110
:102D740000EBD070B9F808300AEBDA7A4FEA600B4E
:102D840018074FEA6A0A74D4DFF8F0803C4FD8F889
:102D940000000DF05FFC38680DF043FC12F02CF9D4
:102DA400384B1B6898474FF0FF3012F0F9F90220B6
:102DB40012F08CFA344812F01FFA3C225146304685
:102DC40013F0A4FD314812F017FA14F0E7FCABEB52
:102DD4000002514628460A3213F098FD287830B193
:102DE400681C2FF059FA013000EB80000001FFF756
:102DF40093FD002326490A6801320A60254A1360BC
:102E0400254A1360254A1360FFF72EFEB9F80830EF
:102E1400E10703F0080318D443BBA207D8F8000065
:102E24001BD50DF0FEFB630738681BD5BDE8F84FD2
:102E34000DF0F7BBDFF84090E107B9F80830DFF890
:102E44003C800F4F03F00803E6D5002BE5D010F0CB
:102E540045FFA207D8F80000E3D40DF0FBFB63079D
:102E64003868E3D4BDE8F84F0DF0F4BB10F02EFF42
:102E7400D3E710F033FF87E7A05864A0985864A004
:102E84009C5864A08C5864A0C4D40300CCC1030033
:102E9400945864A07C5864A0845864A0805864A0AA
:102EA40030B5054683B0174812F0A6F9284614F049
:102EB400FDF804460FF0C2F81349031B0A8803EB1C
:102EC400D3735B100532043B9342C8BF00224FF01A
:102ED40000044B8800F1FF30D8BF12B20933ADF8BB
:102EE40004000220ADF80020ADF80630ADF8024031
:102EF40012F0ECF90E222846694613F040FE03B0A6
:102F040030BD00BFC4D4030038860300014B1B68E6
:102F1400184700BF8C5864A008B5064B1B6813B152
:102F2400054B186808BD0FF015F8044B1B68C01A50
:102F340008BD00BF7C5864A0805864A0845864A075
:102F4400014B58880A30704738860300F0B50024D6
:102F5400364B374A1C60374B374D1C60374B38496A
:102F64001C60384B384F1C60384B394E1C60394B51
:102F74008DB01C60384B14601C600C602C812C607C
:102F84003C60346011F018F83946344807F010FBFF
:102F94000CF022FF32490DF04CFA08F0E5F9214615
:102FA40001A808F09BFE214601A8069408F06EFED5
:102FB400012101A808F092FE012101A8069408F05D
:102FC40065FE284808F0ECFB274807F0CBFB2748B0
:102FD40008F058FC264809F011FB26480AF03CFC8E
:102FE400254808F035F9022012F070F9284600F05F
:102FF40041FE0FF043F80F2802DD2B895B070CD448
:103004001E4B1F4A33601368012B02D1FFF7AAFD40
:10301400FCE7FFF7A7FD0DB0F0BD10F0CDFF194B95
:10302400194AB0F5001F98BF1346EAE7985864A000
:103034009C5864A0885864A0A05864A0845864A0D4
:10304400945864A0805864A0905864A07C5864A0EC
:103054008C5864A0785864A0745864A0BD280000FB
:10306400AD2700008527000095D40000D5CA0000D4
:10307400ADCF0000F5BF00004DD90000692200006B
:10308400705864A0C52200008922000010B5FFF723
:1030940043FC00230649074C0A68074801320A60CA
:1030A400064A2360BDE8104003601360FFF7DCBCF0
:1030B400945864A07C5864A0845864A0805864A088
:1030C4002DE9F04F044600250331033A1FFA81FC31
:1030D400D94F09B212B29BB0521A029187FB02195E
:1030E400A9EBE27906931FFA89F3049303EB4303F4
:1030F40063441BB2A4B20593ADF82630E31C3E34FE
:10310400ADF824408C262C460299CC48CDF80CC04E
:10311400ADF82210ADF8203012F06EF84FF0FF3009
:1031240012F03EF801230E22249808A913F040FD62
:103134002A463F2108A811F02EFF4FF07F4012F0DD
:103144002FF808A812F0F4F908A812F012F8BDF943
:103154002430BDF92080BDF922709844DFF8E0E204
:10316400BDF926300DF1280C1F44BEE80F00ACE871
:103174000F00BEE80F00ACE80F00BEE80F00ACE89B
:103184000F009EE80F0008EBD87807EBD7778CE8A0
:103194000F004FEA680815F09BFD7F100420DFF84C
:1031A400A4A215F085FD4FEA8808BF00CDF81C9055
:1031B400204612F0C3F88146204612F0FDF88346FB
:1031C4001AAB03EB850353F8400C11F0E9FF06FB3F
:1031D40009F106FB0BF00029BCBF01F57F41FF316B
:1031E4000028BCBF00F57F40FF3004F5AF448C22BB
:1031F400643407EB214108EB204015F0FBFD5445F6
:1032040005F10105D4D14FF0FF354FF07F44DDF8CF
:103214001C9015F055FD002011F0ABFF284611F06D
:10322400BFFF069811F0E8FFDDF810B0BDF82230BA
:1032340008A95B440E228448ADF8263013F09FFCA5
:103244004A4608A8002111F0A6FE08A90E227E48CD
:1032540013F095FC4A4608A8002111F09CFE08A929
:103264000E22794813F08BFCDDF808A0059B08A812
:1032740000223F21ADF82630ADF822A011F08BFEDC
:10328400BDF92420BDF92210BDF92630BDF9200076
:10329400CDE900450FF080FA6C4FBDF82230384676
:1032A4005B44ADF8263011F07BFF08A90E22664876
:1032B40013F065FC4A46002108A811F06CFE4FF09B
:1032C400FF2011F06DFF624E08A90E225E4813F034
:1032D40056FC4A46002108A811F05DFE304611F064
:1032E4005FFF08A90E22584813F049FCDDF80C8052
:1032F4003F21D8440FFA88F8002208A8ADF822A08C
:10330400ADF8268011F047FE384611F049FF08A8B1
:1033140012F00EF94A46002108A811F03CFE4FF0C5
:10332400FF2011F03DFF08A812F002F94A460021DF
:1033340008A811F030FE304611F032FF08A812F050
:10334400F7F8284611F02CFF08A90E223E48ADF8E4
:1033540022A0ADF8268013F012FC4A4608A80021EA
:1033640011F019FE08A90E22374813F008FC4A464A
:1033740008A8002111F00FFE08A90E22324813F00C
:10338400FEFB08A800223F21ADF822A0ADF826805C
:1033940011F001FEBDF92630BDF92210BDF920005F
:1033A400BDF92420CDE900740FF0BEF94A4608A8FF
:1033B400002111F0F0FD4FF0FF23BDF92210BDF9FB
:1033C4002000BDF9242000930194BDF926300FF0AC
:1033D400ABF94A4608A8002111F0DDFDBDF92630FD
:1033E400BDF92420BDF92210BDF92000CDE9006407
:1033F4000FF09AF92846ADF822A0ADF8268011F016
:10340400CFFE08A90E22104813F0B9FB4A4608A8BB
:10341400002111F0C0FD08A90E220B4813F0AFFBE8
:103424004A4608A8002111F0B6FD0E2208A9064854
:1034340013F0A5FB00200DE056555555008E0500F0
:1034440004620300407E0500186103000000FFFFD2
:10345400FF0000FF11F08DFE1BB0BDE8F08F00BF30
:103464002DE9F04182B00EF0E9FD04460EF0EEFDC8
:10347400B4F5A07F4FF0050202DBEF28064606DC18
:103484002149224802B0BDE8F041FFF761BC204960
:103494001E48FFF75DFCFFF739FD01200EF0E8FC44
:1034A40007461A48FFF7FCFCFFF74AFD0546A9B298
:1034B400751B05EBD575A6F1F00801EB6505C8F39E
:1034C4004F08ADB2134BA4F5A07444F34F04414428
:1034D4006A1E2046009309B20F4B12B2FFF7F0FDAB
:1034E4000E4BA6EB0802204612B229B200930C4BF5
:1034F400FFF7E6FD4FF47A60FFF7C8FD384602B0E7
:10350400BDE8F0410EF0B4BC1C610300846103000B
:1035140098610300CC610300ACBF0300E8610300C1
:1035240054BE03002DE9F0470F46144605F044F855
:1035340002258246174811F05FFE284611F0C6FEA8
:1035440011F0CEFC00EBD0704610DFF84C905934EB
:10355400A7F10708C6F1070622464146484610F07F
:10356400D7FF3119384611F09BFD022011F09EFE61
:103574004FF07F4011F014FE284602350EF029F971
:103584000C2DA4F11404E7D15046BDE8F04705F032
:1035940013B800BFC4660300A06303002DE9F04F15
:1035A4000522B5B0A549A648A64CFFF7D1FB16AE37
:1035B400FFF7ACFCA448FFF773FC0FCC0FC60FCC8D
:1035C4000FC694E80300A4F1200720AD86E80300A9
:1035D4000FCF0FC50FCF0FC594E8030085E8030094
:1035E4000EF02CFD04460EF031FDA4F1AC0101EB0C
:1035F400D1717A384C1000EBD07041107B23B42287
:1036040020460494059104F0CFFF069010B935B01C
:10361400BDE8F08F06F09CFB00222AA902F001030A
:103624005B000132013B0A2A41F8043BF6D1002336
:10363400049D059C2946224618460893FFF772FF0D
:10364400FFF76AFC402302930123079305F1AA03C1
:1036540005F1AC020D93089B0392A21D0C921A462D
:10366400E91C61F30F02294604F17A0B65F30F0399
:10367400043164F31F436BF31F420E91CDE9113201
:10368400611C0B900F9105F1080004F17901DFF83A
:10369400BC8105F1020A1390109104F17E07FFF733
:1036A4003BFC034606981D4608930C9C04F084FFDB
:1036B400034667480A9311F073FDDDE9040104230E
:1036C400039A00935B4612F0E5FF624811F068FD2F
:1036D4000B9AAB1A0D9D099320462A4651460A348B
:1036E40011F070FEBC42F7D120AD2E460024DDF867
:1036F4004C9004EBD4735B10052C494656F8042B0C
:10370400C3F104004FEA640C0DDCABEB020E009233
:10371400012358F82C00AEF1060211F013FF013416
:1037240009F11009E5E70123ABEB020C00921C44FC
:1037340058F82000ACF1060211F004FF0A2C09F13C
:103744001009D6D10424119B14A81493129B159329
:1037540011F00FFD404811F023FD57200FF060FBDE
:10376400049EDDF814905B464946039A3046009463
:1037740012F090FF002011F0FCFC02980799321817
:103784000844109B0290DDE90E0111F0A5FEFF2014
:103794000FF046FB314811F003FD5B4649463046C5
:1037A400039A009412F0CCFB069C4A46314620460C
:1037B400FFF7B8FE204604F07DFF0A9804F0FCFEF3
:1037C4000298A0F109039A2B02D907994B42079357
:1037D4002AA8064616AC2B6854F8042B50F8041B90
:1037E40002F10A0C0B446345A2F10A0245F8043BBA
:1037F40001DC934202DA494240F8041CB542EAD1A2
:10380400FFF78AFB089BC01A1E2813DCC0F11F00B7
:103814000EF0A2FBFFF784FA43F69723099A9A4223
:1038240002DC00283FF43BAF069835B0BDE8F04F0A
:1038340004F052BE11F0E0FBECE700BF4462030069
:1038440070620300A46803007C6203008C620300BE
:103854004A2210FF774830FFD99100FF0094F3FF0C
:103864002DE9F04F674ACFB019AB07CA03C36649C5
:103874001A8030A877222EF06AFC00214C221DA861
:103884001C912EF08DFC0EF0D9FB05900EF0DEFBA2
:10389400B0F58C7F0546C0F2A781A0F178034FEA0A
:1038A400231BCBEBCB004FEA400C0CF13B030BEB9F
:1038B4004B0217934FEA8B03069353000BEB8B01D8
:1038C40007934FEACB0308934B00099393000A93A1
:1038D40002F13C030B9302F13B030C9301F13C0313
:1038E4000D9301F13B030E9300F13C030BEBCB076B
:1038F4000F9300F13B03109307F13C030BEB4106DC
:10390400119307F13B03129306F13C030BEB820482
:10391400139306F13B03149304F13C03159304F150
:103924003B034FEA4B0A1693052230A919A8FFF767
:103934000FFAFFF7EBFA4FF0FF3011F031FC334888
:1039440011F05AFC059B0C2203EBD371491030484B
:1039540012F0DCFF2F4811F04FFC13F01FFF044658
:103964000121AAEB040404EBD4740C413C34224638
:10397400294812F0B7FF04EB0A020121274812F08C
:10398400B1FF069B0121E218254812F0ABFF079B0B
:103994000121E218234812F0A5FF089B0121E21837
:1039A400214812F09FFF099B0121E2181F4812F0E1
:1039B40099FF0A9B0121E2181D4812F093FF1D484C
:1039C40011F01AFC0EF05AFB01461CA8FFF712F87E
:1039D40019491CA8FFF77EF9092010F093F9044651
:1039E400002840F02D810C211CA8A5F1190212F029
:1039F40079FFFFF791FADFF844908046CDE903BAE6
:103A0400E6E000BF1C69030028690300C4D4030076
:103A1400CC680300CCC10300D8680300DC68030051
:103A2400E4680300EC680300F4680300FC68030026
:103A340004690300149A05000C690300D34D621055
:103A4400FFF76EF9002840F0CC80FFF765FA4FF4D9
:103A5400FA63A0EB080089FB0012C517C5EBE21559
:103A640003FB150589FB0523EE17C6EBA3167B4B59
:103A740003FB065511F0C0FAB5F5FA7F00F3AA80EE
:103A84003C21C5EB052389FB0302DC17C6EB0626A4
:103A9400C4EB62147440059A04EB042304EB03247E
:103AA40003986F4BA2F13C052A460093019400F160
:103AB4003B0308460EF070FE3C20694BC4F1FF1630
:103AC40006F57F46CDE900360399049B01442A4656
:103AD4003B330EF061FE4FF0FF2A3C2004992A4646
:103AE4000144CDE900A40C9B0EF056FECDE900A6DE
:103AF400DDF818A02A460AF13B033C200B990EF08E
:103B04004BFE3C20574B0AEB00012A4600930194DC
:103B14000E9B0EF041FEDDF81CA0524B2A46CDE967
:103B2400003653463C200D993B330EF035FE3C20C5
:103B340051464D4F01442A46CDE90074109B0EF0C6
:103B44002BFECDE90076089F2A4607F13B033C2073
:103B54000F990EF021FE6FF0FF0A3C202A46391817
:103B6400129BCDF800A001940EF016FE099F2A4680
:103B740007F13B033C20CDE900A611990EF00CFEA1
:103B84006FF47F0A3C202A463918149B0194CDF81F
:103B940000A00EF001FE0A9F2A463B463C201399E2
:103BA4003B33CDE900A60EF0F7FD6FF47F4B3C20CC
:103BB40039462A460144169BCDE900B40EF0ECFDCB
:103BC4002A463C20CDE900B6179B15990EF0E4FD7A
:103BD40041F26F74FFF7A0F9A0EB0800A0427FF751
:103BE4002FAF4FB0BDE8F08FBD23C722BE21CDE972
:103BF4001632A923AA20CDE9143195239624CDE9C0
:103C0400123081238226CDE910346D236E27CDE94D
:103C14000E3659234FF05A0CCDE90C3778234FF068
:103C2400640ECDE90A3C50234FF03C08CDE9083E30
:103C340028234FF0140A4FF00A0BCDE9063873E637
:103C44001CA80A49FFF746F821461CA8FEF7D2FE35
:103C540007491CA8FFF73EF8C5E600BF18FCFFFFA4
:103C64000000FFFFFF0000FF808080FFC0570300BB
:103C74001469030004220D2302490381C0E90012E0
:103C8400704700BF000000102DE9F04389B06C4676
:103C94000026404DCDF817600FCD0FC42B68CDF82A
:103CA40013601A0C24F8023B2270CDF81A600EF04F
:103CB400C5F906460EF0CAF90446DFF8DC80FFF7C2
:103CC40025F9022011F002FB4FF0FF30750811F0C6
:103CD40067FADFF8C890404611F08EFA2946C4F31B
:103CE40019122F4812F012FEA700484611F084FA68
:103CF4003A19162704FB07F704EB420229469209F6
:103D0400284812F003FEBF09274811F049FA294652
:103D14003A46264812F0FAFD254811F06DFA07F1EB
:103D240012022946234812F0F1FD4FF0FF3011F042
:103D340037FA484611F060FA11F0F2F80146684685
:103D44002EF022F9C4EB441268462946920912F077
:103D5400DDFD2622184804FB02F203889209F11AB9
:103D6400490810F0D5FB4FF0FF3011F019FAC4EBFD
:103D7400C404404611F040FA2946C4F3D9020F485E
:103D840012F0C4FD41F28830FEF7C6FD09B0BDE86B
:103D9400F08300BF386A0300C4D40300CCC103001D
:103DA400A0690300A86903002288FFFFE0690300FB
:103DB40020930500086A0300EC930300286A0300BB
:103DC400002330B589B0CDE90133124C124D039371
:103DD40006E06422286804A92AF01CF9034630B1DD
:103DE4002378012BF5D10020207009B030BD079A4B
:103DF400012A09D04FF0FF32019201A802928DF8F6
:103E04000C3010F0BDFCEBE7059B01931346069ABA
:103E1400F3E700BFB85864A0BC5864A02DE9F04192
:103E24004FF42B18424C434A2368434F19783E6899
:103E34001970236805461360404B84B0C3F80080B2
:103E440056B13F4C2368D3B13E4803A92BF05DFA29
:103E540068B304B0BDE8F08119F0BAFB4FF49612D0
:103E640031462EF09DF92068424631462EF098F9ED
:103E74004FF0FF33324C3B602368002BE4D1042025
:103E84000CF0F4FA10F0C0FE4FF07F400CF00EFB83
:103E9400022013F091FD01200BF01AFB4FF0FF33C9
:103EA400284803A923602BF030FA0028D1D1264EEC
:103EB40010213246012029F0BFFF28B103982BF0CE
:103EC4003BFA04B0BDE8F0813246204920482BF08B
:103ED40033FE18B1306829F0D4FFEFE704220092D2
:103EE4001C4A034601921C494FF480621B482AF085
:103EF4004DF970B90A22A86819492DF08FFF98B1BD
:103F04000123184D2B70012029F036FE2B78012B4C
:103F1400F9D00E4B316818682BF07BFE10F0FAFED6
:103F2400002323603B60D5E7FFF710F8E8E700BF04
:103F3400100000108C7E64A0AC5864A0887E64A03D
:103F4400B45864A030580300BC5864A0C05864A09E
:103F540044580300B05864A084F30300C53D000036
:103F640030600300B85864A04FF0FF32014B1A6070
:103F7400704700BF505964A02DE9F04F002593B05D
:103F8400099022F0E3FF29460BAA09982BF0E1F9E6
:103F94004FF4F8430221079340F2DF1347F6E07B26
:103FA400CDE9033140F27F23454EDFF818A14FF4E9
:103FB400F072CDE905B502934FF420710B9B3046A6
:103FC400CDE9005521F06AFF5146304622F0A6FAA9
:103FD400304622F0A5FA0346DFF8EC901F224C4647
:103FE40030463A49099322F0AEFAF3695946ADF8DE
:103FF4003430336A30460EAFADF836300C9521F0CC
:1040040088FF5146304622F089FA39460CA84FF40D
:10401400B47223F0F7F9494638464FF4B472DDF828
:1040240038B0BDF83EA023F00DFA34F860390DF134
:104034004008063B41463846ADF83C3080222B46CA
:10404400CDF838B0ADF83EA023F0B6F998E80300F7
:10405400099A87E8030042322B464146384692B219
:1040640023F064F9109B1A4A49F8603CC3F30F43E8
:104074004033E380174B2146C4E90223164B3046F4
:104084002361BDF84430C4E90655A380A56222F03B
:1040940093FC2946304621F03EFFB4F86620B4F87C
:1040A400643000923046B4F86220B4F8601021F015
:1040B4009CFE22F05FFFA56613B0BDE8F08F00BF41
:1040C400605964A0445C0600305964A090F3030076
:1040D400E85C03006D3F0000841C050010B5124C21
:1040E40082B02046002121F016FF2046002121F055
:1040F40010FF2046002121F011FF0C4A0C4B1268DE
:104104001968121202F109030912204600930A3AAF
:1041140001F109030A3921F068FE0021204602B0AA
:10412400BDE8104021F0FABE605964A0585964A05B
:104134005C5964A000232DE9F04FB74CB74FB4F895
:104144006410B4F86020DFF8D8820A445210B4F83E
:1041540066103A60B4F86220B24D0A445210B24E6E
:104164008DB0C8F8002010212A460120C4E91D336F
:10417400C4E91B333360E36729F05EFE10B10DB070
:10418400BDE8F08FA949AA4A286829F099FE2A4671
:10419400A84804A92BF0D0FC28B1286829F071FEA6
:1041A4000DB0BDE8F08FA44803A92BF0AEF820B100
:1041B400296804982BF02DFDEFE7014605AA039822
:1041C4002BF0C7F89D4806A92AF06CFA18B1039899
:1041D4002BF0B2F8ECE79A4906982AF04FFA002837
:1041E400F5D10398FFF7C8FE29F080FF33688146B4
:1041F40033B1ECE7142029F0BFFC3368002BE6D17F
:10420400002321462A688F4822F0D0FD824629F0F7
:104214006DFFCB468146BAF1000FEBD15845E9D08A
:10422400DFF81CB26422DBF8000009A903685B69AB
:104234009847824629F05AFF834A13681060BAF1FE
:10424400000FD7D1626F002A00F0AF80C21A0A9B18
:10425400216F09985B1A0A93E16E02FB03F3401A7B
:10426400099002FB00F0002BBCBF03F57F43FF3332
:10427400A16F00284FEA2343B8BF00F57F40C3EB8A
:10428400C35301EB4321B8BFFF30E36F0014B1F512
:10429400963F03EB402380F285806C488142B8BF8F
:1042A4000146B3F5963FA16779DA68488342B8BFFF
:1042B400034601FB02FB03FB02F2DFF894C13868FA
:1042C4008CFB0BAE8CFB02ACD217C2EBAC1A4FEAE0
:1042D400EB7BB4F864C0CBEBAE1BACF10B0CD8F8A1
:1042E40000208344BBEB0C2FE36792444FEA0C2E6F
:1042F40005DDF34601EBD17149104942A167B4F8D9
:1043040060100B31BBEB012F4FEA012C06DAE346B8
:10431400A16F01EBD17149104942A167B4F866104D
:104324000B39BAEB012F4FEA012C05DDE24603EB12
:10433400D3735B105B42E367B4F862300B33BAEBC0
:10434400032F4FEA032106DA8A46E36F03EBD373A4
:104354005B105B42E36758457ED0A36E002B58D1B7
:104364004FEA2B230A3B07934FEA2A230A3B08AA66
:1043740007A934480893C7F800B0C8F800A021F092
:10438400DCFD304823F0A0F8BDF82020BDF81C1057
:10439400304822F079FE4FF0FF33A3662AE74FF44A
:1043A400963386E74FF496317BE7CDF804904FF0CF
:1043B400100A9146E26622670A2029F0DDFBDBF849
:1043C40000006422036809A95B699847D4E91B3299
:1043D4000999BAF1010A0B440A99E3660A4422676F
:1043E400EAD1002B1046B8BF0F331B114A46E366CF
:1043F4004FF0FF330028B8BF0F300011DDF80490F0
:1044040063670192206729F071FE0F4B019A1860CF
:104414001DE7FFF763FEA3E7D05864A05C5964A0CE
:10442400585964A0C85864A0505964A0B4F3030058
:10443400C0F303004458030030580300F45603004B
:10444400545964A0605964A0C45864A000D4FEFF09
:10445400D34D621044DC040052457FF47EAFC9E6BC
:10446400802330B4034D044C05600C60136030BCF1
:10447400704700BF185E64A0185C64A0802330B449
:10448400034D044C05600C60136030BC704700BFE2
:10449400C05B64A0C05964A04FF0FF3283699A6680
:1044A400704700BF2DE9F047A8B0002108AA0446D0
:1044B40040682AF04EFF22F049FD052029F05CFBFC
:1044C400002347F6E0710222CDE905134FF4F840CA
:1044D40040F27F21049240F2DF1204F10806CDE994
:1044E4000212CDE900334FF4F072089B4FF42071AF
:1044F4000790304621F0D2FC30466B4922F00EF88A
:104504006A4B04F16C071B68002B00F094800621B1
:104514004FF4FD602268664B12681B68CDE90110F8
:10452400032111A8009163492DF006FD1F22304696
:1045340011A922F008F80021304621F0ECFC3046A5
:1045440021F0EEFF4FF00008636A0546ADF828300D
:10455400A36A122109A8ADF82A30CDF8248022F0EC
:10456400B9FE2368D3E90192002A6BD13C466FF46B
:104574009971BDF82630BDF82A2009A8D21A0A4438
:10458400521B0023C2F34F020FA922F0ADFE4FF0DD
:104594000208D9F80030002B41D0322380220BA925
:1045A40009A822F0A1FEBDF82430BDF828200FA9E7
:1045B400D21A6FF4F1731A44C2F34F0200230BA80A
:1045C40022F0D6FE09F1100504F1600A55F8103CFA
:1045D400A946002B64D0322380220DA90BA822F017
:1045E400C7FE55E90401002355F8082CC4E902016B
:1045F400DDE90D10226155F8042CC4E90010A26114
:104604002034A24505F1100544F8043C24F80C3C80
:10461400DCD1B8F1010F02D04FF00108B9E7002353
:1046240039463046A36022F0C7F92BF029F890B33D
:1046340028B0BDE8F08723681F223046196821F0AE
:1046440082FF78E705F14202022392B20BA909A87E
:1046540022F06CFE80220BA80DA922F0F3FEBDF817
:104664003430C4E921487F33A4F87030BDF83630C3
:10467400A4F880803F33A4F872300D9B8C3444F846
:10468400203C0D4B44F8183C0C4B44F8143C0C4BA8
:1046940044F8103C6BE722F075FC28B0BDE8F087C5
:1046A400A5F11009B5E700BF445C06006C5864A08E
:1046B400685864A0C4F30300E85C03009D44000050
:1046C400841C0500F0B5054683B04FF4B6702AF09B
:1046D400DDFF1021044601AA012029F0ADFB08B139
:1046E400002301935CB14FF4B672002120462DF0F3
:1046F40057FD019B256023B920462AF0CFFF03B064
:10470400F0BD69461C4801AA2BF016FA18B10198AD
:1047140029F0B7FBF0E71948211D2AF0F6FD20B176
:10472400DDE900012BF075FAF1E72046FFF7BAFE48
:10473400A36E93B904F1080704F16C06EB6813B196
:104744009847C30714D44FF0FF3331463846019AD3
:1047540022F02CFB40B1A36E1BB160682AF0ECFD83
:10476400DEE72046FFF79EFEA36E002BE6D0F4E7BB
:104774002046FFF797FEE6E744580300305803004D
:104784008069FFF79FBF00BF4FF0FF328369C3F812
:10479400E420704730B50E4B0546196883B009B163
:1047A40047F6E0710B4C21F0B6FB284647F6E07162
:1047B40021F0AFFBA38862882188E4882846013C65
:1047C400013B00940132013121F00FFB03B030BDF5
:1047D400785E64A07C5E64A0D0B58EB0044603A964
:1047E4001C482AF092FD1C4A1368013329D04FF467
:1047F400F0704FF0FF31009011604FF47A7041F285
:10480400883142F2107647F23057144B76220A93DD
:10481400134BCDE904010B93124BDC210C93124B87
:1048240012480D934FF42073CDE9066722F084FEFD
:1048340004A903982AF0BEFEA069FFF7ABFF0EB0EF
:10484400D0BD002313602AF0F1FEA069FFF7A2FF98
:104854000EB0D0BD30580300785E64A06D750200C0
:104864002976020075770200E9770200A4F90300B3
:104874002DE9F04F4FF48A7097B02AF007FFDFF864
:104884007090C9F80000B0B14FF48A720021044658
:104894002DF086FC4FF0FF3310210120154AC4F897
:1048A400043129F0C9FA48B1D9F800002AF0F6FE1B
:1048B4000023C9F8003017B0BDE8F08F0D4A0E4848
:1048C4000CA92BF039F920B10A4B186829F0D9FA50
:1048D400EAE7D9F80010094860312AF016FD0646C7
:1048E40070B1044B0C9819682BF093F9ECE700BFF6
:1048F400745E64A0705E64A04458030030580300E2
:10490400D9F80030012503F5887203F58671186E15
:104914002AF058FDD9F8004022F018FB314604F182
:1049240064030DAA206E09932AF013FD4FF4F84393
:1049340047F6E0710793022340F2DF10CDE904311A
:1049440040F27F234FF4F072CDE902304FF420712E
:104954000D9BCDE900660696204621F09FFAD549C5
:10496400204621F0DBFD204621F0DAFD1F22D2494A
:10497400C4F80001204621F0E6FD47F6E071204628
:1049840021F0C7FA3146204621F0C5FAE3690DF15A
:10499400380BADF83C30236A082158460E96ADF822
:1049A4003E3022F097FCD4F80031584646339AB290
:1049B40010A905230DF1480A22F0B8FC0DF1400CB2
:1049C4009CE8030080228AE80300052361465046E0
:1049D40022F0CEFC10AB1846294622F07BFCBDF831
:1049E4004030109A7F33A4F86830BDF842306266D4
:1049F4003F33A4F86A30B14B9AE80300E366B04B46
:104A0400C4E91F462367AF4B6422636710AB83E896
:104A140003001846514622F015FDBDF84A20BDF8A2
:104A24004E30DFF8A4829B1A03EBD37343FA05F2EA
:104A34000632414692B20523504622F077FCB8F87C
:104A4400003020460A9321F06BFD0A9B9F4F1033E0
:104A54000344A8F80430B8F8023020460A9321F041
:104A64005FFD6FF4F17C0A9B5146103303449BB203
:104A7400A4F88A30A8F80630D8F800305846C4F8AC
:104A84008430BDF83820BDF83C30C4E927469B1A71
:104A94006344A7FB0323B8F80420C3F34F03A4F82B
:104AA40088208B4AC4F89460C4F88C20894A0A93FD
:104AB400C4F89020324622F05BFC0A9B54225846EC
:104AC40004F1F00122F054FC042204F1F80104F191
:104AD400F00022F0B7FC142104F1F80022F0DEFB10
:104AE40033464FF4C8725146584622F041FC4FF405
:104AF4009072504604F1E80122F084FC20466D498E
:104B040021F00CFD2946204621F074FD3146204653
:104B140021F004FA47F6E071204621F0FAF904F195
:104B2400F00103C98BE80300BDF83E302046BDF810
:104B34003A20BDF838100093BDF83C3021F055F907
:104B440004F1F80003C88BE80300BDF83E30BDF85B
:104B54003A20BDF8381020460093BDF83C3021F0CF
:104B640044F92046FFF716FE2046B8F8006021F00D
:104B7400D7FCB8F802308219574920460833163258
:104B840021F091FC00264FEA0528A7FB08384FEADC
:104B9400480808F4F8484146204621F0BAF9B4F828
:104BA400EA20B4F8E810204631442A44013621F0C2
:104BB40007F8B6F5C87FEED10135612DE2D14FF08B
:104BC4000108424E00254FEA0827A6FB07373F0994
:104BD40007F478773946204621F09BF9B4F8EA20A7
:104BE400B4F8E8104244294420466032013520F0EC
:104BF400E7FFB5F5C87FEDD108F10108B8F1610F01
:104C0400E0D14FF00108314E00254FEA0827A6FBFA
:104C14000737C7F344273946204621F07AF9B4F818
:104C2400EA20B4F8E810424429442046C032013551
:104C340020F0C6FFB5F5C87FEDD108F10108B8F141
:104C4400610FE1D1204647F6E07121F062F9204678
:104C5400099921F0B1FE22F08DF9D9F8004005E060
:104C6400D9F80040D4F80431002B6AD1D4F8E430E8
:104C7400002B62D1194B4FF4FA725146186829F08F
:104C8400C9F904460028EBD1139BD9F800000E9310
:104C9400149B594610AA109321F044F9159BD9F896
:104CA4000000012B1CD0524600F1640121F0D6FE15
:104CB400D6E700BF445C0600F0F30300E85C0300A1
:104CC4008D470000841C05007C5E64A0ABAAAAAAE0
:104CD400505D0300DD4700000CF40300705E64A027
:104CE400109BB0F8F2209A42DDDCB0F8F620934233
:104CF400D9DC0E9AB0F8F0109142D4DCB0F8F4107C
:104D04008A42D0DCB0F8FE20934272DCD0F8101155
:104D1400D31A01FB03F3B0F8FA100132521AB3FBB1
:104D2400F2F1C0F80C11006E2AF03EFB4FF0FF3395
:104D3400D9F80000C0F80431B5E7206E2AF0FCFA77
:104D4400CFE50121204621F055FCB4F8F830B4F841
:104D5400FE50B4F8FA7004F58872206E04F586717A
:104D64000993B4F8FC802AF02DFBD4F80C31EA1B2B
:104D740002FB0333D4F81021B3FBF2F3D4F8082177
:104D8400EE1A96422FD0099B0F3B0A9308F10F03AA
:104D94000B9382BB2046012121F0C0F8204647F640
:104DA400E07121F0B6F843463A4620460999009549
:104DB40021F01BF820460021C4F8086121F0AEF868
:104DC400204647F6E07121F0A4F82046002121F0A6
:104DD400A2F8DDE90A13D4F808212046541D0094F2
:104DE400053A21F002F80023D9F80040C4F8043150
:104DF4003CE7214695E72046002121F08FF8204624
:104E0400002121F086F82046002121F084F8D4F80E
:104E140008212046511D009108F10F030A99053A13
:104E240020F0E3FFB6E700BF4FF4F843F0B51546B2
:104E34000C460646002783B0019302F10803009351
:104E4400083A01F10803083922F000F9AB1D304695
:104E5400CDE90037AA1FA31DA11F22F0F7F847F6DA
:104E6400FF7C2B1D304600932A1F231D211FCDF8E4
:104E740004C022F0EBF8AB1CCDE900373046A31C8C
:104E8400AA1EA11E22F0E2F803B0F0BD10B5A2B034
:104E9400384808A92AF039FA08B122B010BD0446EE
:104EA40008982AF074FA4FF4807108982AF07CFA72
:104EB40022F04CF8214609AA08982AF04AFA4FF43D
:104EC400F84047F6E072022340F2DF11CDE90044D6
:104ED400069440F27F24CDE904320790099B4FF4F5
:104EE400F072039102944FF420710AA820F0D6FFC7
:104EF40021490AA821F012FB1F2220490AA821F007
:104F040022FB0AA821F00CFB1D4B84B21B784FF442
:104F14002072012B234621D01A490AA821F0CFFA86
:104F24004FF42072184963000AA821F0C8FA4FF41C
:104F34002072C4F1780315499B000AA8A4EB8404E9
:104F440021F0BDFA4FF4207211490AA804F5F07358
:104F540021F0B5FA22F00EF822B010BD0D490AA8CE
:104F640021F0ADFAC4F178034FF4207207499B0095
:104F7400E3E700BF30580300445C060020F403005C
:104F8400885E64A0A0F40300C4F4030060F403008A
:104F940084F4030038F403002DE9F04F4FF0FF3799
:104FA40000238B46144695B003900797864A5846CB
:104FB40013702AF079FD24B9844B1B68032B00F08D
:104FC400DB80FFF763FF00230493804BDFF800824C
:104FD40002930DF120090025D8F80430D8F80820F0
:104FE4000398069299B292B20593AA46FFF71CFF62
:104FF4002E462F46494658462AF0F2FC044670B91C
:10500400089BD8070FD4322028F0B6FD49465846ED
:105014002AF0E6FC4FF0FF3504460028F0D0322099
:1050240028F0AAFDE6E7002DF9D0DDE909233220B6
:105034000AF1010A17441E4428F09EFDBAF1040F38
:1050440040F0978042464946BF08B608584609973B
:105054000A962AF043FD029B049F1E1D99E80F0047
:1050640086E80F00594B7D1C1D60FBF777FABDF8ED
:105074001820BDF8141002F108030093039801F1FD
:1050840008030194083A083921F0E0FF1FB96DE0E4
:10509400322028F071FD494658462AF0A1FC002828
:1050A400F6D1089BD907F3D4029B032D03F1100317
:1050B40008F11008029301D004958CE758462AF0B1
:1050C40000FD0546434F0DF150080CACD7E9016AC9
:1050D40003981FFA8AF2B1B2FFF7A6FE214658469A
:1050E4002AF07EFC0028F9D12368DA07F6D502906D
:1050F400FBF734FA02981FFA8AF2B1B202F10803FC
:1051040001900093039801F10803083A083921F04B
:105114009DFF02E0322028F02FFD494658462AF030
:105124005FFC0028F6D1089BDB07F3D44FF496709C
:10513400103428F021FDA04507F11007C6D10D9BBE
:10514400A3F23623302B2ED965B9079B3BB9002334
:105154001E4A936401F060FB15B0BDE8F08F4FF078
:10516400FF33079301234FF0FF341FE7FFF78EFE51
:1051740091E74FF0FF353DE7154A174958462AF0A5
:10518400ADFC164A164958462AF0A8FC5846154A5A
:1051940015492AF0A3FC58462AF093FC0028D6D0DF
:1051A40000230793DEE70E9BA3F5CB73302BCBD8FC
:1051B400119BA3F59473302BC6D8129BD83B302B8C
:1051C400C2D8002DC3D0EBE7885E64A0607364A0EE
:1051D40008F50300E8F40300647364A018F5030001
:1051E400747364A028F50300847364A030B5194D6A
:1051F400044685B010212A46012028F01DFE10B176
:10520400002005B030BD2A46134801A92AF094FCB9
:1052140028B1286828F035FE002005B030BD0F48BD
:1052240002A92AF072F820B1296801982AF0F1FC49
:10523400EFE703AA014602982AF08BF8084B01997C
:105244009B6C0398002B0CBF22464FF0FF32FFF7F4
:10525400A3FEE9E7845E64A04458030030580300C9
:10526400607364A010B586B00022124801A92AF028
:1052740063FCD8B90524019802A92AF0B1FB02986D
:1052840010F0010010D0322028F076FC013CF2D15D
:105294004FF0FF34002101982AF0BBFC0A2028F0CB
:1052A4006BFC204606B010BD0446F3E74FF0FF3414
:1052B400F7E700BF445803004FF0FF30FFF796BFF5
:1052C400F8B50121002029F0F9FB0121084629F055
:1052D400F5FB4FF4005027F0B9F802270122002112
:1052E4004FF4002540F25554074BDFF820C0084E18
:1052F40008481A60C3F814C0196137601D635C6301
:1053040019600260F8BD00BF004004401D001C008D
:1053140000C003408C5E64A038B50B4B05461B6887
:105324000C4673B1094A906810F0010008D00121BD
:10533400074B1960936A2B600423D16A2160536080
:1053440038BDFFF7BDFFEDE78C5E64A0004004406C
:10535400905E64A038B5074B05461B680C462BB11C
:105364002122054B9D63DC635A6038BDFFF7A8FF1B
:10537400F6E700BF8C5E64A0004004402DE9F041D4
:105384004F4C2388312B84BF002323800C2849D021
:105394000A281DD00D2855D04A4E082833885AD0E3
:1053A4002588494905EB450202EB02120A44D05410
:1053B40001339BB2322B338004D96B1C9BB2312B4B
:1053C400238057D8BDE8F041404B186828F081BCD1
:1053D40027887B1C9BB2312B2380F3D93A4901F6F1
:1053E400C3180B4633310A4601F1300ED2F800C01F
:1053F40056689568D06810327245C3F800C05E6084
:105404009D60D86003F11003F0D110889278414573
:1054140018809A70E5D1332220212D482CF0C0FE4B
:105424002780CFE740F6F612202127482CF0B8FE5B
:105434000023244A23801380244BBDE8F0411868DC
:1054440028F047BC0022BDE8F0411E4B1A801F4BD8
:10545400186828F03EBC002BB4D0202022881A49BA
:1054640002EB4202013B02EB02129BB20A4433807C
:10547400D054A7E701F6C3180A4633310B4601F1AD
:1054840030071E68D3F804E0D3F808C0D868103396
:10549400BB421660C2F804E0C2F808C0D06002F152
:1054A4001002EED118889B78414510809370E3D1A7
:1054B4003322202106482CF073FE258082E700BFAA
:1054C4009C5E64A09E5E64A0986864A0985E64A0DC
:1054D4005B7264A02DE9F84FDFF898B0DBF80000A8
:1054E40008B9BDE8F88F4FF0FF3128F0CDFB224911
:1054F400224821F013F80021204821F07BF80021F4
:105504001E4820F00DFD4FF478711C4820F001FD79
:105514004FF01408DFF868A0DFF86890174F4E4684
:105524005546C02415F8012F16F8013F9A420AD0B7
:1055340021464246384620F084FE3846297820F039
:10554400F1FE2B7833700834B4F5167FEAD108F1F4
:105554000808B8F5D27F0AF1330A09F13309DED11C
:105564000648012121F046F8DBF80000BDE8F84FB9
:1055740028F0AFBB985E64A0344A0600907264A021
:10558400976864A09F5E64A02DE9F0474FF000087F
:1055940081468CB021F0DAFC414609AA484629F03C
:1055A400D8FE4FF4F8430221079340F2DF1347F685
:1055B400E07ACDE9033140F27F232B4F4FF4F072B0
:1055C4004FF4207102933846099BCDE905A8CDE933
:1055D400008820F063FC3846244920F09FFF1F22F6
:1055E4003846234920F0AFFF5146384620F091FC5D
:1055F4001A234FF4A5723846CDE90A320AA90BAA38
:1056040020F09BFCBDF82C20BDF828101948452437
:105614004546194E21F038FD2146384620F084FFD6
:1056240016F8014F0544002CF6D16A0840F28B139A
:10563400C2F159020C48104920F035FF21464FF4BD
:10564400D274094820F067FC4FF418731222BE216B
:105654000548009420F0C9FBFFF73CFF21F08AFCC9
:105664000CB0BDE8F08700BF907264A0445C0600F3
:1056740058F50300841C0500E85C03002DE9F043A1
:1056840040F6F61283B000212E482CF089FD40F636
:10569400F61220212C482CF083FD00232B4C2C4E99
:1056A4002C4D22461021012033802B8028F0C4FB8E
:1056B40010B103B0BDE8F0832246274801A92AF0BF
:1056C4003BFA28B1206828F0DCFB03B0BDE8F08386
:1056D4006946224829F019FE58BBDFF88480D8F8BF
:1056E40000305BB30098FFF74FFF4E264FF00009E0
:1056F4001C4F02E017F8016F86B1D8F800000028AB
:10570400F8D04FF0FF3128F0BFFA2B883046322B07
:1057140088BFA5F80090FFF731FEEBE7FFF7DAFE4C
:10572400FAF740FF4FF4FA6028F026FA009829F0BF
:1057340003FE216801982AF06CFAC3E7404628F07A
:1057440029FACFE7A05E64A0986864A0945E64A080
:105754009C5E64A09E5E64A044580300305803001D
:10576400985E64A080F503000122014B1A60704723
:10577400F87264A02DE9F04F054689B0624829F01B
:1057840085FF01218246614820F0C8FB47F6E0719D
:105794005E4820F0BEFBEA88AB8800926A882988BC
:1057A4005A4820F022FB0321594804AA29F026F87C
:1057B40000284FD113274FF0010940F25F28AB4670
:1057C400524ECDF80CA05546CF24304606AA05A962
:1057D400CDE9054720F0B1FB01342B463046069A4B
:1057E4000599CDF8009020F0A9FC444505F1020587
:1057F400EBD140F2A312013797420AF5487AE2D17D
:10580400DDF80CA0404C51462246049807AB5D4697
:1058140029F069F8C0B9049829F02AF801213B4815
:1058240020F07CFB0021394820F073FBE888AB882A
:105834006A8829880090354820F0D7FA504629F024
:105844002DFF09B0BDE8F08F079BA342E3D0FAF720
:10585400A9FEE0E7064603212E4804AA28F0CEFF5D
:1058640004460028A6D04FF416222B4F3968881816
:1058740021F008FEFAF796FE0021244820F04EFBA2
:105884000021224820F047FB47F6E0711F4820F032
:1058940040FB222312220093CE2140F25F231B48B7
:1058A40020F0A3FA092E4FF014034FF0D0021CD0BD
:1058B4000D2E07D10D2C0CBF18491949134820F09F
:1058C400F2FD03E01749114820F0EDFD01210F48D6
:1058D40020F024FB4FF4FA6028F04EF94FF416221E
:1058E4003868811821F0CEFD98E70D2C07D0092CDB
:1058F4000CBF0D490D49054820F0D5FDE6E70C49DC
:10590400024820F0D0FDE1E700E20400FC7264A04C
:1059140098F50300A4F503002C0400101CF6030002
:105924003CF6030058F60300D4F50300FCF503002D
:10593400B0F503002DE9F04F04468BB07D4829F003
:10594400A5FE824601217C48CDF80CA020F0E6FAA1
:1059540047F6E071784820F0DCFAE288A3880092E8
:1059640062882188744820F040FA0121734806AA0D
:1059740028F044FF814640B10121714806AA28F06D
:105984003DFF0546002840F08E806A4E039932465A
:10599400069809AB28F090FF0546069828F068FFA2
:1059A400002D41D14FF0130B4B4640F25F27D946EF
:1059B40040F2A3189B46CDE90454DDF80CA05E4EDA
:1059C400CF24AAF10205304608AA07A9CDE9074960
:1059D40020F0B3FADDE90712304635F8023F01340E
:1059E40020F0B6FABC42EED109F10109C1450AF52D
:1059F400487AE5D1D946DDE90454D5B901214E48A8
:105A040020F08CFA00214C4820F083FAE088A38827
:105A1400628821880090484820F0E7F9039829F02B
:105A24003DFE0BB0BDE8F08F099BB342BAD0FAF744
:105A3400B9FD4FF416222225424E3168881821F010
:105A440021FDFAF7AFFD00213B4820F067FA002161
:105A5400394820F060FA47F6E071374820F059FAE7
:105A640040F25F231222CE213348009520F0BDF985
:105A7400B9F1090F4CD0B9F10D0F42D01423D02243
:105A840031492D4820F00FFD01212B4820F046FA22
:105A94004FF4FA6028F070F84FF416223068811839
:105AA40021F0F0FCAAE74FF41622264E316888183C
:105AB40021F0E8FCFAF776FD00211F4820F02EFAC9
:105AC40000211D4820F027FA47F6E0711A4820F01B
:105AD40020FA222312220093CE2140F25F2316489B
:105AE40020F083F9B9F1090F19D0B9F10D0FC5D11F
:105AF400092D06D11423D02214490F4820F0D3FCD9
:105B0400C2E71423D02212490B4820F0CCFCBBE797
:105B14001423D0220F49084820F0C5FCB4E70D2D0A
:105B2400F6D0092DF4D11423D0220B49024820F0D9
:105B3400BAFCA9E700E20400FC7264A098F5030033
:105B4400A4F503002C04001000F70300DCF60300A6
:105B5400BCF6030068F603008CF6030010B51C467F
:105B6400A0F1CF03B3F5C87F82B015D2A1F113031E
:105B7400B3F5C87F10D2A2F1CF03B3F5C87F0BD21F
:105B8400A4F11303B3F5C87F06D2134600940A4662
:105B94000146024820F026F802B010BDFC7264A051
:105BA40010B5124A82B013780133DBB2052B13709F
:105BB40016D80F4A32F8131051240E4B0E48198090
:105BC40020F0A9F947F6E0710B4820F0A2F9A123CF
:105BD400122222210848009420F007F902B010BDD7
:105BE400002347F6FF711370E6E700BFF47264A068
:105BF40028F7030014000010FC7264A0F0B58BB009
:105C040009AA002129F0A5FB002521F09FF947F6F8
:105C1400E0764FF4F841022240F2DF1340F27F278E
:105C2400194CCDE90651CDE90426CDE900554FF4D0
:105C3400F07203934FF42071099B2046029720F0E1
:105C44002DF92046114920F069FC1F2220461049F5
:105C540020F079FC3146204620F05BF920460D49BE
:105C640020F0AAFE294640F2A315204620F053F95D
:105C740040F25F231222CE212046009520F0B5F891
:105C840021F078F90BB0F0BDFC7264A0445C06000E
:105C94000CF703004CF7030000232DE9F04FB04C40
:105CA400B04D91B02246102101202B6028F0C4F899
:105CB40010B111B0BDE8F08F2246AB4808A929F015
:105CC4003BFF28B1206828F0DCF811B0BDE8F08F64
:105CD400A64807A929F019FB20B12168089829F0E2
:105CE40098FFEFE70BAA01460646A14F079829F053
