:1000000010090010010300001B0300007C03000026
:100010001D0300001F03000021030000FBE3FFEFAE
:10002000000000000000000000000000C995010071
:1000300025030000000000002196010065960100E4
:10004000855F0100955F0100A55F0100B55F0100BC
:10005000C55F0100D55F0100E55F0100F55F0100AC
:100060000560010015600100256001003560010098
:100070004560010055600100656001007560010088
:100080008560010095600100A5600100B560010078
:10009000C5600100D5600100E5600100F560010068
:1000A0000561010015610100256101003561010054
:1000B0004561010055610100656101007561010044
:1000C0008561010095610100A5610100B561010034
:1000D000C5610100D5610100E5610100F561010024
:0400E00005620100B4
:0402FC00FFFFFFFF02
:10030000DFF88CD023488047DFF884D0224880472C
:1003100022482349016000F045B82FE02EE02DE08F
:100320002CE02BE02AE029E028E027E026E025E089
:1003300024E023E022E021E020E01FE01EE01DE0B9
:100340001CE01BE01AE019E018E017E016E015E0E9
:1003500014E013E012E011E010E00FE00EE00DE019
:100360000CE00BE00AE009E008E007E006E005E049
:1003700004E003E002E001E000E0FFE71EF0040F0C
:100380000CBFEFF30880EFF3098013F0D7BE000035
:1003900000000110A79C000029C1010008ED00E049
:1003A000000000002C498D462C482D492D4A00F0B4
:1003B00041F82D482D492E4A00F03CF82D482E4991
:1003C0002E4A00F037F82E482E492F4A00F032F816
:1003D0002E482F492F4A00F02DF82F482F49304A38
:1003E00000F028F82F483049304A00F023F8304810
:1003F0003049002200F029F82F483049002200F04F
:1004000024F82F482F49091A0022026004300160A5
:100410001C481D49884205D00268043003B4904747
:1004200003BCF7E700208646EC4600200021264A60
:100430009047FEE7884207D0521A05D00378013072
:100440000B700131013AF9D17047884202D0027035
:100450000130FAE77047000010090010386404000A
:1004600000000010D4000010CC040000CC040000F8
:100470009C0D020038640400000000100000001011
:100480009C0D02009C0D02009C0D02009C0D0200C0
:100490009C0D02009C0D02009C0D02009C0D0200B0
:1004A000386404000C650400D4000010D40000106F
:1004B000007017A070D119A070D119A078D119A01F
:0C04C00078D119A0000080A09F9C0000D3
:1004CC00024B4FF0FF321A60704700BF887017A0C4
:1004DC002DE9F04F91B0044613F0B0F90FAA0021AA
:1004EC0020461CF090FD4F4E4FF4F8430793002527
:1004FC00069547F6E07705970223049340F2DF1345
:10050C00039340F21F330293019500950F9B4FF418
:10051C00F0724FF44871304612F044F9424C2146C7
:10052C00304612F076FC304612F075FC80461F22E5
:10053C003E49304612F082FCADF83450ADF83650DE
:10054C00F369ADF83830336AADF83A303946304695
:10055C0012F063F92146304612F05BFC0BAF4FF4FE
:10056C00B47239460DA813F0C3FBBDF82CB0BDF81E
:10057C002E90BDF83240DFF8B8A04FF4B47251465B
:10058C00384613F0D5FBADF82CB0ADF82E90ADF885
:10059C003240544634F86039063BADF830300DF13A
:1005AC0024092B4680224946384613F07BFB99E8F8
:1005BC00030087E8030008F142022B4692B2494639
:1005CC00384613F029FBBDF824302AF8603CBDF8FE
:1005DC002830A380BDF8263063804033E380154B70
:1005EC00A360154BE360154B2361A561E561A56222
:1005FC002146304612F05BFE2946304612F00FF9C8
:10060C00B4F866300093B4F86430B4F86220B4F8EF
:10061C006010304612F06DF813F024F9A56611B095
:10062C00BDE8F08F987017A0003404009C0D0200F8
:10063C00687017A0C00D0200CD0400009C4F030091
:10064C0010B582B0114C0021204612F0E8F80021C0
:10065C00204612F0E2F80021204612F0E3F80C4B91
:10066C00196809120B4B1A68121202F10903009354
:10067C0001F109030A3A0A39204612F03AF800212E
:10068C00204612F0CFF802B010BD00BF987017A032
:10069C00947017A0907017A02DE9F04F8DB0002228
:1006AC004E4B1A604E4B5A679A67DA67DA661A67CE
:1006BC00B3F86020B3F864100A44521049490A6038
:1006CC00B3F86220B3F8663013445B10464A1360EB
:1006DC00464A102101201BF05FF910B10DB0BDE8A6
:1006EC00F08F424C424A434920681BF08CF9224659
:1006FC000AA941481DF01AF820B13C4B18681BF0B0
:10070C006DF9EBE70BA93D481CF059FC28B1374BB0
:10071C0019680A981DF077F8EFE709AA00210B98E1
:10072C001CF071FC08A936481BF082FD18B10B981F
:10073C001CF05CFCEBE7334908981BF065FD0028C6
:10074C00F5D10B98FFF7C4FE1BF02CFA0446234B93
:10075C001B68002BEBD1DFF89490DFF884802A4FD4
:10076C0084E01F4B0022DA661A6710264FF00A0B42
:10077C00DFF890A01D4658461BF016F8DAF800007A
:10078C0003685B69642205A99847EB6E059A1A44C5
:10079C00EA662B6F06990B442B67013EEBD1114691
:1007AC00002AB8BF02F10F0109110D4AD1661A4691
:1007BC00002BB8BF03F10F021211094B1A674FF04F
:1007CC00FF325A671BF0EEF9104B186075E04FF4CE
:1007DC0096329FE04FF49633A6E000BF887017A0C6
:1007EC00087017A0947017A0907017A0047017A031
:1007FC0038330200C80D0200D40D0200E00D0200D7
:10080C00E40D02008C7017A0987017A0007017A050
:10081C00B04200F0E980784B9B6E002B40F0E880F2
:10082C00764B1E60764B1D6033120A3B03932B12E2
:10083C000A3B0493734D04AA03A9284611F0FFFF49
:10084C00284613F0B7FABDF81020BDF80C106E480E
:10085C0013F05CF8684B4FF0FF329A6614201AF0D4
:10086C00A3FF6A4B1B68002B7FF461AF0023D9F800
:10087C0000204146384612F011FF054626461BF073
:10088C0091F90446002DE9D1B042E7D0604B1868CD
:10089C0003685B69642205A9984705461BF082F939
:1008AC005C4B1A681860002DD8D1534B5B6F0193C9
:1008BC00002B3FF456AF831A01934F4AD06E059B21
:1008CC00181A0590126F069B9B1A0693019A02FB4D
:1008DC0003F3002BBCBF03F57F43FF331B14C3EBA7
:1008EC00C353454A926F02EB4322019B03FB00F377
:1008FC00002BBCBF03F57F43FF331B143E49C96F6C
:10090C0001EB4323B2F5963FBFF661AF42498A42F1
:10091C00B8BF0A4638498A67B3F5963FBFF65AAF57
:10092C003D498B42B8BF0B46DFF8CCC0CCF87C30CD
:10093C0032490868DDF804A00AFB02F1DFF8DCE0BC
:10094C008EFB0165CE17C6EBA51606442C4909682B
:10095C000AFB03F58EFB05AEED17C5EBAE150D448A
:10096C00BCF864C0ACF10B0C4FEA0C2EB6EB0C2FA0
:10097C0006DD02EBD272521052421F4EB26776461F
:10098C001D4AB2F860200B324FEA022CB6EB022F54
:10099C0007DA194EB26F02EBD27252105242B267A2
:1009AC006646154AB2F866200B3A4FEA022CB5EBB4
:1009BC00022F06DD03EBD3735B105B420E4AD36749
:1009CC0065460D4BB3F862300B334FEA032CB5EB95
:1009DC00032FBFF61DAF084AD36F03EBD3735B1025
:1009EC005B42D367654613E7A9427FF414AF35E742
:1009FC00FFF726FE14E700BF087017A0947017A02D
:100A0C00907017A0987017A05C0F0300887017A047
:100A1C008C7017A0007017A000D4FEFFD34D62108D
:100A2C00704783694FF0FF329A6670472DE9F04F9B
:100A3C00ABB0044600F16C0929AA002140681CF0F7
:100A4C00E2FA12F0FBFE05201AF0AEFE04F10808E3
:100A5C004FF4F84307930023069347F6E072059290
:100A6C000222049240F2DF12039240F21F320292F1
:100A7C0001930093299B4FF4F0724FF44871404658
:100A8C0011F090FE7849404612F0C3F9774B1B6881
:100A9C00002B00F0A78023681A680AAD40F2EA73B5
:100AAC0002930A23019302230093714B1B68714933
:100ABC0028461EF0CBFB1F222946404612F0BEF9F9
:100ACC000021404611F0ABFE404612F0A4F9054659
:100ADC000023ADF89C30ADF89E30636AADF8A030C1
:100AEC00A36AADF8A230122127A813F069F8236885
:100AFC005E689B68002B7CD14C46BDF8A220BDF8EB
:100B0C009E30D21AA2F23312521B0023C2F34F02B0
:100B1C0021A927A813F05EF8022325AF0DF18C0A4A
:100B2C00CDF82080CDF8249099463368002B00F046
:100B3C00918032238022394627A813F04BF8BDF858
:100B4C00A020BDF89C30D21AA2F295220023C2F349
:100B5C004F0221A9384613F081F806F1100504F173
:100B6C00800B4FF032082E4655F8103C002B6BD002
:100B7C00434680225146384613F070F8BDF88C304D
:100B8C002380BDF88E306380BDF89030A380BDF813
:100B9C009230E38055F8103CA36055F80C3CE360B0
:100BAC0055F8083C236155F8043CA3610023E3612C
:100BBC00A382203410355C45D5D1B9F1010947D158
:100BCC00DDF82080DDF824900023CBF8083049466E
:100BDC00404612F06CFB1CF0CDFB002840D02BB033
:100BEC00BDE8F08F23681F221968404612F026F9E1
:100BFC0066E705F1420225AF022392B2394627A8D7
:100C0C0013F00AF8802223A9384613F091F8BDF8A6
:100C1C008C20A4F86C20BDF88E30A4F86E307F3296
:100C2C00A4F870203F33A4F87230134B6367134B56
:100C3C00A367134BE367C4F884400023C4F88830DF
:100C4C00A4F880308C3458E7A5F11006A346B4E71D
:100C5C005C466AE7DDF82080DDF82490A346B3E714
:100C6C0012F008FEBBE700BF003404001C7319A08F
:100C7C00207319A0EC0D0200C00D02002F0A000019
:100C8C009C4F03002DE9F04182B005464FF4D6701D
:100C9C001CF076FB04466A46102101201AF07CFEFB
:100CAC0008B1002300935CB14FF4D67200212046AA
:100CBC001EF0E9FB2560009B2BB920461CF068FB5D
:100CCC0002B0BDE8F0816A4601A923481CF02EFD54
:100CDC0018B100981AF082FEEFE7211D1F481CF096
:100CEC006EF920B1009901981CF08DFDF1E72046BA
:100CFC00FFF79CFE04F16C08194F04F1080605E09F
:100D0C002046FFF793FE09E03B68BBB9A36EF3B92D
:100D1C00EB681BB1984710F0010FF1D14FF0FF3386
:100D2C00009A4146304612F0B9FC0028ECD0A36E74
:100D3C00002BE9D12046FFF779FEE5E706F036FAFD
:100D4C002046FFF773FE064B00221A60D5E7606859
:100D5C001CF04CF9C6E700BFD40D0200E00D0200F8
:100D6C00F87017A008B58069FFF78CFF08BD00006C
:100D7C0070B504460D460E4B1B6883B100201BF06A
:100D8C0045F90C4B1E6808F063FF2A46B0FBF4F1E2
:100D9C0030461CF0C4FB00201BF00AF970BD05495D
:100DAC0005481CF0A5FB024B4FF0FF321A60E5E73B
:100DBC00FC7017A0007117A0180E020008B51421C2
:100DCC00FA20FFF7D5FF08BD08B54FF4FA7164207F
:100DDC00FFF7CEFF08BD83694FF0FF32C3F8E42064
:100DEC007047000010B582B004460F4B1B68B3B9B6
:100DFC00002111F014FD47F6E071204611F00DFDB5
:100E0C000A48838842880188C08801380090013BD9
:100E1C0001320131204611F06CFC02B010BD47F6D6
:100E2C00E07111F0FCFCE6E70C7117A0107117A033
:100E3C00014B1868704700BF0C7117A008B5034B25
:100E4C0000221A601CF06CFA08BD00BF0C7117A0D0
:100E5C0000B58FB003A91A481CF0B1F8194B1B68E8
:100E6C00B3F1FF3F28D0174B4FF0FF321A6041F21D
:100E7C008833059342F21073069347F2305307936D
:100E8C004FF47A730493104B0A93104B0B93104B43
:100E9C000C93104B0D934FF4F07300934FF4487375
:100EAC007622DC210C4812F0BDFF04A903981CF03B
:100EBC00FBF90FB05DF804FBFFF7C0FFF9E700BFCB
:100ECC00E00D02000C7117A0613E01001D3F0100F6
:100EDC006D400100E54001009036020010B504465B
:100EEC00FFF7B6FFA069FFF77DFF10BD2DE9F04FAE
:100EFC0097B04FF48A701CF043FA1A4B1860A8B1E3
:100F0C0004464FF48A7200211EF0BDFA4FF0FF33F5
:100F1C00C4F80431144A102101201AF03DFD40B1EF
:100F2C00104C20681CF034FA0023236017B0BDE885
:100F3C00F08F0D4A15A90D481CF0F8FB20B10A4B97
:100F4C0018681AF04BFDEBE7064B1968603108483E
:100F5C001CF035F870B1044B196815981CF053FC53
:100F6C00EDE700BF087117A0047117A0D40D0200A3
:100F7C00E00D0200D84C236803F5887203F58671E6
:100F8C00186E1CF086F8246812F058FC08AA002190
:100F9C00206E1CF038F84FF4F843079300250695A3
:100FAC0047F6E07BCDF814B00223049340F2DF1334
:100FBC00039340F21F33029301950095089B4FF465
:100FCC00F0724FF44871204611F0ECFBC3492046F7
:100FDC0011F01FFF204611F01EFFC4F800011F2264
:100FEC00BF49204611F02AFF5946204611F015FC46
:100FFC002946204611F013FCADF82450ADF82650CC
:10100C00E369ADF82830236AADF82A300DF12409D4
:10101C000821484612F0D4FDD4F8003103F1460201
:10102C000BAE052392B23146484612F0F5FD0DAFDA
:10103C0096E8030087E803000523802231463846F2
:10104C0012F00CFE0121304612F0BAFDBDF82C3026
:10105C00A4F864307F33A4F86830BDF82E30A4F8BF
:10106C0066303F33A4F86A309E4BE3669E4B236791
:10107C009E4B6367E467C4F8805097E8030086E8EA
:10108C00030064223946304612F052FEBDF83A3065
:10109C00BDF836209B1A03EBD3735A100632944ECC
:1010AC00052392B23146384612F0B6FDB6F80080F0
:1010BC00204611F0B0FE08F110088044A6F8048018
:1010CC00B6F80280204611F0A6FE08F11008804404
:1010DC001FFA88F3F3803288A4F88420B288A4F82D
:1010EC0088207288A4F88620A4F88A30814BC4F832
:1010FC008C30814BC4F89030C4F89450C4F89C40A8
:10110C00C4F8A050BDF82880BDF82430A8EB030823
:10111C00A8F27928794BA3FB0838C8F34F0843464B
:10112C002A463946484612F099FD04F1F00A434626
:10113C0054225146484612F091FD04F1F80804225D
:10114C004146504612F0F4FD1421404612F01CFDAD
:10115C002B4640F226223946484612F07FFD4FF4CA
:10116C00907204F1E801384612F0C2FD5B4920464A
:10117C0011F04FFE0121204611F0B7FE2946204602
:10118C0011F050FB5946204611F047FB9AE803003A
:10119C0089E80300BDF82A300093BDF82830BDF86B
:1011AC002620BDF82410204611F0A3FA98E803007D
:1011BC0089E80300BDF82A300093BDF82830BDF84B
:1011CC002620BDF82410204611F093FA2046FFF794
:1011DC0009FE3588204611F01EFE7388421908332B
:1011EC0016324749204611F0D9FD0127DFF814913A
:1011FC0040F226283B0289FB0312DE17C6EB2216AF
:10120C00F60106F4F84600253146204611F005FBA0
:10121C00B4F8EA20B4F8E8103A442944204611F016
:10122C0053F901354545EFD10137612FE2D1012743
:10123C00DFF8D09040F226283B0289FB0312DE1720
:10124C00C6EB2216B60006F4787600253146204609
:10125C0011F0E3FAB4F8EA203A44B4F8E81060323A
:10126C002944204611F030F901354545EED10137BE
:10127C00612FE1D10127DFF88C9040F226283B0248
:10128C0089FB0312DE17C6EB2216C6F3C406002533
:10129C003146204611F0C1FAB4F8EA203A44B4F8C9
:1012AC00E810C0322944204611F00EF901354545AD
:1012BC00EED10137612FE2D147F6E071204611F0F3
:1012CC00ACFA04F16401204611F0F1FF12F0CAFAF5
:1012DC00014E0D4F0FAD30E0087117A00034040023
:1012EC00200E0200C00D0200E30D00009C4F030015
:1012FC00107117A0182D0200E90E0000ABAAAAAAC3
:10130C003C0E0200ABAAAA2A047117A00021C2F855
:10131C000C11106E1BF0AFFE604B1B684FF0FF32D0
:10132C00C3F8042130682A4600F1640112F010F869
:10133C003468D4F80431002B3CD13368D3F8E42062
:10134C00002A40F0A6804FF4FA72294638681AF049
:10135C00DAFB0028ECD1109B1493119B139313AA66
:10136C0014A9306811F060FA129B012BDAD13268A3
:10137C00139BB2F8F2109942D4DCB2F8F6108B42FF
:10138C00D0DC1499B2F8F0008842CBDCB2F8F4004F
:10139C008142C7DCB2F8FE008342B7DCC11AD2F836
:1013AC00103103FB01F1431CB2F8FA001B1AB1FB1C
:1013BC00F3F1ACE70121204611F097FDB4F8F88069
:1013CC00B4F8FAB0B4F8FC90B4F8FEA004F5887246
:1013DC0004F58671206E1BF05CFEAAEB0B02D4F8B0
:1013EC000C3102FB0333D4F81021B3FBF2F5AAEB5A
:1013FC000505D4F808319D422CD08BBB0121204629
:10140C0011F010FA47F6E071204611F006FACDF80B
:10141C0000A04B465A464146204611F06AF9C4F8E2
:10142C0008510021204611F0FDF947F6E0712046E5
:10143C0011F0F3F90021204611F0F1F9D4F808214C
:10144C00531D009309F10F03053AA8F10F01204633
:10145C0011F04FF9114B1B680022C3F8042139E736
:10146C000021204611F0DEF90021204611F0D5F9BB
:10147C000021204611F0D3F9D4F80821531D009314
:10148C0009F10F03053AA8F10F01204611F031F9CB
:10149C00B4E7186E1BF0AAFD5DE500BF087117A03C
:1014AC00F0B583B006460C4615464FF4F84301934D
:1014BC0002F10803009301F10803083A083912F00D
:1014CC0007FA00270197AB1D0093A31DAA1FA11FAC
:1014DC00304612F0FDF947F6FF7301932B1D009374
:1014EC00231D2A1F211F304612F0F2F90197AB1C65
:1014FC000093A31CAA1EA11E304612F0E9F903B0FA
:10150C00F0BD000030B5A3B021A941481BF057FD38
:10151C0008B123B030BD21981BF093FD4FF48071BE
:10152C0021981BF0A8FD12F089F920AA002121981E
:10153C001BF069FD08AC4FF4F843079300230693A6
:10154C0047F6E07205920222049240F2DF120392F7
:10155C0040F21F32029201930093209B4FF4F072E1
:10156C004FF44871204611F01DF92A49204611F01C
:10157C0050FC1F222849204611F060FC204611F037
:10158C004AFC84B2254B1B78012B24D008AD234692
:10159C004FF448722249284611F00CFC63004FF4BA
:1015AC0048722049284611F005FCC4F178039B00D1
:1015BC004FF448721C49284611F0FCFBA4EB840440
:1015CC0004F5F0734FF448721849284611F0F2FBF9
:1015DC0012F048F99DE708AD23464FF448721449C0
:1015EC00284611F0E7FBC4F178039B004FF44872D6
:1015FC000D49284611F0DEFBA4EB840404F5F073CE
:10160C004FF448720949284611F0D4FBE0E700BFBB
:10161C00E00D020000340400500E02001C7117A0F3
:10162C00D00E0200F40E0200900E0200B40E020066
:10163C00680E02002DE9F04F97B004908B46002302
:10164C004FF0FF37DFF874A2099715469C4A1370C8
:10165C0058461CF023F81DB99A4B1B68032B09D074
:10166C00FFF750FF984F974B0393002308930DF10E
:10167C00480974E0944E954C3246214658461CF06D
:10168C0027F806F1100204F1100158461CF020F85E
:10169C0006F1200204F1200158461CF019F85846B6
:1016AC001CF009F80446854B1B680995D2E0002311
:1016BC0013931493013620461AF076F8032E40F259
:1016CC00E380AD0813954FEA98031493079A4946A3
:1016DC0058461BF0FDFF039B1C1D99E80F0084E886
:1016EC000F00089D6C1C774B1C60FFF767FBBDF867
:1016FC001410BDF818200023019302F10803009385
:10170C0001F10803083A0839049812F0E1F825B100
:10171C00DAF80030E3B9322510E0FFF7F3FEDAF81F
:10172C000030002BF7D01037039B1033039315E0D8
:10173C0028461AF039F8DAF800304BB949465846C1
:10174C001BF044FF0028F3D1129B13F0010FEFD1D3
:10175C00032C75D01037039B103303930894079711
:10176C007B680593BA68069292B299B20498FFF717
:10177C0097FE00250295A8462E46322484E0DFF819
:10178C0050910DF1280812AD32260394059717E0FD
:10179C0030461AF009F8294658461BF017FF002866
:1017AC00F6D1129B13F0010FF2D14FF4967019F091
:1017BC00FBFF09F1100908F1100812AB984526D06F
:1017CC00D9F804300293D9F80870BAB299B20498D7
:1017DC00FFF766FE4446214658461BF0F7FE0028EC
:1017EC00F9D1236813F0010FF5D0FFF7E7FABDF834
:1017FC000810BAB20023019302F10803009301F11F
:10180C000803083A0839049812F062F8C3E7039CFD
:10181C00059F0B9AA2F2D622302A1BD80C9AA2F55D
:10182C00CB72302A16D80F9AA2F5BC72302A11D876
:10183C00109AD83A099B302A98BF3B46099309E085
:10184C0058461BF038FF0446DAF80070002F96D08B
:10185C0000230993DAF800306BB94FF0FF35012300
:10186C00002C7FF4F3AE099A002A7FF4EFAE154BEF
:10187C009A6402F009FD17B0BDE8F08F4FF0FF330A
:10188C000293204619F090FF494658461BF09EFEE5
:10189C000028F6D1DAF80030B3F1FF3F3FF407AF80
:1018AC00129B13F0010FE9D0029B002BE9D0139B84
:1018BC001D44149B98440136FDE600BFF87017A038
:1018CC001C7117A0B47117A05C330200B87117A07B
:1018DC003C33020010B584B00446184A1021012094
:1018EC001AF05AF810B1002004B010BD134A03A925
:1018FC0013481BF01BFF20B1104B18681AF06EF840
:10190C00F1E702A90F481BF05AFB28B10B4B1968E1
:10191C0003981BF078FFEFE701AA002102981BF057
:10192C0072FB094B9B6C002B0CBF22464FF0FF3215
:10193C0003990198FFF77EFEE8E700BF187117A026
:10194C00D40D0200E00D0200B47117A070B586B082
:10195C00002205A912481BF0E9FEE8B9052401ADE7
:10196C003226294605981BF031FE019B13F0010F1E
:10197C0010D0304619F018FF013CF2D14FF0FF3473
:10198C00002105981BF03FFF0A2019F00DFF20469F
:10199C0006B070BD0024F3E74FF0FF34F7E700BF4B
:1019AC00D40D020008B54FF0FF30FFF793FF08BDD0
:1019BC00014B01221A607047287117A010B582B034
:1019CC000A4C0B4B1988204610F029FF47F6E071A2
:1019DC00204610F022FF51230093A1231222222132
:1019EC00204610F086FE02B010BD00BF2C7117A06F
:1019FC000000001008B5084B1B780133DBB2062B36
:101A0C0028BF0023044A1370044A32F81320044BF5
:101A1C001A80FFF7D3FF08BD247117A0AC33020066
:101A2C00000000102DE9F04F89B005466E481BF000
:101A3C00A7FC03906D4C0121204610F0F3FE47F6F5
:101A4C00E071204610F0E9FEEB880093AB886A88C1
:101A5C002988204610F04DFE07AA032164481AF08D
:101A6C0093FC002850D1DDF80CA04FF013090DF1B8
:101A7C00140806AF5D4ED346CA46A9465D46CF2430
:101A8C000694CDF814A042463946304610F0D7FEE5
:101A9C00012300932B46059A0699304610F0D0FF8F
:101AAC000235013440F25F239C42E9D10BF5487BAF
:101ABC000AF1010A40F2A3139A45DFD14D4604AB5B
:101ACC00494A039907981AF0DCFC18B1464B049A62
:101ADC009A4251D107981AF091FC444C01212046AE
:101AEC0010F0A0FE0021204610F097FEEB8800932A
:101AFC00AB886A882988204610F0FBFD03981BF000
:101B0C0047FC09B0BDE8F08F074607AA0321394806
:101B1C001AF03AFC04460028A5D0374B1968374A0E
:101B2C0001F53B2000F5006012F022F9FFF74CF9AB
:101B3C002E4E0021304610F075FE0021304610F07C
:101B4C006EFE47F6E071304610F067FE22230093DC
:101B5C0040F25F231222CE21304610F0CAFD092F2D
:101B6C000DD00D2F27D10D2C1ED01423D02224499B
:101B7C001E4811F013F924E0FFF726F9AAE70D2C03
:101B8C000BD0092C4FF014034FF0D0020CBF1D49A1
:101B9C001D49164811F002F913E01423D0221B49F9
:101BAC00304611F0FBF80CE01423D02218490F48F2
:101BBC0011F0F4F805E01423D02216490B4811F06B
:101BCC00EDF80121094810F02DFE4FF4FA6019F0E0
:101BDC00EBFD094B1868094A00F53B2101F5006142
:101BEC0012F0C6F879E700BF00E204002C7117A0D0
:101BFC00180F0200240F02000400001000B80B00A4
:101C0C00BC0F0200540F02007C0F0200300F0200C8
:101C1C009C0F0200D80F02002DE9F04F8BB0054647
:101C2C0090481BF0ADFB03908F4C0121204610F027
:101C3C00F9FD47F6E071204610F0EFFDEB880093BC
:101C4C00AB886A882988204610F053FD09AA012127
:101C5C0086481AF099FB814640B109AA01218448B3
:101C6C001AF092FB0446002840F0A18006AB7D4A96
:101C7C00039909981AF0EEFB044609981AF0BEFB7A
:101C8C005CB1784B069A9A4204D1DDF80CA04FF067
:101C9C00130B06E0FFF798F832E0DDF80CA04FF0DC
:101CAC00130B0DF11C0808AF6F4ECDF81090059476
:101CBC00D146DA46AB46A9F10205CF240894CDF8FB
:101CCC001CA042463946304610F0B9FD35F8023FAB
:101CDC00079A0899304610F0BDFD013440F25F239D
:101CEC009C42EBD109F548790AF1010A40F2A313A1
:101CFC009A45E0D1DDF81090059C5D46002C3FD054
:101D0C005C4B19685C4A01F53B2000F5006012F051
:101D1C002FF8FFF759F8544C0021204610F082FDA3
:101D2C000021204610F07BFD47F6E071204610F0B4
:101D3C0074FD2223009340F25F231222CE21204611
:101D4C0010F0D7FCB9F1090F76D0B9F10D0F00F0F6
:101D5C0081801423D0224949434811F01FF80121F6
:101D6C00414810F05FFD4FF4FA6019F01DFD414B36
:101D7C001868414A00F53B2101F5006111F0F8FFAC
:101D8C00394C0121204610F04DFD0021204610F069
:101D9C0044FDEB880093AB886A882988204610F0B4
:101DAC00A8FC03981BF0F4FA0BB0BDE8F08F314B94
:101DBC001968314A01F53B2000F5006011F0D8FF9D
:101DCC00FFF702F8284E0021304610F02BFD0021C1
:101DDC00304610F024FD47F6E071304610F01DFD42
:101DEC002223009340F25F231222CE21304610F0C2
:101DFC0080FCB9F1090F0DD0B9F10D0FA9D10D2C43
:101E0C0021D0092C26D11423D0221D49164810F0BC
:101E1C00C5FFA4E70D2C08D0092C0DD11423D0221A
:101E2C001849114810F0BAFF99E71423D02216492B
:101E3C00304610F0B3FF92E71423D02212490A481F
:101E4C0010F0ACFF8BE71423D0221049064810F099
:101E5C00A5FF84E71423D0220C49034810F09EFF01
:101E6C007DE700BF00E204002C7117A0180F0200E0
:101E7C00240F02000400001000B80B0080100200B8
:101E8C005C1002000C100200E80F02003C10020073
:101E9C00A0F1CF0CBCF5C87F1AD2A1F1130CBCF584
:101EAC00C87F15D2A2F1CF0CBCF5C87F10D2A3F11C
:101EBC00130CBCF5C87F0BD200B583B0009313464E
:101ECC000A460146034810F011FB03B05DF804FB11
:101EDC00704700BF2C7117A008B5A0F1CF03B3F564
:101EEC00C87F09D2A1F11303B3F5C87F04D20A4607
:101EFC000146024810F0E8FA08BD00BF2C7117A08B
:101F0C0070B58AB009AA00211BF07DF811F096FC7F
:101F1C001E4C4FF4F84307930025069547F6E076E0
:101F2C0005960223049340F2DF13039340F21F3310
:101F3C00029301950095099B4FF4F0724FF4487190
:101F4C00204610F02FFC1249204610F062FF1F2291
:101F5C001049204610F072FF3146204610F05DFC0F
:101F6C000D49204611F0A3F92946204610F057FCE4
:101F7C0040F2A313009340F25F231222CE2120469D
:101F8C0010F0B7FB11F06EFC0AB070BD2C7117A0ED
:101F9C00003404008C100200B83302002DE9F04F1D
:101FAC0091B0864B00221A60854A1021012019F04D
:101FBC00F3FC10B111B0BDE8F08F814A0EA9814835
:101FCC001BF0B4FB20B17E4B186819F007FDF1E74C
:101FDC000FA97D481AF0F3FF28B1794B19680E98B8
:101FEC001BF011FCEFE70BAA00210F981BF00BF86C
:101FFC000F98FFF785FFFFF7E1FC4FF0FF31302022
:10200C0004F090FD0026B246B1466C4C6C4D0DF1BF
:10201C001C082768002F40F0CD804FF0FF3241465E
:10202C00286819F070FD0028F3D1089B0D93099BCB
:10203C000C930CAA0DA9654810F0F6FB0D9BCF3B39
:10204C00B3F5C87F80F0AC800C9B133BB3F5C87F15
:10205C0080F0A6800A9B012B01D0B946D7E71BF074
:10206C0081F95B4B1988002940F08580574810F0A6
:10207C00D4FBB9F1000F50D0DDF834900C9F0AF16D
:10208C00FF308046711E09F1FF3B7B1E02935A46BE
:10209C000591FFF7FDFE3B465A463146CDF81080C0
:1020AC004046FFF7F5FE721C114607F10108434646
:1020BC005A4603910498FFF7EBFE029B4A46DDF863
:1020CC0014B059465046FFF7E3FE3B464A463146AC
:1020DC005046FFF7DDFE43464A4603995046FFF74C
:1020EC00D7FE0AF1010A09F10109029B4A46594639
:1020FC005046FFF7CDFE3B464A4631465046FFF769
:10210C00C7FE43464A4603995046FFF7C1FEDDF829
:10211C0034A00C9E4FF0FF3979E70D9E0C9F06F111
:10212C00FF3A07F1FF3949465046FFF7D5FE3946CD
:10213C005046FFF7D1FE07F1010841465046FFF724
:10214C00CBFE49463046FFF7C7FE39463046FFF70F
:10215C00C3FE41463046FFF7BFFE013649463046C6
:10216C00FFF7BAFE39463046FFF7B6FE4146304619
:10217C00FFF7B2FECBE7154810F04FFBB9F1000F9B
:10218C0008D00C9B00930D9B324651460F4810F023
:10219C00ADF9BCE70C9A0D990C4810F095F9B6E71F
:1021AC0007AA0C49094811F0D3F80A9B002B08BF69
:1021BC00B9462CE70F981AF019FF0EE7287117A0F3
:1021CC00207117A0D40D0200E00D02002C7117A095
:1021DC0000000010B833020038B505460C46B2F5C5
:1021EC00004F20D0102A33D0002A30D1486E19F07D
:1021FC00E7FCB0F57A7F2AD319F0D4FC606604F1C1
:10220C006802012171481AF0BFF8102800F2C18051
:10221C00DFE800F022BFBFBF6CBFBFBFBF8F3DBFA9
:10222C00BF80BFBF9E008368694A00212046984743
:10223C00AB68684A012120469847AB68664A022180
:10224C002046984719F0AEFC60660023E36638BD63
:10225C00436908469847FAE7AB68604A0221204672
:10226C009847A06E1AF0CAF800230222194620469D
:10227C00D5F80CC0E0472B69022120469847584BF3
:10228C001A889B78A4F8022184F80431DFE7AB6844
:10229C00544A022120469847534B07CBC4F80201FD
:1022AC00C4F80611C4F80A211A889B78A4F80E21E8
:1022BC0084F81031E36E0133E3660E2BC7D9AB689B
:1022CC004A4A0221204698470023032219462046F9
:1022DC00D5F80CC0E0472B69032120469847444BA6
:1022EC0003CBC4F80201C4F80611B0E7AB68414A4D
:1022FC00022120469847404B07CBC4F80201C4F892
:10230C000611C4F80A211A889B78A4F80E2184F8C7
:10231C001031CFE7AB68394A022120469847384B39
:10232C0003CBC4F80201C4F806111B88A4F80A31C7
:10233C00C0E7AB68334A022120469847324B03CBA7
:10234C00C4F80201C4F806111B88A4F80A31B1E7DD
:10235C00AB682E4A022120469847DFF8B4C0BCE88F
:10236C000F00C4F80201C4F80611C4F80A21C4F81D
:10237C000E319CF8003084F81231002303221946E8
:10238C002046D5F80CC0E0472B690321204698471E
:10239C0090E7AB681D4A0221204698471D4B07CB9E
:1023AC00C4F80201C4F80611C4F80A211B88A4F869
:1023BC000E310023032219462046D5F80CC0E04705
:1023CC002B6903212046984774E700BF20110200B7
:1023DC00C0100200DC1002001011020034110200C7
:1023EC00602502004C1102006C1102003812020030
:1023FC00501202007C1102009C110200AC11020070
:10240C00C8110200D4110200F0110200FC110200EC
:10241C001412020028120200B2F5004F00D07047CF
:10242C0038B505460C46002184F86C108368264AA2
:10243C002046984704F16401244819F0F9FEC8B10C
:10244C00AB68234A002120469847002303221946F3
:10245C002046D5F80CC0E0472B690321204698474D
:10246C001C4B03CBC4F80201C4F806111B88A4F85A
:10247C000A3138BD04F16801606E19F0C5FE002800
:10248C00DED1A06E03685B6940F6C41204F17001E2
:10249C0098470028D4D1AB680F4A002120469847B2
:1024AC000023022219462046D5F80CC0E0472B69C0
:1024BC00022120469847094B1A889B78A4F80221E0
:1024CC0084F80431D5E700BF58120200E40D020075
:1024DC00741202009C120200A81202006025020075
:1024EC00F0B583B005460C46B2F5004F4BD0002A30
:1024FC0067D1886E03681B6901A99847002870D1C1
:10250C00019A636F9342B8BF6267236F9A42B8BF58
:10251C00226782EAE273A3EBE273C3F3423304F162
:10252C007807C3EB431103EB8106334612145F4962
:10253C0038461CF08BFEAB683A4600212046984783
:10254C00C82019F031F9E36E0133E366052B38D955
:10255C00226FB2F5702F57DB626FB2F5201F7CDC57
:10256C00EF680023022219462046B8472B69022146
:10257C00204698473346BDF906204D4904F5817035
:10258C001CF064FE1DE083684A4A002120469847EF
:10259C0004F16401484819F04BFEA0B1EE68002329
:1025AC00032219462046B0472B6903212046984741
:1025BC00424B03CBC4F80201C4F806111B88A4F8E3
:1025CC000A3103B0F0BD04F16801606E19F01CFE15
:1025DC000028E3D14FF4C813236763670023E36635
:1025EC00EFE7EE680023032219462046B0472B691B
:1025FC00032120469847324B07CBC4F80201C4F89C
:10260C000611C4F80A21DCE7019282EAE273A3EB1B
:10261C00E273C3F34233C3EB431103EB810633463E
:10262C001214284938461CF011FEAB683A460021BA
:10263C0020469847EF680023032219462046B847E6
:10264C002B690321204698473346BDF906201E49C5
:10265C0004F581701CF0FAFDB3E7019282EAE27393
:10266C00A3EBE273C3F34233C3EB431103EB8106D9
:10267C0033461214154938461CF0E8FDAB683A464F
:10268C00002120469847EF68002303221946204674
:10269C00B8472B690321204698473346BDF90620DD
:1026AC000B4904F581701CF0D1FD8AE7FC12020085
:1026BC009C130200CC120200E8120200F01102007E
:1026CC00F0120200201302004C13020060130200EF
:1026DC008C1302002DE9F0418AB005460C461646D3
:1026EC006946704819F0A4FD60B1EE68002303221E
:1026FC0019462046B0472B690321204698470AB05B
:10270C00BDE8F08101A9009819F07EFD002834D1B4
:10271C00B6F5004F3CD0002EF1D102AE20273A4640
:10272C00002130461CF0AFFE01980368D3F81480EA
:10273C003B4632464121C047002800F08B80EE68B2
:10274C000023032219462046B0472B69032120465B
:10275C009847554B03CBC4F80201C4F806111A88EC
:10276C009B78A4F80A2184F80C31019803689C69C1
:10277C0020234E4A4121A047C1E7EE6800230322E3
:10278C0019462046B0472B69032120469847B6E7E7
:10279C00AB68474A002120469847019803685E6958
:1027AC002023424A4121B047B0B1EE6800230322F6
:1027BC0019462046B0472B690321204698473A4BCF
:1027CC0003CBC4F80201C4F806111A889B78A4F84C
:1027DC000A2184F80C3192E702AF2022AA21384654
:1027EC001CF051FE019803689E6920233A46412152
:1027FC00B04706462022552138461CF044FEAEB1A7
:10280C0001238DF80830EE68002303221946204678
:10281C00B0472B69032120469847264B07CBC4F8B9
:10282C000201C4F80611C4F80A2168E7019803688C
:10283C009E69142302AA4321B04701238DF8083066
:10284C000028E0D1019803689C69012302AA462163
:10285C00A04754E7202202A917481CF082FC50B96B
:10286C00EE680023022219462046B0472B6902214C
:10287C002046984779E7EE68002303221946204644
:10288C00B0472B690321204698470C4B07CBC4F863
:10289C000201C4F80611C4F80A211B7884F80E3121
:1028AC0063E700BFA8130200C41302008C7117A0C9
:1028BC00B0130200D013020058340200DC130200E3
:1028CC0003460120186000BF00BF00BF00BF00BF5F
:1028DC0000BF00BF00BF00BF00BF00BF00BF00BFF4
:1028EC0000BF00BF00BF00BF00BF00BF00BF00BFE4
:1028FC0000BF00BF00BF00BF00BF00BF00BF00BFD4
:10290C0000BF00BF00BF00BF00BF00BF00BF00BFC3
:10291C0000BF00BF00BF00BF00BF00BF00BF00BFB3
:10292C0000BF00BF00BF00BF00BF00BF00BF00BFA3
:10293C0000BF00BF00BF00BF00BF00BF00BF00BF93
:10294C0000BF00BF00BF00BF00BF00BF00BF00BF83
:10295C0000BF00BF00BF00BF00BF00BF00BF00BF73
:10296C0000BF00BF00BF00BF00BF00BF00BF00BF63
:10297C0000BF00BF00BF00BF00BF00BF00BF00BF53
:10298C0000BF00BF00BF00BF00BF00BF00BF00BF43
:10299C0000BF00BF00BF00BF00BF00BF00BF00BF33
:1029AC0000BF00BF00BF00BF00BF00BF00BF00BF23
:1029BC0000BF00BF00BF00BF00BF00BF00BF00BF13
:1029CC0000BF00BF00BF00BF00BF00BF00BF00BF03
:1029DC0000BF00BF00BF00BF00BF00BF00BF00BFF3
:1029EC0000BF00BF00BF00BF00BF00BF00BF00BFE3
:1029FC0000BF00BF00BF00BF00BF00BF00BF00BFD3
:102A0C0000BF00BF00BF00BF00BF00BF00BF00BFC2
:102A1C0000BF00BF00BF00BF00BF00BF00BF00BFB2
:102A2C0000BF00BF00BF00BF00BF00BF00BF00BFA2
:102A3C0000BF00BF00BF00BF00BF00BF00BF00BF92
:102A4C0000BF00BF00BF1A68824202D140007FF471
:102A5C0039AF7047F0B502468908013911F0010E03
:102A6C003CD073464FF0AA3042F823005B00194269
:102A7C00FAD14FF055331360734602EB830052F8D2
:102A8C002340B4F1AA3F14D15B001942F5D14FF0A9
:102A9C00AA331360F4464FF055361F4610E05B0026
:102AAC00194207D052F82340B4F1AA3FF7D063453E
:102ABC00F5D0F0BD57514FEA4C0C11EA0C0F0BD06E
:102ACC004FEA8C0502EB8C0042F82C601368B3F1D2
:102ADC00AA3FEED17346E5E70020EAE74FF0553305
:102AEC0003604FF0AA3303600020E2E7032928D9E2
:102AFC0010B502464FEA910C8646012340F8043B80
:102B0C009C4503F10103F9D8012300E00B46104664
:102B1C001168994214D1D94342F8041B591C9C45A5
:102B2C00F4D800236FF001047046DEF80010E21AAE
:102B3C00914205D101330EF1040E9C45F4D80020CE
:102B4C0010BD002070470000B2F5004F00D0704758
:102B5C0070B505460C4683682A4A002120469847E2
:102B6C0016F03EFD4FF02040FFF7AAFE064616F089
:102B7C0047FDB6B1AB68244A012120469847002393
:102B8C00032219462046D5F80CC0E0472B690321D7
:102B9C002046984732461D4904F581701CF056FBBF
:102BAC0070BD16F01DFD4FF400014FF02040FFF7F3
:102BBC0051FF064616F024FD002EDBD116F010FD59
:102BCC004FF400014FF02040FFF790FF064616F03F
:102BDC0017FD002ECED1AB680D4A01212046984737
:102BEC00EE680023022219462046B0472B690221C9
:102BFC00204698474FF40002064904F581701CF0FA
:102C0C0025FBCDE7EC13020018140200301402006F
:102C1C000014020010140200F0B5C3B006460C46B6
:102C2C0015468368534A012120469847524B03CBE3
:102C3C00C4F80201C4F806111B88A4F80A3141AA91
:102C4C001021284619F00BFD002874D104F581776A
:102C5C00419B512B03D040F2E93043B0F0BD41AA67
:102C6C001121284619F0FBFC002867D1419B522BFF
:102C7C0002D040F2E930F0E741AA1221284619F0BF
:102C8C00EEFC00285DD1419B592B02D040F2E9307B
:102C9C00E3E73A4B07CBC4F802017960BA60B3683A
:102CAC00374A0121204698474FF480224FF4E00127
:102CBC00284619F0C4FC002846D1802301AA4FF401
:102CCC00E001284619F097FC002840D101AB21A95E
:102CDC0013F8012BFF2A3DD18B42F9D1294B07CB9D
:102CEC00C4F802017960BA60B368274A0121204612
:102CFC0098470623254A2649284619F08EFC60BBC6
:102D0C000623244A2449284619F087FC40BB80231B
:102D1C0001AA1F49284619F06EFC20BB0C221F4942
:102D2C0001A81CF01EFA08BB1D4B1A889B78A4F84E
:102D3C000221BB7091E740F2E9308EE740F2E930B6
:102D4C008BE740F2E93088E740F2EA3085E740F261
:102D5C00EA3082E740F2EB307FE74FF47B707CE7A0
:102D6C004FF47B7079E74FF47B7076E74FF47B7010
:102D7C0073E700BF38140200F0110200481402007F
:102D8C005414020064140200701402008014020037
:102D9C00FCFF710088140200020072009014020003
:102DAC0060250200F0B591B00C4600230193ADF8FC
:102DBC000830B2F5004F01D011B0F0BD0546836864
:102DCC001E4A0021204698470FA91D4819F0EFFB19
:102DDC00C8B903A90F9819F052FC039B0F9A21460E
:102DEC002846FFF719FF06460F9819F0F7FB66B94E
:102DFC00EE680023022219462046B0472B690221B7
:102E0C0020469847D8E74FF47A7604F16407C6F366
:102E1C000E020C4938461CF019FAAB683A460221EE
:102E2C0020469847EE680023032219462046B047F7
:102E3C002B69032120469847BEE700BFA01402006F
:102E4C00C0140200C814020030B583B005460C460D
:102E5C00B2F5004F1ED0102A37D0002A33D1486E5D
:102E6C0018F0AEFEB0F57A7F2DD318F09BFE60669D
:102E7C0004F168020121654819F086FA0D2800F268
:102E8C008E80DFE800F0268C8C8C5A8C8C8C8C7DA0
:102E9C00418C8C6E83685E4A002120469847AB6853
:102EAC005C4A012120469847AB685B4A02212046C8
:102EBC00984701A9594818F063FF0023E36623677C
:102ECC0018F070FE606603B030BD43690846984741
:102EDC00F9E7AB68524A022120469847A06E19F0D8
:102EEC008DFA0023022219462046D5F80CC0E04783
:102EFC002B690221204698474A4B1A889B78A4F8E4
:102F0C00022184F80431DEE7AB68474A02212046EF
:102F1C009847464B07CBC4F80201C4F80611C4F815
:102F2C000A211A889B78A4F80E2184F81031236F9B
:102F3C005A1C042B47D02267C5E7AB683C4A0221D8
:102F4C00204698473B4B07CBC4F80201C4F8061146
:102F5C00C4F80A211A889B78A4F80E2184F8103141
:102F6C00E5E7AB68344A022120469847334B03CB44
:102F7C00C4F80201C4F806111B88A4F80A31D6E77C
:102F8C00AB682F4A0221204698472E4B03CBC4F83E
:102F9C000201C4F806111B88A4F80A31C7E7AB6814
:102FAC001D4A022120469847274B07CBC4F8020143
:102FBC00C4F80611C4F80A211A889B78A4F80E21CB
:102FCC0084F81031B3E700232367E36E0133E36623
:102FDC00062B16D1AB681D4A0221204698470023C8
:102FEC00032219462046D5F80CC0E0472B69032173
:102FFC0020469847164B03CBC4F80201C4F80611BF
:10300C0061E701A9054818F0BBFE5CE73815020022
:10301C00DC140200FC14020010110200281502003E
:10302C0034110200602502004C1102006C110200E8
:10303C007C1102009C110200AC110200C8110200AC
:10304C00D4110200F01102004815020038120200DF
:10305C005012020030B583B005460C46B2F5004F55
:10306C001ED0102A37D0002A33D1486E18F0A8FD94
:10307C00B0F57A7F2DD318F095FD606604F16802E7
:10308C000121654819F080F90D2800F28E80DFE8E7
:10309C0000F0268C8C8C5A8C8C8C8C7D418C8C6E9C
:1030AC0083685E4A002120469847AB685C4A012140
:1030BC0020469847AB685B4A02212046984701A9F5
:1030CC00594818F05DFE0023E366236718F06AFD8B
:1030DC00606603B030BD436908469847F9E7AB68B2
:1030EC00524A022120469847A06E19F087F9002316
:1030FC00022219462046D5F80CC0E0472B69022164
:10310C00204698474A4B1A889B78A4F8022184F8E9
:10311C000431DEE7AB68474A022120469847464B0C
:10312C0007CBC4F80201C4F80611C4F80A211A88A6
:10313C009B78A4F80E2184F81031236F5A1C042BB1
:10314C0047D02267C5E7AB683C4A02212046984726
:10315C003B4B07CBC4F80201C4F80611C4F80A2192
:10316C001A889B78A4F80E2184F81031E5E7AB6837
:10317C00344A022120469847334B03CBC4F8020152
:10318C00C4F806111B88A4F80A31D6E7AB682F4A9D
:10319C000221204698472E4B03CBC4F80201C4F8F9
:1031AC0006111B88A4F80A31C7E7AB681D4A022137
:1031BC0020469847274B07CBC4F80201C4F80611E8
:1031CC00C4F80A211A889B78A4F80E2184F81031CF
:1031DC00B3E700232367E36E0133E366062B16D1B6
:1031EC00AB681D4A0221204698470023032219464A
:1031FC002046D5F80CC0E0472B69032120469847A0
:10320C00164B03CBC4F80201C4F8061161E701A9FF
:10321C00054818F0B5FD5CE738150200581502009A
:10322C00FC14020010110200781502003411020087
:10323C00602502004C1102006C1102007C1102008E
:10324C009C110200AC110200C8110200D411020042
:10325C00F011020048150200381202005012020050
:10326C00B2F5004F00D070472DE9F04F8BB00646F9
:10327C000C468368744A00212046984703A973487A
:10328C0019F09DFE09A9724818F0A0FD00B3B368AF
:10329C00704A002120469847F568002303221946FE
:1032AC002046A84733690321204698476A4B03CB35
:1032BC00C4F80201C4F806111B88A4F80A31099855
:1032CC0018F091FD039819F091FE0BB0BDE8F08F4A
:1032DC00002305930A238DF8183001238DF819303B
:1032EC0004AB089305A9099818F085FDD8B1B3680B
:1032FC005A4A002120469847F568002303221946B4
:10330C002046A8473369032120469847544B03CBEA
:10331C00C4F80201C4F806111A889B78A4F80A2193
:10332C0084F80C31CBE7049B642202FB03F74D4B72
:10333C00A3FB07373F0A04EB020B00233A464A492A
:10334C0058461BF083FFB3685A4600212046984725
:10335C0004F5817800233A46444940461BF076FF39
:10336C00A7F15003282B0FD9F56800230322194627
:10337C002046A84733690321204698473A463C49E2
:10338C0040461BF063FF9AE7039819F067FE002193
:10339C00039819F070FE642018F006FA05A9099834
:1033AC0018F029FD049B642202FB03F31A460193D7
:1033BC002C4BA3FB02394FEA1929039819F041FE53
:1033CC0000254FF00A0A2946039819F054FE50467E
:1033DC0018F0EAF90235B5F5807FF4D14B463A4640
:1033EC00214958461BF032FFB3685A46002120464B
:1033FC0098474B463A461D4940461BF027FF019B18
:10340C00B3F5994F0FD3F5680023032219462046D4
:10341C00A84733690321204698474A461549404638
:10342C001BF014FF4BE7F5680023022219462046D7
:10343C00A84733690221204698474B463A460B4928
:10344C0040461BF003FF3AE788150200E00D02002E
:10345C00A0150200A8150200F0110200CC15020004
:10346C00F0150200ABAAAAAAFC150200281602004D
:10347C003416020044160200B2F5004F00D070471B
:10348C00F0B587B005460C468368404A00212046BB
:10349C00984705A93E4818F099FCE0B1AB683D4A45
:1034AC000021204698470023032219462046EE6847
:1034BC00B0472B69032120469847374B03CBC4F800
:1034CC000201C4F806111B88A4F80A31059818F0FB
:1034DC008AFC07B0F0BD022301930A238DF8083053
:1034EC0001238DF80930CDF810D001A9059818F0FA
:1034FC0082FCD8B1AB68294A002120469847EE6877
:10350C000023032219462046B0472B69032120468D
:10351C009847234B03CBC4F80201C4F806111A8850
:10352C009B78A4F80A2184F80C31CFE7009B642225
:10353C0002FB03F31B4EA6FB03269B1B06EB530659
:10354C00760A04F164073246174938461BF07EFEB2
:10355C00AB683A46002120469847503E282E0AD99F
:10356C00EE680023032219462046B0472B6903213D
:10357C0020469847AAE7EE68002302221946204607
:10358C00B0472B690221204698479FE7541602004A
:10359C00A015020068160200F01102008816020045
:1035AC00F015020025154052AC16020000B583B090
:1035BC0000230193072809D8DFE800F0040C11164A
:1035CC001B20252A01A9154818F0DAFB019803B035
:1035DC005DF804FB01A9124818F0D2FBF6E701A92B
:1035EC00104818F0CDFBF1E701A90F4818F0C8FB03
:1035FC00ECE701A90D4818F0C3FBE7E701A90C485B
:10360C0018F0BEFBE2E701A90A4818F0B9FBDDE7A8
:10361C0001A9094818F0B4FBD8E700BFC416020092
:10362C00CC160200D4160200DC160200E4160200CE
:10363C00EC160200F4160200FC16020082B02DE912
:10364C00F04F8FB080468B46144619931C9D8368AF
:10365C009B4A0121584698479A4B03CBCBF8020161
:10366C00CBF806111B88ABF80A310DAA10212046A5
:10367C0018F0F5FF002840F011810BF5817A0D9BB5
:10368C00512B06D040F2E9300FB0BDE8F04F02B03C
:10369C0070470DAA1121204618F0E1FF002840F0D8
:1036AC0000810D9B522B02D040F2E930ECE70DAAC1
:1036BC001221204618F0D3FF002840F0F5800D9B16
:1036CC00592B40F0F48000260596B146CDF810A099
:1036DC0009950896C246D846069408F1640B059ADB
:1036EC00794958461BF0B2FDDAF808305A460121E8
:1036FC004046984700230393039A744958461BF09D
:10370C00A5FDDAF808305A46012140469847099B36
:10371C00002B00F0AC80059BC3EB0323079319AB84
:10372C000B9300273D460A970A9A694958461BF0A5
:10373C008DFDDAF808305A460121404698470B9B1C
:10374C001E465C69089B9C4206D13369002B00F035
:10375C008280FB1808933DE0DFF8789123464A46B7
:10376C005D4958461BF072FDDAF808305A460321C1
:10377C0040469847E9E73B460022584958461BF01B
:10378C0065FDDAF808305A460121404698472A462A
:10379C00534904981BF05AFD3CB109F1FF33621EEA
:1037AC004A4403F8016F9342FBD122462946069EF8
:1037BC00304618F044FF00287CD123464A4629465F
:1037CC00304618F02AFF002877D101372544089B92
:1037DC009F423FD0079B83EA0706039B002BCAD06E
:1037EC003B4601223F4958461BF030FDDAF80830C1
:1037FC005A460121404698472A463B4904981BF0FB
:10380C0025FD23464A462946069818F0F4FE002C5E
:10381C00DBD009F1FF324B46601E4844944612F847
:10382C00011FB14202D19042F8D1CEE7D946C3F183
:10383C0001030191009663443A462C4948461BF01B
:10384C0005FDDAF808304A4602214046984740F216
:10385C00014019E71F460A9B01330A930B9A083261
:10386C000B92099A9A4201D008945DE70894039B45
:10387C0001330393022B7FF43FAF059B0133059378
:10388C00022B7FF42AAFDDF810A0194B1A889B7815
:10389C00A8F802218AF802300020F5E640F2E9305F
:1038AC00F2E640F2E930EFE640F2E930ECE640F2C5
:1038BC00E930E9E642F24870E6E642F24970E3E6A6
:1038CC0038140200F0110200041702001017020055
:1038DC0020170200000040A02C1702004C17020019
:1038EC00781702008C170200B8170200CC170200E0
:1038FC0060250200B2F5004F00D07047F0B59BB0C8
:10390C0005460C468368264A00212046984719A98B
:10391C00244818F04CFE40BB0DA9199818F0AFFEC6
:10392C00EC460DF1380EBEE80F00ACE80F00BEE817
:10393C000F00ACE80F009EE807008CE807000D9B19
:10394C00199A21462846FFF779FE0646199818F071
:10395C0045FE66B9EE680023022219462046B047A0
:10396C002B6902212046984718E04FF47A7604F12F
:10397C006407C6F30E020C4938461BF067FCAB68B3
:10398C003A46022120469847EE6800230322194646
:10399C002046B0472B690321204698471BB0F0BD49
:1039AC0008180200C0140200C8140200034B1B6864
:1039BC004FF0FF32C3F8D42B704700BFB07117A083
:1039CC0070B58AB004460FF039FF09AA00212046D1
:1039DC0019F019FB184C4FF4F84307930023069386
:1039EC0047F6E07605960222049240F2DF1203922B
:1039FC0040F21F32029201930093099B4FF4F07234
:103A0C004FF4487120680EF0CDFE0C4D294620680D
:103A1C000FF0FFF91F220A4920680FF00FFA314608
:103A2C0020680EF0FAFE294620680FF0F2F90FF02C
:103A3C0019FF0AB070BD00BFB07117A000340400AC
:103A4C002C1802002DE9F04788B0734F386800F647
:103A5C0064240023ADF81830ADF81A30C369ADF802
:103A6C001C30036AADF81E306C490FF0D2F938687F
:103A7C000FF0D1F986B206AD0521284610F0A0F85A
:103A8C0006F14602022392B26946284610F0C4F8A9
:103A9C0004AB95E8030083E803003A6802F6CC32E5
:103AAC0082E803000221184610F08AF80436B6B2F8
:103ABC00442E38BF44265A4B1D78082D61D8002758
:103ACC00DFF85481DFF85CA1DFF85C91D8F80030A6
:103ADC001B6EAB4233D9BDF816300133BDF8122042
:103AEC009B1A9E422BDA0123324602A904A810F03D
:103AFC0071F8BDF808302380BDF80A306380BDF83A
:103B0C000C30413BA380BDF80E20E280D8F80010A9
:103B1C00EB0103F168000844A060C4F80CA0C4F8E1
:103B2C00109064330B44A361404BE3610232A1F863
:103B3C00D22B013720340135ABB2082BC6D9012169
:103B4C00684610F03DF8BDF8003023807F33A38029
:103B5C00BDF8023063803F33E380354BA360354BB7
:103B6C00E360354B23610023A361E3612A4B1B689F
:103B7C001B6EBB4207D820340023A36008B0BDE8FD
:103B8C00F0870027DBE70121684610F019F8224B7B
:103B9C001B68B3F8D02B413A2284B3F8D02B013AEE
:103BAC00A284B3F8CE2B01326284B3F8CE2B41320F
:103BBC00E284224AA262224AE262224A2263002260
:103BCC00A263E2631B6E9F4228BF4034D4D2012112
:103BDC0068460FF0F5FF104B1B68B3F8D02B413A39
:103BEC00A4F84020B3F8D02B013AA4F84420B3F841
:103BFC00D22B413AA4F84220B3F8D23B013BA4F8B3
:103C0C0046300E4BA364104BE364104B236500232A
:103C1C00A365E3656034AFE7B07117A0003404000E
:103C2C00AC7117A0053E0000D8F102005D3C00000D
:103C3C00C00D0200B93900009C4F0300182D020082
:103C4C00E53D0000E0620200B93D0000B45B0200FB
:103C5C0070B588B004460388ADF818304388ADF8C9
:103C6C001A308388ADF81C30C388ADF81E301C4D5B
:103C7C001C4928680FF0CDF828680FF0CCF885B2F5
:103C8C0006AE022130460FF07FFF0223402204A92A
:103C9C0030460FF0E3FF236993B1BDF81030039366
:103CAC00BDF81230029302AA03A90D4B18680EF04E
:103CBC00C6FDBDF80820BDF80C1020690FF026FEDB
:103CCC002A46694606A810F013F8BDF80230BDF874
:103CDC000020A168024800680FF060F808B070BDC1
:103CEC00B07117A000340400F0B587B00FF0A6FD3A
:103CFC00294C2A4920680FF08CF820680FF08BF8BB
:103D0C00054647F6E07120680EF087FD002120681B
:103D1C000EF085FD2068B0F8D03BB0F8CE2BB0F893
:103D2C00CC1BB0F8D26B00960EF0E3FC2068036E4F
:103D3C001BBB90F8E03B102B05D0092B27D0302B68
:103D4C0027D0174F00E0164F39460FF0D0F804AECD
:103D5C00114C236882B2314603F6CC300FF0E8FFE9
:103D6C00AAB202A930460FF0C3FFBDF80A30BDF865
:103D7C000820394620680FF011F8074B186800F638
:103D8C0064210FF094FA0FF06DFD07B0F0BD054FF4
:103D9C00DAE7054FD8E700BFB07117A00034040074
:103DAC0054180200681802008818020008B5084B65
:103DBC001B78591D074A1268126E914200D308BD38
:103DCC000133034A1370FFF73DFEFFF78DFFF6E753
:103DDC00AC7117A0B07117A008B5064B1B7803B9CE
:103DEC0008BD013B034A1370FFF72CFEFFF77CFF65
:103DFC00F6E700BFAC7117A008B5806900F0CAFEE9
:103E0C00054B1B68D3F8D80BFFF7DAFDFFF71AFE4A
:103E1C00FFF76AFF08BD00BFB07117A030B59BB0AB
:103E2C00024601AD0C4928461BF010FA0BAC0123DD
:103E3C002A460A4920461BF009FA6A460121204607
:103E4C0018F0A2FA044610B120461BB030BD009801
:103E5C0018F0D4FAF8E700BFB0180200B818020046
:103E6C0010B58CB0024602AC084920461BF0EEF9A6
:103E7C0001AA0121204618F087FA044610B1204609
:103E8C000CB010BD019818F0B9FAF8E7CC18020084
:103E9C0010B58CB0024602AC084920461BF0D6F98E
:103EAC0001AA0121204618F06FFA044610B12046F1
:103EBC000CB010BD019818F0A1FAF8E7E418020054
:103ECC002DE9F04F95B0814600231293384B1D68B5
:103EDC0008AC0246374920461BF0B8F913A9204616
:103EEC0018F082FF18B1302015B0BDE8F08F3249C0
:103EFC00139818F0DEFF70B1129B002B4DD0002BE5
:103F0C0050DD643501242746DFF8B0A0DFF8B0801F
:103F1C00DFF8B0B019E012AB00222B49139818F05F
:103F2C00DDFF129B002BEAD12849139818F0C1FF32
:103F3C0012AB00222449139818F0D0FFDCE70134AF
:103F4C00E4B22746129B9C422CDC05AE3A46514605
:103F5C0030461BF07BF9502300932B1D4246314613
:103F6C00139818F0EBFF08BB03AE3A46594630469F
:103F7C001BF06CF92823009305F15503424631469A
:103F8C00139818F0DBFF0028D9D145F8809B084B1B
:103F9C001A68136E01331366D1E7139818F05EFF9D
:103FAC003020A1E7139818F059FF9DE730209BE7CC
:103FBC00B07117A0E4180200FC18020024190200CA
:103FCC00182D02002C190200101902001C190200F5
:103FDC002DE9F04F91B002460190314B1D6806ACB3
:103FEC00304920461BF032F905AA0121204618F071
:103FFC00CBF9064618B1304611B0BDE8F08F04A9D4
:10400C00059818F05BFA049B002B45D005F1640B66
:10401C0000252F462C460DF10C0A0DF10B094FF023
:10402C00010811E02C2B06D04F2D09D80BEB050203
:10403C001371013504E00BEB050300251D710127FD
:10404C000134049BA34227D953464246494605985E
:10405C0018F000FA0646F8B9039BEBB19DF80B304B
:10406C000D2BEDD0002FDDD00A2B07D0272DE7D854
:10407C000BEB050282F855300135E1E75D44002772
:10408C0085F85570019B4BF8803B054B1A68136EF5
:10409C00013313663D46D3E7059818F0AFF9AAE74C
:1040AC00B07117A0CC18020070B5A8B040F6E4307F
:1040BC0019F066F9674B186080B140F6E4320021C4
:1040CC001BF0E1F925AA1021012017F065FC38B18D
:1040DC00604C206819F05CF90023236028B070BD97
:1040EC0025AA24A95C4819F021FB18B1259817F0D2
:1040FC0075FCEDE727A9594818F061FF20B1259907
:10410C00249819F080FBF1E7524B1B68279AC3F8EF
:10411C00D82B4FF0FF31302002F004FD0020FFF7C8
:10412C007DFE04460120FFF779FE002C79D068B99A
:10413C000123009300238DF804308DF85530684628
:10414C0000F028FD279818F051FFD8E70020FFF762
:10415C009FFE04468DF898000120FFF799FE8DF81C
:10416C009900002C5FD0002834D13A4B1B680124F5
:10417C00C3F8DC4B00221A662046FFF7A1FE04F1BF
:10418C00A0030DEB030404F8080C324B1B6883F8F6
:10419C00E00B2798FFF714FCFFF754FCFFF7A4FD86
:1041AC002C4C20AE4FF0FF352368D3F8D43B002BBA
:1041BC00C8D12A463146259817F0A5FC0028F3D122
:1041CC00244B18684FF4FA73259A00F664210FF00B
:1041DC0065FAE7E70020FFF743FE05468DF89800E7
:1041EC000120FFF73DFE8DF899001DB3B0F10D04D1
:1041FC0018BF0124174B1B68C3F8DC4B00221A664E
:10420C0004F1A0036B4413F8083CCBB1114B1B68B1
:10421C0004F1A0020DEB020414F8082C83F8E02B37
:10422C00B7E7002385E70B4B1B680024C3F8DC4B76
:10423C001C66A1E7074B1B680024C3F8DC4B1C660B
:10424C002046FFF7C5FE04F1A0036B4403F8080CED
:10425C00DCE700BFB07117A0D40D0200E00D020026
:10426C000022084B03F14C0013F8011B0A44834253
:10427C00FAD1D243034BD86C904214BF16200020C5
:10428C00704700BFB47117A000B583B000220D4B6E
:10429C0003F14C0013F8011B0A448342FAD1D243B8
:1042AC00084BDA6401A9084817F0EBFF10B103B012
:1042BC005DF804FB502300220249019818F000F825
:1042CC00F5E700BFB47117A0A813020000B583B0C6
:1042DC0001A90B4817F0D5FF034618B1184603B0D7
:1042EC005DF804FB502300220649019817F0D6FF15
:1042FC0003460028F2D1FFF7B3FF0346EEE700BFF9
:10430C00A8130200B47117A038B51A4C5022002122
:10431C0020461BF0B8F84FF0FF35A564C02184F897
:10432C003A10A82284F83B200A2384F83C3014204D
:10433C0084F83D00FF2084F83E5084F83F0084F858
:10434C00400084F8421084F8432084F84430012360
:10435C0084F84530BD2384F83530332384F8363067
:10436C00062384F83730682384F83830222384F805
:10437C00393038BDB47117A0074B1B684FF0FF32B2
:10438C00C3F80C22C3F824220021C3F81012C3F87E
:10439C001422C3F81C127047107217A0064B1B682E
:1043AC000022C3F828224FF0FF32C3F81422034B2B
:1043BC000361034BC3607047107217A054DC0200FA
:1043CC00194600002DE9F0438FB005460FF036FA80
:1043DC00764B1B68D3F8E831012B07D87BB9744BAB
:1043EC001868744A01460FF0C3FC08E0714A724920
:1043FC00096802FB03116E4B18680FF0B9FC6B4B8C
:10440C001868D0F81032002B37D1684B1B68D3F8E2
:10441C001C32002B40F09180002D00F0BC80634BCF
:10442C001B68D3F82C22002A40F08E80D3F830225F
:10443C00002A00F0AD80D3F8E831042B00F08C801A
:10444C005A4B1B68D3F8E831002B00F093805A4B81
:10445C001868564C2368D3F8E811564B03FB01F14E
:10446C00A1F53B23A3F50063014418440FF0D4FAE3
:10447C0023680022C3F830228FE000210EF0CFF920
:10448C004A4C002120680EF0C8F9002120680EF07B
:10449C00C9F94A4920680EF0BCFC23680CAE03F540
:1044AC00FA7292E8030086E80300012118460EF028
:1044BC00B9F9206800F164010EF0F9FE2368D3F815
:1044CC00C821D3F8C43101323D4968461AF0BEFE0A
:1044DC00694620680EF00BFD8146236803F5F673E0
:1044EC0093E8030086E803000A2130460FF068FBCE
:1044FC000AAF1FFA89F2394630460FF019FC97E8DB
:10450C00030086E8030020680EF085FC82B2394671
:10451C0030460FF0EDFB47F6E07120680EF07DF9A8
:10452C00002120680EF0E1FCBDF82A30BDF82820EF
:10453C00694620680EF032FC67E7C6224FF4B6716C
:10454C0020480FF0E3F967E70FF094F9174B1B685D
:10455C000022C3F82C2220E0174B1868154A00F5EE
:10456C000C1101F5205100F56A1000F5C0500FF048
:10457C00FFFB65E7104B18680E4A00F53B1101F57F
:10458C000051A0F53B20A0F500600FF0F1FB5EE7B9
:10459C000FF068F901E00FF065F9044B1B6800227D
:1045AC00C3F814220FB0BDE8F08300BF107217A03F
:1045BC000400001000B80B00047217A000340400B3
:1045CC00341902000C6A020008B50F4B1B68D3F8B3
:1045DC00102292B90C4B1A68D2F8C8310133D2F8B8
:1045EC00C4118B4228BF0023C2F8C8314FF0FF33EF
:1045FC00C2F81832C2F8303208BD0020C3F81002DD
:10460C00FFF7E0FEE6E700BF107217A008B5084BF5
:10461C001B684FF0FF32C3F82822C3F81422054B55
:10462C000361054BC3600020FFF7CEFF08BD00BF40
:10463C00107217A080E30200A943000008B5114BCB
:10464C001B68D3F81022BAB90E4B1B68D3F8C821DB
:10465C001AB9D3F8C421C3F8C821D3F8C821013A38
:10466C00C3F8C8210022C3F810224FF0FF32C3F860
:10467C001822C3F82C2208BD0020C3F81002FFF743
:10468C00A1FEE1E7107217A02DE9F04FADF5077D03
:10469C00B0F800C0B0F802B00769B989F88907F121
:1046AC00150406AE0DF5067E14F8012CD20814F88C
:1046BC00023CDB085B0143EA822314F8032C43EA37
:1046CC00D20326F8023B03347645EDD100284FD0B7
:1046DC00441E01F2123201FB0422174400220DF198
:1046EC00180ADFF894803B46CDF814C00490D946E4
:1046FC0030E00236BD4224D015F8013B3AF81340A5
:10470C00002CF6D023464A463146D8F800000EF06D
:10471C00A1F806F1010B23464A465946D8F8000089
:10472C000EF098F82346009A3146D8F800000EF0A7
:10473C0091F82346009A5946D8F800000EF08AF8F2
:10474C00D7E7019B0299039A013209F102090498F7
:10475C0090420DD01F465B1A1D460029F4D009F17A
:10476C00010B059ECDF800B0019302910392C3E7B3
:10477C000DF5077DBDE8F08F107217A02DE9F04FF5
:10478C00BFB04FF0FF320023079306930593B1E0BF
:10479C004FF0FF32AEE093F8CC21022A40F0BF80FC
:1047AC0000220792059A3B92079A03323C92002210
:1047BC003BA9D3F8E00117F04CF90022069299E0DE
:1047CC0093F8D421022A40F0B08001220792E9E745
:1047DC00039D3D95D4F82432002B40F0EE80D4F8A4
:1047EC003432002B00F0C4804FF000038DF82430DD
:1047FC00814B1B681B6E1A681DAF0135009509AB08
:10480C007E4938461AF022FD08AA0121384617F0D5
:10481C00BBFD002840F0D180049BDD1C089817F0EC
:10482C00EDFD774B196801F56A1303F5C05304F5D8
:10483C000972744800FB051138460FF04DF9044617
:10484C00002840F0BA806C4B1868049B00EBC30343
:10485C00022283F8CC213D9AC3F8D021069B002B71
:10486C0000F0A9803B9B9A4200F09780002241E027
:10487C00002E3BD1B8F1000FB8BF884408F1FF37C8
:10488C00B9F1000FB8BFF1442E464B4609F1FF3980
:10489C004246B846013081422AD9B2FBF1F701FBFE
:1048AC0017220492B3FBFEF70EFB1733039304EBB2
:1048BC00C207D7F8D0B15B458AD197F8CC71002FDD
:1048CC0086D0B542E6D3002DD2D1614538BFACEBD2
:1048DC00010C0CF10105D64538BFAAEB0E0A534664
:1048EC000AF1010A6246AC460125D3E73546D1E709
:1048FC004FF0FF32404B1B683DA9D3F8DC0117F099
:10490C0002F9B8B93D9B0593B3F1FF3F66D03A4B22
:10491C001B68D3F8D021059991423FF43CAFD3F8F2
:10492C00D821059991423FF44BAF059B3B934FF037
:10493C00FF330693059D3D95079802462B462E495D
:10494C000C68D4F8C4E17146022928BF0221461C28
:10495C00471E05F1010A05F1FF3BBEF1000F3FF4C4
:10496C0017AF00200546B846B4460646D94694E72C
:10497C00226E5532244909A81AF068FC38E73D9B91
:10498C003B934FF0FF333C931B4B1B6800223BA91E
:10499C00D3F8E00117F05DF812E03C9500223BA93A
:1049AC00D0F8E00117F055F83D9B0593049B079355
:1049BC00069400229EE700229CE7069B002BDED18A
:1049CC000D4B1B68049A03EBC203022283F8CC2123
:1049DC003D9AC3F8D021002206928BE74FF0FF32AC
:1049EC003B92054B1B683BA9D3F8E00117F031F85B
:1049FC0000203FB0BDE8F08F107217A050190200D4
:104A0C00047217A000B80B004419020070B58AB0EC
:104A1C0004460EF013FF09AA0021204618F0F3FA01
:104A2C00154C4FF4F84307930023069347F6E076B2
:104A3C0005960222049240F2DF12039240F21F32DA
:104A4C00029201930093099B4FF4F0724FF448715A
:104A5C0020680DF0A7FE094D294620680EF0D9F903
:104A6C00314620680DF0D9FE294620680EF0D1F9A8
:104A7C000EF0F8FE0AB070BD107217A000340400DE
:104A8C00F0B5B1B01A4B1B680022C3F8C421184C06
:104A9C00184F03AE21E01A6E5532394630461AF0E3
:104AAC00D5FB23681A6E126817ADD3F8C4310133E5
:104ABC0000933346104928461AF0C8FB02AA01217C
:104ACC00284617F061FC88B92268D2F8C43101334A
:104ADC00C2F8C431029817F091FC2368D3F8342241
:104AEC00002AD8D000238DF80C30DAE731B0F0BDB5
:104AFC00107217A04419020050190200F0B583B0CF
:104B0C00234B1B68D3F8C8714FF0FF3203F5E471E7
:104B1C00D3F8DC0116F0DAFF6E461D4CFA2508E0DE
:104B2C00C3F81C02FFF74EFC19E02368D3F81C22D3
:104B3C002AB323682A463146D3F8E00116F0E3FF86
:104B4C000028F2D1009BBB42F3D1019BB3F1FF3F94
:104B5C0013D00F4B1B68D3F81C22002AE0D10C4B4E
:104B6C001B680022C3F818224FF0FF31C3F814124F
:104B7C000199C3F8E811C3F81C2203B0F0BD4FF043
:104B8C00FF32C3F81C220020FFF71CFCD1E700BF4A
:104B9C00107217A02DE9F04794B005464FF40E7033
:104BAC0018F0EEFBC24B186058B304464FF40E726B
:104BBC0000211AF068FC04F5EE720421032016F0B3
:104BCC00EBFE08B3BA4B1B68D3F8E421002A40F083
:104BDC003C82B74B1B68D3F8DC01002840F04E82B6
:104BEC00B34B1B68D3F8E001002840F04A82B04C6C
:104BFC00206818F0CDFB00232360AE4B186818F02A
:104C0C00C7FB14B0BDE8F087A94B1A6802F5F07227
:104C1C000821032016F0C0FE0028D3D12B794BB904
:104C2C0095F8553033B9A24B1B684FF0FF32C3F8DF
:104C3C00342204E09E4B1B680022C3F834229E48A9
:104C4C0018F09EFB9B4A10600028DAD000F53C233C
:104C5C0003F2FF736FF30B03984A1360944B1A68BB
:104C6C000023C2F8E43102F5F272019202220092A2
:104C7C004FF420729249934816F0E4FF0028A1D11A
:104C8C008B4B1B684FF0FF31C3F810120022C3F896
:104C9C001C22C3F80C221D66C3F8C821C3F81812D5
:104CAC00C3F81412C3F82022874B1B6883B112AAD5
:104CBC001021012016F070FE002883D112AA11A930
:104CCC00824818F033FD48B1129816F087FE79E748
:104CDC007D4A0121032016F05FFEE8E713A97C480A
:104CEC0018F06DF920B11299119818F08CFDEBE7C2
:104CFC00FFF7C6FE6E4B1B68D3F8C4311BB9139873
:104D0C0018F074F9EFE71398FFF780FE684F3C68D2
:104D1C000025ADF80C50ADF80E50E369ADF810302D
:104D2C00236AADF812306B4920460EF072F83968E0
:104D3C0003AE2B464A2201F5FA7130460EF06CFF99
:104D4C003B6803F5FE7296E8030082E8030005AEAB
:104D5C0003F5FA7393E8030086E803000521304657
:104D6C000EF02EFF0DF11C0A28234022514630462E
:104D7C000EF074FFBDF81C30A4F86430BDF81E3082
:104D8C00A4F86630BDF82030A4F86830BDF82230A5
:104D9C00A4F86A30DFF84091C4F86C904F4B23674D
:104DAC004F4B6367E567DFF83C81C4F880802823AC
:104DBC004022514630460EF051FFBDF81C30A4F88D
:104DCC008430BDF81E30A4F88630BDF82030A4F82D
:104DDC008830BDF82230A4F88A30C4F88C90424B4D
:104DEC00C4F89030414BC4F89430C4F89C50C4F8CB
:104DFC00A08028234022514630460EF02FFFBDF8EC
:104E0C001C30A4F8A430BDF81E30A4F8A630BDF8B0
:104E1C002030A4F8A830BDF82230A4F8AA30C4F889
:104E2C00AC90334BC4F8B030324BC4F8B430C4F847
:104E3C00BC50C4F8C08039680223642201F5F671B5
:104E4C0030460EF02FFF28234022514630460EF0FC
:104E5C0029FFBDF81C30A4F8C430BDF81E30A4F8EE
:104E6C00C630BDF82030A4F8C830BDF82230A4F804
:104E7C00CA30C4F8CC90204BC4F8D0301F4BC4F8C7
:104E8C00D430C4F8DC50C4F8E080C4F8EC503B6873
:104E9C00D3F80C32002B7FF432AF3C464FF0FF3787
:104EAC00094E3DE0FFF72AFE16F07CFE05463EE07B
:104EBC00107217A0087217A060215200047217A07C
:104ECC0064190200894700000C7217A0D40D02006F
:104EDC00E00D020000340400182D020049460000C9
:104EEC0028D50200954600001946000054DC02004B
:104EFC00D5450000ACEA020085430000FCCD020061
:104F0C003846FFF75FFA16F04DFE054614E0002018
:104F1C00FFF75AFB2368D3F80C32002B7FF4EFAE6B
:104F2C0018F020FA2368D3F81832002BBAD1236872
:104F3C00D3F81432002BE3D100220DF12701306895
:104F4C0016F0E1FD022812D09DF82730012BDED09F
:104F5C00022B08D0002BDDD14B4B1B684FF0FF32DE
:104F6C00C3F80C22CBE60020FFF768FBD2E73A46E9
:104F7C000DA9129816F0C7FD0028CBD1424B18682A
:104F8C00D0F8103283B9109B012B3FD0D0F82832C7
:104F9C00D3B1284616F014FE40F6B733984210D918
:104FAC000020FFF711FB0CE04FF4FA73129A00F19A
:104FBC0064010EF073FB284616F002FEB0F57A6F12
:104FCC0017D2109B012B27D02F4B1A68D2F8203206
:104FDC004BB1D2F80832D2F804229B1A13F1800F8D
:104FEC002BDB802B2DDC284B1B680022C3F82022E6
:104FFC0090E7254B1B680022C3F810224FF0FF32BC
:10500C00C3F8142216F0CEFD0546DAE74FF0FF3355
:10501C00C0F81032C0F814321B4B1B68D3F8202296
:10502C003AB90F9AC3F804224FF0FF32C3F820228A
:10503C0070E70F9AC3F80822F6E70020FFF7C4FACE
:10504C00D1E70020FFF7FAFACDE74FF0FF320C92D0
:10505C000CA9D3F8DC0116F039FD00260AAD0A4C78
:10506C000A9623684FF0FF322946D3F8E00116F078
:10507C004AFD0A9BB3F1FF3FF2D1AAE516F0AEFC54
:10508C00AEE516F0ABFCB2E5107217A08269D2F84F
:10509C00C83183F00103C2F8C831704783694FF0FF
:1050AC00FF329A60704700002DE9F04F95B004462E
:1050BC000EF0C4FB254613AA002155F80C0B17F073
:1050CC00A2FF4FF4F84307930026069647F6E077C5
:1050DC0005974FF00209CDF8109040F2DF130393BF
:1050EC0040F21F33029301960096139B4FF4F0721B
:1050FC004FF4487128460DF055FB784928460DF0C1
:10510C0088FE28460DF087FEA4F8C0011F227449C2
:10511C0028460DF093FE394628460DF07EFB3146AD
:10512C0028460DF07CFBADF84460ADF84660A36AF0
:10513C00ADF84830E36AADF84A300DF14408082167
:10514C0040460EF03DFDB4F8C02146320BAF4B4645
:10515C0092B2394640460EF05FFD012138460EF002
:10516C002FFDBDF82C30A4F86C307F33A4F87030D0
:10517C00BDF82E30A4F86E303F33A4F87230594B82
:10518C006367594BA367594BE367C4F88440C4F871
:10519C008860314628460DF0A8FE314628460DF0B1
:1051AC0041FB012128460DF0A0FE514928460DF087
:1051BC0030FE312128460DF032FEA4F8C2012846FB
:1051CC000DF029FE82B2A4F8C421B4F8C2B10BEBE5
:1051DC004B0B4FEA4B0B0BF18A0B04F5D6770832CD
:1051EC00802A38BF802292B2394640460EF080FDAC
:1051FC000DF13C0897E8030088E803001FFA8BF2D6
:10520C00394640460EF094FD97E8030088E8030009
:10521C000DF1240B4B468022594640460EF042FDC0
:10522C000DF1340A33468022514658460EF0D2FC1A
:10523C00BDF83430A4F88C30BDF83630A4F88E307C
:10524C00BDF83830A4F89030BDF83A30A4F892305C
:10525C00DFF8A0B0C4F894B0274BC4F89830274BB3
:10526C00C4F89C30C4F8A440C4F8A860B4F8C221B7
:10527C000432334692B2514640460EF013FDBDF84F
:10528C003430A4F8AC30BDF83630A4F8AE30BDF8EC
:10529C003830A4F8B030BDF83A30A4F8B230C4F8C5
:1052AC00B4B0154BC4F8B830C4F8BC60C4F8C440F2
:1052BC00C4F8C860494638460EF082FCC4F8D46085
:1052CC00064928460DF0A5FD04F16C0128460DF0A9
:1052DC00EEFF0EF0C7FA15B0BDE8F08F00340400F5
:1052EC006C190200C00D0200A95000009C4F030075
:1052FC00C89D0300182D02009950000078940200FC
:10530C002DE9F04F8DB04FF4E87018F039F8764B6A
:10531C001860A0B104464FF4E87200211AF0B3F8FB
:10532C000123C4F8BC3104F5E671704818F081F81B
:10533C0040B16D4C206818F02BF8002323600DB0A1
:10534C00BDE8F08F6A4A1021012016F025FB30B120
:10535C00654B1B68D3F8CC0118F078F8E9E7644A80
:10536C000BA9644818F0E2F920B1614B186816F0EB
:10537C0035FBEDE75C4B19685F4817F020FE28B150
:10538C005B4B19680B9818F03EFAEEE7564C206808
:10539C00FFF78AFE20688368002B6BD0006817F03B
:1053AC0025FEEDE7059B03EBC303544A82FB031276
:1053BC00DB17C3EB620303F5001305931A149BB2BE
:1053CC0003EB8303DB0B4E4908A819F03FFF74E095
:1053DC004C4B089371E06D08454405F1FF3AB9F860
:1053EC00AE21414620460DF0A1FB47F6E071204668
:1053FC000DF013FA039B1978202901D05F2920D1D5
:10540C0007AA06A920460DF0AAFB069B9A451CDCB0
:10541C00A8465E4529D0394620460DF000FA39469B
:10542C0020460DF0FAF9394620460DF0FBF9B9F893
:10543C00C2510136039633782E2BCCD05F2BCBD1B7
:10544C00C9E720460DF0E3FBDAE7394620460DF0BC
:10545C00E4F9079AB9F8C4311344013B0093AB1E2D
:10546C00069920460DF045F9D2E71F4B1868836862
:10547C00002B93D14FF4FA731D4A126800F16C01A2
:10548C000C300EF00BF9184BD3F8009005A9D9F895
:10549C00CC0117F0E3FF00289AD1D9F8C8110129E3
:1054AC0080D0059B1A149BB203EB8303DB0B002902
:1054BC0089D1154908A819F0C9FE09F10C04134942
:1054CC0020460DF0A6FC002120460DF00EFD47F6FF
:1054DC00E07120460DF0A1F9B9F8AC810DF11F0671
:1054EC000DF1260B002796E7187217A0E8120200A0
:1054FC00147217A0D40D0200E00D020067666666F8
:10550C009C1902004572720090190200C89D03009C
:10551C0070477047A0F862104FF0FF33C0F8C830E6
:10552C0070474FF0FF33C0F8C8307047074B1B680B
:10553C0003B9704710B5D0F834411146204609F034
:10554C0085FD0349204609F081FD10BD1C7217A092
:10555C00601B020010B5D0F83441054B53F82210F3
:10556C00204609F073FD0349204609F06FFD10BD7C
:10557C0078340200A819020008B5094B1B683BB926
:10558C00084B1B6843B1084909F060FD002008BDB9
:10559C00064909F05BFDF9E7054909F057FDF5E708
:1055AC002C7217A0307217A0B4190200AC190200AB
:1055BC00C019020070B586B00546012920D01446EA
:1055CC0002293FD1214B1B686BB3214B1A6801AEEA
:1055DC002049304619F03AFE6168304619F0A7FFB1
:1055EC0018B31A4B1B685BB3194B1A6801AC1A49F8
:1055FC00204619F02BFE2146284609F027FD0DE028
:10560C00124B1B686BB1124B1A6801AC1349204644
:10561C0019F01CFE2146284609F018FD002006B0A2
:10562C0070BD0022F1E70022D1E7094B1A680C4942
:10563C00304619F00BFE3146284609F007FDEDE720
:10564C000022D3E7074909F001FDE7E71C7319A015
:10565C00207319A010140200E8190200D0190200DE
:10566C00D8190200F819020010B50446012904D01B
:10567C00064909F0EBFC002010BD012001F000FEF2
:10568C000349204609F0E2FCF5E700BFF8190200D7
:10569C00B419020010B50446012904D0064909F0DA
:1056AC00D5FC002010BD022001F0EAFD0349204684
:1056BC0009F0CCFCF5E700BF141A0200B419020083
:1056CC0010B5012904D00446022905D0002010BDD4
:1056DC00032001F0D5FDF9E70B4B4FF0FF321A60B8
:1056EC00032001F0CDFD084A1368002BFCD1074BB9
:1056FC001B6823B10649204609F0A8FCE6E70549DA
:10570C00204609F0A3FCE1E72C7217A0307217A019
:10571C00B4190200C019020010B50446012904D0C6
:10572C00064909F093FC002010BD052001F0A8FDEE
:10573C000349204609F08AFCF5E700BF141A020061
:10574C00B419020008B5002001F09AFD002008BD34
:10575C00F8B50646042904D0124909F077FC00205C
:10576C00F8BD1546506809F051FC0446A86809F0CC
:10577C004DFC0746E86809F049FCE40104F4F844E0
:10578C00BF0007F478773C43C0F3C4000443064BD6
:10579C001C80042001F074FD0449304609F056FCCD
:1057AC00DDE700BF141A0200247217A0B41902001E
:1057BC002DE9F84380460D46144602F58179144BC9
:1057CC001A889B78A4F8022189F80230204601F04F
:1057DC0081FD0023C4F8C830C4F834814FF4004272
:1057EC0021460C48A847D4F8C8304BB9094F0026BD
:1057FC00324621463846A847D4F8C830002BF7D09B
:10580C004A460549404609F053FCBDE8F88300BF01
:10581C00602502008C340200382D020010B5CEB089
:10582C000446022905D0094909F010FC00204EB0AD
:10583C0010BD506809F0EAFB6A4636900123ADF8BA
:10584C00003103492046FFF7B3FFEFE7141A0200BB
:10585C00552B000010B5CEB00446022905D00C49DA
:10586C0009F0F4FB00204EB010BD506809F0CEFBDF
:10587C000022ADF8002128B16A4606492046FFF700
:10588C0097FFEFE76A4604492046FFF791FFE9E7E7
:10589C00141A020001390000B12D000000B5CFB080
:1058AC00012906D0054909F0D1FB00204FB05DF865
:1058BC0004FB6A460249FFF77BFFF6E7141A020065
:1058CC008534000000B5CFB0012906D0054909F098
:1058DC00BDFB00204FB05DF804FB6A460249FFF7A0
:1058EC0067FFF6E7141A0200E126000000B5CFB0FE
:1058FC00012906D0054909F0A9FB00204FB05DF83D
:10590C0004FB6A460249FFF753FFF6E7141A02003C
:10591C00ED24000000B5CFB0012906D0054909F0EF
:10592C0095FB00204FB05DF804FB6A460249FFF777
:10593C003FFFF6E7141A0200E521000000B5CFB0D6
:10594C00012906D0054909F081FB00204FB05DF814
:10595C0004FB6A460249FFF72BFFF6E7141A020014
:10596C002524000000B5CFB0012906D0054909F067
:10597C006DFB00204FB05DF804FB6A460249FFF74F
:10598C0017FFF6E7141A0200552E000000B5CFB031
:10599C00012906D0054909F059FB00204FB05DF8EC
:1059AC0004FB6A460249FFF703FFF6E7141A0200EC
:1059BC006130000010B50446022904D00B4909F0EF
:1059CC0045FB002010BD506809F020FB002814BFD7
:1059DC004FF0FF320022064B1A6014BF054A064AEC
:1059EC000649204609F064FBEBE700BF141A0200DD
:1059FC001C7217A0301A0200341A0200381A020066
:105A0C0030B5C3B00446012906D0414909F01EFB4C
:105A1C000025284643B030BD41A93E4816F0C7FDCD
:105A2C0000286ED14FF480224FF4E001419816F01B
:105A3C0006FE002834D1802301AA4FF4E0014198DE
:105A4C0016F0D9FD002832D101AB21A913F8012B96
:105A5C00FF2A33D18B42F9D106232F4A2F49419883
:105A6C0016F0DBFD88BB06232D4A2E49419816F013
:105A7C00D4FD88BB802301AA2849419816F0BBFDB0
:105A8C0088BB0C22284901A819F06BFB054688BB82
:105A9C002649204609F0DAFA419816F09FFDB8E73E
:105AAC002349204609F0D2FA4FF0FF35B1E72149DE
:105ABC00204609F0CBFA4FF0FF35AAE71E492046E5
:105ACC0009F0C4FA4FF0FF35A3E71C49204609F052
:105ADC00BDFA4FF0FF359CE71849204609F0B6FA9D
:105AEC004FF0FF3595E71349204609F0AFFA4FF018
:105AFC00FF358EE71249204609F0A8FA4FF0FF3522
:105B0C0087E71049204609F0A1FA002581E700BF7C
:105B1C00141A0200C014020080140200FCFF73006F
:105B2C00881402000200740090140200B4190200E0
:105B3C004C1A02006C1A0200881A0200A01A020009
:105B4C00C01A0200E01A02002DE9F04F89B0009053
:105B5C0014460139062900F2DD82DFE811F0D50286
:105B6C00DB02DB02CA020700DB02BF00506809F04F
:105B7C004DFA0546A06809F049FA8146E06809F03B
:105B8C0045FA8046206909F041FA0646E8B2FDF76D
:105B9C000DFD0746002862D05FFA88F0FDF706FD80
:105BAC000446002863D049EA052080B216F056FE60
:105BBC000546B0F1FF3F62D046EA082080B216F0ED
:105BCC004DFE0546B0F1FF3F5ED05FFA86F82368C4
:105BDC001B6B0022414620469847012505FA06F624
:105BEC0023681B6A31462046984723685B6B00226A
:105BFC0041462046984705FA09F53B685B6A2946F9
:105C0C00384698473B68DB692946384698473B68D5
:105C1C005B6B00225FFA89F138469847322013F00B
:105C2C00FBFB2368DB6A07AA3146204698473B6892
:105C3C009B6A294638469847322013F0EDFB2368BF
:105C4C00DB6A06AA314620469847079B43B3069B5E
:105C5C00FBB91B49009809F02BFA002550E22A46A3
:105C6C001849009809F024FA4FF0FF3548E24246F3
:105C7C001449009809F01CFA4FF0FF3540E2124924
:105C8C00009809F015FA3BE21049009809F010FA57
:105C9C0036E20F49009809F00BFA4FF0FF352FE26E
:105CAC00069B33B10B49009809F002FA4FF0FF350F
:105CBC0026E20949009809F0FBF94FF0FF351FE285
:105CCC00B4190200FC1A0200141B02003C1B020057
:105CDC00641B02008C1B0200781B0200506809F048
