:1000000010090010010300001B0300007C03000026
:100010001D0300001F03000021030000FBE3FFEFAE
:10002000000000000000000000000000F98A01004C
:100030002503000000000000518B0100958B01009A
:100040006154010071540100815401009154010078
:10005000A1540100B1540100C1540100D154010068
:10006000E1540100F1540100015501001155010056
:100070002155010031550100415501005155010044
:100080006155010071550100815501009155010034
:10009000A1550100B1550100C1550100D155010024
:1000A000E1550100F1550100015601001156010012
:1000B0002156010031560100415601005156010000
:1000C00061560100715601008156010091560100F0
:1000D000A1560100B1560100C1560100D1560100E0
:0400E000E1560100E4
:0402FC00FFFFFFFF02
:10030000DFF88CD023488047DFF884D0224880472C
:1003100022482349016000F045B82FE02EE02DE08F
:100320002CE02BE02AE029E028E027E026E025E089
:1003300024E023E022E021E020E01FE01EE01DE0B9
:100340001CE01BE01AE019E018E017E016E015E0E9
:1003500014E013E012E011E010E00FE00EE00DE019
:100360000CE00BE00AE009E008E007E006E005E049
:1003700004E003E002E001E000E0FFE71EF0040F0C
:100380000CBFEFF30880EFF3098013F0F1B8000021
:1003900000000110498F000009B2010008ED00E0E3
:1003A000000000002C498D462C482D492D4A00F0B4
:1003B00041F82D482D492E4A00F03CF82D482E4991
:1003C0002E4A00F037F82E482E492F4A00F032F816
:1003D0002E482F492F4A00F02DF82F482F49304A38
:1003E00000F028F82F483049304A00F023F8304810
:1003F0003049002200F029F82F483049002200F04F
:1004000024F82F482F49091A0022026004300160A5
:100410001C481D49884205D00268043003B4904747
:1004200003BCF7E700208646EC4600200021264A60
:100430009047FEE7884207D0521A05D00378013072
:100440000B700131013AF9D17047884202D0027035
:100450000130FAE77047000010090010186A040024
:1004600000000010D4000010CC040000CC040000F8
:10047000F8FE0100186A04000000001000000010DF
:10048000F8FE0100F8FE0100F8FE0100F8FE010090
:10049000F8FE0100F8FE0100F8FE0100F8FE010080
:1004A000186A0400EC6A0400D4000010D4000010A4
:1004B00000C012A0C0F512A0C0F512A0C8F512A08D
:0C04C000C8F512A0000080A0138F0000FF
:1004CC00024B4FF0FF321A60704700BF88C012A079
:1004DC002DE9F04F91B0044612F0CAFB0FAA00218F
:1004EC0020461BF0E4FD4F4E4FF4F84307930025D4
:1004FC00069547F6E07705970223049340F2DF1345
:10050C00039340F27F230293019500950F9B4FF4C8
:10051C00F0724FF42071304611F05CFB424C2146D6
:10052C00304611F090FE304611F08FFE80461F22AF
:10053C003E49304611F09CFEADF83450ADF83650C3
:10054C00F369ADF83830336AADF83A303946304695
:10055C0011F07BFB2146304611F075FE0BAF4FF4CA
:10056C00B47239460DA812F0DDFDBDF82CB0BDF803
:10057C002E90BDF83240DFF8B8A04FF4B47251465B
:10058C00384612F0EFFDADF82CB0ADF82E90ADF86A
:10059C003240544634F86039063BADF830300DF13A
:1005AC0024092B4680224946384612F095FD99E8DD
:1005BC00030087E8030008F142022B4692B2494639
:1005CC00384612F043FDBDF824302AF8603CBDF8E3
:1005DC002830A380BDF8263063804033E380154B70
:1005EC00A360154BE360154B2361A561E561A56222
:1005FC002146304612F075F82946304611F027FB9B
:10060C00B4F866300093B4F86430B4F86220B4F8EF
:10061C006010304611F085FA12F03EFBA56611B061
:10062C00BDE8F08F98C012A0C0380400F8FE01009D
:10063C0068C012A01CFF0100CD040000C02D0300F7
:10064C0010B582B0114C0021204611F000FB0021A6
:10065C00204611F0FAFA0021204611F0FBFA0C4B5F
:10066C00196809120B4B1A68121202F10903009354
:10067C0001F109030A3A0A39204611F052FA002115
:10068C00204611F0E7FA02B010BD00BF98C012A0CE
:10069C0094C012A090C012A02DE9F04F8DB0002292
:1006AC004E4B1A604E4B5A679A67DA67DA661A67CE
:1006BC00B3F86020B3F864100A44521049490A6038
:1006CC00B3F86220B3F8663013445B10464A1360EB
:1006DC00464A102101201AF0CFF910B10DB0BDE837
:1006EC00F08F424C424A434920681AF0FCF92246EA
:1006FC000AA941481CF0BAF820B13C4B18681AF012
:10070C00DDF9EBE70BA93D481BF0ADFC28B1374BED
:10071C0019680A981CF017F9EFE709AA00210B9841
:10072C001BF0C5FC08A936481AF0F2FD18B10B985D
:10073C001BF0B0FCEBE7334908981AF0D5FD002804
:10074C00F5D10B98FFF7C4FE1AF09CFA0446234B24
:10075C001B68002BEBD1DFF89490DFF884802A4FD4
:10076C0084E01F4B0022DA661A6710264FF00A0B42
:10077C00DFF890A01D4658461AF0BAF8DAF80000D7
:10078C0003685B69642205A99847EB6E059A1A44C5
:10079C00EA662B6F06990B442B67013EEBD1114691
:1007AC00002AB8BF02F10F0109110D4AD1661A4691
:1007BC00002BB8BF03F10F021211094B1A674FF04F
:1007CC00FF325A671AF05EFA104B186075E04FF45E
:1007DC0096329DE04FF49633A4E000BF88C012A07F
:1007EC0008C012A094C012A090C012A004C012A005
:1007FC004824020024FF010030FF01003CFF0100EF
:10080C0040FF01008CC012A098C012A000C012A022
:10081C00B04200F0E780774B9B6E002B40F0E680F7
:10082C00754B1E60754B1D6033120A3B03932B12E4
:10083C000A3B0493724D04AA03A9284611F019FA35
:10084C00284612F0D1FCBDF81020BDF80C106D48F4
:10085C0012F076FA674B4FF0FF329A6614201AF0BA
:10086C0047F8694B1B68002B7FF461AF0023D9F864
:10087C0000204146384612F02BF9054626461AF060
:10088C0001FA0446002DE9D1B042E7D05F4B18685D
:10089C0003685B69642205A9984705461AF0F2F9CA
:1008AC005B4B1A681860002DD8D1524B5B6F0193CB
:1008BC00002B3FF456AF831A01934E4BD96E059A19
:1008CC00521A0592196F069B5B1A0693019901FB4C
:1008DC0002F2002ABCBF02F57F42FF3212144549D6
:1008EC00896F01EB4222019901FB03F3002BBCBF82
:1008FC0003F57F43FF331B143E49C96F01EB4323C0
:10090C00B2F5963FBFF663AF42498A42B8BF0A467A
:10091C0038498A67B3F5963FBFF65CAF3D498B42C9
:10092C00B8BF0B46DFF8CCC0CCF87C303249086835
:10093C00DDF804A00AFB02F1DFF8DCE08EFB0165B8
:10094C00CE17C6EBA51606442C4909680AFB03F51D
:10095C008EFB05AEED17C5EBAE150D44BCF864C0AF
:10096C00ACF10B0C4FEA0C2EB6EB0C2F06DD02EBA8
:10097C00D272521052421F4EB26776461D4AB2F8DE
:10098C0060200B324FEA022CB6EB022F07DA194E1D
:10099C00B26F02EBD27252105242B2676646154ADF
:1009AC00B2F866200B3A4FEA022CB5EB022F06DDAB
:1009BC0003EBD3735B105B420E4AD36765460D4B5A
:1009CC00B3F862300B334FEA032CB5EB032FBFF6B1
:1009DC001FAF084AD36F03EBD3735B105B42D36733
:1009EC00654615E7A9427FF416AF37E7FFF728FEF7
:1009FC0016E700BF08C012A094C012A090C012A0AD
:100A0C0098C012A080ED020088C012A08CC012A069
:100A1C0000C012A000D4FEFFD34D62107047836952
:100A2C004FF0FF329A6670472DE9F04FABB0044699
:100A3C0000F16C0A29AA002140681BF038FB12F067
:100A4C0017F9052019F054FF04F108084FF4F84386
:100A5C0007930023069347F6E07205920222049254
:100A6C0040F2DF12039240F27F2202920193009334
:100A7C00299B4FF4F0724FF42071404611F0AAF804
:100A8C007849404611F0DFFB774B1B68002B00F0D8
:100A9C00A78023681A680AAD40F2EA7302930A230E
:100AAC00019302230093714B1B68714928461DF07A
:100ABC009DFC1F222946404611F0DAFB00214046DE
:100ACC0011F0C5F8404611F0C0FB05460023ADF807
:100ADC009C30ADF89E30636AADF8A030A36AADF8D7
:100AEC00A230122127A812F085FA23685E689B6851
:100AFC00002B7CD15446BDF8A220BDF89E30D21AF2
:100B0C00A2F23312521B0023C2F34F0221A927A8D1
:100B1C0012F07AFA022325AF0DF18C0BCDF8208060
:100B2C00CDF824A09A463368002B00F09180322334
:100B3C008022394627A812F067FABDF8A020BDF82C
:100B4C009C30D21AA2F2E3120023C2F34F0221A965
:100B5C00384612F09DFA06F1100504F160094FF0C9
:100B6C0032082E4655F8103C002B6BD043468022A1
:100B7C005946384612F08CFABDF88C302380BDF8FB
:100B8C008E306380BDF89030A380BDF89230E38046
:100B9C0055F8103CA36055F80C3CE36055F8083C44
:100BAC00236155F8043CA3610023E361A382203444
:100BBC0010354C45D5D1BAF1010A47D1DDF820806A
:100BCC00DDF824A00023C9F808305146404611F046
:100BDC0088FD1BF007FC002840D02BB0BDE8F08F3F
:100BEC0023681F221968404611F042FB66E705F1A5
:100BFC00420225AF022392B2394627A812F026FAF8
:100C0C00802223A9384612F0ADFABDF88C20A4F846
:100C1C006C20BDF88E30A4F86E307F32A4F87020B2
:100C2C003F33A4F87230134B6367134BA367134B1A
:100C3C00E367C4F884400023C4F88830A4F88030FB
:100C4C008C3458E7A5F11006A146B4E74C466AE788
:100C5C00DDF82080DDF824A0A146B3E712F024F8DB
:100C6C00BBE700BFC038040000D712A004D712A005
:100C7C0048FF01001CFF01002B0A0000C02D0300DF
:100C8C002DE9F04182B005464FF4B6701BF0B0FB75
:100C9C0004466A461021012019F0EEFE08B100232B
:100CAC0000935CB14FF4B672002120461DF099FC04
:100CBC002560009B2BB920461BF0A2FB02B0BDE8BF
:100CCC00F0816A4601A923481BF0D0FD18B10098A9
:100CDC0019F0F4FEEFE7211D1F481BF0C4F920B1F9
:100CEC00009901981BF02FFEF1E72046FFF79CFEC0
:100CFC0004F16C08194F04F1080605E02046FFF7D3
:100D0C0093FE09E03B68BBB9A36EF3B9EB681BB16A
:100D1C00984710F0010FF1D14FF0FF33009A414684
:100D2C00304611F0D5FE0028ECD0A36E002BE9D193
:100D3C002046FFF779FEE5E706F020FB2046FFF79B
:100D4C0073FE064B00221A60D5E760681BF0A2F90F
:100D5C00C6E700BF30FF01003CFF0100F8C012A045
:100D6C0008B58069FFF78CFF08BD000070B504461C
:100D7C000D460E4B1B6883B100201AF0B7F90C4BD3
:100D8C001E6808F09FF82A46B0FBF4F130461BF0C1
:100D9C0066FC00201AF07CF970BD054905481BF073
:100DAC0047FC024B4FF0FF321A60E5E7FCC012A083
:100DBC0000C112A074FF010008B51421FA20FFF73E
:100DCC00D5FF08BD08B54FF4FA716420FFF7CEFFCC
:100DDC0008BD83694FF0FF32C3F8E4207047000070
:100DEC0010B582B004460F4B1B68B3B9002110F04C
:100DFC002EFF47F6E071204610F027FF0A48838843
:100E0C0042880188C08801380090013B01320131D1
:100E1C00204610F086FE02B010BD47F6E07110F0CF
:100E2C0016FFE6E70CC112A010C112A008B5034BC7
:100E3C0000221A601BF0ACFA08BD00BF0CC112A056
:100E4C0000B58FB003A91A481BF00DF9194B1B689C
:100E5C00B3F1FF3F28D0174B4FF0FF321A6041F22D
:100E6C008833059342F21073069347F2305307937D
:100E7C004FF47A730493104B0A93104B0B93104B53
:100E8C000C93104B0D934FF4F07300934FF42073AD
:100E9C007622DC210C4812F0DFF904A903981BF030
:100EAC003BFA0FB05DF804FBFFF7C0FFF9E700BF9A
:100EBC003CFF01000CC112A095320100513301001E
:100ECC00A134010019350100E027020010B50446D9
:100EDC00FFF7B6FFA069FFF783FF10BD2DE9F04FB8
:100EEC0097B04FF48A701BF083FA1A4B1860A8B1B4
:100EFC0004464FF48A7200211DF073FB4FF0FF3350
:100F0C00C4F80431144A1021012019F0B5FD40B188
:100F1C00104C20681BF074FA0023236017B0BDE856
:100F2C00F08F0D4A15A90D481BF0A0FC20B10A4BFF
:100F3C00186819F0C3FDEBE7064B196860310848D7
:100F4C001BF091F870B1044B196815981BF0FBFC61
:100F5C00EDE700BF08C112A004C112A030FF0100D0
:100F6C003CFF0100D74C236803F5887203F58671AA
:100F7C00186E1BF0D5F8246811F07AFE08AA00212F
:100F8C00206E1BF094F84FF4F84307930025069558
:100F9C0047F6E07BCDF814B00223049340F2DF1344
:100FAC00039340F27F23029301950095089B4FF425
:100FBC00F0724FF42071204610F00CFEC24920460E
:100FCC0011F041F9204611F040F9C4F800011F223C
:100FDC00BE49204611F04CF95946204610F035FE1A
:100FEC002946204610F033FEADF82450ADF82650BB
:100FFC00E369ADF82830236AADF82A300DF12409E5
:10100C000821484611F0F6FFD4F8003103F14602EE
:10101C000BAE052392B23146484612F017F80DAFCD
:10102C0096E8030087E80300052380223146384602
:10103C0012F02EF80121304611F0DCFFBDF82C30F7
:10104C00A4F864307F33A4F86830BDF82E30A4F8CF
:10105C0066303F33A4F86A309D4BE3669D4B2367A3
:10106C009D4B6367E467C4F8805097E8030086E8FB
:10107C00030064223946304612F074F8BDF83A3059
:10108C00BDF836209B1A03EBD3735A100632934EDD
:10109C00052392B23146384611F0D8FFB6F80080DD
:1010AC00204611F0D2F808F110088044A6F804800C
:1010BC00B6F80280204611F0C8F808F110088044F8
:1010CC001FFA88F3F3803288A4F88420B288A4F83D
:1010DC0088207288A4F88620A4F88A30804BC4F843
:1010EC008C30804BC4F89030C4F89450C4F89C40B9
:1010FC00C4F8A050BDF82880BDF82430A8EB030834
:10110C00A8F2E318784BA3FB0838C8F34F08434602
:10111C002A463946484611F0BBFF04F1F00A434613
:10112C0054225146484611F0B3FF04F1F80804224A
:10113C004146504612F016F81421404611F03EFF7D
:10114C002B464FF4C8723946484611F0A1FF4FF4B4
:10115C00907204F1E801384611F0E4FF5A49204638
:10116C0011F071F80121204611F0D9F829462046DA
:10117C0010F070FD5946204610F067FD9AE8030008
:10118C0089E80300BDF82A300093BDF82830BDF87B
:10119C002620BDF82410204610F0C3FC98E803006C
:1011AC0089E80300BDF82A300093BDF82830BDF85B
:1011BC002620BDF82410204610F0B3FC2046FFF783
:1011CC000FFE3588204611F040F873884219083319
:1011DC0016324649204610F0FBFF0127DFF810813C
:1011EC003B0288FB0312DE17C6EB2216F60106F44F
:1011FC00F84600253146204610F027FDB4F8EA20C9
:10120C00B4F8E8103A442944204610F075FB013537
:10121C00B5F5C87FEED10137612FE1D10127DFF899
:10122C00D0803B0288FB0312DE17C6EB2216B600F9
:10123C0006F4787600253146204610F006FDB4F809
:10124C00EA203A44B4F8E81060322944204610F001
:10125C0053FB0135B5F5C87FEDD10137612FE0D1D6
:10126C000127DFF88C803B0288FB0312DE17C6EBEC
:10127C002216C6F3C40600253146204610F0E5FCC4
:10128C00B4F8EA203A44B4F8E810C03229442046B5
:10129C0010F032FB0135B5F5C87FEDD10137612F68
:1012AC00E1D147F6E071204610F0CFFC04F1640167
:1012BC00204611F016FA11F0EFFC024E0D4F0FAD57
:1012CC0031E000BF08C112A0C03804007CFF01004F
:1012DC001CFF0100DF0D0000C02D030010C112A087
:1012EC00E01D0200D90E0000ABAAAAAA98FF0100CB
:1012FC00ABAAAA2A04C112A00021C2F80C11106ECC
:10130C001AF000FF604B1B684FF0FF32C3F804214A
:10131C0030682A4600F1640111F034FA3468D4F8CC
:10132C000431002B3CD13368D3F8E420002A40F080
:10133C00A6804FF4FA722946386819F054FC00283C
:10134C00ECD1109B1493119B139313AA14A930681E
:10135C0010F084FC129B012BDAD13268139BB2F88B
:10136C00F2109942D4DCB2F8F6108B42D0DC14990E
:10137C00B2F8F0008842CBDCB2F8F4008142C7DC52
:10138C00B2F8FE008342B7DCC11AD2F8103103FB6D
:10139C0001F1431CB2F8FA001B1AB1FBF3F1ACE7F4
:1013AC000121204610F0BBFFB4F8F880B4F8FAB075
:1013BC00B4F8FC90B4F8FEA004F5887204F58671BC
:1013CC00206E1AF0ADFEAAEB0B02D4F80C3102FB26
:1013DC000333D4F81021B3FBF2F5AAEB0505D4F8CE
:1013EC0008319D422CD08BBB0121204610F032FCE1
:1013FC0047F6E071204610F028FCCDF800A04B46D3
:10140C005A464146204610F08CFBC4F80851002186
:10141C00204610F01FFC47F6E071204610F015FC3A
:10142C000021204610F013FCD4F80821531D009322
:10143C0009F10F03053AA8F10F01204610F071FBDA
:10144C00114B1B680022C3F8042138E70021204609
:10145C0010F000FC0021204610F0F7FB0021204684
:10146C0010F0F5FBD4F80821531D009309F10F037C
:10147C00053AA8F10F01204610F053FBB4E7186EA3
:10148C001AF008FE5FE500BF08C112A0F0B583B0EA
:10149C0006460C4615464FF4F843019302F1080337
:1014AC00009301F10803083A083911F02BFC0027CE
:1014BC000197AB1D0093A31DAA1FA11F304611F06D
:1014CC0021FC47F6FF7301932B1D0093231D2A1F4C
:1014DC00211F304611F016FC0197AB1C0093A31C86
:1014EC00AA1EA11E304611F00DFC03B0F0BD000089
:1014FC0030B5A3B021A941481AF0B5FD08B123B00D
:10150C0030BD21981AF0F1FD4FF4807121981AF03A
:10151C00F9FD11F0ADFB20AA002121981AF0C7FDAE
:10152C0008AC4FF4F84307930023069347F6E07298
:10153C0005920222049240F2DF12039240F27F22C3
:10154C00029201930093209B4FF4F0724FF42071A0
:10155C00204610F03FFB2A49204610F074FE1F2253
:10156C002849204610F084FE204610F06EFE84B20E
:10157C00254B1B78012B24D008AD23464FF4207249
:10158C002249284610F030FE63004FF420722049A7
:10159C00284610F029FEC4F178039B004FF420720A
:1015AC001C49284610F020FEA4EB840404F5F073CB
:1015BC004FF420721849284610F016FE11F06CFBFF
:1015CC009DE708AD23464FF420721449284610F0CD
:1015DC000BFEC4F178039B004FF420720D49284692
:1015EC0010F002FEA4EB840404F5F0734FF42072A7
:1015FC000949284610F0F8FDE0E700BF3CFF010068
:10160C00C0380400ACFF01001CC112A02C00020069
:10161C0050000200ECFF010010000200C4FF0100AA
:10162C002DE9F04F97B004908B4600234FF0FF3715
:10163C00DFF874A2099715469C4A137058461BF0A4
:10164C00CDF81DB99A4B1B68032B09D0FFF750FF3F
:10165C00984F974B0393002308930DF1480974E0BE
:10166C00944E954C3246214658461BF0D1F806F163
:10167C00100204F1100158461BF0CAF806F12002C2
:10168C0004F1200158461BF0C3F858461BF0B3F880
:10169C000446854B1B680995D2E0002313931493E1
:1016AC000136204619F024F9032E40F2E380AD08F0
:1016BC0013954FEA98031493079A494658461BF022
:1016CC00A7F8039B1C1D99E80F0084E80F00089DE8
:1016DC006C1C774B1C60FFF76FFBBDF81410BDF84A
:1016EC0018200023019302F10803009301F1080371
:1016FC00083A0839049811F005FB25B1DAF80030E6
:10170C00E3B9322510E0FFF7F3FEDAF80030002BD6
:10171C00F7D01037039B1033039315E0284619F0CC
:10172C00E7F8DAF800304BB9494658461AF0EEFFA4
:10173C000028F3D1129B13F0010FEFD1032C75D0BD
:10174C001037039B10330393089407977B6805931A
:10175C00BA68069292B299B20498FFF797FE0025E8
:10176C000295A8462E46322484E0DFF850910DF104
:10177C00280812AD32260394059717E0304619F06D
:10178C00B7F8294658461AF0C1FF0028F6D1129B2B
:10179C0013F0010FF2D14FF4967019F0A9F809F17A
:1017AC00100908F1100812AB984526D0D9F804306E
:1017BC000293D9F80870BAB299B20498FFF766FE92
:1017CC004446214658461AF0A1FF0028F9D1236857
:1017DC0013F0010FF5D0FFF7EFFABDF80810BAB20D
:1017EC000023019302F10803009301F10803083A66
:1017FC000839049811F086FAC3E7039C059F0B9AED
:10180C00A2F23622302A1BD80C9AA2F5CB72302ABF
:10181C0016D80F9AA2F59472302A11D8109AD83A89
:10182C00099B302A98BF3B46099309E058461AF0A9
:10183C00E2FF0446DAF80070002F96D000230993DB
:10184C00DAF800306BB94FF0FF350123002C7FF430
:10185C00F3AE099A002A7FF4EFAE154B9A6402F0AE
:10186C00F9FD17B0BDE8F08F4FF0FF33029320461F
:10187C0019F03EF8494658461AF048FF0028F6D1B0
:10188C00DAF80030B3F1FF3F3FF407AF129B13F0CF
:10189C00010FE9D0029B002BE9D0139B1D44149B34
:1018AC0098440136FDE600BFF8C012A01CC112A07E
:1018BC0010D612A06C24020014D612A04C240200E4
:1018CC0010B584B00446184A1021012019F0D4F840
:1018DC0010B1002004B010BD134A03A913481AF02C
:1018EC00C5FF20B1104B186819F0E8F8F1E702A910
:1018FC000F481AF0B8FB28B10B4B196803981BF072
:10190C0022F8EFE701AA002102981AF0D0FB094B4C
:10191C009B6C002B0CBF22464FF0FF3203990198B1
:10192C00FFF77EFEE8E700BF18C112A030FF0100F0
:10193C003CFF010010D612A070B586B0002205A99C
:10194C0012481AF093FFE8B9052401AD3226294656
:10195C0005981AF0DBFE019B13F0010F10D03046F6
:10196C0018F0C6FF013CF2D14FF0FF34002105986E
:10197C001AF0E9FF0A2018F0BBFF204606B070BD34
:10198C000024F3E74FF0FF34F7E700BF30FF01000E
:10199C0008B54FF0FF30FFF793FF08BD704700000C
:1019AC002DE9F84F274B186808B9BDE8F88F4FF0B0
:1019BC00FF3119F013F8244C2449204610F043FC55
:1019CC000021204610F0ABFC0021204610F044F919
:1019DC004FF47871204610F038F9DFF874B0DFF866
:1019EC0074A04FF0140927461EE0424621463846A3
:1019FC0010F0B6FA2978384610F023FB2B783370A8
:101A0C000834B4F5167F06D015F8012F16F8013FEF
:101A1C009A42F5D0E9E709F108090BF1330B0AF109
:101A2C00330AB9F5D27F04D0C84656465D46C02469
:101A3C00EAE70121044810F072FC024B186818F018
:101A4C00E7FFB2E724C112A01CD512A0B0260400F7
:101A5C0023CB12A02BC112A070B5124901F6C316EC
:101A6C000B4633310A4601F1300015685468D2F840
:101A7C0008E0D2F80CC01D605C60C3F808E0C3F845
:101A8C000CC0103210338242EFD11088927818803B
:101A9C009A70B142E4D13322202103481CF0A1FDFD
:101AAC0070BD00BF24CB12A0E7D412A038B50446F9
:101ABC003B4B186800B938BD4FF0FF3118F08EFF62
:101ACC00384B1B88322B02D9364B00221A80364BEE
:101ADC001D88312D0AD900221A80A4F10803052B88
:101AEC003FD8DFE803F02B3E593E0C27A4F1080346
:101AFC00052B36D8DFE803F022351335031E40F6EC
:101B0C00F612202129481CF06CFD0023254A138075
:101B1C00254A1380224B186818F07AFFCBE76B1C10
:101B2C009BB2214A1380312BF4D9FFF795FF1E4B42
:101B3C001D80EFE71B4B00221A80EBE7194B1B882B
:101B4C00002BE7D0013B9BB2164A1380164A128831
:101B5C0002EB420202EB021214490A442021D15436
:101B6C00D8E7114B1D880F48038805EB450202EBA3
:101B7C0002120E490A44D45401339BB20380322B17
:101B8C00C8D96B1C9BB2084A1380312BC2D9FFF702
:101B9C0063FF054B1D80BDE7034B01221A80B9E79B
:101BAC0024C112A02AC112A028C112A024CB12A0B9
:101BBC0010B50446007828B1FFF778FF14F8010F30
:101BCC000028F9D110BD00002DE9F0478CB0044677
:101BDC0011F04EF80BAA002120461AF068FA414C7D
:101BEC004FF4F84307930023069347F6E0750595E9
:101BFC000222049240F2DF12039240F27F22029200
:101C0C00019300930B9B4FF4F0724FF4207120461C
:101C1C000FF0E0FF3449204610F015FB1F2233492A
:101C2C00204610F025FB2946204610F00EF8304EC9
:101C3C00DFF8C080A146B2463369002B49D0338807
:101C4C000A937388099309AA0AA9264810F011F877
:101C5C00BDF82420BDF82810306911F071F898F8FF
:101C6C000010002451B1454600241E4F384610F098
:101C7C00F0FA044415F8011F0029F7D1BAF8063020
:101C8C00BAF80020BAF804100A4464080233C4EB12
:101C9C0062024146484610F09BFA2036D6F808807E
:101CAC00B8F1000FC7D10F4C002120460FF0CFFF29
:101CBC004FF4D27300934FF418731222BE212046B6
:101CCC000FF02FFFFFF76CFE10F0E6FF0CB0BDE835
:101CDC00F087F3880093B3887288318801480FF03D
:101CEC0020FFBCE71CD512A0C03804007400020011
:101CFC00BC2402001CFF010010B582B040F6F614A3
:101D0C002246002121481CF06CFC22462021204850
:101D1C001CF067FC00231F4A13801F4A13801F4AC4
:101D2C001021012018F0A8FE08B102B010BD1B4A0A
:101D3C0069461B481AF09AFD20B1184B186818F028
:101D4C00BDFEF2E701A917481AF08DF998B9164BA8
:101D5C001B68B3B10198FFF737FF1448FFF728FF52
:101D6C00FFF71EFEFFF72EF84FF4FA6018F0C0FDD7
:101D7C0001981AF08FF9094B196800981AF0E3FDD5
:101D8C00DBE7094818F0C2FDE4E700BF2CC112A044
:101D9C0024CB12A028C112A02AC112A020C112A0CB
:101DAC0030FF01003CFF010024C112A09C00020086
:101DBC00014B01221A60704784D512A010B582B075
:101DCC000A4C0B4B198820460FF041FF47F6E07187
:101DDC0020460FF03AFF51230093A1231222222117
:101DEC0020460FF09EFE02B010BD00BF88D512A099
:101DFC000000001008B5084B1B780133DBB2062B32
:101E0C0028BF0023044A1370044A32F81320044BF1
:101E1C001A80FFF7D3FF08BD80D512A0FC24020066
:101E2C00000000102DE9F04F89B005466C481AF0FF
:101E3C00DFFA03906B4C012120460FF00BFF47F6A5
:101E4C00E07120460FF001FFEB880093AB886A88A5
:101E5C00298820460FF065FE07AA0321624819F075
:101E6C0003FB002850D1DDF80CA04FF013090DF145
:101E7C00140806AF5B4ED346CA46A9465D46CF242E
:101E8C000694CDF814A04246394630460FF0F1FEC8
:101E9C00012300932B46059A069930460FF0EAFF72
:101EAC000235013440F25F239C42E9D10BF5487BAB
:101EBC000AF1010A40F2A3139A45DFD14D4604AB57
:101ECC00474A0399079819F04CFB18B1444B049AF4
:101EDC009A424FD1079819F001FB424C0121204640
:101EEC000FF0B8FE002120460FF0AFFEEB880093F8
:101EFC00AB886A88298820460FF013FE03981AF0E5
:101F0C007FFA09B0BDE8F08F074607AA03213748CE
:101F1C0019F0AAFA04460028A5D0354B19684FF4DD
:101F2C001622881811F03EF9FEF74CFF2D4E0021B9
:101F3C0030460FF08FFE002130460FF088FE47F63A
:101F4C00E07130460FF081FE2223009340F25F23B4
:101F5C001222CE2130460FF0E4FD092F0DD00D2FAB
:101F6C0027D10D2C1ED01423D02222491D4810F04D
:101F7C002FF924E0FEF726FFACE70D2C0BD0092C33
:101F8C004FF014034FF0D0020CBF1B491B491548EE
:101F9C0010F01EF913E01423D0221949304610F02A
:101FAC0017F90CE01423D02216490E4810F010F942
:101FBC0005E01423D02214490A4810F009F9012134
:101FCC0008480FF047FE4FF4FA6018F091FC084BEC
:101FDC0018684FF41622811811F0E4F87DE700BF61
:101FEC0000E2040088D512A0B4000200C000020078
:101FFC000400001058010200F00002001801020059
:10200C00CC00020038010200740102002DE9F04FEF
:10201C008BB005468C481AF0EBF903908B4C0121E0
:10202C0020460FF017FE47F6E07120460FF00DFE2C
:10203C00EB880093AB886A88298820460FF071FDE5
:10204C0009AA0121824819F00FFA814640B109AA68
:10205C000121804819F008FA0446002840F09C80C1
:10206C0006AB794A0399099819F064FA0446099861
:10207C0019F034FA5CB1744B069A9A4204D1DDF82B
:10208C000CA04FF0130B06E0FEF79CFE32E0DDF8DF
:10209C000CA04FF0130B0DF11C0808AF6B4ECDF8D4
:1020AC0010900594D146DA46AB46A9F10205CF242F
:1020BC000894CDF81CA04246394630460FF0D9FDA5
:1020CC0035F8023F079A089930460FF0DDFD0134D0
:1020DC0040F25F239C42EBD109F548790AF1010AE1
:1020EC0040F2A3139A45E0D1DDF81090059C5D46B3
:1020FC00002C3AD0584B19684FF41622881811F05E
:10210C0051F8FEF75FFE514C002120460FF0A2FD66
:10211C00002120460FF09BFD47F6E07120460FF0A2
:10212C0094FD2223009340F25F231222CE212046FD
:10213C000FF0F7FCB9F1090F71D0B9F10D0F7CD08C
:10214C001423D0224549414810F042F801213F4860
:10215C000FF080FD4FF4FA6018F0CAFB3E4B186884
:10216C004FF41622811811F01DF8384C012120462D
:10217C000FF070FD002120460FF067FDEB880093F7
:10218C00AB886A88298820460FF0CBFC03981AF09C
:10219C0037F90BB0BDE8F08F2F4B19684FF41622AE
:1021AC00881810F0FFFFFEF70DFE284E0021304678
:1021BC000FF050FD002130460FF049FD47F6E0715D
:1021CC0030460FF042FD2223009340F25F2312228F
:1021DC00CE2130460FF0A5FCB9F1090F0DD0B9F1A5
:1021EC000D0FADD10D2C21D0092C26D11423D022CA
:1021FC001B4916480FF0ECFFA8E70D2C08D0092C52
:10220C000DD11423D022174910480FF0E1FF9DE7A0
:10221C001423D022144930460FF0DAFF96E714232A
:10222C00D022114909480FF0D3FF8FE71423D02295
:10223C000E4906480FF0CCFF88E71423D0220B4937
:10224C0002480FF0C5FF81E700E2040088D512A018
:10225C00B4000200C0000200040000101C020200C6
:10226C00F8010200A801020084010200D80102005A
:10227C00A0F1CF0CBCF5C87F1AD2A1F1130CBCF5A0
:10228C00C87F15D2A2F1CF0CBCF5C87F10D2A3F138
:10229C00130CBCF5C87F0BD200B583B0009313466A
:1022AC000A46014603480FF039FB03B05DF804FB06
:1022BC00704700BF88D512A008B5A0F1CF03B3F5C5
:1022CC00C87F09D2A1F11303B3F5C87F04D20A4623
:1022DC00014602480FF010FB08BD00BF88D512A0C4
:1022EC0070B58AB009AA002119F0E1FE10F0C0FC0B
:1022FC001E4C4FF4F84307930025069547F6E076FD
:10230C0005960223049340F2DF13039340F27F23DC
:10231C00029301950095099B4FF4F0724FF42071D4
:10232C0020460FF057FC124920460FF08CFF1F225D
:10233C00104920460FF09CFF314620460FF085FCDB
:10234C000D49204610F0CDF9294620460FF07FFCB0
:10235C0040F2A313009340F25F231222CE212046B9
:10236C000FF0DFFB10F098FC0AB070BD88D512A0FE
:10237C00C038040028020200082502002DE9F04FA5
:10238C0091B0864B00221A60854A1021012018F06A
:10239C0073FB10B111B0BDE8F08F814A0EA98148D2
:1023AC001AF064FA20B17E4B186818F087FBF1E73D
:1023BC000FA97D4819F057FE28B1794B19680E9872
:1023CC001AF0C1FAEFE70BAA00210F9819F06FFE73
:1023DC000F98FFF785FFFFF7F1FC4FF0FF3130202E
:1023EC0004F080FC0026B246B1466C4C6C4D0DF1ED
:1023FC001C082768002F40F0CD804FF0FF3241467B
:10240C00286818F0F0FB0028F3D1089B0D93099B6A
:10241C000C930CAA0DA965480FF020FC0D9BCF3B2B
:10242C00B3F5C87F80F0AC800C9B133BB3F5C87F31
:10243C0080F0A6800A9B012B01D0B946D7E719F092
:10244C00C9FF5B4B1988002940F0858057480FF075
:10245C00FCFBB9F1000F50D0DDF834900C9F0AF161
:10246C00FF308046711E09F1FF3B7B1E02935A46DA
:10247C000591FFF7FDFE3B465A463146CDF81080DC
:10248C004046FFF7F5FE721C114607F10108434662
:10249C005A4603910498FFF7EBFE029B4A46DDF87F
:1024AC0014B059465046FFF7E3FE3B464A463146C8
:1024BC005046FFF7DDFE43464A4603995046FFF768
:1024CC00D7FE0AF1010A09F10109029B4A46594655
:1024DC005046FFF7CDFE3B464A4631465046FFF785
:1024EC00C7FE43464A4603995046FFF7C1FEDDF846
:1024FC0034A00C9E4FF0FF3979E70D9E0C9F06F12E
:10250C00FF3A07F1FF3949465046FFF7D5FE3946E9
:10251C005046FFF7D1FE07F1010841465046FFF740
:10252C00CBFE49463046FFF7C7FE39463046FFF72B
:10253C00C3FE41463046FFF7BFFE013649463046E2
:10254C00FFF7BAFE39463046FFF7B6FE4146304635
:10255C00FFF7B2FECBE715480FF077FBB9F1000F90
:10256C0008D00C9B00930D9B324651460F480FF040
:10257C00D5F9BCE70C9A0D990C480FF0BDF9B6E7EC
:10258C0007AA0C49094810F0FDF80A9B002B08BF5C
:10259C00B9462CE70F9819F07DFD0EE784D512A0F3
:1025AC007CD512A030FF01003CFF010088D512A0A1
:1025BC00000000100825020038B505460C46B2F59F
:1025CC00004F20D0102A33D0002A30D1486E18F09A
:1025DC0067FBB0F57A7F2AD318F054FB606604F1E0
:1025EC0068020121714818F03FFF102800F2C180E9
:1025FC00DFE800F022BFBFBF6CBFBFBFBF8F3DBFC6
:10260C00BF80BFBF9E008368694A0021204698475F
:10261C00AB68684A012120469847AB68664A02219C
:10262C002046984718F02EFB60660023E36638BD01
:10263C00436908469847FAE7AB68604A022120468E
:10264C009847A06E18F04AFF002302221946204634
:10265C00D5F80CC0E0472B69022120469847584B0F
:10266C001A889B78A4F8022184F80431DFE7AB6860
:10267C00544A022120469847534B07CBC4F8020119
:10268C00C4F80611C4F80A211A889B78A4F80E2104
:10269C0084F81031E36E0133E3660E2BC7D9AB68B7
:1026AC004A4A022120469847002303221946204615
:1026BC00D5F80CC0E0472B69032120469847444BC2
:1026CC0003CBC4F80201C4F80611B0E7AB68414A69
:1026DC00022120469847404B07CBC4F80201C4F8AE
:1026EC000611C4F80A211A889B78A4F80E2184F8E4
:1026FC001031CFE7AB68394A022120469847384B56
:10270C0003CBC4F80201C4F806111B88A4F80A31E3
:10271C00C0E7AB68334A022120469847324B03CBC3
:10272C00C4F80201C4F806111B88A4F80A31B1E7F9
:10273C00AB682E4A022120469847DFF8B4C0BCE8AB
:10274C000F00C4F80201C4F80611C4F80A21C4F839
:10275C000E319CF8003084F8123100230322194604
:10276C002046D5F80CC0E0472B690321204698473A
:10277C0090E7AB681D4A0221204698471D4B07CBBA
:10278C00C4F80201C4F80611C4F80A211B88A4F885
:10279C000E310023032219462046D5F80CC0E04721
:1027AC002B6903212046984774E700BFBC02020046
:1027BC005C02020078020200AC020200D0020200AD
:1027CC0060160200E802020008030200D4030200B3
:1027DC00EC03020018030200380302004803020055
:1027EC0064030200700302008C03020098030200D1
:1027FC00B0030200C4030200B2F5004F00D07047D2
:10280C0038B505460C46002184F86C108368264ABE
:10281C002046984704F16401244818F079FDC8B1AA
:10282C00AB68234A0021204698470023032219460F
:10283C002046D5F80CC0E0472B6903212046984769
:10284C001C4B03CBC4F80201C4F806111B88A4F876
:10285C000A3138BD04F16801606E18F045FD00289E
:10286C00DED1A06E03685B6940F6C41204F17001FE
:10287C0098470028D4D1AB680F4A002120469847CE
:10288C000023022219462046D5F80CC0E0472B69DC
:10289C00022120469847094B1A889B78A4F80221FC
:1028AC0084F80431D5E700BFF403020040FF0100B7
:1028BC0010040200380402004404020060160200F6
:1028CC00F0B583B005460C46B2F5004F4BD0002A4C
:1028DC0067D1886E03681B6901A99847002870D1DD
:1028EC00019A636F9342B8BF6267236F9A42B8BF75
:1028FC00226782EAE273A3EBE273C3F3423304F17F
:10290C007807C3EB431103EB8106334612145F497E
:10291C0038461BF06BFDAB683A46002120469847C1
:10292C00C82017F0E5FFE36E0133E366052B38D9B9
:10293C00226FB2F5702F57DB626FB2F5201F7CDC73
:10294C00EF680023022219462046B8472B69022162
:10295C00204698473346BDF906204D4904F5817051
:10296C001BF044FD1DE083684A4A0021204698472D
:10297C0004F16401484818F0CBFCA0B1EE680023C8
:10298C00032219462046B0472B690321204698475D
:10299C00424B03CBC4F80201C4F806111B88A4F8FF
:1029AC000A3103B0F0BD04F16801606E18F09CFCB4
:1029BC000028E3D14FF4C813236763670023E36651
:1029CC00EFE7EE680023032219462046B0472B6937
:1029DC00032120469847324B07CBC4F80201C4F8B8
:1029EC000611C4F80A21DCE7019282EAE273A3EB38
:1029FC00E273C3F34233C3EB431103EB810633465B
:102A0C001214284938461BF0F1FCAB683A460021F9
:102A1C0020469847EF680023032219462046B84702
:102A2C002B690321204698473346BDF906201E49E1
:102A3C0004F581701BF0DAFCB3E7019282EAE273D1
:102A4C00A3EBE273C3F34233C3EB431103EB8106F5
:102A5C0033461214154938461BF0C8FCAB683A468D
:102A6C00002120469847EF68002303221946204690
:102A7C00B8472B690321204698473346BDF90620F9
:102A8C000B4904F581701BF0B1FC8AE79804020035
:102A9C003805020068040200840402008C03020062
:102AAC008C040200BC040200E8040200FC040200D6
:102ABC00280502002DE9F0418AB005460C46164661
:102ACC006946704818F024FC60B1EE6800230322BC
:102ADC0019462046B0472B690321204698470AB077
:102AEC00BDE8F08101A9009818F0FEFB002834D154
:102AFC00B6F5004F3CD0002EF1D102AE20273A465D
:102B0C00002130461BF06DFD01980368D3F814804A
:102B1C003B4632464121C047002800F08B80EE68CE
:102B2C000023032219462046B0472B690321204677
:102B3C009847554B03CBC4F80201C4F806111A8808
:102B4C009B78A4F80A2184F80C31019803689C69DD
:102B5C0020234E4A4121A047C1E7EE6800230322FF
:102B6C0019462046B0472B69032120469847B6E703
:102B7C00AB68474A002120469847019803685E6974
:102B8C002023424A4121B047B0B1EE680023032212
:102B9C0019462046B0472B690321204698473A4BEB
:102BAC0003CBC4F80201C4F806111A889B78A4F868
:102BBC000A2184F80C3192E702AF2022AA21384670
:102BCC001BF00FFD019803689E6920233A464121B2
:102BDC00B04706462022552138461BF002FDAEB107
:102BEC0001238DF80830EE68002303221946204695
:102BFC00B0472B69032120469847264B07CBC4F8D6
:102C0C000201C4F80611C4F80A2168E701980368A8
:102C1C009E69142302AA4321B04701238DF8083082
:102C2C000028E0D1019803689C69012302AA46217F
:102C3C00A04754E7202202A917481BF062FB50B9A9
:102C4C00EE680023022219462046B0472B69022168
:102C5C002046984779E7EE68002303221946204660
:102C6C00B0472B690321204698470C4B07CBC4F87F
:102C7C000201C4F80611C4F80A211B7884F80E313D
:102C8C0063E700BF4405020060050200E8D512A00E
:102C9C004C0502006C050200A82502007805020014
:102CAC0003460120186000BF00BF00BF00BF00BF7B
:102CBC0000BF00BF00BF00BF00BF00BF00BF00BF10
:102CCC0000BF00BF00BF00BF00BF00BF00BF00BF00
:102CDC0000BF00BF00BF00BF00BF00BF00BF00BFF0
:102CEC0000BF00BF00BF00BF00BF00BF00BF00BFE0
:102CFC0000BF00BF00BF00BF00BF00BF00BF00BFD0
:102D0C0000BF00BF00BF00BF00BF00BF00BF00BFBF
:102D1C0000BF00BF00BF00BF00BF00BF00BF00BFAF
:102D2C0000BF00BF00BF00BF00BF00BF00BF00BF9F
:102D3C0000BF00BF00BF00BF00BF00BF00BF00BF8F
:102D4C0000BF00BF00BF00BF00BF00BF00BF00BF7F
:102D5C0000BF00BF00BF00BF00BF00BF00BF00BF6F
:102D6C0000BF00BF00BF00BF00BF00BF00BF00BF5F
:102D7C0000BF00BF00BF00BF00BF00BF00BF00BF4F
:102D8C0000BF00BF00BF00BF00BF00BF00BF00BF3F
:102D9C0000BF00BF00BF00BF00BF00BF00BF00BF2F
:102DAC0000BF00BF00BF00BF00BF00BF00BF00BF1F
:102DBC0000BF00BF00BF00BF00BF00BF00BF00BF0F
:102DCC0000BF00BF00BF00BF00BF00BF00BF00BFFF
:102DDC0000BF00BF00BF00BF00BF00BF00BF00BFEF
:102DEC0000BF00BF00BF00BF00BF00BF00BF00BFDF
:102DFC0000BF00BF00BF00BF00BF00BF00BF00BFCF
:102E0C0000BF00BF00BF00BF00BF00BF00BF00BFBE
:102E1C0000BF00BF00BF00BF00BF00BF00BF00BFAE
:102E2C0000BF00BF00BF1A68824202D140007FF48D
:102E3C0039AF7047F0B502468908013911F0010E1F
:102E4C003CD073464FF0AA3042F823005B00194285
:102E5C00FAD14FF055331360734602EB830052F8EE
:102E6C002340B4F1AA3F14D15B001942F5D14FF0C5
:102E7C00AA331360F4464FF055361F4610E05B0042
:102E8C00194207D052F82340B4F1AA3FF7D063455A
:102E9C00F5D0F0BD57514FEA4C0C11EA0C0F0BD08A
:102EAC004FEA8C0502EB8C0042F82C601368B3F1EE
:102EBC00AA3FEED17346E5E70020EAE74FF0553321
:102ECC0003604FF0AA3303600020E2E7032928D9FE
:102EDC0010B502464FEA910C8646012340F8043B9C
:102EEC009C4503F10103F9D8012300E00B46104681
:102EFC001168994214D1D94342F8041B591C9C45C2
:102F0C00F4D800236FF001047046DEF80010E21ACA
:102F1C00914205D101330EF1040E9C45F4D80020EA
:102F2C0010BD002070470000B2F5004F00D0704774
:102F3C0070B505460C4683682A4A002120469847FE
:102F4C0015F0E6FD4FF02040FFF7AAFE064615F0FF
:102F5C00EFFDB6B1AB68244A012120469847002307
:102F6C00032219462046D5F80CC0E0472B690321F3
:102F7C002046984732461D4904F581701BF036FAFD
:102F8C0070BD15F0C5FD4FF400014FF02040FFF768
:102F9C0051FF064615F0CCFD002EDBD115F0B8FD27
:102FAC004FF400014FF02040FFF790FF064615F05C
:102FBC00BFFD002ECED1AB680D4A012120469847AB
:102FCC00EE680023022219462046B0472B690221E5
:102FDC00204698474FF40002064904F581701BF017
:102FEC0005FACDE788050200B4050200CC05020005
:102FFC009C050200AC050200F0B5C3B006460C46B9
:10300C0015468368534A012120469847524B03CBFF
:10301C00C4F80201C4F806111B88A4F80A3141AAAD
:10302C001021284618F058FB002874D104F581773C
:10303C00419B512B03D040F2E93043B0F0BD41AA83
:10304C001121284618F048FB002867D1419B522BD0
:10305C0002D040F2E930F0E741AA1221284618F0DC
:10306C003BFB00285DD1419B592B02D040F2E9304B
:10307C00E3E73A4B07CBC4F802017960BA60B36856
:10308C00374A0121204698474FF480224FF4E00143
:10309C00284618F011FB002846D1802301AA4FF4D2
:1030AC00E001284618F0E4FA002840D101AB21A930
:1030BC0013F8012BFF2A3DD18B42F9D1294B07CBB9
:1030CC00C4F802017960BA60B368274A012120462E
:1030DC0098470623254A2649284618F0DBFA60BB98
:1030EC000623244A2449284618F0D4FA40BB8023EE
:1030FC0001AA1F49284618F0BBFA20BB0C221F4915
:10310C0001A81BF0FEF808BB1D4B1A889B78A4F88D
:10311C000221BB7091E740F2E9308EE740F2E930D2
:10312C008BE740F2E93088E740F2EA3085E740F27D
:10313C00EA3082E740F2EB307FE74FF47B707CE7BC
:10314C004FF47B7079E74FF47B7076E74FF47B702C
:10315C0073E700BFD40502008C030200E4050200F3
:10316C00F0050200000602000C0602001C0602001C
:10317C00FCFF710024060200020072002C06020003
:10318C0060160200F0B591B00C4600230193ADF827
:10319C000830B2F5004F01D011B0F0BD0546836880
:1031AC001E4A0021204698470FA91D4818F03CFAEA
:1031BC00C8B903A90F9818F09FFA039B0F9A2146E0
:1031CC002846FFF719FF06460F9818F044FA66B91F
:1031DC00EE680023022219462046B0472B690221D3
:1031EC0020469847D8E74FF47A7604F16407C6F383
:1031FC000E020C4938461BF0F9F8AB683A4602212E
:10320C0020469847EE680023032219462046B04713
:10321C002B69032120469847BEE700BF3C060200FD
:10322C005C0602006406020030B583B005460C460D
:10323C00B2F5004F1ED0102A37D0002A33D1486E79
:10324C0017F02EFDB0F57A7F2DD317F01BFD6066BD
:10325C0004F168020121654818F006F90D2800F206
:10326C008E80DFE800F0268C8C8C5A8C8C8C8C7DBC
:10327C00418C8C6E83685E4A002120469847AB686F
:10328C005C4A012120469847AB685B4A02212046E4
:10329C00984701A9594817F0E3FD0023E36623671B
:1032AC0017F0F0FC606603B030BD436908469847E0
:1032BC00F9E7AB68524A022120469847A06E18F0F5
:1032CC000DF90023022219462046D5F80CC0E04720
:1032DC002B690221204698474A4B1A889B78A4F800
:1032EC00022184F80431DEE7AB68474A022120460C
:1032FC009847464B07CBC4F80201C4F80611C4F832
:10330C000A211A889B78A4F80E2184F81031236FB7
:10331C005A1C042B47D02267C5E7AB683C4A0221F4
:10332C00204698473B4B07CBC4F80201C4F8061162
:10333C00C4F80A211A889B78A4F80E2184F810315D
:10334C00E5E7AB68344A022120469847334B03CB60
:10335C00C4F80201C4F806111B88A4F80A31D6E798
:10336C00AB682F4A0221204698472E4B03CBC4F85A
:10337C000201C4F806111B88A4F80A31C7E7AB6830
:10338C001D4A022120469847274B07CBC4F802015F
:10339C00C4F80611C4F80A211A889B78A4F80E21E7
:1033AC0084F81031B3E700232367E36E0133E3663F
:1033BC00062B16D1AB681D4A0221204698470023E4
:1033CC00032219462046D5F80CC0E0472B6903218F
:1033DC0020469847164B03CBC4F80201C4F80611DB
:1033EC0061E701A9054817F03BFD5CE7D406020034
:1033FC007806020098060200AC020200C406020025
:10340C00D002020060160200E8020200080302006B
:10341C001803020038030200480302006403020090
:10342C00700302008C030200E4060200D4030200C5
:10343C00EC03020030B583B005460C46B2F5004FE4
:10344C001ED0102A37D0002A33D1486E17F028FC32
:10345C00B0F57A7F2DD317F015FC606604F1680285
:10346C000121654818F000F80D2800F28E80DFE885
:10347C0000F0268C8C8C5A8C8C8C8C7D418C8C6EB8
:10348C0083685E4A002120469847AB685C4A01215C
:10349C0020469847AB685B4A02212046984701A911
:1034AC00594817F0DDFC0023E366236717F0EAFBAD
:1034BC00606603B030BD436908469847F9E7AB68CE
:1034CC00524A022120469847A06E18F007F80023B4
:1034DC00022219462046D5F80CC0E0472B69022180
:1034EC00204698474A4B1A889B78A4F8022184F806
:1034FC000431DEE7AB68474A022120469847464B29
:10350C0007CBC4F80201C4F80611C4F80A211A88C2
:10351C009B78A4F80E2184F81031236F5A1C042BCD
:10352C0047D02267C5E7AB683C4A02212046984742
:10353C003B4B07CBC4F80201C4F80611C4F80A21AE
:10354C001A889B78A4F80E2184F81031E5E7AB6853
:10355C00344A022120469847334B03CBC4F802016E
:10356C00C4F806111B88A4F80A31D6E7AB682F4AB9
:10357C000221204698472E4B03CBC4F80201C4F815
:10358C0006111B88A4F80A31C7E7AB681D4A022153
:10359C0020469847274B07CBC4F80201C4F8061104
:1035AC00C4F80A211A889B78A4F80E2184F81031EB
:1035BC00B3E700232367E36E0133E366062B16D1D2
:1035CC00AB681D4A02212046984700230322194666
:1035DC002046D5F80CC0E0472B69032120469847BC
:1035EC00164B03CBC4F80201C4F8061161E701A91C
:1035FC00054817F035FC5CE7D4060200F40602001F
:10360C0098060200AC02020014070200D00202006D
:10361C0060160200E8020200080302001803020010
:10362C003803020048030200640302007003020026
:10363C008C030200E4060200D4030200EC03020037
:10364C0070470000B2F5004F00D07047F0B587B05E
:10365C0005460C468368404A00212046984705A938
:10366C003E4817F023FCE0B1AB683D4A00212046F0
:10367C0098470023032219462046EE68B0472B6971
:10368C00032120469847374B03CBC4F80201C4F8FA
:10369C0006111B88A4F80A31059817F014FC07B022
:1036AC00F0BD022301930A238DF8083001238DF815
:1036BC000930CDF810D001A9059817F00CFCD8B141
:1036CC00AB68294A002120469847EE680023032264
:1036DC0019462046B0472B69032120469847234BB7
:1036EC0003CBC4F80201C4F806111A889B78A4F81D
:1036FC000A2184F80C31CFE7009B642202FB03F310
:10370C001B4EA6FB03269B1B06EB5306760A04F105
:10371C0064073246174938461AF068FEAB683A46D9
:10372C00002120469847503E282E0AD9EE680023E7
:10373C00032219462046B0472B690321204698479F
:10374C00AAE7EE680023022219462046B0472B69EF
:10375C000221204698479FE7F00702003C07020031
:10376C00040802008C030200240802008C070200EB
:10377C00251540524808020000B583B00023019380
:10378C00072809D8DFE800F0040C11161B20252AA5
:10379C0001A9154817F064FB019803B05DF804FB10
:1037AC0001A9124817F05CFBF6E701A9104817F0C5
:1037BC0057FBF1E701A90F4817F052FBECE701A901
:1037CC000D4817F04DFBE7E701A90C4817F048FB33
:1037DC00E2E701A90A4817F043FBDDE701A9094814
:1037EC0017F03EFBD8E700BF600802006808020033
:1037FC0070080200780802008008020088080200A5
:10380C00900802009808020082B02DE9F04F8FB0AA
:10381C0080468B46144619931C9D83689B4A012154
:10382C00584698479A4B03CBCBF80201CBF80611BC
:10383C001B88ABF80A310DAA1021204617F04CFF5B
:10384C00002840F011810BF5817A0D9B512B06D08D
:10385C0040F2E9300FB0BDE8F04F02B070470DAA4E
:10386C001121204617F038FF002840F000810D9BF5
:10387C00522B02D040F2E930ECE70DAA122120467F
:10388C0017F02AFF002840F0F5800D9B592B40F0D3
:10389C00F48000260596B146CDF810A0099508963F
:1038AC00C246D846069408F1640B059A79495846E5
:1038BC001AF09CFDDAF808305A4601214046984728
:1038CC0000230393039A744958461AF08FFDDAF8D3
:1038DC0008305A46012140469847099B002B00F0BE
:1038EC00AC80059BC3EB0323079319AB0B93002709
:1038FC003D460A970A9A694958461AF077FDDAF854
:10390C0008305A460121404698470B9B1E465C697D
:10391C00089B9C4206D13369002B00F08280FB1877
:10392C0008933DE0DFF8789123464A465D495846B6
:10393C001AF05CFDDAF808305A46032140469847E5
:10394C00E9E73B460022584958461AF04FFDDAF891
:10395C0008305A460121404698472A465349049854
:10396C001AF044FD3CB109F1FF33621E4A4403F8DE
:10397C00016F9342FBD122462946069E304617F032
:10398C009BFE00287CD123464A462946304617F038
:10399C0081FE002877D101372544089B9F423FD0F8
:1039AC00079B83EA0706039B002BCAD03B460122E8
:1039BC003F4958461AF01AFDDAF808305A460121E8
:1039CC00404698472A463B4904981AF00FFD234677
:1039DC004A462946069817F04BFE002CDBD009F11D
:1039EC00FF324B46601E4844944612F8011FB14208
:1039FC0002D19042F8D1CEE7D946C3F1010301912F
:103A0C00009663443A462C4948461AF0EFFCDAF823
:103A1C0008304A4602214046984740F2014019E7D7
:103A2C001F460A9B01330A930B9A08320B92099A90
:103A3C009A4201D008945DE70894039B01330393E9
:103A4C00022B7FF43FAF059B01330593022B7FF4D0
:103A5C002AAFDDF810A0194B1A889B78A8F8022120
:103A6C008AF802300020F5E640F2E930F2E640F246
:103A7C00E930EFE640F2E930ECE640F2E930E9E615
:103A8C0042F24870E6E642F24970E3E6D4050200E1
:103A9C008C030200A0080200AC080200BC08020063
:103AAC00000040A0C8080200E80802001409020047
:103ABC00280902005409020068090200601602007D
:103ACC00B2F5004F00D07047F0B59BB005460C46E0
:103ADC008368264A00212046984719A9244817F0E4
:103AEC00A3FD40BB0DA9199817F006FEEC460DF18D
:103AFC00380EBEE80F00ACE80F00BEE80F00ACE8D3
:103B0C000F009EE807008CE807000D9B199A2146D0
:103B1C002846FFF779FE0646199817F09CFD66B902
:103B2C00EE680023022219462046B0472B69022179
:103B3C002046984718E04FF47A7604F16407C6F3F0
:103B4C000E020C4938461AF051FCAB683A46022179
:103B5C0020469847EE680023032219462046B047BA
:103B6C002B690321204698471BB0F0BDA409020025
:103B7C005C06020064060200034B1B684FF0FF3228
:103B8C00C3F8D42B704700BF0CD612A070B58AB006
:103B9C0004460FF06DF809AA0021204618F087FAA8
:103BAC00184C4FF4F84307930023069347F6E0763E
:103BBC0005960222049240F2DF12039240F27F2219
:103BCC00029201930093099B4FF4F0724FF4207111
:103BDC0020680DF0FFFF0C4D294620680EF033FBDA
:103BEC001F220A4920680EF043FB314620680EF074
:103BFC002CF8294620680EF026FB0FF04DF80AB081
:103C0C0070BD00BF0CD612A0C0380400C809020059
:103C1C002DE9F04788B0734F386800F66424002310
:103C2C00ADF81830ADF81A30C369ADF81C30036A22
:103C3C00ADF81E306C490EF006FB38680EF005FB33
:103C4C0086B206AD052128460FF0D4F906F14602DE
:103C5C00022392B2694628460FF0F8F904AB95E8B6
:103C6C00030083E803003A6802F6CC3282E80300D2
:103C7C00022118460FF0BEF90436B6B2442E38BFF6
:103C8C0044265A4B1D78082D61D80027DFF8548143
:103C9C00DFF85CA1DFF85C91D8F800301B6EAB420A
:103CAC0033D9BDF816300133BDF812209B1A9E4251
:103CBC002BDA0123324602A904A80FF0A5F9BDF8AE
:103CCC0008302380BDF80A306380BDF80C30413BCE
:103CDC00A380BDF80E20E280D8F80010EB0103F1B0
:103CEC0068000844A060C4F80CA0C4F810906433B9
:103CFC000B44A361404BE3610232A1F8D22B013794
:103D0C0020340135ABB2082BC6D9012168460FF01F
:103D1C0071F9BDF8003023807F33A380BDF80230E9
:103D2C0063803F33E380354BA360354BE360354B09
:103D3C0023610023A361E3612A4B1B681B6EBB420A
:103D4C0007D820340023A36008B0BDE8F087002713
:103D5C00DBE7012168460FF04DF9224B1B68B3F8E5
:103D6C00D02B413A2284B3F8D02B013AA284B3F879
:103D7C00CE2B01326284B3F8CE2B4132E284224A3C
:103D8C00A262224AE262224A22630022A263E26316
:103D9C001B6E9F4228BF4034D4D2012168460FF0DD
:103DAC0029F9104B1B68B3F8D02B413AA4F84020EA
:103DBC00B3F8D02B013AA4F84420B3F8D22B413AF3
:103DCC00A4F84220B3F8D23B013BA4F846300E4B8A
:103DDC00A364104BE364104B23650023A365E365D8
:103DEC006034AFE70CD612A0C038040008D612A07D
:103DFC00D13F0000FCCF0200293E00001CFF010057
:103E0C00853B0000C02D0300E01D0200B13F000007
:103E1C0004410200853F0000D839020070B588B01B
:103E2C0004460388ADF818304388ADF81A308388FF
:103E3C00ADF81C30C388ADF81E301C4D1C492868E9
:103E4C000EF001FA28680EF000FA85B206AE0221D7
:103E5C0030460FF0B3F80223402204A930460FF08D
:103E6C0017F9236993B1BDF810300393BDF81230E4
:103E7C00029302AA03A90D4B18680DF0FAFEBDF8C7
:103E8C000820BDF80C1020690EF05AFF2A4669462E
:103E9C0006A80FF047F9BDF80230BDF80020A16864
:103EAC00024800680EF094F908B070BD0CD612A050
:103EBC00C0380400F0B587B00EF0DAFE294C2A4960
:103ECC0020680EF0C0F920680EF0BFF9054647F6E1
:103EDC00E07120680DF0B9FE002120680DF0B7FEEE
:103EEC002068B0F8D03BB0F8CE2BB0F8CC1BB0F8B3
:103EFC00D26B00960DF015FE2068036E1BBB90F87C
:103F0C00E03B102B05D0092B27D0302B27D0174F97
:103F1C0000E0164F39460EF004FA04AE114C23683B
:103F2C0082B2314603F6CC300FF01CF9AAB202A9CA
:103F3C0030460FF0F7F8BDF80A30BDF808203946C6
:103F4C0020680EF045F9074B186800F664210EF056
:103F5C00C8FB0EF0A1FE07B0F0BD054FDAE7054F28
:103F6C00D8E700BF0CD612A0C0380400F00902003C
:103F7C00040A0200240A020008B5084B1B78591DDC
:103F8C00074A1268126E914200D308BD0133034AEE
:103F9C001370FFF73DFEFFF78DFFF6E708D612A072
:103FAC000CD612A008B5064B1B7803B908BD013B13
:103FBC00034A1370FFF72CFEFFF77CFFF6E700BFF8
:103FCC0008D612A008B5806900F0C4FE054B1B682A
:103FDC00D3F8D80BFFF7DAFDFFF71AFEFFF76AFFED
:103FEC0008BD00BF0CD612A030B59BB0024601AD87
:103FFC000C4928461AF0FAF90BAC01232A460A4957
:10400C0020461AF0F3F96A460121204617F02CFAE3
:10401C00044610B120461BB030BD009817F05EFA74
:10402C00F8E700BF4C0A0200540A020010B58CB02D
:10403C00024602AC084920461AF0D8F901AA01211F
:10404C00204617F011FA044610B120460CB010BDF2
:10405C00019817F043FAF8E7680A020010B58CB023
:10406C00024602AC084920461AF0C0F901AA012107
:10407C00204617F0F9F9044610B120460CB010BDDB
:10408C00019817F02BFAF8E7800A02002DE9F04F9F
:10409C0095B0814600231293384B1D6808AC02463C
:1040AC00374920461AF0A2F913A9204617F0F0FE62
:1040BC0018B1302015B0BDE8F08F3249139817F0C5
:1040CC004CFF70B1129B002B4DD0002B50DD643592
:1040DC0001242746DFF8B0A0DFF8B080DFF8B0B0DD
:1040EC0019E012AB00222B49139817F04BFF129BCF
:1040FC00002BEAD12849139817F02FFF12AB00229E
:10410C002449139817F03EFFDCE70134E4B227464C
:10411C00129B9C422CDC05AE3A46514630461AF0B6
:10412C0065F9502300932B1D42463146139817F026
:10413C0059FF08BB03AE3A46594630461AF056F9B9
:10414C002823009305F1550342463146139817F086
:10415C0049FF0028D9D145F8809B084B1A68136E8B
:10416C0001331366D1E7139817F0CCFE3020A1E78A
:10417C00139817F0C7FE9DE730209BE70CD612A0D2
:10418C00800A0200980A0200C00A0200E01D020028
:10419C00C80A0200AC0A0200B80A02002DE9F04F6E
:1041AC0091B002460190314B1D6806AC3049204657
:1041BC001AF01CF905AA0121204617F055F90646FC
:1041CC0018B1304611B0BDE8F08F04A9059817F06E
:1041DC00E5F9049B002B45D005F1640B00252F4617
:1041EC002C460DF10C0A0DF10B094FF0010811E0F2
:1041FC002C2B06D04F2D09D80BEB05021371013572
:10420C0004E00BEB050300251D7101270134049B11
:10421C00A34227D9534642464946059817F08AF9D6
:10422C000646F8B9039BEBB19DF80B300D2BEDD086
:10423C00002FDDD00A2B07D0272DE7D80BEB05027A
:10424C0082F855300135E1E75D44002785F855705B
:10425C00019B4BF8803B054B1A68136E01331366B8
:10426C003D46D3E7059817F039F9AAE70CD612A00A
:10427C00680A020070B5A8B040F6E43018F0B8F83F
:10428C00674B186080B140F6E43200211AF0A9F9AE
:10429C0025AA1021012016F0EFFB38B1604C2068E4
:1042AC0018F0AEF80023236028B070BD25AA24A90D
:1042BC005C4818F0DBFA18B1259816F0FFFBEDE717
:1042CC0027A9594817F0CFFE20B12599249818F04A
:1042DC003AFBF1E7524B1B68279AC3F8D82B4FF0E7
:1042EC00FF31302002F0FEFC0020FFF77DFE04467B
:1042FC000120FFF779FE002C79D068B901230093D7
:10430C0000238DF804308DF85530684600F022FDFE
:10431C00279817F0BFFED8E70020FFF79FFE044652
:10432C008DF898000120FFF799FE8DF89900002C6C
:10433C005FD0002834D13A4B1B680124C3F8DC4B06
:10434C0000221A662046FFF7A1FE04F1A0030DEB34
:10435C00030404F8080C324B1B6883F8E00B279815
:10436C00FFF714FCFFF754FCFFF7A4FD2C4C20AE18
:10437C004FF0FF352368D3F8D43B002BC8D12A4625
:10438C003146259816F02FFC0028F3D1244B1868E1
:10439C004FF4FA73259A00F664210EF099FBE7E7C7
:1043AC000020FFF743FE05468DF898000120FFF72B
:1043BC003DFE8DF899001DB3B0F10D0418BF01241A
:1043CC00174B1B68C3F8DC4B00221A6604F1A003E0
:1043DC006B4413F8083CCBB1114B1B6804F1A002E1
:1043EC000DEB020414F8082C83F8E02BB7E700233C
:1043FC0085E70B4B1B680024C3F8DC4B1C66A1E75C
:10440C00074B1B680024C3F8DC4B1C662046FFF7E7
:10441C00C5FE04F1A0036B4403F8080CDCE700BFF5
:10442C000CD612A030FF01003CFF01000022084B0B
:10443C0003F14C0013F8011B0A448342FAD1D24316
:10444C00034BD86C904214BF16200020704700BF5D
:10445C0010D612A000B583B000220D4B03F14C0016
:10446C0013F8011B0A448342FAD1D243084BDA6495
:10447C0001A9084816F075FF10B103B05DF804FBF4
:10448C00502300220249019816F08AFFF5E700BF7D
:10449C0010D612A04405020000B583B001A90B4848
:1044AC0016F05FFF034618B1184603B05DF804FB25
:1044BC00502300220649019816F060FF034600289D
:1044CC00F2D1FFF7B3FF0346EEE700BF440502004D
:1044DC0010D612A038B51A4C5022002120461AF0E2
:1044EC0080F84FF0FF35A564C02184F83A10A8225B
:1044FC0084F83B200A2384F83C30142084F83D00D7
:10450C00FF2084F83E5084F83F0084F8400084F883
:10451C00421084F8432084F84430012384F8453059
:10452C00BD2384F83530332384F83630062384F8E1
:10453C003730682384F83830222384F8393038BD7A
:10454C0010D612A0074B1B684FF0FF32C3F80C2299
:10455C00C3F824220021C3F81012C3F81422C3F8A4
:10456C001C1270476CD612A0064B1B680022C3F8B5
:10457C0028224FF0FF32C3F81422034B0361034B84
:10458C00C36070476CD612A078BA0200D9470000FD
:10459C002DE9F0438FB005460EF06AFB744B1B6897
:1045AC00D3F8E831012B08D88BB9724B18684FF44B
:1045BC00162201460EF0F6FD09E04FF416226E4964
:1045CC00096802FB03116B4B18680EF0EBFD684B8E
:1045DC001868D0F81032002B36D1654B1B68D3F815
:1045EC001C32002B40F09080002D00F0B780604B07
:1045FC001B68D3F82C22002A40F08D80D3F830228F
:10460C00002A00F0A880D3F8E831042B00F08B804E
:10461C00574B1B68D3F8E831002B00F09180564BB8
:10462C001B68534C2268D2F8E8114FF4162202FB97
:10463C0001F1A1F51620194418440EF007FC23686B
:10464C000022C3F830228BE000210DF000FB484C17
:10465C00002120680DF0F9FA002120680DF0FAFA1B
:10466C00464920680DF0EFFD23680CAE03F5FA7295
:10467C0092E8030086E80300012118460DF0EAFADF
:10468C00206800F164010EF02CF82368D3F8C821DF
:10469C00D3F8C43101323A49684619F0A7FE69468D
:1046AC0020680DF03EFE8146236803F5F67393E80F
:1046BC00030086E803000A2130460EF09BFC0AAF8B
:1046CC001FFA89F2394630460EF04CFD97E803008C
:1046DC0086E8030020680DF0B8FD82B239463046FA
:1046EC000EF020FD47F6E07120680DF0AEFA0021C7
:1046FC0020680DF014FEBDF82A30BDF8282069465C
:10470C0020680DF065FD68E7C6224FF48E711D48D8
:10471C000EF016FB68E70EF0C7FA154B1B6800226B
:10472C00C3F82C221CE0144B18684FF4162200F529
:10473C00E11100F53B1000F500500EF033FD67E77A
:10474C000D4B18684FF4162200F51611A0F5162023
:10475C000EF028FD63E70EF09FFA01E00EF09CFAD4
:10476C00034B1B680022C3F814220FB0BDE8F08382
:10477C006CD612A00400001060D612A0C038040041
:10478C00D00A02003048020008B50F4B1B68D3F862
:10479C00102292B90C4B1A68D2F8C8310133D2F8F6
:1047AC00C4118B4228BF0023C2F8C8314FF0FF332D
:1047BC00C2F81832C2F8303208BD0020C3F810021B
:1047CC00FFF7E6FEE6E700BF6CD612A008B5084B73
:1047DC001B684FF0FF32C3F82822C3F81422054B94
:1047EC000361054BC3600020FFF7CEFF08BD00BF7F
:1047FC006CD612A0A4C102007545000008B5114B7F
:10480C001B68D3F81022BAB90E4B1B68D3F8C82119
:10481C001AB9D3F8C421C3F8C821D3F8C821013A76
:10482C00C3F8C8210022C3F810224FF0FF32C3F89E
:10483C001822C3F82C2208BD0020C3F81002FFF781
:10484C00A7FEE1E76CD612A02DE9F04FADF5077D80
:10485C00B0F800C0B0F802B00769B989F88907F15F
:10486C00150406AE0DF5067E14F8012CD20814F8CA
:10487C00023CDB085B0143EA822314F8032C43EA75
:10488C00D20326F8023B03347645EDD100284FD0F5
:10489C00441E01F2123201FB0422174400220DF1D6
:1048AC00180ADFF894803B46CDF814C00490D94622
:1048BC0030E00236BD4224D015F8013B3AF81340E3
:1048CC00002CF6D023464A463146D8F800000DF0AD
:1048DC00DBF906F1010B23464A465946D8F800008D
:1048EC000DF0D2F92346009A3146D8F800000DF0AD
:1048FC00CBF92346009A5946D8F800000DF0C4F9BC
:10490C00D7E7019B0299039A013209F10209049835
:10491C0090420DD01F465B1A1D460029F4D009F1B8
:10492C00010B059ECDF800B0019302910392C3E7F1
:10493C000DF5077DBDE8F08F6CD612A02DE9F04F78
:10494C00BFB04FF0FF320023079306930593B2E0FC
:10495C004FF0FF32AFE093F8CC21022A40F0C08038
:10496C0000220792059A3B92079A03323C9200224E
:10497C003BA9D3F8E00116F0DCF8002206929AE08D
:10498C0093F8D421022A40F0B18001220792E9E782
:10499C00039D3D95D4F82432002B40F0EF80D4F8E1
:1049AC003432002B00F0C5804FF000038DF824301A
:1049BC00824B1B681B6E1A681DAF0135009509AB45
:1049CC007F49384619F012FD08AA0121384616F025
:1049DC004BFD002840F0D280049BDD1C089816F09B
:1049EC007DFD784B196801F53B1303F5005304F575
:1049FC0009724FF4162000FB051138460EF086FAAA
:104A0C000446002840F0BA806C4B1868049B00EBFD
:104A1C00C303022283F8CC213D9AC3F8D021069B14
:104A2C00002B00F0A9803B9B9A4200F0978000225B
:104A3C0041E0002E3BD1B8F1000FB8BF884408F11B
:104A4C00FF37B9F1000FB8BFF1442E464B4609F1C0
:104A5C00FF394246B846013081422AD9B2FBF1F700
:104A6C0001FB17220492B3FBFEF70EFB17330393E3
:104A7C0004EBC207D7F8D0B15B4589D197F8CC715C
:104A8C00002F85D0B542E6D3002DD2D1614538BF79
:104A9C00ACEB010C0CF10105D64538BFAAEB0E0AA4
:104AAC0053460AF1010A6246AC460125D3E7354666
:104ABC00D1E74FF0FF32414B1B683DA9D3F8DC0125
:104ACC0016F091F8B8B93D9B0593B3F1FF3F66D052
:104ADC003A4B1B68D3F8D021059991423FF43BAF78
:104AEC00D3F8D821059991423FF44AAF059B3B93EB
:104AFC004FF0FF330693059D3D95079802462B46D4
:104B0C002E490C68D4F8C4E17146022928BF022151
:104B1C00461C471E05F1010A05F1FF3BBEF1000FD3
:104B2C003FF416AF00200546B846B4460646D946B3
:104B3C0094E7226E5532244909A819F057FC37E73F
:104B4C003D9B3B934FF0FF333C931C4B1B68002267
:104B5C003BA9D3F8E00115F0ECFF12E03C950022E4
:104B6C003BA9D0F8E00115F0E4FF3D9B0593049BB5
:104B7C000793069400229EE700229CE7069B002BDD
:104B8C00DED10E4B1B68049A03EBC203022283F89E
:104B9C00CC213D9AC3F8D021002206928BE74FF02E
:104BAC00FF323B92054B1B683BA9D3F8E00115F093
:104BBC00C0FF00203FB0BDE8F08F00BF6CD612A044
:104BCC00EC0A020060D612A0E00A020070B58AB0AE
:104BDC0004460EF04DF809AA0021204617F067FA9A
:104BEC00154C4FF4F84307930023069347F6E076F1
:104BFC0005960222049240F2DF12039240F27F22C9
:104C0C00029201930093099B4FF4F0724FF42071C0
:104C1C0020680CF0DFFF094D294620680DF013FBCE
:104C2C00314620680DF011F8294620680DF00BFB79
:104C3C000EF032F80AB070BD6CD612A0C038040069
:104C4C00F0B5B1B01A4B1B680022C3F8C421184C44
:104C5C00184F03AE21E01A6E55323946304619F022
:104C6C00C5FB23681A6E126817ADD3F8C431013333
:104C7C00009333461049284619F0B8FB02AA0121CB
:104C8C00284616F0F1FB88B92268D2F8C4310133FA
:104C9C00C2F8C431029816F021FC2368D3F83422F0
:104CAC00002AD8D000238DF80C30DAE731B0F0BDF3
:104CBC006CD612A0E00A0200EC0A0200F0B583B038
:104CCC00234B1B68D3F8C8714FF0FF3203F5E47126
:104CDC00D3F8DC0115F06AFF6E461D4CFA2508E08E
:104CEC00C3F81C02FFF754FC19E02368D3F81C220C
:104CFC002AB323682A463146D3F8E00115F073FF36
:104D0C000028F2D1009BBB42F3D1019BB3F1FF3FD2
:104D1C0013D00F4B1B68D3F81C22002AE0D10C4B8C
:104D2C001B680022C3F818224FF0FF31C3F814128D
:104D3C000199C3F8E811C3F81C2203B0F0BD4FF081
:104D4C00FF32C3F81C220020FFF722FCD1E700BF82
:104D5C006CD612A02DE9F04794B005464FF40E70B6
:104D6C0017F046FBC24B186058B304464FF40E7252
:104D7C00002119F036FC04F5EE720421032015F025
:104D8C007BFE08B3BA4B1B68D3F8E421002A40F031
:104D9C003C82B74B1B68D3F8DC01002840F04E82F4
:104DAC00B34B1B68D3F8E001002840F04A82B04CAA
:104DBC00206817F025FB00232360AE4B186817F012
:104DCC001FFB14B0BDE8F087A94B1A6802F5F0720E
:104DDC000821032015F050FE0028D3D12B794BB9B4
:104DEC0095F8553033B9A24B1B684FF0FF32C3F81E
:104DFC00342204E09E4B1B680022C3F834229E48E8
:104E0C0017F0F6FA9B4A10600028DAD000F516234A
:104E1C0003F6FF736FF30B03984A1360944B1A68F5
:104E2C000023C2F8E43102F5F272019202220092E0
:104E3C004FF420729249934815F074FF0028A1D1C9
:104E4C008B4B1B684FF0FF31C3F810120022C3F8D4
:104E5C001C22C3F80C221D66C3F8C821C3F8181213
:104E6C00C3F81412C3F82022874B1B6883B112AA13
:104E7C001021012015F000FE002883D112AA11A9DF
:104E8C00824817F0F3FC48B1129815F017FE79E739
:104E9C007D4A0121032015F0EFFDE8E713A97C48BA
:104EAC0017F0E1F820B11299119817F04CFDEBE7CF
:104EBC00FFF7C6FE6E4B1B68D3F8C4311BB91398B1
:104ECC0017F0E8F8EFE71398FFF780FE684F3C689F
:104EDC000025ADF80C50ADF80E50E369ADF810306C
:104EEC00236AADF812306B4920460DF0ACF93968E5
:104EFC0003AE2B464A2201F5FA7130460EF0A6F8A5
:104F0C003B6803F5FE7296E8030082E8030005AEE9
:104F1C0003F5FA7393E8030086E803000521304695
:104F2C000EF068F80DF11C0A282340225146304639
:104F3C000EF0AEF8BDF81C30A4F86430BDF81E308D
:104F4C00A4F86630BDF82030A4F86830BDF82230E3
:104F5C00A4F86A30DFF84091C4F86C904F4B23678B
:104F6C004F4B6367E567DFF83C81C4F880802823EA
:104F7C004022514630460EF08BF8BDF81C30A4F898
:104F8C008430BDF81E30A4F88630BDF82030A4F86B
:104F9C008830BDF82230A4F88A30C4F88C90424B8B
:104FAC00C4F89030414BC4F89430C4F89C50C4F809
:104FBC00A08028234022514630460EF069F8BDF8F7
:104FCC001C30A4F8A430BDF81E30A4F8A630BDF8EF
:104FDC002030A4F8A830BDF82230A4F8AA30C4F8C8
:104FEC00AC90334BC4F8B030324BC4F8B430C4F886
:104FFC00BC50C4F8C08039680223642201F5F671F4
:10500C0030460EF069F828234022514630460EF007
:10501C0063F8BDF81C30A4F8C430BDF81E30A4F8F9
:10502C00C630BDF82030A4F8C830BDF82230A4F842
:10503C00CA30C4F8CC90204BC4F8D0301F4BC4F805
:10504C00D430C4F8DC50C4F8E080C4F8EC503B68B1
:10505C00D3F80C32002B7FF432AF3C464FF0FF37C5
:10506C00094E3DE0FFF72AFE15F00CFE05463EE02A
:10507C006CD612A064D612A080B7410060D612A0E4
:10508C00000B02004949000068D612A030FF010055
:10509C003CFF0100C0380400E01D0200094800007C
:1050AC004CB3020055480000D947000078BA020002
:1050BC0095470000D0C802005145000020AC02000A
:1050CC003846FFF765FA15F0DDFD054614E00020C3
:1050DC00FFF75AFB2368D3F80C32002B7FF4EFAEAA
:1050EC0017F078F92368D3F81832002BBAD123685B
:1050FC00D3F81432002BE3D100220DF127013068D4
:10510C0015F071FD022812D09DF82730012BDED04E
:10511C00022B08D0002BDDD14B4B1B684FF0FF321C
:10512C00C3F80C22CBE60020FFF768FBD2E73A4627
:10513C000DA9129815F057FD0028CBD1424B1868D9
:10514C00D0F8103283B9109B012B3FD0D0F8283205
:10515C00D3B1284615F0A4FD40F6B733984210D9C8
:10516C000020FFF711FB0CE04FF4FA73129A00F1D8
:10517C0064010DF0ADFC284615F092FDB0F57A6F88
:10518C0017D2109B012B27D02F4B1A68D2F8203244
:10519C004BB1D2F80832D2F804229B1A13F1800FCB
:1051AC002BDB802B2DDC284B1B680022C3F8202224
:1051BC0090E7254B1B680022C3F810224FF0FF32FA
:1051CC00C3F8142215F05EFD0546DAE74FF0FF3305
:1051DC00C0F81032C0F814321B4B1B68D3F82022D5
:1051EC003AB90F9AC3F804224FF0FF32C3F82022C9
:1051FC0070E70F9AC3F80822F6E70020FFF7C4FA0D
:10520C00D1E70020FFF7FAFACDE74FF0FF320C920E
:10521C000CA9D3F8DC0115F0C9FC00260AAD0A4C28
:10522C000A9623684FF0FF322946D3F8E00115F0B7
:10523C00DAFC0A9BB3F1FF3FF2D1AAE515F03EFC74
:10524C00AEE515F03BFCB2E56CD612A08269D2F843
:10525C00C83183F00103C2F8C831704783694FF03D
:10526C00FF329A60704700002DE9F04F95B004466C
:10527C000DF0FEFC254613AA002155F80C0B16F078
:10528C0016FF4FF4F84307930026069647F6E0778F
:10529C0005974FF00209CDF8109040F2DF130393FD
:1052AC0040F27F23029301960096139B4FF4F07209
:1052BC004FF4207128460CF08DFC784928460CF0F0
:1052CC00C2FF28460CF0C1FFA4F8C0011F2274498C
:1052DC0028460CF0CDFF394628460CF0B6FC31467A
:1052EC0028460CF0B4FCADF84460ADF84660A36AF7
:1052FC00ADF84830E36AADF84A300DF144080821A6
:10530C0040460DF077FEB4F8C02146320BAF4B4649
:10531C0092B2394640460DF099FE012138460DF007
:10532C0069FEBDF82C30A4F86C307F33A4F87030D3
:10533C00BDF82E30A4F86E303F33A4F87230594BC0
:10534C006367594BA367594BE367C4F88440C4F8AF
:10535C008860314628460CF0E2FF314628460CF0B6
:10536C0079FC012128460CF0DAFF514928460CF053
:10537C006AFF312128460CF06CFFA4F8C2012846C4
:10538C000CF063FF82B2A4F8C421B4F8C2B10BEBE9
:10539C004B0B4FEA4B0B0BF18A0B04F5D67708320B
:1053AC00802A38BF802292B2394640460DF0BAFEB0
:1053BC000DF13C0897E8030088E803001FFA8BF214
:1053CC00394640460DF0CEFE97E8030088E803000E
:1053DC000DF1240B4B468022594640460DF07CFEC5
:1053EC000DF1340A33468022514658460DF00CFE1E
:1053FC00BDF83430A4F88C30BDF83630A4F88E30BB
:10540C00BDF83830A4F89030BDF83A30A4F892309A
:10541C00DFF8A0B0C4F894B0274BC4F89830274BF1
:10542C00C4F89C30C4F8A440C4F8A860B4F8C221F5
:10543C000432334692B2514640460DF04DFEBDF853
:10544C003430A4F8AC30BDF83630A4F8AE30BDF82A
:10545C003830A4F8B030BDF83A30A4F8B230C4F803
:10546C00B4B0154BC4F8B830C4F8BC60C4F8C44030
:10547C00C4F8C860494638460DF0BCFDC4F8D46089
:10548C00064928460CF0DFFE04F16C0128460DF0AD
:10549C0028F90DF001FC15B0BDE8F08FC038040000
:1054AC00080B02001CFF010069520000C02D030014
:1054BC0078900300E01D0200595200009C7202001B
:1054CC002DE9F04F8DB04FF4E87016F091FF764B4C
:1054DC001860A0B104464FF4E872002119F081F86D
:1054EC000123C4F8BC3104F5E671704816F0D9FFFD
:1054FC0040B16D4C206816F083FF002323600DB083
:10550C00BDE8F08F6A4A1021012015F0B5FA30B1D0
:10551C00654B1B68D3F8CC0116F0D0FFE9E7644A61
:10552C000BA9644817F0A2F920B1614B186815F06B
:10553C00C5FAEDE75C4B19685F4816F094FD28B18D
:10554C005B4B19680B9817F0FEF9EEE7564C206888
:10555C00FFF78AFE20688368002B6BD0006816F07A
:10556C0099FDEDE7059B03EBC303544A82FB031241
:10557C00DB17C3EB620303F5001305931A149BB2FC
:10558C0003EB8303DB0B4E4908A818F02FFF74E0E4
:10559C004C4B089371E06D08454405F1FF3AB9F89E
:1055AC00AE21414620460CF0DBFC47F6E07120466C
:1055BC000CF04BFB039B1978202901D05F2920D1DB
:1055CC0007AA06A920460CF0E4FC069B9A451CDCB5
:1055DC00A8465E4529D0394620460CF038FB3946A2
:1055EC0020460CF032FB394620460CF033FBB9F860
:1055FC00C2510136039633782E2BCCD05F2BCBD1F6
:10560C00C9E720460CF01DFDDAE7394620460CF0C0
:10561C001CFB079AB9F8C4311344013B0093AB1E31
:10562C00069920460CF07DFAD2E71F4B1868836868
:10563C00002B93D14FF4FA731D4A126800F16C01E0
:10564C000C300DF045FA184BD3F8009005A9D9F899
:10565C00CC0116F03BFF00289AD1D9F8C8110129CA
:10566C0080D0059B1A149BB203EB8303DB0B002940
:10567C0089D1154908A818F0B9FE09F10C04134991
:10568C0020460CF0E0FD002120460CF048FE47F6C9
:10569C00E07120460CF0D9FAB9F8AC810DF11F0677
:1056AC000DF1260B002796E774D612A08404020095
:1056BC0070D612A030FF01003CFF010067666666E1
:1056CC00380B0200457272002C0B0200789003001C
:1056DC0070477047A0F862104FF0FF33C0F8C83025
:1056EC0070474FF0FF33C0F8C8307047074B1B684A
:1056FC0003B9704710B5D0F834411146204608F074
:10570C00BDFE0349204608F0B9FE10BD78D612A0A4
:10571C00AC15020010B5D0F83441054B53F82210EB
:10572C00204608F0ABFE0349204608F0A7FE10BD4A
:10573C00C8250200440B020008B5094B1B683BB995
:10574C00084B1B6843B1084908F098FE002008BDBF
:10575C00064908F093FEF9E7054908F08FFEF5E7D6
:10576C0088D612A08CD612A0500B0200480B020057
:10577C005C0B020070B586B00546012920D014469A
:10578C0002293FD1214B1B686BB3214B1A6801AE28
:10579C002049304618F02AFE6168304618F075FF33
:1057AC0018B31A4B1B685BB3194B1A6801AC1A4936
:1057BC00204618F01BFE2146284608F05FFE0DE03F
:1057CC00124B1B686BB1124B1A6801AC1349204683
:1057DC0018F00CFE2146284608F050FE002006B0BA
:1057EC0070BD0022F1E70022D1E7094B1A680C4981
:1057FC00304618F0FBFD3146284608F03FFEEDE739
:10580C000022D3E7074908F039FEE7E700D712A0DA
:10581C0004D712A0AC050200840B02006C0B020032
:10582C00740B0200940B020010B50446012904D03D
:10583C00064908F023FE002010BD012001F008FEEF
:10584C000349204608F01AFEF5E700BF940B02004E
:10585C00500B020010B50446012904D0064908F08B
:10586C000DFE002010BD022001F0F2FD0349204680
:10587C0008F004FEF5E700BFB00B0200500B02006D
:10588C0010B5012904D00446022905D0002010BD12
:10589C00032001F0DDFDF9E70B4B4FF0FF321A60EE
:1058AC00032001F0D5FD084A1368002BFCD1074BEF
:1058BC001B6823B10649204608F0E0FDE6E70549E0
:1058CC00204608F0DBFDE1E788D612A08CD612A0AA
:1058DC00500B02005C0B020010B50446012904D0E9
:1058EC00064908F0CBFD002010BD052001F0B0FDED
:1058FC000349204608F0C2FDF5E700BFB00B0200DB
:10590C00500B020008B5002001F0A2FD002008BDDC
:10591C00F8B50646042904D0124908F0AFFD002062
:10592C00F8BD1546506808F089FD0446A86808F0D3
:10593C0085FD0746E86808F081FDE40104F4F844AD
:10594C00BF0007F478773C43C0F3C4000443064B14
:10595C001C80042001F07CFD0449304608F08EFDCB
:10596C00DDE700BFB00B020080D612A0500B020086
:10597C002DE9F84380460D46144602F58179144B07
:10598C001A889B78A4F8022189F80230204601F08D
:10599C0089FD0023C4F8C830C4F834814FF40042A8
:1059AC0021460C48A847D4F8C8304BB9094F0026FB
:1059BC00324621463846A847D4F8C830002BF7D0D9
:1059CC004A460549404608F08BFDBDE8F88300BF08
:1059DC0060160200DC250200001E020010B5CEB0DD
:1059EC000446022905D0094908F048FD00204EB0B4
:1059FC0010BD506808F022FD6A4636900123ADF8C0
:105A0C00003103492046FFF7B3FFEFE7B00B02006C
:105A1C00352F000010B5CEB00446022905D00C4934
:105A2C0008F02CFD00204EB010BD506808F006FDAB
:105A3C000022ADF8002128B16A4606492046FFF73E
:105A4C0097FFEFE76A4604492046FFF791FFE9E725
:105A5C00B00B0200CD3A00009131000000B5CFB080
:105A6C00012906D0054908F009FD00204FB05DF86A
:105A7C0004FB6A460249FFF77BFFF6E7B00B020016
:105A8C005136000000B5CFB0012906D0054908F009
:105A9C00F5FC00204FB05DF804FB6A460249FFF7A5
:105AAC0067FFF6E7B00B0200C12A000000B5CFB0CB
:105ABC00012906D0054908F0E1FC00204FB05DF843
:105ACC0004FB6A460249FFF753FFF6E7B00B0200EE
:105ADC00CD28000000B5CFB0012906D0054908F04B
:105AEC00CDFC00204FB05DF804FB6A460249FFF77D
:105AFC003FFFF6E7B00B0200C525000000B5CFB0A4
:105B0C00012906D0054908F0B9FC00204FB05DF81A
:105B1C0004FB6A460249FFF72BFFF6E7B00B0200C5
:105B2C000528000000B5CFB0012906D0054908F0C2
:105B3C00A5FC00204FB05DF804FB6A460249FFF754
:105B4C0017FFF6E7B00B02003532000000B5CFB0FE
:105B5C00012906D0054908F091FC00204FB05DF8F2
:105B6C0004FB6A460249FFF703FFF6E7B00B02009D
:105B7C004134000010B50446022904D00B4908F04A
:105B8C007DFC002010BD506808F058FC002814BFA4
:105B9C004FF0FF320022064B1A6014BF054A064A2A
:105BAC000649204608F09CFCEBE700BFB00B020056
:105BBC0078D612A0CC0B0200D00B0200D40B020042
:105BCC0030B5C3B00446012906D0414908F056FC53
:105BDC000025284643B030BD41A93E4815F024FDB0
:105BEC0000286ED14FF480224FF4E001419815F05B
:105BFC0063FD002834D1802301AA4FF4E0014198C1
:105C0C0015F036FD002832D101AB21A913F8012B78
:105C1C00FF2A33D18B42F9D106232F4A2F494198C1
:105C2C0015F038FD88BB06232D4A2E49419815F0F6
:105C3C0031FD88BB802301AA2849419815F018FD35
:105C4C0088BB0C22284901A818F05BFB054688BBD1
:105C5C002649204608F012FC419815F0FCFCB8E7E8
:105C6C002349204608F00AFC4FF0FF35B1E72149E3
:105C7C00204608F003FC4FF0FF35AAE71E492046EA
:105C8C0008F0FCFB4FF0FF35A3E71C49204608F059
:105C9C00F5FB4FF0FF359CE71849204608F0EEFB6A
:105CAC004FF0FF3595E71349204608F0E7FB4FF01E
:105CBC00FF358EE71249204608F0E0FB4FF0FF3528
:105CCC0087E71049204608F0D9FB002581E700BF83
:105CDC00B00B02005C0602001C060200FCFF730005
