:10000000DC0E0010010300001B0300007C03000055
:100010001D0300001F030000210300002FDEFFEF7F
:1000200000000000000000000000000081590300F3
:100030002503000000000000E1590300455A0300B9
:10004000B1230300C1230300D1230300E1230300F4
:10005000F1230300012403001124030021240300E1
:1000600031240300412403005124030061240300D0
:10007000712403008124030091240300A1240300C0
:10008000B1240300C1240300D1240300E1240300B0
:10009000F12403000125030011250300212503009D
:1000A000312503004125030051250300612503008C
:1000B000712503008125030091250300A12503007C
:1000C000B1250300C1250300D1250300E12503006C
:1000D000F1250300D9EF04280126030011260300AF
:0400E00021260300D2
:0402FC00FFFFFFFF02
:10030000DFF88CD023488047DFF884D0224880472C
:1003100022482349016000F045B82FE02EE02DE08F
:100320002CE02BE02AE029E028E027E026E025E089
:1003300024E023E022E021E020E01FE01EE01DE0B9
:100340001CE01BE01AE019E018E017E016E015E0E9
:1003500014E013E012E011E010E00FE00EE00DE019
:100360000CE00BE00AE009E008E007E006E005E049
:1003700004E003E002E001E000E0FFE71EF0040F0C
:100380000CBFEFF30880EFF3098030F0B1BA000042
:1003900000000110C15902009585030008ED00E03E
:1003A0000000000027498D4627482849284A00F0C8
:1003B00037F828482849294A00F032F828482949BE
:1003C000294A00F02DF8294829492A4A00F028F83E
:1003D00029482A492A4A00F023F82A482A492B4A60
:1003E00000F01EF82A482B49002200F024F82A4881
:1003F0002A49091A00220260043001601C481D4984
:10040000884205D00268043003B4904703BCF7E784
:1004100000208646EC4600200021214A9047FEE756
:10042000884207D0521A05D0037801300B70013191
:10043000013AF9D17047884202D002700130FAE7E0
:1004400070470000DC0E0010A40400000000001043
:10045000A0060010202301002023010098F10300D2
:10046000A404000000000010000000102023010080
:10047000202301002023010020230100202301006C
:1004800020230100440B0000440B00002023010046
:1004900000F807A03C610AA040610AA0000080A00B
:0404A00043590200BA
:1004A40081130028D912002800007701EEFF4A01C9
:1004B4000000B40012004A0100007701F7FF4A016E
:1004C400F7FFB4000900B40009004A01E519002847
:1004D400DD100028952D0028A12600285D22002883
:1004E40085290028E1200028711C002851160028C5
:1004F4000000000030C500289D00000098000000A6
:100504001500000015220028010000003CC5002849
:1005140009010000FD00000017000000A9210028C7
:1005240003000000A6FFFFFF140000000A00000003
:100534000300000005000000C400001000000000DB
:10054400000000002201000096000000F8FFFFFFF9
:10055400FEFFFFFF05000000D800001000000000AF
:1005640000000000F82F0128E42F0128D02F0128D3
:10057400BC2F0128A82F01285C300128483001280D
:1005840034300128203001280C300128FF7F00007E
:10059400000000FFC0C0C0FFFFFFFFFF404040FF5E
:1005A40032000000320000000000000000000000E3
:1005B4000000000000000000000000000000000037
:1005C400534101002D410100200300109CF5042833
:1005D400FFFFFFFFFF0000FFC0C0C0FF000000FFDF
:1005E400FFFFFFFF808080FF000000FFFFFFFFFF91
:1005F400808080FFFFFFFFFF38F5042874F504288E
:100604004CF5042888F5042860F50428100000003F
:1006140014000000100000009CF50428404040FF36
:10062400FF0000FF000000FF000000FFFFFFFFFFCE
:100634005F4A0100FD5F01000000030001000000AB
:10064400F4010010F1530100CB530100EC0200103F
:10065400FFFFFFFF98080528AAAAAAFFFFFFFFFFD4
:10066400D3D3D3FF000000FF000000FF404040FF51
:10067400000000FF000000FF9CF50428397A010007
:100684000E0000000000000008020010DD57010009
:1006940031580100ED5D0100C75D0100000200104A
:1006A4008B5D0100FD5F01005F5F01002D5F0100B4
:1006B400DC010010000000FFFFFFFFFFD2B69AFF2D
:1006C400D2B69AFFEAD1B9FF05000000000000008D
:1006D4000500000005000000020000000400000006
:1006E4004C4C4CFFFFFFFFFFDCCEC0FFDCCEC0FF55
:1006F400F2E4D7FF05000000000000000500000040
:100704000500000002000000040000009CF504281D
:10071400000000FFEFCDAB0000000000000000006F
:10072400FFFFFFFF8B622CFFBAB09EFFFCF4E5FFD6
:10073400DBB368FF959595FFF3F3F3FFC0C0C0FFEB
:10074400404040FF000000FF0300000003000000E1
:10075400707070FFFCFCFCFFF2F2F2FFBCBCBCFF4B
:10076400959595FFF3F3F3FFC0C0C0FF404040FFF1
:10077400000000FF03000000030000009CF50428B3
:10078400AAAAAAFF000000FF000000FF21AB01009D
:1007940002000000EC270528A40100105574010094
:1007A400C972010010040010000000FF9808052819
:1007B400555555FFAAAAAAFFFFFFFFFF000000FF3F
:1007C40019A7010020010010B5B2ADFFFCFCFCFF2D
:1007D400F4F4F4FFF4F4F4FFF4F4F4FFF4F4F4FFA9
:1007E400F4F4F4FF04000000707070FFFCFCFCFFE4
:1007F400DFDFDFFFF3F3F3FFECECECFFDFDFDFFF22
:10080400D0D0D0FF04000000B17F3CFFFBD846FFEE
:10081400DFDFDFFFF3F3F3FFECECECFFDFDFDFFF01
:10082400D0D0D0FF040000008B622CFFBAB09EFF32
:10083400EFD198FFFCF4E5FFF6E5C4FFEFD198FF94
:10084400DBB368FF04000000B17F3CFFFFFEFDFF47
:10085400E0E0E0FFFCF4E3FFFBEED6FFF6DBA9FFEC
:10086400E3CA9CFFE0E0E0FFF0F0F0FF000000FFCF
:10087400A37D37FF959595FFF3F3F3FFE0E0E0FFE9
:10088400F2F2F2FFE8E8E8FFD8D8D8FFBCBCBCFF1E
:10089400E0E0E0FFF0F0F0FF404040FF404040FF68
:1008A400FFFFFFFFC0C0C0FF808080FF000000FF8B
:1008B400117F01000B000400FC0200101CF5042849
:1008C400FFFFFFFF808080FFFF0000FFD3D3D3FF33
:1008D400000000FFFFFFFFFFFFFFFFFF808080FF9E
:1008E400D3D3D3FF9CF504280A0000000E000000B7
:1008F400CDFFCDFFACEE9CFF29D400FF33E21CFFFB
:10090400FCFCFCFFDADADAFFCBCBCBFFD5D5D5FF85
:10091400A0A0A0FF000000FF99A8010075A8010095
:100924009804001001000000C0C0C0FFC0C0C0FF98
:10093400000000FF000000FFD566010078040010ED
:10094400707070FFFCFCFCFFF3F3F3FFECECECFFC6
:10095400DFDFDFFFD0D0D0FF404040FF05000000C4
:10096400F401000003000000FFFFFFFF19A50428A5
:1009740079B90300CBB9030075BA030031BA030097
:10098400C3BA03007C020AA07C020AA0FFFFFFFF97
:10099400040000005C200000FF000000FFFFFFFFD8
:1009A400000000FFFF00000005000000DD9A04289D
:1009B400FFFF000070040AA070040AA0000000FFFA
:1009C400FFFFFFFF98080528D19B0428D8040AA03C
:1009D400DDE70428582E585800000000E9240200DE
:1009E400D1B504288DEF04281827000051CE04281F
:1009F4000000000000000400000000006405001076
:100A040000000000100000000000000028060AA0FA
:100A14008532020000000000000002000000000017
:100A24008805001000000000040000000000000021
:100A340070060AA075E20428000000FF000100000F
:100A4400593C0200053C0200000000004D43020036
:100A5400854202000D43020015480200654702006A
:100A6400D547020005EA042879E90428000000A01B
:100A7400000000000000000000000000DC29052840
:100A84005C2A05281C2A052800000000E00100005B
:100A9400100100000300000000000000000000003E
:100AA40001000000E0010000E0010000000100007E
:100AB400E00100001001000005000000000000003B
:100AC4000000000001000000C0030000C00300009B
:100AD40000010000E001000010010000040000001B
:100AE400000000000000000001000000C00300003E
:100AF400C003000000010000E07F0000FFFFFFFFD3
:100B0400140000000A0000006400000064000000FB
:100B1400AAAAAAAA00000000FFFFFFFFFFFFFFFF31
:100B2400FFFFFFFF0100000001000000841F01001F
:100B3400841F0100841F0100841F0100841F010021
:100B440048656172740000000C75455A2047554988
:100B54002044656D6F20322E31352E3030300A003E
:100B6400454550524F4D2053657474696E67730048
:100B74005553424465766963650000004D53310066
:100B840054696D65723200004D61696E00000000A9
:100B94004253505F464154414C5F4552524F52219B
:100BA4000A000000493243310000000054656D70B2
:100BB40030000000416363656C3000004750444DD1
:100BC400413000004750444D4131000055415254DA
:100BD40030000000436F6E736F6C65004144433016
:100BE400000000004441433000000000466C617383
:100BF400683000004261636B6C69676874000000D0
:100C04004C4344004C4344436F6E74726F6C6C6588
:100C140072000000537065616B65720052544300AA
:100C2400436865636B696E6720525443202E2E2EF1
:100C3400000000005254432077617320696E76618E
:100C44006C69642C20726573657420746F20303174
:100C54002F30312F323030392031323A30303A307F
:100C640030000000525443206572726F72202325B5
:100C740064212020436F756C64206E6F7420636858
:100C840065636B2076616C6964697479210A00007C
:100C9400525443204F4B0000454550524F4D3000B5
:100CA4005761746368646F670000000055534248DD
:100CB4006F73743A506F7274410000005553424888
:100CC4006F73743A506F7274420000004641544688
:100CD400530000002F0000004D5330004D434900E5
:100CE400414D5030000000004352433000000000EA
:100CF40050574D300000000050574D3100000000A7
:100D0400546F75636873637265656E00555342442E
:100D14006576696365436F6E74726F6C6C6572009F
:100D240054696D6572300000416363656C65726F70
:100D34006D657465723A467265657363616C653A94
:100D44004D4D41373435353A49324300416363658B
:100D54006C65726F6D657465723A53543A4C4953BD
:100D64003344483A493243004144433A47656E6547
:100D7400726963001C204060800000004175646952
:100D84006F416D703A4E58503A4C4D3438313130D1
:100D9400000000004261636B6C696768743A4765E0
:100DA4006E657269633A50574D0000004352433AEE
:100DB40047656E65726963004441433A47656E65F1
:100DC400726963004B466C6173680000454550527C
:100DD4004F4D3A4E58503A4C5043313778785F343F
:100DE40030787800466C6173683A4E58503A4C50EB
:100DF400433A53504946493A4D340000436F6D6DB0
:100E04006F6E20535049464920436F6D6D616E6487
:100E140020536574000000004D5832354C3132388F
:100E2400333546004D5832354C3132383333460071
:100E34004750444D413A47656E657269630000004E
:100E44004932433A47656E65726963004C43443ADC
:100E540047656E657269635F343830783237323A89
:100E640038426974000000004C43443A47656E659B
:100E74007269635F343830783237323A49313542F7
:100E8400697400004C43443A47656E657269635F58
:100E9400343830783237323A3136426974000000DF
:100EA4004D533A55534200005254433A47656E65D8
:100EB4007269630053657269616C3A47656E657265
:100EC4006963000054656D70657261747572653A8A
:100ED4004E58503A4C4D37354100000054696D6509
:100EE400723A47656E65726963000000546F6E65FF
:100EF40047656E657261746F723A4E58503A476531
:100F04006E657269635F50574D00000080283CD5C0
:100F14000101A0010A062800546F756368736372A7
:100F240065656E3A4D433A4654353330364445345C
:100F3400000000005553424465766963653A4E5893
:100F4400503A4C5043313778785F34307878000029
:100F540047656E657269633A555342486F7374000E
:100F64005761746368646F673A47656E6572696355
:100F740000000000494E464F00000000494E414D1C
:100F84000000000049415254000000004441432045
:100F9400417564696F0000004D7574655461736B2D
:100FA400000000004641494C3A204672657175655F
:100FB4006E6379206D757374206265203120746FBF
:100FC400203130303030300A000000004641494CB6
:100FD4003A2053616D706C652072617465206D7583
:100FE4007374206265203130303020746F203130CA
:100FF400303030302E2020557375616C6C7920327E
:10100400323130300A0000004641494C3A205469DC
:101014006D6572206572726F722025640A0000008B
:101024004641494C3A204E6F7420656E6F7567686F
:10103400206D656D6F727920746F206372656174C1
:10104400652073616D706C650A0000004641494C6F
:101054003A20496E636F72726563742070617261C5
:101064006D65746572732E0A415544494F4441437A
:10107400203C6672657175656E63793E203C7361D0
:101084006D706C6520726174653E203C6D732074D4
:101094006F20706C61793E203C74696D65722064C8
:1010A40072697665723E0A00546573742023256460
:1010B4002057726974650A0046696C65202573209F
:1010C40063616E6E6F74206265206F70656E20665A
:1010D4006F722077726974696E67210A00000000DC
:1010E4004641494C3A2046696C65205772697465DB
:1010F400204572726F720A0046696C652025732060
:1011040063616E6E6F74206265206F70656E206619
:101114006F722072656164696E67210A00000000C5
:101124004641494C3A2046696C6520526561642009
:101134004572726F720A00004641494C3A204D696B
:10114400736D61746368206174206F66667365747F
:10115400202564202830782530325820213D203045
:101164007825303258290A004641494C3A204649EC
:101174004C45544553545752495445203C66696C78
:10118400656E616D653E203C73697A653E203C6DF9
:10119400656D20626C6F636B2073697A653E203CD9
:1011A4006E756D54696D65733E0A00005465737401
:1011B40020232564205665726966790A00000000C0
:1011C4004641494C3A204F7574206F66206D656D19
:1011D4006F727920746F2072756E20746573740A4F
:1011E4000000000049324320427573202573206EAD
:1011F4006F7420666F756E64210A000050726F620E
:10120400696E6720616C6C2031323720493243208B
:10121400616464726573736573206F6E2025733A1D
:101224000A00000020204465766963652040203070
:1012340078253032580A0000202054696D656F7596
:101244007420617420646576696365203078253084
:1012540032582100504153533A204F4B0A000000AA
:101264004641494C3A20496E636F7272656374203B
:10127400706172616D65746572732E0A49324350F0
:10128400524F4245203C627573206E756D626572E3
:101294003E0A000041646472657373206D75737453
:1012A40020626520372D6269742028302D31323751
:1012B400290A000056616C75657320696E20777287
:1012C400697465206D757374206265206279746534
:1012D400732028302D323535292E202025642069AD
:1012E40073206F7574206F662072616E67652E0AB5
:1012F4000000000057726974696E6720746F206281
:1013040075732025732C2061646472203078253035
:1013140032583A0A000000004641494C3A204E41F6
:101324004B0A00004641494C3A2054696D656F757B
:1013340074210A004641494C3A204572726F72206A
:101344002325640A000000004641494C3A20496EB6
:10135400636F727265637420706172616D65746528
:1013640072732E0A4932435752495445203C6275E0
:1013740073206E756D6265723E203C616464723EDA
:10138400205B3C627974653E202E2E2E5D0A00009F
:101394004F7574206F662073706163652E204C69ED
:1013A4006D69746564207265616420627566666542
:1013B40072206F662025642062797465730A0000C8
:1013C40052656164696E67206275732025732C20F1
:1013D40061646472203078253032582C20256420D2
:1013E40062797465733A0A0025303258200000008F
:1013F4002D2000000A0000004641494C3A20496E65
:10140400636F727265637420706172616D65746577
:1014140072732E0A49324352454144203C6275732B
:10142400206E756D6265723E203C616464723E207C
:101434003C6E756D3E0A00004641494C3A204572A7
:10144400726F722025640A004641494C3A20496E65
:10145400636F727265637420706172616D65746527
:1014640072732E0A574156504C4159203C7761768D
:101474002066696C653E0A00257500002578000029
:101484000D0A0000556E6B6E6F776E20636F6D6D85
:10149400616E643A2025730A000000000A232000CC
:1014A4000D0A0D0A0000000025730D0A000000005B
:1014B4000D0A2320257300000820080052455045DA
:1014C40041543A2025730A00434D440046415433A5
:1014D40032202020000000002A2B2C3A3B3C3D3EC9
:1014E4005B5D7C223F7F0000EBFE904D53444F53E5
:1014F400352E30004E4F204E414D452020202046B1
:1015040041543332202020004E4F204E414D45207F
:1015140020202046415420202020200046533A46D3
:1015240041544653000000004269746D61702045C7
:1015340072726F723A20496E76616C696420436FEF
:101544006C6F722050616C657474652053697A65A0
:101554002E0D00004269746D6170204572726F72C5
:101564003A204269746D6170206D757374206265F0
:1015740020612032353620636F6C6F7220696D6193
:1015840067652E0D000000004269746D617020458E
:1015940072726F723A20496E76616C696420436F8F
:1015A4006D7072657373696F6E204D6574686F64D6
:1015B4002E0D000053554953657474696E6773208A
:1015C4006D697373696E67205357494D5F57494E70
:1015D400444F575F54210000417070536372656536
:1015E4006E73617665725374617274204661696CBE
:1015F400656420746F206F70656E206C6364206472
:10160400657669636520274C434427005553424D52
:1016140053447269766500004144433A4C50433167
:101624003778785F343078783A41444330000000AA
:101634004E58503A4C5043313778785F343078788C
:101644003A435243000000004C5043313778785FEE
:10165400343078783A444143300000004750444DD8
:10166400410000004750444D413A4C5043313778D3
:10167400785F343078783A43483700004750444D17
:10168400413A4C5043313778785F343078783A4374
:10169400483600004750444D413A4C504331377866
:1016A400785F343078783A43483500004750444DE9
:1016B400413A4C5043313778785F343078783A4344
:1016C400483400004750444D413A4C504331377838
:1016D400785F343078783A43483300004750444DBB
:1016E400413A4C5043313778785F343078783A4314
:1016F400483200004750444D413A4C50433137780A
:10170400785F343078783A43483100004750444D8C
:10171400413A4C5043313778785F343078783A43E3
:10172400483000004750494F4972710050696E4C6F
:101734006F636B004750494F300000004750494FDA
:10174400310000004750494F320000004750494FD4
:10175400330000004750494F340000004750494FC0
:10176400350000004C5043313778785F3430787856
:10177400204750494F20506F7274203500000000FC
:101784004C5043313778785F34307878204750496B
:101794004F20506F72742034000000004C504331CD
:1017A4003778785F34307878204750494F20506F2D
:1017B40072742033000000004C5043313778785F56
:1017C40034307878204750494F20506F727420325B
:1017D400000000004C5043313778785F343078781B
:1017E400204750494F20506F727420310000000090
:1017F4004C5043313778785F3430787820475049FB
:101804004F20506F72742030000000004C50433160
:101814003778785F343078782049324320427573C2
:10182400320000004C5043313778785F3430787898
:101834002049324320427573310000004C5043313B
:101844003778785F34307878204932432042757392
:10185400300000005653796E630000004C50433151
:101864003778785F34307878204C4344436F6E7413
:10187400726F6C6C657200004E58503A4C50433194
:101884003778785F343078783A50574D310000001B
:101894004E58503A4C5043313778785F343078782A
:1018A4003A50574D300000004C5043313778785F40
:1018B400343078783A525443000000005344524183
:1018C4004D20496E6974000053657269616C3A4C2D
:1018D4005043313738382055415254340000000009
:1018E40053657269616C3A4C50433137383820552E
:1018F400415254330000000053657269616C3A4CE4
:1019040050433137383820554152543200000000DA
:1019140053657269616C3A4C5043313738382055FD
:10192400415254310000000053657269616C3A4CB5
:1019340050433137383820554152543000000000AC
:101944004E58503A4C5043313778785F3430787879
:101954003A54696D657233004E58503A4C504331D5
:101964003778785F343078783A54696D657232002C
:101974004E58503A4C5043313778785F3430787849
:101984003A54696D657231004E58503A4C504331A7
:101994003778785F343078783A54696D65723000FE
:1019A4004E58503A4C5043313778785F3430787819
:1019B4003A5553422044657669636520436F6E74DB
:1019C400726F6C6C657200004C5043313778785FED
:1019D400343078783A555342486F73743A506F7282
:1019E400744200004C5043313778785F3430787853
:1019F4003A555342486F73743A506F727441000001
:101A0400555342004261642050696E00576174630B
:101A140068646F673A4E58503A4C5043313778787F
:101A24005F3430787800000049444C4500000000E1
:101A3400546D725100000000546D7220537663009F
:101A44005374617274757000496E76616C696420B8
:101A54004750494F20506F72742100004163636501
:101A64007373206F6620696E76616C6964204750D9
:101A7400494F20506F7274210000000055455A47A9
:101A840050494F5265676973746572506F72740080
:101A940053637265656E73617665720054535F4D6E
:101AA4006F6E0000506C6179657200004175646965
:101AB4006F436F6465633000493253004300000094
:101AC400504F534958000000286E756C6C29000073
:101AD4002D494E46000000002D696E66000000008E
:101AE4002B494E46000000002B696E660000000082
:101AF4004E414E006E616E000000000001000000C7
:101B040002000000030000000400000005000000C3
:101B140006000000070000000800000009000000A3
:101B24000A0000000B0000000C0000000D00000083
:101B34000E0000000F00000011550428E35504288E
:101B4400D355042800000000552F01003B550428FC
:101B540005000500320005005F00050019001900AA
:101B64004B00190005003200320032005F003200E1
:101B740019004B004B004B0005005F0032005F0072
:101B84005F005F0014020010400200108803001080
:101B94006803001048030010280300100000FFFF32
:101BA400F0F0F0FF000000FF7F7F7FFF0000FFFFE9
:101BB400000000FF7F7F7FFFE0E0E0FF60FFFFFFAA
:101BC400FFFFFFFF000000FF040000000100000011
:101BD400A01B00000500000001000000B01B000075
:101BE4000200000000000000C41B000000022222CA
:101BF40022000000000233333200000000222222BF
:101C04002222222000244444444444210024444405
:101C1400444444210024444444444421002444448E
:101C2400444444210024444444444421002444447E
:101C340044444421002444444444442100222222B4
:101C44002222222100011111111111110FFFFC0098
:101C54000D555F000D555DC00DFFDAA00D5555E023
:101C64000DFFFDE00D5555E00DFFFDE00D5555E070
:101C74000DFFFDE00D5555E00DFFFDE00D5555E060
:101C84000FFFFFE002AAAAA0FF80808080808080EE
:101C9400BE80808080808080FF800002222222001B
:101CA40000000002333332000000002233333222BA
:101CB40022200023333333333321222222222222CF
:101CC4003321244444444444232124444444444488
:101CD40023210244444444444221024444444444AD
:101CE400422100244444444444210022222222224A
:101CF40022210001111111111111FF8080808880AF
:101D04008880BE80888088808080FF802D8A010042
:101D1400A9930100458F010000000000298C0100F7
:101D2400EB8D01002D920100E78E01000000000000
:101D34000000000000000000879A0100000000007D
:101D44001F8E0100C58D0100998D01000000000067
:101D5400F1D7010089D7010003030100040E05280F
:101D6400020201000C0E052806060100140E0528C7
:101D7400060601001C0E052807070100240E05288D
:101D8400060601002C0E052802020100340E052867
:101D9400060601003C0E052804040100440E052833
:101DA400080801004C0E052804040100540E0528FF
:101DB400060601005C0E052806060100640E0528CF
:101DC400040401006C0E052808080100740E05289F
:101DD400060601007C0E052804040100840E052873
:101DE400060601008C0E052804040100940E052843
:101DF400040401009C0E052804040100A40E052817
:101E040006060100AC0E052806060100B40E0528DE
:101E140003030100BC0E052804040100C40E0528B8
:101E240004040100CC0E052805050100D40E052884
:101E340006060100DC0E052808080100E40E05284A
:101E440008080100EC0E052808080100F40E052816
:101E540006060100FC0E052808080100040F0528E9
:101E6400080801000C0F052808080100140F0528B4
:101E7400080801001C0F052808080100240F052884
:101E8400080801002C0F052808080100340F052854
:101E9400070701003C0F052806060100440F05282A
:101EA400060601004C0F052806060100540F0528FC
:101EB400060601005C0F052802020100640F0528D4
:101EC400020201006C0F052802020100740F0528AC
:101ED400020201007C0F052808080100840F052870
:101EE400070701008C0F052808080100940F052836
:101EF400080801009C0F052808080100A40F052804
:101F040008080100AC0F052808080100B40F0528D3
:101F140006060100BC0F052808080100C40F0528A7
:101F240007070100CC0F052807070100D40F052877
:101F340007070100DC0F052807070100E40F052847
:101F440008080100EC0F052807070100F40F052815
:101F540007070100FC0F05280606010004100528E8
:101F6400060601000C1005280606010014100528B9
:101F7400060601001C100528060601002410052889
:101F8400060601002C1005280A0A02003410052850
:101F94000606010044100528060601004C10052819
:101FA4000606010054100528060601005C100528E9
:101FB4000606010064100528020201006C100528C1
:101FC4000202010074100528020201007C10052899
:101FD4000202010084100528060601008C10052861
:101FE4000606010094100528060601009C10052829
:101FF40006060100A410052806060100AC100528F9
:1020040006060100B410052806060100BC100528C8
:1020140006060100C410052806060100CC10052898
:1020240006060100D410052806060100DC10052868
:1020340006060100E410052806060100EC10052838
:1020440006060100F410052806060100FC10052808
:102054000606010004110528B5EC0100D5EC0100C9
:102064008DEC01007DED01008DED01009DED010081
:1020740000000000C1EF010049F00100060000006B
:1020840035F101000DF301003FF3010071F301008C
:10209400C5ED0100D1ED0100E9ED010001EE010003
:1020A4000DEE01001FEE0100F5ED01002BEE010025
:1020B40025EF0100ADEE010005F101000300000071
:1020C400610002009DFE0100E9FC0100F1FA01003B
:1020D40075F80100B9F90100D9F801000FF6010003
:1020E4001DF6010061F601000BF601006DF601001A
:1020F40012001E000500020065220000F821000005
:102104000000000012001E0005000200652200000D
:1021140004220000000000000C0014000300020070
:10212400FB220000F8210000000000000C00140055
:1021340003000200FB220000042200000000000053
:1021440009000F000300020037230000F8210000FB
:102154000000000009000F00030002003723000004
:1021640004220000000000001F001F0008000200FD
:1021740064230000F8210000000000001F001F007D
:102184000800020064230000042200000000000094
:1021940015001500060002005C240000F821000070
:1021A4000000000015001500060002005C24000079
:1021B40004220000000000000B000B0003000200DA
:1021C400DA240000F8210000000000000B000B00DE
:1021D40003000200DA2400000422000000000000D2
:1021E400110011000500020010220000F821000077
:1021F400000000000300000001000000FC240000B7
:102204000300000001000000082500000001900008
:102214000000019000000001900000000190000007
:1022240000019000000001900000040190040019D6
:10223400559559006AAAAAAA40195595590004014E
:102244009004000001900000000190000000019043
:1022540000000001900000000190000000019000C7
:102264000040000000005000000000640000000076
:1022740069000000006A400000006A900000006AE3
:10228400A40000006AA90000006AAA4000006AAA2B
:102294009000006AAAA400006AAAA900006AAAAA77
:1022A40040006AAAAA90006AAAAAA4006AAAAAA9D3
:1022B400006AAAAAAA406AAA9555506A9A90000090
:1022C4006A46A400006906A400006401A900005045
:1022D40001A9000040006A400000006A40000000BC
:1022E4001A900000001A9000000006A400000006E6
:1022F400A4000000015000400000500000640000F1
:102304006900006A40006A90006AA4006AA9006A31
:10231400AA406AAA906AAAA46AA95569A900646A2B
:1023240040506A40401A90001A900006A40006A487
:102334000001504000005000006400006900006A81
:1023440040006A90006AA4006AA9006A95406690F9
:102354000051A40041A400006900006900001400B9
:1023640000000005400000000000000640000000DE
:1023740000000006400000000000000640000000CD
:1023840000000006400000000000000640000000BD
:1023940000000006400000000000000640000000AD
:1023A400000000064000000000000006400000009D
:1023B400000000064000000000000006400000008D
:1023C400000000064000000000000006400000007D
:1023D40055555556555555546AAAAAA9AAAAAAA448
:1023E40055555556555555540000000640000000FB
:1023F400000000064000000000000006400000004D
:10240400000000064000000000000006400000003C
:10241400000000064000000000000006400000002C
:10242400000000064000000000000006400000001C
:10243400000000064000000000000006400000000C
:1024440000000006400000000000000640000000FC
:10245400000000054000000000001500000000001E
:10246400190000000000190000000000190000001D
:10247400000019000000000019000000000019000D
:10248400000000001900000000001900000055556C
:10249400595555406AAAA6AAAA40555559555540BA
:1024A40000001900000000001900000000001900DD
:1024B40000000000190000000000190000000000E6
:1024C40019000000000019000000000019000000BD
:1024D40000001500000000540000640000640000C7
:1024E40064005565546A9AA45565540064000064F8
:1024F40000006400005400000000FFFF000000FF23
:10250400FFFFFFFF0000FFFFFFFFFFFF000000FFD2
:10251400A10F0200C50F0200E90F02000000000035
:1025240041110200E911020005000000A915020092
:10253400B1140200551302008515020009100200AF
:10254400E5120200291302001510020021100200F6
:10255400491002001110020059100200B97E04282B
:102564005D7E04280000000078040000EF080000ED
:10257400660D0000DC11000050160000C21A0000B5
:10258400331F0000A12300000C280000742C00005D
:10259400D93000003A35000096390000EF3D0000C4
:1025A4004242000090460000D94A00001C4F00003F
:1025B400585300008F570000BE5B0000E65F000028
:1025C4000764000020680000316C000039700000CE
:1025D400397400002F7800001C7C0000008000008B
:1025E400DA830000A98700006D8B0000278F0000AC
:1025F400D692000079960000119A00009C9D00007C
:102604001BA100008EA40000F3A700004CAB000047
:1026140097AE0000D5B1000005B5000027B8000052
:102624003ABB00003FBE000035C100001BC40000DF
:10263400F3C60000BBC9000073CC00001CCF00002F
:10264400B4D100003CD40000B3D600001AD9000075
:102654006FDB0000B4DD0000E7DF000009E20000EA
:1026640019E4000017E6000004E80000DEE90000B9
:10267400A6EB00005CED0000FFEE000090F000000F
:102684000EF2000078F30000D0F4000015F600000C
:1026940047F7000065F8000070F9000068FA0000D0
:1026A4004CFB00001CFC0000D9FC000082FD000073
:1026B40018FE000099FE000007FF000060FF000004
:1026C400A6FF0000D8FF0000F6FF00000000010094
:1026D40000006400C80029018801E30139028A026C
:1026E400D402180353038703B203D403EC03FB039C
:1026F40000040000290051007900A000C500EA0090
:102704000D012E014E016C018901A301BD01D5010A
:10271400EB0100020D31020011310200070000003C
:10272400273702001B370200113702000537020069
:102734007536020091370200893702008F36020095
:1027440099360200B53602008B3602007936020053
:1027540000000000050000000A0000000F00000057
:1027640000000000050000000A0000000F00000047
:1027740000000000050000000A0000000F00000037
:10278400FFFFFFFFFFFFFFFFFFFFFFFFFFFFFFFF55
:10279400FFFFFFFFFFFFFFFF000000A0000080001D
:1027A40002020000008793034000000000100000B4
:1027B4000200000003000000050000000200000009
:1027C40004000000020000000400000004000000F7
:1027D400050000000100000002000000001BB7001B
:1027E400000E2707006CDC02010102010202010055
:1027F40001000000FFFFFFFFF40C000000010000D7
:10280400B80B000000000000B80B0000FFFF000040
:1028140000000000FFFF020204020302FFFF0502A2
:10282400FFFFFFFF1C041D0406020A000802090240
:10283400FFFFFFFF1401150116011701180119010B
:10284400FFFFFFFF0C020D021A011B011C011D01F9
:10285400FFFFFFFF0000000000000000FC0C000070
:1028640002000102000000000100000090010000CD
:10287400100000000A0000001D001E00FFFFFFFF03
:10288400FFFFFFFFFFFFFFFFFFFFFFFFFFFFFFFF54
:10289400FFFFFFFFFFFF1301FFFFFFFFFFFF00002C
:1028A4001F00FFFF0E000D00FFFFFFFFFFFFFFFFF4
:1028B400FFFFFFFFFFFFFFFFFFFFFFFFFFFFFFFF24
:1028C400FFFFFFFFFFFF0000060107010B010C01E2
:1028D40013001400FFFFFFFFE00B000000001700CF
:1028E400000000000100000013020000E00B0000E3
:1028F40001001800000000000100000012010000A7
:10290400FFFFFFFFFFFFFFFF1E011F00FFFF0E0081
:102914000D0000000401FFFFFFFF01010001FFFFA4
:10292400FFFFFFFFFFFFFFFF0A0109010E010F0177
:10293400FFFF0801100111012C0D0000000100002F
:10294400E55902001C000000D5590200FD5902009F
:10295400D959020018801900160110001100120044
:102964001300140015001C001D001E0000000000D0
:10297400500D000000010000575C0200240000001C
:10298400535C0200415D02006D5C02006C0D0000AE
:1029940000010000695E020010000000995E020060
:1029A4008F5E0200800D000000010000256102001E
:1029B4002000000095600200096102000960020025
:1029C400A15F02000D5F0200115F0200980D00007C
:1029D400000100009361020030000000A9610200C0
:1029E400F56102003D620200B00D0000000100002C
:1029F400836402000C000000896302008D630200FE
:102A040091630200B7630200DD6302000364020005
:102A14004F64020029640200BC0D0000060100009E
:102A2400B16402000C000000076502002D6502007D
:102A3400BB640200E1640200536502007965020090
:102A4400D00D00000001000059670200640000007E
:102A5400F9650200D16602007D670200E80D0000FE
:102A640000010000896802000C0000007D6802007B
:102A740081680200F36802003D6902007F69020078
:102A8400EB6902008568020093680200A5680200F1
:102A94002F6A02006F6A0200AF6A02001C0E000077
:102AA400C220180000000000000000004D010100D9
:102AB40000010000000001000010001000010000EF
:102AC400003F000085325432320002060A0C0D1118
:102AD400280E0000C22018000000000000000000C2
:102AE4004D01010000010000000001000010001071
:102AF40000010000003F000085325432320002061B
:102B04000A0C0D11340E000000010000D1780200FF
:102B14001C0000000179020041790200857802005E
:102B24007D790200B5790200A1780200AD78020037
:102B3400B9780200C5780200157A0200297A0200E9
:102B4400437A0200597A02008F7C0200440E00008E
:102B540000010000997C020038000000717A020034
:102B6400497B02001D7C0200917B0200B37B0200C2
:102B7400D57B0200FB7B0200A40E000000010000D4
:102B8400BD81020088020000FD8102002F7D020049
:102B9400E17F0200E57D0200BB7D0200E9850200C1
:102BA400FD7C0200017D02000D7D0200057D020016
:102BB400097D0200A40E000000010000458D020002
:102BC4003000000029860200898602005D89020027
:102BD4005F8C02003B860200C78802003F86020029
:102BE400438602006D860200478602004B8602007F
:102BF400B58902004F860200AC0E000000010000FF
:102C04004F8E02000C000000298E0200C98D0200C4
:102C1400EF8D0200C58D0200B80E00000001000017
:102C2400818E020020000000F78E0200278F020030
:102C340073900200998F0200D98F0200558F020011
:102C4400C80E0000000100004991020010000000BD
:102C540053910200E00E0000000100000392020004
:102C640014000000119202003192020051920200FD
:102C74007192020097920200BD920200F19202004A
:102C84001D930200F00E0000000100008593020075
:102C9400200000007D9302008193020099930200BA
:102CA4001C0F0000000100009D950200C000000000
:102CB400A5940200AF940200D7950200B9940200D3
:102CC40055950200C79402008D950200B995020043
:102CD400802850DB0006A0010A062800380F0000F7
:102CE40000010000D99D020030010000A99D0200EE
:102CF4008B9D02006D9D02004F9D02002B9D0200E2
:102D0400059D0200D19C02009D9C0200779C02005C
:102D1400519C02002F9C02000D9C0200E79B0200C4
:102D2400939B0200419B0200E99A0200899A0200E7
:102D3400579A0200359A0200540F00000001000067
:102D440015A6020024000000E1A5020097A50200D8
:102D540075A5020057A5020031A502000FA50200C7
:102D6400E5A40200BFA402008BA4020061A4020037
:102D74000FA40200CBA302008BA302004BA302000A
:102D84000BA30200CBA202008BA2020039A2020014
:102D940021A0020013A002002FA0020005A002003F
:102DA400640F000007010000C9A60200140000001F
:102DB400D3A60200F9A602001FA7020041A7020041
:102DC4005FA7020081A70200A3A70200C5A7020013
:102DD400E9A7020001000400100040000001000205
:102DE40000000000010002000400080010002000A0
:102DF40000000000070000000000000000000000C8
:102E040000000000809A45418E418F804545454928
:102E140049498E8F9092924F994F555559999A9B43
:102E24009C9D9E9F41494F55A5A5A6A7A8A9AAABBD
:102E3400ACADAEAFB0B1B2B3B4B5B6B7B8B9BABB56
:102E4400BCBDBEBFC0C1C2C3C4C5C6C7C8C9CACB46
:102E5400CCCDCECFD0D1D2D3D4D5D6D7D8D9DADB36
:102E6400DCDDDEDFE0E1E2E3E4E5E6E7E8E9EAEB26
:102E7400ECEDEEEFF0F1F2F3F4F5F6F7F8F9FAFB16
:102E8400FCFDFEFF201500000001000017E6020013
:102E9400C80800004DE6020007E8020049E8020005
:102EA4008FE80200D5E8020067EB02002FEA020077
:102EB400F5E802000FE7020049E7020089E7020093
:102EC4000FE9020033E9020053E9020095E9020028
:102ED400D5E90200FBE90200C3E702002000207EDE
:102EE40010300000B02F0000F02E000000000000A1
:102EF400010002000400060008000A000B000C0098
:102F04000D000E0010001100120013001400160032
:102F14001700180019001B001D001F0020002100CD
:102F2400230024002500270029002B002D002F005A
:102F3400310033003500370039003B003D003F00CD
:102F44004000410043004500470049004B004D004C
:102F54004F00510053005500570059005B005D00BD
:102F64005F00610062006300640065006700680040
:102F74006A006C006D006E006F00700071007200DA
:102F84007300740075007600780079007B007D0082
:102F94007E007F008000810082008300850086001F
:102FA4008700880089008A008B008D00090E0C12AE
:102FB400121D16080D0C0C140C0C0C09131414130C
:102FC4001313141413140C0C1515151323151819B5
:102FD4001A18171B1A0C1118151E1A1B181B1A166F
:102FE400131915201616150B090A0F120D121311B9
:102FF40012120B1214090712091D141213120D11C7
:10300400091410171010100C0B0C14000000001CF5
:10301400001C001C001C001C001C001C001C001CCC
:10302400001C001C001C001C001C001C001C0000D8
:1030340000000000001C001C001C00000000000038
:103044000000000000000000000000000000C0714B
:10305400C071C071C071C071C071C0710000000046
:10306400000000000000000000000000000000005C
:10307400000000000000000000000000000000004C
:10308400000000000000000000000000000000003C
:10309400020100000603000006030000060300000E
:1030A400040200000C060000FF7F0080FF7F008008
:1030B4000C06000008040000180C0000180C0000A6
:1030C400180C0000180C0000FFFF0080FFFF0080B8
:1030D40030180000301800002010000020100000FC
:1030E40060300000603000000000000000000000BC
:1030F40000000000000000000000000000000000CC
:10310400000000000000000000000000C0000000FB
:10311400C0000000F8070000FF1F0000CF3C008043
:10312400C3780080C17000C0C0700000C07000008F
:10313400C0780000C03C0000C01F0000FC0F00006D
:10314400FF010000CF000080C30000C0C10000C028
:10315400C10000C0C1E000C0C1F000C0C370008065
:10316400CF7C0080FF1F0000F8070000C0000000B3
:10317400C0000000C00000000000000000000000CB
:10318400000000000000000000000000000000003B
:10319400000F001CC03F0018C0300030E070007009
:1031A40060600060606000E0606000C0616000809A
:1031B4006360008F6360C03FE670C030C630E0706B
:1031C400CC3F60601C0F606018006060300060607D
:1031D4007000606060006060C000E070C000C030DB
:1031E4008001C03F8003000F0000000000000000C9
:1031F40000000000000000000000000000000000CB
:1032040000000000000000000000000000000000BA
:10321400F8000000FE03000007070000030600009A
:103224000306000003060000060600001E07000057
:10323400F8030000E0030000800F0000C01F0060DE
:10324400C03C00E0603800C0717000C0397000807C
:103254001F7000800F700000077800001F3C008082
:10326400FD1F00F8E00700F8000000000000000067
:10327400000000000000000000000000000000004A
:103284000000000000000000000000000000003802
:1032940000380038003800380038003800000000DA
:1032A400000000000000000000000000000000001A
:1032B400000000000000000000000000000000000A
:1032C400000000000000000000000000C0018003B6
:1032D40000030007000E000E001C001C001C001C54
:1032E400003800380038003800380038003800381A
:1032F40000380038001C001C001C001C000E000ECE
:10330400000700038003C0010000000000700038C3
:103314000018001C000E000E00070007000700073D
:103324008003800380038003800380038003800381
:10333400800380030007000700070007000E000E4B
:10334400001C001800380070000000000000000697
:10335400000600062046F0FFC03F000F000F801952
:10336400C0398010000000000000000000000000D0
:103374000000000000000000000000000000000049
:103384000000000000000000000000000000000039
:10339400000000000000000000000000C000000069
:1033A400C0000000C0000000C0000000C000000019
:1033B400C0000000C0000000FF7F0080FF7F00808D
:1033C400C0000000C0000000C0000000C0000000F9
:1033D400C0000000C0000000C000000000000000A9
:1033E40000000000000000000000000000000000D9
:1033F40000000000000000000000000000000000C9
:1034040000000000000000000000000000000000B8
:1034140000000000000000000000000000000000A8
:103424000000000000000000000000000000000098
:1034340000000000001C001C001C000C000C000C10
:103444000018001800000000000000000000000048
:103454000000000000000000000000000000000068
:10346400000000000000807F807F807F000000005B
:103474000000000000000000000000000000000048
:103484000000000000000000000000000000000038
:103494000000000000000000000000000000000028
:1034A4000000000000000000000000000000000018
:1034B40000000000001C001C001C000000000000B4
:1034C40000000000000000000000000080038003F2
:1034D40000030007000700060006000E000E000CA3
:1034E400000C001C001C00180038003800300030AC
:1034F40000700070006000E000E0000000000000C8
:1035040000000000000000000000000000000000B7
:10351400F0030000FC0F00001E1E00000E3C000023
:103524000738000007380000037000800370008033
:1035340003700080037000800370008003700080BB
:1035440003700080037000800370008003700080AB
:1035540007380000073800000E1C00001E1E000083
:10356400FC0F0000F0030000000000000000000059
:103574000000000000000000000000000000000047
:103584000000000000000000000000000000E00156
:10359400E003E00FE01EE018E010E000E000E000CF
:1035A400E000E000E000E000E000E000E000E00017
:1035B400E000E000E000FF3FFF3F000000000000EB
:1035C4000000000000000000000000000000F00304
:1035D400FC0F1E1E0F1C07380738070007000E00DB
:1035E4000E001C0038007000E001C0038007000FCB
:1035F400000E001C0038FF3FFF3F000000000000E9
:103604000000000000000000000000000000E007CF
:10361400F81F3C3C1E380E700E700E000E001C008D
:103624003C00F003F8031C000E00070007000770BD
:1036340007700F381E3CFC1FF0070000000000005C
:103644000000000000000000000000000000000076
:103654003C0000003C0000007C000000FC00000076
:10366400DC000000DC0100009C0300001C030000DF
:103674001C0700001C0E00001C0E00001C1C000097
:103684001C3800001C3800001C700000FF7F008004
:10369400FF7F00801C0000001C0000001C000000D4
:1036A4001C0000001C0000000000000000000000DE
:1036B4000000000000000000000000000000000006
:1036C40000000000000000000000000000000000F6
:1036D400FF1F0000FF1F000000180000003800005A
:1036E40000380000003800000038000000380000F6
:1036F400F8390000FE3F00001F3E000007380000BC
:1037040007000080030000800300008003000080A5
:103714000310008007700080073800001E3C000082
:10372400FC1F0000F0070000000000000000000083
:103734000000000000000000000000000000000085
:103744000000000000000000000000000000000075
:10375400F8010000FC0700001E0F00000F0E00001F
:10376400071C0000001C00000018000000380000C6
:10377400F8380000FE3B00000F3E0000073C00004C
:10378400033C008003380080033800800338008045
:10379400031C0080031C0080071E00000F0F0000A4
:1037A400FE070000F8010000000000000000000017
:1037B4000000000000000000000000000000000005
:1037C4000000000000000000000000000000FF3FB7
:1037D400FF3F07000E000C001C00180038003000EA
:1037E40070006000E000E000C001C001C001C00141
:1037F4008003800380038003800300000000000036
:103804000000000000000000000000000000F007BD
:10381400F80F1C1C0E380E380E380E380E381C1CCF
:10382400F80FF80F1C1C0E3807700770077007702C
:1038340007700E381E3CFC1FF0070000000000005B
:103844000000000000000000000000000000000074
:10385400F0030000FC0F00001E1E00000F1C0000FF
:103864000738000007380000033800800338008060
:103874000338008007380080071C00801F1E00806A
:10388400FB0F0080E30300800300008007000000BA
:1038940007000000073800000E3C00001C1E00005A
:1038A400F80F0000F003000000000000000000001A
:1038B4000000000000000000000000000000000004
:1038C40000000000000000000000000000000000F4
:1038D4000000000000000000001C001C001C000090
:1038E40000000000000000000000000000000000D4
:1038F40000000000001C001C001C00000000000070
:1039040000000000000000000000000000000000B3
:103914000000000000000000001C001C001C00004F
:103924000000000000000000000000000000000093
:1039340000000000001C001C001C000C000C000C0B
:103944000018001800000000000000000000000043
:1039540000000000000000000000000000000080E3
:10396400030000800F0000807E000000F8010000CA
:10397400C0070000001F0000003C000000300000F1
:10398400003C0000001F0000C0070000F801000018
:103994007E0000000F000080030000800000008013
:1039A4000000000000000000000000000000000013
:1039B4000000000000000000000000000000000003
:1039C40000000000000000000000000000000000F3
:1039D40000000000000000000000000000000000E3
:1039E4000000000000000000FF3F0080FF3F008057
:1039F40000000000000000000000000000000000C3
:103A04000000000000000000FF3F0080FF3F008036
:103A140000000000000000000000000000000000A2
:103A24000000000000000000000000000000000092
:103A34000000000000000000000000000000000082
:103A44000000000000000000000000000000000072
:103A54000000000000000000000000000020000042
:103A640000380000003E0000C00F0000F00300001A
:103A74007C0000001F00000007000080010000809F
:103A8400070000801F0000007C000000F00300001D
:103A9400C00F0000003E00000038000000200000BD
:103AA4000000000000000000000000000000000012
:103AB4000000000000000000000000000000000002
:103AC40000000000000000000000000000000000F2
:103AD400F8030000FE0F00000F1E0000073800006E
:103AE40003780080037000800330008003000080AE
:103AF400070000000F0000001E0000003C00000052
:103B0400F0000000E0000000C0010000C00100005F
:103B1400000000000000000000000000C0010000E0
:103B2400C0010000C001000000000000000000000F
:103B34000000000000000000000000000000000081
:103B4400000000000000000000000000030000FC72
:103B54001F0080FF7C00C003F000E000C001700083
:103B640080033800030718E30F0618FB1E0E0C1B16
:103B74001C0C0C0F380C0C0638180C0670180C06AC
:103B840070180C0E70180C0C7018180C7018181C87
:103B94007018383C3818706C3F0CE0CF0F0C8087DD
:103BA400000600000007000080038001F001800F80
:103BB4007F0000FE1F0000F0000000000000000075
:103BC40000000000000000000000000000000000F1
:103BD40070000000F8000000D8000000DC010000C4
:103BE400DC0100008C0100008E0300008E03000045
:103BF400070700000707000003060000030E00800B
:103C0400030E0080FF1F00C0FF1F00C0001800C08B
:103C1400003800E0003800E00070007000700070B0
:103C24000070007000E00038000000000000000098
:103C34000000000000000000000000000000000080
:103C44000000000000000000000000000000000070
:103C5400FE1F0000FF1F0080031C00C0011C00E0C9
:103C6400001C00E0001C00E0001C00E0001C00E060
:103C7400011C00C0031C0080FF1F0000FF1F008008
:103C8400011C00E0001C00E0001C0070001C00701F
:103C9400001C0070001C0070001C00F0011C00E0FF
:103CA400FF1F00C0FF1F0000000000000000000014
:103CB4000000000000000000000000000000000000
:103CC40000000000000000000000000000000000F0
:103CD4007F000000FF0100E0C10700F0000F007842
:103CE400000E0038001C001C001C000000380000FE
:103CF40000380000003800000038000000380000E0
:103D0400003800000038000000380000001C0018D3
:103D1400001C001C000E0038000F0078C10700F0E2
:103D2400FF0100C07F000000000000000000000050
:103D3400000000000000000000000000000000007F
:103D4400000000000000000000000000000000006F
:103D5400FC1F0000FF1F0080031C00E0001C00F09B
:103D6400001C0070001C0038001C0038001C001CE3
:103D7400001C001C001C001C001C001C001C001C5F
:103D8400001C001C001C001C001C003C001C003813
:103D9400001C0038001C0070001C00E0031C00E044
:103DA400FF1F0080FE1F0000000000000000000054
:103DB40000000000000000000000000000000000FF
:103DC40000000000000000000000000000000000EF
:103DD400FF1F00E0FF1F00E0001C0000001C0000AB
:103DE400001C0000001C0000001C0000001C00005F
:103DF400001C0000001C0000FF1F00C0FF1F00C0CB
:103E0400001C0000001C0000001C0000001C00003E
:103E1400001C0000001C0000001C0000001C00002E
:103E2400FF1F00F0FF1F00F0000000000000000072
:103E3400000000000000000000000000000000007E
:103E4400000000000000000000000000000000006E
:103E5400FF1F00C0FF1F00C0001C0000001C00006A
:103E6400001C0000001C0000001C0000001C0000DE
:103E7400001C0000001C0000001C0000FF1F00C00C
:103E8400FF1F00C0001C0000001C0000001C0000FC
:103E9400001C0000001C0000001C0000001C0000AE
:103EA400001C0000001C00000000000000000000D6
:103EB40000000000000000000000000000000000FE
:103EC40000000000000000000000000000000000EE
:103ED4007F000080FF0100F0C00700F8000F003CE5
:103EE400000E001E001C000C001C00000038000026
:103EF400003800000038000000380000073800FED9
:103F0400073800FE0038000E0038000E001C000EBA
:103F1400001C000E000E000E000F001EC00700FC67
:103F2400FF0100F07F00008000000000000000009E
:103F3400000000000000000000000000000000007D
:103F4400000000000000000000000000000000006D
:103F5400001C0038001C0038001C0038001C00380D
:103F6400001C0038001C0038001C0038001C0038FD
:103F7400001C0038FF1F00F8FF1F00F8001C003869
:103F8400001C0038001C0038001C0038001C0038DD
:103F9400001C0038001C0038001C0038001C0038CD
:103FA400001C0038001C0038000000000000000065
:103FB40000000000000000000000000000000000FD
:103FC4000000000000000000000000000000001CD1
:103FD400001C001C001C001C001C001C001C001CFD
:103FE400001C001C001C001C001C001C001C001CED
:103FF400001C001C001C001C001C00000000000031
:104004000000000000000000000000000000FC01AF
:10401400FC011C001C001C001C001C001C001C00DB
:104024001C001C001C001C001C001C001C001C703C
:104034001C703838783CF01FC007000000000000F6
:10404400000000000000000000000000000000006C
:10405400001C00F0011C00E0031C00C0071C0080D1
:104064000F1C00001E1C00003C1C0000781C0000FB
:10407400F01C0000E01D0000E01F0000F01F000025
:10408400381E00001C1C00001E1C00000F1C000039
:10409400071C0000031C0080031C00C0011C00E07E
:1040A400001C00F0001C007800000000000000006C
:1040B40000000000000000000000000000000000FC
:1040C40000000000000000000000000000000000EC
:1040D400001C0000001C0000001C0000001C00006C
:1040E400001C0000001C0000001C0000001C00005C
:1040F400001C0000001C0000001C0000001C00004C
:10410400001C0000001C0000001C0000001C00003B
:10411400001C0000001C0000001C0000001C00002B
:10412400FF1F0080FF1F008000000000000000004F
:10413400000000000000000000000000000000007B
:10414400000000000000000000000000000000006B
:10415400001E000F001F001F001F001F001F001F74
:10416400801F003F801D0037C01D0037C01D007731
:10417400C01C0067E01C00E7E01C00E7601C00C7EF
:10418400711C00C7711C00C7311C00873B1C0087D1
:104194001B1C00871B1C00071B1C00070E1C0007B0
:1041A4000E1C00070E1C00070000000000000000A9
:1041B40000000000000000000000000000000000FB
:1041C40000000000000000000000000000000000EB
:1041D400001E0038001F0038001F0038801F003800
:1041E400C01D0038C01D0038E01C0038E01C003839
:1041F400701C0038381C0038381C00381C1C00386F
:104204001C1C00380E1C0038071C0038071C003822
:10421400031C00B8031C00B8011C00F8001C00F8C3
:10422400001C00F8001C00780000000000000000E2
:10423400000000000000000000000000000000007A
:10424400000000000000000000000000000000006A
:104254007F000000FF0100C0C10700F0000F0078DC
:10426400000E0038001C001C001C001C0038000E4E
:104274000038000E0038000E0038000E0038000E22
:104284000038000E0038000E0038000E001C001C20
:10429400001C001C000E0038000F0078C10700F05D
:1042A400FF0100C07F0000000000000000000000CB
:1042B40000000000000000000000000000000000FA
:1042C40000000000000000000000000000000000EA
:1042D400FF1F0000FF1F00C0011C00E0001C00E0E5
:1042E400001C0070001C0070001C0070001C00709A
:1042F400001C0070001C00E0011C00E0FF1F00C057
:10430400FF1F0000001C0000001C0000001C000037
:10431400001C0000001C0000001C0000001C000029
:10432400001C0000001C0000000000000000000051
:104334000000000000000000000000000000000079
:104344000000000000000000000000000000000069
:104354007F000000FF0100C0C10700F0000F0078DB
:10436400000E0038001C001C001C001C0038000E4D
:104374000038000E0038000E0038000E0038000E21
:104384000038000E0038000E0038000E001C001C1F
:10439400001C001C000E0038000F0078C10700F05C
:1043A400FF0300C07F0000000E0000000E000000AC
:1043B4000F00000007000080030000F0010000F07F
:1043C40000000000000000000000000000000000E9
:1043D400FF1F0080FF1F00E0001C00F0001C0070A5
:1043E400001C0038001C0038001C0038001C003879
:1043F400001C0038001C0070001C00F0FF1F00E0CF
:10440400FF1F0000071C0000031C0080031C00C0E9
:10441400011C00C0001C00E0001C00F0001C007027
:10442400001C0038001C003C0000000000000000DC
:104434000000000000000000000000000000000078
:104444000000000000000000000000000000000068
:10445400FE030000FF0F0080071E00C0013C00C0E7
:10446400003800E00038000000380000003C000084
:10447400001F0000F00F0000FF070000FF0000C055
:10448400070000E0000000F0000000700000007071
:104494000070007000780070003C00E0031E00E033
:1044A400FF0F0080FE030000000000000000000079
:1044B40000000000000000000000000000000000F8
:1044C40000000000000000000000000000000000E8
:1044D400FFFF00E0FFFF00E0E0000000E00000005C
:1044E400E0000000E0000000E0000000E000000048
:1044F400E0000000E0000000E0000000E000000038
:10450400E0000000E0000000E0000000E000000027
:10451400E0000000E0000000E0000000E000000017
:10452400E0000000E00000000000000000000000C7
:104534000000000000000000000000000000000077
:104544000000000000000000000000000000000067
:104554000038003800380038003800380038003897
:104564000038003800380038003800380038003887
:104574000038003800380038003800380038003877
:104584000038003800380038003800380038003867
:1045940000380078001C0070001E00F0030F00E0DB
:1045A400FF070080FE000000000000000000000083
:1045B40000000000000000000000000000000000F7
:1045C40000000000000000000000000000000000E7
:1045D40000E000380070007000700070007800F097
:1045E400003800E0003800E0011C00C0011C00C0DD
:1045F400011C00C0030E0080030E008007070000AA
:1046040007070000070700008E0300008E03000068
:10461400DC010000DC010000D8000000F80000000C
:10462400F80000007000000000000000000000001E
:104634000000000000000000000000000000000076
:104644000000000000000000000000000000000066
:1046540007E01C8007F03C800770388007703880C2
:104664000F7038C00F3870C00C3870C00C3870C070
:104674001C1CE0E01C1CE0E0181CE060381CE0702E
:10468400380EC071300EC031300EC0317007803B1F
:104694007007803B6007801B6003001BE003001F62
:1046A400E003001FC003000F000000000000000032
:1046B40000000000000000000000000000000000F6
:1046C40000000000000000000000000000000000E6
:1046D400003C00F0001C00E0010E00C0030F00C00D
:1046E4000307008087030000CF010000CE01000013
:1046F400FC00000078000000780000007800000052
:10470400FC000000CE010000C70100008703000088
:1047140003070080010E00C0010E00C0001C00E071
:1047240000380070007800780000000000000000ED
:104734000000000000000000000000000000000075
:104744000000000000000000000000000000000065
:104754000078007800380070001C00E0011C00E0C4
:10476400010E00C0030F008007070000870300004C
:104774008E030000DC010000FC000000F8000000D3
:104784007000000070000000700000007000000065
:104794007000000070000000700000007000000055
:1047A4007000000070000000000000000000000025
:1047B40000000000000000000000000000000000F5
:1047C40000000000000000000000000000000000E5
:1047D400FF3F00C0FF3F00C00300008007000080CF
:1047E400070000000E0000001C0000003C00000058
:1047F4003800000070000000E0000000E00100004C
:10480400C00100008003000080070000000F0000CA
:10481400000E0000001C0000003C000000380000F6
:10482400FF7F00E0FF7F00E00000000000000000C8
:104834000000000000000000000000000000000074
:10484400000000000000000000000000003F003FE6
:104854000038003800380038003800380038003894
:104864000038003800380038003800380038003884
:104874000038003800380038003800380038003874
:1048840000380038003F003F0000000000E000E076
:1048940000600060007000300030003800380018FC
:1048A4000018001C001C000C000E000E0006000680
:1048B40000070007000380038003000000000000DD
:1048C400000000000000000000000000007E007EE8
:1048D400000E000E000E000E000E000E000E000E64
:1048E400000E000E000E000E000E000E000E000E54
:1048F400000E000E000E000E000E000E000E000E44
:10490400000E000E007E007E000000000000800308
:10491400C007C006E00E701C3018383818301C7000
:104924000C600EE000000000000000000000000029
:104934000000000000000000000000000000000073
:104944000000000000000000000000000000000063
:104954000000000000000000000000000000000053
:104964000000000000000000000000000000000043
:104974000000000000000000000000000000000033
:104984000000000000000000000000000000000023
:104994000000000000000000000000000000000013
:1049A4000000000000000000000000000000000003
:1049B4000000000000000000FFFF00C0FFFF00C077
:1049C400000000000000000000000000003C001E89
:1049D400000E000380010000000000000000000041
:1049E40000000000000000000000000000000000C3
:1049F40000000000000000000000000000000000B3
:104A040000000000000000000000000000000000A2
:104A14000000000000000000000000000000000092
:104A240000000000F0070000F80F00001C1C00004C
:104A34000E3800000E3800000E0000000E000000CA
:104A4400FE070000FE1F00000E3C00000E78000070
:104A54000E7000001E7000001E7000006F780000D1
:104A6400E73F00C0871F00C00000000000000000F6
:104A74000000000000000000000000000000000032
:104A840000000000000000000000000000380000EA
:104A94000038000000380000003800000038000032
:104AA40000380000F8380000FE3B00000F3E000014
:104AB400073C0000073C0080033800800338008076
:104AC40003380080033800800338008003380080F6
:104AD40003380080073C0080073C00000F3E0000C4
:104AE400FE3B0000F8380000000000000000000059
:104AF40000000000000000000000000000000000B2
:104B040000000000000000000000000000000000A1
:104B14000000000000000000E007F80F3C1C1C38F7
:104B24000E3000700070007000700070007008702B
:104B34000E381C383C1CF80FE00700000000000091
:104B44000000000000000000000000000700070053
:104B54000700070007000700C707F71F1F3C0F38AF
:104B64000F78077007700770077007700770077079
:104B74000F700F381F3CF71FC7070000000000002C
:104B84000000000000000000000000000000000021
:104B94000000000000000000F007F80F1C1C0E3895
:104BA4000E3807700770FF7FFF7F00700070007081
:104BB40004380F381E1CFC0FF00300000000000036
:104BC4000000000000000000000000008007800FCB
:104BD400001E001C001C001C807F807F001C001C29
:104BE400001C001C001C001C001C001C001C001CE1
:104BF400001C001C001C001C001C00000000000025
:104C040000000000000000000000000000000000A0
:104C14000000000000000000C707F71F3F3C0F38EA
:104C24000F780770077007700770077007700770B8
:104C34000F700F383F3CF71FC7070700070007082E
:104C44000E381E1EFC0FF00700000000003800386C
:104C54000038003800380038F838FE3B0E3E073C78
:104C6400073C073807380738073807380738073844
:104C740007380738073807380738000000000000F5
:104C840000000000000000000000000000380038B0
:104C940000380000000000000038003800380038F8
:104CA4000038003800380038003800380038003840
:104CB40000380038003800380038000000000000D8
:104CC400000000000000000000000000001C001CA8
:104CD400001C000000000000001C001C001C001C44
:104CE400001C001C001C001C001C001C001C001CE0
:104CF400001C001C001C001C001C001C001C001CD0
:104D0400001C003C00F800F00000000000380038EF
:104D140000380038003800380F381E383C387838EE
:104D2400F038E038C039803BC03FC03FE03C7038C9
:104D3400783838381C380E380F380000000000006E
:104D440000000000000000000000000000380038EF
:104D5400003800380038003800380038003800388F
:104D6400003800380038003800380038003800387F
:104D74000038003800380038003800000000000017
:104D8400000000000000000000000000000000001F
:104D9400000000000000000000000000000000000F
:104DA40000000000F839007EFC3B00FF1D3E008738
:104DB4000F3C80030E3880030E3880030E388003C6
:104DC4000E3880030E3880030E3880030E388003BB
:104DD4000E3880030E3880030E3880030E388003AB
:104DE4000E3880030E38800300000000000000002D
:104DF40000000000000000000000000000000000AF
:104E0400000000000000000000000000000000009E
:104E14000000000000000000F838FE3B0E3E073C96
:104E2400073C073807380738073807380738073882
:104E34000738073807380738073800000000000033
:104E4400000000000000000000000000000000005E
:104E5400000000000000000000000000000000004E
:104E640000000000F0030000FC0F00000E1E000014
:104E740007380000073800000370008003700080CA
:104E84000370008003700080037000800370008052
:104E94000370008007380000073800001E1E000061
:104EA400FC0F0000F0030000000000000000000000
:104EB40000000000000000000000000000000000EE
:104EC40000000000000000000000000000000000DE
:104ED40000000000000000000000000000000000CE
:104EE40000000000F8380000FE3B00000F3E000008
:104EF400073C0000073C0080033800800338008032
:104F040003380080033800800338008003380080B1
:104F140003380080073C0080073C00000F3E00007F
:104F2400FE3B0000F83800000038000000380000A4
:104F3400003800000038000000380000003800008D
:104F44000038000000000000000000000000000025
:104F54000000000000000000C707F71F1F3C0F38C7
:104F64000F78077007700770077007700770077075
:104F74000F700F381F3CF71FC70707000700070013
:104F84000700070007000700000000000000000001
:104F94000000000000000000C039C03BC03F003EDC
:104FA400003C003800380038003800380038003839
:104FB40000380038003800380038000000000000D5
:104FC40000000000000000000000000000000000DD
:104FD4000000000000000000F007FC1F1C3C0E381D
:104FE40000380038003EE01FF807FC001E000E00E9
:104FF4000E100E701C3CF83FF00F00000000000083
:10500400000000000000000000000000000000009C
:10501400001800180038003800FF00FF003800387E
:1050240000380038003800380038003800380038BC
:10503400003800380038003F001F00000000000066
:10504400000000000000000000000000000000005C
:105054000000000000000000073807380738073850
:105064000738073807380738073807380738073844
:105074000F380F381F1CF71FC7070000000000007F
:10508400000000000000000000000000000000001C
:10509400000000000000000007E00E700E700E70AB
:1050A4001C381C381C38381C381C300C700E700E20
:1050B4006006E007E007C003C00300000000000032
:1050C40000000000000000000000000000000000DC
:1050D40000000000000000000000000000000000CC
:1050E4000000000038E0000E38E0000E6C60000C98
:1050F4006C70001C6C70001C6C300018EE300018D2
:10510400C6380038C6380038C6180030C71D0070CD
:10511400831D0070830D0060830D0060830D0060AB
:10512400830F00E0010700C0000000000000000041
:10513400000000000000000000000000000000006B
:10514400000000000000000000000000000000005B
:1051540000000000000000000FE00E701C38381C36
:10516400381C700EE007C003C003E007E007700EB0
:10517400381C383C1C380E7007E0000000000000AA
:10518400000000000000000000000000000000001B
:10519400000000000000000007E00E700E700E70AA
:1051A4001C381C381818381C381C300E700E600659
:1051B400E007E007C003C00380038003800300030B
:1051C4000007000E007C00780000000000000000D2
:1051D4000000000000000000FC3FFC3F3C003800E1
:1051E4007000E000E001C00180030007000F000E22
:1051F400001C00380078FE7FFE7F000000000000E5
:10520400000000000000000000000000C003C00710
:10521400000F000E000E000E000E000E000E000E19
:10522400000E000E000E001C00780078001C000E1A
:10523400000E000E000E000E000E000E000E000EFA
:10524400000E000FC007C00300000000001C001C7B
:10525400001C001C001C001C001C001C001C001C6A
:10526400001C001C001C001C001C001C001C001C5A
:10527400001C001C001C001C001C001C001C001C4A
:10528400001C001C001C001C000000000078007CB6
:10529400001E000E000E000E000E000E000E000E8A
:1052A400000E000E000E0007C003C0030007000E2E
:1052B400000E000E000E000E000E000E000E000E7A
:1052C400000E001E007C00780000000000000000BA
:1052D40000000000000000000000000000000000CA
:1052E40000000000000000000000000000000000BA
:1052F40000000000001F0080E17F0080FF6000804C
:105304003F4000000000000000000000000000001A
:105314000000000000000000000000000000000089
:105324000000000000000000000000000000000079
:105334000000000000000000000000000000000069
:105344000000000000000000000000004C00207E6F
:10535400805400002054000060530000000000004E
:1053640001000300060009000D00110012001400E2
:10537400160019001C001D001F002000220025003B
:1053840027002A002D0030003300360039003C008D
:105394003F0040004100440047004A004C005000D8
:1053A4005300560059005C005F006200650068000D
:1053B4006A006C006F007200760079007D00800046
:1053C400840087008A008D009000930098009B0061
:1053D4009E00A100A300A500A700AA00AC00AE0097
:1053E400B100B400B600B900BC00BE00C100C400E6
:1053F400C500C600C900CA00CE00D100D400D70041
:10540400DA00DC00DE00E000E300E600EA00ED0084
:10541400F000F200F400F600F800FB001419243345
:105424002E4339161A1A2D2E151B191D2E312E2D09
:105434002B2F2E2D2E2E19162E2E2E21462E3633A0
:105444003B2F2C393C1D15332C493E3D333D342B29
:10545400283C2B442A282C1D1D192A1F3B2C33279A
:10546400312D1C283319142C1A4A33303331242596
:105474001B33243A2725251D3C1D2E000000000067
:10548400FC03FC03FC03FC03FC03FC03FC03FC0320
:10549400FC03F803F803F801F801F801F801F80136
:1054A400F801F801F801F801F801F801F801F80130
:1054B400F801F801F801F801F801F801F801F00128
:1054C400F000F000F000F000F000F000F000000048
:1054D40000000000000000000000F001F803FC07D9
:1054E400FC07FC07FC07FC07FC07F803F0010000BD
:1054F40000000000000000000000000000000000A8
:105504000000000000000000000000000000000097
:10551400000000000000000000000000F007C01FB1
:10552400F007C01FF007C01FF007C01FF007C01F1F
:10553400F007C01FF007C00FF003C00FF003C00F47
:10554400F003C00FF003C00FE003800FE003800FEF
:10555400E003800FE003800FE003800FE003800F7F
:10556400E003800FE003800FE003800F00000000E1
:105574000000000000000000000000000000000027
:105584000000000000000000000000000000000017
:105594000000000000000000000000000000000007
:1055A40000000000000000000000000000000000F7
:1055B40000000000000000000000000000000000E7
:1055C40000000000000000000000000000000000D7
:1055D40000000000000000000000000000000000C7
:1055E40000000000000000000000000000000000B7
:1055F40000000000000000000000000000000000A7
:105604000000000000000000000000000000000096
:105614000000000000000000000000000000000086
:105624000000000000000000000000000000000076
:105634000000000000000000000000000000000066
:105644000000000000000000000000000000000056
:105654000000001F800F0000001F801F0000001FBB
:10566400801F0000003F001F0000003F001F0000DB
:10567400003E001F0000003E003F0000003E003FCF
:105684000000007E003E0000007E003E0000007E20
:10569400003E0000007C007E0000007C007E0000D4
:1056A40000FC007E000000FC007C000000FC007C8C
:1056B400FF07FFFFFFFFFF07FFFFFFFFFF07FFFFDE
:1056C400FFFFFF07FFFFFFFFFF07FFFFFFFF0100D3
:1056D40000F000F8010001F000F8010001F000F80A
:1056E400030001F000F0030001F000F0030001F0FA
:1056F40000F0030003E000F0030003E000F0070003
:1057040003E000F0070003E000E0070003E000E02E
:10571400070003C000E0FF3FFFFFF8FFFF3FFFFF6C
:10572400F8FFFF3FFFFFF8FFFF3FFFFFF8FFFF3FDA
:10573400FFFFF8FF0F000F8000C00F000F8000C0B4
:105744001F000F8000801F000F8000801F000F00CB
:1057540000801F001F0000801F001F0000803F000A
:105764001F0000803F001F0000003F001F000000DA
:105774003E001F0000003E003F0000003E003F00CE
:1057840000007E003E0000007E003E0000007C0021
:105794003E000000000000000000000000000000C7
:1057A40000000000000000000000000000000000F5
:1057B40000000000000000000000000000000000E5
:1057C40000000000000000000000000000000000D5
:1057D40000000000000000000000000000000000C5
:1057E40000000000000000000000000000000000B5
:1057F40000000000000000000000000000000000A5
:105804000000000000000000000000000000003E56
:1058140000000000003E00000000003E0000000008
:10582400003E00000000003E00000000003E0000BA
:105834000000003E00000000F0FF00000700FFFF32
:1058440000001F00FFFF00E07F00FFFF00F0FF00EB
:10585400FFFF00E0FF01FFFF00E0FF030F3E00C079
:10586400FC03013E00C0F803003E0000F007003EC8
:105874000000F007003E0000F007003E0000F007C3
:10588400003E0000F007003E0000F007003E00006C
:10589400F007003E0000F803003E0000FC03003E59
:1058A4000000FF01003E0000FF0100FE0000FF00B9
:1058B40000FE00007F0000FF00001F00E0FF00006A
:1058C4000700F8FF00000100FEFF00000000FF3F9A
:1058D40000800000FF3F00C00000FF3E00E0000029
:1058E4003F3E00E000000F3E00F00000073E00F0E5
:1058F4000000033E00F80000033E00F80000033EF1
:1059040000F80000033E00F80000033E00F8000029
:10591400033E00F80000033E00F80008073E00F0D4
:10592400000F1F3E00F0F00F7F3E00E0FF0FFFFF6F
:1059340000C0FF0FFFFF0080FF0FFFFF0000FF0FFD
:10594400FEFF0000FF01F0FF00001F0000FF000049
:105954000000003E00000000003E00000000003E89
:1059640000000000003E00000000003E00000000B7
:10597400003E00000000003E00000000003E000069
:105984000000000000000000000000000000000013
:105994000000000000000000000000000000000003
:1059A40000000000000000000000000000000000F3
:1059B40000000000000000000000000000000000E3
:1059C40000000000000000000000000000000000D3
:1059D4000000000000000000000000000F0000C0F4
:1059E400000000007F0000F00F0000C0FF0000FC7A
:1059F4001F000080FF0100FC1F000080FF0100FE6B
:105A04003F000000F803007F3F000000F003003F68
:105A14007E000000E007801F7E000000E007801F7A
:105A2400FC000000C007800FF8010000C00F800FC9
:105A3400F8010000C00FC00FF0030000C00FC00F3A
:105A4400F0030000C00FC00FE0070000C00FC00F3C
:105A5400E0070000C00FC00FC00F0000C00FC00F50
:105A6400800F0000C00FC00F801F0000C00FC00FC8
:105A7400003F0000C00FC00F003F0000C00FC00F68
:105A8400007E0000C00FC00F007E0000C00FC00FDA
:105A940007FC00E0C007800F3FFC00F8C007810F3F
:105AA4007FF800FEE007831FFFF000FEE007831F7E
:105AB400FFF000FFF003073FFCE1803FF803077F9E
:105AC400F8E1801FFF010FFEF0C3C00FFF010FFEBE
:105AD400F0C3C00FFF001FFCE083C0073F003FF08E
:105AE400E007C0070F003FC0E007E00700007E00AA
:105AF400E007E00700007E00E007E0070000FC008C
:105B0400E007E0070000FC00E007E0070000F80100
:105B1400E007E0070000F001E007E0070000F00301
:105B2400E007E0070000E007E007E0070000E00707
:105B3400E007E0070000C00FE007E0070000C00F27
:105B4400E007E0070000801FE003C0070000801F9B
:105B5400E003C0070000003FF003C00F0000007E18
:105B6400F003C00F0000007EF801801F000000FC5D
:105B7400FC01803F000000FCFF0000FF010000F872
:105B8400FF0000FF010000F87F0000FE030000F0AA
:105B94001F0000F800000000070000E00000000003
:105BA40000000000000000000000000000000000F1
:105BB40000000000000000000000000000000000E1
:105BC40000000000000000000000000000000000D1
:105BD40000000000000000000000000000000000C1
:105BE40000000000000000000000000000000000B1
:105BF40000000000000000000000000000000000A1
:105C04000000000000000000000000000000000090
:105C14000000000000000000000000000000000080
:105C24000000000000000000000000000000000070
:105C34000000000000000000000000000000E03F41
:105C4400000000000100FCFF000000000700FFFF4F
:105C5400000000000F00FFFF008000001F00FFFF96
:105C640000C000001F00FFFF00C000003F003FE035
:105C740000E000003F000F8000E000007F000F8084
:105C840000F000007F00070000F000007F00070024
:105C940000F000007F00070000F000007F00070014
:105CA40000F000007F00070000F000007F00070004
:105CB40000F000007F000F0000E000003F000F80B4
:105CC40000E000003F001F8000C000003F003FC014
:105CD40000C000001F00FFE0008000000F00FFF183
:105CE400000000000F00FEFF000000000700FCFFA2
