:10000000480D0010010300001B0300007C030000EA
:100010001D0300001F03000021030000C3DFFFEFEA
:1000200000000000000000000000000011CA0200F3
:10003000250300000000000091CA0200D5CA02009A
:10004000219F02002D9F0200399F0200459F020060
:10005000519F02005D9F0200699F0200759F020090
:10006000819F02008D9F0200999F0200A59F0200C0
:10007000B19F0200BD9F0200C99F0200D59F0200F0
:10008000E19F0200ED9F0200F99F020005A002001F
:1000900011A002001DA0020029A0020035A002004C
:1000A00041A002004DA0020059A0020065A002007C
:1000B00071A002007DA0020089A0020095A00200AC
:1000C000A1A00200ADA00200B9A00200C5A00200DC
:1000D000D1A00200DDA00200E9A00200F5A002000C
:0400E00001A1020078
:0402FC00FFFFFFFF02
:10030000DFF88CD023488047DFF884D0224880472C
:1003100022482349016000F045B82FE02EE02DE08F
:100320002CE02BE02AE029E028E027E026E025E089
:1003300024E023E022E021E020E01FE01EE01DE0B9
:100340001CE01BE01AE019E018E017E016E015E0E9
:1003500014E013E012E011E010E00FE00EE00DE019
:100360000CE00BE00AE009E008E007E006E005E049
:1003700004E003E002E001E000E0FFE71EF0040F0C
:100380000CBFEFF30880EFF3098028F08DBC00006C
:10039000000001100DEE010021E1020008ED00E077
:1003A000000000002B498D462B492C480A1A04D026
:1003B00081F30988022282F31488294829492A4AAC
:1003C00000F037F829482A492A4A00F032F82A482A
:1003D0002A492B4A00F02DF82A482B492B4A00F0D5
:1003E00028F82B482B492C4A00F023F82B482C499D
:1003F0002C4A00F01EF82C482C49002200F024F86A
:100400002B482C49091A00220260043001601E4862
:100410001E49884205D00268043003B4904703BCEB
:10042000F7E700208646EC4600200021224A90474C
:10043000FEE7884207D0521A05D0037801300B70CE
:100440000131013AF9D17047884202D0027001307F
:10045000FAE77047480D0010480D0010480D0010D5
:1004600068630600000000100C050010BC040000CA
:10047000BC04000050530300686306000000001035
:10048000000000105053030050530300505303006A
:1004900050530300505303005053030050530300C4
:1004A0005053030068630600405479A0647579A036
:0C04B00000126AA0405479A005EE010083
:1004BC0008B5882015F057FF15F07EFC0522114673
:1004CC00014815F02FF908BD9878030010B582B0DB
:1004DC0012F01CFF044612F021FF03468822019201
:1004EC00064A009222460021084613F085FA05229E
:1004FC001146034815F016F902B010BDFF55550012
:10050C00987803002DE9F04F85B012F0FFFE0746F6
:10051C0012F004FF344B1C6834B1334B186809F0EB
:10052C0065FF05B0BDE8F08F0646C9231A460021C9
:10053C00084609F0F1F880460125009533463A4605
:10054C000021084609F0DEF9274B186064232A467F
:10055C000021084609F0E0F88146404609F01EFAF1
:10056C008246882015F0FFFE15F026FC484609F05F
:10057C0015FA882301931D4B009364230022114626
:10058C00104613F039FA484609F0E4FE0546404699
:10059C0009F004FA4FF0640B55F8040B15F0EEFE5D
:1005AC0022465946584617F0FFFE0134642CF3D10D
:1005BC000D4B186809F0F2F9002102910197009691
:1005CC0033460A4640460AF02DFC052211460848DF
:1005DC0015F0A8F8404609F071F9484609F06EF993
:1005EC00504609F0DBF998E7405479A0FF555500C7
:1005FC009878030038B50446456855B90E21006853
:10060C000BF024FD4FF07F4120680BF0D2FE284602
:10061C0038BD0CF073FB0546F9E7000008B503681C
:10062C000F2B06D01E2B08D00E2B09D010F01AF869
:10063C0002E0094B1B68984708BD0023C360FBE729
:10064C00C3685A68002AF7D01B686E2BF4D1034B91
:10065C0001221A60F0E700BF5C5479A0485479A0DD
:10066C0030B583B0054610F00FFB0446284610F059
:10067C0025FB451E0A4B01930A4B00932B46A21EE9
:10068C000021012013F0B8F9074815F077FE2B462E
:10069C00621E4FF0FF31002018F0D2FB03B030BDCA
:1006AC00DCCEC0FFF3F3E6FFA8A851FF10B582B073
:1006BC0004460368013B1C2B36D8DFE803F02435D5
:1006CC0035353535353535353535351E31353535E9
:1006DC00353535353535353535350F0040F2611149
:1006EC00406810F0C3FD044601210CF059FE10497E
:1006FC0020460CF03DFE02B010BD10F0F5FC21467A
:10070C000FF0D5F9F7E712F001FE00EBD0704110B5
:10071C00412300930B460022606811F0C1F8EAE710
:10072C004068FFF79DFFE6E70FF09CFFE3E700BF93
:10073C00545428FF2DE9F04182B0054643680B2B39
:10074C0006D0122B37D0052B0DD00EF093F833E0DA
:10075C001B4815F013FEEB69AA696969286918F042
:10076C006FFB002028E000680DF030FB04466A4661
:10077C0001A928680DF03CFB124B1D8805FB04F405
:10078C00A400009B019A9B1A013394FBF3F494FB95
:10079C00F5F305FB1344641B01340426DFF82480B5
:1007AC0001273A462146404614F0BCFF2C44013E3A
:1007BC00F7D1002000E0002002B0BDE8F08100BFBE
:1007CC00A8A851FF0877030010B504464368052B11
:1007DC005DD0122B6DD14FF07F4015F0CFFD20680E
:1007EC0010F0F0FCB0F5006F05D040F60103984214
:1007FC002AD000205FE020680BF0FAFF00B34FF026
:10080C00FF3015F0BBFD2C4B1A682C482C4B002AE2
:10081C0018BF1846E2696369D21A4388D21A02EBF0
:10082C00D2725210A1692369C91A0388C91A01EB43
:10083C00D17149100132013114F074FF00203AE0FB
:10084C00204815F09BFDDEE720680BF0D1FFD0B1FE
:10085C004FF0FF3015F092FDE2696369D21A1A4825
:10086C004388D21A02EBD2725210A1692369C91AB9
:10087C000388C91A01EBD17149100132013114F00E
:10088C0051FF002017E00F4815F078FDE4E70068F1
:10089C000BF0AEFF30B1626921690C4814F042FFD5
:1008AC00002008E062692169094814F03BFF002030
:1008BC0001E00DF0FFFA10BD4C5479A0BC5D0300B3
:1008CC00B85C0300A8A851FF345D0300205E030050
:1008DC00946A030010B588B004464368053B132B9B
:1008EC003FD8DFE803F00A3E3E3E3E3E3E3E3E33FE
:1008FC003E3E3E113E3E414141411D4815F033FD07
:10090C0015F05AFA002030E00369ADF8183083690D
:10091C00ADF81C304369ADF81A30C369ADF81E3020
:10092C004FF0FF3015F02AFD124815F053FD022050
:10093C0015F0BAFD142201A920680BF0F7FC0E2269
:10094C0006A901A817F009FA00200EE00A4815F0D4
:10095C0015FDE369A2696169206915F0ABFE002001
:10096C0003E0FFF747FE00E0002008B010BD00BF19
:10097C00A8A851FF146A0500C0C0C0FF08B5044BFD
:10098C001B8913F0080F00D108BD14F007FBFBE71F
:10099C00705479A008B5044B1B8913F0080F00D1D3
:1009AC0008BD14F003FBFBE7705479A010B58C461E
:1009BC00037863B30346194613F8012F002AFAD1C2
:1009CC00C0F1010E8E44BCF1090F23D90123194645
:1009DC0003EB83035A0013460131BCFBF2F2092AE4
:1009EC00F6D801EB0E03C2180024C45471B1704444
:1009FC000B4CA4FB0C13DB0803EB8301ACEB4101A8
:100A0C00303102F8011D9C468242F2D110BD4FF0EC
:100A1C00000ED8E70EF10103C2180021C154E6E71D
:100A2C00CDCCCCCC10B50378FBB103469E4613F865
:100A3C00012F002AFAD1C0F1010CF4440B7883B1D8
:100A4C0064460CF1FF3C00EB0C0E0A460EF8013F1D
:100A5C00944612F8013F002BF8D1C1F10101214459
:100A6C008C44002300F80C3010BD4FF0000CE5E76F
:100A7C0010B586B00023019302930393049305935E
:100A8C004FF4B071134B186810F0F0FB0446124988
:100A9C0001A8FFF7C7FF114B1968013101A8FFF737
:100AAC0085FF0F4901A8FFF7BDFF0E4B196801A880
:100ABC00FFF77CFF0C4901A8FFF7B4FF0B4B5968FB
:100ACC00013901A8FFF772FF01A920460CF04AFC7E
:100ADC0006B010BD6C5479A050530300585479A043
:100AEC00FCEA0300645479A058530300705479A0B5
:100AFC0038B50A4B1B68012B07D10A25074C284631
:100B0C0012F092FB2368012BF9D0054B18680128D1
:100B1C0006BF00221A60002038BD00BF4C5479A0DB
:100B2C00485479A010B584B00C4615F053FB01A8BD
:100B3C0014F0FCFE9DF80C3043B9206801280AD152
:100B4C0000232360064B01221A6002E0012323607C
:100B5C00002004B010BDFFF7CBFF014B1860F8E785
:100B6C00485479A00023034A1360034A1360034AD4
:100B7C00136070474C5479A0545479A0505479A008
:100B8C0008B5044A136801331360FFF7EBFFFFF756
:100B9C006FFF08BD645479A038B5044603680E3B5A
:100BAC00182B7DD8DFE803F00D467C7C7C7C7C7CAC
:100BBC007C7C7C7C7C7C7C137C7C7C7C7C7C7C7CD2
:100BCC004A0010F091FA21460EF071FF38BD3649FB
:100BDC0040680BF004FC0E2160680BF03BFC4FF4FA
:100BEC000471606810F042FB05460E210DF04CF9C3
:100BFC002E4928460DF014F94FF40061606810F08E
:100C0C0035FB00210DF03BFD40F60101606810F052
:100C1C002DFB00210DF033FD4FF4B071606810F026
:100C2C0025FB044622490CF09DFB224920460CF082
:100C3C0081FBCBE74068FFF713FDC7E7806810F036
:100C4C00C1FAE368022BC1D1B0F5006F09D040F6B0
:100C5C0001039842BAD1184B01221A60FFF782FFA8
:100C6C00B4E7164B1B686BB10024144B1C6012F0DC
:100C7C00D9FA134B1B68C31A124A136020460EF0A4
:100C8C00B1F9A3E70D4B01221A6012F0CBFA0D4B10
:100C9C001B68C31A0A4A136060680EF0A3F995E743
:100CAC000FF0E0FC92E700BFD863050084E403007A
:100CBC005C53030028760500485479A04C5479A065
:100CCC00505479A0545479A070B582B010F00CFA3D
:100CDC000FF062F815F070F8FFF75CFE12F016FBDF
:100CEC00044612F01BFB054636480BF04BFF36480A
:100CFC000BF0BAFF35480AF027FF10F0F5F9034660
:100D0C003D3D0195A4F150020092314A0521314834
:100D1C000DF0A2FF304E306010F0E6F903460025CE
:100D2C00019504EBD4746410013C00942B4A02210D
:100D3C002B480DF091FF2B4B186010F0F3FD2A4857
:100D4C000BF020FF29480BF08FFF29480AF0FCFE1E
:100D5C004FF4B071306810F089FA10F0E3FD10F028
:100D6C00C3F90FF00CF815F035FA00F0AFFD214B7C
:100D7C001D60214B1B681B68BBB11F4D1D4C1F4ECA
:100D8C00FFF7F0FEFFF774FE22682B6853F8223051
:100D9C009847002333601A4A136023680133236099
:100DAC002A6852F82330002BEAD1124B00221A6029
:100DBC00094B18680FF0C6F80A4B18680FF0C2F808
:100DCC0002B070BDE1080000D5070000410700002B
:100DDC00A50B0000C05303006C5479A0B9060000A9
:100DEC0088530300685479A001060000C1DE00009E
:100DFC0081E80000585479A0705479A0645479A00B
:100E0C00605479A030B583B00546164815F0E2FA67
:100E1C00284617F039FA044612F078FA124B1A8861
:100E2C00031B03EBD3735B10043B511D8B42DABFE6
:100E3C000A4612B20022ADF800200023ADF80230B1
:100E4C000138ADF80400084B5B880933ADF8063067
:100E5C00022015F029FB0E226946284616F07DFF6C
:100E6C0003B030BD24C703009878030008B5024BCB
:100E7C001B68984708BD00BF5C5479A008B5064BA9
:100E8C001B6813B1054B186808BD12F0CBF9044B65
:100E9C001B68C01AF8E700BF4C5479A0505479A0D5
:100EAC00545479A02DE9F04105464FF40471204BC0
:100EBC00186810F0DBF90746642D0EDC002138466B
:100ECC000CF0DCFE2A46002138460CF0BEFF12F076
:100EDC00A9F906464FF0050810E04FF40471144BC5
:100EEC00186810F0C3F910F004FDE7E7404612F063
:100EFC009BF9FFF7FDFDA5420DD960B9FFF7BEFFC9
:100F0C00841B642DF2DD214638460CF0B7FE3846C2
:100F1C000EF035FFEAE7642D01DCBDE8F0814FF4FB
:100F2C000471034B186810F0A1F910F0FBFCF4E706
:100F3C006C5479A0014B58880A307047987803009C
:100F4C0010B58CB014F042F92B492C480AF022FD54
:100F5C0010F0CAF82A4910F0F4FB0BF0F7FB002153
:100F6C0001A80CF0ADF800240694214601A80CF061
:100F7C007FF8012101A80CF0A3F80694012101A827
:100F8C000CF076F81F480BF0FDFD1F480AF0DCFD55
:100F9C001E480BF069FE1E480CF022FD1D480DF09A
:100FAC004DFE1D480BF046FB022015F07DFA1B4848
:100FBC0000F082FC12F0CAF90F280FDD174B1B89C9
:100FCC0013F0040F01D1164B09E014F0FFF8154B88
:100FDC00154AB0F5001F98BF134600E0104B134A9A
:100FEC001360134B1B68012B02D1FFF76DFEFCE75E
:100FFC00FFF76AFE0CB010BD605479A0310B0000F5
:10100C00290600000106000081E80000C1DE000096
:10101C0099E30000E1D3000039ED0000705479A091
:10102C00BD04000011050000D90400005C5479A037
:10103C00445479A008B5FFF735FFFFF7A1FD08BDB3
:10104C002DE9F0411546002847D00C4607460029EB
:10105C0043D012F05BF9064612F060F9804606EBBD
:10106C00D6767610FFF796FC2E4B186810F05AFCCB
:10107C002D4B186810F03DFC15F0ACF8FFF7F6FEA0
:10108C004FF0FF3015F07AF9022015F00DFA2748D1
:10109C0015F0A0F93C223146384616F025FD2448BF
:1010AC0015F098F917F068FC08EBD878C0EB6802DB
:1010BC000A323146204616F017FD237813B3234627
:1010CC001A4613F8011F0029FAD1C4F1010010448B
:1010DC0000EB80000001FFF7ADFF15F0010F13D0FE
:1010EC00FFF758FC15F0020F11D00E4B186810F0DA
:1010FC0000FC15F0040F0FD00B4B186810F0F9FB27
:10110C00BDE8F0810020E3E7FFF738FCEAE7054B88
:10111C00186810F007FCECE7034B186810F002FCA1
:10112C00EEE700BF685479A06C5479A024C7030083
:10113C002CB403002DE9F04F9DB008AC84E80300FB
:10114C0005921E46BDF82030BDF82220033297B21E
:10115C00029715B2BDF82620033A12B2521BD84999
:10116C0081FB0201A1EBE274DA1CADF86820ADF84A
:10117C006A503E33ADF86C30A3B2039303EB4303D8
:10118C003B441BB20493ADF86E30CE4815F022F9F7
:10119C004FF0FF3015F0F2F801230E221AA9304659
:1011AC0016F0F4FD00223F211AA814F0E2FF4FF0D4
:1011BC007F4015F0E3F81AA815F0A8FA1AA815F054
:1011CC00C6F8BDF968A0BDF96C309A440AEBDA7A1E
:1011DC004FEA6A0ABDF96A90BDF96E30994409EB81
:1011EC00D9794FEA69090AAEB74F0FCF0FC60FCFA7
:1011FC000FC60FCF0FC697E80F0086E80F004FEA17
:10120C008A0A4FEA890918F08FFD042018F07CFD3A
:10121C00002637464FF08C0845F2E47B0695079480
:10122C00384615F079F90446384615F0B3F90546F9
:10123C00724206F00F0302F00F0258BF53421CAA71
:10124C0002EB830353F8480C15F098F808FB04F4F0
:10125C00002CBCBF04F57F44FF3409EB244108FB90
:10126C0005F00028BCBF00F57F40FF3042460AEB7A
:10127C00204018F0EBFD5F440136102ED0D1069DB6
:10128C00079C18F049FD002015F061F84FF0FF3075
:10129C0015F074F8059815F09DF8BDF86A30DDF876
:1012AC000CB05B44ADF86E30884E0E221AA9304655
:1012BC0016F053FD224600211AA814F05AFF0E22F4
:1012CC001AA9304616F049FD224600211AA814F03E
:1012DC0050FF0E221AA9304616F03FFDADF86A50A9
:1012EC00049BADF86E3000223F211AA814F041FF88
:1012FC004FF0FF38CDF804804FF07F470097BDF9D1
:10130C006E30BDF96C20BDF96A10BDF9680012F0A1
:10131C00ABFBBDF86A305B44ADF86E30DFF8B0A1C2
:10132C00504615F02BF80E221AA9304616F015FD72
:10133C00224600211AA814F01CFF4FF0FF2015F0D4
:10134C001DF80E221AA9304616F007FD2246002180
:10135C001AA814F00EFFDFF87C91484615F00EF831
:10136C000E221AA9304616F0F8FCADF86A50029A13
:10137C005A440FFA82FBADF86EB000223F211AA836
:10138C0014F0F7FE504614F0F9FF1AA815F0BEF948
:10139C00224600211AA814F0ECFE4FF0FF2014F0A6
:1013AC00EDFF1AA815F0B2F9224600211AA814F084
:1013BC00E0FE484614F0E2FF1AA815F0A7F94046E3
:1013CC0014F0DCFFADF86A50ADF86EB00E221AA91D
:1013DC00304616F0C2FC224600211AA814F0C9FEB1
:1013EC000E221AA9304616F0B8FC224600211AA883
:1013FC0014F0BFFE0E221AA9304616F0AEFCADF862
:10140C006A50ADF86EB000223F211AA814F0B1FE5C
:10141C000197CDF800A0BDF96E30BDF96C20BDF977
:10142C006A10BDF9680012F0E7FA224600211AA8EA
:10143C0014F09FFE01974FF0FF230093BDF96E301F
:10144C00BDF96C20BDF96A10BDF9680012F0D4FA30
:10145C00224600211AA814F08CFE0197CDF80090BA
:10146C00BDF96E30BDF96C20BDF96A10BDF968008C
:10147C0012F0C2FAADF86A50ADF86EB0404614F0F6
:10148C007DFF0E221AA9304616F067FC2246002179
:10149C001AA814F06EFE0E221AA9304616F05DFC46
:1014AC00224600211AA814F064FE0E221AA9304616
:1014BC0016F053FC002014F04AFF1DB0BDE8F08F6D
:1014CC0056555555146A0500385503004C54030005
:1014DC000000FFFFFF0000FF2DE9F04182B011F08A
:1014EC0015FF054611F01AFFB5F5A07F02DB044687
:1014FC00EF2807DC052227492748FFF7A1FD02B09A
:10150C00BDE8F081244F052224493846FFF798FDA9
:10151C00FFF7ACFC012011F013FE06463846FFF72E
:10152C0071FCFFF707FDA5F5A07303EBD3735B10FC
:10153C00ADF8003082B2A4F1F00707EBD777C7F310
:10154C004F07D119ADF80210ED1AADF80450231A5B
:10155C0003EBD37302EB6305ADB26B1EADF8063033
:10156C000F4B104AE84698E80300FFF7E3FDADF88F
:10157C000250E41BADF806400B4B0C4A98E80300F4
:10158C00FFF7D8FD4FF47A60FFF754FD304611F0A9
:10159C00D7FDB4E750540300B8540300CC540300F7
:1015AC00005503000CB203001C550300B4B003003B
:1015BC002DE9F84F8846174608F0F0F9824618488E
:1015CC0014F008FF022014F06FFF14F077FD00EB0D
:1015DC00D070461007F159040B3F0225A8F1070BF8
:1015EC00DFF84090C6F1070622465946484614F0EB
:1015FC0099F83119404614F041FE022014F044FFD2
:10160C004FF07F4014F0BAFE284611F04AFA143C11
:10161C000235BC42E8D1504608F0C0F9BDE8F88F5D
:10162C00F8590300D45603002DE9F04FABB0052256
:10163C0098499948FFF704FDFFF718FC9748FFF706
:10164C00E1FB974D0CAE2C460FCC0FC60FCC0FC642
:10165C0094E8030086E8030016AE0FCD0FC60FCD3D
:10166C000FC694E8030086E8030011F04FFE044611
:10167C0011F054FEA4F1AC0303EBD3734FEA6308EF
:10168C007A3800EBD070431019461C467B23B422E9
:10169C00404608F07BF9029010B92BB0BDE8F08FF2
:1016AC0009F048FD20A9002202F001035B00013B78
:1016BC0041F8043B01320A2AF6D122464146002069
:1016CC00FFF776FFFFF7DAFB099040230393012322
:1016DC00089304F17A09734E2746A1E05BF8243095
:1016EC00A9EB030204EBD4704010C0F1040000938A
:1016FC005346063A294656F8200015F011F80134E5
:10170C0010350A2C13D0052CE8DC5BF82430A9EB3F
:10171C00030204EBD470401000935346063A29465A
:10172C0056F8200014F0FCFF01341035EBE7ADF84F
:10173C00288008F10303ADF82C30ADF82A70ADF811
:10174C002E900AA814F003FE574814F017FE5720E9
:10175C0012F0CEFC042400944B46DDF81CA052463B
:10176C003946404616F084F8002014F0F0FD07F1DD
:10177C007903039D08EB0502791C08EB040014F0B7
:10178C0099FFFF2012F0B4FC484814F0F7FD0094C8
:10179C004B4652463946404615F0C0FC3A46414647
:1017AC00029C2046FFF704FF204608F075F90698C6
:1017BC0008F0F4F82B46089A13440393093B9A2B30
:1017CC0084BF5342089316A90CAD0DF1800C6446EE
:1017DC0004E0524244F8042C61450FD00B6854F8D5
:1017EC00042B134441F8043B55F8040B00F10A0E8A
:1017FC007345EEDC0A388342EEDAEAE7FFF73EFB8C
:10180C00049BC01A1E283DDCC0F11F0011F00CFD1A
:10181C00FFF76EF943F69723059A9A4235DCA0BB85
:10182C00FFF72CFB0490099A831A0593029808F091
:10183C00B5F806901E4814F0A1FD08F1AC031A4649
:10184C000793042300934B463946404616F010F894
:10185C00184814F093FDBC1D07F17E0B08F1AA0A81
:10186C0008F1020552462946204614F099FE0A3426
:10187C005C45F7D108F1080500240DF1580B4FF029
:10188C00010A40E714F0A6FCC2E7029808F016F82B
:10189C0003E700BF78550300A4550300B0550300BF
:1018AC00D85B0300C0550300D99100FF0094F3FFEF
:1018BC004A2210FF774830FF034B03600423436038
:1018CC000D230381704700BF000000102DE9F04389
:1018DC0089B06C46404D0FCD0FC42B6824F8023BE9
:1018EC001B0C23700023CDF81330CDF81730CDF836
:1018FC001A3011F00BFD064611F010FD0446FFF7EF
:10190C00B5FA022014F0D0FD4FF0FF3014F036FD84
:10191C00DFF8C880404614F05DFD7508A700C4F3DD
:10192C00191229462E4816F0DFF8DFF8B890484611
:10193C0014F050FD3A1904EB4202920929462A4848
:10194C0016F0D2F8294814F019FD162704FB07F7F6
:10195C00BF093A462946264816F0C6F8254814F021
:10196C0039FD07F112022946234816F0BDF84FF055
:10197C00FF3014F003FD484614F02CFD14F0BEFBB0
:10198C000146684630F05EFBC4EB441292092946CE
:10199C00684616F0A9F8262204FB02F217480388C1
:1019AC00F11A9209490813F0BDFE4FF0FF3014F004
:1019BC00E5FC404614F00EFDC4EBC404C4F3D9029C
:1019CC0029460F4816F090F841F28830FFF76AFA72
:1019DC0009B0BDE8F08300BF985C030024C7030086
:1019EC00005C03002CB40300085C03002288FFFF9A
:1019FC00405C0300346F0500685C03004C860300F8
:101A0C00885C03002DE9F04F9DB000240D94242236
:101A1C0021460EA830F030FC224674497448FFF77A
:101A2C000FFB11F073FC824611F078FC834611F029
:101A3C0085FC834523DB6F4C04AD04F1200654F880
:101A4C00040F14F007FB45F8040FB442F7D1FFF76D
:101A5C0015FA00900AEBDA794FEA6909C9F1000925
:101A6C001FFA89F90BEBDB784FEA6808C8F100081C
:101A7C001FFA88F30193002741F287380CE0ADF888
:101A8C005C40ADF85E40ADF860A0ADF862B017A850
:101A9C0014F05DFCCFE70137FFF7F0F9009BC01A9B
:101AAC0040453BDCFFF724F8002837D107F007034B
:101ABC001CAA02EB830353F85C0C14F06BFC30F0A3
:101ACC0089FA90FBFAF303FB1A054D44ADB230F0E2
:101ADC0081FA90FBFBF303FB1B06019B1E44B6B281
:101AEC0030F078FA044630F075FA90FBFBF303FB08
:101AFC001B031433334494FBFAF20AFB12421432E4
:101B0C002A441BB212B231B228B214F0D3FD19A878
:101B1C0013F00CFF9DF86C30002BBCD0FFF730F8A5
:101B2C0011F0F4FB0446009011F0F8FB019004F165
:101B3C00FF39A0F13D0814F0A9FA029014F09AFABA
:101B4C0014F01CFCFFF79AF903900025412700F1D3
:101B5C00640643464A463946002014F0ABFD013575
:101B6C00FFF78CF9B042F4DD0446029814F006FC41
:101B7C00002014F0ECFB20490DA8FEF753FF009A4F
:101B8C0005FB02F2019B7D3B02FB03F3039AA41AB3
:101B9C0093FBF4F34FF47A7103FB01F10DA8FEF7FC
:101BAC0005FFFFF763F94FF0FF3014F0E7FB02205D
:101BBC0014F07AFC114814F00DFC14F07FFAABEB26
:101BCC00000202EBD2720AEBDA71521049100DA826
:101BDC0015F08AFF052200210846FFF731FA4FF471
:101BEC007A60FFF75FF91DB0BDE8F08FE4E5030004
:101BFC0014E603002CE6030020E6030024C70300D0
:101C0C0030B589B00023019302930393114C124D0C
:101C1C002378012B19D0642204A928682BF0BAFF71
:101C2C0003460028F4D1079A012A09D04FF0FF325D
:101C3C00019202928DF80C3001A813F0ABFEE7E78D
:101C4C00059B0193069A0123F3E70020014B1870C2
:101C5C0009B030BD855479A0885479A030B585B0D1
:101C6C00334B1A68117811701A68324B1A60324B68
:101C7C00324A1A60324B1B684BB1324B1B78BBB1EA
:101C8C0003A931482DF025FAD8B105B030BD1DF0AF
:101C9C009FF82E4A002130F0EFFA284A0021244BFD
:101CAC00186830F0E9FA264B4FF0FF321A60E4E77F
:101CBC0004200FF063FD14F0B1F8224BFF221A70D0
:101CCC00DEE7234A102101202BF08EFE18B1039879
:101CDC002DF00FFAD9E71E4A1E491F482DF09EFC25
:101CEC0020B11B4B18682BF0A2FEF0E71B4B0193A5
:101CFC000523009300234FF48062194919482CF0F6
:101D0C0001F830B1124B1968124B18682DF0E7FC32
:101D1C00E7E7FFF715F9144B01221A7015461C461C
:101D2C0028462BF017FD2378012BF9D0EAE700BFEA
:101D3C0010000010286379A0246379A000702F0094
:101D4C007C5479A0845479A050E6030000B80B00B1
:101D5C00885479A08C5479A054E60300805479A05F
:101D6C0060E603000D1C0000855479A0024B4FF077
:101D7C00FF321A60704700BF185579A02DE9F04F5B
:101D8C0091B0044625F010FA0FAA002120462DF040
:101D9C00BCF94F4E4FF4F84307930025069547F6D0
:101DAC00E07705970223049340F2DF13039340F28C
:101DBC001F330293019500950F9B4FF4F0724FF473
:101DCC004871304625F030FE424C2146304626F014
:101DDC00F7F8304626F0F6F880461F223E4930468A
:101DEC0026F001F9ADF83450ADF83650F369ADF882
:101DFC003830336AADF83A303946304625F04FFE6C
:101E0C002146304626F0DCF80BAF4FF4B47239465D
:101E1C000DA825F0D2FBBDF82CB0BDF82E90BDF866
:101E2C003240DFF8B8A04FF4B4725146384625F072
:101E3C00DAFBADF82CB0ADF82E90ADF8324054462C
:101E4C0034F86039063BADF830300DF124092B46DF
:101E5C0080224946384625F096FB99E8030087E82E
:101E6C00030008F142022B4692B24946384625F04F
:101E7C0056FBBDF824302AF8603CBDF82830A3800E
:101E8C00BDF8263063804033E380154BA360154BBF
:101E9C00E360154B2361A561E561A56221463046DF
:101EAC0024F032FF2946304625F0FBFDB4F86630AD
:101EBC000093B4F86430B4F86220B4F86010304683
:101ECC0025F058FD25F084F9A56611B0BDE8F08F1A
:101EDC00285579A0982B06006CE60300F85479A0DD
:101EEC0090E60300791D00009C09050010B582B036
:101EFC00114C0021204625F0D4FD0021204625F070
:101F0C00CEFD0021204625F0CFFD0C4B196809129F
:101F1C000B4B1A68121202F10903009301F1090329
:101F2C000A3A0A39204625F025FD0021204625F0E5
:101F3C00BBFD02B010BD00BF285579A0245579A077
:101F4C00205579A02DE9F04F8DB000224E4B1A6030
:101F5C004E4B5A679A67DA67DA661A67B3F86020ED
:101F6C00B3F864100A44521049490A60B3F862206D
:101F7C00B3F8663013445B10464A1360464A10218E
:101F8C0001202BF031FD10B10DB0BDE8F08F424CAB
:101F9C00424A434920682BF066FD22460AA9414873
:101FAC002DF03CFB20B13C4B18682BF040FDEBE7CF
:101FBC000BA93D482DF08DF828B1374B19680A98BC
:101FCC002DF08DFBEFE709AA00210B982DF09DF861
:101FDC0008A936482CF026F918B10B982DF089F881
:101FEC00EBE7334908982CF009F90028F5D10B9848
:101FFC00FFF7C4FE2BF032FE0446234B1B68002B6C
:10200C00EBD1DFF89490DFF884802A4F84E01F4BEB
:10201C000022DA661A6710264FF00A0BDFF890A040
:10202C001D4658462BF096FBDAF8000003685B69F6
:10203C00642205A99847EB6E059A1A44EA662B6F41
:10204C0006990B442B67013EEBD11146002AB8BF11
:10205C0002F10F0109110D4AD1661A46002BB8BFC7
:10206C0003F10F021211094B1A674FF0FF325A6736
:10207C002BF0F4FD104B186075E04FF496329DE098
:10208C004FF49633A4E000BF185579A0985479A06A
:10209C00245579A0205579A0945479A0ACE603007E
:1020AC0098E6030054E6030050E60300A4E60300A0
:1020BC001C5579A0285579A0905479A0B04200F015
:1020CC00E780774B9B6E002B40F0E680754B1E60D3
:1020DC00754B1D6033120A3B03932B120A3B04937E
:1020EC00724D04AA03A9284625F0EAFC284625F0DF
:1020FC00B1FABDF81020BDF80C106D4825F0DCF8D5
:10210C00674B4FF0FF329A6614202BF023FB694B80
:10211C001B68002B7FF461AF0023D9F800204146E7
:10212C00384624F097FF054626462BF097FD0446CB
:10213C00002DE9D1B042E7D05F4B186803685B69AA
:10214C00642205A9984705462BF088FD5B4B1A685D
:10215C001860002DD8D1524B5B6F0193002B3FF4CC
:10216C0056AF831A01934E4BD96E059A521A0592AB
:10217C00196F069B5B1A0693019901FB02F2002A68
:10218C00BCBF02F57F42FF3212144549896F01EB47
:10219C004222019901FB03F3002BBCBF03F57F43E3
:1021AC00FF331B143E49C96F01EB4323B2F5963F35
:1021BC00BFF663AF42498A42B8BF0A4638498A67BC
:1021CC00B3F5963FBFF65CAF3D498B42B8BF0B46AB
:1021DC00DFF8CCC0CCF87C3032490868DDF804A0BC
:1021EC000AFB02F1DFF8DCE08EFB0165CE17C6EBD3
:1021FC00A51606442C4909680AFB03F58EFB05AEAF
:10220C00ED17C5EBAE150D44BCF864C0ACF10B0C6E
:10221C004FEA0C2EB6EB0C2F06DD02EBD2725210ED
:10222C0052421F4EB26776461D4AB2F860200B32FE
:10223C004FEA022CB6EB022F07DA194EB26F02EB03
:10224C00D27252105242B2676646154AB2F86620F4
:10225C000B3A4FEA022CB5EB022F06DD03EBD373DE
:10226C005B105B420E4AD36765460D4BB3F8623088
:10227C000B334FEA032CB5EB032FBFF61FAF084A05
:10228C00D36F03EBD3735B105B42D367654615E7E3
:10229C00A9427FF416AF37E7FFF728FE16E700BF19
:1022AC00985479A0245579A0205579A0285579A067
:1022BC005CC90400185579A01C5579A0905479A0DC
:1022CC0000D4FEFFD34D621083694FF0FF329A6643
:1022DC00704700002DE9F04FA9B0044600F16C0BDB
:1022EC0027AA002140682CF010FF24F05DFF052088
:1022FC002BF030FA04F108084FF4F843079300234D
:10230C00069347F6E07205920222049240F2DF1225
:10231C00039240F21F32029201930093279B4FF4D9
:10232C00F0724FF44871404625F07EFB6B494046F5
:10233C0025F046FE6A4B1B68002B41D023681A68B7
:10234C0040F2E77302931D23019306230093654B20
:10235C001B68654908A82FF04DFE1F2208A94046AE
:10236C0025F041FE0021404625F09BFB404625F020
:10237C0029FE05460023ADF89430ADF89630636A1B
:10238C00ADF89830A36AADF89A30122125A825F043
:10239C00A5F823685E689B68CBB95C46BDF89A20AB
:1023AC00BDF89630D21AA2F23312521B0023C2F39C
:1023BC004F021FA925A825F098F84FF0020A35E026
:1023CC0023681F221968404625F00DFECAE705F167
:1023DC004202022392B223A925A825F0A0F880225C
:1023EC0021A923A825F0FFF8BDF88420A4F86C20BF
:1023FC00BDF88630A4F86E307F32A4F870203F33DD
:10240C00A4F87230394B6367394BA367394BE367D8
:10241C00C4F884400023C4F88830A4F880308C348D
:10242C00BCE7A5F11006BAF1010A48D03368002BBD
:10243C0045D03223802223A925A825F056F8BDF8D3
:10244C009820BDF89430D21AA2F295220023C2F340
:10245C004F021FA923A825F07CF806F1100504F102
:10246C0080074FF032092E4655F8103C002BD8D07F
:10247C004B46802221A923A825F06BF8BDF88430A7
:10248C002380BDF886306380BDF88830A380BDF80A
:10249C008A30E38055F8103CA36055F80C3CE3609F
:1024AC0055F8083C236155F8043CA3610023E36113
:1024BC00A38220341035BC42D5D13C46B3E700236F
:1024CC00A3605946404624F01FFC2CF099FF10B134
:1024DC0029B0BDE8F08F24F081FEF9E7982B0600B7
:1024EC00285779A02C5779A0B0E6030090E603009A
:1024FC00D52200009C0905002DE9F04182B005466B
:10250C004FF4D6702CF082FF04466A46102101204D
:10251C002BF06AFA08B1002300935CB14FF4D67229
:10252C00002120462FF0A8FE2560009B2BB92046E9
:10253C002CF070FF02B0BDE8F0816A4601A9234877
:10254C002DF06CF818B100982BF071FAEFE7211D03
:10255C001F482CF0BEFD20B1009901982DF0BFF85A
:10256C00F1E72046FFF7B6FE04F16C08194F04F1B1
:10257C00080605E02046FFF7ADFE09E03B68BBB955
:10258C00A36EF3B9EB681BB1984710F0010FF1D1B2
:10259C004FF0FF33009A4146304624F05BFD002893
:1025AC00ECD0A36E002BE9D12046FFF793FEE5E7B4
:1025BC0006F0F6F82046FFF78DFE064B00221A6057
:1025CC00D5E760682CF095FDC6E700BF54E6030024
:1025DC0050E60300885579A008B58069FFF78CFF99
:1025EC0008BD000070B504460D460E4B1B6883B148
:1025FC0000202BF023FD0C4B1E681CF0D5FB2A464B
:10260C00B0FBF4F130462DF054F900202BF0F8FC1F
:10261C0070BD054905482DF03CF9024B4FF0FF32D7
:10262C001A60E5E78C5579A0905579A0DCE603009B
:10263C0008B51421FA20FFF7D5FF08BD08B54FF4F3
:10264C00FA716420FFF7CEFF08BD83694FF0FF32AB
:10265C00C3F8E4207047000010B582B004460F4B5D
:10266C001B68B3B9002125F01CFA47F6E07120462F
:10267C0025F015FA0A48838842880188C0880138F9
:10268C000090013B01320131204625F073F902B074
:10269C0010BD47F6E07125F004FAE6E79C5579A0E9
:1026AC00A05579A010B58EB0044603A91C482CF097
:1026BC0010FD1C4B1B68B3F1FF3F2AD0194B4FF098
:1026CC00FF321A6041F28833059342F2107306937D
:1026DC0047F2305307934FF47A730493124B0A93D7
:1026EC00124B0B93124B0C93124B0D934FF4F07344
:1026FC0000934FF448737622DC210F4825F0D0FC70
:10270C0004A903982CF01AFEA069FFF7A5FF0EB0E0
:10271C0010BD044B00221A602CF04CFEF4E700BFF5
:10272C0050E603009C5579A0DD80020095810200E3
:10273C00B582020029830200E8FE03002DE9F04F68
:10274C0099B04FF48A702CF061FE1A4B1860A8B146
:10275C0004464FF48A7200212FF08EFD4FF0FF33A8
:10276C00C4F80431144A102101202BF03DF940B17A
:10277C00104C20682CF04EFE0023236019B0BDE8ED
:10278C00F08F0D4A17A90D482CF048FF20B10A4BC9
:10279C0018682BF04CF9EBE7064B196860310848C8
:1027AC002CF097FC70B1044B196817982CF097FF1C
:1027BC00EDE700BF985579A0945579A054E6030035
:1027CC0050E60300D94C236803F5887203F5867133
:1027DC00186E2CF0DBFC246804F16403099324F0DC
:1027EC00E3FC0AAA0021206E2CF08FFC4FF4F84376
:1027FC0007930025069547F6E07BCDF814B002232D
:10280C00049340F2DF13039340F21F3302930195BC
:10281C0000950A9B4FF4F0724FF44871204625F056
:10282C0003F9C349204625F0CBFB204625F0CAFB13
:10283C00C4F800011F22BF49204625F0D4FB59469D
:10284C00204625F02CF92946204625F02AF9ADF82A
:10285C002C50ADF82E50E369ADF83030236AADF84A
:10286C0032300DF12C090821484624F037FED4F8FB
:10287C00003103F146020DAE052392B231464846B3
:10288C0024F04DFE0FAF96E8030087E80300052304
:10289C0080223146384624F05CFE0121304624F07B
:1028AC001DFEBDF83430A4F864307F33A4F86830D2
:1028BC00BDF83630A4F866303F33A4F86A309E4B2E
:1028CC00E3669E4B23679E4B6367E467C4F88050B6
:1028DC0097E8030086E8030064223946304624F06A
:1028EC0082FEBDF84230BDF83E209B1A03EBD37339
:1028FC005A100632934E052392B23146384624F0D4
:10290C000EFEB6F80080204625F05CFB08F110089E
:10291C008044A6F80480B6F80280204625F052FBCD
:10292C0008F1100880441FFA88F3F3803288A4F869
:10293C008420B288A4F888207288A4F88620A4F891
:10294C008A30814BC4F88C30804BC4F89030C4F87A
:10295C009450C4F89C40C4F8A050BDF83080BDF829
:10296C002C30A8EB0308A8F27928794BA3FB083884
:10297C00C8F34F0843462A463946484624F0E9FD39
:10298C0004F1F00A434654225146484624F0E1FD36
:10299C0004F1F80804224146504624F024FE142188
:1029AC00404624F07FFD2B4640F22622394648460D
:1029BC0024F0CFFD4FF4907204F1E801384624F076
:1029CC00FCFD5B49204625F0FBFA0121204625F051
:1029DC0056FB2946204625F067F85946204625F037
:1029EC005EF89AE8030089E80300BDF832300093E2
:1029FC00BDF83030BDF82E20BDF82C10204624F048
:102A0C00B9FF98E8030089E80300BDF83230009361
:102A1C00BDF83030BDF82E20BDF82C10204624F027
:102A2C00A9FF2046FFF718FE3588204625F0CAFA84
:102A3C0073884219083316324649204625F08DFA20
:102A4C000127DFF8149140F226283B0289FB031280
:102A5C00DE17C6EB2216F60106F4F84600253146C1
:102A6C00204625F01CF8B4F8EA20B4F8E8103A44F3
:102A7C002944204624F071FE01354545EFD101373C
:102A8C00612FE2D10127DFF8D09040F226283B02DB
:102A9C0089FB0312DE17C6EB2216B60006F4787615
:102AAC0000253146204624F0FAFFB4F8EA203A44D7
:102ABC00B4F8E81060322944204624F04EFE01356B
:102ACC004545EED10137612FE1D10127DFF8889020
:102ADC0040F226283B0289FB0312DE17C6EB2216B6
:102AEC00C6F3C40600253146204624F0D8FFB4F8BE
:102AFC00EA203A44B4F8E810C0322944204624F0C5
:102B0C002CFE01354545EED10137612FE2D147F658
:102B1C00E071204624F0C3FF0999204624F0F4F814
:102B2C0024F056FB014E0D4F31E000BF985579A0B3
:102B3C00982B0600E4E6030090E6030057260000FD
:102B4C009C090500A05579A0C8F50300B12600002A
:102B5C00ABAAAAAA00E70300ABAAAA2A945579A0AB
:102B6C000021C2F80C11106E2CF003FB604B1B689B
:102B7C004FF0FF32C3F80421306811AA00F1640150
:102B8C0024F0FCF83468D4F80431002B3CD13368C1
:102B9C00D3F8E420002A40F0A6804FF4FA7211A971
:102BAC0038682AF0F7FF0028ECD1129B1693139B80
:102BBC00159315AA16A9306824F078FF149B012BE5
:102BCC00DAD13268159BB2F8F2109942D4DCB2F823
:102BDC00F6108B42D0DC1699B2F8F0008842CBDCB0
:102BEC00B2F8F4008142C7DCB2F8FE008342B7DCD5
:102BFC00C11AD2F8103103FB01F1431CB2F8FA00F0
:102C0C001B1AB1FBF3F1ACE70121204625F037FA92
:102C1C00B4F8F880B4F8FAB0B4F8FC90B4F8FEA0AC
:102C2C0004F5887204F58671206E2CF0AFFAAAEBCD
:102C3C000B02D4F80C3102FB0333D4F81021B3FB94
:102C4C00F2F5AAEB0505D4F808319D422CD08BBBCC
:102C5C000121204624F028FF47F6E071204624F09D
:102C6C001EFFCDF800A04B465A464146204624F0A4
:102C7C0081FEC4F808510021204624F015FF47F6C8
:102C8C00E071204624F00BFF0021204624F009FFC0
:102C9C00D4F80821531D009309F10F03053AA8F14C
:102CAC000F01204624F066FE114B1B680022C3F86E
:102CBC0004216CE70021204624F0F6FE002120467A
:102CCC0024F0EDFE0021204624F0EBFED4F8082180
:102CDC00531D009309F10F03053AA8F10F0120468B
:102CEC0024F048FEB4E7186E2CF003FA5BE500BF45
:102CFC00985579A0F0B583B006460C4615464FF4AE
:102D0C00F843019302F10803009301F10803083A18
:102D1C00083924F0B7FA00270197AB1D0093A31DC7
:102D2C00AA1FA11F304624F0ADFA47F6FF7301939A
:102D3C002B1D0093231D2A1F211F304624F0A2FABD
:102D4C000197AB1C0093A31CAA1EA11E304624F0B5
:102D5C0099FA03B0F0BD000010B5A2B021A93F480C
:102D6C002CF0B7F908B122B010BD21982CF0E9F97C
:102D7C004FF4807121982CF0FCF924F015FA20AA5C
:102D8C00002121982CF0C1F94FF4F843079300234C
:102D9C00069347F6E07205920222049240F2DF128B
:102DAC00039240F21F32029201930093209B4FF446
:102DBC00F0724FF4487108A824F036FE284908A890
:102DCC0025F0FEF81F22274908A825F00CF908A8C1
:102DDC0025F0F8F884B2244B1B78012B23D0234622
:102DEC004FF44872214908A825F0C2F863004FF44B
:102DFC0048721F4908A825F0BBF8C4F178039B0062
:102E0C004FF448721B4908A825F0B2F8A4EB8404CF
:102E1C0004F5F0734FF44872174908A825F0A8F888
:102E2C0024F0D6F99FE723464FF44872134908A8BB
:102E3C0025F09EF8C4F178039B004FF448720D49BD
:102E4C0008A825F095F8A4EB840404F5F0734FF46E
:102E5C004872094908A825F08BF8E1E750E6030011
:102E6C00982B060014E70300AC5579A094E70300F7
:102E7C00B8E7030054E7030078E703002CE70300EE
:102E8C002DE9F04F97B00390144600234FF0FF3616
:102E9C00DFF874B29D4A1032099208968A469C4A11
:102EAC00137050462CF078FB1CB99A4B1B68032B03
:102EBC0010D0FFF751FF954FDFF858820023049391
:102ECC001D46A6E001234FF0FF34E8E701234FF045
:102EDC00FF34E4E7904D8D4A294650462CF074FBA4
:102EEC00099A05F1100150462CF06EFB874B03F14B
:102EFC00200205F1200150462CF066FB50462CF0C8
:102F0C0057FB0646DBF800300894DBF800304BB971
:102F1C00002ED7D1089B002BD8D17E4B00229A646F
:102F2C0002F02EFD17B0BDE8F08F1395149509F142
:102F3C00010932202AF00EFCB9F1030F1CD812A99A
:102F4C0050462CF0D5FA0028F3D1DBF80030B3F161
:102F5C00FF3FEAD0129B13F0010F09D0029B002B0C
:102F6C00E7D0139B1E44149B1C4409F10109E0E7B4
:102F7C004FF0FF330293DCE7B6FBF9F61396B4FB84
:102F8C00F9F4149412AC079A214650462CF01CFB11
:102F9C0008F1040694E80F0086E80F00049E741CE8
:102FAC005C4B1C60FFF744FBBDF81410BDF81820F7
:102FBC00019502F10803009301F10803083A08395E
:102FCC00039824F05FF926B1DBF80030DBB9322628
:102FDC000FE0FFF7C1FEDBF80030002BF7D0103705
:102FEC0008F1100814E030462AF0B4FBDBF800308E
:102FFC004BB912A950462CF07BFA0028F3D1129B46
:10300C0013F0010FEFD1032C73D0103708F1100817
:10301C00049407977B680593BA68069292B299B2AA
:10302C000398FFF767FE0295A9462C462E4686E7C5
:10303C00DFF8E8900DF1280832250296049417E089
:10304C0028462AF087FB12A950462CF051FA00288A
:10305C00F6D1129B13F0010FF2D14FF496702AF0B7
:10306C0079FB09F1100908F1100812AB984524D02E
:10307C00D9F80460D9F80870BAB2B1B20398FFF766
:10308C0039FE4446214650462CF032FA0028F9D13C
:10309C00236813F0010FF5D0FFF7CAFAB1B2BAB238
:1030AC000023019302F10803009301F10803083A8D
:1030BC000839039824F0E6F8C5E7029E049C0B9BA4
:1030CC00A3F2D623302B3FF620AF0C9BA3F5CB738A
:1030DC00302B3FF61AAF0F9BA3F5BC73302B3FF68A
:1030EC0014AF109BD83B089A302B98BF22460892FD
:1030FC000BE750462CF05CFA0646DBF80040002C3F
:10310C0096D00023089300E7885579A0FCE70300CC
:10311C00AC5579A0405679A0445679A0DCE7030061
:10312C0010B584B00446184A102101202AF05CFC2A
:10313C0010B1002004B010BD134A03A913482CF0A1
:10314C006DFA20B1104B18682AF071FCF1E702A956
:10315C000F482BF0BEFF28B10B4B196803982CF0CD
:10316C00BEFAEFE701AA002102982BF0CEFF094B23
:10317C009B6C002B0CBF22464FF0FF320399019839
:10318C00FFF77EFEE8E700BFA85579A054E60300E0
:10319C0050E60300405679A030B587B0002205A94F
:1031AC0011482CF03BFAE0B90524322501A9059809
:1031BC002CF09EF9019B13F0010F10D028462AF039
:1031CC00C9FA013CF2D14FF0FF34002105982CF0E4
:1031DC0086FA0A202AF0BEFA204607B030BD002439
:1031EC00F3E74FF0FF34F7E754E6030008B54FF070
:1031FC00FF30FFF795FF08BD014B01221A607047A5
:10320C00B85579A010B582B00A4C0B4B19882046E2
:10321C0024F047FC47F6E071204624F040FC512393
:10322C000093A12312222221204624F0A3FB02B0FA
:10323C0010BD00BFBC5579A01400001008B5084B98
:10324C001B780133DBB2062B28BF0023044A137012
:10325C00044A32F81320044B1A80FFF7D3FF08BD41
:10326C00B45579A0DCE90300140000102DE9F047F7
:10327C0086B081466C482CF0C9F882466B4C012113
:10328C00204624F011FC47F6E071204624F007FCA0
:10329C00B9F806300093B9F80430B9F80220B9F83F
:1032AC000010204624F066FB05AA032160482BF091
:1032BC0055F8002849D1D04613275C4E4546CF24FB
:1032CC000494039703AA04A9304624F0F9FB0123C4
:1032DC0000932B46039A0499304624F0CDFC02351A
:1032EC00013440F25F239C42EAD108F5487801375B
:1032FC0040F2A3139F42E1D102AB4B4A51460598D1
:10330C002BF09CF818B1484B029A9A4255D105986B
:10331C002BF05CF8454C0121204624F0C5FB002124
:10332C00204624F0BCFBB9F806300093B9F8043001
:10333C00B9F80220B9F80010204624F01BFB5046C7
:10334C002CF068F806B0BDE8F087064605AA032104
:10335C0038482BF003F804460028ACD0364B1968DB
:10336C00364A01F53B2000F5006024F052F9FFF7D6
:10337C0065F92E4D0021284624F096FB00212846A5
:10338C0024F08FFB47F6E071284624F088FB2223BB
:10339C00009340F25F231222CE21284624F0EAFA51
:1033AC00092E0DD00D2E27D10D2C1ED01423D0227A
:1033BC0023491E4824F0D1FD24E0FFF73FF9A6E78E
:1033CC000D2C0BD0092C4FF014034FF0D0020CBF76
:1033DC001C491D49154824F0C0FD13E01423D022CC
:1033EC001A49284624F0B9FD0CE01423D0221849C0
:1033FC000E4824F0B2FD05E01423D02215490B48E9
:10340C0024F0ABFD0121094824F04EFB4FF4FA6087
:10341C002AF0A0F9084B1868084A00F53B2101F581
:10342C00006124F0F6F875E700E20400BC5579A0C1
:10343C004CE8030058E803002C04001000B80B0003
:10344C00F0E8030088E80300B0E8030064E8030038
:10345C00D0E803000CE903002DE9F04F89B00546D4
:10346C008B482BF0D3FF81468A4C0121204624F057
:10347C001BFB47F6E071204624F011FBEB88009310
:10348C00AB886A882988204624F074FA07AA01219F
:10349C0081482AF063FF804640B107AA01217F488A
:1034AC002AF05CFF0446002840F0978004AB784A71
:1034BC00494607982AF0ACFF044607982AF086FF85
:1034CC004CB1734B049A9A4202D1CA46132704E0BA
:1034DC00FFF7B4F82AE0CA4613276E4ECDF80C90CD
:1034EC00A3465246AA46951ECF24914606940597AC
:1034FC0005AA06A9304624F0E3FA35F8023F059AEE
:10350C000699304624F0E6FA013440F25F239C42DF
:10351C00ECD109F54872013740F2A3139F42E2D176
:10352C00DDF80C905C465546002C3FD05C4B19687E
:10353C005C4A01F53B2000F5006024F06AF8FFF7C7
:10354C007DF8544C0021204624F0AEFA0021204690
:10355C0024F0A7FA47F6E071204624F0A0FA2223C3
:10356C00009340F25F231222CE21204624F002FA6F
:10357C00B8F1090F76D0B8F10D0F00F0818014234B
:10358C00D0224949434824F0E8FC0121414824F069
:10359C008BFA4FF4FA602AF0DDF8414B1868414A77
:1035AC0000F53B2101F5006124F033F8394C012181
:1035BC00204624F079FA0021204624F070FAEB889A
:1035CC000093AB886A882988204624F0D3F94846B2
:1035DC002BF020FF09B0BDE8F08F314B1968314A50
:1035EC0001F53B2000F5006024F013F8FFF726F8F6
:1035FC00284E0021304624F057FA0021304624F0A2
:10360C0050FA47F6E071304624F049FA2223009331
:10361C0040F25F231222CE21304624F0ABF9B8F1F0
:10362C00090F0DD0B8F10D0FA9D10D2C21D0092CFB
:10363C0026D11423D0221D49164824F08EFCA4E771
:10364C000D2C08D0092C0DD11423D0221849114867
:10365C0024F083FC99E71423D0221649304624F039
:10366C007CFC92E71423D02212490A4824F075FC02
:10367C008BE71423D0221049064824F06EFC84E713
:10368C001423D0220C49034824F067FC7DE700BFCB
:10369C0000E20400BC5579A04CE8030058E8030094
:1036AC002C04001000B80B00B4E9030090E90300EF
:1036BC0040E903001CE9030070E90300A0F1CF0C02
:1036CC00BCF5C87F1AD2A1F1130CBCF5C87F15D27A
:1036DC00A2F1CF0CBCF5C87F10D2A3F1130CBCF532
:1036EC00C87F0BD200B583B0009313460A4601463F
:1036FC00034824F045F803B05DF804FB704700BFA5
:10370C00BC5579A008B5A0F1CF03B3F5C87F09D299
:10371C00A1F11303B3F5C87F04D20A46014602484F
:10372C0024F01BF808BD00BFBC5579A070B58AB059
:10373C0009AA00212BF0E9FC23F036FD1E4C4FF4B6
:10374C00F84307930025069547F6E0760596022385
:10375C00049340F2DF13039340F21F33029301955D
:10376C000095099B4FF4F0724FF44871204624F0F9
:10377C005BF91249204624F023FC1F2210492046F5
:10378C0024F031FC3146204624F089F90D492046BD
:10379C0023F0BAFA2946204624F083F940F2A31309
:1037AC00009340F25F231222CE21204624F0E2F84F
:1037BC0023F00EFD0AB070BDBC5579A0982B060005
:1037CC00C0E9030000EA03002DE9F04F91B0854BEE
:1037DC0000221A60844A102101202AF005F910B148
:1037EC0011B0BDE8F08F804A0EA980482BF016FF6F
:1037FC0020B17D4B18682AF01AF9F1E70FA97C4823
:10380C002BF067FC28B1784B19680E982BF067FFEA
:10381C00EFE70BAA00210F982BF077FC0F98FFF71E
:10382C0085FFFFF7EFFC4FF0FF31302004F07CFCFC
:10383C000026B246B0466B4C6B4D2768002F40F00B
:10384C00CD804FF0FF3207A928682AF0A3F9002891
:10385C00F3D1089B0D93099B0C930CAA0DA96548F9
:10386C0024F024F90D9BCF3BB3F5C87F80F0AC80DE
:10387C000C9B133BB3F5C87F80F0A6800A9B012BF1
:10388C0001D0B846D9E72BF0B3FD5B4B1988002962
:10389C0040F08580574824F002F9B8F1000F50D061
:1038AC00DDF834900C9F0AF1FF308046711E09F14F
:1038BC00FF3B7B1E02935A460591FFF7FFFE3B46EA
:1038CC005A463146CDF810804046FFF7F7FE721C81
:1038DC00114607F1010843465A4603910498FFF735
:1038EC00EDFE029B4A46DDF814B059465046FFF7F0
:1038FC00E5FE3B464A4631465046FFF7DFFE43465F
:10390C004A4603995046FFF7D9FE0AF1010A09F11C
:10391C000109029B4A4659465046FFF7CFFE3B46EB
:10392C004A4631465046FFF7C9FE43464A4603997C
:10393C005046FFF7C3FEDDF834A00C9E4FF0FF3865
:10394C007BE70D9E0C9F06F1FF3A07F1FF394946C4
:10395C005046FFF7D7FE39465046FFF7D3FE07F126
:10396C00010841465046FFF7CDFE49463046FFF769
:10397C00C9FE39463046FFF7C5FE41463046FFF7D3
:10398C00C1FE013649463046FFF7BCFE394630468B
:10399C00FFF7B8FE41463046FFF7B4FECBE71548BB
:1039AC0024F07DF8B8F1000F08D00C9B00930D9B10
:1039BC00324651460F4823F0E3FEBCE70C9A0D99B2
:1039CC000C4823F0CAFEB6E707AA0C49094823F0B5
:1039DC00D5F90A9B002B08BFB8462EE70F982BF0A1
:1039EC0088FB10E7B85579A0B05579A054E60300D0
:1039FC0050E60300BC5579A01400001000EA030047
:103A0C0070B505460C46B2F5004F2ED0102A41D0A9
:103A1C00002A3ED1486E2AF02DF9B0F57A7F38D3C2
:103A2C002AF01CF9606604F1680201216E482AF044
:103A3C0095FC002832D1AB686C4A0221204698478D
:103A4C00A06E2AF0C3FC0023022219462046EE6821
:103A5C00B0472B69022120469847654B1A889B7802
:103A6C00A4F8022184F8043113E08368614A002130
:103A7C0020469847AB68604A012120469847AB68BE
:103A8C005E4A0221204698472AF0E8F86066002337
:103A9C00E36670BD436908469847FAE7031F0C2B91
:103AAC0000F28680DFE803F0358484848458078430
:103ABC00844984846700AB68514A022120469847A8
:103ACC00504B07CBC4F80201C4F80611C4F80A2104
:103ADC001A889B78A4F80E2184F81031E36E013318
:103AEC00E3660E2BD5D9AB68474A0221204698478E
:103AFC000023032219462046EE68B0472B690321A8
:103B0C0020469847414B03CBC4F80201C4F8061178
:103B1C00BFE7AB683E4A0221204698473D4B07CB96
:103B2C00C4F80201C4F80611C4F80A211A889B785B
:103B3C00A4F80E2184F81031D0E7AB68364A022184
:103B4C0020469847354B03CBC4F80201C4F8061144
:103B5C001B88A4F80A31C1E7AB68314A0221204620
:103B6C009847304B03CBC4F80201C4F806111B88EC
:103B7C00A4F80A31B2E7AB682B4A022120469847D9
:103B8C002A4E0FCEC4F80201C4F80611C4F80A215B
:103B9C00C4F80E31337884F812310023032219460D
:103BAC002046EE68B0472B6903212046984795E7DD
:103BBC00AB681D4A0221204698471D4B07CBC4F821
:103BCC000201C4F80611C4F80A211B88A4F80E31AE
:103BDC000023032219462046EE68B0472B690321C7
:103BEC00204698477AE700BF00EB030014EB030074
:103BFC0040820500A0EA0300BCEA0300F0EA0300DF
:103C0C002CEB03004CEB030018EC030030EC03002E
:103C1C005CEB03007CEB03008CEB0300A8EB0300D4
:103C2C00B4EB0300D0EB0300DCEB0300F4EB03007C
:103C3C0008EC0300B2F5004F00D0704738B50546CC
:103C4C000C46002184F86C108368264A204698475D
:103C5C0004F1640124482AF0E5FAC8B1AB68234AA0
:103C6C000021204698470023032219462046D5F808
:103C7C000CC0E0472B690321204698471C4B03CB13
:103C8C00C4F80201C4F806111B88A4F80A3138BD27
:103C9C0004F16801606E2AF0B1FA0028DED1A06E42
:103CAC0003685B6940F6C41204F170019847002860
:103CBC00D4D1AB680F4A002120469847002302223A
:103CCC0019462046D5F80CC0E0472B690221204646
:103CDC009847094B1A889B78A4F8022184F8043180
:103CEC00D5E700BF38EC0300A4E6030054EC030056
:103CFC007CEC030088EC030040820500F0B583B037
:103D0C0005460C46B2F5004F5ED0002A7AD1886E7B
:103D1C0003681B6901A99847002840F08380019A29
:103D2C00636F9342B8BF6267236F9A42B8BF226732
:103D3C0082EAE273A3EBE273C3F34233C3EB4311A6
:103D4C0003EB810604F17807334612145D493846BB
:103D5C002EF050F9AB683A46002120469847C8200F
:103D6C0029F0F8FCE36E0133E366052B4AD9226F88
:103D7C00B2F5702F69DA019282EAE273A3EBE27377
:103D8C00C3F34233C3EB431103EB810633461214E6
:103D9C004D4938462EF02EF9AB683A4600212046A4
:103DAC009847EF680023032219462046B8472B6931
:103DBC000321204698473346BDF90620434904F5B4
:103DCC0081702EF017F91DE08368414A00212046CE
:103DDC00984704F164013F482AF024FAA0B1EE6838
:103DEC000023032219462046B0472B6903212046A5
:103DFC009847394B03CBC4F80201C4F806111B8851
:103E0C00A4F80A3103B0F0BD04F16801606E2AF029
:103E1C00F5F90028E3D14FF4C81323676367002337
:103E2C00E366EFE7EE680023032219462046B0470D
:103E3C002B69032120469847284B07CBC4F8020175
:103E4C00C4F80611C4F80A21DCE7626FB2F5201F32
:103E5C0024DD0192C2F34233C3EB431103EB810621
:103E6C00334612141E4938462EF0C4F8AB683A4655
:103E7C00002120469847EF6800230322194620466C
:103E8C00B8472B690321204698473346BDF90620D5
:103E9C00144904F581702EF0ADF8B3E7EF680023F8
:103EAC00022219462046B8472B6902212046984722
:103EBC003346BDF906200C4904F581702EF09AF8B2
:103ECC00A0E700BFDCEC030000ED03002CED0300C9
:103EDC00ACEC0300C8EC0300D0EB0300D0EC030007
:103EEC0040ED03006CED03007CED0300F0B58BB0EE
:103EFC0005460C46164669466D482AF093F958B1AA
:103F0C00EE680023032219462046B0472B69032193
:103F1C00204698470BB0F0BD01A900982AF06EF925
:103F2C00002832D1B6F5004F3AD0002EF2D120261F
:103F3C003246002102A82EF09FF9019803685F69B0
:103F4C00334602AA4121B847002800F08A80EE6867
:103F5C000023032219462046B0472B690321204633
:103F6C009847544B03CBC4F80201C4F806111A88C5
:103F7C009B78A4F80A2184F80C31019803689C6999
:103F8C0020234D4A4121A047C4E7EE6800230322B9
:103F9C0019462046B0472B69032120469847B9E7BC
:103FAC00AB68464A002120469847019803685E6931
:103FBC002023414A4121B047B0B1EE6800230322CF
:103FCC0019462046B0472B69032120469847394BA8
:103FDC0003CBC4F80201C4F806111A889B78A4F824
:103FEC000A2184F80C3195E72022AA2102A82EF090
:103FFC0043F9019803689E69202302AA4121B04726
:10400C0006462022552102A82EF036F9AEB1012326
:10401C008DF80830EE680023032219462046B0477D
:10402C002B69032120469847254B07CBC4F8020186
:10403C00C4F80611C4F80A216CE7019803689E695C
:10404C00142302AA4321B04701238DF8083000281D
:10405C00E0D1019803689C69012302AA4621A0477C
:10406C0058E7202202A917482DF025FF50B9EE6819
:10407C000023022219462046B0472B690221204614
:10408C0098477AE7EE680023032219462046B0478A
:10409C002B690321204698470B4B07CBC4F8020130
:1040AC00C4F80611C4F80A211B7884F80E3164E7B1
:1040BC0088ED0300A4ED03001C5679A090ED0300DD
:1040CC00B0ED03000CF20300BCED0300034601202D
:1040DC00186000BF00BF00BF00BF00BF00BF00BF23
:1040EC0000BF00BF00BF00BF00BF00BF00BF00BFCC
:1040FC0000BF00BF00BF00BF00BF00BF00BF00BFBC
:10410C0000BF00BF00BF00BF00BF00BF00BF00BFAB
:10411C0000BF00BF00BF00BF00BF00BF00BF00BF9B
:10412C0000BF00BF00BF00BF00BF00BF00BF00BF8B
:10413C0000BF00BF00BF00BF00BF00BF00BF00BF7B
:10414C0000BF00BF00BF00BF00BF00BF00BF00BF6B
:10415C0000BF00BF00BF00BF00BF00BF00BF00BF5B
:10416C0000BF00BF00BF00BF00BF00BF00BF00BF4B
:10417C0000BF00BF00BF00BF00BF00BF00BF00BF3B
:10418C0000BF00BF00BF00BF00BF00BF00BF00BF2B
:10419C0000BF00BF00BF00BF00BF00BF00BF00BF1B
:1041AC0000BF00BF00BF00BF00BF00BF00BF00BF0B
:1041BC0000BF00BF00BF00BF00BF00BF00BF00BFFB
:1041CC0000BF00BF00BF00BF00BF00BF00BF00BFEB
:1041DC0000BF00BF00BF00BF00BF00BF00BF00BFDB
:1041EC0000BF00BF00BF00BF00BF00BF00BF00BFCB
:1041FC0000BF00BF00BF00BF00BF00BF00BF00BFBB
:10420C0000BF00BF00BF00BF00BF00BF00BF00BFAA
:10421C0000BF00BF00BF00BF00BF00BF00BF00BF9A
:10422C0000BF00BF00BF00BF00BF00BF00BF00BF8A
:10423C0000BF00BF00BF00BF00BF00BF00BF00BF7A
:10424C0000BF00BF00BF00BF00BF00BF00BF00BF6A
:10425C0000BF1A68824202D140007FF439AF704728
:10426C00F0B502468908013911F0010E3CD07346B5
:10427C004FF0AA3042F823005B001942FAD14FF0FC
:10428C0055331360734602EB830052F82340B4F1AC
:10429C00AA3F14D15B001942F5D14FF0AA33136039
:1042AC00F4464FF055361F4610E05B00194207D01C
:1042BC0052F82340B4F1AA3FF7D06345F5D0F0BDD6
:1042CC0057514FEA4C0C11EA0C0F0BD04FEA8C05EE
:1042DC0002EB8C0042F82C601368B3F1AA3FEED1CC
:1042EC007346E5E70020EAE74FF0553303604FF0E3
:1042FC00AA3303600020E2E7032928D910B502464F
:10430C004FEA910C8646012340F8043B9C4503F18F
:10431C000103F9D8012300E00B46104611689942BD
:10432C0014D1D94342F8041B591C9C45F4D80023E2
:10433C006FF001047046DEF80010E21A914205D1CC
:10434C0001330EF1040E9C45F4D8002010BD002062
:10435C0070470000B2F5004F00D0704770B50546AD
:10436C000C4683682A4A00212046984728F05CFBBB
:10437C004FF02040FFF7AAFE064628F06FFBB6B1BF
:10438C00AB68244A01212046984700230322194692
:10439C002046D5F80CC0E0472B69032120469847EE
:1043AC0032461D4904F581702DF024FE70BD28F0B5
:1043BC003BFB4FF080714FF02040FFF751FF06465A
:1043CC0028F04CFB002EDBD128F02EFB4FF0807137
:1043DC004FF02040FFF790FF064628F03FFB002EE1
:1043EC00CED1AB680D4A012120469847EE680023D8
:1043FC00022219462046B0472B69022120469847D5
:10440C004FF08072064904F581702DF0F3FDCDE775
:10441C00CCED0300F8ED030010EE0300E0ED03001B
:10442C00F0ED0300F0B5C3B006460C4615468368A4
:10443C00534A012120469847524B03CBC4F8020142
:10444C00C4F806111B88A4F80A3141AA1021284689
:10445C002AF0A1F8002874D104F58177419B512BE7
:10446C0003D040F2E93043B0F0BD41AA11212846F7
:10447C002AF091F8002867D1419B522B02D040F2D0
:10448C00E930F0E741AA122128462AF084F80028E6
:10449C005DD1419B592B02D040F2E930E3E73A4B16
:1044AC0007CBC4F802017960BA60B368374A0121BE
:1044BC00204698474FF480224FF4E00128462AF01A
:1044CC005BF8002846D1802301AA4FF4E00128466E
:1044DC002AF030F8002840D101AB21A913F8012BA8
:1044EC00FF2A3DD18B42F9D1294B07CBC4F80201ED
:1044FC007960BA60B368274A0121204698470623A1
:10450C00254A264928462AF026F860BB0623244A69
:10451C00244928462AF01FF840BB802301AA1F49D2
:10452C0028462AF007F820BB0C221F4901A82DF0C1
:10453C00C2FC08BB1D4B1A889B78A4F80221BB70E7
:10454C0091E740F2E9308EE740F2E9308BE740F238
:10455C00E93088E740F2EA3085E740F2EA3082E75A
:10456C0040F2EB307FE74FF47B707CE74FF47B70CD
:10457C0079E74FF47B7076E74FF47B7073E700BFFD
:10458C0018EE0300D0EB030028EE030034EE03001A
:10459C0044EE030050EE030060EE0300FCFF7100DC
:1045AC0068EE03000200720070EE0300408205000A
:1045BC00F0B591B000230193ADF80830B2F5004F7F
:1045CC0001D011B0F0BD05460C4683681E4A00218F
:1045DC00204698470FA91D4829F090FFC8B903A998
:1045EC000F9829F0E7FF039B0F9A21462846FFF707
:1045FC0019FF06460F9829F091FF66B9EE68002363
:10460C00022219462046B0472B69022120469847C2
:10461C00D7E74FF47A7604F16407C6F30E020C491F
:10462C0038462DF0E7FCAB683A4602212046984705
:10463C00EE680023032219462046B0472B6903215C
:10464C0020469847BDE700BF80EE0300A0EE0300B4
:10465C00A8EE030030B583B005460C46B2F5004F0A
:10466C002FD0102A48D0002A44D1486E29F002FBE2
:10467C00B0F57A7F3ED329F0F1FA606604F1680256
:10468C000121654829F06AFE002839D1AB68634ADC
:10469C00022120469847A06E29F098FE00230222A2
:1046AC0019462046D5F80CC0E0472B69022120465C
:1046BC0098475B4B1A889B78A4F8022184F8043144
:1046CC0018E08368574A002120469847AB68564A41
:1046DC00012120469847AB68544A0221204698474E
:1046EC0001A9534829F0B0FB0023E366236729F0A6
:1046FC00B5FA606603B030BD436908469847F9E7E0
:10470C00031F092B51D8DFE803F01E5050505041C5
:10471C0005505032AB68474A022120469847464B19
:10472C0007CBC4F80201C4F80611C4F80A211A8890
:10473C009B78A4F80E2184F81031236F5A1C042B9B
:10474C0047D02267D6E7AB683C4A022120469847FF
:10475C003B4B07CBC4F80201C4F80611C4F80A217C
:10476C001A889B78A4F80E2184F81031E5E7AB6821
:10477C00344A022120469847334B03CBC4F802013C
:10478C00C4F806111B88A4F80A31D6E7AB682F4A87
:10479C000221204698472E4B03CBC4F80201C4F8E3
:1047AC0006111B88A4F80A31C7E7AB681F4A02211F
:1047BC0020469847274B07CBC4F80201C4F80611D2
:1047CC00C4F80A211A889B78A4F80E2184F81031B9
:1047DC00B3E700232367E36E0133E366062B16D1A0
:1047EC00AB681D4A02212046984700230322194634
:1047FC002046D5F80CC0E0472B690321204698478A
:10480C00164B03CBC4F80201C4F8061172E701A9D8
:10481C00074829F019FB6DE718EF030014EB0300B0
:10482C0040820500BCEE0300DCEE0300F0EA03005E
:10483C0008EF03002CEB03004CEB03005CEB0300D4
:10484C007CEB03008CEB0300A8EB0300B4EB030040
:10485C00D0EB030028EF030018EC030030EC03004E
:10486C0030B583B005460C46B2F5004F2FD0102A58
:10487C0048D0002A44D1486E29F0FCF9B0F57A7F73
:10488C003ED329F0EBF9606604F16802012165481A
:10489C0029F064FD002839D1AB68634A0221204617
:1048AC009847A06E29F092FD00230222194620465B
:1048BC00D5F80CC0E0472B690221204698475B4B8A
:1048CC001A889B78A4F8022184F8043118E08368D4
:1048DC00574A002120469847AB68564A012120468A
:1048EC009847AB68544A02212046984701A953487F
:1048FC0029F0AAFA0023E366236729F0AFF9606672
:10490C0003B030BD436908469847F9E7031F092BEC
:10491C0051D8DFE803F01E50505050410550503232
:10492C00AB68474A022120469847464B07CBC4F850
:10493C000201C4F80611C4F80A211A889B78A4F85D
:10494C000E2184F81031236F5A1C042B47D0226798
:10495C00D6E7AB683C4A0221204698473B4B07CB35
:10496C00C4F80201C4F80611C4F80A211A889B780D
:10497C00A4F80E2184F81031E5E7AB68344A022123
:10498C0020469847334B03CBC4F80201C4F80611F8
:10499C001B88A4F80A31D6E7AB682F4A02212046BF
:1049AC0098472E4B03CBC4F80201C4F806111B88A0
:1049BC00A4F80A31C7E7AB681F4A02212046984782
:1049CC00274B07CBC4F80201C4F80611C4F80A211E
:1049DC001A889B78A4F80E2184F81031B3E70023D1
:1049EC002367E36E0133E366062B16D1AB681D4AD1
:1049FC000221204698470023032219462046D5F869
:104A0C000CC0E0472B69032120469847164B03CB7B
:104A1C00C4F80201C4F8061172E701A9074829F08D
:104A2C0013FA6DE718EF030014EB03004082050046
:104A3C0038EF0300DCEE0300F0EA030058EF03004C
:104A4C002CEB03004CEB03005CEB03007CEB030052
:104A5C008CEB0300A8EB0300B4EB0300D0EB0300DA
:104A6C0028EF030018EC030030EC0300B2F5004F04
:104A7C0000D070472DE9F04F8BB006460C4683688A
:104A8C00744A00212046984703A973482AF021FB59
:104A9C0009A9724829F0FAF900B3B368704A0021E9
:104AAC0020469847F5680023032219462046A8475C
:104ABC0033690321204698476A4B03CBC4F80201A3
:104ACC00C4F806111B88A4F80A31099829F0E9F9F1
:104ADC0003982AF00EFB0BB0BDE8F08F0023059372
:104AEC000A238DF8183001238DF8193004AB089384
:104AFC0005A9099829F0DCF9D8B1B3685A4A002104
:104B0C0020469847F5680023032219462046A847FB
:104B1C003369032120469847544B03CBC4F8020158
:104B2C00C4F806111A889B78A4F80A2184F80C3171
:104B3C00CBE7049B642202FB03F74D4BA3FB073727
:104B4C003F0A04EB020B00233A464A4958462DF023
:104B5C0051FAB3685A4600212046984704F58178EB
:104B6C0000233A46444940462DF044FAA7F150033D
:104B7C00282B0FD9F5680023032219462046A84795
:104B8C0033690321204698473A463C4940462DF06C
:104B9C0031FA9AE703982AF0E0FA002103982AF0F8
:104BAC00E8FA642028F0D6FD05A9099829F080F9C7
:104BBC00049B642202FB03F31A4601932C4BA3FBC8
:104BCC0002394FEA192903982AF0BBFA00254FF055
:104BDC000A0A294603982AF0CCFA504628F0BAFD66
:104BEC000235B5F5807FF4D14B463A4621495846FB
:104BFC002DF000FAB3685A460021204698474B46E0
:104C0C003A461D4940462DF0F5F9019BB3F5994FF5
:104C1C000FD3F5680023032219462046A8473369B1
:104C2C000321204698474A46154940462DF0E2F9A3
:104C3C004BE7F5680023022219462046A847336942
:104C4C000221204698474B463A460B4940462DF0E8
:104C5C00D1F93AE768EF030050E6030080EF030058
:104C6C0088EF0300D0EB0300ACEF0300D0EF0300A0
:104C7C00ABAAAAAADCEF030008F0030014F00300AF
:104C8C0024F00300B2F5004F00D07047F0B587B0A8
:104C9C0005460C468368404A00212046984705A9E2
:104CAC003E4829F0F3F8E0B1AB683D4A00212046BC
:104CBC0098470023032219462046EE68B0472B691B
:104CCC00032120469847374B03CBC4F80201C4F8A4
:104CDC0006111B88A4F80A31059829F0E2F807B0F0
:104CEC00F0BD022301930A238DF8083001238DF8BF
:104CFC000930CDF810D001A9059829F0D9F8D8B110
:104D0C00AB68294A002120469847EE68002303220D
:104D1C0019462046B0472B69032120469847234B60
:104D2C0003CBC4F80201C4F806111A889B78A4F8C6
:104D3C000A2184F80C31CFE7009B642202FB03F3B9
:104D4C001B4EA6FB03269B1B06EB5306760A04F1AF
:104D5C0064073246174938462DF04CF9AB683A4691
:104D6C00002120469847503E282E0AD9EE68002391
:104D7C00032219462046B0472B6903212046984749
:104D8C00AAE7EE680023022219462046B0472B6999
:104D9C000221204698479FE734F0030080EF030080
:104DAC0048F00300D0EB030068F00300D0EF0300E1
:104DBC00251540528CF0030000B583B000230193FD
:104DCC0040B1431E062B09D8DFE803F00C11161B6B
:104DDC0020252A0001A9154829F036F8019803B0BE
:104DEC005DF804FB01A9124829F02EF8F6E701A999
:104DFC00104829F029F8F1E701A90F4829F024F807
:104E0C00ECE701A90D4829F01FF8E7E701A90C48C8
:104E1C0029F01AF8E2E701A90A4829F015F8DDE7AC
:104E2C0001A9094829F010F8D8E700BFA4F0030045
:104E3C00ACF00300B4F00300BCF00300C4F00300BA
:104E4C00CCF00300D4F00300DCF0030082B02DE9B9
:104E5C00F04F8FB080468B46164619931C9D836885
:104E6C00A04A0121584698479F4B03CBCBF802012F
:104E7C00CBF806111B88ABF80A310DAA102130466D
:104E8C0029F089FB002840F01B810BF5817A0D9BE2
:104E9C00512B06D040F2E9300FB0BDE8F04F02B014
:104EAC0070470DAA1121304629F075FB002840F0FF
:104EBC000A810D9B522B02D040F2E930ECE70DAA8F
:104ECC001221304629F067FB002840F0FF800D9B33
:104EDC00592B40F0FE8000240794CDF810A00895C3
:104EEC00C146059626465F4607F1640B22467F496C
:104EFC0058462DF07FF8D9F808305A46012138462B
:104F0C00984700230393E3B206930B94039A7849D2
:104F1C0058462DF06FF8D9F808305A46012138461A
:104F2C009847089B002B00F0B58019AB0A934FF003
:104F3C0000084546CDF82480DDF81CA0099A6D497F
:104F4C0058462DF057F8D9F808305A460121384602
:104F5C0098470A9B07935C69B44207D1079B1B696E
:104F6C00002B00F089804344079341E0624E2346B6
:104F7C003246624958462DF03DF8D9F808305A4669
:104F8C00032138469847B246E8E7464635E04346A3
:104F9C0000225B4958462DF02DF8D9F808305A46B6
:104FAC000121384698472A46564904982DF022F894
:104FBC003CB10AF1FF33621E524403F8016F9A426E
:104FCC00FBD122462946059E304629F0D5FA002809
:104FDC0040F08280234652462946304629F0BBFADF
:104FEC0000287CD108F101082544079B984542D044
:104FFC00069B002BC9D088F0FF06039B002BC6D064
:10500C004346039A404958462CF0F4FFD9F808302F
:10501C005A460121384698472A463C4904982CF0B8
:10502C00E9FF234652462946059829F083FA002CBD
:10503C00D8D00AF1FF325346601E5044944612F801
:10504C00011FB14202D18242F8D1CBE74246C84699
:10505C00D946C3F101030191009663442C4948469B
:10506C002CF0C8FFD8F808304A4602213846984739
:10507C0040F2014010E79846099B013309930A9AC4
:10508C0008320A92089A9A4201D0264656E7CDF881
:10509C001CA02646039B01330393022B7FF436AFEF
:1050AC000B9C0134022C7FF41FAFDDF810A0194BC0
:1050BC001A889B78A7F802218AF802300020EBE6C8
:1050CC0040F2E930E8E640F2E930E5E640F2E9305A
:1050DC00E2E640F2E930DFE642F24870DCE642F20A
:1050EC004970D9E618EE0300D0EB0300E4F003009E
:1050FC00F0F0030000F10300000040A00CF10300ED
:10510C002CF1030058F103006CF1030098F103003B
:10511C00ACF1030040820500B2F5004F00D070479F
:10512C00F0B59BB005460C468368264A0021204604
:10513C00984719A9244829F0E1F940BB0DA9199801
:10514C0029F038FAEC460DF1380EBEE80F00ACE849
:10515C000F00BEE80F00ACE80F009EE807008CE8DB
:10516C0007000D9B199A21462846FFF76FFE06464D
:10517C00199829F0D3F966B9EE6800230222194672
:10518C002046B0472B6902212046984718E04FF47F
:10519C007A7604F16407C6F30E020C4938462CF0FB
:1051AC0029FFAB683A46022120469847EE68002357
:1051BC00032219462046B0472B6903212046984705
:1051CC001BB0F0BDE8F10300A0EE0300A8EE030055
:1051DC00034B1B684FF0FF32C3F8D42B704700BF52
:1051EC003C5679A070B58AB0044621F0DDFF09AABF
:1051FC000021204629F089FF184C4FF4F8430793FF
:10520C000023069347F6E07605960222049240F2BC
:10521C00DF12039240F21F32029201930093099B1A
:10522C004FF4F0724FF44871206822F0FDFB0C4DE6
:10523C002946206822F0C4FE1F220A49206822F069
:10524C00D2FE3146206822F02AFC2946206822F042
:10525C00B7FE21F0BDFF0AB070BD00BF3C5679A06F
:10526C00982B06002CF203002DE9F04788B0DFF8EC
:10527C001C81D8F8000000F664240025ADF8185005
:10528C00ADF81A50C369ADF81C30036AADF81E3086
:10529C003F4922F095FED8F8000022F093FE87B229
:1052AC0006AE0A21304622F019F907F14602022314
:1052BC0092B26946304622F032F904AB96E803000C
:1052CC0083E80300D8F8002002F6CC3282E8030011
:1052DC000221184622F002F90437BFB2442F38BF1E
:1052EC0044276826DFF8ACA0DFF8AC90D8F8003083
:1052FC001B6EAB422ED9BDF816300133BDF812200F
:10530C009B1A9F4226DA01233A4602A904A822F0EE
:10531C00ECF8BDF808302380BDF80A306380BDF886
:10532C000C30A380BDF80E30E380D8F80020911922
:10533C00A160C4F80CA0C4F81090311F1144A161F5
:10534C001649E1610233A2F8D23B01352034803694
:10535C00092DCBD10121684622F0C0F8BDF80030F0
:10536C0023807F33A380BDF8023063803F33E3801A
:10537C000B4BA3600B4BE3600B4B23610023A3612E
:10538C00E361A36208B0BDE8F08700BF3C5679A08A
:10539C00982B060011550000D8AB0400B95300003F
:1053AC0090E60300DD5100009C09050030B589B082
:1053BC0004460388ADF818304388ADF81A3083885A
:1053CC00ADF81C30C388ADF81E301C4D1C49286844
:1053DC0022F0F6FD286822F0F5FD85B2022106A820
:1053EC0022F060F80223402204A906A822F0B1F8AA
:1053FC00236993B1BDF810300393BDF812300293BA
:10540C0002AA03A90D4B186822F05AFBBDF808201C
:10541C00BDF80C10206921F04FFF2A46694606A8FA
:10542C0022F0CBF8BDF80230BDF80020A16803488B
:10543C00006822F092FD09B030BD00BF3C5679A047
:10544C00982B060070B586B021F0AEFE284C294989
:10545C00206822F0B5FD206822F0B4FD054647F621
:10546C00E071206822F01BFB0021206822F019FB60
:10547C002068B0F8D03BB0F8CE2BB0F8CC1BB0F80D
:10548C00D26B009622F076FA2068036E13BB90F86C
:10549C00E03B102B28D0092B28D0174C174A302B67
:1054AC0018BF1446214622F0ECFD114E336882B22F
:1054BC0004A903F6CC3022F096F8AAB202A904A8EB
:1054CC0022F07BF8BDF80A30BDF808202146306880
:1054DC0022F043FD064B186800F6642121F014FC01
:1054EC0021F076FE06B070BD044CDBE7044CD9E726
:1054FC003C5679A0982B060088F2030054F2030066
:10550C0068F2030008B5806900F068FE054B1B6863
:10551C00D3F8D80BFFF766FEFFF7A6FEFFF792FF56
:10552C0008BD00BF3C5679A010B59AB002460C4994
:10553C0001A82CF05FFD012301AA0A490BA82CF04D
:10554C0059FD6A4601210BA828F008FF044610B14A
:10555C0020461AB010BD009828F038FFF8E700BFBD
:10556C00B0F20300B8F2030010B58CB00246094942
:10557C0002A82CF03FFD01AA012102A828F0EEFEA2
:10558C00044610B120460CB010BD019828F01EFF47
:10559C00F8E700BFCCF2030010B58CB00246094905
:1055AC0002A82CF027FD01AA012102A828F0D6FEA2
:1055BC00044610B120460CB010BD019828F006FF2F
:1055CC00F8E700BFE4F203002DE9F04794B0804601
:1055DC0000231293364B1D680246364908A82CF05E
:1055EC0009FD13A908A829F095FC18B1302014B0B6
:1055FC00BDE8F0873049139829F0EAFC68B1129B9A
:10560C00002B4AD0002B4DDD643501242646DFF8F3
:10561C00AC902B4FDFF8ACA019E012AB00222A495A
:10562C00139829F0E9FC129B002BEBD12749139816
:10563C0029F0CEFC12AB00222349139829F0DCFC94
:10564C00DDE70134E4B22646129B9C422ADC32464A
:10565C00494605A82CF0CEFC502300932B1D3A464E
:10566C0005A9139829F0F4FC00BB3246514603A857
:10567C002CF0C0FC2823009305F155033A4603A9EE
:10568C00139829F0E5FC0028DBD145F8808B084BFA
:10569C001A68136E01331366D3E7139829F072FC62
:1056AC003020A4E7139829F06DFCA0E730209EE78A
:1056BC003C5679A0E4F20300FCF2030024F303004F
:1056CC00C8F503002CF3030010F303001CF30300D4
:1056DC002DE9F0478EB00746304B1C680246304926
:1056EC0004A82CF087FC03AA012104A828F036FE9C
:1056FC00064618B130460EB0BDE8F08702A90398F3
:10570C0028F0B7FE029B002B44D004F1640A00255C
:10571C00A8462C464FF0010912E02C2B06D04F2D39
:10572C000AD80AEB05021371013505E00AEB0503F3
:10573C0000251D714FF001080134029BA34229D9A9
:10574C0001AB4A460DF10301039828F061FE0646B1
:10575C0000BB019BF3B19DF803300D2BECD0B8F1DD
:10576C00000FDAD00A2B07D0272DE5D80AEB05025B
:10577C0082F855300135DFE755444FF0000885F8C5
:10578C0055804AF8807B054B1A68136E01331366FB
:10579C004546D1E7039828F019FEABE73C5679A0B3
:1057AC00CCF2030030B5A9B040F6E43029F02EFE5F
:1057BC00664B186080B140F6E43200212CF05CFDA1
:1057CC0025AA1021012028F00FF938B15F4C206870
:1057DC0029F020FE0023236029B030BD25AA24A97E
:1057EC005B4829F01BFF18B1259828F020F9EDE74C
:1057FC0027A9584829F06DFC20B12599249829F047
:10580C006EFFF1E7514B1B68279AC3F8D82B4FF06A
:10581C00FF31302002F088FC0020FFF785FE0446A3
:10582C000120FFF781FE002C78D068B9012300938A
:10583C0000238DF804308DF85530684600F0CEFC0E
:10584C00279829F056FCD8E70020FFF7A5FE044660
:10585C008DF898000120FFF79FFE8DF89900002C21
:10586C005ED0002833D1394B1B680124C3F8DC4BC4
:10587C0000221A662046FFF7A7FE04F1A0030DEBE9
:10588C00030404F8080C314B1B6883F8E00B2798D1
:10589C00FFF7A8FCFFF7E8FCFFF7D4FD2B4C4FF00B
:1058AC00FF352368D3F8D43B002BC9D12A4620A955
:1058BC00259828F06FF90028F3D1244B18684FF481
:1058CC00FA73259A00F6642121F0C4FBE7E7002067
:1058DC00FFF74AFE05468DF898000120FFF744FEBD
:1058EC008DF899001DB3B0F10D0418BF0124174BAE
:1058FC001B68C3F8DC4B00221A6604F1A0036B444E
:10590C0013F8083CCBB1114B1B6804F1A0020DEB52
:10591C00020414F8082C83F8E02BB8E7002386E780
:10592C000A4B1B680024C3F8DC4B1C66A2E7074B30
:10593C001B680024C3F8DC4B1C662046FFF7C8FE2E
:10594C0004F1A0036B4403F8080CDCE73C5679A087
:10595C0054E6030050E603000022084B03F14C0010
:10596C0013F8011B0A448342FAD1D243034BD86C7F
:10597C00904214BF16200020704700BF405679A0FB
:10598C0000B583B000220D4B03F14C0013F8011B42
:10599C000A448342FAD1D243084BDA6401A908487D
:1059AC0028F063FC10B103B05DF804FB5023002217
:1059BC000249019828F075FCF5E700BF405679A024
:1059CC0088ED030000B583B001A90B4828F04DFC0D
:1059DC00034618B1184603B05DF804FB50230022AF
:1059EC000649019828F04CFC03460028F2D1FFF739
:1059FC00B3FF0346EEE700BF88ED0300405679A0E5
:105A0C0038B51A4C5022002120462CF035FC4FF0B2
:105A1C00FF35A564C02184F83A10A82284F83B20F5
:105A2C000A2384F83C30142084F83D00FF2084F8CD
:105A3C003E5084F83F0084F8400084F8421084F80B
:105A4C00432084F84430012384F84530BD2384F886
:105A5C003530332384F83630062384F83730682306
:105A6C0084F83830222384F8393038BD405679A078
:105A7C00074B1B684FF0FF32C3F80C22C3F82422EB
:105A8C000021C3F81012C3F81422C3F81C1270477B
:105A9C00945679A0064B1B680022C3F828224FF0BD
:105AAC00FF32C3F81422034B0361034BC3607047EE
:105ABC00945679A0549604007D5C00002DE9F041C9
:105ACC008EB0054621F070FB524B1868524A534C6D
:105ADC002368D3F8E81102FB010121F09AFD20683C
:105AEC00D0F81032D3B94D4B1B68D3F81C32002BB5
:105AFC0073D1002D00F08380484B1B68D3F82C2207
:105B0C00002A71D1D3F83032002B75D021F08CFBE8
:105B1C00424B1B680022C3F8302272E0002121F0B6
:105B2C00C0FF0021206821F0BAFF0021206821F07D
:105B3C00BBFF3B49206822F043FA23680CAE03F507
:105B4C00FA7292E8030086E803000121184621F05E
:105B5C00ABFF206800F1640121F0D6F82368D3F87C
:105B6C00C821D3F8C43101322E4968462CF042FAD0
:105B7C006946206822F085FA8046236803F5F6739F
:105B8C0093E8030086E803000A21304621F0A6FCC6
:105B9C000AAF1FFA88F23946304621F024FD97E807
:105BAC00030086E80300206822F00CFA82B2394622
:105BBC00304621F002FD47F6E071206821F06FFFBE
:105BCC000021206822F05BFABDF82A30BDF82820AD
:105BDC006946206822F0C1F985E7C6224FF4B671F8
:105BEC00114821F069FB84E721F0F8FA0B4B1B6894
:105BFC000022C3F82C2204E021F0EAFA01E021F0A3
:105C0C00E7FA064B1B680022C3F814220EB0BDE85D
:105C1C00F08100BF2C04001000B80B00945679A042
:105C2C00982B060034F303000C24040008B50F4B2A
:105C3C001B68D3F8102292B90C4B1A68D2F8C831F1
:105C4C000133D2F8C4118B4228BF0023C2F8C831EB
:105C5C004FF0FF33C2F81832C2F8303208BD0020C2
:105C6C00C3F81002FFF72AFFE6E700BF945679A0AD
:105C7C0008B5084B1B684FF0FF32C3F82822C3F855
:105C8C001422054B0361054BC3600020FFF7CEFFC8
:105C9C0008BD00BF945679A0809D0400A15A000055
:105CAC0008B5114B1B68D3F81022BAB90E4B1B6800
:105CBC00D3F8C8211AB9D3F8C421C3F8C821D3F832
:105CCC00C821013AC3F8C8210022C3F810224FF0B2
:105CDC00FF32C3F81822C3F82C2208BD0020C3F8E9
