:10000000440D0010010300001B0300007C030000EE
:100010001D0300001F03000021030000C7DFFFEFE6
:1000200000000000000000000000000011CF0200EE
:10003000250300000000000091CF0200D5CF020090
:1000400089A0020095A00200A1A00200ADA00200BC
:10005000B9A00200C5A00200D1A00200DDA00200EC
:10006000E9A00200F5A0020001A102000DA102001A
:1000700019A1020025A1020031A102003DA1020048
:1000800049A1020055A1020061A102006DA1020078
:1000900079A1020085A1020091A102009DA10200A8
:1000A000A9A10200B5A10200C1A10200CDA10200D8
:1000B000D9A10200E5A10200F1A10200FDA1020008
:1000C00009A2020015A2020021A202002DA2020034
:1000D00039A2020045A2020051A202005DA2020064
:0400E00069A202000F
:0402FC00FFFFFFFF02
:10030000DFF88CD023488047DFF884D0224880472C
:1003100022482349016000F045B82FE02EE02DE08F
:100320002CE02BE02AE029E028E027E026E025E089
:1003300024E023E022E021E020E01FE01EE01DE0B9
:100340001CE01BE01AE019E018E017E016E015E0E9
:1003500014E013E012E011E010E00FE00EE00DE019
:100360000CE00BE00AE009E008E007E006E005E049
:1003700004E003E002E001E000E0FFE71EF0040F0C
:100380000CBFEFF30880EFF3098028F0A3B800005A
:100390000000011043ED010021E6020008ED00E03D
:1003A000000000002B498D462B492C480A1A04D026
:1003B00081F30988022282F31488294829492A4AAC
:1003C00000F037F829482A492A4A00F032F82A482A
:1003D0002A492B4A00F02DF82A482B492B4A00F0D5
:1003E00028F82B482B492C4A00F023F82B482C499D
:1003F0002C4A00F01EF82C482C49002200F024F86A
:100400002B482C49091A00220260043001601E4862
:100410001E49884205D00268043003B4904703BCEB
:10042000F7E700208646EC4600200021224A90474C
:10043000FEE7884207D0521A05D0037801300B70CE
:100440000131013AF9D17047884202D0027001307F
:10045000FAE77047440D0010440D0010440D0010E1
:1004600048B406000000001008050010BC0400009D
:10047000BC0400007058030048B4060000000010DF
:1004800000000010705803007058030070580300FB
:100490007058030070580300705803007058030030
:1004A0007058030048B40600609842A0B8C242A049
:0C04B00000EA37A0609842A03BED01007C
:1004BC0008B5882016F0C5F915F0F8FE052211468E
:1004CC00014815F0A9FB08BD907E030010B582B061
:1004DC0013F082F9044613F087F90346882201923F
:1004EC00064A009222460021084613F0EBFC052236
:1004FC001146034815F090FB02B010BDFF55550096
:10050C00907E03002DE9F04F85B013F065F9074696
:10051C0013F06AF9344B1C6834B1334B18680AF089
:10052C00CBF905B0BDE8F08F0646C9231A46002169
:10053C00084609F057FB80460125009533463A469C
:10054C000021084609F044FC274B186064232A4616
:10055C000021084609F046FB8146404609F084FC20
:10056C008246882016F06DF915F0A0FE484609F079
:10057C007BFC882301931D4B0093642300221146BE
:10058C00104613F09FFC48460AF04AF905464046CF
:10059C0009F06AFC4FF0640B55F8040B16F05CF98B
:1005AC0022465946584618F06DF90134642CF3D1A3
:1005BC000D4B186809F058FC002102910197009628
:1005CC0033460A4640460AF093FE05221146084877
:1005DC0015F022FB404609F0D7FB484609F0D4FB46
:1005EC00504609F041FC98E7609842A0FF55550031
:1005FC00907E030038B50446456855B90E21006855
:10060C000BF08AFF4FF07F4120680CF038F9284638
:10061C0038BD0CF0D9FD0546F9E7000008B50368B4
:10062C000F2B06D01E2B08D00E2B09D010F080FA01
:10063C0002E0094B1B68984708BD0023C360FBE729
:10064C00C3685A68002AF7D01B686E2BF4D1034B91
:10065C0001221A60F0E700BF7C9842A0689842A083
:10066C0030B583B0054610F075FD0446284610F0F1
:10067C008BFD451E0A4B01930A4B00932B46A21E81
:10068C000021012013F01EFC074816F0E5F82B465C
:10069C00621E4FF0FF31002018F040FE03B030BD59
:1006AC00DCCEC0FFF3F3E6FFA8A851FF10B582B073
:1006BC0004460368013B1C2B36D8DFE803F02435D5
:1006CC0035353535353535353535351E31353535E9
:1006DC00353535353535353535350F0040F2611149
:1006EC00406811F029F8044601210DF0BFF81049BB
:1006FC0020460DF0A3F802B010BD10F05BFF2146B0
:10070C000FF03BFCF7E713F067F800EBD0704110EB
:10071C00412300930B460022606811F027FBEAE7A7
:10072C004068FFF79DFFE6E710F002FAE3E700BF31
:10073C00545428FF2DE9F04182B0054643680B2B39
:10074C0006D0122B37D0052B0DD00EF0F9FA33E072
:10075C001B4816F081F8EB69AA696969286918F0D9
:10076C00DDFD002028E000680DF096FD04466A4689
:10077C0001A928680DF0A2FD124B1D8805FB04F49D
:10078C00A400009B019A9B1A013394FBF3F494FB95
:10079C00F5F305FB1344641B01340426DFF82480B5
:1007AC0001273A462146404615F036FA2C44013EC4
:1007BC00F7D1002000E0002002B0BDE8F08100BFBE
:1007CC00A8A851FF007D030010B504464368052B13
:1007DC005DD0122B6DD14FF07F4016F03DF82068A4
:1007EC0010F056FFB0F5006F05D040F601039842AB
:1007FC002AD000205FE020680CF060FA00B34FF0C4
:10080C00FF3016F029F82C4B1A682C482C4B002A78
:10081C0018BF1846E2696369D21A4388D21A02EBF0
:10082C00D2725210A1692369C91A0388C91A01EB43
:10083C00D17149100132013115F0EEF900203AE086
:10084C00204816F009F8DEE720680CF037FAD0B132
:10085C004FF0FF3016F000F8E2696369D21A1A48BB
:10086C004388D21A02EBD2725210A1692369C91AB9
:10087C000388C91A01EBD17149100132013115F00D
:10088C00CBF9002017E00F4815F0E6FFE4E700680D
:10089C000CF014FA30B1626921690C4815F0BCF9FE
:1008AC00002008E062692169094815F0B5F90020BB
:1008BC0001E00DF065FD10BD6C9842A0B46303001F
:1008CC00B0620300A8A851FF2C6303001864030056
:1008DC008C70030010B588B004464368053B132B9D
:1008EC003FD8DFE803F00A3E3E3E3E3E3E3E3E33FE
:1008FC003E3E3E113E3E414141411D4815F0A1FF97
:10090C0015F0D4FC002030E00369ADF81830836991
:10091C00ADF81C304369ADF81A30C369ADF81E3020
:10092C004FF0FF3015F098FF124815F0C1FF022070
:10093C0016F028F8142201A920680BF05DFF0E2296
:10094C0006A901A817F077FC00200EE00A4815F064
:10095C0083FFE369A2696169206916F019F9002027
:10096C0003E0FFF747FE00E0002008B010BD00BF19
:10097C00A8A851FFB07B0500C0C0C0FF08B5044B50
:10098C001B8913F0080F00D108BD14F06DFDFBE7B7
:10099C00909842A008B5044B1B8913F0080F00D1A6
:1009AC0008BD14F069FDFBE7909842A010B58C4689
:1009BC00037863B30346194613F8012F002AFAD1C2
:1009CC00C0F1010E8E44BCF1090F23D90123194645
:1009DC0003EB83035A0013460131BCFBF2F2092AE4
:1009EC00F6D801EB0E03C2180024C45471B1704444
:1009FC000B4CA4FB0C13DB0803EB8301ACEB4101A8
:100A0C00303102F8011D9C468242F2D110BD4FF0EC
:100A1C00000ED8E70EF10103C2180021C154E6E71D
:100A2C00CDCCCCCC10B50378FBB103469E4613F865
:100A3C00012F002AFAD1C0F1010CF4440B7883B1D8
:100A4C0064460CF1FF3C00EB0C0E0A460EF8013F1D
:100A5C00944612F8013F002BF8D1C1F10101214459
:100A6C008C44002300F80C3010BD4FF0000CE5E76F
:100A7C0010B586B00023019302930393049305935E
:100A8C004FF4B071134B186810F056FE044612491F
:100A9C0001A8FFF7C7FF114B1968013101A8FFF737
:100AAC0085FF0F4901A8FFF7BDFF0E4B196801A880
:100ABC00FFF77CFF0C4901A8FFF7B4FF0B4B5968FB
:100ACC00013901A8FFF772FF01A920460CF0B0FE16
:100ADC0006B010BD8C9842A070580300789842A0C4
:100AEC0008F10300849842A078580300909842A023
:100AFC0038B50A4B1B68012B07D10A25074C284631
:100B0C0012F0F8FD2368012BF9D0054B1868012869
:100B1C0006BF00221A60002038BD00BF6C9842A0AE
:100B2C00689842A010B584B00C4615F0C1FD01A820
:100B3C0015F076F99DF80C3043B9206801280AD1DC
:100B4C0000232360064B01221A6002E0012323607C
:100B5C00002004B010BDFFF7CBFF014B1860F8E785
:100B6C00689842A00023034A1360034A1360034AA7
:100B7C00136070476C9842A0749842A0709842A081
:100B8C0008B5044A136801331360FFF7EBFFFFF756
:100B9C006FFF08BD849842A038B5044603680E3B2D
:100BAC00182B7DD8DFE803F00D467C7C7C7C7C7CAC
:100BBC007C7C7C7C7C7C7C137C7C7C7C7C7C7C7CD2
:100BCC004A0010F0F7FC21460FF0D7F938BD364932
:100BDC0040680BF06AFE0E2160680BF0A1FE4FF42A
:100BEC000471606810F0A8FD05460E210DF0B2FBF3
:100BFC002E4928460DF07AFB4FF40061606810F026
:100C0C009BFD00210DF0A1FF40F60101606810F082
:100C1C0093FD00210DF099FF4FF4B071606810F056
:100C2C008BFD044622490CF003FE224920460CF0B1
:100C3C00E7FDCBE74068FFF713FDC7E7806810F0CE
:100C4C0027FDE368022BC1D1B0F5006F09D040F647
:100C5C0001039842BAD1184B01221A60FFF782FFA8
:100C6C00B4E7164B1B686BB10024144B1C6012F0DC
:100C7C003FFD134B1B68C31A124A136020460EF03B
:100C8C0017FCA3E70D4B01221A6012F031FD0D4B3E
:100C9C001B68C31A0A4A136060680EF009FC95E7DA
:100CAC000FF046FF92E700BF747505007CEA030065
:100CBC007C580300C4870500689842A06C9842A039
:100CCC00709842A0749842A070B582B010F072FC7B
:100CDC000FF0C8FA15F0EAFAFFF75CFE12F07CFD93
:100CEC00044612F081FD054636480CF0B1F9364841
:100CFC000CF020FA35480BF08DF910F05BFC034634
:100D0C003D3D0195A4F150020092314A0521314834
:100D1C000EF008FA304E306010F04CFC0346002503
:100D2C00019504EBD4746410013C00942B4A02210D
:100D3C002B480EF0F7F92B4B186011F059F82A4894
:100D4C000CF086F929480CF0F5F929480BF062F9FA
:100D5C004FF4B071306810F0EFFC11F049F810F05E
:100D6C0029FC0FF072FA15F0A3FC00F083FF214B65
:100D7C001D60214B1B681B68BBB11F4D1D4C1F4ECA
:100D8C00FFF7F0FEFFF774FE22682B6853F8223051
:100D9C009847002333601A4A136023680133236099
:100DAC002A6852F82330002BEAD1124B00221A6029
:100DBC00094B18680FF02CFB0A4B18680FF028FB36
:100DCC0002B070BDE1080000D5070000410700002B
:100DDC00A50B0000E05803008C9842A0B906000057
:100DEC00A8580300889842A0010600008DE300007B
:100DFC004DED0000789842A0909842A0849842A0B3
:100E0C00809842A030B583B00546164815F050FDC9
:100E1C00284617F0A7FC044612F0DEFC124B1A8889
:100E2C00031B03EBD3735B10043B511D8B42DABFE6
:100E3C000A4612B20022ADF800200023ADF80230B1
:100E4C000138ADF80400084B5B880933ADF8063067
:100E5C00022015F097FD0E226946284617F0EBF993
:100E6C0003B030BD1CCD0300907E030008B5024BCF
:100E7C001B68984708BD00BF7C9842A008B5064B7C
:100E8C001B6813B1054B186808BD12F031FC044BFC
:100E9C001B68C01AF8E700BF6C9842A0709842A07B
:100EAC00749842A02DE9F04105464FF40471204B93
:100EBC00186810F041FC0746642D0EDC0021384602
:100ECC000DF042F92A46002138460DF024FA12F0B2
:100EDC000FFC06464FF0050810E04FF40471144B5C
:100EEC00186810F029FC10F06AFFE7E7404612F092
:100EFC0001FCFFF7FDFDA5420DD960B9FFF7BEFF60
:100F0C00841B642DF2DD214638460DF01DF9384660
:100F1C000FF09BF9EAE7642D01DCBDE8F0814FF49A
:100F2C000471034B186810F007FC10F061FFF4E734
:100F3C008C9842A0014B58880A307047907E030071
:100F4C0010B58CB014F0BCFB2B492C480AF088FF70
:100F5C0010F030FB2A4910F05AFE0BF05DFE002118
:100F6C0001A80CF013FB00240694214601A80CF0F8
:100F7C00E5FA012101A80CF009FB0694012101A856
:100F8C000CF0DCFA1F480CF063F81F480BF042F829
:100F9C001E480CF0CFF81E480CF088FF1D480EF0D0
:100FAC00B3F81D480BF0ACFD022015F0EBFC1B4810
:100FBC0000F056FE12F030FC0F280FDD174B1B898A
:100FCC0013F0040F01D1164B09E014F079FB154B0B
:100FDC00154AB0F5001F98BF134600E0104B134A9A
:100FEC001360134B1B68012B02D1FFF76DFEFCE75E
:100FFC00FFF76AFE0CB010BD809842A0310B0000C8
:10100C0029060000010600004DED00008DE30000F4
:10101C0065E80000ADD8000005F20000909842A0F1
:10102C00BD04000011050000D90400007C9842A00A
:10103C00649842A008B5FFF735FFFFF7A1FD08BD86
:10104C002DE9F0411546002847D00C4607460029EB
:10105C0043D012F0C1FB064612F0C6FB804606EBED
:10106C00D6767610FFF796FC2E4B186810F0C0FE63
:10107C002D4B186810F0A3FE15F01AFBFFF7F6FEC7
:10108C004FF0FF3015F0E8FB022015F07BFC2748F1
:10109C0015F00EFC3C223146384616F093FF2448DE
:1010AC0015F006FC17F0D6FE08EBD878C0EB6802FA
:1010BC000A323146204616F085FF237813B32346B7
:1010CC001A4613F8011F0029FAD1C4F1010010448B
:1010DC0000EB80000001FFF7ADFF15F0010F13D0FE
:1010EC00FFF758FC15F0020F11D00E4B186810F0DA
:1010FC0066FE15F0040F0FD00B4B186810F05FFE56
:10110C00BDE8F0810020E3E7FFF738FCEAE7054B88
:10111C00186810F06DFEECE7034B186810F068FED1
:10112C00EEE700BF889842A08C9842A01CCD03002B
:10113C0024BA03002DE9F04F9DB008AC84E80300FD
:10114C0005921E46BDF82030BDF82220033297B21E
:10115C00029715B2BDF82620033A12B2521BD84999
:10116C0081FB0201A1EBE274DA1CADF86820ADF84A
:10117C006A503E33ADF86C30A3B2039303EB4303D8
:10118C003B441BB20493ADF86E30CE4815F090FB87
:10119C004FF0FF3015F060FB01230E221AA93046E8
:1011AC0017F062F800223F211AA815F050FA4FF000
:1011BC007F4015F051FB1AA815F016FD1AA815F072
:1011CC0034FBBDF968A0BDF96C309A440AEBDA7AAD
:1011DC004FEA6A0ABDF96A90BDF96E30994409EB81
:1011EC00D9794FEA69090AAEB74F0FCF0FC60FCFA7
:1011FC000FC60FCF0FC697E80F0086E80F004FEA17
:10120C008A0A4FEA890918F0FDFF042018F0EAFF5A
:10121C00002637464FF08C0845F2E47B0695079480
:10122C00384615F0E7FB0446384615F021FC054618
:10123C00724206F00F0302F00F0258BF53421CAA71
:10124C0002EB830353F8480C15F006FB08FB04F47F
:10125C00002CBCBF04F57F44FF3409EB244108FB90
:10126C0005F00028BCBF00F57F40FF3042460AEB7A
:10127C00204019F059F85F440136102ED0D1069D4C
:10128C00079C18F0B7FF002015F0CFFA4FF0FF3095
:10129C0015F0E2FA059815F00BFBBDF86A30DDF895
:1012AC000CB05B44ADF86E30884E0E221AA9304655
:1012BC0016F0C1FF224600211AA815F0C8F90E221B
:1012CC001AA9304616F0B7FF224600211AA815F0CD
:1012DC00BEF90E221AA9304616F0ADFFADF86A50D1
:1012EC00049BADF86E3000223F211AA815F0AFF91F
:1012FC004FF0FF38CDF804804FF07F470097BDF9D1
:10130C006E30BDF96C20BDF96A10BDF9680012F0A1
:10131C0011FEBDF86A305B44ADF86E30DFF8B0A159
:10132C00504615F099FA0E221AA9304616F083FF92
:10133C00224600211AA815F08AF94FF0FF2015F06B
:10134C008BFA0E221AA9304616F075FF22460021A0
:10135C001AA815F07CF9DFF87C91484615F07CFA58
:10136C000E221AA9304616F066FFADF86A50029AA2
:10137C005A440FFA82FBADF86EB000223F211AA836
:10138C0015F065F9504615F067FA1AA815F02CFC03
:10139C00224600211AA815F05AF94FF0FF2015F03B
:1013AC005BFA1AA815F020FC224600211AA815F0A9
:1013BC004EF9484615F050FA1AA815F015FC40469F
:1013CC0015F04AFAADF86A50ADF86EB00E221AA9B3
:1013DC00304616F030FF224600211AA815F037F9D6
:1013EC000E221AA9304616F026FF224600211AA812
:1013FC0015F02DF90E221AA9304616F01CFFADF887
:10140C006A50ADF86EB000223F211AA815F01FF9F2
:10141C000197CDF800A0BDF96E30BDF96C20BDF977
:10142C006A10BDF9680012F04DFD224600211AA881
:10143C0015F00DF901974FF0FF230093BDF96E30B5
:10144C00BDF96C20BDF96A10BDF9680012F03AFDC7
:10145C00224600211AA815F0FAF80197CDF8009051
:10146C00BDF96E30BDF96C20BDF96A10BDF968008C
:10147C0012F028FDADF86A50ADF86EB0404615F08C
:10148C00EBF90E221AA9304616F0D5FE22460021A1
:10149C001AA815F0DCF80E221AA9304616F0CBFE6D
:1014AC00224600211AA815F0D2F80E221AA93046AD
:1014BC0016F0C1FE002015F0B8F91DB0BDE8F08F94
:1014CC0056555555B07B0500585A03006C5903000E
:1014DC000000FFFFFF0000FF2DE9F04182B012F089
:1014EC007BF9054612F080F9B5F5A07F02DB0446C6
:1014FC00EF2807DC052227492748FFF7A1FD02B09A
:10150C00BDE8F081244F052224493846FFF798FDA9
:10151C00FFF7ACFC012012F079F806463846FFF7CD
:10152C0071FCFFF707FDA5F5A07303EBD3735B10FC
:10153C00ADF8003082B2A4F1F00707EBD777C7F310
:10154C004F07D119ADF80210ED1AADF80450231A5B
:10155C0003EBD37302EB6305ADB26B1EADF8063033
:10156C000F4B104AE84698E80300FFF7E3FDADF88F
:10157C000250E41BADF806400B4B0C4A98E80300F4
:10158C00FFF7D8FD4FF47A60FFF754FD304612F0A8
:10159C003DF8B4E770590300D8590300EC59030027
:1015AC00205A030004B803003C5A0300ACB60300F5
:1015BC002DE9F84F8846174608F056FC8246184825
:1015CC0015F076F9022015F0DDF914F0E5FF00EBCB
:1015DC00D070461007F159040B3F0225A8F1070BF8
:1015EC00DFF84090C6F1070622465946484614F0EB
:1015FC0013FB3119404615F0AFF8022015F0B2F983
:10160C004FF07F4015F028F9284611F0B0FC143C3F
:10161C000235BC42E8D1504608F026FCBDE8F88FF4
:10162C00185F0300F45B03002DE9F04FABB005220B
:10163C0098499948FFF704FDFFF718FC9748FFF706
:10164C00E1FB974D0CAE2C460FCC0FC60FCC0FC642
:10165C0094E8030086E8030016AE0FCD0FC60FCD3D
:10166C000FC694E8030086E8030012F0B5F80446B0
:10167C0012F0BAF8A4F1AC0303EBD3734FEA63088E
:10168C007A3800EBD070431019461C467B23B422E9
:10169C00404608F0E1FB029010B92BB0BDE8F08F8A
:1016AC0009F0AEFF20A9002202F001035B00013B10
:1016BC0041F8043B01320A2AF6D122464146002069
:1016CC00FFF776FFFFF7DAFB099040230393012322
:1016DC00089304F17A09734E2746A1E05BF8243095
:1016EC00A9EB030204EBD4704010C0F1040000938A
:1016FC005346063A294656F8200015F07FFA013475
:10170C0010350A2C13D0052CE8DC5BF82430A9EB3F
:10171C00030204EBD470401000935346063A29465A
:10172C0056F8200015F06AFA01341035EBE7ADF8E5
:10173C00288008F10303ADF82C30ADF82A70ADF811
:10174C002E900AA815F071F8574815F085F8572017
:10175C0012F034FF042400944B46DDF81CA05246D2
:10176C003946404616F0F2FA002015F05EF807F103
:10177C007903039D08EB0502791C08EB040015F0B6
:10178C0007FAFF2012F01AFF484815F065F800948C
:10179C004B4652463946404615F02EFF3A464146D6
:1017AC00029C2046FFF704FF204608F0DBFB06985E
:1017BC0008F05AFB2B46089A13440393093B9A2BC7
:1017CC0084BF5342089316A90CAD0DF1800C6446EE
:1017DC0004E0524244F8042C61450FD00B6854F8D5
:1017EC00042B134441F8043B55F8040B00F10A0E8A
:1017FC007345EEDC0A388342EEDAEAE7FFF73EFB8C
:10180C00049BC01A1E283DDCC0F11F0011F072FFB2
:10181C00FFF76EF943F69723059A9A4235DCA0BB85
:10182C00FFF72CFB0490099A831A0593029808F091
:10183C001BFB06901E4815F00FF808F1AC031A4676
:10184C000793042300934B463946404616F07EFA24
:10185C00184815F001F8BC1D07F17E0B08F1AA0A17
:10186C0008F1020552462946204615F007F90A34BC
:10187C005C45F7D108F1080500240DF1580B4FF029
:10188C00010A40E714F014FFC2E7029808F07CFA52
:10189C0003E700BF985A0300C45A0300D05A030050
:1018AC00F8600300E05A0300D99100FF0094F3FFA5
:1018BC004A2210FF774830FF2DE9F04FCDB0C84ACF
:1018CC0049AB07CA03C31A807722C6492BA830F04C
:1018DC003AFF002117914C2218A830F05DFF11F04F
:1018EC007BFF079011F080FF0546B0F58C7FC0F2AE
:1018FC00A081B0F1780748BF0F373F1105222BA903
:10190C0049A8FFF79DFBFFF7B1FA4FF0FF3014F039
:10191C00A3FFB54814F0CCFF079B03EBD3710C224B
:10192C004910B24816F04EFBB14814F0C1FF4FEA13
:10193C00470A17F08FFAAAEB000000EBD074641082
:10194C003C3422460121AB4816F028FB5444224675
:10195C000121A94816F022FBBE00039654442246EE
:10196C000121A64816F01AFB0AEB07035B0005934E
:10197C00544422460121A24816F010FBFB000493AC
:10198C005444224601219F4816F008FBF3195B00D2
:10199C0006935444224601219B4816F0FFFA0AEBA9
:1019AC0007039B0015930AEB04020121974816F0DC
:1019BC00F5FA974814F07CFF11F02EFF014617A89A
:1019CC00FEF7F4FF934917A8FFF72CF8092013F042
:1019DC0067FD0446002840F02E81A5F119020C2168
:1019EC0017A816F0DBFAFFF749FA814607EB470315
:1019FC0003F13C02089203F13B02099207EB8702C8
:101A0C0002F13C010A9102F13B010B91C7EBC701BA
:101A1C0001F13C000C9001F13B000D9007EBC7006D
:101A2C0000F13C040E943B300F9007EB420202F1A4
:101A3C003C0010903B32119207EB830303F13C0204
:101A4C0012923B331393490001F13B031493DFF8DB
:101A5C00C881BB4641F26F76FFF710FAA0EB090084
:101A6C00B04200F3F580FFF743F8002840F0F08017
:101A7C00FFF704FAA0EB090088FB0023C417C4EBA2
:101A8C00E3144FF4FA6303FB140488FB0423E517F7
:101A9C00C5EBA315614B03FB054414F009FEB4F52B
:101AAC00FA7FD9DCC4EB042488FB0423E417C4EBD1
:101ABC006314C5EB05256C4004EB042304EB0324F1
:101ACC00C4F1FF1606F57F46079BA3F13C05019474
:101ADC00534F00970BF13B032A463C21084612F06A
:101AEC0029FA019600970AF13B032A460BF13C01B7
:101AFC003C2012F01FFA01944FF0FF270097099B2E
:101B0C002A460AF13C013C2012F014FA0196009787
:101B1C00039B3B332A4608993C2012F00BFA0194A4
:101B2C00404F00970B9B2A4603993C313C2012F006
:101B3C0001FA01960097059B3B332A460A993C20F3
:101B4C0012F0F8F90194384F00970D9B2A4605992D
:101B5C003C313C2012F0EEF901960097049B3B338C
:101B6C002A460C993C2012F0E5F901946FF0FF071E
:101B7C0000970F9B2A4604993C313C2012F0DAF96D
:101B8C0001960097069B3B332A460E993C2012F097
:101B9C00D1F901946FF47F070097119B2A4606999F
:101BAC003C313C2012F0C6F901960097159F07F1C5
:101BBC003B032A4610993C2012F0BCF901946FF4B7
:101BCC007F440094139B2A4607F13C013C2012F001
:101BDC00B1F901960094149B2A4612993C2025E0F9
:101BEC0074610300806103001CCD030020610300BD
:101BFC0024BA03002C610300306103003861030038
:101C0C004061030048610300506103005861030008
:101C1C00C487050060610300D34D621018FCFFFF00
:101C2C000000FFFFFF0000FF808080FF12F082F9B0
:101C3C0010E70A2762E6084917A8FEF7F3FE2146CB
:101C4C0017A8FEF7B3FE054917A8FEF7EBFEC4E68E
:101C5C004DB0BDE8F08F00BF686103006C610300FC
:101C6C00034B0360042343600D230381704700BFC3
:101C7C00000000102DE9F04389B06C46404D0FCDAB
:101C8C000FC42B6824F8023B1B0C23700023CDF8E7
:101C9C001330CDF81730CDF81A3011F09DFD0646F3
:101CAC0011F0A2FD0446FFF7E1F8022014F06AFEE1
:101CBC004FF0FF3014F0D0FDDFF8C880404614F030
:101CCC00F7FD7508A700C4F3191229462E4816F023
:101CDC0079F9DFF8B890484614F0EAFD3A1904EBAC
:101CEC004202920929462A4816F06CF9294814F048
:101CFC00B3FD162704FB07F7BF093A4629462648C9
:101D0C0016F060F9254814F0D3FD07F112022946AC
:101D1C00234816F057F94FF0FF3014F09DFD48465C
:101D2C0014F0C6FD14F058FC0146684630F01AFC5D
:101D3C00C4EB441292092946684616F043F9262250
:101D4C0004FB02F217480388F11A9209490813F0B0
:101D5C0063FF4FF0FF3014F07FFD404614F0A8FDF8
:101D6C00C4EBC404C4F3D90229460F4816F02AF96F
:101D7C0041F28830FFF796F809B0BDE8F08300BF58
:101D8C00906203001CCD0300F861030024BA030029
:101D9C00006203002288FFFF38620300D080050038
:101DAC0060620300448C03008062030030B589B08C
:101DBC000023019302930393114C124D2378012BB2
:101DCC0019D0642204A928682CF064F90346002871
:101DDC00F4D1079A012A09D04FF0FF3201920292F6
:101DEC008DF80C3001A814F04FF8E7E7059B019330
:101DFC00069A0123F3E70020014B187009B030BD9F
:101E0C00A59842A0A89842A030B585B0334B1A686B
:101E1C00117811701A68324B1A60324B324A1A60C0
:101E2C00324B1B684BB1324B1B78C3B103A9314801
:101E3C002DF0CFFBE0B105B030BD1CF041FF4FF4ED
:101E4C007F32002130F0A8FC274A0021234B186870
:101E5C0030F0A2FC254B4FF0FF321A60E3E7042070
:101E6C000FF0F2FE14F054FA214BFF221A70DDE74A
:101E7C00214A102101202CF037F818B103982DF0CD
:101E8C00B8FBD8E71C4A1D491D482DF059FF20B15D
:101E9C00194B18682CF04BF8F0E71A4B01930523FB
:101EAC00009300234FF48062174918482CF0AAF9CC
:101EBC0030B1114B1968114B18682DF0A2FFE7E7F0
:101ECC00FFF73EF8124B01221A7015461C462846A5
:101EDC002BF0C0FE2378012BF9D0EAE7100000109C
:101EEC007CB042A078B042A000F823009C9842A09D
:101EFC00A49842A0DCEB0300A89842A0AC9842A0A6
:101F0C00E0EB0300A09842A0ECEB0300B91D00002D
:101F1C00A59842A0024B4FF0FF321A60704700BFE9
:101F2C00389942A02DE9F04F91B0044625F0D8FE27
:101F3C000FAA002120462DF068FB4E4E4FF4F843BB
:101F4C0007930025069547F6E0770597022304933F
:101F5C0040F20F13039340F2DF13029301950095A7
:101F6C000F9B4FF488724FF4F071304624F09EFFB3
:101F7C00414C2146304625F067FA304625F066FA8A
:101F8C0080461F223D49304625F071FAADF8345099
:101F9C00ADF83650F369ADF83830336AADF83A30F5
:101FAC003946304624F0BDFF2146304625F04CFA28
:101FBC000BAFC82239460DA826F09DF8BDF82CB001
:101FCC00BDF82E90BDF83240DFF8B4A0C8225146BF
:101FDC00384626F0A6F8ADF82CB0ADF82E90ADF83A
:101FEC003240544634F86039063BADF830300DF1D0
:101FFC0024092B4640224946384626F062F899E8D7
:10200C00030087E8030008F122022B4692B24946EE
:10201C00384626F022F8BDF824302AF8603CBDF88A
:10202C002830A380BDF8263063802033E380154B25
:10203C00A360154BE360154B2361A561E561A562B7
:10204C002146304625F0FDFB2946304624F06BFF37
:10205C00B4F866300093B4F86430B4F86220B4F885
:10206C006010304624F0C8FE25F04EFEA56611B077
:10207C00BDE8F08F489942A0C8600600F8EB030059
:10208C00189942A01CEC0300211F0000BC0705009E
:10209C0010B582B0104C0021204624F044FF0021E2
:1020AC00204624F03EFF0021204624F03FFF0B4B3E
:1020BC00196809120A4B1A681212131D00930B1D92
:1020CC00053A0539204624F097FE0021204624F0DD
:1020DC002DFF02B010BD00BF489942A0449942A008
:1020EC00409942A02DE9F04F8DB000224E4B1A6062
:1020FC004E4B5A679A67DA67DA661A67B3F860204C
:10210C00B3F864100A44521049490A60B3F86220CB
:10211C00B3F8663013445B10464A1360464A1021EC
:10212C0001202BF0E1FE10B10DB0BDE8F08F424C58
:10213C00424A434920682BF016FF22460AA941481F
:10214C002DF0FEFD20B13C4B18682BF0F0FEEBE7B8
:10215C000BA93D482DF03DFA28B1374B19680A9868
:10216C002DF04FFEEFE709AA00210B982DF04DFA48
:10217C0008A936482CF0D6FA18B10B982DF039FA7C
:10218C00EBE7334908982CF0B9FA0028F5D10B98F5
:10219C00FFF7C8FE2BF0E2FF0446234B1B68002B15
:1021AC00EBD1DFF89490DFF884802A4F84E01F4B4A
:1021BC000022DA661A6710264FF00A0BDFF890A09F
:1021CC001D4658462BF046FDDAF8000003685B69A3
:1021DC00642205A99847EB6E059A1A44EA662B6FA0
:1021EC0006990B442B67013EEBD11146002AB8BF70
:1021FC0002F10F0109110D4AD1661A46002BB8BF26
:10220C0003F10F021211094B1A674FF0FF325A6794
:10221C002BF0A4FF104B186075E04FF496329DE044
:10222C004FF49633A4E000BF389942A0B89842A06E
:10223C00449942A0409942A0B49842A038EC0300C3
:10224C0024EC0300E0EB0300DCEB030030EC0300B8
:10225C003C9942A0489942A0B09842A0B04200F0EC
:10226C00E780774B9B6E002B40F0E680754B1E6031
:10227C00754B1D603312053B03932B12053B0493E6
:10228C00724D04AA03A9284624F05EFE284625F0C8
:10229C007FFFBDF81020BDF80C106D4825F0AAFD8D
:1022AC00674B4FF0FF329A6614202BF0D3FC694B2E
:1022BC001B68002B7FF461AF0023D9F80020414646
:1022CC00384625F063FC054626462BF047FF0446AE
:1022DC00002DE9D1B042E7D05F4B186803685B6909
:1022EC00642205A9984705462BF038FF5B4B1A680A
:1022FC001860002DD8D1524B5B6F0193002B3FF42B
:10230C0056AF831A01934E4BD96E059A521A059209
:10231C00196F069B5B1A0693019901FB02F2002AC6
:10232C00BCBF02F57F42FF3212144549896F01EBA5
:10233C004222019901FB03F3002BBCBF03F57F4341
:10234C00FF331B143E49C96F01EB4323B2F5963F93
:10235C00BFF663AF42498A42B8BF0A4638498A671A
:10236C00B3F5963FBFF65CAF3D498B42B8BF0B4609
:10237C00DFF8CCC0CCF87C3032490868DDF804A01A
:10238C000AFB02F1DFF8DCE08EFB0165CE17C6EB31
:10239C00A51606442C4909680AFB03F58EFB05AE0D
:1023AC00ED17C5EBAE150D44BCF864C0ACF1060CD2
:1023BC004FEA0C2EB6EB0C2F06DD02EBD27252104C
:1023CC0052421F4EB26776461D4AB2F86020063262
:1023DC004FEA022CB6EB022F07DA194EB26F02EB62
:1023EC00D27252105242B2676646154AB2F8662053
:1023FC00063A4FEA022CB5EB022F06DD03EBD37342
:10240C005B105B420E4AD36765460D4BB3F86230E6
:10241C0006334FEA032CB5EB032FBFF61FAF084A68
:10242C00D36F03EBD3735B105B42D367654615E741
:10243C00A9427FF416AF37E7FFF72AFE16E700BF75
:10244C00B89842A0449942A0409942A0489942A011
:10245C007CC70400389942A03C9942A0B09842A095
:10246C0000D4FEFFD34D621083694FF0FF329A66A1
:10247C00704700002DE9F04FA9B0044600F16C0B39
:10248C0027AA002140682DF0C0F825F029FC052072
:10249C002BF0E0FB04F108084FF4F84307930023FA
:1024AC00069347F6E07205920222049240F20F1254
:1024BC00039240F2DF12029201930093279B4FF498
:1024CC0088724FF4F071404624F0F0FC6B494046A2
:1024DC0024F0BAFF6A4B1B68002B40D023681A68A3
:1024EC0040F2E77302930F23019309230093654B8A
:1024FC001B68654908A830F00DF81F2208A9404652
:10250C0024F0B5FF0021404624F00DFD404624F098
:10251C009DFF05460023ADF89430ADF89630636A04
:10252C00ADF89830A36AADF89A30082125A825F0AB
:10253C0073FD23685E689B68C3B95C46BDF89A203E
:10254C00BDF89630D21AA93A521B0023C2F34F029F
:10255C001FA925A825F067FD4FF0020A35E0236876
:10256C001F221968404624F082FFCBE705F12202B6
:10257C00022392B223A925A825F06FFD402221A9A0
:10258C0023A825F0CEFDBDF88420A4F86C20BDF85E
:10259C008630A4F86E303F32A4F870201F33A4F8B4
:1025AC0072303A4B63673A4BA3673A4BE367C4F814
:1025BC0084400023C4F88830A4F880308C34BDE704
:1025CC00A5F11006BAF1010A48D03368002B45D0AA
:1025DC002823402223A925A825F025FDBDF8982005
:1025EC00BDF89430D21AA2F259120023C2F34F0252
:1025FC001FA923A825F04BFD06F1100504F1800757
:10260C004FF01E092E4655F8103C002BD8D04B46E7
:10261C00402221A923A825F03AFDBDF8843023805F
:10262C00BDF886306380BDF88830A380BDF88A3051
:10263C00E38055F8103CA36055F80C3CE36055F86A
:10264C00083C236155F8043CA3610023E361A38299
:10265C0020341035BC42D5D13C46B3E70023A360EF
:10266C005946404625F0EDF82DF04AF910B129B045
:10267C00BDE8F08F25F04EFBF9E700BFC8600600FF
:10268C0084A442A088A442A03CEC03001CEC0300F0
:10269C0075240000BC0705002DE9F04182B0054609
:1026AC004FF4D6702DF032F904466A461021012001
:1026BC002BF01AFC08B1002300935CB14FF4D672D6
:1026CC000021204630F068F82560009B2BB920468D
:1026DC002DF020F902B0BDE8F0816A4601A923482B
:1026EC002DF02EFB18B100982BF021FCEFE7211DEB
:1026FC001F482CF06EFF20B1009901982DF081FB42
:10270C00F1E72046FFF7B6FE04F16C08194F04F10F
:10271C00080605E02046FFF7ADFE09E03B68BBB9B3
:10272C00A36EF3B9EB681BB1984710F0010FF1D110
:10273C004FF0FF33009A4146304625F027FA002827
:10274C00ECD0A36E002BE9D12046FFF793FEE5E712
:10275C0006F08AFA2046FFF78DFE064B00221A601F
:10276C00D5E760682CF045FFC6E700BFE0EB03003F
:10277C00DCEB0300A89942A008B58069FFF78CFF39
:10278C0008BD000070B504460D460E4B1B6883B1A6
:10279C0000202BF0D3FE0C4B1E681CF0A7FA2A4627
:1027AC00B0FBF4F130462DF0E6F900202BF0A8FE3A
:1027BC0070BD054905482DF0CEF9024B4FF0FF32A4
:1027CC001A60E5E7AC9942A0B09942A068EC03000E
:1027DC0008B51421FA20FFF7D5FF08BD08B54FF452
:1027EC00FA716420FFF7CEFF08BD83694FF0FF320A
:1027FC00C3F8E4207047000010B582B004460F4BBC
:10280C001B68B3B9002124F08EFB47F6E07120461B
:10281C0024F087FB0A48838842880188C0880138E5
:10282C000090013B01320131204624F0E5FA02B060
:10283C0010BD47F6E07124F076FBE6E7BC9942A0A8
:10284C00C09942A010B58EB0044603A91C482CF0C8
:10285C00C0FE1C4B1B68B3F1FF3F2AD0194B4FF045
:10286C00FF321A6041F28833059342F210730693DB
:10287C0047F2305307934FF47A730493124B0A9335
:10288C00124B0B93124B0C93124B0D934FF488730A
:10289C0000934FF4F07340226F210F4825F0AEFCEB
:1028AC0004A903982CF0CAFFA069FFF7A5FF0EB08E
:1028BC0010BD044B00221A602CF0FCFFF4E700BFA3
:1028CC00DCEB0300BC9942A039820200F1820200C9
:1028DC001184020085840200F40404002DE9F04FF9
:1028EC0099B04FF48A702DF011F81A4B1860A8B1FA
:1028FC0004464FF48A7200212FF04EFF4FF0FF3345
:10290C00C4F80431144A102101202BF0EDFA40B127
:10291C00104C20682CF0FEFF0023236019B0BDE89A
:10292C00F08F0D4A17A90D482DF00AFA20B10A4B69
:10293C0018682BF0FCFAEBE7064B19686031084875
:10294C002CF047FE70B1044B196817982DF059FA0A
:10295C00EDE700BFB89942A0B49942A0E0EB0300A8
:10296C00DCEB0300C94C236803F5887203F5867110
:10297C00186E2CF08BFE246804F16403099325F087
:10298C00AFF90AAA0021206E2CF03FFE4FF4F84359
:10299C0007930025069547F6E07BCDF814B002238B
:1029AC00049340F20F13039340F2DF13029301954B
:1029BC0000950A9B4FF488724FF4F071204624F076
:1029CC0075FAB349204624F03FFD204624F03EFD25
:1029DC00C4F800011F22AF49204624F048FD594697
:1029EC00204624F09EFA2946204624F09CFAADF8A5
:1029FC002C50ADF82E50E369ADF83030236AADF8A9
:102A0C0032300DF12C090821484625F005FBD4F88D
:102A1C00003103F126020DAE052392B23146484631
:102A2C0025F01BFB0FAF96E8030087E80300052396
:102A3C0040223146384625F02AFB0121304625F04C
:102A4C00EBFABDF83430A4F864303F33A4F86830A6
:102A5C00BDF83630A4F866301F33A4F86A308E4BBC
:102A6C00E3668E4B23678E4B6367E467C4F8805034
:102A7C0097E8030086E8030064223946304625F0C7
:102A8C0050FBBDF84230BDF83E209B1A03EBD373CC
:102A9C005A100632834E052392B23146384625F041
:102AAC00DCFAB6F80080204624F0D0FC08F11008BF
:102ABC008044A6F80480B6F80280204624F0C6FCB8
:102ACC0008F1100880441FFA88F3F3803288A4F8C8
:102ADC008420B288A4F888207288A4F88620A4F8F0
:102AEC008A30714BC4F88C30704BC4F89030C4F8F9
:102AFC009450C4F89C40C4F8A050BDF83080BDF888
:102B0C002C30A8EB0308A8F21318694BA3FB083868
:102B1C00C8F34F0843462A463946484625F0B7FACB
:102B2C0004F1F00A434654225146484625F0AFFAC8
:102B3C0004F1F80804224146504625F0F2FA14211B
:102B4C00404625F04DFA2B46C0223946484625F022
:102B5C009EFAC02204F1E801384625F0CCFA4C4923
:102B6C00204624F071FC0121204624F0CCFC29469F
:102B7C00204624F0DBF95946204624F0D2F99AE895
:102B8C00030089E80300BDF832300093BDF8303003
:102B9C00BDF82E20BDF82C10204624F02DF998E815
:102BAC00030089E80300BDF832300093BDF83030E3
:102BBC00BDF82E20BDF82C10204624F01DF920461F
:102BCC00FFF71AFE3588204624F040FC7388421922
:102BDC00083316323749204624F003FC01267702CD
:102BEC0007F4F84700253946204624F09AF9B4F842
:102BFC00EA20B4F8E81032442944204623F0EFFFD1
:102C0C000135C02DEFD10136412EE8D10126370117
:102C1C0007F4787700253946204624F082F9B4F879
:102C2C00EA203244B4F8E81040322944204623F01C
:102C3C00D6FF0135C02DEED10136412EE7D101264C
:102C4C00C6F3440700253946204624F06AF9B4F847
:102C5C00EA203244B4F8E81080322944204623F0AC
:102C6C00BEFF0135C02DEED10136412EE8D147F61D
:102C7C00E071204624F055F90999204624F0E1FD35
:102C8C0025F042F8014E0C4F2FE000BFB89942A03E
:102C9C00C860060070EC03001CEC0300F727000072
:102CAC00BC070500C09942A0D4FB030051280000CA
:102CBC00ABAAAAAA8CEC0300B49942A00021C2F8DA
:102CCC000C11106E2CF0D5FC604B1B684FF0FF32D2
:102CDC00C3F80421306811AA00F1640124F0EAFD64
:102CEC003468D4F80431002B3CD13368D3F8E42099
:102CFC00002A40F0A6804FF4FA7211A938682BF024
:102D0C00C9F90028ECD1129B1693139B159315AAA5
:102D1C0016A9306824F00EF9149B012BDAD1326815
:102D2C00159BB2F8F2109942D4DCB2F8F6108B4233
:102D3C00D0DC1699B2F8F0008842CBDCB2F8F40083
:102D4C008142C7DCB2F8FE008342B7DCC11AD2F86C
:102D5C00103103FB01F1431CB2F8FA001B1AB1FB52
:102D6C00F3F1ACE70121204624F0CDFBB4F8F88058
:102D7C00B4F8FAB0B4F8FC90B4F8FEA004F588727C
:102D8C0004F58671206E2CF081FCAAEB0B02D4F8B2
:102D9C000C3102FB0333D4F81021B3FBF2F5AAEB90
:102DAC000505D4F808319D422CD08BBB012120465F
:102DBC0024F0BCF847F6E071204624F0B2F8CDF8C8
:102DCC0000A04B465A464146204624F015F8C4F85C
:102DDC0008510021204624F0A9F847F6E07120465E
:102DEC0024F09FF80021204624F09DF8D4F8082107
:102DFC00531D009309F10F03053AA8F10F0120466A
:102E0C0023F0FAFF114B1B680022C3F804216CE776
:102E1C000021204624F08AF80021204624F081F875
:102E2C000021204624F07FF8D4F80821531D00938C
:102E3C0009F10F03053AA8F10F01204623F0DCFF3E
:102E4C00B4E7186E2CF0D5FB7DE500BFB89942A015
:102E5C00F0B583B006460C4615464FF4F843019383
:102E6C00131D00930B1D043A043924F0A9FF00270D
:102E7C000197EB1C0093E31CEA1EE11E304624F084
:102E8C009FFF47F6FF730193AB1C0093A31CAA1E74
:102E9C00A11E304624F094FF01976B1C0093631C19
:102EAC006A1E611E304624F08BFF03B0F0BD00009B
:102EBC0010B5A2B021A93F482CF08BFB08B122B071
:102ECC0010BD21982CF0BDFB4FF4807121982CF093
:102EDC00D0FB24F005FF20AA002121982CF095FBB3
:102EEC004FF4F84307930023069347F6E0720592DC
:102EFC000222049240F20F12039240F2DF1202926D
:102F0C0001930093209B4FF488724FF4F07108A842
:102F1C0023F0CCFF284908A824F096FA1F22274951
:102F2C0008A824F0A4FA08A824F090FA84B2244B40
:102F3C001B78012B23D023464FF4F072214908A8AB
:102F4C0024F05AFA63004FF4F0721F4908A824F0D9
:102F5C0053FAC4F144039B004FF4F0721B4908A8C8
:102F6C0024F04AFAA4EB840404F588734FF4F0724D
:102F7C00174908A824F040FA24F0C6FE9FE7234620
:102F8C004FF4F072134908A824F036FAC4F1440344
:102F9C009B004FF4F0720D4908A824F02DFAA4EB15
:102FAC00840404F588734FF4F072094908A824F0DE
:102FBC0023FAE1E7DCEB0300C8600600A0EC030099
:102FCC00CC9942A020ED030044ED0300E0EC03009B
:102FDC0004ED0300B8EC03002DE9F04F97B003901B
:102FEC00144600234FF0FF36DFF868B29A4A1032CD
:102FFC00099208968A46994A137050462CF05EFE48
:10300C001CB9974B1B68032B10D0FFF751FF924F45
:10301C00DFF84C82002304931D46A4E001234FF0FB
:10302C00FF34E8E701234FF0FF34E4E78D4D8A4A83
:10303C00294650462CF05AFE099A05F110015046CB
:10304C002CF054FE844B03F1200205F12001504674
:10305C002CF04CFE50462CF03DFE0646DBF80030C2
:10306C000894DBF800304BB9002ED7D1089B002B0D
:10307C00D8D17B4B00229A6402F016FF17B0BDE842
:10308C00F08F1395149509F1010932202AF0E2FD15
:10309C00B9F1030F1CD812A950462CF0BBFD002827
:1030AC00F3D1DBF80030B3F1FF3FEAD0129B13F001
:1030BC00010F09D0029B002BE7D0139B1E44149BDD
:1030CC001C4409F10109E0E74FF0FF330293DCE700
:1030DC00B6FBF9F61396B4FBF9F4149412AC079AF8
:1030EC00214650462CF002FE08F1040694E80F002D
:1030FC0086E80F00049E741C594B1C60FFF768FB9C
:10310C00BDF81410BDF818200195131D00930B1D6C
:10311C00043A0439039824F053FE26B1DBF800304E
:10312C00DBB932260FE0FFF7C3FEDBF80030002BD3
:10313C00F7D0103708F1100814E030462AF08AFD59
:10314C00DBF800304BB912A950462CF063FD002877
:10315C00F3D1129B13F0010FEFD1032C6FD010376A
:10316C0008F11008049407977B680593BA680692D7
:10317C0092B299B20398FFF76BFE0295A9462C46C2
:10318C002E4688E7DFF8E0900DF1280832250296EC
:10319C00049417E028462AF05DFD12A950462CF045
:1031AC0039FD0028F6D1129B13F0010FF2D14FF428
:1031BC0096702AF04FFD09F1100908F1100812ABB6
:1031CC00984522D0D9F80460D9F80870BAB2B1B2D7
:1031DC000398FFF73DFE4446214650462CF01AFD5D
:1031EC000028F9D1236813F0010FF5D0FFF7F0FA9E
:1031FC00B1B2BAB200230193131D00930B1D043A14
:10320C000439039824F0DCFDC7E7029E049C0B9B59
:10321C00A3F5CB73302B3FF624AF0C9BC63B302B66
:10322C003FF61FAF0F9BD83B302B3FF61AAF109BCE
:10323C00703B089A302B98BF2246089211E75046F3
:10324C002CF048FD0646DBF80040002C9AD00023F9
:10325C00089306E7A89942A088ED0300CC9942A0F8
:10326C009CA342A0A0A342A068ED030010B584B0BB
:10327C000446184A102101202AF036FE10B1002015
:10328C0004B010BD134A03A913482CF059FD20B10A
:10329C00104B18682AF04BFEF1E702A90F482CF0EE
:1032AC0098F928B10B4B196803982CF0AAFDEFE79D
:1032BC0001AA002102982CF0A8F9094B9B6C002B59
:1032CC000CBF22464FF0FF3203990198FFF784FEA2
:1032DC00E8E700BFC89942A0E0EB0300DCEB030079
:1032EC009CA342A030B587B0002205A911482CF050
:1032FC0027FDE0B90524322501A905982CF08AFC9C
:10330C00019B13F0010F10D028462AF0A3FC013CBE
:10331C00F2D14FF0FF34002105982CF072FD0A20F9
:10332C002AF098FC204607B030BD0024F3E74FF09C
:10333C00FF34F7E7E0EB030008B54FF0FF30FFF781
:10334C0095FF08BD704700002A4B186800B97047FC
:10335C002DE9F04F83B04FF0FF312AF0FAFC264CE8
:10336C002649204624F070F80021204624F0CBF8A2
:10337C000021204623F0DCFD4FF47871204623F029
:10338C00D0FDDFF87CB01F4B01934FF01B0AA04619
:10339C0040F2D1171EE00834BC4211D015F8012FB1
:1033AC0016F8013F9A42F6D04A462146404623F091
:1033BC001AFF2978404623F079FF2B783370EAE71F
:1033CC000AF1080A0BF12D0B019B2D330193BAF175
:1033DC00E30F04D0D146019E5D466924DEE701214E
:1033EC00054824F090F8034B18682AF0D5FC03B07C
:1033FC00BDE8F08FD49942A0ACA242A0206A06008E
:10340C00439E42A0DB9942A070B5144901F5876632
:10341C000B462D310A4601F120051468D2F804E060
:10342C00D2F808C0D0681C60C3F804E0C3F808C028
:10343C00D86010321033AA42EFD1156854689068E6
:10344C001D605C609860127B1A73B142E0D12D2232
:10345C00202103482FF0A0F970BD00BF449E42A06C
:10346C007CA242A038B50446354B186800B938BD6B
:10347C004FF0FF312AF06DFC324B1B882C2B02D9FC
:10348C00304B00221A80304B1B88182B02D92E4B44
:10349C0000221A800C2C20D00A2C2ED00D2C38D0C7
:1034AC00082C3AD0284B1D882648038805EB45028A
:1034BC00C2EB021225490A44D45401339BB2038057
:1034CC002C2B15D96B1C9BB21F4A1380182B0FD9B0
:1034DC00FFF79AFF1C4B1D800AE040F26542202149
:1034EC001A482FF059F90023164A1380164A1380F4
:1034FC00134B18682AF050FCB9E7134A1488631C64
:10350C009BB21380182BF3D9FFF77EFF0E4B1C8058
:10351C00EEE70C4B00221A80EAE70A4B1B88002BC3
:10352C00E6D0013B9BB2074A1380074A128802EB94
:10353C004202C2EB021205490A442021D154D7E7BA
:10354C00D49942A0DA9942A0D89942A0449E42A0B4
:10355C0010B50446007828B1FFF784FF14F8010F6A
:10356C000028F9D110BD00002DE9F0478CB00446BD
:10357C0024F0B6FB0BAA002120462CF046F8414C57
:10358C004FF4F84307930023069347F6E07505952F
:10359C000222049240F20F12039240F2DF120292C6
:1035AC00019300930B9B4FF488724FF4F0712046FB
:1035BC0023F07CFC3449204623F046FF1F2233497C
:1035CC00204623F054FF2946204623F0AAFC304E17
:1035DC00DFF8C080A146B2463369002B48D033884F
:1035EC000A937388099309AA0AA9264823F0ACFC0C
:1035FC00BDF82420BDF82810306924F0FBFB98F8A6
:10360C000010002451B1454600241E4F384623F0CB
:10361C0021FF044415F8011F0029F7D1BAF8063030
:10362C00BAF80020BAF804100A4464080233C4EB58
:10363C0062024146484623F0D4FE2036D6F8088074
:10364C00B8F1000FC7D10F4C0021204623F06BFCC2
:10365C00E323009340F2D11319226721204623F073
:10366C00CBFBFFF771FE24F04FFB0CB0BDE8F087ED
:10367C00F3880093B38872883188024823F0BCFB2E
:10368C00BDE700BFACA242A0C8600600D8ED0300A5
:10369C0018EE03001CEC030010B582B040F2654438
:1036AC002246002121482FF077F82246202120487D
:1036BC002FF072F800231F4A13801F4A13801F4AF1
:1036CC00102101202AF010FC08B102B010BD1B4AD9
:1036DC0069461B482CF034FB20B1184B18682AF0B3
:1036EC0026FCF2E701A917482BF073FF98B9164B8B
:1036FC001B68B3B10198FFF737FF1448FFF728FF99
:10370C00FFF722FEFFF76AF84FF4FA602AF0A2FAEC
:10371C0001982BF06EFF094B196800982CF071FB87
:10372C00DBE709482AF0A4FAE4E700BFDC9942A0E1
:10373C00449E42A0D89942A0DA9942A0D09942A0C6
:10374C00E0EB0300DCEB0300D49942A000EE030095
:10375C00014B01221A60704714A342A010B582B02D
:10376C000A4C0B4B1988204623F0DDFB47F6E07121
:10377C00204623F0D6FB38230093A0231922612185
:10378C00204623F039FB02B010BD00BF18A342A0A5
:10379C001400001008B5084B1B780133DBB2062B64
:1037AC0028BF0023044A1370044A32F81320044B38
:1037BC001A80FFF7D3FF08BD10A342A0E8EF030067
:1037CC00140000102DE9F04786B0814669482CF0B2
:1037DC009DF88246684C0121204623F0A7FB47F652
:1037EC00E071204623F09DFBB9F806300093B9F840
:1037FC000430B9F80220B9F80010204623F0FCFA86
:10380C0005AA03215D482BF029F8002846D1D046A3
:10381C001A27594E4546B8240494039703AA04A9C1
:10382C00304623F091FB012300932B46039A049915
:10383C00304623F065FC02350134B4F5C07FEBD182
:10384C0008F5C8780137E22FE4D102AB494A51465A
:10385C0005982BF073F818B1464B029A9A4253D143
:10386C0005982BF033F8444C0121204623F05EFBE5
:10387C000021204623F055FBB9F806300093B9F827
:10388C000430B9F80220B9F80010204623F0B4FA3D
:10389C0050462CF03FF806B0BDE8F087064605AA66
:1038AC00032137482AF0DAFF04460028AFD0354B05
:1038BC0019684FF47F32881824F049FCFEF78EFF0C
:1038CC002D4D0021284623F031FB0021284623F002
:1038DC002AFB47F6E071284623F023FB29230093AB
:1038EC004FF4C0731922B721284623F085FA092E0C
:1038FC000DD00D2E27D10D2C1ED01B23B922224901
:10390C001D4823F06EFD24E0FEF768FFA8E70D2CA0
:10391C000BD0092C4FF01B034FF0B9020CBF1B4905
:10392C001B49154823F05DFD13E01B23B9221949EF
:10393C00284623F056FD0CE01B23B92216490E48ED
:10394C0023F04FFD05E01B23B92214490A4823F04C
:10395C0048FD0121084823F0E9FA4FF4FA602AF0F7
:10396C0079F9084B18684FF47F32811824F0EFFB7B
:10397C0079E700BF8038010018A342A058EE03007D
:10398C0064EE03002C040010FCEE030094EE030024
:10399C00BCEE030070EE0300DCEE030018EF030036
:1039AC002DE9F04F89B0054686482BF0AFFF8046D5
:1039BC00854C0121204623F0B9FA47F6E0712046E8
:1039CC0023F0AFFAEB880093AB886A8829882046ED
:1039DC0023F012FA07AA01217C482AF03FFF814606
:1039EC0040B107AA01217A482AF038FF0446002882
:1039FC0040F08F8004AB734A414607982AF088FF49
:103A0C00044607982AF062FF4CB16E4B049A9A4216
:103A1C0002D1C2461A2704E0FEF7E0FE27E0C246B8
:103A2C001A27694ECDF80C80D046A246AB46A8F1B9
:103A3C000205B8240694059705AA06A9304623F07A
:103A4C0083FA35F8023F059A0699304623F086FA38
:103A5C000134B4F5C07FEDD108F5C8780137E22FF9
:103A6C00E5D1DDF80C8054465D46002C3AD0594B1C
:103A7C0019684FF47F32881824F069FBFEF7AEFE0C
:103A8C00514C0021204623F051FA0021204623F00E
:103A9C004AFA47F6E071204623F043FA29230093B3
:103AAC004FF4C0731922B721204623F0A5F9B9F1C0
:103ABC00090F71D0B9F10D0F7CD01B23B9224649E7
:103ACC00414823F08EFC01213F4823F02FFA4FF49C
:103ADC00FA602AF0BFF83F4B18684FF47F32811818
:103AEC0024F035FB384C0121204623F01FFA00212D
:103AFC00204623F016FAEB880093AB886A88298855
:103B0C00204623F079F940462BF004FF09B0BDE8BC
:103B1C00F08F304B19684FF47F32881824F017FB64
:103B2C00FEF75CFE284E0021304623F0FFF9002101
:103B3C00304623F0F8F947F6E071304623F0F1F9FE
:103B4C00292300934FF4C0731922B721304623F078
:103B5C0053F9B9F1090F0DD0B9F10D0FADD10D2CF1
:103B6C0021D0092C26D11B23B9221C49164823F03D
:103B7C0038FCA8E70D2C08D0092C0DD11B23B92239
:103B8C001749114823F02DFC9DE71B23B922154939
:103B9C00304623F026FC96E71B23B92211490A482C
:103BAC0023F01FFC8FE71B23B9220F49064823F093
:103BBC0018FC88E71B23B9220B49034823F011FC9E
:103BCC0081E700BF8038010018A342A058EE030023
:103BDC0064EE03002C040010C0EF03009CEF030004
:103BEC004CEF030028EF03007CEF0300A0F1B80CAE
:103BFC00BCF1C70F1AD8A1F11A0CBCF1C70F15D81C
:103C0C00A2F1B80CBCF1C70F10D8A3F11A0CBCF17F
:103C1C00C70F0BD800B583B0009313460A46014674
:103C2C00034822F0EFFF03B05DF804FB704700BFC0
:103C3C0018A342A008B5A0F1B803C72B08D8A1F16E
:103C4C001A03C72B04D80A460146024822F0C7FFC4
:103C5C0008BD00BF18A342A070B58AB009AA002104
:103C6C002BF0D3FC24F03CF81E4C4FF4F843079394
:103C7C000025069547F6E07605960223049340F25C
:103C8C000F13039340F2DF13029301950095099BE8
:103C9C004FF488724FF4F071204623F007F9124963
:103CAC00204623F0D1FB1F221049204623F0DFFBD6
:103CBC003146204623F035F90D49204623F0C1FD4D
:103CCC002946204623F02FF9E22300934FF4C073CA
:103CDC001922B721204623F08FF824F015F80AB0EA
:103CEC0070BD00BF18A342A0C8600600CCEF030053
:103CFC000CF003002DE9F04F91B0844B00221A60B8
:103D0C00834A102101202AF0EFF810B111B0BDE860
:103D1C00F08F7F4A0EA97F482CF012F820B17C4B13
:103D2C0018682AF004F9F1E70FA97B482BF051FC35
:103D3C0028B1774B19680E982CF063F8EFE70BAAB3
:103D4C0000210F982BF061FC0F98FFF785FFFFF710
:103D5C0005FD4FF0FF31302004F04EFC0026B2463A
:103D6C00B0466A4C6A4D2768002F40F0CB804FF06C
:103D7C00FF3207A928682AF08DF90028F3D1089B97
:103D8C000D93099B0C930CAA0DA9644823F0D2F84F
:103D9C000D9BB83BC72B00F2AB800C9B1A3BC72B7F
:103DAC0000F2A6800A9B012B01D0B846DBE72BF072
:103DBC009FFD5B4B1988002940F08580574823F004
:103DCC00B0F8B8F1000F50D0DDF834900C9F0AF128
:103DDC00FF308046711E09F1FF3B7B1E02935A4651
:103DEC000591FFF703FF3B465A463146CDF810804C
:103DFC004046FFF7FBFE721C114607F101084346D3
:103E0C005A4603910498FFF7F1FE029B4A46DDF8EF
:103E1C0014B059465046FFF7E9FE3B464A46314638
:103E2C005046FFF7E3FE43464A4603995046FFF7D8
:103E3C00DDFE0AF1010A09F10109029B4A465946C5
:103E4C005046FFF7D3FE3B464A4631465046FFF7F5
:103E5C00CDFE43464A4603995046FFF7C7FEDDF8B0
:103E6C0034A00C9E4FF0FF387DE70D9E0C9F06F1A1
:103E7C00FF3A07F1FF3949465046FFF7DBFE39465A
:103E8C005046FFF7D7FE07F1010841465046FFF7B1
:103E9C00D1FE49463046FFF7CDFE39463046FFF796
:103EAC00C9FE41463046FFF7C5FE0136494630464D
:103EBC00FFF7C0FE39463046FFF7BCFE41463046A0
:103ECC00FFF7B8FECBE7154823F02BF8B8F1000F3D
:103EDC0008D00C9B00930D9B324651460F4822F0A4
:103EEC0091FEBCE70C9A0D990C4822F078FEB6E7CF
:103EFC0007AA0C49094823F0DDFC0A9B002B08BFDC
:103F0C00B84630E70F982BF074FB12E714A342A0CD
:103F1C000CA342A0E0EB0300DCEB030018A342A0CF
:103F2C00140000100CF0030070B505460C46B2F5F9
:103F3C00004F2ED0102A41D0002A3ED1486E2AF0D4
:103F4C0019F9B0F57A7F38D32AF008F9606604F1D4
:103F5C00680201216E482AF081FC002832D1AB683E
:103F6C006C4A022120469847A06E2AF0AFFC002331
:103F7C00022219462046EE68B0472B6902212046E2
:103F8C009847654B1A889B78A4F8022184F8043171
:103F9C0013E08368614A002120469847AB68604A69
:103FAC00012120469847AB685E4A0221204698477B
:103FBC002AF0D4F860660023E36670BD43690846B6
:103FCC009847FAE7031F0C2B00F28680DFE803F01A
:103FDC003584848484580784844984846700AB685E
:103FEC00514A022120469847504B07CBC4F8020196
:103FFC00C4F80611C4F80A211A889B78A4F80E217B
:10400C0084F81031E36E0133E3660E2BD5D9AB681F
:10401C00474A02212046984700230322194620468E
:10402C00EE68B0472B69032120469847414B03CBE0
:10403C00C4F80201C4F80611BFE7AB683E4A02217E
:10404C00204698473D4B07CBC4F80201C4F8061133
:10405C00C4F80A211A889B78A4F80E2184F8103130
:10406C00D0E7AB68364A022120469847354B03CB44
:10407C00C4F80201C4F806111B88A4F80A31C1E780
:10408C00AB68314A022120469847304B03CBC4F829
:10409C000201C4F806111B88A4F80A31B2E7AB6818
:1040AC002B4A0221204698472A4E0FCEC4F8020113
:1040BC00C4F80611C4F80A21C4F80E31337884F818
:1040CC0012310023032219462046EE68B0472B69B3
:1040DC0003212046984795E7AB681D4A02212046EC
:1040EC0098471D4B07CBC4F80201C4F80611C4F85D
:1040FC000A211B88A4F80E310023032219462046FE
:10410C00EE68B0472B690321204698477AE700BF39
:10411C000CF1030020F10300C0930500ACF0030088
:10412C00C8F00300FCF0030038F1030058F1030061
:10413C0024F203003CF2030068F1030088F1030051
:10414C0098F10300B4F10300C0F10300DCF10300AB
:10415C00E8F1030000F2030014F20300B2F5004F83
:10416C0000D0704738B505460C46002184F86C1019
:10417C008368264A2046984704F1640124482AF0B3
:10418C00D1FAC8B1AB68234A0021204698470023D6
:10419C00032219462046D5F80CC0E0472B690321B1
:1041AC00204698471C4B03CBC4F80201C4F80611F7
:1041BC001B88A4F80A3138BD04F16801606E2AF03E
:1041CC009DFA0028DED1A06E03685B6940F6C4122C
:1041DC0004F1700198470028D4D1AB680F4A002134
:1041EC00204698470023022219462046D5F80CC0D9
:1041FC00E0472B69022120469847094B1A889B7887
:10420C00A4F8022184F80431D5E700BF44F203007E
:10421C0030EC030060F2030088F2030094F2030018
:10422C00C0930500F0B583B005460C46B2F5004FBF
:10423C005ED0002A7AD1886E03681B6901A9984761
:10424C00002840F08380019A636F9342B8BF626785
:10425C00236F9A42B8BF226782EAE273A3EBE27340
:10426C00C3F34233C3EB431103EB810604F178072C
:10427C00334612145D4938462EF04CF9AB683A4679
:10428C00002120469847C82029F0E4FCE36E013356
:10429C00E366052B4AD9226FB2F5702F69DA0192C9
:1042AC0082EAE273A3EBE273C3F34233C3EB431131
:1042BC0003EB8106334612144D4938462EF02AF989
:1042CC00AB683A46002120469847EF68002303224A
:1042DC0019462046B8472B69032120469847334698
:1042EC00BDF90620434904F581702EF013F91DE049
:1042FC008368414A00212046984704F164013F48F5
:10430C002AF010FAA0B1EE680023032219462046C9
:10431C00B0472B69032120469847394B03CBC4F88F
:10432C000201C4F806111B88A4F80A3103B0F0BDD1
:10433C0004F16801606E2AF0E1F90028E3D14FF432
:10434C00C813236763670023E366EFE7EE68002377
:10435C00032219462046B0472B6903212046984773
:10436C00284B07CBC4F80201C4F80611C4F80A2183
:10437C00DCE7626FB2F5201F24DD0192C2F34233F9
:10438C00C3EB431103EB8106334612141E49384626
:10439C002EF0C0F8AB683A46002120469847EF68EB
:1043AC000023032219462046B8472B6903212046D7
:1043BC0098473346BDF90620144904F581702EF058
:1043CC00A9F8B3E7EF680023022219462046B84744
:1043DC002B690221204698473346BDF906200C492B
:1043EC0004F581702EF096F8A0E700BFE8F2030008
:1043FC000CF3030038F30300B8F20300D4F203000B
:10440C00DCF10300DCF203004CF3030078F303004F
:10441C0088F30300F0B58BB005460C46164669468A
:10442C006D482AF07FF958B1EE6800230322194633
:10443C002046B0472B690321204698470BB0F0BDAE
:10444C0001A900982AF05AF9002832D1B6F5004F8C
:10445C003AD0002EF2D120263246002102A82EF0AE
:10446C009BF9019803685F69334602AA4121B8475A
:10447C00002800F08A80EE680023032219462046AB
:10448C00B0472B69032120469847544B03CBC4F803
:10449C000201C4F806111A889B78A4F80A2184F842
:1044AC000C31019803689C6920234D4A4121A04797
:1044BC00C4E7EE680023032219462046B0472B6957
:1044CC00032120469847B9E7AB68464A00212046AD
:1044DC009847019803685E692023414A4121B047FF
:1044EC00B0B1EE680023032219462046B0472B6971
:1044FC00032120469847394B03CBC4F80201C4F87A
:10450C0006111A889B78A4F80A2184F80C3195E7D7
:10451C002022AA2102A82EF03FF9019803689E6977
:10452C00202302AA4121B04706462022552102A889
:10453C002EF032F9AEB101238DF80830EE6800236D
:10454C00032219462046B0472B6903212046984781
:10455C00254B07CBC4F80201C4F80611C4F80A2194
:10456C006CE7019803689E69142302AA4321B047A3
:10457C0001238DF808300028E0D1019803689C696C
:10458C00012302AA4621A04758E7202202A9174876
:10459C002DF031FF50B9EE68002302221946204657
:1045AC00B0472B690221204698477AE7EE68002332
:1045BC00032219462046B0472B6903212046984711
:1045CC000B4B07CBC4F80201C4F80611C4F80A213E
:1045DC001B7884F80E3164E794F30300B0F3030006
:1045EC0078A342A09CF30300BCF3030018F803006B
:1045FC00C8F3030003460120186000BF00BF00BFD2
:10460C0000BF00BF00BF00BF00BF00BF00BF00BFA6
:10461C0000BF00BF00BF00BF00BF00BF00BF00BF96
:10462C0000BF00BF00BF00BF00BF00BF00BF00BF86
:10463C0000BF00BF00BF00BF00BF00BF00BF00BF76
:10464C0000BF00BF00BF00BF00BF00BF00BF00BF66
:10465C0000BF00BF00BF00BF00BF00BF00BF00BF56
:10466C0000BF00BF00BF00BF00BF00BF00BF00BF46
:10467C0000BF00BF00BF00BF00BF00BF00BF00BF36
:10468C0000BF00BF00BF00BF00BF00BF00BF00BF26
:10469C0000BF00BF00BF00BF00BF00BF00BF00BF16
:1046AC0000BF00BF00BF00BF00BF00BF00BF00BF06
:1046BC0000BF00BF00BF00BF00BF00BF00BF00BFF6
:1046CC0000BF00BF00BF00BF00BF00BF00BF00BFE6
:1046DC0000BF00BF00BF00BF00BF00BF00BF00BFD6
:1046EC0000BF00BF00BF00BF00BF00BF00BF00BFC6
:1046FC0000BF00BF00BF00BF00BF00BF00BF00BFB6
:10470C0000BF00BF00BF00BF00BF00BF00BF00BFA5
:10471C0000BF00BF00BF00BF00BF00BF00BF00BF95
:10472C0000BF00BF00BF00BF00BF00BF00BF00BF85
:10473C0000BF00BF00BF00BF00BF00BF00BF00BF75
:10474C0000BF00BF00BF00BF00BF00BF00BF00BF65
:10475C0000BF00BF00BF00BF00BF00BF00BF00BF55
:10476C0000BF00BF00BF00BF00BF00BF00BF00BF45
:10477C0000BF00BF00BF00BF00BF1A68824202D159
:10478C0040007FF439AF7047F0B502468908013913
:10479C0011F0010E3CD073464FF0AA3042F82300C2
:1047AC005B001942FAD14FF055331360734602EB9C
:1047BC00830052F82340B4F1AA3F14D15B00194294
:1047CC00F5D14FF0AA331360F4464FF055361F461F
:1047DC0010E05B00194207D052F82340B4F1AA3F15
:1047EC00F7D06345F5D0F0BD57514FEA4C0C11EAA8
:1047FC000C0F0BD04FEA8C0502EB8C0042F82C60AE
:10480C001368B3F1AA3FEED17346E5E70020EAE75F
:10481C004FF0553303604FF0AA3303600020E2E7FA
:10482C00032928D910B502464FEA910C864601237C
:10483C0040F8043B9C4503F10103F9D8012300E047
:10484C000B4610461168994214D1D94342F8041B07
:10485C00591C9C45F4D800236FF001047046DEF817
:10486C000010E21A914205D101330EF1040E9C4561
:10487C00F4D8002010BD002070470000B2F5004FA6
:10488C0000D0704770B505460C4683682A4A002153
:10489C002046984728F048FB4FF02040FFF7AAFE2F
:1048AC00064628F05BFBB6B1AB68244A01212046D2
:1048BC0098470023032219462046D5F80CC0E04740
:1048CC002B6903212046984732461D4904F5817017
:1048DC002DF020FE70BD28F027FB4FF400014FF0A7
:1048EC002040FFF751FF064628F038FB002EDBD1A5
:1048FC0028F01AFB4FF400014FF02040FFF790FF17
:10490C00064628F02BFB002ECED1AB680D4A0121B8
:10491C0020469847EE680023022219462046B047ED
:10492C002B690221204698474FF40002064904F5F2
:10493C0081702DF0EFFDCDE7D8F3030004F40300F4
:10494C001CF40300ECF30300FCF30300F0B5C3B05C
:10495C0006460C4615468368534A01212046984763
:10496C00524B03CBC4F80201C4F806111B88A4F8FF
:10497C000A3141AA102128462AF08DF8002874D15A
:10498C0004F58177419B512B03D040F2E93043B0C1
:10499C00F0BD41AA112128462AF07DF8002867D1E4
:1049AC00419B522B02D040F2E930F0E741AA122190
:1049BC0028462AF070F800285DD1419B592B02D073
:1049CC0040F2E930E3E73A4B07CBC4F802017960D7
:1049DC00BA60B368374A0121204698474FF48022C9
:1049EC004FF4E00128462AF047F8002846D18023EE
:1049FC0001AA4FF4E00128462AF01CF8002840D107
:104A0C0001AB21A913F8012BFF2A3DD18B42F9D11F
:104A1C00294B07CBC4F802017960BA60B368274A06
:104A2C000121204698470623254A264928462AF084
:104A3C0012F860BB0623244A244928462AF00BF8B6
:104A4C0040BB802301AA1F49284629F0F3FF20BB55
:104A5C000C221F4901A82DF0CEFC08BB1D4B1A8857
:104A6C009B78A4F80221BB7091E740F2E9308EE705
:104A7C0040F2E9308BE740F2E93088E740F2EA3067
:104A8C0085E740F2EA3082E740F2EB307FE74FF403
:104A9C007B707CE74FF47B7079E74FF47B7076E7A3
:104AAC004FF47B7073E700BF24F40300DCF10300C8
:104ABC0034F4030040F4030050F403005CF40300EE
:104ACC006CF40300FCFF710074F40300020072002C
:104ADC007CF40300C0930500F0B591B00023019362
:104AEC00ADF80830B2F5004F01D011B0F0BD05465D
:104AFC000C4683681E4A0021204698470FA91D4882
:104B0C0029F07CFFC8B903A90F9829F0D3FF039BA8
:104B1C000F9A21462846FFF719FF06460F9829F0F1
:104B2C007DFF66B9EE680023022219462046B04785
:104B3C002B69022120469847D7E74FF47A7604F187
:104B4C006407C6F30E020C4938462DF0E3FCAB6843
:104B5C003A46022120469847EE6800230322194664
:104B6C002046B0472B69032120469847BDE700BF7C
:104B7C008CF40300ACF40300B4F4030030B583B040
:104B8C0005460C46B2F5004F2FD0102A48D0002A0B
:104B9C0044D1486E29F0EEFAB0F57A7F3ED329F075
:104BAC00DDFA606604F168020121654829F056FEC1
:104BBC00002839D1AB68634A022120469847A06E81
:104BCC0029F084FE0023022219462046D5F80CC099
:104BDC00E0472B690221204698475B4B1A889B784B
:104BEC00A4F8022184F8043118E08368574A0021A4
:104BFC0020469847AB68564A012120469847AB6837
:104C0C00544A02212046984701A9534829F09CFB9D
:104C1C000023E366236729F0A1FA606603B030BD78
:104C2C00436908469847F9E7031F092B51D8DFE879
:104C3C0003F01E505050504105505032AB68474A5B
:104C4C00022120469847464B07CBC4F80201C4F812
:104C5C000611C4F80A211A889B78A4F80E2184F84E
:104C6C001031236F5A1C042B47D02267D6E7AB6850
:104C7C003C4A0221204698473B4B07CBC4F8020123
:104C8C00C4F80611C4F80A211A889B78A4F80E21DE
:104C9C0084F81031E5E7AB68344A02212046984786
:104CAC00334B03CBC4F80201C4F806111B88A4F8DB
:104CBC000A31D6E7AB682F4A0221204698472E4B83
:104CCC0003CBC4F80201C4F806111B88A4F80A31FE
:104CDC00C7E7AB681F4A022120469847274B07CBF2
:104CEC00C4F80201C4F80611C4F80A211A889B788A
:104CFC00A4F80E2184F81031B3E700232367E36E88
:104D0C000133E366062B16D1AB681D4A02212046FF
:104D1C0098470023032219462046D5F80CC0E047DB
:104D2C002B69032120469847164B03CBC4F802018C
:104D3C00C4F8061172E701A9074829F005FB6DE7D5
:104D4C0024F5030020F10300C0930500C8F4030010
:104D5C00E8F40300FCF0030014F5030038F1030041
:104D6C0058F1030068F1030088F1030098F1030087
:104D7C00B4F10300C0F10300DCF1030034F50300CF
:104D8C0024F203003CF2030030B583B005460C4618
:104D9C00B2F5004F2FD0102A48D0002A44D1486ECB
:104DAC0029F0E8F9B0F57A7F3ED329F0D7F960669F
:104DBC0004F168020121654829F050FD002839D121
:104DCC00AB68634A022120469847A06E29F07EFD0D
:104DDC000023022219462046D5F80CC0E0472B6967
:104DEC000221204698475B4B1A889B78A4F8022135
:104DFC0084F8043118E08368574A0021204698470C
:104E0C00AB68564A012120469847AB68544A0221A8
:104E1C002046984701A9534829F096FA0023E366E7
:104E2C00236729F09BF9606603B030BD43690846DF
:104E3C009847F9E7031F092B51D8DFE803F01E5000
:104E4C005050504105505032AB68474A0221204621
:104E5C009847464B07CBC4F80201C4F80611C4F8B6
:104E6C000A211A889B78A4F80E2184F81031236F3C
:104E7C005A1C042B47D02267D6E7AB683C4A022168
:104E8C00204698473B4B07CBC4F80201C4F80611E7
:104E9C00C4F80A211A889B78A4F80E2184F81031E2
:104EAC00E5E7AB68344A022120469847334B03CBE5
:104EBC00C4F80201C4F806111B88A4F80A31D6E71D
:104ECC00AB682F4A0221204698472E4B03CBC4F8DF
:104EDC000201C4F806111B88A4F80A31C7E7AB68B5
:104EEC001F4A022120469847274B07CBC4F80201E2
:104EFC00C4F80611C4F80A211A889B78A4F80E216C
:104F0C0084F81031B3E700232367E36E0133E366C3
:104F1C00062B16D1AB681D4A022120469847002368
:104F2C00032219462046D5F80CC0E0472B69032113
:104F3C0020469847164B03CBC4F80201C4F806115F
:104F4C0072E701A9074829F0FFF96DE724F5030082
:104F5C0020F10300C093050044F50300E8F40300BE
:104F6C00FCF0030064F5030038F1030058F1030072
:104F7C0068F1030088F1030098F10300B4F1030019
:104F8C00C0F10300DCF1030034F5030024F203004C
:104F9C003CF20300B2F5004F00D070472DE9F04F02
:104FAC008BB006460C468368744A0021204698470D
:104FBC0003A973482AF00DFB09A9724829F0E6F9F8
:104FCC0000B3B368704A002120469847F568002367
:104FDC00032219462046A8473369032120469847E7
:104FEC006A4B03CBC4F80201C4F806111B88A4F861
:104FFC000A31099829F0D5F903982AF0FAFA0BB07E
:10500C00BDE8F08F002305930A238DF81830012397
:10501C008DF8193004AB089305A9099829F0C8F943
:10502C00D8B1B3685A4A002120469847F568002346
:10503C00032219462046A847336903212046984786
:10504C00544B03CBC4F80201C4F806111A889B78A0
:10505C00A4F80A2184F80C31CBE7049B642202FBF0
:10506C0003F74D4BA3FB07373F0A04EB020B00235E
:10507C003A464A4958462DF04DFAB3685A46002133
:10508C002046984704F5817800233A464449404627
:10509C002DF040FAA7F15003282B0FD9F568002307
:1050AC00032219462046A847336903212046984716
:1050BC003A463C4940462DF02DFA9AE703982AF0DF
:1050CC00CCFA002103982AF0D4FA642028F0C2FD0F
:1050DC0005A9099829F06CF9049B642202FB03F3DF
:1050EC001A4601932C4BA3FB02394FEA192903985A
:1050FC002AF0A7FA00254FF00A0A294603982AF04D
:10510C00B8FA504628F0A6FD0235B5F5807FF4D1EB
:10511C004B463A46214958462DF0FCF9B3685A469D
:10512C000021204698474B463A461D4940462DF0F3
:10513C00F1F9019BB3F5994F0FD3F56800230322C6
:10514C0019462046A84733690321204698474A460A
:10515C00154940462DF0DEF94BE7F5680023022295
:10516C0019462046A84733690221204698474B46EA
:10517C003A460B4940462DF0CDF93AE774F5030059
:10518C00DCEB03008CF5030094F50300DCF1030069
:10519C00B8F50300DCF50300ABAAAAAAE8F50300F6
:1051AC0014F6030020F6030030F60300B2F5004FAE
:1051BC0000D07047F0B587B005460C468368404A6E
:1051CC0000212046984705A93E4829F0DFF8E0B1B8
:1051DC00AB683D4A0021204698470023032219461C
:1051EC002046EE68B0472B69032120469847374B81
:1051FC0003CBC4F80201C4F806111B88A4F80A31C9
:10520C00059829F0CEF807B0F0BD022301930A23CC
:10521C008DF8083001238DF80930CDF810D001A994
:10522C00059829F0C5F8D8B1AB68294A0021204669
:10523C009847EE680023032219462046B0472B6995
:10524C00032120469847234B03CBC4F80201C4F832
:10525C0006111A889B78A4F80A2184F80C31CFE740
:10526C00009B642202FB03F31B4EA6FB03269B1B35
:10527C0006EB5306760A04F16407324617493846A2
:10528C002DF048F9AB683A46002120469847503E2D
:10529C00282E0AD9EE680023032219462046B0476F
:1052AC002B69032120469847AAE7EE6800230222C7
:1052BC0019462046B0472B690221204698479FE7A4
:1052CC0040F603008CF5030054F60300DCF10300F8
:1052DC0074F60300DCF503002515405298F6030024
:1052EC0000B583B00023019340B1431E062B09D8AF
:1052FC00DFE803F00C11161B20252A0001A9154824
:10530C0029F022F8019803B05DF804FB01A91248BA
:10531C0029F01AF8F6E701A9104829F015F8F1E779
:10532C0001A90F4829F010F8ECE701A90D4829F064
:10533C000BF8E7E701A90C4829F006F8E2E701A908
:10534C000A4829F001F8DDE701A9094828F0FCFF1B
:10535C00D8E700BFB0F60300B8F60300C0F60300B0
:10536C00C8F60300D0F60300D8F60300E0F60300FD
:10537C00E8F6030082B02DE9F04F8FB080468B46E3
:10538C00164619931C9D8368A04A012158469847DC
:10539C009F4B03CBCBF80201CBF806111B88ABF863
:1053AC000A310DAA1021304629F075FB002840F077
:1053BC001B810BF5817A0D9B512B06D040F2E93005
:1053CC000FB0BDE8F04F02B070470DAA1121304666
:1053DC0029F061FB002840F00A810D9B522B02D072
:1053EC0040F2E930ECE70DAA1221304629F053FBCC
:1053FC00002840F0FF800D9B592B40F0FE800024CC
:10540C000794CDF810A00895C146059626465F4630
:10541C0007F1640B22467F4958462DF07BF8D9F8EA
:10542C0008305A4601213846984700230393E3B2CB
:10543C0006930B94039A784958462DF06BF8D9F8DB
:10544C0008305A46012138469847089B002B00F03B
:10545C00B58019AB0A934FF000084546CDF824806F
:10546C00DDF81CA0099A6D4958462DF053F8D9F86F
:10547C0008305A460121384698470A9B07935C69C5
:10548C00B44207D1079B1B69002B00F08980434471
:10549C00079341E0624E23463246624958462DF04E
:1054AC0039F8D9F808305A46032138469847B2469D
:1054BC00E8E7464635E0434600225B4958462DF066
:1054CC0029F8D9F808305A460121384698472A4617
:1054DC00564904982DF01EF83CB10AF1FF33621EB8
:1054EC00524403F8016F9A42FBD122462946059E8D
:1054FC00304629F0C1FA002840F0828023465246FB
:10550C002946304629F0A7FA00287CD108F1010879
:10551C002544079B984542D0069B002BC9D088F0A8
:10552C00FF06039B002BC6D04346039A40495846BE
:10553C002CF0F0FFD9F808305A460121384698472C
:10554C002A463C4904982CF0E5FF2346524629464E
:10555C00059829F06FFA002CD8D00AF1FF32534687
:10556C00601E5044944612F8011FB14202D182428F
:10557C00F8D1CBE74246C846D946C3F101030191A5
:10558C00009663442C4948462CF0C4FFD8F80830E8
:10559C004A4602213846984740F2014010E79846A7
:1055AC00099B013309930A9A08320A92089A9A4283
:1055BC0001D0264656E7CDF81CA02646039B0133A6
:1055CC000393022B7FF436AF0B9C0134022C7FF437
:1055DC001FAFDDF810A0194B1A889B78A7F8022191
:1055EC008AF802300020EBE640F2E930E8E640F2BF
:1055FC00E930E5E640F2E930E2E640F2E930DFE698
:10560C0042F24870DCE642F24970D9E624F4030019
:10561C00DCF10300F0F60300FCF603000CF70300CA
:10562C00000040A018F7030038F7030064F70300EC
:10563C0078F70300A4F70300B8F70300C093050044
:10564C00B2F5004F00D07047F0B59BB005460C4644
:10565C008368264A00212046984719A9244829F036
:10566C00CDF940BB0DA9199829F024FAEC460DF19F
:10567C00380EBEE80F00ACE80F00BEE80F00ACE837
:10568C000F009EE807008CE807000D9B199A214635
:10569C002846FFF76FFE0646199829F0BFF966B940
:1056AC00EE680023022219462046B0472B690221DE
:1056BC002046984718E04FF47A7604F16407C6F355
:1056CC000E020C4938462CF025FFAB683A460221F5
:1056DC0020469847EE680023032219462046B0471F
:1056EC002B690321204698471BB0F0BDF4F703004B
:1056FC00ACF40300B4F40300034B1B684FF0FF320F
:10570C00C3F8D42B704700BF98A342A030B58BB020
:10571C00044622F0E5FA09AA0021204629F075FF7B
:10572C00174C4FF4F84307930023069347F6E075A4
:10573C0005950222049240F20F12039240F2DF12FE
:10574C00029201930093099B4FF488724FF4F0710D
:10575C00206821F0ABFB0B49206821F075FE1F225D
:10576C000949206821F083FE2946206821F0D9FBE5
:10577C000649206821F068FE22F0C6FA0BB030BD55
:10578C0098A342A0C860060038F80300307C0600DD
:10579C002DE9F04788B0DFF81C81D8F8000000F63E
:1057AC0064240025ADF81850ADF81A50C369ADF853
:1057BC001C30036AADF81E303F4921F045FED8F885
:1057CC00000021F043FE87B206AE0A21304622F0DB
:1057DC0023FC07F12602022392B26946304622F0DE
:1057EC003CFC04AB96E8030083E80300D8F80020E7
:1057FC0002F6CC3282E803000221184622F00CFC9F
:10580C000437BFB2242F38BF24276826DFF8ACA09A
:10581C00DFF8AC90D8F800301B6EAB422ED9BDF837
:10582C0016300133BDF812209B1A9F4226DA012351
:10583C003A4602A904A822F0F6FBBDF808302380F2
:10584C00BDF80A306380BDF80C30A380BDF80E3073
:10585C00E380D8F800209119A160C4F80CA0C4F81A
:10586C001090311F1144A1611649E1610233A2F875
:10587C00D23B013520348036092DCBD1012168462D
:10588C0022F0CAFBBDF8003023803F33A380BDF863
:10589C00023063801F33E3800B4BA3600B4BE36040
:1058AC000B4B23610023A361E361A36208B0BDE845
:1058BC00F08700BF98A342A0C8600600395A0000C8
:1058CC00F8A90400E15800001CEC03000557000087
:1058DC00BC07050030B589B004460388ADF8183014
:1058EC004388ADF81A308388ADF81C30C388ADF806
:1058FC001E301C4D1C49286821F0A6FD286821F09B
:10590C00A5FD85B2022106A822F06AFB0223202203
:10591C0004A906A822F0BBFB236993B1BDF8103093
:10592C000393BDF81230029302AA03A90D4B186819
:10593C0021F00AFBBDF80820BDF80C10206922F0FC
:10594C0059FA2A46694606A822F0D5FBBDF8023062
:10595C00BDF80020A1680348006821F042FD09B0A1
:10596C0030BD00BF98A342A0C860060070B586B0D9
:10597C0022F0B6F9284C2949206821F065FD2068F1
:10598C0021F064FD054647F6E071206821F0C9FA64
:10599C000021206821F0C7FA2068B0F8D03BB0F89D
:1059AC00CE2BB0F8CC1BB0F8D26B009621F024FAB9
:1059BC002068036E13BB90F8E03B102B28D0092B0A
:1059CC0028D0174C174A302B18BF1446214621F00B
:1059DC009CFD114E336882B204A903F6CC3022F040
:1059EC00A0FBAAB202A904A822F085FBBDF80A30DC
:1059FC00BDF808202146306821F0F3FC064B1868EE
:105A0C0000F6642121F01DFF22F07EF906B070BD76
:105A1C00044CDBE7044CD9E798A342A0C86006000D
:105A2C0094F8030060F8030074F8030008B580696B
:105A3C0000F046FE054B1B68D3F8D80BFFF766FE4B
:105A4C00FFF7A6FEFFF792FF08BD00BF98A342A088
:105A5C0010B59AB002460C4901A82CF05BFD01234D
:105A6C0001AA0A490BA82CF055FD6A4601210BA886
:105A7C0028F0F4FE044610B120461AB010BD009870
:105A8C0028F024FFF8E700BFBCF80300C4F80300BB
:105A9C0010B58CB00246094902A82CF03BFD01AAB6
:105AAC00012102A828F0DAFE044610B120460CB001
:105ABC0010BD019828F00AFFF8E700BFD8F80300E2
:105ACC0010B58CB00246094902A82CF023FD01AA9E
:105ADC00012102A828F0C2FE044610B120460CB0E9
:105AEC0010BD019828F0F2FEF8E700BFF0F80300B3
:105AFC002DE9F04794B0804600231293364B1D6875
:105B0C000246364908A82CF005FD13A908A829F06F
:105B1C0081FC18B1302014B0BDE8F08730491398DF
:105B2C0029F0D6FC68B1129B002B4AD0002B4DDD1E
:105B3C00643501242646DFF8AC902B4FDFF8ACA07F
:105B4C0019E012AB00222A49139829F0D5FC129BBC
:105B5C00002BEBD12749139829F0BAFC12AB002289
:105B6C002349139829F0C8FCDDE70134E4B226463A
:105B7C00129B9C422ADC3246494605A82CF0CAFCF2
:105B8C00502300932B1D3A4605A9139829F0E0FCED
:105B9C0000BB3246514603A82CF0BCFC28230093D2
:105BAC0005F155033A4603A9139829F0D1FC0028B6
:105BBC00DBD145F8808B084B1A68136E01331366E2
:105BCC00D3E7139829F05EFC3020A4E7139829F052
:105BDC0059FCA0E730209EE798A342A0F0F8030000
:105BEC0008F9030030F90300D4FB030038F9030073
:105BFC001CF9030028F903002DE9F0478EB0074685
:105C0C00304B1C680246304904A82CF083FC03AAD4
:105C1C00012104A828F022FE064618B130460EB029
:105C2C00BDE8F08702A9039828F0A3FE029B002B85
:105C3C0044D004F1640A0025A8462C464FF0010913
:105C4C0012E02C2B06D04F2D0AD80AEB050213714B
:105C5C00013505E00AEB050300251D714FF0010825
:105C6C000134029BA34229D901AB4A460DF1030131
:105C7C00039828F04DFE064600BB019BF3B19DF83E
:105C8C0003300D2BECD0B8F1000FDAD00A2B07D073
:105C9C00272DE5D80AEB050282F855300135DFE7F0
:105CAC0055444FF0000885F855804AF8807B054B29
:105CBC001A68136E013313664546D1E7039828F032
:105CCC0005FEABE798A342A0D8F8030030B5A9B005
:105CDC0040F6E43029F01AFE664B186080B140F6AD
