:10000000340D0010010300001B0300007C030000FE
:100010001D0300001F03000021030000D7DFFFEFD6
:1000200000000000000000000000000051F302008A
:100030002503000000000000B1F30200F5F3020008
:10004000E1BD0200F1BD020001BE020011BE0200CE
:1000500021BE020031BE020041BE020051BE0200BC
:1000600061BE020071BE020081BE020091BE0200AC
:10007000A1BE0200B1BE0200C1BE0200D1BE02009C
:10008000E1BE0200F1BE020001BF020011BF02008A
:1000900021BF020031BF020041BF020051BF020078
:1000A00061BF020071BF020081BF020091BF020068
:1000B000A1BF0200B1BF0200C1BF0200D1BF020058
:1000C000E1BF0200F1BF020001C0020011C0020046
:1000D00021C0020031C0020041C0020051C0020034
:0400E00061C00200F9
:0402FC00FFFFFFFF02
:10030000DFF88CD023488047DFF884D0224880472C
:1003100022482349016000F045B82FE02EE02DE08F
:100320002CE02BE02AE029E028E027E026E025E089
:1003300024E023E022E021E020E01FE01EE01DE0B9
:100340001CE01BE01AE019E018E017E016E015E0E9
:1003500014E013E012E011E010E00FE00EE00DE019
:100360000CE00BE00AE009E008E007E006E005E049
:1003700004E003E002E001E000E0FFE71EF0040F0C
:100380000CBFEFF30880EFF3098029F095BD000062
:100390000000011073F20100E51A030008ED00E00F
:1003A0000000000027498D4627482849284A00F0C8
:1003B00037F828482849294A00F032F828482949BE
:1003C000294A00F02DF8294829492A4A00F028F83E
:1003D00029482A492A4A00F023F82A482A492B4A60
:1003E00000F01EF82A482B49002200F024F82A4881
:1003F0002A49091A00220260043001601C481D4984
:10040000884205D00268043003B4904703BCF7E784
:1004100000208646EC4600200021214A9047FEE756
:10042000884207D0521A05D0037801300B70013191
:10043000013AF9D17047884202D002700130FAE7E0
:1004400070470000340D001050ED06000000001051
:10045000F8040010A4040000A404000010830300AA
:1004600050ED060000000010000000101083030093
:100470001083030010830300108303001083030024
:1004800010830300108303001083030050ED060067
:1004900000F807A0A82808A0AC2808A0000080A0A9
:0404A0006BF20100FA
:1004A40008B5882016F04BFC16F056F905221146C3
:1004B400014815F007FE08BDA0CE030010B582B0B8
:1004C40013F096FB044613F09BFB0346882201922B
:1004D400064A009222460021084613F0FFFE052238
:1004E4001146034815F0EEFD02B010BDFF5555004E
:1004F400A0CE03002DE9F04F85B013F079FB074639
:1005040013F07EFB344B1C6834B1334B18680AF08B
:1005140055FB05B0BDE8F08F0646C9231A460021F5
:10052400084609F0E1FC80460125009533463A4629
:100534000021084609F0CEFD274B186064232A46A3
:100544000021084609F0D0FC8146404609F00EFE21
:100554008246882016F0F3FB16F0FEF8484609F0B0
:1005640005FE882301931D4B00936423002211464A
:10057400104613F0B3FE48460AF0D4FA0546404646
:1005840009F0F4FD4FF0640B55F8040B16F0E2FB90
:1005940022465946584618F0F3FB0134642CF3D133
:1005A4000D4B186809F0E2FD0021029101970096B5
:1005B40033460A4640460BF01DF80522114608480A
:1005C40015F080FD404609F061FD484609F05EFDE6
:1005D400504609F0CBFD98E704F807A0FF555500F5
:1005E400A0CE030038B50446456855B90E2100680D
:1005F4000CF014F94FF07F4120680CF0C2FA284641
:1006040038BD0CF063FF0546F9E7000008B5036840
:100614000F2B06D01E2B08D00E2B09D010F00AFC8D
:1006240002E0094B1B68984708BD0023C360FBE741
:10063400C3685A68002AF7D01B686E2BF4D1034BA9
:1006440001221A60F0E700BF1CF807A008F807A011
:1006540030B583B0054610F069FF0446284610F013
:100664007FFF451E0A4B01930A4B00932B46A21EA3
:100674000021012013F032FE074816F06BFB2B46D5
:10068400621E4FF0FF31002019F088F903B030BD2D
:10069400DCCEC0FFF3F3E6FFA8A851FF10B582B08B
:1006A40004460368013B1C2B36D8DFE803F02435ED
:1006B40035353535353535353535351E3135353501
:1006C400353535353535353535350F0040F2611161
:1006D400406811F01DFA044601210DF049FA104951
:1006E40020460DF02DFA02B010BD11F04FF921464D
:1006F4000FF0C5FDF7E713F07BFA00EBD070411063
:10070400412300930B460022606811F03BFDEAE7A9
:100714004068FFF79DFFE6E710F08CFBE3E700BFBE
:10072400545428FF2DE9F04182B0054643680B2B51
:1007340006D0122B37D0052B0DD00EF083FC33E0FE
:100744001B4816F007FBEB69AA696969286919F067
:1007540025F9002028E000680DF020FF04466A46D1
:1007640001A928680DF02CFF124B1D8805FB04F429
:10077400A400009B019A9B1A013394FBF3F494FBAD
:10078400F5F305FB1344641B01340426DFF82480CD
:1007940001273A462146404615F094FC2C44013E7C
:1007A400F7D1002000E0002002B0BDE8F08100BFD6
:1007B400A8A851FF10CD030010B504464368052BCB
:1007C4005DD0122B6DD14FF07F4016F0C3FA206834
:1007D40011F04AF9B0F5006F05D040F601039842D4
:1007E4002AD000205FE020680CF0EAFB00B34FF051
:1007F400FF3016F0AFFA2C4B1A682C482C4B002A09
:1008040018BF1846E2696369D21A4388D21A02EB08
:10081400D2725210A1692369C91A0388C91A01EB5B
:10082400D17149100132013115F04CFC00203AE03D
:10083400204816F08FFADEE720680CF0C1FBD0B137
:100844004FF0FF3016F086FAE2696369D21A1A484B
:100854004388D21A02EBD2725210A1692369C91AD1
:100864000388C91A01EBD17149100132013115F025
:1008740029FC002017E00F4816F06CFAE4E7006842
:100884000CF09EFB30B1626921690C4815F01AFC2A
:10089400002008E062692169094815F013FC002072
:1008A40001E00DF0EFFE10BD0CF807A0C4B3030087
:1008B400C0B20300A8A851FF3CB3030028B403004E
:1008C4009CC0030010B588B004464368053B132B55
:1008D4003FD8DFE803F00A3E3E3E3E3E3E3E3E3316
:1008E4003E3E3E113E3E414141411D4816F027FA2D
:1008F40015F032FF002030E00369ADF81830836949
:10090400ADF81C304369ADF81A30C369ADF81E3038
:100914004FF0FF3016F01EFA124816F047FA022084
:1009240016F0AEFA142201A920680CF0E7F80E22A2
:1009340006A901A817F0FDFE00200EE00A4816F0F3
:1009440009FAE369A2696169206916F09FFB002036
:1009540003E0FFF747FE00E0002008B010BD00BF31
:10096400A8A851FF70C30500C0C0C0FF08B5044B60
:100974001B8913F0080F00D108BD14F081FFFBE7B9
:1009840030F807A008B5044B1B8913F0080F00D1F9
:1009940008BD14F07DFFFBE730F807A010B58C46C6
:1009A400037863B30346194613F8012F002AFAD1DA
:1009B400C0F1010E8E44BCF1090F23D9012319465D
:1009C40003EB83035A0013460131BCFBF2F2092AFC
:1009D400F6D801EB0E03C2180024C45471B170445C
:1009E4000B4CA4FB0C13DB0803EB8301ACEB4101C0
:1009F400303102F8011D9C468242F2D110BD4FF005
:100A0400000ED8E70EF10103C2180021C154E6E735
:100A1400CDCCCCCC10B50378FBB103469E4613F87D
:100A2400012F002AFAD1C0F1010CF4440B7883B1F0
:100A340064460CF1FF3C00EB0C0E0A460EF8013F35
:100A4400944612F8013F002BF8D1C1F10101214471
:100A54008C44002300F80C3010BD4FF0000CE5E787
:100A640010B586B000230193029303930493059376
:100A74004FF4B071134B186811F04AF80446124948
:100A840001A8FFF7C7FF114B1968013101A8FFF74F
:100A940085FF0F4901A8FFF7BDFF0E4B196801A898
:100AA400FFF77CFF0C4901A8FFF7B4FF0B4B596813
:100AB400013901A8FFF772FF01A920460DF03AF8A9
:100AC40006B010BD2CF807A01083030018F807A087
:100AD400B889030024F807A01883030030F807A09E
:100AE40038B50A4B1B68012B07D10A25074C284649
:100AF40013F00CF82368012BF9D0054B1868012872
:100B040006BF00221A60002038BD00BF0CF807A001
:100B140008F807A010B584B00C4616F047F801A8F1
:100B240015F0D4FB9DF80C3043B9206801280AD194
:100B340000232360064B01221A6002E00123236094
:100B4400002004B010BDFFF7CBFF014B1860F8E79D
:100B540008F807A00023034A1360034A1360034AFA
:100B6400136070470CF807A014F807A010F807A04A
:100B740008B5044A136801331360FFF7EBFFFFF76E
:100B84006FFF08BD24F807A038B5044603680E3B80
:100B9400182B7DD8DFE803F00D467C7C7C7C7C7CC4
:100BA4007C7C7C7C7C7C7C137C7C7C7C7C7C7C7CEA
:100BB4004A0010F0EBFE21460FF061FB38BD3649C8
:100BC40040680BF0F4FF0E2160680CF02BF84FF432
:100BD4000471606810F09CFF05460E210DF03CFD89
:100BE4002E4928460DF004FD4FF40061606810F0B2
:100BF4008FFF00210EF02BF940F60101606810F020
:100C040087FF00210EF023F94FF4B071606810F0F3
:100C14007FFF044622490CF08DFF224920460CF048
:100C240071FFCBE74068FFF713FDC7E7806810F05A
:100C34001BFFE368022BC1D1B0F5006F09D040F669
:100C440001039842BAD1184B01221A60FFF782FFC0
:100C5400B4E7164B1B686BB10024144B1C6012F0F4
:100C640053FF134B1B68C31A124A136020460EF03D
:100C7400A1FDA3E70D4B01221A6012F045FF0D4BB5
:100C84001B68C31A0A4A136060680EF093FD95E767
:100C940010F0D0F892E700BF34BD05008C3A040090
:100CA4001C83030084CF050008F807A00CF807A0F4
:100CB40010F807A014F807A070B582B010F066FE13
:100CC4000FF052FC15F048FDFFF75CFE12F090FFA8
:100CD400044612F095FF054636480CF03BFB3648B7
:100CE4000CF0AAFB35480BF017FB10F04FFE03463F
:100CF4003D3D0195A4F150020092314A052131484D
:100D04000EF092FB304E306010F040FE034600259A
:100D1400019504EBD4746410013C00942B4A022125
:100D24002B480EF081FB2B4B186011F06DFA2A480A
:100D34000CF010FB29480CF07FFB29480BF0ECFA6F
:100D44004FF4B071306810F0E3FE11F05DFA10F06A
:100D54001DFE0FF0FCFB15F029FF00F0ADFF214B49
:100D64001D60214B1B681B68BBB11F4D1D4C1F4EE2
:100D7400FFF7F0FEFFF774FE22682B6853F8223069
:100D84009847002333601A4A1360236801332360B1
:100D94002A6852F82330002BEAD1124B00221A6041
:100DA400094B18680FF0B6FC0A4B18680FF0B2FC38
:100DB40002B070BDC9080000BD070000290700008B
:100DC4008D0B000094AB03002CF807A0A1060000D3
:100DD4005CAB030028F807A0E905000089E60000E1
:100DE40049F0000018F807A030F807A024F807A07D
:100DF40020F807A030B583B00546164815F0D6FF95
:100E0400284617F02DFF044612F0F2FE124B1A8802
:100E1400031B03EBD3735B10043B511D8B42DABFFE
:100E24000A4612B20022ADF800200023ADF80230C9
:100E34000138ADF80400084B5B880933ADF806307F
:100E4400022016F01DF80E226946284617F071FCA0
:100E540003B030BD2C1D0400A0CE030008B5024B26
:100E64001B68984708BD00BF1CF807A008B5064BCF
:100E74001B6813B1054B186808BD12F045FE044BFE
:100E84001B68C01AF8E700BF0CF807A010F807A009
:100E940014F807A02DE9F04105464FF40471204BE6
:100EA400186810F035FE0746642D0EDC0021384624
:100EB4000DF0CCFA2A46002138460DF0AEFB12F0B4
:100EC40023FE06464FF0050810E04FF40471144B5E
:100ED400186810F01DFE11F07EF9E7E7404612F0A5
:100EE40015FEFFF7FDFDA5420DD960B9FFF7BEFF62
:100EF400841B642DF2DD214638460DF0A7FA3846EE
:100F04000FF025FBEAE7642D01DCBDE8F0814FF426
:100F14000471034B186810F0FBFD11F075F9F4E748
:100F24002CF807A0014B58880A307047A0CE030064
:100F340070B58CB0384D00242C812C60374B1C606C
:100F4400374B1C60374B1C60374E3460374B1C608A
:100F5400374B1C60374B1C60374B1C60374B1C6095
:100F6400374B1C60374B1C6014F000FE314636488A
:100F74000BF0F8F810F00AFD344911F034F80BF0D6
:100F8400CDFF214601A80CF083FC0694214601A85C
:100F94000CF056FC012101A80CF07AFC0694012106
:100FA40001A80CF04DFC2A480CF0D4F929480BF0A8
:100FB400B3F929480CF040FA28480DF0F9F828480C
:100FC4000EF024FA27480BF01DFF022015F058FFFD
:100FD400284600F067FE12F02BFE0F280EDD2B8949
:100FE40013F0040F01D1204B09E014F0BFFD1F4B97
:100FF4001F4AB0F5001F98BF134600E01A4B0B4A76
:1010040013601C4B1B68012B02D1FFF755FEFCE754
:10101400FFF752FE0CB070BD30F807A02CF807A003
:1010240028F807A024F807A020F807A01CF807A0B8
:1010340018F807A014F807A010F807A00CF807A0E8
:1010440008F807A004F807A0190B00001106000017
:10105400E905000049F0000089E6000061EB0000AA
:10106400A9DB000001F50000A5040000F90400005C
:10107400C104000000F807A008B5FFF70BFFFFF755
:1010840077FD08BD2DE9F0411546002847D00C46F0
:101094000746002943D012F0ABFD064612F0B0FD1E
:1010A400804606EBD6767610FFF76CFC2E4B18685C
:1010B40011F0AAF82D4B186811F08DF815F076FD93
:1010C400FFF7CCFE4FF0FF3015F044FE022015F080
:1010D400D7FE274815F06AFE3C223146384617F001
:1010E400EFF9244815F062FE18F032F908EBD878CD
:1010F400C0EB68020A323146204617F0E1F9237842
:1011040013B323461A4613F8011F0029FAD1C4F178
:101114000100104400EB80000001FFF7ADFF15F063
:10112400010F13D0FFF72EFC15F0020F11D00E4B58
:10113400186811F050F815F0040F0FD00B4B186815
:1011440011F049F8BDE8F0810020E3E7FFF70EFC59
:10115400EAE7054B186811F057F8ECE7034B1868F9
:1011640011F052F8EEE700BF28F807A02CF807A00A
:101174002C1D0400340A04002DE9F04F9DB008AC86
:1011840084E8030005921E46BDF82030BDF82220F5
:10119400033297B2029715B2BDF82620033A12B271
:1011A400521BD84981FB0201A1EBE274DA1CADF8B1
:1011B4006820ADF86A503E33ADF86C30A3B20393A7
:1011C40003EB43033B441BB20493ADF86E30CE48AB
:1011D40015F0ECFD4FF0FF3015F0BCFD01230E229D
:1011E4001AA9304617F0BEFA00223F211AA815F0BA
:1011F400ACFC4FF07F4015F0ADFD1AA815F072FF5E
:101204001AA815F090FDBDF968A0BDF96C309A4498
:101214000AEBDA7A4FEA6A0ABDF96A90BDF96E30D0
:10122400994409EBD9794FEA69090AAEB74F0FCF50
:101234000FC60FCF0FC60FCF0FC697E80F0086E873
:101244000F004FEA8A0A4FEA890919F01BFB0420B0
:1012540019F008FB002637464FF08C0845F2E47B72
:1012640006950794384615F043FE0446384615F0B3
:101274007DFE0546724206F00F0302F00F0258BFCE
:1012840053421CAA02EB830353F8480C15F062FD89
:1012940008FB04F4002CBCBF04F57F44FF3409EBC5
:1012A400244108FB05F00028BCBF00F57F40FF3057
:1012B40042460AEB204019F077FB5F440136102EBA
:1012C400D0D1069D079C19F0D5FA002015F02BFD0E
:1012D4004FF0FF3015F03EFD059815F067FDBDF8A1
:1012E4006A30DDF80CB05B44ADF86E30884E0E22E7
:1012F4001AA9304617F01DFA224600211AA815F043
:1013040024FC0E221AA9304617F013FA22460021B3
:101314001AA815F01AFC0E221AA9304617F009FA79
:10132400ADF86A50049BADF86E3000223F211AA834
:1013340015F00BFC4FF0FF38CDF804804FF07F47D9
:101344000097BDF96E30BDF96C20BDF96A10BDF986
:10135400680012F0FBFFBDF86A305B44ADF86E30F4
:10136400DFF8B0A1504615F0F5FC0E221AA930465C
:1013740017F0DFF9224600211AA815F0E6FB4FF01A
:10138400FF2015F0E7FC0E221AA9304617F0D1F918
:10139400224600211AA815F0D8FBDFF87C914846B4
:1013A40015F0D8FC0E221AA9304617F0C2F9ADF890
:1013B4006A50029A5A440FFA82FBADF86EB00022CA
:1013C4003F211AA815F0C1FB504615F0C3FC1AA81A
:1013D40015F088FE224600211AA815F0B6FB4FF03E
:1013E400FF2015F0B7FC1AA815F07CFE2246002158
:1013F4001AA815F0AAFB484615F0ACFC1AA815F07B
:1014040071FE404615F0A6FCADF86A50ADF86EB01A
:101414000E221AA9304617F08CF9224600211AA888
:1014240015F093FB0E221AA9304617F082F92246D2
:1014340000211AA815F089FB0E221AA9304617F0CC
:1014440078F9ADF86A50ADF86EB000223F211AA8C1
:1014540015F07BFB0197CDF800A0BDF96E30BDF906
:101464006C20BDF96A10BDF9680012F037FF2246FE
:1014740000211AA815F069FB01974FF0FF23009390
:10148400BDF96E30BDF96C20BDF96A10BDF9680074
:1014940012F024FF224600211AA815F056FB0197EA
:1014A400CDF80090BDF96E30BDF96C20BDF96A101D
:1014B400BDF9680012F012FFADF86A50ADF86EB0D5
:1014C400404615F047FC0E221AA9304617F031F9B0
:1014D400224600211AA815F038FB0E221AA930461C
:1014E40017F027F9224600211AA815F02EFB0E2228
:1014F4001AA9304617F01DF9002015F014FC1DB090
:10150400BDE8F08F5655555570C3050020AC030057
:10151400488303000000FFFFFF0000FF2DE9F041B6
:1015240082B012F065FB054612F06AFBB5F5A07FA8
:1015340002DB0446EF2807DC052227492748FFF78A
:10154400A1FD02B0BDE8F081244F052224493846AC
:10155400FFF798FDFFF782FC012012F063FA0646BC
:101564003846FFF747FCFFF7DDFCA5F5A07303EB56
:10157400D3735B10ADF8003082B2A4F1F00707EB2F
:10158400D777C7F34F07D119ADF80210ED1AADF8AC
:101594000450231A03EBD37302EB6305ADB26B1E45
:1015A400ADF806300F4B104AE84698E80300FFF701
:1015B400E3FDADF80250E41BADF806400B4B0C4ABA
:1015C40098E80300FFF7D8FD4FF47A60FFF754FD65
:1015D400304612F027FAB4E74C830300B4830300C7
:1015E400C8830300FC830300140804001884030068
:1015F400BC0604002DE9F84F8846174608F0B6FDEE
:101604008246184815F0D2FB022015F039FC15F07B
:1016140041FA00EBD070461007F159040B3F022544
:10162400A8F1070BDFF84090C6F107062246594699
:10163400484614F047FD3119404615F00BFB0220D3
:1016440015F00EFC4FF07F4015F084FB284611F096
:101654009AFE143C0235BC42E8D1504608F086FD9F
:10166400BDE8F88F98B0030074AD03002DE9F04F86
:10167400ABB0052298499948FFF704FDFFF7EEFB4C
:101684009748FFF7B7FB974D0CAE2C460FCC0FC60F
:101694000FCC0FC694E8030086E8030016AE0FCD06
:1016A4000FC60FCD0FC694E8030086E8030012F0BE
:1016B4009FFA044612F0A4FAA4F1AC0303EBD3732B
:1016C4004FEA63087A3800EBD070431019461C4681
:1016D4007B23B422404608F041FD029010B92BB0A0
:1016E400BDE8F08F0AF00EF920A9002202F00103F0
:1016F4005B00013B41F8043B01320A2AF6D1224641
:1017040041460020FFF776FFFFF7B0FB0990402326
:1017140003930123089304F17A09734E2746A1E049
:101724005BF82430A9EB030204EBD4704010C0F141
:10173400040000935346063A294656F8200015F053
:10174400DBFC013410350A2C13D0052CE8DC5BF8E3
:101754002430A9EB030204EBD470401000935346E9
:10176400063A294656F8200015F0C6FC0134103517
:10177400EBE7ADF8288008F10303ADF82C30ADF8A1
:101784002A70ADF82E900AA815F0CDFA574815F036
:10179400E1FA572013F01EF9042400944B46DDF8B7
:1017A4001CA052463946404616F04EFD002015F066
:1017B400BAFA07F17903039D08EB0502791C08EBDB
:1017C400040015F063FCFF2013F004F9484815F0F9
:1017D400C1FA00944B4652463946404616F08AF9FF
:1017E4003A464146029C2046FFF704FF204608F093
:1017F4003BFD069808F0BAFC2B46089A1344039361
:10180400093B9A2B84BF5342089316A90CAD0DF1E2
:10181400800C644604E0524244F8042C61450FD025
:101824000B6854F8042B134441F8043B55F8040B9B
:1018340000F10A0E7345EEDC0A388342EEDAEAE779
:10184400FFF714FB049BC01A1E283DDCC0F11F00E7
:1018540012F05CF9FFF744F943F69723059A9A428C
:1018640035DCA0BBFFF702FB0490099A831A0593A9
:10187400029808F07BFC06901E4815F06BFA08F1FC
:10188400AC031A460793042300934B46394640465B
:1018940016F0DAFC184815F05DFABC1D07F17E0B52
:1018A40008F1AA0A08F1020552462946204615F015
:1018B40063FB0A345C45F7D108F1080500240DF1F7
:1018C400580B4FF0010A40E715F070F9C2E702988F
:1018D40008F0DCFB03E700BF3484030060840300EA
:1018E4006C84030078B2030060AC0300D99100FF5C
:1018F4000094F3FF4A2210FF774830FF2DE9F04FA0
:10190400CDB0C94A49AB07CA03C31A807722C74975
:101914002BA833F010FC5022002117A833F034FC1C
:1019240012F066F9079012F06BF90546B0F58C7F5A
:10193400C0F2A181B0F1780748BF0F373F110522EB
:101944002BA949A8FFF79EFBFFF788FA4FF0FF3059
:1019540015F000FAB64815F029FA079B03EBD3718A
:101964000C224910B34816F0ABFDB34815F01EFA2B
:101974004FEA470A17F0ECFCAAEB000000EBD07426
:1019840064103C3422460121AC4816F085FD5444D1
:1019940022460121AA4816F07FFDBE000396544456
:1019A40022460121A74816F077FD0AEB07035B00E6
:1019B4000593544422460121A34816F06DFDFB0013
:1019C4000493544422460121A04816F065FDF319FE
:1019D4005B0006935444224601219D4816F05CFDA9
:1019E4000AEB07039B0015930AEB040201219948B3
:1019F40016F052FD984815F0D9F912F019F901467C
:101A040017A8FEF7CBFF954917A8FFF703F809209D
:101A140013F052FF0446002840F02F81A5F119026B
:101A24000C2117A816F038FDFFF720FA814607EBC2
:101A3400470303F13B02089203F13C02099207EBCE
:101A4400870202F13B010A9102F13C010B91C7EBC1
:101A5400C70101F13B000C9001F13C000D9007EB34
:101A6400C70000F13B040E943C300F9007EB420298
:101A740002F13B0010903C32119207EB830303F117
:101A84003B0212923C331393490001F13B0314933C
:101A9400DFF8CC81BB4641F26F76FFF7E7F9A0EBA4
:101AA4000900B04200F3F680FFF71AF8002840F06E
:101AB400F180FFF7DBF9A0EB090088FB0023C417D2
:101AC400C4EBE3144FF4FA6303FB140488FB04230C
:101AD400E517C5EBA315634B03FB054415F066F846
:101AE400B4F5FA7FD9DCC4EB042488FB0423E4179F
:101AF400C4EB6314C5EB05256C4004EB042304EB31
:101B04000324C4F1FF1606F57F46079BA3F13C05A9
:101B14000194554F00970BF13B032A463C2108469C
:101B240012F014FC019600970AF13B032A460BF1CC
:101B34003C013C2012F00AFC01944FF0FF2700976F
:101B4400089B2A460AF13C013C2012F0FFFB019657
:101B54000097039B3B332A4609993C2012F0F6FB7D
:101B64000194424F00970A9B2A4603993C313C203A
:101B740012F0ECFB01960097059B3B332A460B9928
:101B84003C2012F0E3FB0194394F00970C9B2A464A
:101B940005993C313C2012F0D9FB01960097049B37
:101BA4003B332A460D993C2012F0D0FB01946FF090
:101BB400FF0700970E9B2A4604993C313C2012F003
:101BC400C5FB01960097069B3B332A460F993C20A0
:101BD40012F0BCFB01946FF47F070097109B2A4618
:101BE40006993C313C2012F0B1FB01960097159FF9
:101BF40007F13B032A4611993C2012F0A7FB0194FC
:101C04006FF47F440094129B2A4607F13C013C2068
:101C140012F09CFB01960094149B2A4613993C20D5
:101C240012F094FB26E000BFD0840300DC840300A0
:101C34002C1D04007C840300340A040088840300FF
:101C44008C840300948403009C840300A484030014
:101C5400AC840300B484030084CF0500BC84030077
:101C6400D34D621018FCFFFF0000FFFFFF0000FFD0
:101C7400808080FF0FE70A2761E6084917A8FEF76E
:101C8400C9FE214617A8FEF789FE054917A8FEF7E5
:101C9400C1FEC3E64DB0BDE8F08F00BFC4840300AD
:101CA400C8840300034B0360042343600D230381B2
:101CB400704700BF000000102DE9F04389B06C4666
:101CC400404D0FCD0FC42B6824F8023B1B0C23702E
:101CD4000023CDF81330CDF81730CDF81A3011F0B9
:101CE40087FF064611F08CFF0446FFF7B7F8022081
:101CF40015F0C6F84FF0FF3015F02CF8DFF8C88067
:101D0400404615F053F87508A700C4F31912294684
:101D14002E4816F0D5FBDFF8B890484615F046F883
:101D24003A1904EB4202920929462A4816F0C8FBE4
:101D3400294815F00FF8162704FB07F7BF093A46A0
:101D44002946264816F0BCFB254815F02FF807F164
:101D540012022946234816F0B3FB4FF0FF3014F06B
:101D6400F9FF484615F022F814F0B4FE014668461F
:101D740033F0F0F8C4EB441292092946684616F091
:101D84009FFB262204FB02F217480388F11A9209EA
:101D9400490814F097F94FF0FF3014F0DBFF404688
:101DA40015F004F8C4EBC404C4F3D90229460F485F
:101DB40016F086FB41F28830FFF76CF809B0BDE8F5
:101DC400F08300BFA0B203002C1D0400548503005F
:101DD400340A04005C8503002288FFFF9485030015
:101DE40090C80500BC85030054DC0300DC850300B7
:101DF40030B589B00023019302930393114C124D23
:101E04002378012B19D0642204A928682FF05CFBE5
:101E140003460028F4D1079A012A09D04FF0FF3273
:101E2400019202928DF80C3001A814F083FAE7E7CE
:101E3400059B0193069A0123F3E70020014B1870D8
:101E440009B030BD4CF807A050F807A008B5064B00
:101E54001968064B186831F0F4F914F035FD0020C8
:101E6400034B186008BD00BF50F807A054F807A042
:101E740048F807A030B585B00446404830F016FF56
:101E84003F4B186098B1037803703D4B1A683D4B83
:101E94001A603D4B394A1A603C4B1B684BB13C4BB2
:101EA4001B68C3B103A93B4830F031FD38B305B01A
:101EB40030BD1DF099F94FF4FF22002133F064F98D
:101EC4002E4A00212E4B186833F05EF92F4B4FF049
:101ED400FF321A60E3E7042010F0A2F814F06EFC5D
:101EE4004FF07F4010F0BCF8022017F03FFB0120B8
:101EF4000FF0C8F8264B4FF0FF321A60D2E7264A9B
:101F0400102101202FF029FA18B1039830F016FDA2
:101F1400CDE7214A2149224831F026F920B11E4B50
:101F240018682FF03CFAF0E71E4B0193042300934A
:101F340000234FF480621C491C482FF065FB80B9D4
:101F44000A221B49A06832F04EFFA0B1194B0122AE
:101F54001A7015461C4628462FF0E8F82378012B02
:101F6400F9D0FFF773FF064B186830F0A7FE074B54
:101F740000221A60D3E7FEF7DBFFE7E700F83F0033
:101F840040F807A0001508A0FC1408A03CF807A01E
:101F940048F807A0EC85030050F807A054F807A000
:101FA400F085030044F807A0FC850300F51D00003C
:101FB400248303004CF807A0024B4FF0FF321A6051
:101FC400704700BFE0F807A02DE9F04F91B0044638
:101FD40027F0F8FA0FAA0021204630F0BCFC4E4E40
:101FE4004FF4F84307930025069547F6E0770597E5
:101FF4000223049340F20F13039340F2DF1302937E
:10200400019500950F9B4FF488724FF4F0713046A0
:1020140026F090FA414C2146304626F0BEFD30466B
:1020240026F0BDFD80461F223D49304626F0CAFDFC
:10203400ADF83450ADF83650F369ADF83830336A42
:10204400ADF83A303946304626F0AFFA21463046EC
:1020540026F0A3FD0BAFC82239460DA827F00AFDD0
:10206400BDF82CB0BDF82E90BDF83240DFF8B4A016
:10207400C8225146384627F01DFDADF82CB0ADF806
:102084002E90ADF83240544634F86039063BADF832
:1020940030300DF124092B4640224946384627F0BA
:1020A400C3FC99E8030087E8030008F122022B46E9
:1020B40092B24946384627F071FCBDF824302AF81C
:1020C400603CBDF82830A380BDF8263063802033FF
:1020D400E380154BA360154BE360154B2361A561A9
:1020E400E561A5622146304626F0A5FF2946304623
:1020F40026F05DFAB4F866300093B4F86430B4F8AE
:102104006220B4F86010304626F0BBF927F06EFA6E
:10211400A56611B0BDE8F08FF0F807A0E4A00600B2
:1021240008860300C0F807A02C860300BD1F00002A
:10213400A450050010B582B0104C0021204626F0B2
:1021440036FA0021204626F030FA0021204626F0F7
:1021540031FA0B4B196809120A4B1A681212131D33
:1021640000930B1D053A0539204626F08AF9002113
:10217400204626F01FFA02B010BD00BFF0F807A0F9
:10218400ECF807A0E8F807A02DE9F04F8DB0002285
:102194004E4B1A604E4B5A679A67DA67DA661A67CB
:1021A400B3F86020B3F864100A44521049490A6035
:1021B400B3F86220B3F8663013445B10464A1360E8
:1021C400464A102101202FF0C8F810B10DB0BDE827
:1021D400F08F424C424A434920682FF0F5F82246DA
:1021E4000AA9414830F0C0FF20B13C4B18682FF0D9
:1021F400D6F8EBE70BA93D4830F089FB28B1374B03
:1022040019680A9831F01DF8EFE709AA00210B9824
:1022140030F0A1FB08A936482FF0EAFC18B10B985E
:1022240030F08CFBEBE7334908982FF0CDFC002805
:10223400F5D10B98FFF7C8FE2FF096F90446234B0F
:102244001B68002BEBD1DFF89490DFF884802A4FD1
:1022540084E01F4B0022DA661A6710264FF00A0B3F
:10226400DFF890A01D4658462EF060FFDAF8000013
:1022740003685B69642205A99847EB6E059A1A44C2
:10228400EA662B6F06990B442B67013EEBD111468E
:10229400002AB8BF02F10F0109110D4AD1661A468E
:1022A400002BB8BF03F10F021211094B1A674FF04C
:1022B400FF325A672FF058F9104B186075E04FF44D
:1022C40096329DE04FF49633A4E000BFE0F807A0F7
:1022D40060F807A0ECF807A0E8F807A05CF807A0EE
:1022E400EC3B040034860300F0850300EC85030016
:1022F40040860300E4F807A0F0F807A058F807A008
:10230400B04200F0E780774B9B6E002B40F0E680F4
:10231400754B1E60754B1D603312053B03932B12E6
:10232400053B0493724D04AA03A9284626F051F9EB
:10233400284627F001FCBDF81020BDF80C106D48AC
:1023440027F0A8F9674B4FF0FF329A6614202EF05D
:10235400EDFE694B1B68002B7FF461AF0023D9F8B5
:1023640000204146384627F05DF8054626462FF002
:10237400FBF80446002DE9D1B042E7D05F4B186862
:1023840003685B69642205A9984705462FF0ECF8B9
:102394005B4B1A681860002DD8D1524B5B6F0193C8
:1023A400002B3FF456AF831A01934E4BD96E059A16
:1023B400521A0592196F069B5B1A0693019901FB49
:1023C40002F2002ABCBF02F57F42FF3212144549D3
:1023D400896F01EB4222019901FB03F3002BBCBF7F
:1023E40003F57F43FF331B143E49C96F01EB4323BD
:1023F400B2F5963FBFF663AF42498A42B8BF0A4678
:1024040038498A67B3F5963FBFF65CAF3D498B42C6
:10241400B8BF0B46DFF8CCC0CCF87C303249086832
:10242400DDF804A00AFB02F1DFF8DCE08EFB0165B5
:10243400CE17C6EBA51606442C4909680AFB03F51A
:102444008EFB05AEED17C5EBAE150D44BCF864C0AC
:10245400ACF1060C4FEA0C2EB6EB0C2F06DD02EBAA
:10246400D272521052421F4EB26776461D4AB2F8DB
:10247400602006324FEA022CB6EB022F07DA194E1F
:10248400B26F02EBD27252105242B2676646154ADC
:10249400B2F86620063A4FEA022CB5EB022F06DDAD
:1024A40003EBD3735B105B420E4AD36765460D4B57
:1024B400B3F8623006334FEA032CB5EB032FBFF6B3
:1024C4001FAF084AD36F03EBD3735B105B42D36730
:1024D400654615E7A9427FF416AF37E7FFF72AFEF2
:1024E40016E700BF60F807A0ECF807A0E8F807A01B
:1024F400F0F807A064100500E0F807A0E4F807A0CE
:1025040058F807A000D4FEFFD34D6210034B0360BC
:10251400034B0B6080231360704700BFA8FD07A026
:10252400A8FB07A0034B0360034B0B6080231360DD
:10253400704700BF50FB07A050F907A083694FF014
:10254400FF329A66704700002DE9F04FA9B00446A7
:1025540000F16C0B27AA0021406830F0FCF927F049
:1025640031F805202EF0E2FD04F108084FF4F84399
:1025740007930023069347F6E07205920222049221
:1025840040F20F12039240F2DF1202920193009381
:10259400279B4FF488724FF4F071404625F0CAFF30
:1025A4006B49404626F0F9FA6A4B1B68002B40D071
:1025B40023681A6840F2E97302930E2301930723F8
:1025C4000093654B1B68654908A832F09BFC1F22E9
:1025D40008A9404626F0F6FA0021404625F0E7FF18
:1025E400404626F0DCFA05460023ADF89430ADF8F9
:1025F4009630636AADF89830A36AADF89A30082132
:1026040025A827F09FF923685E689B68C3B95C46D8
:10261400BDF89A20BDF89630D21AA93A521B00236D
:10262400C2F34F021FA925A827F096F94FF0020A1A
:1026340035E023681F221968404626F0C3FACBE729
:1026440005F12202022392B223A925A827F0A6F9B4
:10265400402221A923A827F02DFABDF88420A4F84C
:102664006C20BDF88630A4F86E303F32A4F8702098
:102674001F33A4F872303A4B63673A4BA3673A4B63
:10268400E367C4F884400023C4F88830A4F8803099
:102694008C34BDE7A5F11006BAF1010A48D03368BD
:1026A400002B45D02823402223A925A827F054F93C
:1026B400BDF89820BDF89430D21AA2F25912002322
:1026C400C2F34F021FA923A827F08AF906F11005C7
:1026D40004F180074FF01E092E4655F8103C002BDC
:1026E400D8D04B46402221A923A827F079F9BDF878
:1026F40084302380BDF886306380BDF88830A380A1
:10270400BDF88A30E38055F8103CA36055F80C3CC2
:10271400E36055F8083C236155F8043CA3610023A9
:10272400E361A38220341035BC42D5D13C46B3E7E3
:102734000023A3605946404626F07DFC30F0B0FAF1
:1027440010B129B0BDE8F08F26F058FFF9E700BFBB
:10275400E4A00600E80808A0EC0808A048860300E6
:102764002C86030041250000A45005002DE9F0410A
:1027740082B005464FF4D67030F098FA04466A46A3
:10278400102101202EF0E9FD08B1002300935CB173
:102794004FF4D6720021204632F0F6FC2560009BEF
:1027A4002BB9204630F08AFA02B0BDE8F0816A46BF
:1027B40001A9234830F0D8FC18B100982EF0EFFDA1
:1027C400EFE7211D1F4830F0A2F820B100990198CD
:1027D40030F037FDF1E72046FFF7B6FE04F16C0850
:1027E400194F04F1080605E02046FFF7ADFE09E0A5
:1027F4003B68BBB9A36EF3B9EB681BB1984710F003
:10280400010FF1D14FF0FF33009A4146304626F0D4
:1028140009FE0028ECD0A36E002BE9D12046FFF777
:1028240093FEE5E706F098FB2046FFF78DFE064B86
:1028340000221A60D5E7606830F080F8C6E700BF70
:10284400F0850300EC85030000FE07A008B580694D
:10285400FFF78CFF08BD000070B504460D460E4B13
:102864001B6883B100202FF0B3F80C4B1E681CF0DA
:10287400D1FC2A46B0FBF4F1304630F072FB002064
:102884002FF078F870BD0549054830F053FB024B32
:102894004FF0FF321A60E5E704FE07A008FE07A028
:1028A4007486030008B51421FA20FFF7D5FF08BD8C
:1028B40008B54FF4FA716420FFF7CEFF08BD8369B1
:1028C4004FF0FF32C3F8E4207047000010B582B027
:1028D40004460F4B1B68B3B9002125F068FE47F688
:1028E400E071204625F061FE0A4883884288018809
:1028F400C08801380090013B01320131204625F0A7
:10290400C0FD02B010BD47F6E07125F050FEE6E7C9
:1029140014FE07A018FE07A010B58EB0044603A944
:102924001C482FF0F4FF1C4B1B68B3F1FF3F2AD067
:10293400194B4FF0FF321A6041F28833059342F28B
:102944001073069347F2305307934FF47A7304934A
:10295400124B0A93124B0B93124B0C93124B0D9385
:102964004FF4887300934FF4F07340226F210F48A3
:1029740027F01AF904A9039830F02CF9A069FFF79D
:10298400A5FF0EB010BD044B00221A6030F05EF9B2
:10299400F4E700BFEC85030014FE07A0DD9B0200F2
:1029A400999C0200E99D0200619E0200843F04009C
:1029B4002DE9F04F97B04FF48A7030F077F91A4B45
:1029C4001860A8B104464FF48A72002132F0DCFB8F
:1029D4004FF0FF33C4F80431144A102101202EF0C3
:1029E400BCFC40B1104C206830F068F9002323602F
:1029F40017B0BDE8F08F0D4A15A90D4830F0B4FBAF
:102A040020B10A4B18682EF0CAFCEBE7064B196894
:102A1400603108482FF07BFF70B1044B196815989A
:102A240030F00FFCEDE700BF10FE07A00CFE07A07E
:102A3400F0850300EC850300C84C236803F5887215
:102A440003F58671186E2FF0CCFF246826F0BAFDCA
:102A540008AA0021206E2FF07EFF4FF4F84307935D
:102A64000025069547F6E07BCDF814B002230493C5
:102A740040F20F13039340F2DF1302930195009584
:102A8400089B4FF488724FF4F071204625F052FDF4
:102A9400B349204626F081F8204626F080F8C4F891
:102AA40000011F22AF49204626F08CF859462046E3
:102AB40025F07BFD2946204625F079FDADF824500C
:102AC400ADF82650E369ADF82830236AADF82A3012
:102AD4000DF124090821484626F034FFD4F80031CA
:102AE40003F126020BAE052392B23146484626F086
:102AF40055FF0DAF96E8030087E803000523402245
:102B04003146384626F06CFF0121304626F01AFF84
:102B1400BDF82C30A4F864303F33A4F86830BDF815
:102B24002E30A4F866301F33A4F86A308E4BE36667
:102B34008E4B23678E4B6367E467C4F8805097E835
:102B4400030086E8030064223946304626F0B2FFCB
:102B5400BDF83A30BDF836209B1A03EBD3735A10F4
:102B64000632844E052392B23146384626F016FFCB
:102B7400B6F80080204626F012F808F110088044C8
:102B8400A6F80480B6F80280204626F008F808F17A
:102B9400100880441FFA88F3F3803288A4F8842054
:102BA400B288A4F888207288A4F88620A4F88A3011
:102BB400714BC4F88C30714BC4F89030C4F8945005
:102BC400C4F89C40C4F8A050BDF82880BDF8243057
:102BD400A8EB0308A8F21318694BA3FB0838C8F341
:102BE4004F0843462A463946484626F0F9FE04F182
:102BF400F00A434654225146484626F0F1FE04F1B9
:102C0400F80804224146504626F054FF1421404659
:102C140026F07CFE2B46C0223946484626F0E0FECC
:102C2400C02204F1E801384626F024FF4C4920462E
:102C340025F0B3FF0121204626F01BF82946204643
:102C440025F0B8FC5946204625F0AFFC9AE803006D
:102C540089E80300BDF82A300093BDF82830BDF898
:102C64002620BDF82410204625F00BFC98E803002C
:102C740089E80300BDF82A300093BDF82830BDF878
:102C84002620BDF82410204625F0FBFB2046FFF744
:102C94001DFE3588204625F082FF738842190833CB
:102CA40016323849204625F03DFF0126770207F405
:102CB400F84700253946204625F077FCB4F8EA2089
:102CC400B4F8E81032442944204625F0C5FA013509
:102CD400C02DEFD10136412EE8D10126370107F48A
:102CE400787700253946204625F05FFCB4F8EA20C1
:102CF4003244B4F8E81040322944204625F0ACFAB6
:102D04000135C02DEED10136412EE7D10126C6F39F
:102D1400440700253946204625F047FCB4F8EA204C
:102D24003244B4F8E81080322944204625F094FA5D
:102D34000135C02DEED10136412EE8D147F6E071C0
:102D4400204625F032FC04F16401204626F073F994
:102D540026F04CFC014E0C4F2FE000BF10FE07A0E4
:102D6400E4A006007C8603002C860300C328000030
:102D7400A450050018FE07A0F4A403001D290000B8
:102D8400ABAAAAAA988603000CFE07A00021C2F8E9
:102D94000C11106E2FF017FE604B1B684FF0FF32C2
:102DA400C3F8042130680FAA00F1640126F094F9F5
:102DB4003468D4F80431002B3CD13368D3F8E420D0
:102DC400002A40F0A6804FF4FA720FA938682EF05A
:102DD4007BFB0028ECD1109B1493119B139313AA33
:102DE40014A9306825F0EAFB129B012BDAD1326872
:102DF400139BB2F8F2109942D4DCB2F8F6108B426D
:102E0400D0DC1499B2F8F0008842CBDCB2F8F400BC
:102E14008142C7DCB2F8FE008342B7DCC11AD2F8A3
:102E2400103103FB01F1431CB2F8FA001B1AB1FB89
:102E3400F3F1ACE70121204625F01BFFB4F8F8803C
:102E4400B4F8FAB0B4F8FC90B4F8FEA004F58872B3
:102E540004F58671206E2FF0C4FDAAEB0B02D4F8A2
:102E64000C3102FB0333D4F81021B3FBF2F5AAEBC7
:102E74000505D4F808319D422CD08BBB0121204696
:102E840025F098FB47F6E071204625F08EFBCDF83F
:102E940000A04B465A464146204625F0F2FAC4F8B3
:102EA40008510021204625F085FB47F6E0712046B5
:102EB40025F07BFB0021204625F079FBD4F808217E
:102EC400531D009309F10F03053AA8F10F012046A1
:102ED40025F0D7FA114B1B680022C3F804216CE7D4
:102EE4000021204625F066FB0021204625F05DFBED
:102EF4000021204625F05BFBD4F80821531D0093E4
:102F040009F10F03053AA8F10F01204625F0B9FA9B
:102F1400B4E7186E2FF012FD7FE500BF10FE07A086
:102F2400F0B583B006460C4615464FF4F8430193BA
:102F3400131D00930B1D043A043926F08DFB002762
:102F44000197EB1C0093E31CEA1EE11E304626F0B9
:102F540083FB47F6FF730193AB1C0093A31CAA1ECB
:102F6400A11E304626F078FB01976B1C0093631C6E
:102F74006A1E611E304626F06FFB03B0F0BD0000F0
:102F840010B5A2B021A93F482FF0C1FC08B122B06E
:102F940010BD21982FF0FDFC4FF4807121982FF083
:102FA40012FD26F00FFB20AA002121982FF0D3FC5C
:102FB4004FF4F84307930023069347F6E072059213
:102FC4000222049240F20F12039240F2DF120292A4
:102FD40001930093209B4FF488724FF4F07108A87A
:102FE40025F0A8FA284908A825F0D7FD1F2227496B
:102FF40008A825F0E7FD08A825F0D1FD84B2244BEC
:103004001B78012B23D023464FF4F072214908A8E2
:1030140025F094FD63004FF4F0721F4908A825F0D1
:103024008DFDC4F144039B004FF4F0721B4908A8C2
:1030340025F084FDA4EB840404F588734FF4F07246
:10304400174908A825F07AFD26F0D0FA9FE7234611
:103054004FF4F072134908A825F070FDC4F144033D
:103064009B004FF4F0720D4908A825F067FDA4EB0E
:10307400840404F588734FF4F072094908A825F014
:103084005DFDE1E7EC850300E4A00600AC860300E7
:1030940024FE07A02C87030050870300EC8603005E
:1030A40010870300C48603002DE9F04F99B0059002
:1030B4008B46144600234FF0FF36DFF880A2A04A67
:1030C40002F110070A9625460B979E4A137058463C
:1030D40030F002F81DB99C4B1B68032B11D0FFF78D
:1030E4004FFFDFF85C92984E002306931F46B046CC
:1030F40087E001234FF0FF35E7E701234FF0FF3569
:10310400E3E7924C8E4A214658462FF0FFFF0B9A74
:1031140004F1100158462FF0F9FF894B03F1200206
:1031240004F1200158462FF0F1FF58462FF0E1FF3B
:103134000446DAF800300A95DAF800304BB9002C6E
:10314400D7D10A9B002BD8D17F4B00229A6402F07E
:10315400B3FF19B0BDE8F08F1597169701352046D7
:103164002DF0E4FF032D40F2CD80049B9B081593C2
:10317400B608169614AC099A214658462FF0C6FF95
:1031840008F1040594E80F0085E80F00069D6C1C07
:103194006D4B1C60FFF786FBBDF81C10BDF82020AA
:1031A4000197131D00930B1D043A0439059826F06A
:1031B40053FA25B1DAF80030E3B9322510E0FFF70D
:1031C400DFFEDAF80030002BF7D009F1100908F11E
:1031D400100815E028462DF0A9FFDAF800304BB9A5
:1031E40014A958462FF014FF0028F3D1149B13F0B0
:1031F400010FEFD1032C74D009F1100908F1100864
:103204000694CDF82490D9F804300793D9F808200F
:10321400089292B299B20598FFF782FE03973D4651
:103224003E46049732246DE0DFF824910DF1300816
:1032340032250394049317E028462DF077FF14A950
:1032440058462FF0E5FE0028F6D1149B13F0010F29
:10325400F2D14FF496702DF069FF09F1100908F1CD
:10326400100814AB984522D0D9F80460D9F8087036
:10327400BAB2B1B20598FFF753FE44462146584608
:103284002FF0C6FE0028F9D1236813F0010FF5D002
:10329400FFF708FBB1B2BAB200230193131D0093E8
:1032A4000B1D043A0439059826F0D6F9C7E7039CA8
:1032B400049B0D9AA2F5CB72302A3FF63DAF0E9ACD
:1032C400C63A302A3FF638AF119AD83A302A3FF638
:1032D40033AF129A703A0A99302A98BF19460A9164
:1032E4002AE758462FF005FF0446DAF80030002B91
:1032F4009AD000230A931FE74FF0FF33039320462D
:103304002DF014FF14A958462FF082FE0028F6D1A0
:10331400DAF80030B3F1FF3F3FF41EAF149B13F013
:10332400010FE9D0039B002BE9D0159B049A1A44A2
:103334000492169B1E44013511E700BF00FE07A04E
:10334400103C040024FE07A0F80708A0FC0708A00E
:10335400F03B040010B584B00446184A1021012043
:103364002DF0FBFF10B1002004B010BD134A03A9D7
:1033740013482FF0F9FE20B1104B18682EF00FF807
:10338400F1E702A90F482FF0C2FA28B10B4B1968D4
:1033940003982FF056FFEFE701AA002102982FF0BF
:1033A400DAFA094B9B6C002B0CBF22464FF0FF321C
:1033B40003990198FFF778FEE8E700BF20FE07A015
:1033C400F0850300EC850300F80708A030B587B04A
:1033D400002205A911482FF0C7FEE0B905243225C3
:1033E40001A905982FF014FE019B13F0010F10D0D2
:1033F40028462DF09BFE013CF2D14FF0FF34002112
:1034040005982FF01EFF0A202DF090FE204607B0ED
:1034140030BD0024F3E74FF0FF34F7E7F0850300F5
:1034240008B54FF0FF30FFF795FF08BD7047000067
:103434002A4B186800B970472DE9F04F83B04FF05C
:10344400FF312DF0E9FE264C2649204625F0A5FB48
:103454000021204625F00DFC0021204625F0ACF883
:103464004FF47871204625F0A0F8DFF87CB01F4BAC
:1034740001934FF01B0AA04640F2D1171EE0083416
:10348400BC4211D015F8012F16F8013F9A42F6D02C
:103494004A462146404625F013FA2978404625F04D
:1034A40080FA2B783370EAE70AF1080A0BF12D0B46
:1034B400019B2D330193BAF1E30F04D0D146019E51
:1034C4005D466924DEE70121054825F0D2FB034B64
:1034D40018682DF0BBFE03B0BDE8F08F2CFE07A0EA
:1034E400040708A03CAA06009B0208A033FE07A01C
:1034F40070B5144901F587660B462D310A4601F172
:1035040020051468D2F804E0D2F808C0D0681C6022
:10351400C3F804E0C3F808C0D86010321033AA42DC
:10352400EFD11568546890681D605C609860127BE8
:103534001A73B142E0D12D222021034831F024FE38
:1035440070BD00BF9C0208A0D40608A038B504468C
:103554003B4B186800B938BD4FF0FF312DF05CFECD
:10356400384B1B882C2B02D9364B00221A80364B41
:103574001D88182D0AD900221A80A4F10803052BEE
:103584003FD8DFE803F02B3E593E0C27A4F1080393
:10359400052B36D8DFE803F022351335031E40F23D
:1035A40065422021294831F0EFFD0023254A13808C
:1035B400254A1380224B18682DF048FECBE76B1C7C
:1035C4009BB2214A1380182BF4D9FFF791FF1E4BAD
:1035D4001D80EFE71B4B00221A80EBE7194B1B8879
:1035E400002BE7D0013B9BB2164A1380164A12887F
:1035F40002EB4202C2EB021214490A442021D154C4
:10360400D8E7114B1D880F48038805EB4502C2EB30
:1036140002120E490A44D45401339BB203802C2B6A
:10362400C8D96B1C9BB2084A1380182BC2D9FFF768
:103634005FFF054B1D80BDE7034B01221A80B9E7EC
:103644002CFE07A032FE07A030FE07A09C0208A0B3
:1036540010B50446007828B1FFF778FF14F8010F7D
:103664000028F9D110BD00002DE9F0478CB00446C4
:1036740025F0A8FF0BAA002120462FF06CF9414C3D
:103684004FF4F84307930023069347F6E075059536
:103694000222049240F20F12039240F2DF120292CD
:1036A400019300930B9B4FF488724FF4F071204602
:1036B40024F040FF3449204625F06FFA1F22334995
:1036C400204625F07FFA2946204624F06EFF304E2E
:1036D400DFF8C080A146B2463369002B48D0338856
:1036E4000A937388099309AA0AA9264824F071FF4A
:1036F400BDF82420BDF82810306925F0CBFF98F8D8
:103704000010002451B1454600241E4F384625F0D0
:103714004AFA044415F8011F0029F7D1BAF8063013
:10372400BAF80020BAF804100A4464080233C4EB5F
:1037340062024146484625F0F5F92036D6F808805D
:10374400B8F1000FC7D10F4C0021204624F02FFF01
:10375400E323009340F2D11319226721204624F079
:1037640090FEFFF765FE25F041FF0CB0BDE8F08741
:10377400F3880093B38872883188024824F081FE6C
:10378400BDE700BF040708A0E4A006007487030097
:10379400603C04002C86030010B582B040F26544FE
:1037A40022460021214831F0EFFC22462021204806
:1037B40031F0EAFC00231F4A13801F4A13801F4A7A
:1037C400102101202DF0C9FD08B102B010BD1B4A23
:1037D40069461B482FF0C8FC20B1184B18682DF01F
:1037E400DEFDF2E701A917482FF091F898B9164BBE
:1037F4001B68B3B10198FFF737FF1448FFF728FFA0
:10380400FFF716FEFFF754F84FF4FA602DF08EFC24
:1038140001982FF093F8094B196800982FF011FDC7
:10382400DBE709482DF090FCE4E700BF34FE07A075
:103834009C0208A030FE07A032FE07A028FE07A0C5
:10384400F0850300EC8503002CFE07A09C87030091
:10385400014B01221A6070476C0708A010B582B0B2
:103864000A4C0B4B1988204624F0A1FE47F6E07160
:10387400204624F09AFE38230093A02319226121C4
:10388400204624F0FEFD02B010BD00BF700708A062
:103894001000001008B5084B1B780133DBB2062B6F
:1038A40028BF0023044A1370044A32F81320044B3F
:1038B4001A80FFF7D3FF08BD680708A0A03C0400E6
:1038C400100000102DE9F04786B0814669482FF0BA
:1038D400EDF98246684C0121204624F06BFE47F640
:1038E400E071204624F061FEB9F806300093B9F87F
:1038F4000430B9F80220B9F80010204624F0C1FDC4
:1039040005AA03215D482EF01FFA002846D1D046AF
:103914001A27594E4546B8240494039703AA04A9C8
:10392400304624F056FE012300932B46039A049953
:10393400304624F04FFF02350134B4F5C07FEBD19B
:1039440008F5C8780137E22FE4D102AB494A514661
:1039540005982EF06EFA18B1464B029A9A4253D14A
:1039640005982EF02BFA444C0121204624F022FE27
:103974000021204624F019FEB9F806300093B9F866
:103984000430B9F80220B9F80010204624F079FD7B
:1039940050462FF093F906B0BDE8F087064605AA15
:1039A400032137482EF0D0F904460028AFD0354B18
:1039B40019684FF47F32881826F09CF8FEF778FFD8
:1039C4002D4D0021284624F0F5FD0021284624F041
:1039D400EEFD47F6E071284624F0E7FD2923009325
:1039E4004FF4C0731922B721284624F04AFD092E4A
:1039F4000DD00D2E27D10D2C1ED01B23B922224908
:103A04001D4825F08FF824E0FEF752FFA8E70D2C9F
:103A14000BD0092C4FF01B034FF0B9020CBF1B490C
:103A24001B49154825F07EF813E01B23B9221949D8
:103A3400284625F077F80CE01B23B92216490E48D6
:103A440025F070F805E01B23B92214490A4825F033
:103A540069F80121084824F0ADFD4FF4FA602DF017
:103A640065FB084B18684FF47F32811826F042F842
:103A740079E700BF80380100700708A0B48703000D
:103A8400C08703002804001058880300F08703004F
:103A940018880300CC870300388803007488030067
:103AA4002DE9F04F89B0054686482FF0FFF880468F
:103AB400854C0121204624F07DFD47F6E071204627
:103AC40024F073FDEB880093AB886A88298820462C
:103AD40024F0D7FC07AA01217C482EF035F9814651
:103AE40040B107AA01217A482EF02EF90446002895
:103AF40040F08F8004AB734A414607982EF082F958
:103B0400044607982EF05AF94CB16E4B049A9A4227
:103B140002D1C2461A2704E0FEF7CAFE27E0C246D5
:103B24001A27694ECDF80C80D046A246AB46A8F1C0
:103B34000205B8240694059705AA06A9304624F080
:103B440048FD35F8023F059A0699304624F04CFDAD
:103B54000134B4F5C07FEDD108F5C8780137E22F00
:103B6400E5D1DDF80C8054465D46002C3AD0594B23
:103B740019684FF47F32881825F0BCFFFEF798FED1
:103B8400514C0021204624F015FD0021204624F04C
:103B94000EFD47F6E071204624F007FD292300932B
:103BA4004FF4C0731922B721204624F06AFCB9F1FE
:103BB400090F71D0B9F10D0F7CD01B23B9224649EE
:103BC400414824F0AFFF01213F4824F0F3FC4FF4B7
:103BD400FA602DF0ABFA3F4B18684FF47F3281182E
:103BE40025F088FF384C0121204624F0E3FC002115
:103BF400204624F0DAFCEB880093AB886A88298895
:103C0400204624F03EFC40462FF058F809B0BDE8A9
:103C1400F08F304B19684FF47F32881825F06AFF13
:103C2400FEF746FE284E0021304624F0C3FC002156
:103C3400304624F0BCFC47F6E071304624F0B5FC75
:103C4400292300934FF4C0731922B721304624F07E
:103C540018FCB9F1090F0DD0B9F10D0FADD10D2C30
:103C640021D0092C26D11B23B9221C49164824F043
:103C740059FFA8E70D2C08D0092C0DD11B23B9221C
:103C84001749114824F04EFF9DE71B23B92215491B
:103C9400304624F047FF96E71B23B92211490A480E
:103CA40024F040FF8FE71B23B9220F49064824F074
:103CB40039FF88E71B23B9220B49034824F032FF5C
:103CC40081E700BF80380100700708A0B4870300B3
:103CD400C0870300280400101C890300F88803002F
:103CE400A888030084880300D8880300A0F1B80CD6
:103CF400BCF1C70F1AD8A1F11A0CBCF1C70F15D823
:103D0400A2F1B80CBCF1C70F10D8A3F11A0CBCF186
:103D1400C70F0BD800B583B0009313460A4601467B
:103D2400034824F0ABFA03B05DF804FB704700BF0E
:103D3400700708A008B5A0F1B803C72B08D8A1F1F3
:103D44001A03C72B04D80A460146024824F084FA11
:103D540008BD00BF700708A070B58AB009AA002189
:103D64002EF0F9FD25F02EFC1E4C4FF4F84307937A
:103D74000025069547F6E07605960223049340F263
:103D84000F13039340F2DF13029301950095099BEF
:103D94004FF488724FF4F071204624F0CBFB1249A3
:103DA400204624F0FAFE1F221049204624F00AFF80
:103DB4003146204624F0F9FB0D49204625F03BF915
:103DC4002946204624F0F3FBE22300934FF4C0730A
:103DD4001922B721204624F054FB25F007FC0AB031
:103DE40070BD00BF700708A0E4A006002889030086
:103DF400AC3C04002DE9F04F91B0844B00221A60D2
:103E0400834A102101202DF0A8FA10B111B0BDE8A9
:103E1400F08F7F4A0EA97F482FF0A6F920B17C4B82
:103E240018682DF0BCFAF1E70FA97B482EF06FFD5E
:103E340028B1774B19680E982FF003FAEFE70BAA15
:103E440000210F982EF087FD0F98FFF785FFFFF7ED
:103E540005FD4FF0FF31302004F03CFD0026B24652
:103E6400B0466A4C6A4D2768002F40F0CB804FF073
:103E7400FF3207A928682DF027FB0028F3D1089BFF
:103E84000D93099B0C930CAA0DA9644824F096FB8E
:103E94000D9BB83BC72B00F2AB800C9B1A3BC72B86
:103EA40000F2A6800A9B012B01D0B846DBE72EF076
:103EB400EFFE5B4B1988002940F08580574824F0B9
:103EC40074FBB8F1000F50D0DDF834900C9F0AF168
:103ED400FF308046711E09F1FF3B7B1E02935A4658
:103EE4000591FFF703FF3B465A463146CDF8108053
:103EF4004046FFF7FBFE721C114607F101084346DA
:103F04005A4603910498FFF7F1FE029B4A46DDF8F6
:103F140014B059465046FFF7E9FE3B464A4631463F
:103F24005046FFF7E3FE43464A4603995046FFF7DF
:103F3400DDFE0AF1010A09F10109029B4A465946CC
:103F44005046FFF7D3FE3B464A4631465046FFF7FC
:103F5400CDFE43464A4603995046FFF7C7FEDDF8B7
:103F640034A00C9E4FF0FF387DE70D9E0C9F06F1A8
:103F7400FF3A07F1FF3949465046FFF7DBFE394661
:103F84005046FFF7D7FE07F1010841465046FFF7B8
:103F9400D1FE49463046FFF7CDFE39463046FFF79D
:103FA400C9FE41463046FFF7C5FE01364946304654
:103FB400FFF7C0FE39463046FFF7BCFE41463046A7
:103FC400FFF7B8FECBE7154824F0EFFAB8F1000F7D
:103FD40008D00C9B00930D9B324651460F4824F0A9
:103FE4004DF9BCE70C9A0D990C4824F035F9B6E765
:103FF40007AA0C49094825F06FF80A9B002B08BF53
:10400400B84630E70F982EF099FC12E76C0708A029
:10401400640708A0F0850300EC850300700708A07E
:1040240010000010AC3C040070B505460C46B2F517
:10403400004F20D0102A33D0002A30D1486E2DF002
:10404400A1FAB0F57A7F2AD32DF08EFA606604F1D6
:10405400680201216D482DF077FE102800F2BB8024
:10406400DFE800F022B9B9B96AB9B9B9B98D3CB978
:10407400B97EB9B99C008368654A002120469847F7
:10408400AB68644A012120469847AB68624A022122
:10409400204698472DF068FA60660023E36670BDF9
:1040A400436908469847FAE7AB685C4A0221204610
:1040B4009847A06E2DF082FE002302221946204666
:1040C400EE68B0472B69022120469847544B1A8862
:1040D4009B78A4F8022184F80431E0E7AB68514AE4
:1040E400022120469847504B07CBC4F80201C4F87C
:1040F4000611C4F80A211A889B78A4F80E2184F8C2
:104104001031E36E0133E3660E2BC8D9AB68474A1E
:104114000221204698470023032219462046EE68D0
:10412400B0472B69032120469847414B03CBC4F881
:104134000201C4F80611B2E7AB683E4A02212046E8
:1041440098473D4B07CBC4F80201C4F80611C4F8E4
:104154000A211A889B78A4F80E2184F81031D0E73C
:10416400AB68364A022120469847354B03CBC4F846
:104174000201C4F806111B88A4F80A31C1E7AB6830
:10418400304A0221204698472F4B03CBC4F8020142
:10419400C4F806111B88A4F80A31B2E7AB682B4AAD
:1041A4000221204698472A4E0FCEC4F80201C4F8D3
:1041B4000611C4F80A21C4F80E31337884F8123198
:1041C4000023032219462046EE68B0472B690321D9
:1041D4002046984795E7AB681C4A02212046984739
:1041E4001C4B07CBC4F80201C4F80611C4F80A2119
:1041F4001B88A4F80E310023032219462046EE68DA
:10420400B0472B690321204698477AE7BC8903000D
:104214005C89030078890300AC890300D08903001A
:10422400409D0300E8890300088A0300D48A030040
:10423400EC8A0300188A0300388A0300488A0300C2
:10424400648A0300708A03008C8A0300988A03003E
:10425400B08A0300C48A0300B2F5004F00D070474F
:1042640038B505460C46002184F86C108368264A4C
:104274002046984704F1640124482DF0B9FCC8B1E4
:10428400AB68234A0021204698470023032219469D
:104294002046D5F80CC0E0472B69032120469847F7
:1042A4001C4B03CBC4F80201C4F806111B88A4F804
:1042B4000A3138BD04F16801606E2DF085FC0028D8
:1042C400DED1A06E03685B6940F6C41204F170018C
:1042D40098470028D4D1AB680F4A0021204698475C
:1042E4000023022219462046D5F80CC0E0472B696A
:1042F400022120469847094B1A889B78A4F802218A
:1043040084F80431D5E700BFF48A03004086030033
:10431400108B0300388B0300448B0300409D030083
:10432400F0B583B005460C46B2F5004F5ED0002AC6
:104334007AD1886E03681B6901A99847002840F068
:104344008380019A636F9342B8BF6267236F9A4276
:10435400B8BF226782EAE273A3EBE273C3F342338A
:1043640004F17807C3EB431103EB810633461214BF
:104374005D49384630F0C6FDAB683A460021204618
:104384009847C8202CF0D2FEE36E0133E366052B78
:104394004AD9226FB2F5702F69DA019282EAE27388
:1043A400A3EBE273C3F34233C3EB431103EB810684
:1043B400334612144D49384630F0A4FDAB683A46F2
:1043C400002120469847EF6800230322194620461F
:1043D400B8472B690321204698473346BDF9062088
:1043E400434904F5817030F08DFD1DE08368414A36
:1043F40000212046984704F164013F482DF0F8FB62
:10440400A0B1EE680023032219462046B0472B6969
:10441400032120469847394B03CBC4F80201C4F862
:1044240006111B88A4F80A3103B0F0BD04F1680139
:10443400606E2DF0C9FB0028E3D14FF4C813236745
:1044440063670023E366EFE7EE680023032219465F
:104454002046B0472B69032120469847284B07CBB9
:10446400C4F80201C4F80611C4F80A21DCE7626F3B
:10447400B2F5201F24DD0192C2F34233C3EB431192
:1044840003EB8106334612141E49384630F03AFDD8
:10449400AB683A46002120469847EF680023032280
:1044A40019462046B8472B690321204698473346CE
:1044B400BDF90620144904F5817030F023FDB3E7FB
:1044C400EF680023022219462046B8472B690221CF
:1044D400204698473346BDF906200C4904F58170FF
:1044E40030F010FDA0E700BF988B0300BC8B0300E5
:1044F400E88B0300688B0300848B03008C8A030021
:104504008C8B0300FC8B0300288C0300388C030085
:10451400F0B58BB005460C46164669466D482DF03D
:1045240067FB58B1EE680023032219462046B047C2
:104534002B690321204698470BB0F0BD01A90098D0
:104544002DF042FB002832D1B6F5004F3AD0002EB0
:10455400F2D120263246002102A830F015FE01983F
:1045640003685F69334602AA4121B847002800F076
:104574008A80EE680023032219462046B0472B693F
:10458400032120469847544B03CBC4F80201C4F8D6
:1045940006111A889B78A4F80A2184F80C31019832
:1045A40003689C6920234D4A4121A047C4E7EE6873
:1045B4000023032219462046B0472B6903212046D5
:1045C4009847B9E7AB68464A0021204698470198C6
:1045D40003685E692023414A4121B047B0B1EE68C7
:1045E4000023032219462046B0472B6903212046A5
:1045F4009847394B03CBC4F80201C4F806111A8852
:104604009B78A4F80A2184F80C3195E72022AA218A
:1046140002A830F0B9FD019803689E69202302AA1C
:104624004121B04706462022552102A830F0ACFDB6
:10463400AEB101238DF80830EE6800230322194639
:104644002046B0472B69032120469847254B07CBCA
:10465400C4F80201C4F80611C4F80A216CE70198F1
:1046640003689E69142302AA4321B04701238DF8ED
:1046740008300028E0D1019803689C69012302AA4C
:104684004621A04758E7202202A9174830F0ABFB87
:1046940050B9EE680023022219462046B0472B6920
:1046A4000221204698477AE7EE6800230322194640
:1046B4002046B0472B690321204698470B4B07CB74
:1046C400C4F80201C4F80611C4F80A211B7884F85E
:1046D4000E3164E7448C0300608C0300D00708A00B
:1046E4004C8C03006C8C03004C3D0400788C03005C
:1046F40003460120186000BF00BF00BF00BF00BF19
:1047040000BF00BF00BF00BF00BF00BF00BF00BFAD
:1047140000BF00BF00BF00BF00BF00BF00BF00BF9D
:1047240000BF00BF00BF00BF00BF00BF00BF00BF8D
:1047340000BF00BF00BF00BF00BF00BF00BF00BF7D
:1047440000BF00BF00BF00BF00BF00BF00BF00BF6D
:1047540000BF00BF00BF00BF00BF00BF00BF00BF5D
:1047640000BF00BF00BF00BF00BF00BF00BF00BF4D
:1047740000BF00BF00BF00BF00BF00BF00BF00BF3D
:1047840000BF00BF00BF00BF00BF00BF00BF00BF2D
:1047940000BF00BF00BF00BF00BF00BF00BF00BF1D
:1047A40000BF00BF00BF00BF00BF00BF00BF00BF0D
:1047B40000BF00BF00BF00BF00BF00BF00BF00BFFD
:1047C40000BF00BF00BF00BF00BF00BF00BF00BFED
:1047D40000BF00BF00BF00BF00BF00BF00BF00BFDD
:1047E40000BF00BF00BF00BF00BF00BF00BF00BFCD
:1047F40000BF00BF00BF00BF00BF00BF00BF00BFBD
:1048040000BF00BF00BF00BF00BF00BF00BF00BFAC
:1048140000BF00BF00BF00BF00BF00BF00BF00BF9C
:1048240000BF00BF00BF00BF00BF00BF00BF00BF8C
:1048340000BF00BF00BF00BF00BF00BF00BF00BF7C
:1048440000BF00BF00BF00BF00BF00BF00BF00BF6C
:1048540000BF00BF00BF00BF00BF00BF00BF00BF5C
:1048640000BF00BF00BF00BF00BF00BF00BF00BF4C
:1048740000BF00BF00BF1A68824202D140007FF42B
:1048840039AF7047F0B502468908013911F0010EBD
:104894003CD073464FF0AA3042F823005B00194223
:1048A400FAD14FF055331360734602EB830052F88C
:1048B4002340B4F1AA3F14D15B001942F5D14FF063
:1048C400AA331360F4464FF055361F4610E05B00E0
:1048D400194207D052F82340B4F1AA3FF7D06345F8
:1048E400F5D0F0BD57514FEA4C0C11EA0C0F0BD028
:1048F4004FEA8C0502EB8C0042F82C601368B3F18C
:10490400AA3FEED17346E5E70020EAE74FF05533BE
:1049140003604FF0AA3303600020E2E7032928D99B
:1049240010B502464FEA910C8646012340F8043B39
:104934009C4503F10103F9D8012300E00B4610461E
:104944001168994214D1D94342F8041B591C9C455F
:10495400F4D800236FF001047046DEF80010E21A68
:10496400914205D101330EF1040E9C45F4D8002088
:1049740010BD002070470000B2F5004F00D0704712
:1049840070B505460C4683682A4A0021204698479C
:104994002AF0EEFC4FF02040FFF7AAFE06462AF06C
:1049A400F7FCB6B1AB68244A01212046984700239E
:1049B400032219462046D5F80CC0E0472B69032191
:1049C4002046984732461D4904F5817030F09AFA22
:1049D40070BD2AF0CDFC4FF400014FF02040FFF7EA
:1049E40051FF06462AF0D4FC002EDBD12AF0C0FC8D
:1049F4004FF400014FF02040FFF790FF06462AF0E5
:104A0400C7FC002ECED1AB680D4A01212046984741
:104A1400EE680023022219462046B0472B69022182
:104A2400204698474FF40002064904F5817030F09F
:104A340069FACDE7888C0300B48C0300CC8C0300A6
:104A44009C8C0300AC8C0300F0B5C3B006460C4646
:104A540015468368534A012120469847524B03CB9D
:104A6400C4F80201C4F806111B88A4F80A3141AA4B
:104A7400102128462DF098FA002874D104F5817786
:104A8400419B512B03D040F2E93043B0F0BD41AA21
:104A9400112128462DF088FA002867D1419B522B1A
:104AA40002D040F2E930F0E741AA122128462DF065
:104AB4007BFA00285DD1419B592B02D040F2E930AA
:104AC400E3E73A4B07CBC4F802017960BA60B368F4
:104AD400374A0121204698474FF480224FF4E001E1
:104AE40028462DF051FA002846D1802301AA4FF41C
:104AF400E00128462DF024FA002840D101AB21A979
:104B040013F8012BFF2A3DD18B42F9D1294B07CB56
:104B1400C4F802017960BA60B368274A01212046CB
:104B240098470623254A264928462DF01BFA60BBE0
:104B34000623244A244928462DF014FA40BB802336
:104B440001AA1F4928462DF0FBF920BB0C221F495E
:104B540001A830F048F908BB1D4B1A889B78A4F8CB
:104B64000221BB7091E740F2E9308EE740F2E93070
:104B74008BE740F2E93088E740F2EA3085E740F21B
:104B8400EA3082E740F2EB307FE74FF47B707CE75A
:104B94004FF47B7079E74FF47B7076E74FF47B70CA
:104BA40073E700BFD48C03008C8A0300E48C0300F9
:104BB400F08C0300008D03000C8D03001C8D03009A
:104BC400FCFF7100248D0300020072002C8D030091
:104BD400409D0300F0B591B000230193ADF8083077
:104BE400B2F5004F01D011B0F0BD05460C46836804
:104BF4001E4A0021204698470FA91D482DF07CF934
:104C0400C8B903A90F982DF0DFF9039B0F9A214629
:104C14002846FFF719FF06460F982DF084F966B968
:104C2400EE680023022219462046B0472B69022170
:104C340020469847D7E74FF47A7604F16407C6F321
:104C44000E020C49384630F05DF9AB683A46022151
:104C540020469847EE680023032219462046B047B1
:104C64002B69032120469847BDE700BF3C8D030014
:104C74005C8D0300648D030030B583B005460C469B
:104C8400B2F5004F1ED0102A37D0002A33D1486E17
:104C94002CF078FCB0F57A7F2DD32CF065FC60669F
:104CA40004F16802012165482DF04EF80D2800F248
:104CB4008E80DFE800F0268C8C8C5A8C8C8C8C7D5A
:104CC400418C8C6E83685E4A002120469847AB680D
:104CD4005C4A012120469847AB685B4A0221204682
:104CE400984701A959482CF02DFD0023E36623675A
:104CF4002CF03AFC606603B030BD4369084698471F
:104D0400F9E7AB68524A022120469847A06E2DF07D
:104D140055F80023022219462046D5F80CC0E04776
:104D24002B690221204698474A4B1A889B78A4F89D
:104D3400022184F80431DEE7AB68474A02212046A9
:104D44009847464B07CBC4F80201C4F80611C4F8CF
:104D54000A211A889B78A4F80E2184F81031236F55
:104D64005A1C042B47D02267C5E7AB683C4A022192
:104D7400204698473B4B07CBC4F80201C4F8061100
:104D8400C4F80A211A889B78A4F80E2184F81031FB
:104D9400E5E7AB68344A022120469847334B03CBFE
:104DA400C4F80201C4F806111B88A4F80A31D6E736
:104DB400AB682F4A0221204698472E4B03CBC4F8F8
:104DC4000201C4F806111B88A4F80A31C7E7AB68CE
:104DD4001D4A022120469847274B07CBC4F80201FD
:104DE400C4F80611C4F80A211A889B78A4F80E2185
:104DF40084F81031B3E700232367E36E0133E366DD
:104E0400062B16D1AB681D4A022120469847002381
:104E1400032219462046D5F80CC0E0472B6903212C
:104E240020469847164B03CBC4F80201C4F8061178
:104E340061E701A905482CF085FC5CE7D48D0300EB
:104E4400788D0300988D0300AC890300C48D0300A2
:104E5400D0890300409D0300E8890300088A030009
:104E6400188A0300388A0300488A0300648A03000E
:104E7400708A03008C8A0300E48D0300D48A030043
:104E8400EC8A030030B583B005460C46B2F5004FFA
:104E94001ED0102A37D0002A33D1486E2CF072FB72
:104EA400B0F57A7F2DD32CF05FFB606604F16802C5
:104EB400012165482CF048FF0D2800F28E80DFE8C0
:104EC40000F0268C8C8C5A8C8C8C8C7D418C8C6E56
:104ED40083685E4A002120469847AB685C4A0121FA
:104EE40020469847AB685B4A02212046984701A9AF
:104EF40059482CF027FC0023E36623672CF034FB8D
:104F0400606603B030BD436908469847F9E7AB686B
:104F1400524A022120469847A06E2CF04FFF0023EE
:104F2400022219462046D5F80CC0E0472B6902211D
:104F3400204698474A4B1A889B78A4F8022184F8A3
:104F44000431DEE7AB68474A022120469847464BC6
:104F540007CBC4F80201C4F80611C4F80A211A8860
:104F64009B78A4F80E2184F81031236F5A1C042B6B
:104F740047D02267C5E7AB683C4A022120469847E0
:104F84003B4B07CBC4F80201C4F80611C4F80A214C
:104F94001A889B78A4F80E2184F81031E5E7AB68F1
:104FA400344A022120469847334B03CBC4F802010C
:104FB400C4F806111B88A4F80A31D6E7AB682F4A57
:104FC4000221204698472E4B03CBC4F80201C4F8B3
:104FD40006111B88A4F80A31C7E7AB681D4A0221F1
:104FE40020469847274B07CBC4F80201C4F80611A2
:104FF400C4F80A211A889B78A4F80E2184F8103189
:10500400B3E700232367E36E0133E366062B16D16F
:10501400AB681D4A02212046984700230322194603
:105024002046D5F80CC0E0472B6903212046984759
:10503400164B03CBC4F80201C4F8061161E701A9B9
:1050440005482CF07FFB5CE7D48D0300F48D03004E
:10505400988D0300AC890300148E0300D0890300EB
:10506400409D0300E8890300088A0300188A0300AE
:10507400388A0300488A0300648A0300708A0300A4
:105084008C8A0300E48D0300D48A0300EC8A0300B5
:10509400B2F5004F00D070472DE9F04F8BB00646B3
:1050A4000C468368744A00212046984703A9734834
:1050B4002DF02DFC09A972482CF06AFB00B3B368EB
:1050C400704A002120469847F568002303221946B8
:1050D4002046A84733690321204698476A4B03CBEF
:1050E400C4F80201C4F806111B88A4F80A3109980F
:1050F4002CF05BFB03982DF021FC0BB0BDE8F08F86
:10510400002305930A238DF8183001238DF81930F4
:1051140004AB089305A909982CF04FFBD8B1B368E8
:105124005A4A002120469847F5680023032219466D
:105134002046A8473369032120469847544B03CBA4
:10514400C4F80201C4F806111A889B78A4F80A214D
:1051540084F80C31CBE7049B642202FB03F74D4B2C
:10516400A3FB07373F0A04EB020B00233A464A49E4
:1051740058462FF0C7FEB3685A4600212046984788
:1051840004F5817800233A46444940462FF0BAFE9C
:10519400A7F15003282B0FD9F568002303221946E1
:1051A4002046A84733690321204698473A463C499C
:1051B40040462FF0A7FE9AE703982DF0F7FB002155
:1051C40003982DF000FC64202BF0B0FF05A909988A
:1051D4002CF0F3FA049B642202FB03F31A460193B6
:1051E4002C4BA3FB02394FEA192903982DF0D1FB6C
:1051F40000254FF00A0A294603982DF0E4FB504697
:105204002BF094FF0235B5F5807FF4D14B463A4636
:10521400214958462FF076FEB3685A4600212046AD
:1052240098474B463A461D4940462FF06BFE019B7A
:10523400B3F5994F0FD3F56800230322194620468E
:10524400A84733690321204698474A4615494046F2
:105254002FF058FE4BE7F56800230222194620463A
:10526400A84733690221204698474B463A460B49E2
:1052740040462FF047FE3AE7248E0300EC850300F6
:105284003C8E0300448E03008C8A0300688E030066
:105294008C8E0300ABAAAAAA988E0300C48E0300C6
:1052A400D08E0300E08E0300B2F5004F00D07047AB
:1052B400F0B587B005460C468368404A0021204675
:1052C400984705A93E482CF063FAE0B1AB683D4A23
:1052D4000021204698470023032219462046EE6801
:1052E400B0472B69032120469847374B03CBC4F8BA
:1052F4000201C4F806111B88A4F80A3105982CF0A1
:1053040054FA07B0F0BD022301930A238DF8083044
:1053140001238DF80930CDF810D001A905982CF09F
:105324004CFAD8B1AB68294A002120469847EE6868
:105334000023032219462046B0472B690321204647
:105344009847234B03CBC4F80201C4F806111A880A
:105354009B78A4F80A2184F80C31CFE7009B6422DF
:1053640002FB03F31B4EA6FB03269B1B06EB530613
:10537400760A04F164073246174938462FF0C2FD15
:10538400AB683A46002120469847503E282E0AD959
:10539400EE680023032219462046B0472B690321F7
:1053A40020469847AAE7EE680023022219462046C1
:1053B400B0472B690221204698479FE7F08E0300EF
:1053C4003C8E0300048F03008C8A0300248F0300A7
:1053D4008C8E030025154052488F030000B583B01E
:1053E40000230193072809D8DFE800F0040C111604
:1053F4001B20252A01A915482CF0A4F9019803B013
:105404005DF804FB01A912482CF09CF9F6E701A908
:1054140010482CF097F9F1E701A90F482CF092F904
:10542400ECE701A90D482CF08DF9E7E701A90C4838
:105434002CF088F9E2E701A90A482CF083F9DDE7AA
:1054440001A909482CF07EF9D8E700BF608F03005A
:10545400688F0300708F0300788F0300808F030030
:10546400888F0300908F0300988F030082B02DE98A
:10547400F04F8FB080468B46144619931C9D836869
:10548400A14A012158469847A04B03CBCBF802010F
:10549400CBF806111B88ABF80A310DAA102120465F
:1054A4002CF082FD002840F01D810BF5817A0D9BC4
:1054B400512B06D040F2E9300FB0BDE8F04F02B0F6
:1054C40070470DAA112120462CF06EFD002840F0F3
:1054D4000C810D9B522B02D040F2E930ECE70DAA6F
:1054E400122120462CF060FD002840F001810D9B24
:1054F400592B40F00081002606960896CDF814A09A
:1055040037460995DA4607940AF1640B069A8049EE
:1055140058462FF0F7FCD8F808305A460121504677
:10552400984700230493049A7A4958462FF0EAFCDA
:10553400D8F808305A46012150469847099B002B59
:1055440000F0B88019AB0B934FF000094D46CDF82D
:105554002890CDF80CA0DDF820A00A9A6E49584690
:105564002FF0D0FCD8F808305A4601210398984708
:105574000B9B1E465C69BC4209D13369002B00F0C9
:1055840089804B440893069B5B42DFB23FE0634F44
:1055940023463A46624958462FF0B4FCD8F80830FE
:1055A4005A46032103989847BA46E6E74B46002239
:1055B4005C4958462FF0A6FCD8F808305A46012119
:1055C400039898472A46584905982FF09BFC3CB10C
:1055D4000AF1FF33621E524403F8016F9342FBD178
:1055E40022462946079E30462CF0CEFC002840F087
:1055F400858023465246294630462CF0B3FC0028C9
:105604007FD109F101092544089B994541D087EAD6
:105614000906049B002BC9D04B4601224349584636
:105624002FF070FCD8F808305A46012103989847A7
:105634002A463F4905982FF065FC234652462946E1
:1056440007982CF07DFC002CDBD00AF1FF32534686
:10565400601E5044944612F8011FB14202D18242A6
:10566400F8D1CEE74F46D946DDF80CB0C3F10103BB
:105674000191009663443A462E4948462FF042FC75
:10568400D8F808304A4602215846984740F201406B
:1056940012E799460A9B01330A930B9A08320B923C
:1056A400099A9A4201D0274657E7CDF820A0DDF8A1
:1056B4000CA02746049B01330493022B7FF433AFE1
:1056C400069B01330693022B7FF41EAFD346DDF80D
:1056D40014A0194B1A889B78ABF802218AF802307F
:1056E4000020E9E640F2E930E6E640F2E930E3E69C
:1056F40040F2E930E0E640F2E930DDE642F248709B
:10570400DAE642F24970D7E6D48C03008C8A0300AF
:10571400A08F0300AC8F0300BC8F0300000040A0E7
:10572400C88F0300E88F030014900300289003003F
:105734005490030068900300409D0300B2F5004FAD
:1057440000D07047F0B59BB005460C468368264AE6
:1057540000212046984719A924482CF0CDFB40BBD2
:105764000DA919982CF030FCEC460DF1380EBEE86A
:105774000F00ACE80F00BEE80F00ACE80F009EE895
:1057840007008CE807000D9B199A21462846FFF76D
:105794006DFE064619982CF0C6FB66B9EE68002328
:1057A400022219462046B0472B6902212046984719
:1057B40018E04FF47A7604F16407C6F30E020C493C
:1057C40038462FF09FFBAB683A46022120469847A3
:1057D400EE680023032219462046B0472B690321B3
:1057E400204698471BB0F0BDA49003005C8D0300D5
:1057F400648D0300034B1B684FF0FF32C3F8D42BB6
:10580400704700BFF40708A030B58BB0044623F0FE
:10581400D9FE09AA002120462DF09DF8174C4FF41B
:10582400F84307930023069347F6E0750595022293
:10583400049240F20F12039240F2DF12029201939B
:105844000093099B4FF488724FF4F071206822F0A2
:1058540071FE0B49206823F0A0F91F220949206832
:1058640023F0B0F92946206822F09FFE06492068FB
:1058740023F093F923F0BAFE0BB030BDF40708A06F
:10588400E4A00600C89003004CBC06002DE9F047D4
:1058940088B0734F386800F664240023ADF81830DC
:1058A400ADF81A30C369ADF81C30036AADF81E3088
:1058B4006C4923F072F9386823F071F986B206ADA9
:1058C4000521284624F03EF806F12602022392B26E
:1058D4006946284624F062F804AB95E8030083E89F
:1058E40003003A6802F6CC3282E80300022118462B
:1058F40024F028F80436B6B2242E38BF24265A4B96
:105904001D78082D61D80027DFF85481DFF85CA1E9
:10591400DFF85C91D8F800301B6EAB4233D9BDF888
:1059240016300133BDF812209B1A9E422BDA012354
:10593400324602A904A824F00FF8BDF808302380E9
:10594400BDF80A306380BDF80C30213BA380BDF85C
:105954000E20E280D8F80010EB0103F1680008443F
:10596400A060C4F80CA0C4F8109064330B44A36185
:10597400404BE3610232A1F8D22B013720340135C8
:10598400ABB2082BC6D90121684623F0DBFFBDF872
:10599400003023803F33A380BDF8023063801F337F
:1059A400E380354BA360354BE360354B2361002323
:1059B400A361E3612A4B1B681B6EBB4207D82034EA
:1059C4000023A36008B0BDE8F0870027DBE70121CE
:1059D400684623F0B7FF224B1B68B3F8D02B213A5B
:1059E4002284B3F8D02B013AA284B3F8CE2B01322F
:1059F4006284B3F8CE2B2132E284224AA262224A84
:105A0400E262224A22630022A263E2631B6E9F4287
:105A140028BF4034D4D20121684623F093FF104BB1
:105A24001B68B3F8D02B213AA4F84020B3F8D02B4C
:105A3400013AA4F84420B3F8D22B213AA4F8422026
:105A4400B3F8D23B013BA4F846300E4BA364104B91
:105A5400E364104B23650023A365E3656034AFE77B
:105A6400F40708A0E4A00600F00708A0415C0000C9
:105A7400E0F204009D5A00002C860300F957000050
:105A8400A4500500F4A40300215C0000BC500400F1
:105A9400F55B00009049040030B589B004460388E2
:105AA400ADF818304388ADF81A308388ADF81C304F
:105AB400C388ADF81E301C4D1C49286823F06DF8CE
:105AC400286823F06CF885B2022106A823F01EFF93
:105AD4000223202204A906A823F082FF236993B19C
:105AE400BDF810300393BDF81230029302AA03A943
:105AF4000D4B186822F06DFDBDF80820BDF80C10A0
:105B0400206923F0C7FD2A46694606A823F0B2FFA0
:105B1400BDF80230BDF80020A1680348006823F0F6
:105B240001F809B030BD00BFF40708A0E4A00600E6
:105B340070B586B023F046FD284C2949206823F02F
:105B44002CF8206823F02BF8054647F6E07120680E
:105B540022F02BFD0021206822F029FD2068B0F8F6
:105B6400D03BB0F8CE2BB0F8CC1BB0F8D26B00967B
:105B740022F087FC2068036E13BB90F8E03B102BE7
:105B840028D0092B28D0174C174A302B18BF14469D
:105B9400214623F070F8114E336882B204A903F64B
:105BA400CC3023F087FFAAB202A904A823F062FF35
:105BB400BDF80A30BDF808202146306822F0B2FF53
:105BC400064B186800F6642123F035FA23F00EFD25
:105BD40006B070BD044CDBE7044CD9E7F40708A019
:105BE400E4A0060024910300F09003000491030054
:105BF40008B5084B1B78591D074A1268126E91426A
:105C040000D308BD0133034A1370FFF73FFEFFF7CB
:105C14008FFFF6E7F00708A0F40708A008B5064BC5
:105C24001B7803B908BD013B034A1370FFF72EFE2E
:105C3400FFF77EFFF6E700BFF00708A008B580690C
:105C440000F092FE054B1B68D3F8D80BFFF7DCFD80
:105C5400FFF71CFEFFF76CFF08BD00BFF40708A0A8
:105C640010B59AB002460C4901A82FF04BF9012354
:105C740001AA0A490BA82FF045F96A4601210BA88D
:105C84002CF062F8044610B120461AB010BD0098FA
:105C94002CF094F8F8E700BF4C91030054910300F2
:105CA40010B58CB00246094902A82FF02BF901AABD
:105CB400012102A82CF048F8044610B120460CB08B
:105CC40010BD01982CF07AF8F8E700BF6891030042
:105CD40010B58CB00246094902A82FF013F901AAA5
:105CE400012102A82CF030F8044610B120460CB073
