:10000000E84E0010010300001B0300007C03000009
:100010001D0300001F03000021030000239EFFEFCB
:100020000000000000000000000000000159030073
:10003000250300000000000091590300F55903005A
:1000400041230300512303006123030071230300B4
:100050008123030091230300A1230300B1230300A4
:10006000C1230300D1230300E1230300F123030094
:100070000124030011240300212403003124030080
:100080004124030051240300612403007124030070
:100090008124030091240300A1240300B124030060
:1000A000C1240300D1240300E1240300F124030050
:1000B000012503001125030021250300312503003C
:1000C000412503005125030061250300712503002C
:1000D0008125030031ED042891250300A1250300AB
:0400E000B125030043
:0402FC00FFFFFFFF02
:10030000DFF88CD023488047DFF884D0224880472C
:1003100022482349016000F045B82FE02EE02DE08F
:100320002CE02BE02AE029E028E027E026E025E089
:1003300024E023E022E021E020E01FE01EE01DE0B9
:100340001CE01BE01AE019E018E017E016E015E0E9
:1003500014E013E012E011E010E00FE00EE00DE019
:100360000CE00BE00AE009E008E007E006E005E049
:1003700004E003E002E001E000E0FFE71EF0040F0C
:100380000CBFEFF30880EFF3098030F077BA00007C
:1003900000000110BD590200A989030008ED00E02A
:1003A0000000000027498D4627482849284A00F0C8
:1003B00037F828482849294A00F032F828482949BE
:1003C000294A00F02DF8294829492A4A00F028F83E
:1003D00029482A492A4A00F023F82A482A492B4A60
:1003E00000F01EF82A482B49002200F024F82A4881
:1003F0002A49091A00220260043001601C481D4984
:10040000884205D00268043003B4904703BCF7E784
:1004100000208646EC4600200021214A9047FEE756
:10042000884207D0521A05D0037801300B70013191
:10043000013AF9D17047884202D002700130FAE7E0
:1004400070470000E84E0010A404000000000010F7
:10045000AC060010302301003023010078F50300C2
:10046000A404000000000010000000103023010070
:10047000302301003023010030230100302301002C
:1004800030230100500B0000500B0000302301000E
:10049000001B64A0FC8364A000E657A0001B64A0BE
:0404A0003F590200BE
:1004A40081130028D912002800007701EEFF4A01C9
:1004B4000000B40012004A0100007701F7FF4A016E
:1004C400F7FFB4000900B40009004A01E519002847
:1004D400DD1000289D2D0028A12600285D2200287B
:1004E4008D290028E1200028711C002851160028BD
:1004F40000000000100401289D0000009800000086
:100504001500000015220028010000001C04012829
:1005140009010000FD00000017000000A9210028C7
:1005240003000000A6FFFFFF140000000A00000003
:100534000300000005000000C400001000000000DB
:10054400000000002201000096000000F8FFFFFFF9
:10055400FEFFFFFF05000000D800001000000000AF
:1005640000000000C4140128B01401289C140128C0
:100574008814012874140128281501281415012849
:1005840000150128EC140128D814012800EE17A046
:10059400FF7F0000000000FFC0C0C0FFFFFFFFFF9F
:1005A400404040FF32000000320000000000000024
:1005B4000000000000000000000000000000000037
:1005C40000000000634101003D41010024030010CC
:1005D400E4F20428FFFFFFFFFF0000FFC0C0C0FFDC
:1005E400000000FFFFFFFFFF808080FF000000FF8E
:1005F400FFFFFFFF808080FFFFFFFFFF80F20428E2
:10060400BCF2042894F20428D0F20428A8F20428A6
:10061400100000001400000010000000E4F20428A0
:10062400404040FFFF0000FF000000FF000000FF0B
:10063400FFFFFFFF6F4A01000D600100000003008F
:1006440001000000F801001001540100DB53010017
:10065400F0020010FFFFFFFFE0050528AAAAAAFF89
:10066400FFFFFFFFD3D3D3FF000000FF000000FF14
:10067400404040FF000000FF000000FFE4F20428B7
:10068400497A01000E000000000000000C02001076
:10069400ED57010041580100FD5D0100D75D0100E7
:1006A400040200109B5D01000D6001006F5F0100FA
:1006B4003D5F0100E0010010000000FFFFFFFFFFAD
:1006C400D2B69AFFD2B69AFFEAD1B9FF050000006C
:1006D400000000000500000005000000020000000A
:1006E400040000004C4C4CFFFFFFFFFFDCCEC0FFBA
:1006F400DCCEC0FFF2E4D7FF0500000000000000DC
:1007040005000000050000000200000004000000D5
:10071400E4F20428000000FFEFCDAB00000000006D
:1007240000000000FFFFFFFF8B622CFFBAB09EFFAA
:10073400FCF4E5FFDBB368FF959595FFF3F3F3FF56
:10074400C0C0C0FF404040FF000000FF03000000A5
:1007540003000000707070FFFCFCFCFFF2F2F2FF7B
:10076400BCBCBCFF959595FFF3F3F3FFC0C0C0FF7D
:10077400404040FF000000FF0300000003000000B1
:10078400E4F20428AAAAAAFF000000FF000000FF68
:1007940031AB01000200000020250528A80100104B
:1007A40065740100D972010014040010000000FFF8
:1007B400E0050528555555FFAAAAAAFFFFFFFFFF2C
:1007C400000000FF29A7010024010010B5B2ADFF0D
:1007D400FCFCFCFFF4F4F4FFF4F4F4FFF4F4F4FF91
:1007E400F4F4F4FFF4F4F4FF04000000707070FFFC
:1007F400FCFCFCFFDFDFDFFFF3F3F3FFECECECFFCB
:10080400DFDFDFFFD0D0D0FF04000000B17F3CFF6A
:10081400FBD846FFDFDFDFFFF3F3F3FFECECECFF85
:10082400DFDFDFFFD0D0D0FF040000008B622CFF9D
:10083400BAB09EFFEFD198FFFCF4E5FFF6E5C4FFE4
:10084400EFD198FFDBB368FF04000000B17F3CFFE9
:10085400FFFEFDFFE0E0E0FFFCF4E3FFFBEED6FF6C
:10086400F6DBA9FFE3CA9CFFE0E0E0FFF0F0F0FF55
:10087400000000FFA37D37FF959595FFF3F3F3FF89
:10088400E0E0E0FFF2F2F2FFE8E8E8FFD8D8D8FFB2
:10089400BCBCBCFFE0E0E0FFF0F0F0FF404040FFF4
:1008A400404040FFFFFFFFFFC0C0C0FF808080FFCB
:1008B400000000FF217F01000B0004000003001072
:1008C40064F20428FFFFFFFF808080FFFF0000FF29
:1008D400D3D3D3FF000000FFFFFFFFFFFFFFFFFFA5
:1008E400808080FFD3D3D3FFE4F204280A00000001
:1008F4000E000000CDFFCDFFACEE9CFF29D400FF1D
:1009040033E21CFFFCFCFCFFDADADAFFCBCBCBFFD3
:10091400D5D5D5FFA0A0A0FF000000FFA9A8010025
:1009240085A801009C04001001000000C0C0C0FFA5
:10093400C0C0C0FF000000FF000000FFE56601002A
:100944007C040010707070FFFCFCFCFFF3F3F3FFF9
:10095400ECECECFFDFDFDFFFD0D0D0FF404040FF06
:1009640005000000F401000003000000FFFFFFFF8A
:10097400A9A204284DBE03009FBE030049BF030083
:1009840005BF030097BF0300682564A0682564A021
:10099400FFFFFFFF0400000000110000FF00000043
:1009A400FFFFFFFF000000FFFF0000000500000044
:1009B4006D980428FFFF00005C2764A05C2764A0F6
:1009C400000000FFFFFFFFFFE005052861990428F0
:1009D400C42764A06DE50428582E58580000000070
:1009E400F924020061B30428E5EC0428BC170000D4
:1009F400E1CB042800000000000004000000000017
:100A04006805001000000000100000000000000055
:100A1400142964A0953202000000000000000200C6
:100A2400000000008C05001000000000040000001D
:100A3400000000005C2964A005E00428000000FF19
:100A440000010000693C0200153C020000000000A7
:100A54005D430200954202001D4302002548020046
:100A640075470200E547020095E7042809E70428D2
:100A7400000000A0000000000000000000000000D2
:100A840024270528A427052864270528000000003A
:100A9400E00100001001000003000000000000005D
:100AA4000000000001000000E0010000E00100007F
:100AB40000010000E001000010010000050000003A
:100AC400000000000000000001000000C00300005E
:100AD400C003000000010000E0010000100100005C
:100AE40004000000000000000000000001000000FD
:100AF400C0030000C003000000010000E07F00000C
:100B0400FFFFFFFF140000000A0000006400000063
:100B140064000000AAAAAAAA0600000000000000BF
:100B2400FFFFFFFFFFFFFFFFFFFFFFFF01000000CC
:100B34000100000000E657A0641F0100641F0100CB
:0C0B4400641F0100641F0100641F010019
:100B500048656172740000000C75455A204755497C
:100B60002044656D6F20322E31342E3030300A0033
:100B7000454550524F4D2053657474696E6773003C
:100B80005553424465766963650000004D5331005A
:100B900054696D65723200004D61696E000000009D
:100BA000000000000100000002000000030000003F
:100BB000040000000500000006000000070000001F
:100BC00008000000090000000A0000000B000000FF
:100BD0000C0000000D0000000E0000000F000000DF
:100BE000A152042873530428635304280000000012
:100BF000652F0100CB5204280500050032000500D6
:100C00005F000500190019004B00190005003200B3
:100C1000320032005F00320019004B004B004B00E5
:100C200005005F0032005F005F005F0018020010E7
:100C3000440200108C0300106C0300104C030010E1
:100C40002C0300100000FFFFF0F0F0FF000000FF99
:100C50007F7F7FFF0000FFFF000000FF7F7F7FFF9F
:100C6000E0E0E0FF60FFFFFFFFFFFFFF000000FF8D
:100C70000400000001000000440C0000050000001A
:100C800001000000540C0000020000000000000001
:100C9000680C000000022222220000000002333310
:100CA000320000000022222222222220002444447A
:100CB0004444442100244444444444210024444402
:100CC00044444421002444444444442100244444F2
:100CD00044444421002444444444442100244444E2
:100CE0004444442100222222222222210001111107
:100CF000111111110FFFFC000D555F000D555DC066
:100D00000DFFDAA00D5555E00DFFFDE00D5555E046
:100D10000DFFFDE00D5555E00DFFFDE00D5555E0D3
:100D20000DFFFDE00D5555E00FFFFFE002AAAAA060
:100D3000FF80808080808080BE80808080808080F6
:100D4000FF80000222222200000000023333320022
:100D50000000002233333222222000233333333386
:100D60003321222222222222332124444444444497
:100D7000232124444444444423210244444444441D
:100D80004221024444444444422100244444444413
:100D900044210022222222222221000111111111BC
:100DA0001111FF80808088808880BE808880888044
:100DB0008080FF803D8A0100B9930100558F0100BA
:100DC00000000000398C0100FB8D01003D92010004
:100DD000F78E01000000000000000000000000008D
:100DE000979A0100000000002F8E0100D58D0100B0
:100DF000A98D01000000000001D8010099D7010071
:100E0000030301004C0B052802020100540B0528C6
:100E1000060601005C0B052806060100640B052888
:100E2000070701006C0B052806060100740B052856
:100E3000020201007C0B052806060100840B052830
:100E4000040401008C0B052808080100940B0528F8
:100E5000040401009C0B052806060100A40B0528CC
:100E600006060100AC0B052804040100B40B05289C
:100E700008080100BC0B052806060100C40B052864
:100E800004040100CC0B052806060100D40B05283C
:100E900004040100DC0B052804040100E40B052810
:100EA00004040100EC0B052806060100F40B0528DC
:100EB00006060100FC0B052803030100040C0528AD
:100EC000040401000C0C052804040100140C05287E
:100ED000050501001C0C052806060100240C052848
:100EE000080801002C0C052808080100340C05280E
:100EF000080801003C0C052806060100440C0528E2
:100F0000080801004C0C052808080100540C0528AD
:100F1000080801005C0C052808080100640C05287D
:100F2000080801006C0C052808080100740C05284D
:100F3000080801007C0C052807070100840C05281F
:100F4000060601008C0C052806060100940C0528F5
:100F5000060601009C0C052806060100A40C0528C5
:100F600002020100AC0C052802020100B40C0528A5
:100F700002020100BC0C052802020100C40C052875
:100F800008080100CC0C052807070100D40C05282F
:100F900008080100DC0C052808080100E40C0528FD
:100FA00008080100EC0C052808080100F40C0528CD
:100FB00008080100FC0C052806060100040D0528A0
:100FC000080801000C0D052807070100140D05286D
:100FD000070701001C0D052807070100240D05283F
:100FE000070701002C0D052808080100340D05280D
:100FF000070701003C0D052807070100440D0528DF
:10100000060601004C0D052806060100540D0528B2
:10101000060601005C0D052806060100640D052882
:10102000060601006C0D052806060100740D052852
:101030000A0A02007C0D0528060601008C0D052811
:1010400006060100940D0528060601009C0D0528E2
:1010500006060100A40D052806060100AC0D0528B2
:1010600002020100B40D052802020100BC0D052892
:1010700002020100C40D052802020100CC0D052862
:1010800006060100D40D052806060100DC0D052822
:1010900006060100E40D052806060100EC0D0528F2
:1010A00006060100F40D052806060100FC0D0528C2
:1010B00006060100040E0528060601000C0E052890
:1010C00006060100140E0528060601001C0E052860
:1010D00006060100240E0528060601002C0E052830
:1010E00006060100340E0528060601003C0E052800
:1010F00006060100440E0528060601004C0E0528D0
:10110000C5EC0100E5EC01009DEC01008DED010056
:101110009DED0100ADED010000000000D1EF0100E8
:1011200059F001000600000045F101001DF3010027
:101130004FF3010081F30100D5ED0100E1ED010065
:10114000F9ED010011EE01001DEE01002FEE01008E
:1011500005EE01003BEE010035EF0100BDEE0100A0
:1011600015F101000300000071000200ADFE010056
:10117000F9FC010001FB010085F80100C9F901003B
:10118000E9F801001FF601002DF6010071F60100DB
:101190001BF601007DF6010012001E000500020092
:1011A000091300009C1200000000000012001E0045
:1011B0000500020009130000A81200000000000052
:1011C0000C001400030002009F1300009C1200009A
:1011D000000000000C001400030002009F13000038
:1011E000A81200000000000009000F000300020028
:1011F000DB1300009C1200000000000009000F003B
:1012000003000200DB130000A81200000000000031
:101210001F001F0008000200081400009C120000BC
:10122000000000001F001F0008000200081400005A
:10123000A8120000000000001500150006000200C2
:10124000001500009C1200000000000015001500B1
:101250000600020000150000A812000000000000B7
:101260000B000B00030002007E1500009C12000022
:10127000000000000B000B00030002007E150000C0
:10128000A81200000000000011001100050002007B
:10129000B41200009C1200000000000003000000D7
:1012A00001000000A0150000030000000100000084
:1012B000AC1500000001900000000190000000014A
:1012C00090000000019000000001900000000190DB
:1012D0000000040190040019559559006AAAAAAAB1
:1012E0004019559559000401900400000190000038
:1012F000000190000000019000000001900000003B
:10130000019000000001900000400000000050002B
:10131000000000640000000069000000006A400056
:1013200000006A900000006AA40000006AA90000A2
:10133000006AAA4000006AAA9000006AAAA40000FD
:101340006AAAA900006AAAAA40006AAAAA90006A2A
:10135000AAAAA4006AAAAAA9006AAAAAAA406AAA72
:101360009555506A9A9000006A46A400006906A448
:1013700000006401A900005001A9000040006A407B
:101380000000006A400000001A900000001A90005F
:10139000000006A400000006A40000000150004068
:1013A00000005000006400006900006A40006A907C
:1013B000006AA4006AA9006AAA406AAA906AAAA45C
:1013C0006AA95569A900646A40506A40401A9000B1
:1013D0001A900006A40006A400015040000050002E
:1013E000006400006900006A40006A90006AA4007E
:1013F0006AA9006A954066900051A40041A40000CB
:1014000069000069000014000000000540000000B1
:101410000000000640000000000000064000000040
:101420000000000640000000000000064000000030
:101430000000000640000000000000064000000020
:101440000000000640000000000000064000000010
:101450000000000640000000000000064000000000
:1014600000000006400000000000000640000000F0
:10147000000000064000000055555556555555547E
:101480006AAAAAA9AAAAAAA45555555655555554AB
:1014900000000006400000000000000640000000C0
:1014A00000000006400000000000000640000000B0
:1014B00000000006400000000000000640000000A0
:1014C0000000000640000000000000064000000090
:1014D0000000000640000000000000064000000080
:1014E0000000000640000000000000064000000070
:1014F0000000000640000000000000054000000061
:101500000000150000000000190000000000190094
:101510000000000019000000000019000000000099
:101520001900000000001900000000001900000070
:101530000000190000005555595555406AAAA6AA41
:10154000AA405555595555400000190000000000AB
:101550001900000000001900000000001900000040
:101560000000190000000000190000000000190030
:1015700000000000190000000000150000000054E9
:10158000000064000064000064005565546A9AA479
:1015900055655400640000640000640000540000BD
:1015A0000000FFFF000000FFFFFFFFFF0000FFFF44
:1015B000FFFFFFFF000000FFB10F0200D50F020088
:1015C000F90F02000000000051110200F9110200A1
:1015D00005000000B9150200C114020065130200E5
:1015E0009515020019100200F512020039130200CD
:1015F00025100200311002005910020021100200D3
:1016000069100200497C0428ED7B042800000000DA
:1016100078040000EF080000660D0000DC110000F7
:1016200050160000C21A0000331F0000A123000062
:101630000C280000742C0000D93000003A3500005E
:1016400096390000EF3D0000424200009046000045
:10165000D94A00001C4F0000585300008F5700006B
:10166000BE5B0000E65F0000076400002068000029
:10167000316C000039700000397400002F780000D0
:101680001C7C000000800000DA830000A9870000B5
:101690006D8B0000278F0000D69200007996000025
:1016A000119A00009C9D00001BA100008EA4000068
:1016B000F3A700004CAB000097AE0000D5B10000CE
:1016C00005B5000027B800003ABB00003FBE00008F
:1016D00035C100001BC40000F3C60000BBC90000F8
:1016E00073CC00001CCF0000B4D100003CD400003B
:1016F000B3D600001AD900006FDB0000B4DD000093
:10170000E7DF000009E2000019E4000017E600002E
:1017100004E80000DEE90000A6EB00005CED00003C
:10172000FFEE000090F000000EF2000078F30000E1
:10173000D0F4000015F6000047F7000065F800003F
:1017400070F9000068FA00004CFB00001CFC00006F
:10175000D9FC000082FD000018FE000099FE000088
:1017600007FF000060FF0000A6FF0000D8FF000098
:10177000F6FF00000000010000006400C80029011D
:101780008801E30139028A02D40218035303870354
:10179000B203D403EC03FB03000400002900510052
:1017A0007900A000C500EA000D012E014E016C0178
:1017B0008901A301BD01D501EB0100021D31020029
:1017C0002131020007000000373702002B370200EA
:1017D000213702001537020085360200A1370200CA
:1017E000993702009F360200A9360200C536020072
:1017F0009B36020089360200000000000500000050
:101800000A0000000F0000000000000005000000BA
:101810000A0000000F0000000000000005000000AA
:101820000A0000000F0000004253505F464154413F
:101830004C5F4552524F52210A0000004932433159
:101840000000000054656D70300000004163636566
:101850006C3000004750444D413000004750444D2B
:10186000413100005541525430000000436F6E7307
:101870006F6C650041444330000000004441433038
:1018800000000000466C6173683000004261636BC9
:101890006C696768740000004C4344004C43444347
:1018A0006F6E74726F6C6C657200000053706561CE
:1018B0006B65720052544300436865636B696E67E1
:1018C00020525443202E2E2E00000000525443205C
:1018D00077617320696E76616C69642C2072657320
:1018E000657420746F2030312F30312F3230303911
:1018F0002031323A30303A30300000005254432028
:101900006572726F7220232564212020436F756CED
:1019100064206E6F7420636865636B2076616C6908
:1019200064697479210A0000525443204F4B00002F
:10193000454550524F4D30005761746368646F677E
:1019400000000000555342486F73743A506F727430
:1019500041000000555342486F73743A506F7274DF
:101960004200000046415446530000002F00000092
:101970004D5330004D434900414D503000000000B0
:10198000435243300000000050574D30000000002B
:1019900050574D3100000000546F756368736372D7
:1019A00065656E00555342446576696365436F6EA5
:1019B00074726F6C6C65720054696D6572300000F2
:1019C000FFFFFFFFFFFFFFFFFFFFFFFFFFFFFFFF27
:1019D000FFFFFFFFFFFFFFFF000000A000008000EF
:1019E0000202000000879303400000000010000086
:1019F00002000000030000000500000002000000DB
:101A000004000000020000000400000004000000C8
:101A1000050000000100000002000000001BB700EC
:101A2000000E2707006CDC02010102010202010026
:101A300001000000FFFFFFFF881900000001000007
:101A4000B80B000000000000B80B0000FFFF000012
:101A500000000000FFFF020204020302FFFF050274
:101A6000FFFFFFFF1C041D0406020A000802090212
:101A7000FFFFFFFF140115011601170118011901DD
:101A8000FFFFFFFF0C020D021A011B011C011D01CB
:101A9000FFFFFFFF000000000000000090190000A1
:101AA000020001020000000001000000900100009F
:101AB000100000000A0000001D001E00FFFFFFFFD5
:101AC000FFFFFFFFFFFFFFFFFFFFFFFFFFFFFFFF26
:101AD000FFFFFFFFFFFF1301FFFFFFFFFFFF0000FE
:101AE0001F00FFFF0E000D00FFFFFFFFFFFFFFFFC6
:101AF000FFFFFFFFFFFFFFFFFFFFFFFFFFFFFFFFF6
:101B0000FFFFFFFFFFFF0000060107010B010C01B3
:101B100013001400FFFFFFFF7418000000001700FF
:101B20000000000001000000130200007418000013
:101B30000100180000000000010000001201000078
:101B4000FFFFFFFFFFFFFFFF1E011F00FFFF0E0053
:101B50000D0000000401FFFFFFFF01010001FFFF76
:101B6000FFFFFFFFFFFFFFFF0A0109010E010F0149
:101B7000FFFF080110011101416363656C65726F1D
:101B80006D657465723A467265657363616C653A3A
:101B90004D4D41373435353A49324300781B00000A
:101BA00000010000E55902001C000000D5590200A8
:101BB000FD590200D95902001880190016011000C1
:101BC000110012001300140015001C001D001E005F
:101BD00000000000416363656C65726F6D6574653C
:101BE000723A53543A4C49533344483A49324300C9
:101BF000D41B000000010000575C0200240000001C
:101C0000535C0200415D02006D5C02004144433AB6
:101C100047656E65726963000C1C000000010000DE
:101C2000695E020010000000995E02008F5E0200F3
:101C30001C20406080000000417564696F416D7038
:101C40003A4E58503A4C4D34383131300000000093
:101C5000381C000000010000256102002000000087
:101C6000956002000961020009600200A15F0200A4
:101C70000D5F0200115F02004261636B6C6967686F
:101C8000743A47656E657269633A50574D000000BB
:101C9000781C000000010000936102003000000089
:101CA000A9610200F56102003D6202004352433A1D
:101CB00047656E6572696300AC1C0000000100009E
:101CC000836402000C000000896302008D6302003F
:101CD00091630200B7630200DD6302000364020047
:101CE0004F640200296402004441433A47656E652F
:101CF00072696300E81C000006010000B164020084
:101D00000C000000076502002D650200BB640200A4
:101D1000E164020053650200796502004B466C6184
:101D200073680000454550524F4D3A4E58503A4C5A
:101D30005043313778785F3430787800241D0000C4
:101D4000000100005967020064000000F96502000C
:101D5000D16602007D670200466C6173683A4E5896
:101D6000503A4C50433A53504946493A4D3400009A
:101D7000581D000000010000896802000C000000EE
:101D80007D68020081680200F36802003D6902007C
:101D90007F690200EB690200856802009368020017
:101DA000A56802002F6A02006F6A0200AF6A020093
:101DB000436F6D6D6F6E20535049464920436F6DE0
:101DC0006D616E6420536574000000004D5832351B
:101DD0004C313238333546004D5832354C3132387B
:101DE00033334600CC1D0000C22018000000000064
:101DF000000000004D010100000100000000010092
:101E00000010001000010000003F00008532543235
:101E1000320002060A0C0D11D81D0000C220180065
:101E200000000000000000004D0101000001000062
:101E3000000001000010001000010000003F000041
:101E400085325432320002060A0C0D114750444DBF
:101E5000413A47656E657269630000004C1E0000E0
:101E600000010000E17802001C000000117902006E
:101E700051790200957802008D790200C57902003F
:101E8000B1780200BD780200C9780200D57802005E
:101E9000257A0200397A0200537A0200697A020038
:101EA000977C02004932433A47656E657269630068
:101EB000A41E000000010000A17C02003800000008
:101EC000817A0200517B0200257C0200997B02008E
:101ED000BB7B0200DD7B0200037C02004C43443AE2
:101EE00047656E657269635F343830783237323AED
:101EF00038426974000000004C43443A47656E65FF
:101F00007269635F343830783237323A493135425A
:101F1000697400004C43443A47656E657269635FBB
:101F2000343830783237323A313642697400000042
:101F30004D533A5553420000301F0000000100008D
:101F4000C58102008802000005820200377D020080
:101F5000E97F0200ED7D0200C37D0200F1850200F1
:101F6000057D0200097D0200157D02000D7D020045
:101F7000117D0200301F000000010000418D0200B1
:101F8000300000003186020091860200598902006B
:101F90005B8C020043860200C38802004786020071
:101FA0004B860200758602004F86020053860200AF
:101FB000B1890200578602005254433A47656E6564
:101FC00072696300B81F0000000100004B8E020020
:101FD0000C000000258E0200C58D0200EB8D020072
:101FE000C18D020053657269616C3A47656E657216
:101FF00069630000E41F0000000100007D8E020004
:1020000020000000F38E0200238F02006F90020078
:10201000958F0200D58F0200518F020054656D70BC
:10202000657261747572653A4E58503A4C4D373549
:10203000410000001C20000000010000459102004A
:10204000100000004F91020054696D65723A4765B7
:102050006E65726963000000482000000001000006
:10206000039202001400000011920200319202005B
:10207000519202007192020097920200BD920200FA
:10208000F19202001D930200546F6E6547656E6504
:102090007261746F723A4E58503A47656E65726954
:1020A000635F50574D0000008820000000010000D1
:1020B00085930200200000007D93020081930200BE
:1020C0009993020080283CD50101A0010A0628004E
:1020D000546F75636873637265656E3A4D433A4633
:1020E000543533303644453400000000D020000021
:1020F0000001000099950200BC000000A5940200B8
:10210000AF940200B5950200B99402005595020003
:10211000C79402000000000000000000802850DB8F
:102120000006A0010A0628005553424465766963FB
:10213000653A4E58503A4C5043313778785F3430D6
:10214000787800002821000000010000B59D020001
:1021500030010000859D0200679D0200499D02003C
:102160002B9D0200079D0200E19C0200AD9C020035
:10217000799C0200539C02002D9C02000B9C0200E3
:10218000E99B0200C39B02006F9B02001D9B0200A3
:10219000C59A0200659A0200339A0200119A020061
:1021A00047656E657269633A555342486F737400B0
:1021B000A021000000010000F1A5020024000000A1
:1021C000BDA5020073A5020051A5020033A50200BF
:1021D0000DA50200EBA40200C1A402009BA4020012
:1021E00067A402003DA40200EBA30200A7A3020023
:1021F00067A3020027A30200E7A20200A7A2020031
:1022000067A2020015A20200FD9F0200EF9F0200DC
:102210000BA00200E19F02005761746368646F675E
:102220003A47656E6572696300000000182200007D
:1022300007010000A5A6020014000000AFA60200DE
:10224000D5A60200FBA602001DA702003BA70200C4
:102250005DA702007FA70200A1A70200C5A7020098
:10226000494E464F00000000494E414D000000001D
:1022700049415254000000004441432041756469C3
:102280006F0000004D7574655461736B00000000B1
:102290004641494C3A204672657175656E637920F6
:1022A0006D757374206265203120746F2031303079
:1022B0003030300A000000004641494C3A2053615A
:1022C0006D706C652072617465206D757374206229
:1022D00065203130303020746F2031303030303074
:1022E0002E2020557375616C6C792032323130307C
:1022F0000A0000004641494C3A2054696D6572203D
:102300006572726F722025640A0000004641494CD4
:102310003A204E6F7420656E6F756768206D656D2D
:102320006F727920746F20637265617465207361C8
:102330006D706C650A0000004641494C3A20496EB8
:10234000636F727265637420706172616D6574652C
:1023500072732E0A415544494F444143203C6672F2
:10236000657175656E63793E203C73616D706C6557
:1023700020726174653E203C6D7320746F20706C18
:1023800061793E203C74696D65722064726976657E
:10239000723E0A00546573742023256420577269C5
:1023A00074650A0046696C652025732063616E6E52
:1023B0006F74206265206F70656E20666F72207783
:1023C000726974696E67210A000000004641494C39
:1023D0003A2046696C6520577269746520457272AF
:1023E0006F720A0046696C652025732063616E6E0A
:1023F0006F74206265206F70656E20666F72207248
:10240000656164696E67210A000000004641494C1D
:102410003A2046696C652052656164204572726F8E
:10242000720A00004641494C3A204D69736D61744F
:102430006368206174206F6666736574202564206C
:102440002830782530325820213D20307825303210
:1024500058290A004641494C3A2046494C455445C2
:1024600053545752495445203C66696C656E616D02
:10247000653E203C73697A653E203C6D656D206247
:102480006C6F636B2073697A653E203C6E756D548A
:10249000696D65733E0A00005465737420232564DA
:1024A000205665726966790A000000004641494C71
:1024B0003A204F7574206F66206D656D6F727920BC
:1024C000746F2072756E20746573740A00000000CA
:1024D00049324320427573202573206E6F74206645
:1024E0006F756E64210A000050726F62696E67201A
:1024F000616C6C2031323720493243206164647250
:102500006573736573206F6E2025733A0A000000AF
:10251000202044657669636520402030782530327C
:10252000580A0000202054696D656F75742061742D
:102530002064657669636520307825303258210043
:10254000504153533A204F4B0A0000004641494C3A
:102550003A20496E636F72726563742070617261B4
:102560006D65746572732E0A49324350524F42456D
:10257000203C627573206E756D6265723E0A0000C4
:102580004932433000000000416464726573732077
:102590006D75737420626520372D62697420283050
:1025A0002D313237290A000056616C756573206938
:1025B0006E207772697465206D7573742062652072
:1025C00062797465732028302D323535292E20200C
:1025D0002564206973206F7574206F662072616EA8
:1025E00067652E0A0000000057726974696E6720E3
:1025F000746F206275732025732C206164647220CF
:102600003078253032583A0A000000004641494CE3
:102610003A204E414B0A00004641494C3A20546949
:102620006D656F7574210A004641494C3A20457228
:10263000726F72202325640A000000004641494C55
:102640003A20496E636F72726563742070617261C3
:102650006D65746572732E0A493243575249544569
:10266000203C627573206E756D6265723E203C6120
:102670006464723E205B3C627974653E202E2E2E8F
:102680005D0A00004F7574206F662073706163658A
:102690002E204C696D6974656420726561642062E6
:1026A0007566666572206F662025642062797465A0
:1026B000730A000052656164696E67206275732059
:1026C00025732C2061646472203078253032582CB8
:1026D0002025642062797465733A0A0025303258E7
:1026E000200000002D2000004641494C3A20496E50
:1026F000636F727265637420706172616D65746579
:1027000072732E0A49324352454144203C6275732C
:10271000206E756D6265723E203C616464723E207D
:102720003C6E756D3E0A00004641494C3A204572A8
:10273000726F722025640A004641494C3A20496E66
:10274000636F727265637420706172616D65746528
:1027500072732E0A574156504C4159203C7761768E
:102760002066696C653E0A0025750000257800002A
:102770000D0A0000556E6B6E6F776E20636F6D6D86
:10278000616E643A2025730A000000000A232000CD
:102790000D0A0D0A0000000025730D0A000000005C
:1027A0000D0A2320257300000820080052455045DB
:1027B00041543A2025730A00434D440025753A00E0
:1027C0004641543332202020000000002A2B2C3AAE
:1027D0003B3C3D3E5B5D7C223F7F0000EBFE904D2D
:1027E00053444F53352E30004E4F204E414D45201F
:1027F0002020204641543332202020004E4F204ECE
:10280000414D4520202020464154202020202000FA
:102810000100040010004000000100020000000060
:102820000100020004000800100020000000000069
:102830000700000000000000000000000000000091
:10284000809A45418E418F804545454949498E8F43
:102850009092924F994F555559999A9B9C9D9E9F46
:1028600041494F55A5A5A6A7A8A9AAABACADAEAF47
:10287000B0B1B2B3B4B5B6B7B8B9BABBBCBDBEBFE0
:10288000C0C1C2C3C4C5C6C7C8C9CACBCCCDCECFD0
:10289000D0D1D2D3D4D5D6D7D8D9DADBDCDDDEDFC0
:1028A000E0E1E2E3E4E5E6E7E8E9EAEBECEDEEEFB0
:1028B000F0F1F2F3F4F5F6F7F8F9FAFBFCFDFEFFA0
:1028C00046533A464154465300000000C0280000D9
:1028D0000001000083E50200C8080000B9E502001D
:1028E0007BE70200BDE7020003E8020049E80200BE
:1028F000DBEA0200A3E9020069E8020083E60200C5
:10290000BDE60200FDE6020083E80200A7E802003F
:10291000C7E8020009E9020049E902006FE9020084
:1029200037E702002000207E542A0000F42900002E
:10293000342900000000000001000200040006002D
:1029400008000A000B000C000D000E001000110022
:1029500012001300140016001700180019001B00C5
:102960001D001F0020002100230024002500270057
:1029700029002B002D002F003100330035003700D7
:1029800039003B003D003F0040004100430045004E
:10299000470049004B004D004F00510053005500C7
:1029A000570059005B005D005F006100620063003A
:1029B00064006500670068006A006C006D006E00CE
:1029C0006F00700071007200730074007500760073
:1029D000780079007B007D007E007F008000810010
:1029E00082008300850086008700880089008A00B5
:1029F0008B008D00090E0C12121D16080D0C0C1404
:102A00000C0C0C09131414131313141413140C0CBE
:102A100015151513231518191A18171B1A0C111848
:102A2000151E1A1B181B1A16131915201616150B2E
:102A3000090A0F120D12131112120B1214090712A8
:102A4000091D141213120D11091410171010100C77
:102A50000B0C14000000001C001C001C001C001CBF
:102A6000001C001C001C001C001C001C001C001C86
:102A7000001C001C001C000000000000001C001CCA
:102A8000001C00000000000000000000000000002A
:102A9000000000000000C071C071C071C071C07141
:102AA000C071C071000000000000000000000000C4
:102AB0000000000000000000000000000000000016
:102AC0000000000000000000000000000000000006
:102AD00000000000000000000201000006030000EA
:102AE0000603000006030000040200000C060000BC
:102AF000FF7F0080FF7F00800C06000008040000BC
:102B0000180C0000180C0000180C0000180C000035
:102B1000FFFF0080FFFF0080301800003018000029
:102B20002010000020100000603000006030000025
:102B30000000000000000000000000000000000095
:102B40000000000000000000000000000000000085
:102B500000000000C0000000C0000000F8070000F6
:102B6000FF1F0000CF3C0080C3780080C17000C010
:102B7000C0700000C0700000C0780000C03C0000C1
:102B8000C01F0000FC0F0000FF010000CF0000800C
:102B9000C30000C0C10000C0C10000C0C1E000C04F
:102BA000C1F000C0C3700080CF7C0080FF1F000018
:102BB000F8070000C0000000C0000000C0000000D6
:102BC0000000000000000000000000000000000005
:102BD0000000000000000000000F001CC03F0018B3
:102BE000C0300030E070007060600060606000E045
:102BF000606000C0616000806360008F6360C03F00
:102C0000E670C030C630E070CC3F60601C0F606082
:102C1000180060603000606070006060600060609C
:102C2000C000E070C000C0308001C03F8003000FD2
:102C30000000000000000000000000000000000094
:102C40000000000000000000000000000000000084
:102C50000000000000000000F8000000FE0300007B
:102C6000070700000306000003060000030600003B
:102C7000060600001E070000F8030000E003000045
:102C8000800F0000C01F0060C03C00E0603800C042
:102C9000717000C0397000801F7000800F700000DC
:102CA000077800001F3C0080FD1F00F8E00700F8D7
:102CB0000000000000000000000000000000000014
:102CC0000000000000000000000000000000000004
:102CD00000000000000000380038003800380038DC
:102CE0000038003800000000000000000000000074
:102CF00000000000000000000000000000000000D4
:102D000000000000000000000000000000000000C3
:102D100000000000C001800300030007000E000E49
:102D2000001C001C001C001C003800380038003853
:102D3000003800380038003800380038001C001C0B
:102D4000001C001C000E000E000700038003C001E1
:102D500000000000007000380018001C000E000E7B
:102D6000000700070007000780038003800380033B
:102D70008003800380038003800380030007000733
:102D800000070007000E000E001C0018003800703D
:102D90000000000000000006000600062046F0FFCC
:102DA000C03F000F000F8019C039801000000000E4
:102DB0000000000000000000000000000000000013
:102DC0000000000000000000000000000000000003
:102DD00000000000000000000000000000000000F3
:102DE00000000000C0000000C0000000C0000000A3
:102DF000C0000000C0000000C0000000C0000000D3
:102E0000FF7F0080FF7F0080C0000000C000000046
:102E1000C0000000C0000000C0000000C0000000B2
:102E2000C0000000000000000000000000000000E2
:102E30000000000000000000000000000000000092
:102E40000000000000000000000000000000000082
:102E50000000000000000000000000000000000072
:102E60000000000000000000000000000000000062
:102E7000000000000000000000000000001C001C1A
:102E8000001C000C000C000C0018001800000000D2
:102E90000000000000000000000000000000000032
:102EA0000000000000000000000000000000807F23
:102EB000807F807F00000000000000000000000014
:102EC0000000000000000000000000000000000002
:102ED00000000000000000000000000000000000F2
:102EE00000000000000000000000000000000000E2
:102EF000000000000000000000000000001C001C9A
:102F0000001C0000000000000000000000000000A5
:102F10000000000080038003000300070007000694
:102F20000006000E000E000C000C001C001C001817
:102F3000003800380030003000700070006000E0A1
:102F400000E00000000000000000000000000000A1
:102F50000000000000000000F0030000FC0F000073
:102F60001E1E00000E3C000007380000073800005D
:102F70000370008003700080037000800370008085
:102F80000370008003700080037000800370008075
:102F900003700080037000800738000007380000CD
:102FA0000E1C00001E1E0000FC0F0000F0030000BD
:102FB0000000000000000000000000000000000011
:102FC0000000000000000000000000000000000001
:102FD000000000000000E001E003E00FE01EE01848
:102FE000E010E000E000E000E000E000E000E000D1
:102FF000E000E000E000E000E000E000E000FF3F73
:10300000FF3F000000000000000000000000000082
:10301000000000000000F003FC0F1E1E0F1C07380C
:103020000738070007000E000E001C003800700073
:10303000E001C0038007000F000E001C0038FF3FB6
:10304000FF3F000000000000000000000000000042
:10305000000000000000E007F81F3C3C1E380E7026
:103060000E700E000E001C003C00F003F8031C0064
:103070000E0007000700077007700F381E3CFC1F8A
:10308000F007000000000000000000000000000049
:1030900000000000000000003C0000003C000000B8
:1030A0007C000000FC000000DC000000DC010000EF
:1030B0009C0300001C0300001C0700001C0E000005
:1030C0001C0E00001C1C00001C3800001C380000F6
:1030D0001C700000FF7F0080FF7F00801C0000004C
:1030E0001C0000001C0000001C0000001C00000070
:1030F00000000000000000000000000000000000D0
:1031000000000000000000000000000000000000BF
:103110000000000000000000FF1F0000FF1F000073
:1031200000180000003800000038000000380000DF
:103130000038000000380000F8390000FE3F0000B1
:103140001F3E0000073800000700008003000080D9
:1031500003000080030000800310008007700080DF
:10316000073800001E3C0000FC1F0000F0070000B4
:10317000000000000000000000000000000000004F
:10318000000000000000000000000000000000003F
:103190000000000000000000F8010000FC07000033
:1031A0001E0F00000F0E0000071C0000001C000096
:1031B0000018000000380000F8380000FE3B000056
:1031C0000F3E0000073C0000033C008003380080F5
:1031D0000338008003380080031C0080031C00803B
:1031E000071E00000F0F0000FE070000F80100009E
:1031F00000000000000000000000000000000000CF
:1032000000000000000000000000000000000000BE
:10321000000000000000FF3FFF3F07000E000C0011
:103220001C0018003800300070006000E000E00072
:10323000C001C001C001C00180038003800380037E
:1032400080030000000000000000000000000000FB
:10325000000000000000F007F80F1C1C0E380E38AC
:103260000E380E380E381C1CF80FF80F1C1C0E38C8
:10327000077007700770077007700E381E3CFC1F40
:10328000F007000000000000000000000000000047
:103290000000000000000000F0030000FC0F000030
:1032A0001E1E00000F1C0000073800000738000039
:1032B000033800800338008003380080073800801E
:1032C000071C00801F1E0080FB0F0080E3030080AE
:1032D000030000800700000007000000073800001E
:1032E0000E3C00001C1E0000F80F0000F003000060
:1032F00000000000000000000000000000000000CE
:1033000000000000000000000000000000000000BD
:1033100000000000000000000000000000000000AD
:10332000001C001C001C0000000000000000000049
:10333000000000000000000000000000001C001C55
:10334000001C000000000000000000000000000061
:10335000000000000000000000000000000000006D
:10336000001C001C001C0000000000000000000009
:10337000000000000000000000000000001C001C15
:10338000001C000C000C000C0018001800000000CD
:10339000000000000000000000000000000000002D
:1033A0000000000000000080030000800F0000808B
:1033B0007E000000F8010000C0070000001F0000B0
:1033C000003C000000300000003C0000001F000036
:1033D000C0070000F80100007E0000000F00008020
:1033E00003000080000000800000000000000000DA
:1033F00000000000000000000000000000000000CD
:1034000000000000000000000000000000000000BC
:1034100000000000000000000000000000000000AC
:10342000000000000000000000000000000000009C
:10343000FF3F0080FF3F0080000000000000000010
:10344000000000000000000000000000000000007C
:10345000FF3F0080FF3F00800000000000000000F0
:10346000000000000000000000000000000000005C
:10347000000000000000000000000000000000004C
:10348000000000000000000000000000000000003C
:10349000000000000000000000000000000000002C
:1034A000000000000020000000380000003E000086
:1034B000C00F0000F00300007C0000001F000000AF
:1034C0000700008001000080070000801F0000004E
:1034D0007C000000F0030000C00F0000003E000070
:1034E0000038000000200000000000000000000084
:1034F00000000000000000000000000000000000CC
:1035000000000000000000000000000000000000BB
:103510000000000000000000F8030000FE0F0000A3
:103520000F1E000007380000037800800370008041
:103530000330008003000080070000000F0000003F
:103540001E0000003C000000F0000000E000000051
:10355000C0010000C00100000000000000000000E9
:1035600000000000C0010000C0010000C001000018
:10357000000000000000000000000000000000004B
:10358000000000000000000000000000000000003B
:1035900000000000030000FC1F0080FF7C00C0034F
:1035A000F000E000C001700080033800030718E35A
:1035B0000F0618FB1E0E0C1B1C0C0C0F380C0C06F7
:1035C00038180C0670180C0670180C0E70180C0CBD
:1035D0007018180C7018181C7018383C3818706C5B
:1035E0003F0CE0CF0F0C80870006000000070000B2
:1035F00080038001F001800F7F0000FE1F0000F0BB
:1036000000000000000000000000000000000000BA
:10361000000000000000000070000000F800000042
:10362000D8000000DC010000DC0100008C0100007B
:103630008E0300008E03000007070000070700004C
:1036400003060000030E0080030E0080FF1F00C071
:10365000FF1F00C0001800C0003800E0003800E084
:1036600000700070007000700070007000E00038A2
:10367000000000000000000000000000000000004A
:10368000000000000000000000000000000000003A
:103690000000000000000000FE1F0000FF1F00806F
:1036A000031C00C0011C00E0001C00E0001C00E046
:1036B000001C00E0001C00E0011C00C0031C008096
:1036C000FF1F0000FF1F0080011C00E0001C00E045
:1036D000001C0070001C0070001C0070001C0070BA
:1036E000001C00F0011C00E0FF1F00C0FF1F0000D5
:1036F00000000000000000000000000000000000CA
:1037000000000000000000000000000000000000B9
:1037100000000000000000007F000000FF0100E04A
:10372000C10700F0000F0078000E0038001C001CDC
:10373000001C0000003800000038000000380000C5
:103740000038000000380000003800000038000099
:1037500000380000001C0018001C001C000E00387F
:10376000000F0078C10700F0FF0100C07F000000DB
:103770000000000000000000000000000000000049
:103780000000000000000000000000000000000039
:103790000000000000000000FC1F0000FF1F008070
:1037A000031C00E0001C00F0001C0070001C00382E
:1037B000001C0038001C001C001C001C001C001C0D
:1037C000001C001C001C001C001C001C001C001C19
:1037D000001C003C001C0038001C0038001C00705D
:1037E000001C00E0031C00E0FF1F0080FE1F000023
:1037F00000000000000000000000000000000000C9
:1038000000000000000000000000000000000000B8
:103810000000000000000000FF1F00E0FF1F00E0AC
:10382000001C0000001C0000001C0000001C000028
:10383000001C0000001C0000001C0000001C000018
:10384000FF1F00C0FF1F00C0001C0000001C000084
:10385000001C0000001C0000001C0000001C0000F8
:10386000001C0000001C0000FF1F00F0FF1F00F004
:103870000000000000000000000000000000000048
:103880000000000000000000000000000000000038
:103890000000000000000000FF1F00C0FF1F00C06C
:1038A000001C0000001C0000001C0000001C0000A8
:1038B000001C0000001C0000001C0000001C000098
:1038C000001C0000FF1F00C0FF1F00C0001C000004
:1038D000001C0000001C0000001C0000001C000078
:1038E000001C0000001C0000001C0000001C000068
:1038F00000000000000000000000000000000000C8
:1039000000000000000000000000000000000000B7
:1039100000000000000000007F000080FF0100F0B8
:10392000C00700F8000F003C000E001E001C000C39
:10393000001C0000003800000038000000380000C3
:1039400000380000073800FE073800FE0038000E7F
:103950000038000E001C000E001C000E000E000EB1
:10396000000F001EC00700FCFF0100F07F00008078
:103970000000000000000000000000000000000047
:103980000000000000000000000000000000000037
:103990000000000000000000001C0038001C00387F
:1039A000001C0038001C0038001C0038001C0038C7
:1039B000001C0038001C0038001C0038FF1F00F8F5
:1039C000FF1F00F8001C0038001C0038001C0038E5
:1039D000001C0038001C0038001C0038001C003897
:1039E000001C0038001C0038001C0038001C003887
:1039F00000000000000000000000000000000000C7
:103A000000000000000000000000000000000000B6
:103A1000000000000000001C001C001C001C001C1A
:103A2000001C001C001C001C001C001C001C001CB6
:103A3000001C001C001C001C001C001C001C001CA6
:103A4000001C00000000000000000000000000005A
:103A5000000000000000FC01FC011C001C001C0018
:103A60001C001C001C001C001C001C001C001C0076
:103A70001C001C001C001C701C703838783CF01FA7
:103A8000C00700000000000000000000000000006F
:103A90000000000000000000001C00F0011C00E01D
:103AA000031C00C0071C00800F1C00001E1C00002F
:103AB0003C1C0000781C0000F01C0000E01D000011
:103AC000E01F0000F01F0000381E00001C1C00005A
:103AD0001E1C00000F1C0000071C0000031C0080BF
:103AE000031C00C0011C00E0001C00F0001C00785A
:103AF00000000000000000000000000000000000C6
:103B000000000000000000000000000000000000B5
:103B10000000000000000000001C0000001C00006D
:103B2000001C0000001C0000001C0000001C000025
:103B3000001C0000001C0000001C0000001C000015
:103B4000001C0000001C0000001C0000001C000005
:103B5000001C0000001C0000001C0000001C0000F5
:103B6000001C0000001C0000FF1F0080FF1F0080E1
:103B70000000000000000000000000000000000045
:103B80000000000000000000000000000000000035
:103B90000000000000000000001E000F001F001FBA
:103BA000001F001F001F001F801F003F801D0037E7
:103BB000C01D0037C01D0077C01C0067E01C00E777
:103BC000E01C00E7601C00C7711C00C7711C00C727
:103BD000311C00873B1C00871B1C00871B1C000737
:103BE0001B1C00070E1C00070E1C00070E1C000704
:103BF00000000000000000000000000000000000C5
:103C000000000000000000000000000000000000B4
:103C10000000000000000000001E0038001F0038F7
:103C2000001F0038801F0038C01D0038C01D00383C
:103C3000E01C0038E01C0038701C0038381C0038CC
:103C4000381C00381C1C00381C1C00380E1C0038A6
:103C5000071C0038071C0038031C00B8031C00B800
:103C6000011C00F8001C00F8001C00F8001C007883
:103C70000000000000000000000000000000000044
:103C80000000000000000000000000000000000034
:103C900000000000000000007F000000FF0100C0E5
:103CA000C10700F0000F0078000E0038001C001C57
:103CB000001C001C0038000E0038000E0038000EFA
:103CC0000038000E0038000E0038000E0038000EDC
:103CD0000038000E001C001C001C001C000E0038E8
:103CE000000F0078C10700F0FF0100C07F00000056
:103CF00000000000000000000000000000000000C4
:103D000000000000000000000000000000000000B3
:103D10000000000000000000FF1F0000FF1F00C0A7
:103D2000011C00E0001C00E0001C0070001C007082
:103D3000001C0070001C0070001C0070001C00E0E3
:103D4000011C00E0FF1F00C0FF1F0000001C00005E
:103D5000001C0000001C0000001C0000001C0000F3
:103D6000001C0000001C0000001C0000001C0000E3
:103D70000000000000000000000000000000000043
:103D80000000000000000000000000000000000033
:103D900000000000000000007F000000FF0100C0E4
:103DA000C10700F0000F0078000E0038001C001C56
:103DB000001C001C0038000E0038000E0038000EF9
:103DC0000038000E0038000E0038000E0038000EDB
:103DD0000038000E001C001C001C001C000E0038E7
:103DE000000F0078C10700F0FF0300C07F00000053
:103DF0000E0000000E0000000F0000000700008011
:103E0000030000F0010000F00000000000000000CE
:103E10000000000000000000FF1F0080FF1F00E006
:103E2000001C00F0001C0070001C0038001C003852
:103E3000001C0038001C0038001C0038001C0070FA
:103E4000001C00F0FF1F00E0FF1F0000071C000027
:103E5000031C0080031C00C0011C00C0001C00E00B
:103E6000001C00F0001C0070001C0038001C003C0E
:103E70000000000000000000000000000000000042
:103E80000000000000000000000000000000000032
:103E90000000000000000000FE030000FF0F008093
:103EA000071E00C0013C00C0003800E000380000E0
:103EB00000380000003C0000001F0000F00F000070
:103EC000FF070000FF0000C0070000E0000000F056
:103ED000000000700000007000700070007800703A
:103EE000003C00E0031E00E0FF0F0080FE03000026
:103EF00000000000000000000000000000000000C2
:103F000000000000000000000000000000000000B1
:103F10000000000000000000FFFF00E0FFFF00E0E5
:103F2000E0000000E0000000E0000000E000000011
:103F3000E0000000E0000000E0000000E000000001
:103F4000E0000000E0000000E0000000E0000000F1
:103F5000E0000000E0000000E0000000E0000000E1
:103F6000E0000000E0000000E0000000E0000000D1
:103F70000000000000000000000000000000000041
:103F80000000000000000000000000000000000031
:103F90000000000000000000003800380038003841
:103FA0000038003800380038003800380038003851
:103FB0000038003800380038003800380038003841
:103FC0000038003800380038003800380038003831
:103FD000003800380038003800380078001C0070C5
:103FE000001E00F0030F00E0FF070080FE0000004D
:103FF00000000000000000000000000000000000C1
:1040000000000000000000000000000000000000B0
:10401000000000000000000000E0003800700070A8
:1040200000700070007800F0003800E0003800E018
:10403000011C00C0011C00C0011C00C0030E008058
:10404000030E0080070700000707000007070000B5
:104050008E0300008E030000DC010000DC01000084
:10406000D8000000F8000000F80000007000000018
:104070000000000000000000000000000000000040
:104080000000000000000000000000000000000030
:10409000000000000000000007E01C8007F03C80EA
:1040A00007703880077038800F7038C00F3870C0C4
:1040B0000C3870C00C3870C01C1CE0E01C1CE0E028
:1040C000181CE060381CE070380EC071300EC03132
:1040D000300EC0317007803B7007803B6007801B4B
:1040E0006003001BE003001FE003001FC003000F7C
:1040F00000000000000000000000000000000000C0
:1041000000000000000000000000000000000000AF
:104110000000000000000000003C00F0001C00E077
:10412000010E00C0030F00C00307008087030000DA
:10413000CF010000CE010000FC000000780000006C
:104140007800000078000000FC000000CE010000B4
:10415000C70100008703000003070080010E00C0B4
:10416000010E00C0001C00E00038007000780078EC
:10417000000000000000000000000000000000003F
:10418000000000000000000000000000000000002F
:104190000000000000000000007800780038007087
:1041A000001C00E0011C00E0010E00C0030F0080B5
:1041B00007070000870300008E030000DC010000F9
:1041C000FC000000F800000070000000700000001B
:1041D000700000007000000070000000700000001F
:1041E000700000007000000070000000700000000F
:1041F00000000000000000000000000000000000BF
:1042000000000000000000000000000000000000AE
:104210000000000000000000FF3F00C0FF3F00C0A2
:104220000300008007000080070000000E0000006F
:104230001C0000003C00000038000000700000007E
:10424000E0000000E0010000C00100008003000069
:1042500080070000000F0000000E0000001C00009E
:10426000003C000000380000FF7F00E0FF7F00E01E
:10427000000000000000000000000000000000003E
:10428000000000000000000000000000000000002E
:1042900000000000003F003F0038003800380038C0
:1042A000003800380038003800380038003800384E
:1042B000003800380038003800380038003800383E
:1042C000003800380038003800380038003F003F20
:1042D0000000000000E000E00060006000700030BE
:1042E00000300038003800180018001C001C000CBA
:1042F000000E000E00060006000700070003800302
:10430000800300000000000000000000000000002A
:1043100000000000007E007E000E000E000E000E69
:10432000000E000E000E000E000E000E000E000E1D
:10433000000E000E000E000E000E000E000E000E0D
:10434000000E000E000E000E000E000E007E007E1D
:104350000000000000008003C007C006E00E701CD3
:104360003018383818301C700C600EE00000000067
:10437000000000000000000000000000000000003D
:10438000000000000000000000000000000000002D
:10439000000000000000000000000000000000001D
:1043A000000000000000000000000000000000000D
:1043B00000000000000000000000000000000000FD
:1043C00000000000000000000000000000000000ED
:1043D00000000000000000000000000000000000DD
:1043E00000000000000000000000000000000000CD
:1043F00000000000000000000000000000000000BD
:10440000FFFF00C0FFFF00C0000000000000000030
:1044100000000000003C001E000E000380010000B0
:10442000000000000000000000000000000000008C
:10443000000000000000000000000000000000007C
:10444000000000000000000000000000000000006C
:10445000000000000000000000000000000000005C
:10446000000000000000000000000000F007000055
:10447000F80F00001C1C00000E3800000E38000071
:104480000E0000000E000000FE070000FE1F0000EE
:104490000E3C00000E7800000E7000001E70000040
:1044A0001E7000006F780000E73F00C0871F00C04B
:1044B00000000000000000000000000000000000FC
:1044C00000000000000000000000000000000000EC
:1044D0000000000000380000003800000038000034
:1044E000003800000038000000380000F8380000F4
:1044F000FE3B00000F3E0000073C0000073C008030
:1045000003380080033800800338008003380080BF
:10451000033800800338008003380080073C0080A7
:10452000073C00000F3E0000FE3B0000F838000092
:10453000000000000000000000000000000000007B
:10454000000000000000000000000000000000006B
:10455000000000000000000000000000000000005B
:10456000E007F80F3C1C1C380E3000700070007023
:1045700000700070007008700E381C383C1CF80F7A
:10458000E007000000000000000000000000000044
:1045900000000000070007000700070007000700F1
:1045A000C707F71F1F3C0F380F7807700770077099
:1045B00007700770077007700F700F381F3CF71FE8
:1045C000C70700000000000000000000000000001D
:1045D00000000000000000000000000000000000DB
:1045E000F007F80F1C1C0E380E3807700770FF7F9D
:1045F000FF7F00700070007004380F381E1CFC0F25
:10460000F0030000000000000000000000000000B7
:10461000000000008007800F001E001C001C001C12
:10462000807F807F001C001C001C001C001C001CE4
:10463000001C001C001C001C001C001C001C001C9A
:10464000001C00000000000000000000000000004E
:10465000000000000000000000000000000000005A
:10466000C707F71F3F3C0F380F78077007700770B8
:1046700007700770077007700F700F383F3CF71F07
:10468000C7070700070007080E381E1EFC0FF007BB
:1046900000000000003800380038003800380038CA
:1046A000F838FE3B0E3E073C073C07380738073812
:1046B0000738073807380738073807380738073802
:1046C00007380000000000000000000000000000AB
:1046D0000000000000380038003800000000000032
:1046E000003800380038003800380038003800380A
:1046F00000380038003800380038003800380038FA
:104700000038000000000000000000000000000071
:1047100000000000001C001C001C00000000000045
:10472000001C001C001C001C001C001C001C001CA9
:10473000001C001C001C001C001C001C001C001C99
:10474000001C001C001C001C001C003C00F800F0B9
:104750000000000000380038003800380038003809
:104760000F381E383C387838F038E038C039803B94
:10477000C03FC03FE03C7038783838381C380E38BD
:104780000F380000000000000000000000000000E2
:1047900000000000003800380038003800380038C9
:1047A0000038003800380038003800380038003849
:1047B0000038003800380038003800380038003839
:1047C00000380000000000000000000000000000B1
:1047D00000000000000000000000000000000000D9
:1047E000000000000000000000000000F839007E1A
:1047F000FC3B00FF1D3E00870F3C80030E3880030A
:104800000E3880030E3880030E3880030E38800384
:104810000E3880030E3880030E3880030E38800374
:104820000E3880030E3880030E3880030E38800364
:104830000000000000000000000000000000000078
:104840000000000000000000000000000000000068
:104850000000000000000000000000000000000058
:10486000F838FE3B0E3E073C073C07380738073850
:104870000738073807380738073807380738073840
:1048800007380000000000000000000000000000E9
:104890000000000000000000000000000000000018
:1048A000000000000000000000000000F003000015
:1048B000FC0F00000E1E0000073800000738000043
:1048C000037000800370008003700080037000801C
:1048D00003700080037000800370008007380000C0
:1048E000073800001E1E0000FC0F0000F00300004F
:1048F00000000000000000000000000000000000B8
:1049000000000000000000000000000000000000A7
:104910000000000000000000000000000000000097
:10492000000000000000000000000000F838000057
:10493000FE3B00000F3E0000073C0000073C0080EB
:10494000033800800338008003380080033800807B
:10495000033800800338008003380080073C008063
:10496000073C00000F3E0000FE3B0000F83800004E
:104970000038000000380000003800000038000057
:10498000003800000038000000380000000000007F
:104990000000000000000000000000000000000017
:1049A000C707F71F1F3C0F380F7807700770077095
:1049B00007700770077007700F700F381F3CF71FE4
:1049C000C7070700070007000700070007000700E8
:1049D00000000000000000000000000000000000D7
:1049E000C039C03BC03F003E003C003800380038B2
:1049F00000380038003800380038003800380038F7
:104A0000003800000000000000000000000000006E
:104A10000000000000000000000000000000000096
:104A2000F007FC1F1C3C0E3800380038003EE01F29
:104A3000F807FC001E000E000E100E701C3CF83F24
:104A4000F00F000000000000000000000000000067
:104A500000000000000000000018001800380038B6
:104A600000FF00FF003800380038003800380038F8
:104A70000038003800380038003800380038003F6F
:104A8000001F000000000000000000000000000007
:104A90000000000000000000000000000000000016
:104AA000073807380738073807380738073807380E
:104AB00007380738073807380F380F381F1CF71F1B
:104AC000C707000000000000000000000000000018
:104AD00000000000000000000000000000000000D6
:104AE00007E00E700E700E701C381C381C38381C15
:104AF000381C300C700E700E6006E007E007C00333
:104B0000C0030000000000000000000000000000E2
:104B10000000000000000000000000000000000095
:104B200000000000000000000000000038E0000E5F
:104B300038E0000E6C60000C6C70001C6C70001C87
:104B40006C300018EE300018C6380038C63800380F
:104B5000C6180030C71D0070831D0070830D0060F3
:104B6000830D0060830D0060830F00E0010700C02B
:104B70000000000000000000000000000000000035
:104B80000000000000000000000000000000000025
:104B90000000000000000000000000000000000015
:104BA0000FE00E701C38381C381C700EE007C00374
:104BB000C003E007E007700E381C383C1C380E704C
:104BC00007E00000000000000000000000000000FE
:104BD00000000000000000000000000000000000D5
:104BE00007E00E700E700E701C381C381818381C38
:104BF000381C300E700E6006E007E007C003C003EB
:104C000080038003800300030007000E007C00780F
:104C10000000000000000000000000000000000094
:104C2000FC3FFC3F3C0038007000E000E001C001A8
:104C300080030007000F000E001C00380078FE7F84
:104C4000FE7F0000000000000000000000000000E7
:104C500000000000C003C007000F000E000E000E91
:104C6000000E000E000E000E000E000E000E001CC6
:104C700000780078001C000E000E000E000E000EE2
:104C8000000E000E000E000E000E000FC007C00345
:104C900000000000001C001C001C001C001C001C6C
:104CA000001C001C001C001C001C001C001C001C24
:104CB000001C001C001C001C001C001C001C001C14
:104CC000001C001C001C001C001C001C001C001C04
:104CD000000000000078007C001E000E000E000E98
:104CE000000E000E000E000E000E000E000E00075B
:104CF000C003C0030007000E000E000E000E000EE1
:104D0000000E000E000E000E000E001E007C00784B
:104D10000000000000000000000000000000000093
:104D20000000000000000000000000000000000083
:104D3000000000000000000000000000001F0080D4
:104D4000E17F0080FF6000803F4000000000000025
:104D50000000000000000000000000000000000053
:104D60000000000000000000000000000000000043
:104D70000000000000000000000000000000000033
:104D80000000000000000000000000000000000023
:104D9000000000004C00207EC44E0000644E000065
:104DA000A44D0000000000000100030006000900FF
:104DB0000D00110012001400160019001C001D0047
:104DC0001F0020002200250027002A002D003000AF
:104DD0003300360039003C003F00400041004400F1
:104DE00047004A004C0050005300560059005C0038
:104DF0005F006200650068006A006C006F0072006E
:104E0000760079007D008000840087008A008D0094
:104E10009000930098009B009E00A100A300A500B5
:104E2000A700AA00AC00AE00B100B400B600B90003
:104E3000BC00BE00C100C400C500C600C900CA0055
:104E4000CE00D100D400D700DA00DC00DE00E000A4
:104E5000E300E600EA00ED00F000F200F400F600E6
:104E6000F800FB00141924332E4339161A1A2D2E7C
:104E7000151B191D2E312E2D2B2F2E2D2E2E1916D2
:104E80002E2E2E21462E36333B2F2C393C1D15332A
:104E90002C493E3D333D342B283C2B442A282C1DE5
:104EA0001D192A1F3B2C3327312D1C283319142C94
:104EB0001A4A3330333124251B33243A2725251D44
:104EC0003C1D2E0000000000FC03FC03FC03FC035F
:104ED000FC03FC03FC03FC03FC03F803F803F801E8
:104EE000F801F801F801F801F801F801F801F801FA
:104EF000F801F801F801F801F801F801F801F801EA
:104F0000F801F801F801F001F000F000F000F00005
:104F1000F000F000F00000000000000000000000C1
:104F20000000F001F803FC07FC07FC07FC07FC0786
:104F3000FC07F803F0010000000000000000000082
:104F40000000000000000000000000000000000061
:104F50000000000000000000000000000000000051
:104F600000000000F007C01FF007C01FF007C01FBF
:104F7000F007C01FF007C01FF007C01FF007C00FE9
:104F8000F003C00FF003C00FF003C00FF003C00F19
:104F9000E003800FE003800FE003800FE003800F49
:104FA000E003800FE003800FE003800FE003800F39
:104FB000E003800F0000000000000000000000007F
:104FC00000000000000000000000000000000000E1
:104FD00000000000000000000000000000000000D1
:104FE00000000000000000000000000000000000C1
:104FF00000000000000000000000000000000000B1
:1050000000000000000000000000000000000000A0
:105010000000000000000000000000000000000090
:105020000000000000000000000000000000000080
:105030000000000000000000000000000000000070
:105040000000000000000000000000000000000060
:105050000000000000000000000000000000000050
:105060000000000000000000000000000000000040
:105070000000000000000000000000000000000030
:105080000000000000000000000000000000000020
:1050900000000000000000000000001F800F000062
:1050A000001F801F0000001F801F0000003F001F26
:1050B0000000003F001F0000003E001F0000003EF7
:1050C000003F0000003E003F0000007E003E000068
:1050D000007E003E0000007E003E0000007C007E5E
:1050E0000000007C007E000000FC007E000000FC50
:1050F000007C000000FC007CFF07FFFFFFFFFF07B4
:10510000FFFFFFFFFF07FFFFFFFFFF07FFFFFFFF9F
:10511000FF07FFFFFFFF010000F000F8010001F0B2
:1051200000F8010001F000F8030001F000F00300B6
:1051300001F000F0030001F000F0030003E000F0D4
:10514000030003E000F0070003E000F0070003E0C5
:1051500000E0070003E000E0070003C000E0FF3FBD
:10516000FFFFF8FFFF3FFFFFF8FFFF3FFFFFF8FFE4
:10517000FF3FFFFFF8FFFF3FFFFFF8FF0F000F802B
:1051800000C00F000F8000C01F000F8000801F00B4
:105190000F8000801F000F0000801F001F00008094
:1051A0001F001F0000803F001F0000803F001F0005
:1051B00000003F001F0000003E001F0000003E00F6
:1051C0003F0000003E003F0000007E003E00000067
:1051D0007E003E0000007C003E0000000000000059
:1051E00000000000000000000000000000000000BF
:1051F00000000000000000000000000000000000AF
:10520000000000000000000000000000000000009E
:10521000000000000000000000000000000000008E
:10522000000000000000000000000000000000007E
:10523000000000000000000000000000000000006E
:10524000000000000000000000000000000000005E
:10525000000000000000003E00000000003E0000D2
:105260000000003E00000000003E00000000003E84
:1052700000000000003E00000000003E00000000B2
:10528000F0FF00000700FFFF00001F00FFFF00E02D
:105290007F00FFFF00F0FF00FFFF00E0FF01FFFFC6
:1052A00000E0FF030F3E00C0FC03013E00C0F80316
:1052B000003E0000F007003E0000F007003E000046
:1052C000F007003E0000F007003E0000F007003E3F
:1052D0000000F007003E0000F007003E0000F80369
:1052E000003E0000FC03003E0000FF01003E000005
:1052F000FF0100FE0000FF0000FE00007F0000FF35
:1053000000001F00E0FF00000700F8FF00000100A0
:10531000FEFF00000000FF3F00800000FF3F00C0D4
:105320000000FF3E00E000003F3E00E000000F3EB6
:1053300000F00000073E00F00000033E00F800000F
:10534000033E00F80000033E00F80000033E00F8B2
:105350000000033E00F80000033E00F80000033E9A
:1053600000F80008073E00F0000F1F3E00F0F00FAD
:105370007F3E00E0FF0FFFFF00C0FF0FFFFF008038
:10538000FF0FFFFF0000FF0FFEFF0000FF01F0FF17
:1053900000001F0000FF00000000003E00000000B1
:1053A000003E00000000003E00000000003E000043
:1053B0000000003E00000000003E00000000003E33
:1053C00000000000003E000000000000000000009F
:1053D00000000000000000000000000000000000CD
:1053E00000000000000000000000000000000000BD
:1053F00000000000000000000000000000000000AD
:10540000000000000000000000000000000000009C
:10541000000000000000000000000000000000008C
:10542000000000000F0000C0000000007F0000F03E
:105430000F0000C0FF0000FC1F000080FF0100FC07
:105440001F000080FF0100FE3F000000F803007F06
:105450003F000000F003003F7E000000E007801FD7
:105460007E000000E007801FFC000000C007800FE6
:10547000F8010000C00F800FF8010000C00FC00F3E
:10548000F0030000C00FC00FF0030000C00FC00FFA
:10549000E0070000C00FC00FE0070000C00FC00F02
:1054A000C00F0000C00FC00F800F0000C00FC00F62
:1054B000801F0000C00FC00F003F0000C00FC00FD2
:1054C000003F0000C00FC00F007E0000C00FC00FE3
:1054D000007E0000C00FC00F07FC00E0C007800F77
:1054E0003FFC00F8C007810F7FF800FEE007831F34
:1054F000FFF000FEE007831FFFF000FFF003073F0F
:10550000FCE1803FF803077FF8E1801FFF010FFEF9
:10551000F0C3C00FFF010FFEF0C3C00FFF001FFC60
:10552000E083C0073F003FF0E007C0070F003FC027
:10553000E007E00700007E00E007E00700007E00D3
:10554000E007E0070000FC00E007E0070000FC00C7
:10555000E007E0070000F801E007E0070000F001C5
:10556000E007E0070000F003E007E0070000E007C5
:10557000E007E0070000E007E007E0070000C00FD9
:10558000E007E0070000C00FE007E0070000801F11
:10559000E003C0070000801FE003C0070000003FD9
:1055A000F003C00F0000007EF003C00F0000007E7B
:1055B000F801801F000000FCFC01803F000000FC9F
:1055C000FF0000FF010000F8FF0000FF010000F8ED
:1055D0007F0000FE030000F01F0000F80000000044
:1055E000070000E0000000000000000000000000D4
:1055F00000000000000000000000000000000000AB
:10560000000000000000000000000000000000009A
:10561000000000000000000000000000000000008A
:10562000000000000000000000000000000000007A
:10563000000000000000000000000000000000006A
:10564000000000000000000000000000000000005A
:10565000000000000000000000000000000000004A
:10566000000000000000000000000000000000003A
:10567000000000000000000000000000000000002A
:10568000000000000000E03F000000000100FCFFFF
:10569000000000000700FFFF000000000F00FFFFF8
:1056A000008000001F00FFFF00C000001F00FFFF80
:1056B00000C000003F003FE000E000003F000F801E
:1056C00000E000007F000F8000F000007F00070076
:1056D00000F000007F00070000F000007F000700DE
:1056E00000F000007F00070000F000007F000700CE
:1056F00000F000007F00070000F000007F000F00B6
:1057000000E000003F000F8000E000003F001F802D
:1057100000C000003F003FC000C000001F00FFE0CD
:10572000008000000F00FFF1000000000F00FEFFEE
:10573000000000000700FCFF000000000300F8FF6D
:10574000000000000100E0FF00000000030080FFF7
:1057500000000000070080FF000000001F00C0FFE5
:10576000000000003F00E0FF000000007F00F0FFAD
:105770001F0000C0FF00F88F1F0000C0FF01FC07E2
:105780001F000080FE03FE033F000080FC03FF01BA
:105790003F000080F807FF007F800000F0077F00D7
:1057A0007FC00000F0073F00FEE00000E00F1F0098
:1057B000FEF00000E00F0F00FCF10000E00F07001A
:1057C000FCFB0000E00F0300F8FF0000E00F010009
:1057D000F0FF0000E00F0000E0FF0000E00F00001D
:1057E000C07F0000F00F0000C07F0000F00F00003D
:1057F000E0FF0000F8070100F0FF0000F8070700D5
:10580000F8FF0000FE030F00FCFF0000FF037F8095
:10581000FEFB0000FF01FFFFFFE10000FF00FFFFB4
:10582000FFC000807F00FFFF7F8000C03F00FEFFC1
:105830003F0000E00F00F8FF1F0000F00100C0FF74
:105840000000000000000000000000000000000058
:105850000000000000000000000000000000000048
:105860000000000000000000000000000000000038
:105870000000000000000000000000000000000028
:105880000000000000000000000000000000000018
:105890000000000000000000000000000000000008
:1058A00000000000000000000000000000000000F8
:1058B00000000000000000000000000000000000E8
:1058C00000000000000000000000000000000000D8
:1058D00000000000000000000000000000000000C8
:1058E000F007F007F007F007F007F007F007F00304
:1058F000F003F003F003E003E003E003E003E00360
:10590000E003E003E003E00300000000000000000B
:105910000000000000000000000000000000000087
:105920000000000000000000000000000000000077
:105930000000000000000000000000000000000067
:105940000000000000000000000000000000000057
:105950000000000000000000000000000000000047
:105960000000000000000000000000000000000037
:10597000000000000000000000000000070000F030
:10598000070000E00F0000C01F0000C01F000080E3
:105990003F0000807F0000007F000000FE0000004C
:1059A000FE000000FC010000FC010000FC01000002
:1059B000F8030000F8030000F8030000F0070000FF
:1059C000F0070000F0070000F0070000E00F000003
:1059D000E00F0000E00F0000E00F0000E00F00000B
:1059E000C01F0000C01F0000C01F0000C01F00003B
:1059F000C01F0000C01F0000C01F0000C01F00002B
:105A0000C01F0000C01F0000C01F0000C01F00001A
:105A1000C01F0000C01F0000C01F0000C01F00000A
:105A2000E00F0000E00F0000E00F0000E00F0000BA
:105A3000E00F0000E00F0000F0070000F00700009A
:105A4000F0070000F8070000F8030000F80300006A
:105A5000FC010000FC010000FC010000FE00000051
:105A6000FE0000007F0000007F0000003F0000807B
:105A70001F0000801F0000C00F0000C0070000E0F2
:105A8000070000F00000000000000000000000001F
:105A90000000000000000000000000000000000006
:105AA000000000000000000000000000C01F000017
:105AB000C00F0000E0070000F0070000F003000046
:105AC000F8030000FC010000FC010000FE000000E3
:105AD000FE0000007E0000007F0000007F0000004C
:105AE0003F0000803F0000803F0000801F0000C09A
:105AF0001F0000C01F0000C01F0000C00F0000E01A
:105B00000F0000E00F0000E00F0000E00F0000E0D9
:105B1000070000F0070000F0070000F0070000F0A9
:105B2000070000F0070000F0070000F0070000F099
:105B3000070000F0070000F0070000F0070000F089
:105B4000070000F0070000F0070000F0070000F079
:105B50000F0000E00F0000E00F0000E00F0000E089
:105B60000F0000E00F0000E01F0000C01F0000C099
:105B70001F0000C03F0000803F0000803F00008009
:105B80007F0000007F0000007F000000FE0000009A
:105B9000FE000000FC010000FC010000F803000012
:105BA000F0030000F0070000E0070000C00F000055
:105BB000C01F000000000000000000000000000006
:105BC00000000000000000000000000000000000D5
:105BD000000000000000007F00000000007F0000C7
:105BE0000000007F00000000007F00000000007F38
:105BF00000000000003E00000000003E0000000029
:105C0000003E00000000003E00000000003E0000DA
:105C10000008003E0000000F003E0078F00F033E39
:105C200000F8FE0F3F3E00FCFF1FFFFF00FCFF1FC0
:105C3000FFFF00FCFF1FFFFF00FCFF1FFFFF00FC3A
:105C40000000007F0000000080FF00000100C0FF96
:105C500000000100C0F700000300E0F700000700AB
:105C6000F0E300000F00F8E300000F00F8C10000AF
:105C70001F00FCC100003F00FEC100007F00FF804C
:105C800000007F00FF800000FF007F0000803F00D9
:105C90007E0000000E00380000000200300000000E
:105CA00000000000000000000000000000000000F4
:105CB00000000000000000000000000000000000E4
:105CC00000000000000000000000000000000000D4
:105CD00000000000000000000000000000000000C4
:105CE00000000000000000000000000000000000B4
