:1000000018090010010300001B0300007C0300001E
:100010001D0300001F03000021030000F3E3FFEFB6
:1000200000000000000000000000000071890100D5
:100030002503000000000000018A0100458A01003C
:1000400045530100555301006553010075530100EC
:100050008553010095530100A5530100B5530100DC
:10006000C5530100D5530100E5530100F5530100CC
:1000700005540100155401002554010035540100B8
:1000800045540100555401006554010075540100A8
:100090008554010095540100A5540100B554010098
:1000A000C5540100D5540100E5540100F554010088
:1000B0000555010015550100255501003555010074
:1000C0004555010055550100655501007555010064
:1000D0008555010095550100A5550100B555010054
:0400E000C555010001
:0402FC00FFFFFFFF02
:10030000DFF88CD023488047DFF884D0224880472C
:1003100022482349016000F045B82FE02EE02DE08F
:100320002CE02BE02AE029E028E027E026E025E089
:1003300024E023E022E021E020E01FE01EE01DE0B9
:100340001CE01BE01AE019E018E017E016E015E0E9
:1003500014E013E012E011E010E00FE00EE00DE019
:100360000CE00BE00AE009E008E007E006E005E049
:1003700004E003E002E001E000E0FFE71EF0040F0C
:100380000CBFEFF30880EFF3098013F06FB90000A2
:1003900000000110318B000099B3010008ED00E06E
:1003A0000000000027498D4627482849284A00F0C8
:1003B00037F828482849294A00F032F828482949BE
:1003C000294A00F02DF8294829492A4A00F028F83E
:1003D00029482A492A4A00F023F82A482A492B4A60
:1003E00000F01EF82A482B49002200F024F82A4881
:1003F0002A49091A00220260043001601C481D4984
:10040000884205D00268043003B4904703BCF7E784
:1004100000208646EC4600200021214A9047FEE756
:10042000884207D0521A05D0037801300B70013191
:10043000013AF9D17047884202D002700130FAE7E0
:1004400070470000180900109838040000000010E0
:10045000DC000010A4040000A40400008C010200D1
:100460009838040000000010000000108C01020009
:100470008C0102008C0102008C0102008C01020040
:100480008C0102008C0102008C01020098380400EB
:1004900000AB77A058CC77A000A23AA000AB77A021
:0404A000298B0000A4
:1004A400024B4FF0FF321A60704700BF88AB77A051
:1004B4002DE9F04F91B0044612F05EFC0FAA002122
:1004C40020461BF0EEFE4F4E4FF4F84307930025F1
:1004D400069547F6E07705970223049340F2DF136D
:1004E400039340F21F330293019500950F9B4FF441
:1004F400F0724FF44871304611F0E8FB424C21464B
:10050400304611F021FF304611F020FF80461F22B3
:100514003E49304611F02DFFADF83450ADF8365059
:10052400F369ADF83830336AADF83A3039463046BD
:1005340011F007FC2146304611F006FF0BAF4FF4D3
:10054400B47239460DA812F073FEBDF82CB0BDF894
:100554002E90BDF83240DFF8B8A04FF4B472514683
:10056400384612F085FEADF82CB0ADF82E90ADF8FB
:100574003240544634F86039063BADF830300DF162
:1005840024092B4680224946384612F02BFE99E86E
:10059400030087E8030008F142022B4692B2494661
:1005A400384612F0D9FDBDF824302AF8603CBDF875
:1005B4002830A380BDF8263063804033E380154B98
:1005C400A360154BE360154B2361A561E561A5624A
:1005D4002146304612F006F92946304611F0B3FBA5
:1005E400B4F866300093B4F86430B4F86220B4F818
:1005F4006010304611F011FB12F0D2FBA56611B069
:10060400BDE8F08F98AB77A0600104008C01020074
:1006140068AB77A0B0010200A5040000A01103009C
:1006240010B582B0114C0021204611F08CFB002142
:10063400204611F086FB0021204611F087FB0C4B6D
:10064400196809120B4B1A68121202F1090300937C
:1006540001F109030A3A0A39204611F0DEFA0021B1
:10066400204611F073FB02B010BD00BF98AB77A019
:1006740094AB77A090AB77A02DE9F04F8DB000221A
:100684004E4B1A604E4B5A679A67DA67DA661A67F6
:10069400B3F86020B3F864100A44521049490A6060
:1006A400B3F86220B3F8663013445B10464A136013
:1006B400464A102101201AF058FA10B10DB0BDE8D5
:1006C400F08F424C424A434920681AF092FA22467B
:1006D4000AA941481CF0CAF920B13C4B18681AF029
:1006E40069FAEBE70BA93D481BF0B7FD28B1374B7E
:1006F40019680A981CF027FAEFE709AA00210B9859
:100704001BF0CFFD08A936481AF0CCFE18B10B989F
:100714001BF0BAFDEBE7334908981AF0AFFE002846
:10072400F5D10B98FFF7C4FE1AF078FB0446234B6F
:100734001B68002BEBD1DFF89490DFF884802A4FFC
:1007440084E01F4B0022DA661A6710264FF00A0B6A
:10075400DFF890A01D4658461AF012F9DAF80000A6
:1007640003685B69642205A99847EB6E059A1A44ED
:10077400EA662B6F06990B442B67013EEBD11146B9
:10078400002AB8BF02F10F0109110D4AD1661A46B9
:10079400002BB8BF03F10F021211094B1A674FF077
:1007A400FF325A671AF03AFB104B186075E04FF4A9
:1007B40096329DE04FF49633A4E000BF88AB77A057
:1007C40008AB77A094AB77A090AB77A004AB77A0ED
:1007D400DC010200B8010200C4010200D0010200E1
:1007E400D40102008CAB77A098AB77A000AB77A0C4
:1007F400B04200F0E780774B9B6E002B40F0E68020
:10080400754B1E60754B1D6033120A3B03932B120C
:100814000A3B0493724D04AA03A9284611F0A3FAD3
:10082400284612F067FDBDF81020BDF80C106D4885
:1008340012F040FB674B4FF0FF329A6614201AF017
:100844009FF8694B1B68002B7FF461AF0023D9F834
:1008540000204146384612F0BFF9054626461AF0F4
:10086400DDFA0446002DE9D1B042E7D05F4B1868A9
:1008740003685B69642205A9984705461AF0CEFA15
:100884005B4B1A681860002DD8D1524B5B6F0193F3
:10089400002B3FF456AF831A01934E4BD96E059A41
:1008A400521A0592196F069B5B1A0693019901FB74
:1008B40002F2002ABCBF02F57F42FF3212144549FE
:1008C400896F01EB4222019901FB03F3002BBCBFAA
:1008D40003F57F43FF331B143E49C96F01EB4323E8
:1008E400B2F5963FBFF663AF42498A42B8BF0A46A3
:1008F40038498A67B3F5963FBFF65CAF3D498B42F2
:10090400B8BF0B46DFF8CCC0CCF87C30324908685D
:10091400DDF804A00AFB02F1DFF8DCE08EFB0165E0
:10092400CE17C6EBA51606442C4909680AFB03F545
:100934008EFB05AEED17C5EBAE150D44BCF864C0D7
:10094400ACF10B0C4FEA0C2EB6EB0C2F06DD02EBD0
:10095400D272521052421F4EB26776461D4AB2F806
:1009640060200B324FEA022CB6EB022F07DA194E45
:10097400B26F02EBD27252105242B2676646154A07
:10098400B2F866200B3A4FEA022CB5EB022F06DDD3
:1009940003EBD3735B105B420E4AD36765460D4B82
:1009A400B3F862300B334FEA032CB5EB032FBFF6D9
:1009B4001FAF084AD36F03EBD3735B105B42D3675B
:1009C400654615E7A9427FF416AF37E7FFF728FE1F
:1009D40016E700BF08AB77A094AB77A090AB77A0E5
:1009E40098AB77A060D1020088AB77A08CAB77A0DE
:1009F40000AB77A000D4FEFFD34D6210034B03601D
:100A0400034B0B6080231360704700BF50B077A086
:100A140050AE77A0034B0360034B0B60802313603D
:100A2400704700BFF8AD77A0F8AB77A083694FF0AB
:100A3400FF329A66704700002DE9F04FA9B00446D2
:100A440000F16C0B27AA002140681BF02AFC12F06D
:100A540093F9052019F094FF04F108084FF4F843C2
:100A640007930023069347F6E0720592022204924C
:100A740040F2DF12039240F21F320292019300937C
:100A8400279B4FF4F0724FF44871404611F01EF961
:100A94006B49404611F058FC6A4B1B68002B41D04F
:100AA40023681A684FF4FD6302930623019303231A
:100AB4000093654B1B68654908A81DF02BFE1F2297
:100AC40008A9404611F055FC0021404611F03BF9BD
:100AD400404611F03BFC05460023ADF89430ADF8D8
:100AE4009630636AADF89830A36AADF89A30122153
:100AF40025A812F005FB23685E689B68CBB95C46A9
:100B0400BDF89A20BDF89630D21AA2F23312521BC5
:100B14000023C2F34F021FA925A812F0FBFA4FF0DD
:100B2400020A35E023681F221968404611F021FCAF
:100B3400CAE705F14202022392B223A925A812F0C2
:100B44000BFB802221A923A812F092FBBDF884207C
:100B5400A4F86C20BDF88630A4F86E307F32A4F877
:100B640070203F33A4F87230394B6367394BA36765
:100B7400394BE367C4F884400023C4F88830A4F8F0
:100B840080308C34BCE7A5F11006BAF1010A48D0D4
:100B94003368002B45D03223802223A925A812F0E4
:100BA400B9FABDF89820BDF89430D21AA2F2952271
:100BB4000023C2F34F021FA923A812F0EFFA06F193
:100BC400100504F180074FF032092E4655F8103C09
:100BD400002BD8D04B46802221A923A812F0DEFA9C
:100BE400BDF884302380BDF886306380BDF888303A
:100BF400A380BDF88A30E38055F8103CA36055F813
:100C04000C3CE36055F8083C236155F8043CA361AF
:100C14000023E361A38220341035BC42D5D13C4685
:100C2400B3E70023A3605946404611F0DBFD1BF0F7
:100C3400DDFC10B129B0BDE8F08F12F0B9F8F9E786
:100C44006001040048B277A04CB277A0E001020032
:100C5400B0010200310A0000A01103002DE9F041A7
:100C640082B005464FF4D6701BF0C6FC04466A46B3
:100C74001021012019F079FF08B1002300935CB121
:100C84004FF4D672002120461DF041FE2560009BE2
:100C94002BB920461BF0B8FC02B0BDE8F0816A46CF
:100CA40001A923481BF0E2FE18B1009819F082FF55
:100CB400EFE7211D1F481BF0D0FA20B100990198DD
:100CC4001BF041FFF1E72046FFF7B6FE04F16C0884
:100CD400194F04F1080605E02046FFF7ADFE09E0D0
:100CE4003B68BBB9A36EF3B9EB681BB1984710F02E
:100CF400010FF1D14FF0FF33009A4146304611F015
:100D04006BFF0028ECD0A36E002BE9D12046FFF73F
:100D140093FEE5E706F0ECF82046FFF78DFE064B60
:100D240000221A60D5E760681BF0AEFAC6E700BF80
:100D3400C4010200D0010200A8B077A008B5806900
:100D4400FFF78CFF08BD000070B504460D460E4B3E
:100D54001B6883B100201AF095FA0C4B1E6807F04B
:100D6400C1FE2A46B0FBF4F130461BF07CFD0020A6
:100D74001AF05AFA70BD054905481BF05DFD024B97
:100D84004FF0FF321A60E5E7ACB077A0B0B077A0BF
:100D94000C02020008B51421FA20FFF7D5FF08BDA4
:100DA40008B54FF4FA716420FFF7CEFF08BD8369DC
:100DB4004FF0FF32C3F8E4207047000010B582B052
:100DC40004460F4B1B68B3B9002110F0BCFF47F673
:100DD400E071204610F0B5FF0A48838842880188F4
:100DE400C08801380090013B01320131204610F0E7
:100DF40014FF02B010BD47F6E07110F0A4FFE6E75F
:100E0400BCB077A0C0B077A010B58EB0044603A9DB
:100E14001C481BF022FA1C4B1B68B3F1FF3F2AD07D
:100E2400194B4FF0FF321A6041F28833059342F2B6
:100E34001073069347F2305307934FF47A73049375
:100E4400124B0A93124B0B93124B0C93124B0D93B0
:100E54004FF4F07300934FF448737622DC210F486B
:100E640012F080FA04A903981BF05AFBA069FFF75B
:100E7400A5FF0EB010BD044B00221A601BF08CFBC2
:100E8400F4E700BFD0010200BCB077A099330100A1
:100E940055340100A135010015360100181A02006D
:100EA4002DE9F04F99B04FF48A701BF0A5FB1A4B53
:100EB4001860A8B104464FF48A7200211DF027FD82
:100EC4004FF0FF33C4F80431144A1021012019F003
:100ED4004CFE40B1104C20681BF096FB00232360AD
:100EE40019B0BDE8F08F0D4A17A90D481BF0BEFDDF
:100EF40020B10A4B186819F05DFEEBE7064B196840
:100F0400603108481BF0A9F970B1044B19681798AF
:100F14001BF019FEEDE700BFB8B077A0B4B077A01E
:100F2400C4010200D0010200D94C236803F5887281
:100F340003F58671186E1BF0FAF9246804F1640352
:100F4400099311F019FF0AAA0021206E1BF0A9F9D8
:100F54004FF4F84307930025069547F6E07BCDF858
:100F640014B00223049340F2DF13039340F21F33BF
:100F74000293019500950A9B4FF4F0724FF4487167
:100F8400204610F0A3FEC349204611F0DDF92046A7
:100F940011F0DCF9C4F800011F22BF49204611F00A
:100FA400E8F95946204610F0CCFE2946204610F0B8
:100FB400CAFEADF82C50ADF82E50E369ADF83030D0
:100FC400236AADF832300DF12C090821484612F09D
:100FD40097F8D4F8003103F146020DAE052392B21E
:100FE4003146484612F0B8F80FAF96E8030087E898
:100FF4000300052380223146384612F0CFF8012140
:10100400304612F07DF8BDF83430A4F864307F33F4
:10101400A4F86830BDF83630A4F866303F33A4F83D
:101024006A309E4BE3669E4B23679E4B6367E4677F
:10103400C4F8805097E8030086E803006422394628
:10104400304612F015F9BDF84230BDF83E209B1A27
:1010540003EBD3735A100632934E052392B23146F2
:10106400384612F079F8B6F80080204611F06EF98F
:1010740008F110088044A6F80480B6F802802046DF
:1010840011F064F908F1100880441FFA88F3F38022
:101094003288A4F88420B288A4F888207288A4F83E
:1010A4008620A4F88A30814BC4F88C30804BC4F875
:1010B4009030C4F89450C4F89C40C4F8A050BDF8D3
:1010C4003080BDF82C30A8EB0308A8F27928794BBE
:1010D400A3FB0838C8F34F0843462A463946484616
:1010E40012F05CF804F1F00A434654225146484693
:1010F40012F054F804F1F80804224146504612F064
:10110400B7F81421404611F0DFFF2B4640F22622A7
:101114003946484612F042F84FF4907204F1E8015F
:10112400384612F085F85B49204611F00DF901218B
:10113400204611F075F92946204610F007FE59465D
:10114400204610F0FEFD9AE8030089E80300BDF88C
:1011540032300093BDF83030BDF82E20BDF82C108D
:10116400204610F05AFD98E8030089E80300BDF812
:1011740032300093BDF83030BDF82E20BDF82C106D
:10118400204610F04AFD2046FFF718FE3588204619
:1011940011F0DCF8738842190833163246492046A8
:1011A40011F097F80127DFF8149140F226283B024A
:1011B40089FB0312DE17C6EB2216F60106F4F84685
:1011C40000253146204610F0BCFDB4F8EA20B4F8FE
:1011D400E8103A442944204610F00AFC01354545FC
:1011E400EFD10137612FE2D10127DFF8D09040F22F
:1011F40026283B0289FB0312DE17C6EB2216B60033
:1012040006F4787600253146204610F09AFDB4F8AD
:10121400EA203A44B4F8E81060322944204610F039
:10122400E7FB01354545EED10137612FE1D10127B7
:10123400DFF8889040F226283B0289FB0312DE1770
:10124400C6EB2216C6F3C40600253146204610F02C
:1012540078FDB4F8EA203A44B4F8E810C0322944DE
:10126400204610F0C5FB01354545EED10137612F0D
:10127400E2D147F6E071204610F063FD099920465B
:1012840011F0B0FA11F08CFD014E0D4F31E000BFAA
:10129400B8B077A06001040014020200B00102009B
:1012A400B30D0000A0110300C0B077A0986903003B
:1012B4000D0E0000ABAAAAAA30020200ABAAAA2A09
:1012C400B4B077A00021C2F80C11106E1BF021F805
:1012D400604B1B684FF0FF32C3F80421306811AA39
:1012E40000F1640111F0D0FA3468D4F80431002B11
:1012F4003CD13368D3F8E420002A40F0A6804FF4B0
:10130400FA7211A9386819F01EFD0028ECD1129B5D
:101314001693139B159315AA16A9306810F018FD9F
:10132400149B012BDAD13268159BB2F8F210994262
:10133400D4DCB2F8F6108B42D0DC1699B2F8F00087
:101344008842CBDCB2F8F4008142C7DCB2F8FE007C
:101354008342B7DCC11AD2F8103103FB01F1431CFC
:10136400B2F8FA001B1AB1FBF3F1ACE701212046F5
:1013740011F056F8B4F8F880B4F8FAB0B4F8FC9068
:10138400B4F8FEA004F5887204F58671206E1AF094
:10139400CEFFAAEB0B02D4F80C3102FB0333D4F8D2
:1013A4001021B3FBF2F5AAEB0505D4F808319D42F0
:1013B4002CD08BBB0121204610F0C8FC47F6E0710D
:1013C400204610F0BEFCCDF800A04B465A464146DC
:1013D400204610F022FCC4F808510021204610F0E9
:1013E400B5FC47F6E071204610F0ABFC0021204626
:1013F40010F0A9FCD4F80821531D009309F10F0340
:10140400053AA8F10F01204610F007FC114B1B68A8
:101414000022C3F804216CE70021204610F096FC5A
:101424000021204610F08DFC0021204610F08BFC9A
:10143400D4F80821531D009309F10F03053AA8F1CC
:101444000F01204610F0E9FBB4E7186E1AF01CFFF8
:101454005BE500BFB8B077A0F0B583B006460C4694
:1014640015464FF4F843019302F10803009301F188
:101474000803083A083911F0FFFC00270197AB1D57
:101484000093A31DAA1FA11F304611F0F5FC47F6D7
:10149400FF7301932B1D0093231D2A1F211F304628
:1014A40011F0EAFC0197AB1C0093A31CAA1EA11E19
:1014B400304611F0E1FC03B0F0BD000010B5A2B05D
:1014C40021A93F481AF0C9FE08B122B010BD2198E5
:1014D4001AF005FF4FF4807121981AF01AFF11F0E9
:1014E4004BFC20AA002121981AF0DBFE4FF4F843AC
:1014F40007930023069347F6E072059202220492B2
:1015040040F2DF12039240F21F32029201930093E1
:10151400209B4FF4F0724FF4487108A810F0D6FBEA
:10152400284908A810F010FF1F22274908A810F026
:1015340020FF08A810F00AFF84B2244B1B78012B6B
:1015440023D023464FF44872214908A810F0CDFE59
:1015540063004FF448721F4908A810F0C6FEC4F196
:1015640078039B004FF448721B4908A810F0BDFE95
:10157400A4EB840404F5F0734FF44872174908A8E7
:1015840010F0B3FE11F00CFC9FE723464FF44872B1
:10159400134908A810F0A9FEC4F178039B004FF486
:1015A40048720D4908A810F0A0FEA4EB840404F5C9
:1015B400F0734FF44872094908A810F096FEE1E769
:1015C400D00102006001040044020200CCB077A004
:1015D400C4020200E802020084020200A80202001F
:1015E4005C0202002DE9F04F97B0039014460023EB
:1015F4004FF0FF36DFF874B29D4A10320992089614
:101604008A469C4A137050461BF0E8F91CB99A4B61
:101614001B68032B10D0FFF751FF954FDFF858825A
:10162400002304931D46A6E001234FF0FF34E8E7AE
:1016340001234FF0FF34E4E7904D8D4A294650468C
:101644001BF0E6F9099A05F1100150461BF0E0F988
:10165400874B03F1200205F1200150461BF0D8F915
:1016640050461BF0C8F90646DBF800300894DBF856
:1016740000304BB9002ED7D1089B002BD8D17E4B1C
:1016840000229A6402F02EFD17B0BDE8F08F139586
:10169400149509F10109322019F072F9B9F1030F17
:1016A4001CD812A950461BF035F90028F3D1DBF8F9
:1016B4000030B3F1FF3FEAD0129B13F0010F09D0C1
:1016C400029B002BE7D0139B1E44149B1C4409F17E
:1016D4000109E0E74FF0FF330293DCE7B6FBF9F6CC
:1016E4001396B4FBF9F4149412AC079A21465046AD
:1016F4001BF08EF908F1040694E80F0086E80F0049
:10170400049E741C5C4B1C60FFF744FBBDF8141072
:10171400BDF81820019502F10803009301F10803B4
:10172400083A0839039811F0A7FB26B1DBF800301A
:10173400DBB932260FE0FFF7C1FEDBF80030002BE7
:10174400F7D0103708F1100814E0304619F018F9F2
:10175400DBF800304BB912A950461BF0DBF8002827
:10176400F3D1129B13F0010FEFD1032C73D0103778
:1017740008F11008049407977B680593BA680692E9
:1017840092B299B20398FFF767FE0295A9462C46D8
:101794002E4686E7DFF8E8900DF1280832250296F8
:1017A400049417E0284619F0EBF812A950461BF0F0
:1017B400B1F80028F6D1129B13F0010FF2D14FF4C7
:1017C400967019F0DDF809F1100908F1100812AB50
:1017D400984524D0D9F80460D9F80870BAB2B1B2E7
:1017E4000398FFF739FE4446214650461BF092F811
:1017F4000028F9D1236813F0010FF5D0FFF7CAFAD6
:10180400B1B2BAB20023019302F10803009301F1CB
:101814000803083A0839039811F02EFBC5E7029E25
:10182400049C0B9BA3F2D623302B3FF620AF0C9BDA
:10183400A3F5CB73302B3FF61AAF0F9BA3F5BC7304
:10184400302B3FF614AF109BD83B089A302B98BF2F
:10185400224608920BE750461BF0CDF80646DBF80B
:101864000040002C96D00023089300E7A8B077A08E
:101874002C030200CCB077A060B177A064B177A04C
:101884000C03020010B584B00446184A102101204C
:1018940019F06BF910B1002004B010BD134A03A96C
:1018A40013481BF0E3F820B1104B186819F082F9C3
:1018B400F1E702A90F481AF0D0FC28B10B4B1968C4
:1018C40003981BF040F9EFE701AA002102981AF0EF
:1018D400E8FC094B9B6C002B0CBF22464FF0FF32F7
:1018E40003990198FFF77EFEE8E700BFC8B077A030
:1018F400C4010200D001020060B177A030B587B006
:10190400002205A911481BF0B1F8E0B905243225DD
:1019140001A905981AF0FEFF019B13F0010F10D0E6
:10192400284619F02DF8013CF2D14FF0FF34002184
:1019340005981BF008F90A2019F022F8204607B090
:1019440030BD0024F3E74FF0FF34F7E7C401020091
:1019540008B54FF0FF30FFF795FF08BD014B01229A
:101964001A607047D8B077A010B582B00A4C0B4B00
:101974001988204610F0E7F947F6E071204610F088
:10198400E0F951230093A12312222221204610F0D2
:1019940044F902B010BD00BFDCB077A00000001015
:1019A40008B5084B1B780133DBB2062B28BF002394
:1019B400044A1370044A32F81320044B1A80FFF7C8
:1019C400D3FF08BDD4B077A00C05020000000010BE
:1019D4002DE9F04786B081466C481AF00DFE824628
:1019E4006B4C0121204610F0B1F947F6E071204616
:1019F40010F0A7F9B9F806300093B9F80430B9F833
:101A04000220B9F80010204610F007F905AA0321B6
:101A1400604819F0F3FD002849D1D04613275C4EE5
:101A24004546CF240494039703AA04A9304610F032
:101A34009AF9012300932B46039A0499304610F037
:101A440093FA0235013440F25F239C42EAD108F54F
:101A54004878013740F2A3139F42E1D102AB4B4ACD
:101A64005146059819F03FFE18B1484B029A9A4224
:101A740055D1059819F0FCFD454C0121204610F084
:101A840065F90021204610F05CF9B9F8063000939E
:101A9400B9F80430B9F80220B9F80010204610F063
:101AA400BCF850461AF0B0FD06B0BDE8F087064613
:101AB40005AA0321384819F0A1FD04460028ACD03A
:101AC400364B1968364A01F53B2000F5006011F0E9
:101AD400EFFBFFF765F92E4D0021284610F036F98B
:101AE4000021284610F02FF947F6E071284610F03F
:101AF40028F92223009340F25F231222CE212846A4
:101B040010F08BF8092E0DD00D2E27D10D2C1ED0E0
:101B14001423D02223491E4810F0DBFB24E0FFF7F6
:101B24003FF9A6E70D2C0BD0092C4FF014034FF00E
:101B3400D0020CBF1C491D49154810F0CAFB13E024
:101B44001423D0221A49284610F0C3FB0CE01423B6
:101B5400D02218490E4810F0BCFB05E01423D02213
:101B640015490B4810F0B5FB0121094810F0EEF8B7
:101B74004FF4FA6018F004FF084B1868084A00F59F
:101B84003B2101F5006111F093FB75E700E20400CD
:101B9400DCB077A07C03020088030200040000107C
:101BA40000B80B0020040200B8030200E0030200A6
:101BB40094030200000402003C0402002DE9F04FEB
:101BC40089B005468B481AF017FD81468A4C0121DD
:101BD400204610F0BBF847F6E071204610F0B1F84B
:101BE400EB880093AB886A882988204610F015F8A2
:101BF40007AA0121814819F001FD804640B107AAD6
:101C040001217F4819F0FAFC0446002840F097802F
:101C140004AB784A4946079819F04EFD04460798E4
:101C240019F026FD4CB1734B049A9A4202D1CA466C
:101C3400132704E0FFF7B4F82AE0CA4613276E4ED0
:101C4400CDF80C90A3465246AA46951ECF24914641
:101C54000694059705AA06A9304610F084F835F8CD
:101C6400023F059A0699304610F088F8013440F294
:101C74005F239C42ECD109F54872013740F2A3136B
:101C84009F42E2D1DDF80C905C465546002C3FD0D3
:101C94005C4B19685C4A01F53B2000F5006011F0CB
:101CA40007FBFFF77DF8544C0021204610F04EF856
:101CB4000021204610F047F847F6E071204610F066
:101CC40040F82223009340F25F231222CE212046C3
:101CD4000FF0A3FFB8F1090F76D0B8F10D0F00F0A3
:101CE40081801423D0224949434810F0F2FA01219B
:101CF400414810F02BF84FF4FA6018F041FE414BC4
:101D04001868414A00F53B2101F5006111F0D0FA51
:101D1400394C0121204610F019F80021204610F01A
:101D240010F8EB880093AB886A88298820460FF066
:101D340074FF48461AF068FC09B0BDE8F08F314BD7
:101D44001968314A01F53B2000F5006011F0B0FA42
:101D5400FFF726F8284E002130460FF0F7FF002148
:101D640030460FF0F0FF47F6E07130460FF0E9FF20
:101D74002223009340F25F231222CE2130460FF03B
:101D84004CFFB8F1090F0DD0B8F10D0FA9D10D2CEE
:101D940021D0092C26D11423D0221D49164810F035
:101DA40098FAA4E70D2C08D0092C0DD11423D022C5
:101DB4001849114810F08DFA99E71423D0221649D6
:101DC400304610F086FA92E71423D02212490A48CA
:101DD40010F07FFA8BE71423D0221049064810F044
:101DE40078FA84E71423D0220C49034810F071FADE
:101DF4007DE700BF00E20400DCB077A07C030200B2
:101E0400880302000400001000B80B00E404020080
:101E1400C0040200700402004C040200A00402008A
:101E2400A0F1CF0CBCF5C87F1AD2A1F1130CBCF5FC
:101E3400C87F15D2A2F1CF0CBCF5C87F10D2A3F194
:101E4400130CBCF5C87F0BD200B583B000931346C6
:101E54000A46014603480FF0DDFD03B05DF804FBBC
:101E6400704700BFDCB077A008B5A0F1CF03B3F58D
:101E7400C87F09D2A1F11303B3F5C87F04D20A467F
:101E8400014602480FF0B4FD08BD00BFDCB077A0E6
:101E940070B58AB009AA00211AF003FA10F06CFF99
:101EA4001E4C4FF4F84307930025069547F6E07659
:101EB40005960223049340F2DF13039340F21F3389
:101EC400029301950095099B4FF4F0724FF4487109
:101ED40020460FF0FBFE1249204610F035FA1F226F
:101EE4001049204610F045FA314620460FF029FFEC
:101EF4000D49204610F076FC294620460FF023FFBA
:101F040040F2A313009340F25F231222CE21204615
:101F14000FF083FE10F044FF0AB070BDDCB077A070
:101F240060010400F0040200300502002DE9F04FC6
:101F340091B0854B00221A60844A1021012018F0C8
:101F440014FE10B111B0BDE8F08F804A0EA980488C
:101F54001AF08CFD20B17D4B186818F02BFEF1E7C8
:101F64000FA97C481AF079F928B1784B19680E98B2
:101F74001AF0E9FDEFE70BAA00210F981AF091F986
:101F84000F98FFF785FFFFF7EFFC4FF0FF3130208C
:101F940004F072FC0026B246B0466B4C6B4D2768C9
:101FA400002F40F0CD804FF0FF3207A9286818F0C9
:101FB400CAFE0028F3D1089B0D93099B0C930CAA2D
:101FC4000DA965480FF0C4FE0D9BCF3BB3F5C87F48
:101FD40080F0AC800C9B133BB3F5C87F80F0A680E7
:101FE4000A9B012B01D0B846D9E71AF0F7FA5B4BEC
:101FF4001988002940F0858057480FF0A2FEB8F1F7
:10200400000F50D0DDF834900C9F0AF1FF30804669
:10201400711E09F1FF3B7B1E02935A460591FFF79F
:10202400FFFE3B465A463146CDF810804046FFF746
:10203400F7FE721C114607F1010843465A46039104
:102044000498FFF7EDFE029B4A46DDF814B05946AA
:102054005046FFF7E5FE3B464A4631465046FFF7F9
:10206400DFFE43464A4603995046FFF7D9FE0AF17C
:10207400010A09F10109029B4A4659465046FFF7F5
:10208400CFFE3B464A4631465046FFF7C9FE43461B
:102094004A4603995046FFF7C3FEDDF834A00C9E70
:1020A4004FF0FF387BE70D9E0C9F06F1FF3A07F1D6
:1020B400FF3949465046FFF7D7FE39465046FFF7E9
:1020C400D3FE07F1010841465046FFF7CDFE4946CD
:1020D4003046FFF7C9FE39463046FFF7C5FE414694
:1020E4003046FFF7C1FE013649463046FFF7BCFED5
:1020F40039463046FFF7B8FE41463046FFF7B4FE96
:10210400CBE715480FF01DFEB8F1000F08D00C9B6B
:1021140000930D9B324651460F480FF07BFCBCE701
:102124000C9A0D990C480FF063FCB6E707AA0C490A
:10213400094810F0A9FB0A9B002B08BFB8462EE7FC
:102144000F981AF0A1F810E7D8B077A0D0B077A014
:10215400C4010200D0010200DCB077A0000000102E
:102164003005020070B505460C46B2F5004F2ED07E
:10217400102A41D0002A3ED1486E18F05DFEB0F519
:102184007A7F38D318F04AFE606604F168020121B0
:102194006E4819F033FA002832D1AB686C4A022138
:1021A40020469847A06E19F063FA002302221946CC
:1021B4002046EE68B0472B69022120469847654BBC
:1021C4001A889B78A4F8022184F8043113E0836808
:1021D400614A002120469847AB68604A01212046A5
:1021E4009847AB685E4A02212046984718F016FECD
:1021F40060660023E36670BD436908469847FAE7C2
:10220400031F0C2B00F28680DFE803F035848484FE
:1022140084580784844984846700AB68514A022146
:1022240020469847504B07CBC4F80201C4F8061166
:10223400C4F80A211A889B78A4F80E2184F8103176
:10224400E36E0133E3660E2BD5D9AB68474A02210E
:10225400204698470023032219462046EE68B047DB
:102264002B69032120469847414B03CBC4F8020154
:10227400C4F80611BFE7AB683E4A022120469847DE
:102284003D4B07CBC4F80201C4F80611C4F80A2177
:102294001A889B78A4F80E2184F81031D0E7AB6833
:1022A400364A022120469847354B03CBC4F8020135
:1022B400C4F806111B88A4F80A31C1E7AB68314A97
:1022C400022120469847304B03CBC4F80201C4F8DE
:1022D40006111B88A4F80A31B2E7AB682B4A022125
:1022E400204698472A4E0FCEC4F80201C4F80611BE
:1022F400C4F80A21C4F80E31337884F8123100236B
:10230400032219462046EE68B0472B690321204674
:10231400984795E7AB681D4A0221204698471D4B14
:1023240007CBC4F80201C4F80611C4F80A211B88BB
:10233400A4F80E310023032219462046EE68B04764
:102344002B690321204698477AE700BF3006020034
:102354004406020020590300D0050200EC050200E7
:10236400200602005C0602007C0602004807020008
:10237400600702008C060200AC060200BC060200E4
:10238400D8060200E4060200000702000C0702005F
:102394002407020038070200B2F5004F00D070474E
:1023A40038B505460C46002184F86C108368264A2B
:1023B4002046984704F16401244819F073F8C8B121
:1023C400AB68234A0021204698470023032219467C
:1023D4002046D5F80CC0E0472B69032120469847D6
:1023E4001C4B03CBC4F80201C4F806111B88A4F8E3
:1023F4000A3138BD04F16801606E19F03FF8002815
:10240400DED1A06E03685B6940F6C41204F170016A
:1024140098470028D4D1AB680F4A0021204698473A
:102424000023022219462046D5F80CC0E0472B6948
:10243400022120469847094B1A889B78A4F8022168
:1024440084F80431D5E700BF68070200D401020014
:1024540084070200AC070200B807020020590300F9
:10246400F0B583B005460C46B2F5004F5ED0002AA5
:102474007AD1886E03681B6901A99847002840F047
:102484008380019A636F9342B8BF6267236F9A4255
:10249400B8BF226782EAE273A3EBE273C3F3423369
:1024A40004F17807C3EB431103EB8106334612149E
:1024B4005D4938461CF02EF9AB683A4600212046A7
:1024C4009847C82018F05CFAE36E0133E366052BE5
:1024D4004AD9226FB2F5702F69DA019282EAE27367
:1024E400A3EBE273C3F34233C3EB431103EB810663
:1024F400334612144D4938461CF00CF9AB683A4681
:10250400002120469847EF680023032219462046FD
:10251400B8472B690321204698473346BDF9062066
:10252400434904F581701CF0F5F81DE08368414AC5
:1025340000212046984704F164013F4818F0B2FF97
:10254400A0B1EE680023032219462046B0472B6948
:10255400032120469847394B03CBC4F80201C4F841
:1025640006111B88A4F80A3103B0F0BD04F1680118
:10257400606E18F083FF0028E3D14FF4C81323677B
:1025840063670023E366EFE7EE680023032219463E
:102594002046B0472B69032120469847284B07CB98
:1025A400C4F80201C4F80611C4F80A21DCE7626F1A
:1025B400B2F5201F24DD0192C2F34233C3EB431171
:1025C40003EB8106334612141E4938461CF0A2F868
:1025D400AB683A46002120469847EF68002303225F
:1025E40019462046B8472B690321204698473346AD
:1025F400BDF90620144904F581701CF08BF8B3E78B
:10260400EF680023022219462046B8472B690221AD
:10261400204698473346BDF906200C4904F58170DD
:102624001CF078F8A0E700BF0C0802003008020094
:102634005C080200DC070200F80702000007020041
:1026440000080200700802009C080200AC080200A6
:10265400F0B58BB005460C46164669466D4818F031
:1026640021FF58B1EE680023032219462046B047E3
:102674002B690321204698470BB0F0BD01A90098AF
:1026840018F0FCFE002832D1B6F5004F3AD0002EE7
:10269400F2D120263246002102A81CF038F9019814
:1026A40003685F69334602AA4121B847002800F055
:1026B4008A80EE680023032219462046B0472B691E
:1026C400032120469847544B03CBC4F80201C4F8B5
:1026D40006111A889B78A4F80A2184F80C31019811
:1026E40003689C6920234D4A4121A047C4E7EE6852
:1026F4000023032219462046B0472B6903212046B4
:102704009847B9E7AB68464A0021204698470198A4
:1027140003685E692023414A4121B047B0B1EE68A5
:102724000023032219462046B0472B690321204683
:102734009847394B03CBC4F80201C4F806111A8830
:102744009B78A4F80A2184F80C3195E72022AA2169
:1027540002A81CF0DCF8019803689E69202302AAF1
:102764004121B04706462022552102A81CF0CFF88B
:10277400AEB101238DF80830EE6800230322194618
:102784002046B0472B69032120469847254B07CBA9
:10279400C4F80201C4F80611C4F80A216CE70198D0
:1027A40003689E69142302AA4321B04701238DF8CC
:1027B40008300028E0D1019803689C69012302AA2B
:1027C4004621A04758E7202202A917481BF02EFFF4
:1027D40050B9EE680023022219462046B0472B69FF
:1027E4000221204698477AE7EE680023032219461F
:1027F4002046B0472B690321204698470B4B07CB53
:10280400C4F80201C4F80611C4F80A211B7884F83C
:102814000E3164E7B8080200D40802003CB177A086
:10282400C0080200E00802003C0D0200EC080200AF
:1028340003460120186000BF00BF00BF00BF00BFF7
:1028440000BF00BF00BF00BF00BF00BF00BF00BF8C
:1028540000BF00BF00BF00BF00BF00BF00BF00BF7C
:1028640000BF00BF00BF00BF00BF00BF00BF00BF6C
:1028740000BF00BF00BF00BF00BF00BF00BF00BF5C
:1028840000BF00BF00BF00BF00BF00BF00BF00BF4C
:1028940000BF00BF00BF00BF00BF00BF00BF00BF3C
:1028A40000BF00BF00BF00BF00BF00BF00BF00BF2C
:1028B40000BF00BF00BF00BF00BF00BF00BF00BF1C
:1028C40000BF00BF00BF00BF00BF00BF00BF00BF0C
:1028D40000BF00BF00BF00BF00BF00BF00BF00BFFC
:1028E40000BF00BF00BF00BF00BF00BF00BF00BFEC
:1028F40000BF00BF00BF00BF00BF00BF00BF00BFDC
:1029040000BF00BF00BF00BF00BF00BF00BF00BFCB
:1029140000BF00BF00BF00BF00BF00BF00BF00BFBB
:1029240000BF00BF00BF00BF00BF00BF00BF00BFAB
:1029340000BF00BF00BF00BF00BF00BF00BF00BF9B
:1029440000BF00BF00BF00BF00BF00BF00BF00BF8B
:1029540000BF00BF00BF00BF00BF00BF00BF00BF7B
:1029640000BF00BF00BF00BF00BF00BF00BF00BF6B
:1029740000BF00BF00BF00BF00BF00BF00BF00BF5B
:1029840000BF00BF00BF00BF00BF00BF00BF00BF4B
:1029940000BF00BF00BF00BF00BF00BF00BF00BF3B
:1029A40000BF00BF00BF00BF00BF00BF00BF00BF2B
:1029B40000BF00BF00BF1A68824202D140007FF40A
:1029C40039AF7047F0B502468908013911F0010E9C
:1029D4003CD073464FF0AA3042F823005B00194202
:1029E400FAD14FF055331360734602EB830052F86B
:1029F4002340B4F1AA3F14D15B001942F5D14FF042
:102A0400AA331360F4464FF055361F4610E05B00BE
:102A1400194207D052F82340B4F1AA3FF7D06345D6
:102A2400F5D0F0BD57514FEA4C0C11EA0C0F0BD006
:102A34004FEA8C0502EB8C0042F82C601368B3F16A
:102A4400AA3FEED17346E5E70020EAE74FF055339D
:102A540003604FF0AA3303600020E2E7032928D97A
:102A640010B502464FEA910C8646012340F8043B18
:102A74009C4503F10103F9D8012300E00B461046FD
:102A84001168994214D1D94342F8041B591C9C453E
:102A9400F4D800236FF001047046DEF80010E21A47
:102AA400914205D101330EF1040E9C45F4D8002067
:102AB40010BD002070470000B2F5004F00D07047F1
:102AC40070B505460C4683682A4A0021204698477B
:102AD40015F05EFF4FF02040FFF7AAFE064615F002
:102AE40075FFB6B1AB68244A0121204698470023FC
:102AF400032219462046D5F80CC0E0472B69032170
:102B04002046984732461D4904F581701BF002FEA9
:102B140070BD15F03DFF4FF080714FF02040FFF77E
:102B240051FF064615F052FF002EDBD115F030FFA1
:102B34004FF080714FF02040FFF790FF064615F0EC
:102B440045FF002ECED1AB680D4A0121204698479F
:102B5400EE680023022219462046B0472B69022161
:102B6400204698474FF08072064904F581701BF0A7
:102B7400D1FDCDE7FC08020028090200400902004B
:102B84001009020020090200F0B5C3B006460C4645
:102B940015468368534A012120469847524B03CB7C
:102BA400C4F80201C4F806111B88A4F80A3141AA2A
:102BB4001021284618F052FE002874D104F58177BC
:102BC400419B512B03D040F2E93043B0F0BD41AA00
:102BD4001121284618F042FE002867D1419B522B50
:102BE40002D040F2E930F0E741AA1221284618F059
:102BF40035FE00285DD1419B592B02D040F2E930CB
:102C0400E3E73A4B07CBC4F802017960BA60B368D2
:102C1400374A0121204698474FF480224FF4E001BF
:102C2400284618F00BFE002846D1802301AA4FF451
:102C3400E001284618F0DEFD002840D101AB21A9AF
:102C440013F8012BFF2A3DD18B42F9D1294B07CB35
:102C5400C4F802017960BA60B368274A01212046AA
:102C640098470623254A2649284618F0D5FD60BB17
:102C74000623244A2449284618F0CEFD40BB80236D
:102C840001AA1F49284618F0B5FD20BB0C221F4994
:102C940001A81BF0CBFC08BB1D4B1A889B78A4F839
:102CA4000221BB7091E740F2E9308EE740F2E9304F
:102CB4008BE740F2E93088E740F2EA3085E740F2FA
:102CC400EA3082E740F2EB307FE74FF47B707CE739
:102CD4004FF47B7079E74FF47B7076E74FF47B70A9
:102CE40073E700BF48090200000702005809020008
:102CF40064090200740902008009020090090200BC
:102D0400FCFF71009809020002007200A009020091
:102D140020590300F0B591B000230193ADF80830B9
:102D2400B2F5004F01D011B0F0BD05460C468368E2
:102D34001E4A0021204698470FA91D4818F036FD69
:102D4400C8B903A90F9818F099FD039B0F9A21465F
:102D54002846FFF719FF06460F9818F03EFD66B99E
:102D6400EE680023022219462046B0472B6902214F
:102D740020469847D7E74FF47A7604F16407C6F300
:102D84000E020C4938461BF0C5FCAB683A460221DA
:102D940020469847EE680023032219462046B04790
:102DA4002B69032120469847BDE700BFB009020004
:102DB400D0090200D809020030B583B005460C469C
:102DC400B2F5004F2FD0102A48D0002A44D1486EC3
:102DD40018F032F8B0F57A7F3ED318F01FF8606629
:102DE40004F168020121654818F008FC002839D173
:102DF400AB68634A022120469847A06E18F038FC5D
:102E04000023022219462046D5F80CC0E0472B695E
:102E14000221204698475B4B1A889B78A4F802212C
:102E240084F8043118E08368574A00212046984703
:102E3400AB68564A012120469847AB68544A0221A0
:102E44002046984701A9534818F0D6F80023E366B2
:102E5400236717F0E3FF606603B030BD436908469B
:102E64009847F9E7031F092B51D8DFE803F01E50F8
:102E74005050504105505032AB68474A0221204619
:102E84009847464B07CBC4F80201C4F80611C4F8AE
:102E94000A211A889B78A4F80E2184F81031236F34
:102EA4005A1C042B47D02267D6E7AB683C4A022160
:102EB400204698473B4B07CBC4F80201C4F80611DF
:102EC400C4F80A211A889B78A4F80E2184F81031DA
:102ED400E5E7AB68344A022120469847334B03CBDD
:102EE400C4F80201C4F806111B88A4F80A31D6E715
:102EF400AB682F4A0221204698472E4B03CBC4F8D7
:102F04000201C4F806111B88A4F80A31C7E7AB68AC
:102F14001F4A022120469847274B07CBC4F80201D9
:102F2400C4F80611C4F80A211A889B78A4F80E2163
:102F340084F81031B3E700232367E36E0133E366BB
:102F4400062B16D1AB681D4A022120469847002360
:102F5400032219462046D5F80CC0E0472B6903210B
:102F640020469847164B03CBC4F80201C4F8061157
:102F740072E701A9074818F03FF86DE7480A020014
:102F84004406020020590300EC0902000C0A020066
:102F940020060200380A02005C0602007C060200D9
:102FA4008C060200AC060200BC060200D806020031
:102FB400E406020000070200580A02004807020063
:102FC4006007020030B583B005460C46B2F5004FE9
:102FD4002FD0102A48D0002A44D1486E17F02CFF75
:102FE400B0F57A7F3ED317F019FF606604F16802EA
:102FF4000121654818F002FB002839D1AB68634A07
:10300400022120469847A06E18F032FB00230222CA
:1030140019462046D5F80CC0E0472B69022120460A
:1030240098475B4B1A889B78A4F8022184F80431F2
:1030340018E08368574A002120469847AB68564AEF
:10304400012120469847AB68544A022120469847FC
:1030540001A9534817F0D0FF0023E366236717F054
:10306400DDFE606603B030BD436908469847F9E762
:10307400031F092B51D8DFE803F01E505050504174
:1030840005505032AB68474A022120469847464BC8
:1030940007CBC4F80201C4F80611C4F80A211A883F
:1030A4009B78A4F80E2184F81031236F5A1C042B4A
:1030B40047D02267D6E7AB683C4A022120469847AE
:1030C4003B4B07CBC4F80201C4F80611C4F80A212B
:1030D4001A889B78A4F80E2184F81031E5E7AB68D0
:1030E400344A022120469847334B03CBC4F80201EB
:1030F400C4F806111B88A4F80A31D6E7AB682F4A36
:103104000221204698472E4B03CBC4F80201C4F891
:1031140006111B88A4F80A31C7E7AB681F4A0221CD
:1031240020469847274B07CBC4F80201C4F8061180
:10313400C4F80A211A889B78A4F80E2184F8103167
:10314400B3E700232367E36E0133E366062B16D14E
:10315400AB681D4A022120469847002303221946E2
:103164002046D5F80CC0E0472B6903212046984738
:10317400164B03CBC4F80201C4F8061172E701A987
:10318400074817F039FF6DE7480A020044060200B9
:1031940020590300680A02000C0A020020060200FB
:1031A400880A02005C0602007C0602008C0602000B
:1031B400AC060200BC060200D8060200E4060200C7
:1031C40000070200580A02004807020060070200D4
:1031D400B2F5004F00D070472DE9F04F8BB0064692
:1031E4000C468368744A00212046984703A9734813
:1031F40019F033F809A9724817F024FF00B3B36833
:10320400704A002120469847F56800230322194696
:103214002046A84733690321204698476A4B03CBCD
:10322400C4F80201C4F806111B88A4F80A310998ED
:1032340017F015FF039819F027F80BB0BDE8F08FCD
:10324400002305930A238DF8183001238DF81930D3
:1032540004AB089305A9099817F009FFD8B1B3681E
:103264005A4A002120469847F5680023032219464C
:103274002046A8473369032120469847544B03CB83
:10328400C4F80201C4F806111A889B78A4F80A212C
:1032940084F80C31CBE7049B642202FB03F74D4B0B
:1032A400A3FB07373F0A04EB020B00233A464A49C3
:1032B40058461BF02FFAB3685A4600212046984717
:1032C40004F5817800233A46444940461BF022FA2B
:1032D400A7F15003282B0FD9F568002303221946C0
:1032E4002046A84733690321204698473A463C497B
:1032F40040461BF00FFA9AE7039818F0FDFF0021EF
:10330400039819F006F8642017F03AFB05A9099808
:1033140017F0ADFE049B642202FB03F31A460193EB
:103324002C4BA3FB02394FEA1929039818F0D7FF55
:1033340000254FF00A0A2946039818F0EAFF504680
:1033440017F01EFB0235B5F5807FF4D14B463A46A3
:10335400214958461BF0DEF9B3685A46002120463D
:1033640098474B463A461D4940461BF0D3F9019B0A
:10337400B3F5994F0FD3F56800230322194620466D
:10338400A84733690321204698474A4615494046D1
:103394001BF0C0F94BE7F5680023022219462046CA
:1033A400A84733690221204698474B463A460B49C1
:1033B40040461BF0AFF93AE7980A0200D001020038
:1033C400B00A0200B80A020000070200DC0A020088
:1033D400000B0200ABAAAAAA0C0B0200380B0200D5
:1033E400440B0200540B0200B2F5004F00D07047AA
:1033F400F0B587B005460C468368404A0021204654
:10340400984705A93E4817F01DFEE0B1AB683D4A58
:103414000021204698470023032219462046EE68DF
:10342400B0472B69032120469847374B03CBC4F898
:103434000201C4F806111B88A4F80A31059817F094
:103444000EFE07B0F0BD022301930A238DF8083065
:1034540001238DF80930CDF810D001A9059817F093
:1034640006FED8B1AB68294A002120469847EE6889
:103474000023032219462046B0472B690321204626
:103484009847234B03CBC4F80201C4F806111A88E9
:103494009B78A4F80A2184F80C31CFE7009B6422BE
:1034A40002FB03F31B4EA6FB03269B1B06EB5306F2
:1034B400760A04F164073246174938461BF02AF9A4
:1034C400AB683A46002120469847503E282E0AD938
:1034D400EE680023032219462046B0472B690321D6
:1034E40020469847AAE7EE680023022219462046A0
:1034F400B0472B690221204698479FE7640B0200DE
:10350400B00A0200780B020000070200980B0200C8
:10351400000B020025154052BC0B020000B583B01D
:103524000023019340B1431E062B09D8DFE803F0C2
:103534000C11161B20252A0001A9154817F05CFD63
:10354400019803B05DF804FB01A9124817F054FD7B
:10355400F6E701A9104817F04FFDF1E701A90F485C
:1035640017F04AFDECE701A90D4817F045FDE7E720
:1035740001A90C4817F040FDE2E701A90A4817F039
:103584003BFDDDE701A9094817F036FDD8E700BF88
:10359400D40B0200DC0B0200E40B0200EC0B020073
:1035A400F40B0200FC0B0200040C02000C0C0200E1
:1035B40082B02DE9F04F8FB080468B4616461993A2
:1035C4001C9D8368A04A0121584698479F4B03CB12
:1035D400CBF80201CBF806111B88ABF80A310DAA0F
:1035E4001021304618F03AF9002840F01B810BF501
:1035F400817A0D9B512B06D040F2E9300FB0BDE823
:10360400F04F02B070470DAA1121304618F026F988
:10361400002840F00A810D9B522B02D040F2E93081
:10362400ECE70DAA1221304618F018F9002840F0F2
:10363400FF800D9B592B40F0FE8000240694CDF8AA
:103644000CA00895C246049626465F4607F1640B13
:1036540022467F4958461BF05DF8DAF808305A468E
:1036640001213846984700230293E3B205930B9453
:10367400029A0792774958461BF04CF8DAF808305A
:103684005A46012138469847089B002B00F0B48025
:1036940019AB0A934FF000094D46CDF82490DDF89C
:1036A4001880099A6C4958461BF034F8DAF8083047
:1036B4005A460121384698470A9B06935C69B442EE
:1036C40007D1069B1B69002B00F088804B440693AE
:1036D40041E0624E23463246614958461BF01AF8CF
:1036E400DAF808305A46032138469847B046E8E7E6
:1036F4004E4635E04B4600225A4958461BF00AF81C
:10370400DAF808305A460121384698472A4656497D
:1037140003981AF0FFFF3CB108F1FF33621E4244E4
:1037240003F8016F9A42FBD122462946049E304693
:1037340018F084F8002840F0818023464246294648
:10374400304618F069F800287BD109F101092544B5
:10375400069B994541D0059B002BC9D089F0FF06F3
:10376400029B002BC6D04B46079A404958461AF094
:10377400D1FFDAF808305A460121384698472A46DC
:103784003B4903981AF0C6FF23464246294604984B
:1037940018F030F8002CD8D008F1FF324346601EF0
:1037A4004044944612F8011FB14202D18242F8D13A
:1037B400CBE74A46D946C3F101030191009663441D
:1037C4002C4948461AF0A6FFDAF808304A46022186
:1037D4003846984740F2014010E79946099B013367
:1037E40009930A9A08320A92089A9A4201D0264604
:1037F40057E7CDF818802646029B01330293022B2B
:103804007FF436AF0B9C0134022C7FF41FAFDDF83C
:103814000CA0194B1A889B78A7F802218AF8023069
:103824000020EBE640F2E930E8E640F2E930E5E674
:1038340040F2E930E2E640F2E930DFE642F2487075
:10384400DCE642F24970D9E64809020000070200AA
:10385400140C0200200C0200300C0200000040A0F6
:103864003C0C02005C0C0200880C02009C0C020060
:10387400C80C0200DC0C020020590300B2F5004F12
:1038840000D07047F0B59BB005460C468368264AC5
:1038940000212046984719A9244817F087FF40BB08
:1038A4000DA9199817F0EAFFEC460DF1380EBEE8A1
:1038B4000F00ACE80F00BEE80F00ACE80F009EE874
:1038C40007008CE807000D9B199A21462846FFF74C
:1038D4006FFE0646199817F080FF66B9EE6800235C
:1038E400022219462046B0472B69022120469847F8
:1038F40018E04FF47A7604F16407C6F30E020C491B
:1039040038461AF007FFAB683A460221204698472A
:10391400EE680023032219462046B0472B69032191
:10392400204698471BB0F0BD180D0200D0090200D4
:10393400D8090200034B1B684FF0FF32C3F8D42BA5
:10394400704700BF5CB177A070B58AB004460FF031
:1039540013FA09AA0021204618F0A3FC184C4FF4CE
:10396400F84307930023069347F6E0760596022270
:10397400049240F2DF12039240F21F32029201934A
:103984000093099B4FF4F0724FF4487120680EF0D5
:103994009DF90C4D294620680EF0D6FC1F220A49D9
:1039A40020680EF0E6FC314620680EF0CAF929467C
:1039B40020680EF0C9FC0FF0F3F90AB070BD00BF27
:1039C4005CB177A0600104005C0D02002DE9F047B2
:1039D40088B0DFF81C81D8F8000000F664240025C4
:1039E400ADF81850ADF81A50C369ADF81C30036A2D
:1039F400ADF81E303F490EF0A7FCD8F800000EF0D9
:103A0400A5FC87B206AE0A2130460FF079FB07F118
:103A14004602022392B2694630460FF09DFB04AB86
:103A240096E8030083E80300D8F8002002F6CC32BD
:103A340082E80300022118460FF062FB0437BFB28C
:103A4400442F38BF44276826DFF8ACA0DFF8AC90D9
:103A5400D8F800301B6EAB422ED9BDF816300133B6
:103A6400BDF812209B1A9F4226DA01233A4602A986
:103A740004A80FF04FFBBDF808302380BDF80A30CE
:103A84006380BDF80C30A380BDF80E30E380D8F815
:103A940000209119A160C4F80CA0C4F81090311F43
:103AA4001144A1611649E1610233A2F8D23B2034EA
:103AB40001358036092DCBD1012168460FF020FB5A
:103AC400BDF8003023807F33A380BDF802306380CB
:103AD4003F33E3800B4BA3600B4BE3600B4B236141
:103AE4000023A361E361A36208B0BDE8F08700BFCF
:103AF4005CB177A0600104006D3C0000DCB30200FF
:103B0400153B0000B001020039390000A011030088
:103B140030B589B004460388ADF818304388ADF851
:103B24001A308388ADF81C30C388ADF81E301C4DA4
:103B34001C4928680EF008FC28680EF007FC85B2C2
:103B4400022106A80FF0C0FA0223402204A906A805
:103B54000FF024FB236993B1BDF810300393BDF833
:103B64001230029302AA03A90D4B18680EF0FBF859
:103B7400BDF80820BDF80C1020690FF09BF92A4607
:103B8400694606A80FF054FBBDF80230BDF80020CA
:103B9400A168034800680EF09CFB09B030BD00BF6B
:103BA4005CB177A06001040070B586B00FF0E4F852
:103BB400284C294920680EF0C7FB20680EF0C6FB8C
:103BC400054647F6E07120680EF0BBF80021206836
:103BD4000EF0B9F82068B0F8D03BB0F8CE2BB0F8AE
:103BE400CC1BB0F8D26B00960EF017F82068036E69
:103BF40013BB90F8E03B102B28D0092B28D0174C8E
:103C0400174A302B18BF144621460EF00BFC114EF8
:103C1400336882B204A903F6CC300FF029FBAAB2B0
:103C240002A904A80FF004FBBDF80A30BDF808206F
:103C3400214630680EF04DFB064B186800F66421EF
:103C44000EF0D0FD0FF0ACF806B070BD044CDBE70D
:103C5400044CD9E75CB177A060010400B80D020000
:103C6400840D0200980D020008B5806900F068FE1A
:103C7400054B1B68D3F8D80BFFF766FEFFF7A6FECB
:103C8400FFF792FF08BD00BF5CB177A010B59AB0F2
:103C940002460C4901A81AF03DFD012301AA0A4974
:103CA4000BA81AF037FD6A4601210BA817F0A6FCF1
:103CB400044610B120461AB010BD009817F0D8FC85
:103CC400F8E700BFE00D0200E80D020010B58CB06B
:103CD4000246094902A81AF01DFD01AA012102A801
:103CE40017F08CFC044610B120460CB010BD0198AE
:103CF40017F0BEFCF8E700BFFC0D020010B58CB055
:103D04000246094902A81AF005FD01AA012102A8E8
:103D140017F074FC044610B120460CB010BD019895
:103D240017F0A6FCF8E700BF140E02002DE9F047D7
:103D340094B0804600231293364B1D6802463649E0
:103D440008A81AF0E7FC13A908A818F09BF918B101
:103D5400302014B0BDE8F0873049139818F0F7F913
:103D640068B1129B002B4AD0002B4DDD6435012431
:103D74002646DFF8AC902B4FDFF8ACA019E012AB6D
:103D840000222A49139818F0F7F9129B002BEBD163
:103D94002749139818F0DBF912AB00222349139832
:103DA40018F0EAF9DDE70134E4B22646129B9C429E
:103DB4002ADC3246494605A81AF0ACFC502300938D
:103DC4002B1D3A4605A9139818F006FA00BB324693
:103DD400514603A81AF09EFC2823009305F15503CD
:103DE4003A4603A9139818F0F7F90028DBD145F8EF
:103DF400808B084B1A68136E01331366D3E713984C
:103E040018F07AF93020A4E7139818F075F9A0E7B0
:103E140030209EE75CB177A0140E02002C0E020045
:103E2400540E0200986903005C0E0200400E02006A
:103E34004C0E02002DE9F0478EB00746304B1C684B
:103E44000246304904A81AF065FC03AA012104A81B
:103E540017F0D4FB064618B130460EB0BDE8F08723
:103E640002A9039817F05CFC029B002B44D004F1D8
:103E7400640A0025A8462C464FF0010912E02C2BB9
:103E840006D04F2D0AD80AEB05021371013505E05F
:103E94000AEB050300251D714FF001080134029B54
:103EA400A34229D901AB4A460DF10301039817F047
:103EB40003FC064600BB019BF3B19DF803300D2BB8
:103EC400ECD0B8F1000FDAD00A2B07D0272DE5D8B3
:103ED4000AEB050282F855300135DFE755444FF00F
:103EE400000885F855804AF8807B054B1A68136EE4
:103EF400013313664546D1E7039817F0B9FBABE7E6
:103F04005CB177A0FC0D020030B5A9B040F6E430F6
:103F140018F072FB664B186080B140F6E432002161
:103F24001AF0F5FC25AA1021012016F01EFE38B166
:103F34005F4C206818F068FB0023236029B030BD73
:103F440025AA24A95B4818F091FD18B1259816F00C
:103F540031FEEDE727A9584818F07FF920B12599DB
:103F6400249818F0F0FDF1E7514B1B68279AC3F829
:103F7400D82B4FF0FF31302002F07EFC0020FFF7F9
:103F840085FE04460120FFF781FE002C78D068B935
:103F94000123009300238DF804308DF855306846D2
:103FA40000F0CEFC279818F06FF9D8E70020FFF74F
:103FB400A5FE04468DF898000120FFF79FFE8DF8BA
:103FC4009900002C5ED0002833D1394B1B680124A2
:103FD400C3F8DC4B00221A662046FFF7A7FE04F163
:103FE400A0030DEB030404F8080C314B1B6883F8A1
:103FF400E00B2798FFF7A8FCFFF7E8FCFFF7D4FDD8
:104004002B4C4FF0FF352368D3F8D43B002BC9D198
:104014002A4620A9259816F096FE0028F3D1244BB1
:1040240018684FF4FA73259A00F664210EF0D4FD53
:10403400E7E70020FFF74AFE05468DF898000120C7
:10404400FFF744FE8DF899001DB3B0F10D0418BFBD
:104054000124174B1B68C3F8DC4B00221A6604F1D9
:10406400A0036B4413F8083CCBB1114B1B6804F15B
:10407400A0020DEB020414F8082C83F8E02BB8E737
:10408400002386E70A4B1B680024C3F8DC4B1C663C
:10409400A2E7074B1B680024C3F8DC4B1C662046D0
:1040A400FFF7C8FE04F1A0036B4403F8080CDCE737
:1040B4005CB177A0C4010200D00102000022084BC9
:1040C40003F14C0013F8011B0A448342FAD1D24392
:1040D400034BD86C904214BF16200020704700BFD9
:1040E40060B177A000B583B000220D4B03F14C0002
:1040F40013F8011B0A448342FAD1D243084BDA6411
:1041040001A9084817F0F6F910B103B05DF804FBF3
:10411400502300220249019817F00BFAF5E700BF7B
:1041240060B177A0B808020000B583B001A90B48BC
:1041340017F0E0F9034618B1184603B05DF804FB24
:10414400502300220649019817F0E1F9034600289C
:10415400F2D1FFF7B3FF0346EEE700BFB808020051
:1041640060B177A038B51A4C5022002120461AF0CD
:10417400CEFB4FF0FF35A564C02184F83A10A82285
:1041840084F83B200A2384F83C30142084F83D0052
:10419400FF2084F83E5084F83F0084F8400084F8FF
:1041A400421084F8432084F84430012384F84530D5
:1041B400BD2384F83530332384F83630062384F85D
:1041C4003730682384F83830222384F8393038BDF6
:1041D40060B177A0074B1B684FF0FF32C3F80C2285
:1041E400C3F824220021C3F81012C3F81422C3F820
:1041F4001C127047B4B177A0064B1B680022C3F8A9
:1042040028224FF0FF32C3F81422034B0361034BFF
:10421400C3607047B4B177A0589E0200D943000030
:104224002DE9F0418EB005460EF0A6FD524B1868FC
:10423400524A534C2368D3F8E81102FB01010FF0F2
:1042440037F82068D0F81032D3B94D4B1B68D3F837
:104254001C32002B73D1002D00F08380484B1B6867
:10426400D3F82C22002A71D1D3F83032002B75D028
:104274000EF0CCFD424B1B680022C3F8302272E0E2
:1042840000210DF060FD002120680DF05AFD002191
:1042940020680DF05BFD3B4920680EF055F823685B
:1042A4000CAE03F5FA7292E8030086E803000121DC
:1042B40018460DF04BFD206800F164010EF092FAEF
:1042C4002368D3F8C821D3F8C43101322E49684693
:1042D4001AF020FA694620680EF0A4F88046236894
:1042E40003F5F67393E8030086E803000A213046D9
:1042F4000EF006FF0AAF1FFA88F2394630460EF078
:10430400B7FF97E8030086E8030020680EF01EF864
:1043140082B2394630460EF08BFF47F6E0712068D2
:104324000DF00FFD002120680EF07AF8BDF82A3058
:10433400BDF82820694620680DF0CBFF85E7C6222A
:104344004FF4B67111480EF0B5FD84E70EF030FD60
:104354000B4B1B680022C3F82C2204E00EF020FD56
:1043640001E00EF01DFD064B1B680022C3F8142269
:104374000EB0BDE8F08100BF0400001000B80B00CF
:10438400B4B177A060010400640E0200102C020096
:1043940008B50F4B1B68D3F8102292B90C4B1A685E
:1043A400D2F8C8310133D2F8C4118B4228BF00239C
:1043B400C2F8C8314FF0FF33C2F81832C2F83032B5
:1043C40008BD0020C3F81002FFF72AFFE6E700BF8C
:1043D400B4B177A008B5084B1B684FF0FF32C3F89F
:1043E4002822C3F81422054B0361054BC360002047
:1043F400FFF7CEFF08BD00BFB4B177A084A50200CB
:10440400FD41000008B5114B1B68D3F81022BAB95E
:104414000E4B1B68D3F8C8211AB9D3F8C421C3F8CA
:10442400C821D3F8C821013AC3F8C8210022C3F82F
:1044340010224FF0FF32C3F81822C3F82C2208BD13
:104444000020C3F81002FFF7EBFEE1E7B4B177A058
:104454002DE9F04FADF5077D0188B0F802A004699D
:10446400A789E28904F1150006AD86AE10F801CCE7
:104474004FEADC0C10F8023CDB085B0143EA8C23B6
:1044840010F803CC43EADC0325F8023B0330B542C1
:10449400ECD1002A4ED0501E07F2123307FB003332
:1044A40023440020DFF894800591049299463B460A
:1044B40032E002365D4525D015F8013B06AA32F8F4
:1044C4001340002CF5D0234652463146D8F800005C
:1044D4000DF054FC06F10109234652464946D8F82A
:1044E40000000DF04BFC23463A463146D8F8000054
:1044F4000DF044FC23463A464946D8F800000DF036
:104504003DFCD6E7019B0298DDF80C9001300AF1DE
:10451400020A049A82420DD0CB46A9EB03094D4608
:10452400002BF3D00AF10107059E01930290CDF808
:104534000C90C1E70DF5077DBDE8F08FB4B177A00D
:104544002DE9F04FBFB04FF0FF32002307930693DD
:104554001F46B0E04FF0FF32ADE093F8CC21022AC1
:1045640040F0BC80002207923B97079A03323C92AA
:1045740000223BA9D3F8E00116F061FB0022069269
:1045840099E093F8D421022A40F0AD8001220792E9
:10459400EAE74F46039D3D95D4F82432002B40F0C2
:1045A400E880D4F83432002B00F0BF804FF00003D1
:1045B4008DF824307E4B1B681B6E1A6801350095FC
:1045C40009AB7C491DA81AF0A5F808AA01211DA869
:1045D40017F014F8002840F0CC80049BDD1C0898E8
:1045E40017F046F8744B1B6803F56A1303F5C053C0
:1045F40004F50972E9B21DA80EF010FD0446002866
:1046040040F0B7806A4B1868049B00EBC303022296
:1046140083F8CC213D9AC3F8D021069B002B00F0EF
:10462400A6803B9B9A4200F09580002243E0002E36
:104634003CD1059B002BBCBF5B180593059B5F1EFB
:10464400B8F1000FB8BFF0442E46424608F1FF38D7
:10465400059B0597013081422AD9B3FBF1F701FB91
:1046640017330493B2FBFEF70EFB1722039204EBFD
:10467400C307D7F8D0B15A458BD197F8CC71002F26
:1046840087D0AE42E6D8002DD1D1614538BFACEB1E
:10469400010C0CF10105D64538BFAAEB0E0A5246AF
:1046A4000AF1010A6346AC460125D3E73546D1E752
:1046B4004F464FF0FF323E4B1B683DA9D3F8DC0157
:1046C40016F041FB98B93D9FB7F1FF3F62D0384BDC
:1046D4001B68D3F8D02197423FF43FAFD3F8D821D9
:1046E40097423FF44EAF3B974FF0FF3306933D970D
:1046F400079803463A462E490C68D4F8C4E171463B
:10470400022928BF0221461C0138059007F1010A3D
:1047140007F1FF3BBEF1000F3FF41CAF0020B4468D
:104724000646B9460546D84697E7226E55322349D0
:1047340009A819F0EFFF3DE73D9B3B934FF0FF3392
:104744003C931B4B1B6800223BA9D3F8E00116F0F5
:1047540076FA11E03C9500223BA9D0F8E00116F06E
:104764006EFA3D9F049B079306940022A3E7002260
:10477400A1E7069B002BDFD10D4B1B68049A03EBCA
:10478400C203022283F8CC213D9AC3F8D02100222F
:10479400069290E74FF0FF323B92054B1B683BA912
:1047A400D3F8E00116F04BFA00203FB0BDE8F08FDB
:1047B400B4B177A0800E020004000010740E020051
:1047C40070B58AB004460EF0D7FA09AA0021204633
:1047D40017F067FD154C4FF4F84307930023069335
:1047E40047F6E07605960222049240F2DF12039225
:1047F40040F21F32029201930093099B4FF4F0722E
:104804004FF4487120680DF061FA094D294620687B
:104814000DF09AFD314620680DF093FA2946206880
:104824000DF092FD0EF0BCFA0AB070BDB4B177A0E1
:104834006001040030B5B1B0194B1B680022C3F805
:10484400C421174C174D1DE000238DF80C3023684C
:104854001A6E1268D3F8C4310133009303AB1249C2
:1048640017A819F057FF02AA012117A816F0C6FECF
:10487400A0B92268D2F8C4310133C2F8C431029815
:1048840016F0F6FE2368D3F83422002ADCD11A6E1F
:104894005532294603A819F03DFFD8E731B030BDA1
:1048A400B4B177A0740E0200800E020070B582B01D
:1048B400224B1B68D3F8C8614FF0FF3203F5E47153
:1048C400D3F8DC0116F014FA1C4CFA2508E0C3F8FE
:1048D4001C02FFF7A5FC19E02368D3F81C222AB3B5
:1048E40023682A466946D3F8E00116F02CFA00281A
:1048F400F2D1009BB342F3D1019BB3F1FF3F13D03C
:104904000E4B1B68D3F81C22002AE0D10B4B1B680A
:104914000022C3F818224FF0FF31C3F81412019992
:10492400C3F8E811C3F81C2202B070BD4FF0FF3287
:10493400C3F81C220020FFF773FCD1E7B4B177A0C1
:104944002DE9F04395B005464FF40E7017F054FE70
:10495400BB4B186038B304464FF40E72002119F0B3
:10496400D6FF04F5EE720421032016F0FEF8E8B138
:10497400B34B1B68D3F8E421002A40F02182B04BEA
:104984001B68D3F8DC01002840F03282AC4B1B6872
:10499400D3F8E001002840F02E82A94C206817F0DB
:1049A40033FE0023236015B0BDE8F083A44B1A68DE
:1049B40002F5F0720821032016F0D7F80028D7D1A9
:1049C4002B794BB995F8553033B99D4B1B684FF093
:1049D400FF32C3F8342204E0994B1B680022C3F869
:1049E4003422974B1A680023C2F8E43102F5F272BC
:1049F4000192022200924FF420729249924816F0DA
:104A04005DFA0028B4D18E4B1B684FF0FF31C3F818
:104A140010120022C3F81C22C3F80C221D66C3F82E
:104A2400C821C3F81812C3F81412C3F82022874B04
:104A34001B6883B112AA1021012016F096F80028F1
:104A440096D112AA11A9824818F010F848B1129808
:104A540016F0B0F88CE77D4A0121032016F085F8A2
:104A6400E8E713A97B4817F0F8FB20B112991198D5
:104A740018F069F8EBE7FFF7DDFE714B1B68D3F81C
:104A8400C4311BB9139817F0FFFBEFE71398FFF736
:104A940097FE6B4F3C680025ADF80C50ADF80E50F6
:104AA400E369ADF81030236AADF812306A49204644
:104AB4000DF04AFC396803AE2B464A2201F5FA711F
:104AC40030460EF049FB3B6803F5FE7296E803009E
:104AD40082E8030005AE03F5FA7393E8030086E861
:104AE4000300052130460EF00BFB2823402207A9C2
:104AF40030460EF053FBBDF81C30A4F86430BDF80A
:104B04001E30A4F86630BDF82030A4F86830BDF833
:104B14002230A4F86A30DFF84491C4F86C90504B0A
:104B24002367504B6367E567DFF83C81C4F88080F6
:104B34002823402207A930460EF030FBBDF81C3074
:104B4400A4F88430BDF81E30A4F88630BDF82030B7
:104B5400A4F88830BDF82230A4F88A30C4F88C90C8
:104B6400424BC4F89030424BC4F89430C4F89C5083
:104B7400C4F8A0802823402207A930460EF00EFB7B
:104B8400BDF81C30A4F8A430BDF81E30A4F8A6303B
:104B9400BDF82030A4F8A830BDF82230A4F8AA301B
:104BA400C4F8AC90334BC4F8B030334BC4F8B430D1
:104BB400C4F8BC50C4F8C08039680223642201F5EB
:104BC400F67130460EF00EFB2823402207A930462A
:104BD4000EF008FBBDF81C30A4F8C430BDF81E303C
:104BE400A4F8C630BDF82030A4F8C830BDF822308F
:104BF400A4F8CA30C4F8CC90204BC4F8D030204B71
:104C0400C4F8D430C4F8DC50C4F8E080C4F8EC50E4
:104C14003B68D3F80C32002B7FF434AF3C464FF0A2
:104C2400FF370A4E37E0FFF741FE16F0F7F8054666
:104C340038E03846FFF7F4FA16F0F0F8054636E0A7
:104C4400B4B177A0940E020045450000B0B177A03E
:104C5400C4010200D001020060010400986903004D
:104C6400094400002C97020055440000D943000079
:104C7400589E020095430000B0AC0200D9410000E8
:104C8400009002000020FFF783FB2368D3F80C3266
:104C9400002B7FF4F7AE17F0A1FC2368D3F8183289
:104CA400002BC0D12368D3F81432002BC1D10022C9
:104CB4000DF12701306816F046F8022812D09DF84D
:104CC4002730012BDED0022B08D0002BDDD14B4B3B
:104CD4001B684FF0FF32C3F80C22D3E60020FFF725
:104CE40091FBD2E73A460DA9129816F02CF8002849
:104CF400CBD1424B1868D0F8103283B9109B012BEA
:104D04003FD0D0F82832D3B1284616F095F840F6B3
:104D1400B733984210D90020FFF73AFB0CE04FF468
:104D2400FA73129A00F164010DF056FF284616F04A
:104D340083F8B0F57A6F17D2109B012B27D02F4B35
:104D44001A68D2F820324BB1D2F80832D2F80422D1
:104D54009B1A13F1800F2BDB802B2DDC274B1B6858
:104D64000022C3F8202290E7244B1B680022C3F8DA
:104D740010224FF0FF32C3F8142216F04FF8054604
:104D8400DAE74FF0FF33C0F81032C0F814321B4B8F
:104D94001B68D3F820223AB90F9AC3F804224FF0C3
:104DA400FF32C3F8202270E70F9AC3F80822F6E70F
:104DB4000020FFF7EDFAD1E70020FFF723FBCDE752
:104DC4004FF0FF320C920CA9D3F8DC0115F090FFE0
:104DD40000250A4C0A9523684FF0FF320AA9D3F83C
:104DE400E00115F0B0FF0A9BB3F1FF3FF2D1C6E535
:104DF40015F0E0FECAE515F0DDFECEE5B4B177A00E
:104E04008269D2F8C83183F00103C2F8C83170470F
:104E140083694FF0FF329A60704700002DE9F04F2C
:104E240095B004460DF0A8FF254613AA002155F8B5
:104E34000C0B17F036FA4FF4F84307930026069646
:104E440047F6E07705974FF00209CDF8109040F24D
:104E5400DF13039340F21F33029301960096139BD2
:104E64004FF4F0724FF4487128460CF02FFFDFF82E
:104E7400D8A1514628460DF067FA28460DF066FA87
:104E8400A4F8C0011F22714928460DF072FA394670
:104E940028460CF056FF314628460CF054FFADF876
:104EA4004460ADF84660A36AADF84830E36AADF8F3
:104EB4004A30082111A80EF023F9B4F8C021463273
:104EC4004B4692B20BA911A80EF046F901210BA88A
:104ED4000EF016F9BDF82C30A4F86C307F33A4F82A
:104EE4007030BDF82E30A4F86E303F33A4F8723021
:104EF400574B6367574BA367574BE367C4F884402A
:104F0400C4F88860314628460DF08AFA31462846AE
:104F14000CF01CFF012128460DF082FA4F49284667
:104F24000DF012FA312128460DF014FAA4F8C2014A
:104F340028460DF00BFA82B2A4F8C421B4F8C2B129
:104F44000BEB4B0B4FEA4B0B0BF18A0B04F5D677AB
:104F54000832802A38BF802292B2394611A80EF056
:104F640067F90DF13C0897E8030088E803001FFA8D
:104F74008BF2394640460EF07BF997E8030088E847
:104F840003004B46802209A940460EF02BF9334614
:104F940080220DA909A80EF0BDF8BDF83430A4F89C
:104FA4008C30BDF83630A4F88E30BDF83830A4F813
:104FB4009030BDF83A30A4F89230DFF8A4B0C4F8C9
:104FC40094B0284BC4F89830274BC4F89C30C4F8EC
:104FD400A440C4F8A860B4F8C2210432334692B2A3
:104FE4000DA940460EF0FEF8BDF83430A4F8AC30FC
:104FF400BDF83630A4F8AE30BDF83830A4F8B0307F
:10500400BDF83A30A4F8B230C4F8B4B0154BC4F8C3
:10501400B830C4F8BC60C4F8C440C4F8C860494699
:1050240038460EF06DF8C4F8D460514628460DF0A9
:105034008BF904F16C0128460DF0D4FB0DF0B0FEA1
:1050440015B0BDE8F08F00BF600104009C0E0200A3
:10505400B0010200154E0000A0110300286B0300EC
:1050640098690300054E00007C5602002DE9F04FBC
:105074008DB04FF4E87017F0BFFA764B1860A0B10A
:1050840004464FF4E872002119F041FC0123C4F8EE
:10509400BC3104F5E671704817F007FB40B16D4C64
:1050A400206817F0B1FA002323600DB0BDE8F08F3B
:1050B4006A4A1021012015F058FD30B1654B1B6878
:1050C400D3F8CC0117F0FEFAE9E7644A0BA9644867
:1050D40017F0CCFC20B1614B186815F06BFDEDE7BF
:1050E4005C4B19685F4817F0B8F828B15B4B196836
:1050F4000B9817F028FDEEE7564C2068FFF78EFE5C
:1051040020688368002B6BD0006817F0BDF8EDE7CA
:10511400059B03EBC303544A82FB0312DB17C3EB67
:10512400620303F5001305931A149BB203EB830384
:10513400DB0B4E4908A819F0EDFA74E04C4B0893C8
:1051440071E06D08454405F1FF3AB9F8AE214146D6
:1051540020460CF08CFF47F6E07120460CF0F1FD80
:10516400039B1978202901D05F2920D107AA06A919
:1051740020460CF095FF069B9A451CDCA8465E452C
:1051840029D0394620460CF0DEFD394620460CF085
:10519400D8FD394620460CF0D9FDB9F8C251013684
:1051A400039633782E2BCCD05F2BCBD1C9E7204686
:1051B4000CF0CEFFDAE7394620460CF0C2FD079A20
:1051C400B9F8C4311344013B0093AB1E0699204641
:1051D4000CF023FDD2E71F4B18688368002B93D192
:1051E4004FF4FA731D4A126800F16C010C300DF093
:1051F400F3FC184BD3F8009005A9D9F8CC0117F0AB
:1052040069FA00289AD1D9F8C811012980D0059BE0
:105214001A149BB203EB8303DB0B002989D11549D4
:1052240008A819F077FA09F10C04134920460DF087
:105234008BF8002120460DF0F3F847F6E071204684
:105244000CF07FFDB9F8AC810DF11F060DF1260BB2
:10525400002796E7BCB177A0F8070200B8B177A0A1
:10526400C4010200D001020067666666CC0E02002B
:1052740045727200C00E0200286B0300704770472D
:10528400A0F862104FF0FF33C0F8C83070474FF0F9
:10529400FF33C0F8C8307047074B1B6803B9704729
:1052A40010B5D0F834411146204609F079F9034984
:1052B400204609F075F910BDC0B177A09010020026
:1052C40010B5D0F83441054B53F82210204609F0AC
:1052D40067F90349204609F063F910BD98170200E5
:1052E400D80E020008B5094B1B683BB9084B1B6874
:1052F40043B1084909F054F9002008BD064909F0F2
:105304004FF9F9E7054909F04BF9F5E7D0B177A072
:10531400D4B177A0E40E0200DC0E0200F00E02000D
:1053240030B587B0054601291ED0144602293CD168
:10533400204B1B6853B3204B1A68204901A819F06D
:10534400E9F9616801A819F037FB08B3194B1B6828
:105354004BB3194B1A681A4901A819F0DBF901A9D2
:10536400284609F01DF90CE0124B1B6863B1124B7F
:105374001A68144901A819F0CDF901A9284609F0C1
:105384000FF9002007B030BD0022F2E70022D4E775
:10539400094B1A680C4901A819F0BCF901A928465F
:1053A40009F0FEF8EDE70022D5E7084909F0F8F81E
:1053B400E7E700BF48B277A04CB277A0200902000B
:1053C400180F0200000F0200080F0200280F02004D
:1053D40010B50446012904D0064909F0E1F800207B
:1053E40010BD012001F0EEFD0349204609F0D8F874
:1053F400F5E700BF280F0200E40E020010B50446D2
:10540400012904D0064909F0CBF8002010BD022080
:1054140001F0D8FD0349204609F0C2F8F5E700BFC2
:10542400440F0200E40E020010B5012904D0044622
:10543400022905D0002010BD032001F0C3FDF9E7C7
:105444000B4B4FF0FF321A60032001F0BBFD084AFA
:105454001368002BFCD1074B1B6823B10649204677
:1054640009F09EF8E6E70549204609F099F8E1E7D6
:10547400D0B177A0D4B177A0E40E0200F00E020000
:1054840010B50446012904D0064909F089F8002022
:1054940010BD052001F096FD0349204609F080F86F
:1054A400F5E700BF440F0200E40E020008B5002037
:1054B40001F088FD002008BDF8B50646042904D093
:1054C400124909F06DF80020F8BD1546506809F03E
:1054D40047F80446A86809F043F80746E86809F065
:1054E4003FF8E40104F4F844BF0007F478773C4340
:1054F400C0F3C4000443064B1C80042001F062FD89
:105504000449304609F04CF8DDE700BF440F0200BF
:10551400C8B177A0E40E02002DE9F84380460D4699
:10552400144602F58179144B1A889B78A4F8022159
:1055340089F80230204601F06FFD0023C4F8C8301A
:10554400C4F834814FF4004221460C48A847D4F8EB
:10555400C8304BB9094F0026324621463846A84781
:10556400D4F8C830002BF7D04A460549404609F024
:1055740043F8BDE8F88300BF20590300AC170200CC
:10558400B869030010B5CEB00446022905D0094914
:1055940009F006F800204EB010BD506808F0E0FF96
:1055A40036900123ADF800316A4603492046FFF7DF
:1055B400B3FFEFE7440F0200BD2A000010B5CEB0E0
:1055C4000446022905D00C4908F0EAFF00204EB039
:1055D40010BD506808F0C4FF0023ADF8003128B1B5
:1055E4006A4606492046FFF797FFEFE76A460449F3
:1055F4002046FFF791FFE9E7440F020081380000DD
:10560400192D000000B5CFB0012906D0054908F0D6
:10561400C7FF00204FB05DF804FB6A460249FFF75C
:105624007BFFF6E7440F0200ED33000000B5CFB076
:10563400012906D0054908F0B3FF00204FB05DF8FA
:1056440004FB6A460249FFF767FFF6E7440F0200CE
:105654005526000000B5CFB0012906D0054908F051
:105664009FFF00204FB05DF804FB6A460249FFF734
:1056740053FFF6E7440F02006524000000B5CFB0E5
:10568400012906D0054908F08BFF00204FB05DF8D2
:1056940004FB6A460249FFF73FFFF6E7440F0200A6
:1056A4006921000000B5CFB0012906D0054908F0F2
:1056B40077FF00204FB05DF804FB6A460249FFF70C
:1056C4002BFFF6E7440F02009D23000000B5CFB086
:1056D400012906D0054908F063FF00204FB05DF8AA
:1056E40004FB6A460249FFF717FFF6E7440F02007E
:1056F400BD2D000000B5CFB0012906D0054908F042
:105704004FFF00204FB05DF804FB6A460249FFF7E3
:1057140003FFF6E7440F0200C92F000010B504464A
:10572400022904D00B4908F03BFF002010BD50684B
:1057340008F016FF031E18BF01235B42064A1360DC
:10574400064A074B002818BF1A460649204608F0A7
:1057540053FFEAE7440F0200C0B177A0640F0200D0
:10576400600F0200680F020030B5C3B0044601297F
:1057740006D0414908F014FF0025284643B030BD47
:1057840041A93E4816F012F800286ED14FF4802249
:105794004FF4E001419816F051F8002834D18023E9
:1057A40001AA4FF4E001419816F024F8002832D100
:1057B40001AB21A913F8012BFF2A33D18B42F9D174
:1057C40006232F4A2F49419816F026F888BB062352
:1057D4002D4A2E49419816F01FF888BB802301AA50
:1057E4002849419816F006F888BB0C22284901A8DC
:1057F40018F01CFF054688BB2649204608F0D0FE59
:10580400419815F0EAFFB8E72349204608F0C8FE9E
:105814004FF0FF35B1E72149204608F0C1FE4FF0B3
:10582400FF35AAE71E49204608F0BAFE4FF0FF35BF
:10583400A3E71C49204608F0B3FE4FF0FF359CE770
:105844001849204608F0ACFE4FF0FF3595E71349A0
:10585400204608F0A5FE4FF0FF358EE7124920469A
:1058640008F09EFE4FF0FF3587E71049204608F008
:1058740097FE002581E700BF440F0200D009020013
:1058840090090200FCFF73009809020002007400F2
:10589400A0090200E40E02007C0F02009C0F02002B
:1058A400B80F0200D00F0200F00F02001010020027
:1058B4002DE9F04F89B0009014460139062900F211
:1058C400DD82DFE811F0D502DB02DB02CA02070049
:1058D400DB02BF00506808F043FE0546A06808F0EC
:1058E4003FFE8146E06808F03BFE8046206908F0F0
:1058F40037FE0646E8B2FDF711FE0746002862D0DF
:105904005FFA88F0FDF70AFE0446002863D049EAEE
:10591400052080B216F0B8F80546B0F1FF3F62D01A
:1059240046EA082080B216F0AFF80546B0F1FF3F12
:105934005ED05FFA86F823681B6B0022414620463E
:105944009847012505FA06F623681B6A3146204666
:10595400984723685B6B002241462046984705FA26
:1059640009F53B685B6A2946384698473B68DB691A
:105974002946384698473B685B6B00225FFA89F1F9
:1059840038469847322012F011FF2368DB6A07AAD1
:105994003146204698473B689B6A294638469847D3
:1059A400322012F003FF2368DB6A06AA3146204640
:1059B4009847079B43B3069BFBB91B49009808F023
:1059C4001BFE002550E22A461849009808F014FEF0
:1059D4004FF0FF3548E242461449009808F00CFEA7
:1059E4004FF0FF3540E21249009808F005FE3BE213
:1059F4001049009808F000FE36E20F49009808F0BC
:105A0400FBFD4FF0FF352FE2069B33B10B490098A5
:105A140008F0F2FD4FF0FF3526E20949009808F03E
:105A2400EBFD4FF0FF351FE2E40E02002C100200E4
:105A3400441002006C10020094100200BC1002001A
:105A4400A8100200506808F08BFD0546A06808F015
:105A540087FD8246E06808F083FD8046206908F0EF
:105A64007FFD8346606908F07BFD8146A06908F0EC
:105A740077FD0190E8B2FDF751FD0746002800F0DC
:105A840080815FFA88F0FDF749FD0446002800F0A4
:105A940080815FFA89F0FDF741FD0646002800F099
:105AA40080814AEA052080B215F0EEFF0546B0F188
:105AB400FF3F00F07E814BEA082080B215F0E4FF3E
:105AC4000546B0F1FF3F00F07981019B43EA0920CC
:105AD40080B215F0D9FF0546B0F1FF3F00F07381A5
:105AE4004FF0010808FA0AF53B681B6A2946384654
:105AF4009847E9B203913B681B6B022238469847EA
:105B04005FFA8AF13B685B6B002202913846984742
:105B140008FA0BF923681B6A4946204698475FFA3E
:105B240089F0049023681B6B0222014620469847A3
:105B34005FFA8BFB23685B6B00225946204698472B
:105B4400019B08FA03FA33681B6A514630469847AA
:105B54005FFA8AF0059033681B6B022201463046D7
:105B640098479DF80400019033685B6B002201465E
:105B7400304698473B68DB692946384698473B6876
:105B84005B6B002202993846984723681B6B0022FE
:105B940059462046984723681B6A49462046984739
:105BA40023685B6B00225946204698473B685B6A32
:105BB400294638469847404612F0F8FD2368DB6AC8
:105BC40007AA4946204698473B689B6A29463846B7
:105BD4009847404612F0EAFD2368DB6A06AA494664
:105BE40020469847079B002B00F0F980069B002B6A
:105BF40040F0EE803B681B6A2946384698473B686C
:105C04001B6B022203993846984723681B6A49464E
:105C14002046984723681B6B022204992046984724
:105C240033681B6A51463046984733681B6B02221F
:105C34000599304698473368DB69514630469847A2
:105C440033685B6B002201993046984723681B6BCD
:105C5400002259462046984723681B6A4946204635
:105C6400984723685B6B002259462046984733685F
:105C74005B6A514630469847012012F097FD23682D
:105C8400DB6A07AA49462046984733689B6A51460F
:105C940030469847012012F089FD2368DB6A06AA82
:105CA400494620469847079B002B00F0AF80069B8F
:105CB400002B40F0A4803B681B6A2946384698476D
:105CC4003B681B6B022203993846984723681B6A7A
:105CD40049462046984723681B6B022204992046B4
:105CE400984733681B6A51463046984733681B6BA4
