:100000002C140010FD01000017020000780200000F
:10001000190200001B0200001D020000F7DEFFEFC6
:1000200000000000000000000000000081E202006B
:10003000210200000000000011E3020075E302004D
:10004000E5A70200F5A7020005A8020015A8020016
:1000500025A8020035A8020045A8020055A8020004
:1000600065A8020075A8020085A8020095A80200F4
:10007000A5A80200B5A80200C5A80200D5A80200E4
:10008000E5A80200F5A8020005A9020015A90200D2
:1000900025A9020035A9020045A9020055A90200C0
:1000A00065A9020075A9020085A9020095A90200B0
:1000B000A5A90200B5A90200C5A90200D5A90200A0
:1000C000E5A90200F5A9020005AA020015AA02008E
:1000D00025AA020035AA020045AA020055AA02007C
:0400E00065AA02000B
:1000E4002B498D462B492C480A1A04D081F30988E0
:1000F400022282F31488294829492A4A00F037F851
:1001040029482A492A4A00F032F82A482A492B4A1F
:1001140000F02DF82A482B492B4A00F028F82B48E8
:100124002B492C4A00F023F82B482C492C4A00F088
:100134001EF82C482C49002200F024F82B482C49A6
:10014400091A00220260043001601E481E498842D8
:1001540005D00268043003B4904703BCF7E70020DD
:100164008646EC4600200021224A9047FEE788425A
:1001740007D0521A05D0037801300B700131013ACF
:10018400F9D17047884202D002700130FAE7704713
:100194002C1400102C1400102C140010F8CA0400A5
:1001A40000000010F00B0010A0020000A0020000EC
:1001B40008760300F8CA04000000001000000010D4
:1001C4000876030008760300087603000876030027
:1001D4000876030008760300087603000876030017
:1001E400F8CA0400001B44A0443D44A000E637A024
:1001F400001B44A08DC10100DFF88CD02348804748
:10020400DFF884D022488047224823490160FFF761
:1002140067BF2FE02EE02DE02CE02BE02AE029E060
:1002240028E027E026E025E024E023E022E021E0A6
:1002340020E01FE01EE01DE01CE01BE01AE019E0D6
:1002440018E017E016E015E014E013E012E011E006
:1002540010E00FE00EE00DE00CE00BE00AE009E036
:1002640008E007E006E005E004E003E002E001E066
:1002740000E0FFE71EF0040F0CBFEFF30880EFF37C
:10028400098028F01FBE000000E0001059C20100E0
:0C0294002518030008ED00E00000000049
:1002A00000B585B00190009140F20D1031F00AFACE
:1002B000002140F20D1031F01DFA0023039310E0ED
:1002C00040F20D1031F0E6F932202FF04DFA40F2F5
:1002D0000D1031F0EBF932202FF046FA039B013379
:1002E0000393039B132BEBDD40F20D1031F0D2F999
:1002F000FA202FF039FA40F20D1031F0D7F9FA2038
:100300002FF032FAF0E7000000B585B000238DF839
:100310000F30084B019303230093002380220649EA
:1003200006482FF09BFD9DF80F30184605B05DF88C
:1003300004FB00BF841B44A008760300A102000058
:1003400000B583B000230193144833F0D9FE37F091
:1003500057F90346002B06D0114833F0D1FE37F091
:100360003BF937F03DF90F482FF0FAFE0346002B1A
:1003700005D001AB0C4A0021184627F0FBFEFFF721
:10038000C3FF0A4829F0ECF937F02EF937F034F9B9
:100390000023184603B05DF804FB00BF107603008D
:1003A000287603003876030044760300487603007D
:1003B00000B583B04FF0FF3301931BF0E7FD1BF056
:1003C0002DFA1BF056FE0190019B002B07D01BF06D
:1003D0009FFD1BF075FB00201BF07AFC04E01BF076
:1003E0009BFB00201BF074FC01201BF045FC00BFB0
:1003F00003B05DF804FB000000B585B003900291E6
:100400001BF014FE1BF0A8FDFFF7D2FF0022002115
:10041000002027F04FF9084B01930323009300239A
:100420004FF4A062054906482FF018FD0023184636
:1004300005B05DF804FB00BFD82344A0507603004C
:100440004103000010B588B00B4CCDE90610CDE992
:1004500004320EF00BFB0294084C01940124DDE9F8
:100460000432DDE90610009400F022F804900EF04A
:10047000F3FA049808B010BD38B5030058760300AD
:100480007FB50E460192054613F05CFC03680390AD
:10049000DB6816215B6A00209847044603A813F026
:1004A0005FFC1CB1019A31462846A04704B070BDDC
:1004B0002DE9F04F3E4E1C46336887B05B7C109FA1
:1004C00083468A469146DDE9110100220EF050F87C
:1004D0000396054628B94FF00008404607B0BDE82E
:1004E000F08F03699B6898470FF099FC00FB09F6B1
:1004F0000290073613F09AFD17F001084FEAD6066E
:1005000005D10028B8BF0330801000EB4000002C5C
:1005100007DCC6B11838B0FBF6F064428442A8BFCD
:100520000446B8F1000F10D1CDF8008023464A46AA
:100530005146584601F076FF0746002C07DC284656
:100540000EF014F8C7E73046E7E70027F5E706FBAB
:1005500004F01830B8F1000F0CD013F0F5FD804610
:1005600058B928460EF002F8002FB4D0384613F0E0
:100570004BFCB2E713F036FEF1E713F0E3FB029B0E
:100580000590C0E904370560A0F804B0A0F806A003
:10059000A0F808904481C66005A813F0E1FB129B07
:1005A0002B61039BC5F808801B685B7CAB6194E7FB
:1005B000780A001013B5044688B10EF057FA2046A9
:1005C00013F0C0FB036801901B699B6898470FF00C
:1005D00026FC044601A813F0C3FB0EF03DFA2046AA
:1005E00002B010BD13B50446E0B10EF03FFA0E4B59
:1005F0001B689B6DA34201D114F00CFE204613F042
:10060000A1FB0190406908B100F08AFC019B1868C9
:100610000DF0ACFF01A813F0A3FB204613F0F4FB90
:100620000EF01AFA02B010BD780A00102DE9FF474B
:10063000DDF830A0064699460F4690460EF016FAB1
:10064000194B1B68587C194B53F82040E3681B6812
:10065000042B06D02468002CF8D10DF077FF044657
:10066000D8B1E3680121DB6A204698470546C0B14E
:100670002469A3689847013004BF0D4C4AF0010A71
:10068000CDE90154CDF800A04B46424639463046EC
:10069000FFF70EFF04460EF0DFF9204604B0BDE878
:1006A000F0870446F7E700BF780A0010742244A0E0
:1006B00038B5030013B500240094FFF7B7FF02B06C
:1006C00010BD000073B5124D04460EF0CFF92A6834
:1006D000966D34B914F09EFD0EF0BEF9304602B0AE
:1006E00070BD0EB114F096FD0CF0FCFB204613F02B
:1006F00029FB2B6801909C6500680DF079FF01A82B
:1007000013F02EFB12F0EEF80EF012FDE4E700BF3E
:10071000780A00102DE9FF410C46154606460028D0
:100720003ED00EF0A3F9002014F0BCFD1E4B1B6858
:1007300007463046D3F8588013F004FB019014F0BC
:1007400069FD019A194B9C42138904BFB2F9044018
:10075000B2F90650ADF80840013B2344ADF80C3027
:100760005389ADF80A50013B2B44ADF80E300CF024
:10077000B1FB01A813F0F4FA02A80CF0E9F938B1C2
:100780002A462146304600F055F80CF02FF9F6E7DE
:100790004046FFF797FF384614F084FD0EF05CF9F1
:1007A00004B0BDE8F08100BF780A001001F0FFFF3F
:1007B000014A1146FFF7AEBF01F0FFFF2DE9F84FE8
:1007C000DDE90ABA04460D4616461F4600EB42090B
:1007D000884634F8020BD847D0474C4548F8040BFC
:1007E000F7D11F2F06D83A4631462846BDE8F84FC4
:1007F0000DF00ABDBDE8F88F2DE9F84FDDE90ABA22
:1008000004460D4616461F4600EB0209884614F8BA
:10081000010BD847D0474C4548F8040BF7D11F2FA0
:1008200006D83A4631462846BDE8F84F0DF0ECBCF4
:10083000BDE8F88F2DE9F04F2DED028B924608EEC2
:10084000101A99B00546002800F0408113F07AFA9A
:100850004669119011A813F083FA2846FFF7AAFE03
:100860000828B64C02DD002E00F0CC814FF00008C5
:100870004FF001092846CDE9168913F063FAC368E1
:100880000A93B0F90830D0F810B04769139008EE19
:10089000903AB0F90A300E9303681B695B680C93B9
:1008A0002368587C0FF026FA23680646587C0FF020
:1008B00047FA099013A813F053FABBF1080F099BEC
:1008C00008D9BBF1110F34BF022204220D92CDF8DA
:1008D000248006E0BBF1010F2DD116AACDF834B06B
:1008E00009920C9A9A4200F0DD802368587C0FF040
:1008F0002FFA18EE903A0F90980013F025FC8046DE
:10090000002800F0E380284600F035FB0546002F64
:1009100000F0B680384613F015FA002314900B93BC
:100920000E9B0B9A934209DC14A813F019FA404667
:1009300013F06AFACAE0CDF83490C8E714980B9A1D
:100940000023159383680DF154095B694946984764
:1009500018EE903A834204462FD1404613F0F2F944
:100960000F9B0193BBF1080F0C9B12900146009363
:1009700018EE902A334628461CD9FFF71FFF099B23
:100980000593129B04930023CDE90263012318EE23
:10099000100ACDE90033224651460EF0BBFA12A8E8
:1009A00013F0DEF90B9B01330B930A9B0AF1010A4A
:1009B0001D44B5E7FFF720FFE1E7BBF1010F59D078
:1009C000002CEFD0404613F0BDF90F9BDDF854C06A
:1009D000129001460D980193BBF1080F0C9B0093F8
:1009E000224633460CFB005047D9FFF7E7FE099B30
:1009F0000593129B159F049318EE100A0023CDE96E
:100A0000026301232246CDE90033514638440EF0FB
:100A100081FA12A813F0A4F915980B9A20441590A6
:100A20001498836815A95B6998470446C8E7159B25
:100A300018EE102AD01803F00702002BB8BF0733B6
:100A400005EBE30304930A9B06920393099A05922C
:100A500001232246CDE90133009351460EF070F98F
:100A600015980B9A204415901498836849465B6941
:100A700098470446002CDAD194E7FFF7BDFEB6E7AD
:100A8000099BCDE904030A9BCDE902B30123CDE91B
:100A9000003318EE902A0E9B18EE100A51460EF005
:100AA00039FA44E7284600F066FA0646002F00F0BF
:100AB0009780384613F046F9002514904FF001084E
:100AC0000E9BAB4207DC14A813F04AF919B0BDEC39
:100AD000028BBDE8F08F149800231593836815AF3F
:100AE0005B692A463946984718EE903A8342044695
:100AF00026D12A461498836891465B6901323946AB
:100B00000B92984784420B9AF4D0099BA9EB0507F6
:100B1000CDE904630A9B0137CDE902B3CDE9008832
:100B20003B4618EE100A22460AEB05010EF0F2F9D8
:100B30000A9B03FB076609F10105C1E7780A00106B
:100B4000BBF1010F0AEB050947D11CB90A9BA94665
:100B50001E44F0E7159B18EE102AD01803F0070288
:100B6000002BB8BF073306EBE30304930A9B0692FE
:100B7000099A0592CDE90283224601234946CDE92F
:100B800000880EF0DDF815982044159014988368BD
:100B90002A465B69394698470446D6E7099BDDF843
:100BA00054C005930D9B03FB0C63049318EE100ACD
:100BB0000A9B22466044CDE902B349460123CDE9B0
:100BC00000880EF0A7F915982044159014988368B2
:100BD0002A465B69394698470446002CDED1B5E7C2
:100BE000099BCDE904030A9BCDE902B30123CDE9BA
:100BF000003318EE902A0E9B18EE100A51460EF0A4
:100C000089F963E70C90284613F09CF80168C268E4
:100C1000B0F908B0B0F90A701490804614A8D1F861
:100C200010900B9213F09CF82168D9F80430487C9E
:100C3000B3490A9351F820100E69336809930FF0F5
:100C400059F80828DDE90B2312D9112834BF0224F2
:100C50000424B1450ED1002108F1180002930123AC
:100C6000CDE90320CDE9003305913B465A46C3E761
:100C70000124EEE7202B40F0908004FB0BF013F0F2
:100C800063FA0A9000283FF421AF13F05BF8169046
:100C9000284613F057F8E3000B93336914900AEBDE
:100CA000070200F118054FEA8B080D9273B34FF05D
:100CB0000109022C169903D0042C01D0012C05D176
:100CC0002846376923465A46B8474544169ACDF810
:100CD00000900023CDE9033205930B9B18EE100A18
:100CE000CDE901935A46012351460EF013F90D9BAD
:100CF0000AF101079F4207D114A813F031F816A892
:100D000013F02EF80A9813E6BA46D2E74FEA4B02E0
:100D10000E920C93022C169E27D0042C32D0012C5C
:100D20000BD106EB0B092F4657F8040B099B98478C
:100D300006F8010BB145F7D145440C9B0593169B72
:100D400004930C9B03930B9B02930123CDE9003387
:100D500018EE100A5A4651460EF0DCF80D9B0AF1C7
:100D60000106B342C8D0B246D4E70E9B2F4606EB2D
:100D7000030957F8040B099B984726F8020BB14565
:100D8000F7D1D9E7A9465F4659F8040B099B984764
:100D9000013F46F8040BF7D1CEE7102B7FF496AE57
:100DA0000BFB04F013F0D0F90B9000283FF48EAE4B
:100DB00012F0C8FF1690284612F0C4FF3369149051
:100DC00000F11805002B56D0D9F81430002B52D062
:100DD000B0F90800800013F0B7F9804658B112F05E
:100DE000B1FF159048B914A812F0BAFF16A812F076
:100DF000B7FF0B989CE51590F5E74FEA4B03099375
:100E0000E3000A930AEB07030C93022CDDED168A2C
:100E100003D0042C01D0012C0FD128461599D9F804
:100E2000147002235A46B847234618EE901A1598B4
:100E300037695A46B847099B1D44169A0023CDE9E5
:100E4000033205930A9B02930123CDE9003318EE88
:100E5000100A5A4651460EF05DF80C9B0AF1010744
:100E60009F4206D115A812F07BFF404612F0CCFF3E
:100E7000B9E7BA46C9E7E3000C930AEB07030D9301
:100E80004FEA4B064FF000084FF00109022C169F65
:100E900028D0042C36D0012C0CD1AB1935F8020B1C
:100EA0000E930A9B9847099B98470E9B07F8010BE6
:100EB0009D42F3D1169BCDF81480CDE903830C9BA2
:100EC000CDF80090CDE9019318EE100A01235A469F
:100ED00051460EF01FF80D9B0AF101079F4282D088
:100EE000BA46D3E7AB1935F8020B0E930A9B984725
:100EF000099B98470E9B27F8020B9D42F3D1D9E737
:100F0000742244A0AB1935F8020B0E930A9B984744
:100F1000099B98470E9B47F8040B9D42F3D1C9E704
:100F200037B505460DF0A2FD284612F00BFF848967
:100F30000190013C24B2848101A812F011FF14B980
:100F4000284612F061FF0DF087FD03B030BD2DE99A
:100F5000F843089E05468846144699461644A868F4
:100F60002246476801344B4641462846B847B442BA
:100F7000F5D1BDE8F88313B5044660B10DF076FDF8
:100F8000204612F0DFFE019000F1180401A812F0D3
:100F9000E7FE0DF061FD204602B010BD7FB50C46A6
:100FA0001546064658B30DF061FD304612F0CAFEF4
:100FB000144B01909C42038904BFB0F90440B0F97E
:100FC0000650ADF80840013B2344ADF80C3043898E
:100FD000ADF80A50013B2B4401A8ADF80E3012F0D9
:100FE000BFFE02A80BF0B4FD38B12A4621463046B8
:100FF000FFF746FA0BF0FAFCF6E70DF02DFD04B012
:1010000070BD00BF01F0FFFF014A1146FFF7C6BFE8
:1010100001F0FFFF012303740020704770472DE9A2
:10102000F04F85B004460D461746984618F022F951
:10103000064618B9012005B0BDE8F08F18F04CF94C
:1010400001236B7094F9101004F1080229B32B707E
:1010500040460292B8472146304618F05FF93046C4
:1010600018F0F0F8002340462B70B847029A30463B
:10107000114618F053F9304618F0C2F80122002347
:101080002A7000926B7042463946204601F068F89B
:101090000028CFD128702074CDE740460392B8478E
:1010A0002146304618F03AF9B4F90030039AB4F901
:1010B00002B0B4F904A0B4F9069002932146204688
:1010C00013F052FF029B2381A4F80AB0A4F80CA0ED
:1010D000A4F80E90CFE700000129024818BF0020B5
:1010E000704700BF587603001629024818BF002039
:1010F000704700BF4126000008290CBF20200020B7
:1011000070470068C3681B6A184713B580680C46AF
:1011100012F018FEB0F90420018922800A44013A35
:10112000B0F90630A280428963801344013B0190EC
:10113000E38001A812F014FE02B010BD0D4B1B6835
:1011400037B50546986D0C4612F0FCFDB0F9061057
:10115000B0F904300190ED1A641AC168AD0001FBCA
:1011600004541834044401A812F0FAFD204603B0D8
:1011700030BD00BF780A001008B508461146FFF7D9
:10118000DDFF006808BD0000154B1B6873B5986D46
:1011900015460C4612F0D6FD294600902046FFF772
:1011A000CDFF009B1B681B699B6806469847336808
:1011B00020F07F4043403360009B586950B112F0EB
:1011C000C1FD836801901B682A462146984701A803
:1011D00012F0C6FD684612F0C3FD02B070BD00BF3C
:1011E000780A001073B51E460F4B1B68986D0C46AD
:1011F000154612F0A7FD294600902046FFF79EFFF6
:10120000009B0660586950B112F09CFD8368019004
:101210001B682A462146984701A812F0A1FD68469E
:1012200012F09EFD02B070BD780A00102DE9F74360
:101230002B4C1E462368986D0F46154612F082FD12
:1012400000904069A04608B112F07CFD019029464B
:101250003846FFF773FFD8F80030009A197CC907A9
:10126000044621D513681B699B68984720F07F4886
:10127000019820B183682A461B683946984723683D
:1012800083EA08032360009B0135DB68AE421C44FF
:10129000EEDA684612F064FD019B13B101A812F06A
:1012A0005FFD03B0BDE8F083DB6BD2F80C80D3F8B0
:1012B0000090019B63B1019883682A461B683946F8
:1012C00001359847AE42C4F800904444F3DAE0E7B1
:1012D000751B0135013DC4F800904444FAD1D8E7AC
:1012E000780A00102DE9F04F294F1C463B6885B065
:1012F000986DDDF838908846154612F023FD294692
:1013000002904046FFF71AFF029B3A68D3F80CA000
:10131000D26B06465869D2F800B0A4EB0804013439
:1013200070B112F00FFDA9EB0503013300932A46BB
:10133000234641460390FFF70AFE03A812F010FD72
:101340004D4505DD02A812F00BFD05B0BDE8F08F9C
:101350003B681B7CDB0712D5029B1B681B699B68E3
:101360009847324620F07F4023461168013B81EACE
:10137000000142F8041BF8D156440135E0E7002C87
:10138000FADD23463246013B42F804BBFBD1F3E7CA
:10139000780A001007B50092FFF7A4FF03B05DF8CC
:1013A00004FB00002DE9F04F2DED028BA04C93B013
:1013B0000D46029323680890986DDDF884A0DDF84F
:1013C0008C800492002834D012F0BCFC109040694C
:1013D00008B112F0B7FC109B1190DB68069310A8BF
:1013E00012F0BEFC229B1198EB18039350B12368B6
:1013F0001B7C990706D41E9B0093DDE90312029B18
:10140000FFF7A5FDDDE90301FFF798FE1F9B172BF2
:10141000834667DD029BDFF820829B0008EE103ACE
:1014200000261E9B11989E4208DB10B111A812F0F5
:1014300097FC13B0BDEC028BBDE8F08F30B1836830
:10144000049A5C680399029BB218A047089B1B6929
:10145000DA6862B1D8F8003018EE102A51465846C2
:101460009847209B9A44069B01369B44D9E75B68CA
:101470004FF07F409847DDF80890030E05935D46D6
:10148000544600274B46A4465CF8041B059AB2EB71
:10149000116F059A4FEA116008BF0137824203F1CC
:1014A000FF3301D1002BEFD17FB1BA00214628468E
:1014B000D8F8003007929847079AA9EB0709154416
:1014C0001444B9F1000FDCD1CBE72068020E04D040
:1014D000584B29681B68984728600435043409F183
:1014E000FF39EEE71F9B102B36D1DDE902321344A2
:1014F0000025059328E0049BEE1834B1A3680399F6
:101500005F68029B32462046B847DDF80C90AAF18E
:101510000208ABF10407089B38F8020F1B695B68EF
:10152000984747F8040F2CB1A36832461B68494618
:1015300020469847059B09F101099945EBD1209B6D
:101540009A44069B01359B441E9B119C9D42D2DB15
:10155000002C7FF46BAF6CE71F9B082B6ED1039AB6
:101560006FF0030353430593029B13440026079334
:101570001E9B119C9E42EBDA049B9A192C4B1B6814
:101580001B7C03F00303B8F1000F2FD03BB1022BFB
:1015900012D0209B9A44069B01369B44E8E70299AF
:1015A00053465A46514413F8010B58F8200042F8AC
:1015B000040B9942F7D1ECE7059B039D0AF1FF3735
:1015C0000BEB030917F8013F5BB158F8233049F8DA
:1015D000253034B1A36808921B68294620469847F5
:1015E000089A079B0135AB42ECD1D2E7CBB1022B75
:1015F000CFD1059B039D0AF1FF370BEB030917F8C9
:10160000013F4BB149F8253034B1A36808921B68FB
:10161000294620469847089A079B0135AB42EED1F0
:10162000B7E7054B029A1B68514658469847B0E702
:10163000780A0010980A00101C0A0010B04BB8F18C
:10164000000F08BF9846229B9B000C93229B5B00D7
:101650000B9300230593059B1E9A934204DB119B79
:10166000002B7FF4E3AEE4E61F9B022B00F0AB807F
:10167000042B00F04B81012B40F09E80A14F3B6872
:10168000986D12F05FFB229B9F4A029E1090C3F15F
:1016900008049AF80030D55C229B1D413B681B7CF6
:1016A00003F00302022A1DD0DA075FD45B465146DD
:1016B000B44228BF3446361B2246184605F00107BF
:1016C000013A58F8277040F8047B4FEA5505F5D1E8
:1016D00003EB8403002E6CD011F8012F8A480824F4
:1016E000855CE5E7DDE90432DDF844900399CDF847
:1016F00024A09A18D8F8043007935F46B44228BF54
:101700003446361BB9F1000F2BD065B907EB8407BF
:101710002144002E4DD0099810F8013F09907A48D5
:101720000824C55CEAE7EB070AD5D9F808300D9222
:101730001B680A9148469847079B0D9A0A993B6097
:10174000013C01F1010107F10407E2D06D08DCE77B
:10175000E80744BF079B3B60013C07F10407D8D072
:101760006D08002DF4D107EB8407D2E7089B1B69B5
:101770009B689847574620F07F405946B44228BF9F
:101780003446361BA4460B46EA0742BF1A6842405D
:101790001A60BCF1010C03F104034FEA5505F3D1C3
:1017A00001EB84012EB117F8013F574A0824D55C9C
:1017B000E4E710A812F0D4FA209B9A44069B9B44BD
:1017C000059B013346E7229B9AF80050C3F10404BD
:1017D0000B9B9D404B4B1B681B7C03F00303012BB1
:1017E000E4B2EDB265D0022B20D0002BE4D1029BF5
:1017F000594650469C42C8BFDCB21B1B22460E46CF
:10180000AF09013A58F8277046F8047BAD0012F092
:10181000FF02EDB2F4D1013CE4B2013401EB8401EA
:10182000002BC9D010F8015F0424E3E7DDE904329E
:101830001198029F039ECDF81CB09A18CDF828A0ED
:10184000079BBC426FF00301C8BFFCB201FB06332B
:101850003F1B0D930994B14615F0C00F0ED0AB0994
:101860000D9958F8233041F8293038B183680F9228
:101870001B680E9049469847DDE90E02099B013B23
:10188000AD0013F0FF0309F10109EDB20993E3D1B3
:10189000013C0799E4B2631C01EB83030136079313
:1018A0002644002F88D00A9B13F8015F0A93042472
:1018B000C6E7029B5E4657469C42C8BFDCB21B1B74
:1018C0002246304615F0C00F18BF016802F1FF3202
:1018D0001CBF81F0FF010160AD0012F0FF0200F1BA
:1018E0000400EDB2EED1013CE4B2013406EB840613
:1018F000002B3FF461AF17F8015F0424DCE700BF61
:101900008C760300780A0010A4AC03000C9B9AF8B4
:10191000001099406C4B1B681B7C03F00303012BE8
:10192000CCB236D0022B62D0002B7FF445AF229B85
:10193000002B58D024095B4658F8242043F8042B88
:10194000029A9AF80140013A0AF10101012A18DDD0
:10195000551003F1080002F001024E19270904F0A6
:101960000F0458F8277040F8087C58F8244040F8D5
:10197000044C11F8014FB14200F10800EED103EB25
:10198000C503002A3FF418AF240958F824201A6030
:1019900012E7229B029AC3F10203DBB25E4657466E
:1019A0009342C8BFD3B2D21A1846354614F0C00FBE
:1019B00018BF296800F1FF301CBF81F0FF012960CA
:1019C000240110F0FF0005F10405E4B2EED1013B63
:1019D000DBB2013306EB8306002A3FF4EDAE17F8C5
:1019E000014F0223DCE7029A5B465146AEE7DDE990
:1019F00004239A18229BDDF84490002B33D011F079
:101A0000F00F0FD0240958F82430CBF80030B9F18A
:101A1000000F07D0D9F8083003991B680792484691
:101A20009847079A039B9AF801405D1C029B5F1E32
:101A30000AF101030BF104060793012F19DC002FB3
:101A40003FF4BAAE24093FF4B7AE58F824303360FF
:101A5000B9F1000F3FF4B0AED9F8083029461B6841
:101A600048469847A8E6029F039DCDF81CA05E4615
:101A7000E3E714F0F00F0ED0230958F82330336059
:101A8000B9F1000F07D0D9F8083009921B68294630
:101A900048469847099A14F00F040DD058F824309E
:101AA0007360B9F1000F07D0D9F8083009921B68AC
:101AB000691C48469847099A079B13F8014F0793FA
:101AC00008360235023FB8E7780A00102DE9F04FDA
:101AD0002DED048B99B009EE100A0193279B0D465A
:101AE00014464BB30CF0C2FFBC4B1B68996C6A18D0
:101AF0000392DA6C2799A3180C93039B289AADF8EC
:101B000058300C9B002AD8BF9B18039A013A0A440C
:101B1000ADF85C200199269A8A42B8BF0A469BB26A
:101B2000013AADF85A3016A81344ADF85E300BF008
:101B30000FF830B90CF090FF19B0BDEC048BBDE884
:101B4000F08F279B269A5B100D93019B9B1A289A76
:101B50009B1A119319EE100A12F0F4F8B0F908303C
:101B6000049303EBD3735B100593049B0693039BD1
:101B700002930023159007930023059A27990A449E
:101B8000069905928A4203F10103F6D3079A1A4493
:101B900007920123049A0893069B13440693DDE9F8
:101BA0000532934280F0CC80DDE902320D990D9828
:101BB0009B1A289A03FB0212279992FBF1F20A92D0
:101BC0000A99019A521A119903FB0103279993FB71
:101BD000F1F3D31A0F93159B019AB3F90860079B91
:101BE00003F1FF39269B93427CD0C7BF269FDDF8C7
:101BF000048017469846A7EB080006FB06F307FB90
:101C000006FA9AFBF0FA00FB003007EE900AF8EEB5
:101C1000E77AD8BFA6EB090917EE900AD4BF4FF0B8
:101C2000000B4FF0010B31F026F841EC100B31F0B6
:101C3000C7FD08FB08F8AAEB060000FB008007EED2
:101C4000900AF8EEE77A55EC104B17EE900A31F057
:101C500012F841EC100B31F0B3FD07EE90AA51ECF5
:101C6000100BB8EEE78A31F022F807EE906A07EE23
:101C7000100AF8EEE77A2046294667EE878A31F0A7
:101C800016F807EE900AC8EEA77AFDEEE77A17EE8F
:101C9000903A3B444B4407EE903AF8EEE77A87EEF1
:101CA000887A07EE907AF8EEE77AC7EE886A77EEE0
:101CB000667AF5EEC07AF1EE10FA00DC12D507EE86
:101CC000109AF8EEC76A86EEA77AFDEEC77A17EE8D
:101CD000909ABBF1000F01D1A6EB09094E45D8BF80
:101CE00006F1FF39159BDDF80880B3F908304B4544
:101CF000D8BF03F1FF39089B43441093159CB4F9F6
:101D00000A300B93354B1B68587C0EF021F80E906F
:101D1000C8B9109B08F101084345EFD1029B089A0E
:101D200013440293079A049B93423FF725AF15A8EB
:101D300012F016F80AF05AFE00287FF40BAFF9E60D
:101D4000089B013326E70B9BDDF830A0099303EBDA
:101D5000D3767610002500230F9A1644099A9642EE
:101D600012D31D440127099B0B9A13449E420993E9
:101D70000CD2B4F90A309D420ADBB4F90A300135BD
:101D80009D42BA44E7DBC4E70133E5E70137EAE700
:101D9000B4F90420B4F90630E168A9EB020204EBBF
:101DA0008202EB1A01FB03239B69129318460E9BD8
:101DB0009847129B190E8346DFD0FF29CAB21DD166
:101DC0003B46013BD9D30A9A1293991851445A467B
:101DD00040460DF067FA129BF3E700BF780A001047
:101DE0000A99594451444046CDE912230CF02CFD88
:101DF000DDE91223BBF1010BF2D2BEE7BB46F9E7E6
:101E00002DE9F04F2DED028BA54D93B004460CF05B
:101E10002DFE2A6893680D93D36808930CB9946DCE
:101E20007CB3204611F08EFF002311932B68109095
:101E30009B6D204608EE103AFEF744FC2046FEF764
:101E4000B9FB08282AD9112834BF4FF002084FF0F7
:101E500004080DF037FF08280590034621D9112802
:101E600034BF0223042300200293FEF72BFC029BC5
:101E7000984518D210A811F073FF18EE100AFEF75B
:101E800021FC874B0D9A1B689A60089ADA600CF067
:101E9000E3FD13B0BDEC028BBDE8F08F4FF00108FD
:101EA000D7E70123DFE7109AB2F906305089B2F97B
:101EB000045014891844013802B223EAE3732C4415
:101EC000039207930DF0EEFE013C24B2A04225EAF6
:101ED000E57503DC0DF0E6FE013804B20DF0EAFE14
:101EE000039B984204DC0DF0E5FE013803B2039336
:101EF000109B586908B111F025FF11901098DFF878
:101F0000A091B0F90410B0F90620DFF898A10029DB
:101F1000B4BF49420021002AB4BF5242002217F048
:101F200009FB079B069004931E46A4EB050B039B3D
:101F3000B3424CDA119B13B111A811F011FF109BA1
:101F40001B681B695F68D9F80030587C0DF0F0FE03
:101F50000646002F8ED000288CD087428AD0B8F158
:101F6000040F87D1641B671CBB0006937B000C9396
:101F700063100B93A3100A93E310E443099304F056
:101F800001030E93DDE903329342FFF673AF002F96
:101F90005EDD049B079A10989A1A00210F9217F0A1
:101FA000C9FA069B0F9AC518029B022B00F0B0805D
:101FB000042B00F0BE80012B4AD1059B013B072B6F
:101FC00046D8DFE803F02349457145454595D9F8E2
:101FD00000305B7C5AF823300193069B009328461F
:101FE00033462246314612F05DFC119838B18368C1
:101FF0005B6832461F4629460BF10103B847109B28
:10200000069ADB681A440692013690E71098002180
:1020100017F090FA099B04F0070800EB0309BA4691
:102020004FF0010B99F800000BFA08F3184040FA42
:1020300008F0C0B2B04708F1010828F00703BAF170
:10204000010AA9EBE80945F8040D48FA03F8E9D1BB
:10205000049B0133049395E71098002117F06AFA66
:102060000A9B04F0030800EB0309BA464FF0030B88
:102070004FEA480399F800000BFA03F210401841A8
:10208000C0B2B04708F1010828F00303BAF1010A11
:10209000A9EBA80945F8040D48FA03F8E8D1D7E7F9
:1020A000780A0010742244A01098002117F042FA18
:1020B0000B9BDDF8388000EB0309BA464FF00F0B9D
:1020C0004FEA880399F800000BFA03F21040184118
:1020D000C0B2B04708F1010828F00103BAF1010AC3
:1020E000A9EB680945F8040D48FA03F8E8D1AFE711
:1020F0001098002117F01EFA00EB070808EB0409FE
:1021000018F8010DB047C84545F8040DF8D19FE710
:102110001098002117F00EFA0C9BB94600EB03084B
:1021200038F8020DB047B9F1010945F8040DF7D1AF
:102130008EE71098002117F0FDF9069BB94600EBD9
:10214000030858F8040DB047B9F1010945F8040D2A
:10215000F7D17DE7014B1860704700BFFC1E44A01B
:102160002DE9F04F87B005469246984602910CF053
:102170007DFC544B03931A68547C534A1257012A2E
:1021800020463EDD0DF063FD814620460DF062FDE8
:102190000446002D3CD004A805A912F0BDFE049809
:1021A000B5F90070B5F90260B5F9042081440598CD
:1021B0000444B5F9060027EAE77726EAE67609F14E
:1021C000FF39013C9145D4BFC7EB0909C7EB0209B0
:1021D0008442D4BFC6EB0404C6EB000409F1010934
:1021E0000134B8F1000F01D1C4F10008B9F1000FBA
:1021F00001DD002C0FDC0CF02FFC002007B0BDE847
:10220000F08F0DF02AFD814620460DF029FDBFE735
:102210002E462F46E5E7109B00934A46434631463B
:102220003846FEF703FA054630B95046029B9847F8
:102230000CF012FC0120E1E717F0D2F9844283464A
:1022400006D0039B1B68586C10B132210BF0D5F9F6
:102250002846FEF737FAA1464FF00008CB4503DDCC
:102260004946284617F0D6F9B8F1000F08D028469D
:1022700006EB0802394617F081F9284617F0E6F90F
:10228000029B50469847114B1B680BB1FF209847A3
:102290002846D844FEF78CFA4445A9EB0B09DDDC4F
:1022A0002846FEF79FF90020FEF70CFA5C45A2D005
:1022B000039B1B68586C00289DD033210BF09DF9BF
:1022C00099E700BF780A0010732244A0FC1E44A0C6
:1022D000B0F90030C91AB0F9023010B50469D21A49
:1022E000CB1004FB02321432802301F0070143FAC1
:1022F00001F1835C1943815410BDB0F9063093425B
:10230000F0B5074644DD0C68B0F90460B4423FDA2A
:1023100005696A4302F1140303EBE403C518FB5C8F
:10232000013E04F00702F6109340A6EBE4000135ED
:10233000DBB22BB11F060BD5FF2B1ED1E21D10E027
:1023400028B3083415F8013B013824F00704F0E7FE
:102350005B00DBB20134EDE75B00DBB201325E060D
:10236000FAD402F00703072B0ED101380CD415F86C
:10237000013BFF2B06D10832F7E72246EFE75B006F
:10238000DBB201321806FAD4101B0C600130F0BD2C
:102390000020FCE711F038BDB0F9063002690021D9
:1023A0005A43143032F03BB82DE9F041B0F9004007
:1023B000A1EB040CB0F9041061451FDDB0F9026017
:1023C000921B0669634456435D1E5C4206EBEC06B5
:1023D0001436FF21ED100CF0070704F0070441FA52
:1023E00007F701FA04F4B5EBEC05835D00EB060892
:1023F000FFB2E4B204D127401F438755BDE8F08106
:10240000013D1F43002D875508F1010804DD4046BA
:102410002A4632F004F8A84498F800301C4388F8A3
:102420000040EBE72DE9E74702F10F052D116D00A4
:10243000824603FB05F01430894690461F4611F092
:10244000D1FE0646B0B10CF011FB304611F07AFC1B
:102450000A4B8360012301908381A0F800A0A0F8BB
:102460000290A0F80480C780056101A811F078FCF3
:102470000CF0F2FA304603B0BDE8E087CC760300FA
:1024800070B50F4C25680C68B5F90C600444013C2C
:10249000A41B002CC8BF001B10600C68B5F9080015
:1024A000A04209DD001B18600C6820440860116818
:1024B0001B68C91A116070BD00221A60FBE700BFDB
:1024C000780A001070B50F4C25680C68B5F90E60DD
:1024D0000444013CA41B002CC8BF001B10600C6806
:1024E000B5F90A00844209DA001B18600C68204420
:1024F000086011681B68C91A116070BD00221A605B
:10250000FBE700BF780A00102DE9F04F95B0CDE948
:102510000C211E46804611F015FC0368B0F90870C6
:102520001B69B0F90A505B680E900EA8079311F072
:1025300017FC404B1B685A7C3F4B53F82200C36882
:1025400008219B6A98471728044665D8032808BFC6
:1025500008247368089300203368099315F0E0FBA2
:10256000002856D10FAB11AA0DA93846FFF788FFF6
:10257000119B002B4DDD10AB12AA0CA92846FFF7CA
:10258000A1FF129B002B44DDDFF8B0A0119B0A9342
:10259000DDE90C1BDDE90F9540460B91FEF7EBFCE6
:1025A00013AB07FB05950193079B009300EB850296
:1025B0000A9B0B99584615F0D5FA054648B3089B77
:1025C00053450FD01199334622460BF0A5FF48B969
:1025D000D6F810B0BBF1000F20D004233A462946AC
:1025E0002846D8470C99119A0D984B1C0C93002340
:1025F000CDE90453CDE902430123CDE900330CF0CA
:1026000089FC109B01331093129B013B1293002B0A
:10261000BCD115B0BDE8F08F20249AE7A946BB468F
:10262000D9F80000099B9847BBF1010B49F8040B4E
:10263000F6D1D7E7780A0010742244A0FF440100C5
:102640002DE9F043414C424B2668757C53F825C078
:10265000404DDCF81030D5F800E08FB0CDE9062110
:102660000746BEF1000F04D1FFF74EFF0FB0BDE8E3
:10267000F083DCF80C20B16D126839B9B2FA82F23D
:10268000520952B9DDE906213846EDE7072AF9D0AB
:10269000314A991A4A424A41F3E7384611F052FB4F
:1026A000B0F90880B0F90A90C6680C900CA811F037
:1026B00057FB0AAB08AA07A94046FFF7E1FE089BB3
:1026C000002BD3DD0BAB09AA06A94846FFF7FAFE9B
:1026D000099B002BCADD3846FEF74DFCDDE90A13E5
:1026E00003FB081300EB83012368986DF0B1DDE96B
:1026F0000647059111F026FBB0F90630D0F80C80A2
:102700000D90E41AB0F90430FF1ABF0008FB0474FE
:10271000183404440DA811F023FBCDE90086DDE94F
:1027200008232D6805992046A8479FE7587C4FEA63
:1027300088030293099B0193089B0093074B1C6835
:102740000B46DDE90621A04790E700BF780A00109C
:10275000742244A0C82244A038B50300C42244A077
:10276000024B1860024B1960704700BF001F44A065
:10277000041F44A02DE9F7431C4605460E461746A4
:102780000AF052FE002C04DA4FF0FF3003B0BDE82F
:10279000F083A042F8DD002DF6D0F06C05F000F9D2
:1027A000B36E8146E3B9B56D6D4200244C45EBD064
:1027B0002146F06C05F0CFF9D0F80080019001A817
:1027C00011F0CEFAB36E1BB1A34204BFB36DED1A84
:1027D000BD4205EB080305DA9F4203DA2046D5E740
:1027E0000025E2E701341D46E0E7000010B50020B7
:1027F00011F050F9044C18B12068002111F098F83C
:102800000023236010BD00BF0C1F44A02DE9F0433E
:1028100087B01446DDF8388006460F461D460CF09A
:1028200025F974B96EB9002F5BD104A940460BF0AD
:1028300013F9BDF91060BDF91440BDF91270A41B65
:10284000013475B907F018FA274B8146186812F061
:1028500089FB264B1D68D9F8003000EB450505EBD8
:102860004305129B44330393214B02930F9B43F484
:102870002073CDE9008339462B462246304609F0C5
:1028800031FF074638B305F077F90446384611F0B2
:1028900059FA154E04901199C464002207F098F873
:1028A0000FCE049C04F134050FC533682B604FF044
:1028B000FF33104D2366C4E914330123002284F84A
:1028C0006D302B68A364A26504A811F049FA2B6847
:1028D00038465B6898470CF0BFF8384607B0BDE84B
:1028E000F0833446ADE700BF50060010081F44A037
:1028F000492D00006806001010B586B0002404942D
:102900000B9C03940A9C0294099C0194089C0094DB
:10291000FFF77CFF06B010BD37B50D460446C0B1C9
:10292000002916DB0CF0A2F8204611F00BFA836D9B
:102930000190AB4208D08565204609F0AFFE2046E5
:102940000BF0CEF809F0AAFE01A811F009FA0CF07C
:1029500083F803B030BD00002DE9F0470D4686B086
:1029600014469946064600284DD00CF07FF83046B4
:1029700011F0E8F9D0F84C800090002C46D0254B9F
:1029800020461B689847074695B9009B586B12F084
:1029900097FC8246204614F07BFC009B1E4ADB6AB3
:1029A00015681B682B4400EB4305504612F088FC69
:1029B0000023684602950493ADF80C9011F0D0F90D
:1029C000404604F0EDFF07F11102054602A940461A
:1029D00004F0F3FFA8B92946404605F0BCF8019081
:1029E000B7B10E4B21461B680C30984701A811F077
:1029F000B7F9304609F052FE30460BF071F809F095
:102A00004DFE0CF029F806B0BDE8F0872746BBE77D
:102A10000773EBE72C0A00104C060010280A001080
:102A2000F0B50E4687B01546044678B3002A2DDB74
:102A30000CF01CF8204611F085F9C76C0090684630
:102A400011F08EF9384604F0ABFF86421CD23146B5
:102A5000384605F080F80190D0B1056001A811F06A
:102A60007FF920460BF03CF8252303902046029383
:102A7000049409F013FE039802A90AF093FD20467E
:102A80000BF02EF809F00AFE0BF0E6FF07B0F0BDE0
:102A900001A811F065F9F7E707B5034688B1694663
:102AA0000AF0CAFEBDF90220BDF900106846524284
:102AB000494212F084FABDF90630BDF902001B1A32
:102AC0000133184603B05DF804FB37B50D460446E4
:102AD000C8B10BF0CBFF204611F034F90190C06C67
:102AE00004F05EFF854211D2019B2946D86C05F0A7
:102AF00032F804680090684611F032F901A811F02C
:102B00002FF90BF0A9FF204603B030BD0024F5E7F4
:102B10002DE9F04F89B00446884615469A4611F0D3
:102B200011F990F86D60049004A811F019F9002EC5
:102B300000F0A480204611F005F9049007462046D5
:102B40000AF072FC002DC0F2F380854280F2F08022
:102B5000002C00F0ED80F86C04F022FFBD6E83467F
:102B600005B1BD6DA8F104010023009108F1040135
:102B70001A464FF0FF3901919B4536D01946F86C43
:102B80000293039204F0E7FF0668069006A811F08E
:102B9000E7F8029BB86E83422E4403F1010170D323
:102BA000039A18B1834204BFB86D361A964235466F
:102BB000164668DB009AAA4265DC019AAA4262DBEB
:102BC00099460BF1FF3399455DD2A8455BDAF86C65
:102BD000039104F0C0FF0368069006A8029311F069
:102BE000BFF8DDE90231002B4DD1BAF1010F4DD014
:102BF000BAF1000F54DD049B04A8D3E9145611F078
:102C0000AFF8B9F1000F11DB4D4F0121204608F05C
:102C100027FE396851B90846009110F03BFF009932
:102C200020B1484B186810F083FE3860002D6FDB30
:102C3000A8456DD0BAF1010F6AD131462046FFF7A1
:102C400044FF00EB0802521B10D431462046FFF728
:102C5000E7FE204611F076F890F86C60D0F85490BA
:102C6000059005A811F07CF8FEB94546204611F004
:102C700069F80490056504A811F072F809B0BDE880
:102C8000F08F354696E70B46324675E7B9F1000FEF
:102C9000B1DB049B1A6D0132ADD1C3E91489AAE7F7
:102CA000049B4FF0FF321A65A5E7204606A90AF0FB
:102CB000C3FD2046BDF91C700AF012FF40B120464A
:102CC0000AF00EFF0AF082FF10B10AF093FB3F1AE0
:102CD0000026B246D14504DABE42C6DD0026B04623
:102CE0000EE051462046FFF7F0FE0AF1010A0644C5
:102CF000F0E741462046FFF7E8FE08F101080644E8
:102D0000C145F6DCBA1B49462046FFF789FEADE710
:102D1000BAF1000FAADCB9F1FF3FA7D1084B1B683D
:102D20000BB1FFF763FD08F0B1FD4FF0FF359DE7F4
:102D3000BAF1010F4FF0FF397FF45AAF5BE700BFE4
:102D40000C1F44A064060010F7B544680546014610
:102D5000204606F098FE20B30BF088FE2B68112B5E
:102D60000ADC0A2B0BDD0B3B062B08D8DFE803F04F
:102D7000600707070B4C1B00B3F5107F28D02846CF
:102D80000AF0C0F80BE0204610F0DCFF836C0190E5
:102D90001D6801A810F0E4FF0DB12046A8470BF014
:102DA0005BFE03B0F0BD204610F0CCFFEA68019056
:102DB0001389B3F5807F064606D10146D2E9002388
:102DC0002046FFF7D7FCF06501A810F0C9FFE6E741
:102DD000204610F0B7FF866D019001A810F0C0FFEB
:102DE000ED687DB129682B7A6A6831442046FFF787
:102DF0008FFE2B7A002B14BF0121022120460BF0FD
:102E000011F8CCE70321F9E7204610F09BFF866D0F
:102E1000019001A810F0A4FFEA68002ABFD0116851
:102E200052684FF0FF3331442046FFF771FEB6E79A
:102E3000204610F087FFC66C0090684610F090FFA7
:102E4000304604F0ADFD00240746A74209DC3046B9
:102E500004F0F6FD0A4B1B68002B90D0FFF7C6FC70
:102E60008DE72146304604F076FE0190806808B177
:102E700010F0CAFF01A810F073FF0134E5E700BFAE
:102E80000C1F44A013B5044670B10BF0EFFD2046B3
:102E900010F058FF0190C06C04F082FD044601A8B8
:102EA00010F05EFF0BF0D8FD204602B010BD73B5E8
:102EB0000E4615460446A8B10BF0D8FD204610F08A
:102EC00041FF036E0190B34202D1436EAB4204D086
:102ED000C0E91865204609F0E1FB01A810F040FFA9
:102EE0000BF0BAFD02B070BD13B5044658B10BF03B
:102EF000BDFD204610F026FFC46D019001A810F022
:102F00002FFF0BF0A9FD204602B010BD37B50C46CF
:102F1000054678B10BF0AAFD284610F013FF003CDF
:102F200018BF0124019080F86C4001A810F018FF30
:102F30000BF092FD03B030BD30B5456887B0044654
:102F40000146284606F09FFD002860D023680F2B1D
:102F50001FD0B3F5107F0CD00B2B14D1284610F0E6
:102F6000F1FE04904C3011F0FCF804A810F0F8FECB
:102F700009E0E3685BB11B7A002B14BF0121022139
:102F800028460AF04FFF204609F0BCFF3FE003212E
:102F9000F6E7284610F0D6FE0290806B0CF07CF924
:102FA000029B586B12F08CF9284608F007FD28B9EF
:102FB000029BD86B0CF06AF911F010FD029BDA6CE1
:102FC00012B3986C12F041F9022012F0CDF904A866
:102FD0000AF040FC029B04A8B3F95420B3F9521044
:102FE00011F0EDFF029BD86C10F0ACFE029903903B
:102FF00091F84030B1F95020496C009104A913F0C8
:10300000BFFF03A810F0ACFE02A810F0A9FE07B0A5
:1030100030BDF0B585B00446019115460BF026FD94
:10302000204610F08FFEC36C029002A8039310F0AC
:1030300097FE019903A80BF081FC00280CBF012723
:10304000002716D0204610F07DFE039BC26C029034
:103050009A421ABFC3640126002602A810F080FE1F
:103060003EB135B120460E210AF0DCFE204609F0C3
:1030700015FB0BF0F1FC384605B0F0BD70B58AB019
:10308000CDE90610CDE90432129C0BF0EFFC139D44
:103090002C350395214D02950F9D45F001050195B5
:1030A0000E9D0095DDE90432DDE9061009F01AFBFA
:1030B000064660B3002C2FD0194B20461B6898475A
:1030C000013011F08FF8054648B110F03BFE154B6A
:1030D00009901B682146984709A810F041FE304628
:1030E00010F030FE11990990002206F071FC099C45
:1030F000109BE5640C4DA4F850300FCD34340FC450
:1031000095E8030084E8030009A810F029FE0BF0FD
:10311000A3FC30460AB070BD2546E0E7392F000019
:103120002C0A0010280A00106C060010F0B587B0B9
:103130001E468369B0F90C70B0F90A5005934368D4
:103140000493B0F908300393438A02930223CDE934
:1031500000131446B0F91030B0F90E20B91928192F
:10316000FFF78CFF07B0F0BD37B50D46044688B1B8
:103170000BF07CFC204610F0E5FD436B0190AB4268
:1031800003D04563204609F089FA01A810F0E8FD54
:103190000BF062FC03B030BD10B10122FFF739BF64
:1031A0000120704737B50D46044688B10BF05EFC30
:1031B000204610F0C7FD836B0190AB4203D08563BE
:1031C000204609F06BFA01A810F0CAFD0BF044FC90
:1031D00003B030BD37B50D46044698B10BF046FC40
:1031E000204610F0AFFD90F840300190AB4204D083
:1031F00080F84050204609F051FA01A810F0B0FDC7
:103200000BF02AFC03B030BD37B5456F002D0446E6
:103210000BDBD0F8B80040B110F094FD838800902B
:1032200033B9656F684610F09BFD284603B030BD8A
:10323000006810F087FD636F019030F8135001A80B
:1032400010F08EFDEEE7000037B5054610F07AFD70
:10325000D0F8B8400090684610F082FD24B91420E0
:1032600010F0C0FF0446C0B1284610F06BFD00907E
:10327000C0F8B840204610F065FD009B01904FF06B
:10328000FF32C3F88020064BC360064B836001A861
:1032900010F066FD684610F063FD03B030BD00BF5E
:1032A0000D3300002D33000070B586B00D46044686
:1032B00010F048FDD0F8B820039003A8019210F058
:1032C0004FFD019AEAB1104610F03CFD868804904B
:1032D000006810F037FD00210590B14207DA30F8A0
:1032E0001120AA420BD10022204607F0B2F905A80E
:1032F00010F036FD04A810F033FD06B070BD0131AA
:10330000EBE72946204607F0A4F9F6E713B5044693
:1033100010F018FD0190006810F076FD01A810F083
:103320001FFD204610F070FD02B010BD2DE9F04FDA
:103330008BB0054610F006FD90F8BD30079013B134
:1033400090F8BC3013B9D0F8B80030B907A810F025
:1033500007FD00200BB0BDE8F08F10F0F3FC079BD9
:103360000890D86B04F01CFB089B044607989F88C4
:10337000FFF74AFFBC4206461ED0089B07A8D3F8B9
:10338000008010F0EDFC08A810F0EAFC6100B8F134
:10339000000F34D1084610F025FF8046002800F0C9
:1033A000C580284610F0CEFC0790D0F8B80010F089
:1033B000C9FC0890C0F80080089B186810F0C2FC97
:1033C000079A099092F8BD3033B3BC421BDC089BCE
:1033D000012C9C8028DC079B40F20112A3F8BC2042
:1033E000089A586B127CD3F88010FFF760FD09A88B
:1033F00010F0B6FC07A810F0B3FC08A8A7E74046F9
:1034000010F00CFFC9E7002382F8BE3020F81770D7
:103410000137BC42FAD1DAE782F8BE30A342D6DAED
:1034200020F813300133F9E792F8BE30ABB1A3B204
:10343000C4F34E0400EB430300EB4404A042A3F1A9
:10344000020304D131462846FFF72EFFC3E7028866
:10345000198820F8021B1A80F0E7631E0193019C73
:103460004FF00009013C4FEA4408099B08F10207AC
:1034700033F8141033F807B0079BD86B04F06BFBDC
:10348000029028B1079B0068D3F8801004F063FB1A
:10349000049002A810F064FCDDF810A0BAF1000F4F
:1034A0003ED004A810F05CFC079B5946D86B04F092
:1034B00052FB039028B1079B0068D3F8801004F0FA
:1034C0004AFB059003A810F04BFCDDF814B0BBF1EB
:1034D000000F25D005A810F043FC079BD3F88010FF
:1034E000186C04F038FB0690D0B143680BF104016E
:1034F0000AF104009847824606A810F031FC089BA8
:103500001B7C0BB1CAF1000ABAF1000F08DD099B60
:1035100033F80820D95B23F80810DA534FF001097B
:10352000002C9FD1B9F1000F99D18BE7012011E751
:10353000024B0A461B68014610461847240A001031
:10354000F0B585B0CDE902010023CDE9003302AA30
:103550006B4602250A2752F8041B91F900002D281A
:1035600025D1013142F8041C012652F8040C05E073
:103570000125F0E71C6807FB0411196010F9011B15
:1035800011B130390929F5D942F8040C16B119687E
:1035900049421960012D03F10403E9D1DDE900235B
:1035A0009A4206DCB4BF0120002005B0F0BD002621
:1035B000DBE74FF0FF30F8E773B50D4616460446DB
:1035C000C8B10BF053FA204610F0BCFB0090204627
:1035D00007F052F9854209DA009B2946186C04F07D
:1035E000BAFA0190466001A810F0BAFB684610F0E4
:1035F000B7FB0BF031FA02B070BD37B5044680B1AD
:103600000BF034FA204610F09DFBD0F8B850019032
:1036100001A810F0A5FB15B92046FFF715FE0BF029
:103620001BFA03B030BDF0B50C4685B01646054612
:1036300018B90124204605B0F0BD07F01DF9A042DD
:10364000F7D90BF013FA284610F07CFB21460190C5
:10365000006C04F080FA039001A810F081FB039B3A
:103660005F6803A810F07CFB0FB32846FFF7ECFD62
:10367000284610F067FB0190D0F8B80010F062FB0C
:10368000029090B1019BC3F880400024067483F837
:10369000BC40284606F0B0FC02A810F061FB01A86F
:1036A00010F05EFB0BF0D8F9C4E70124F4E7012425
:1036B000F8E700002DE9F04F426A87B00446002A7F
:1036C00050D0BE4BD168BE4D002908BF1D4643688F
:1036D0000A3B0A2B46D8DFE813F0B7014500450046
:1036E000450045000B004500450045007F00750181
:1036F0001269AB6A28696E6A002A37D02169A76906
:103700007F1ABE1BF61A06EBD67601EB6606F71893
:1037100007F1FF3811F0A5FD31466069424611F00E
:10372000A1FE6169E2690131304611F0FDFE01360A
:103730006869023F11F095FDE0693A46314611F0A3
:1037400091FE6169E2690131404611F0EDFEA86920
:1037500011F087FDE3696169013B3A46013130466A
:1037600011F00AFF002007B0BDE8F08F6269E1693F
:10377000891A891BC91A164401EBD171013606EB6F
:103780006106F71807F1FF3811F06BFD314620692B
:10379000424611F0C9FE2169A2690131304611F09B
:1037A00061FE686911F05DFD0136BB1E1A46A06915
:1037B0000393314611F0B8FE2169A26901314046F8
:1037C00011F050FEA86911F04CFDA2692069039B1D
:1037D000013A31460130C3E7166813696F6A2868F9
:1037E0000136761006F1FF38002B72D0A269D71B84
:1037F00007F1FF3911F035FD6169A9EB060B0BF1FB
:10380000010A8B19013B4A46504613F02BF8E16937
:103810008B1B01334A46504613F024F8D4E90410B8
:103820005A4611F01FFE2169E0695A4611F01AFE4E
:10383000D4E90401E26911F077FE686811F011FD26
:1038400061698B19BA1E013B01315046039213F096
:1038500009F8E169039A8B1B01330139504613F0D3
:1038600001F8D4E904105A460131013011F0FAFD93
:103870002169E0695A460131013811F0F3FDD4E9BC
:103880000401E2690131013A013011F04DFEEA68AC
:10389000E3690192D4E90401AA680092023B52460E
:1038A000023102300EF0B8FDE86811F0DAFC0225B2
:1038B0004545BFF657AFE2696169921B31442A441E
:1038C000491BA9EB0500013A013111F02DFE01352C
:1038D000EEE761690F4407F1010911F0C2FC2269AA
:1038E00009EB060B0BF1FF3A901953464946013894
:1038F00012F0B8FFA269901B53464946013012F0FE
:10390000B1FFE2692069594611F00EFEE269A06933
:10391000594611F009FEA2692169E069013A0131B5
:1039200011F0A0FD686811F09CFC22699019B91C87
:10393000534601320138039112F094FFA2690399B2
:10394000901B5346013A013012F08CFFE269206966
:10395000013A5946013011F0E7FDD4E90602594613
:10396000013A013811F0E0FDA2692169E069023AEB
:103970000231013811F076FDE96820690191D4E93E
:103980000623A9680091023B023A514602300EF02C
:103990000BFDA86811F065FC02254545BFF6E2AEB7
:1039A000A2692169921B31442A44491B09EB050095
:1039B000013A013111F056FD0135EEE7B006001075
:1039C000840600101669E869FEB111F04AFCD4F8CB
:1039D00024800027D8F80460B742BFF6C3AED8F8F9
:1039E00000006369A269696A00EBD07003EB6000B4
:1039F000D8F80830511A7B43013E013193FBF6F3AE
:103A0000184411F02FFD0137E4E711F02AFCD4F837
:103A10002480D8F80470BE42BFF6A4AED8F80000E7
:103A2000236961696A6A00EBD07003EB6000D8F823
:103A300008300A447343013F013A93FBF7F31844FB
:103A400011F072FD0136E4E70068012102F0FFFB8E
:103A500000283FF487AE286A11F003FC2369ADF813
:103A600010306369ADF81230A369ADF8143000214D
:103A7000E369ADF8163004A811F02EFE72E600BF1F
:103A800037B50C4610F05EF903880090A3421AD9AE
:103A90004568C5B10AF0EAFF284610F053F90190D5
:103AA00000EB840010F05DFB0099019A0B88013B4C
:103AB000A5009BB20B802A449C4209DB01A810F0B0
:103AC0004FF90AF0C9FF684610F04AF903B030BD5B
:103AD000516842F8041B0134EEE7000030B58FB0A6
:103AE000044610F02FF9438E056C0190C3F3C00318
:103AF0000293074B836401A810F032F90023CDE94B
:103B0000044302AB0D9304A8A8470FB030BD00BF1B
:103B1000153B00002DE9F04792B007460C4610F027
:103B200011F903460190D0E9000104AD85E80300D6
:103B30005A8EBDF91400BDF91610BDF91060BDF91B
:103B400012801B6C12F0080FC2F3C00202924FF0F9
:103B5000190208BF8446CDE9087218BF8C4602AA34
:103B6000CDE90E011192CDE90C68C4F818C008A87F
:103B70009847019BB3F93020FF2A074612D1986974
:103B80000AF024F870B106A90AF068F8BDF91C30F3
:103B9000BDF914209A4202BFBDF8183003F1FF337B
:103BA000ADF81430019BB3F93020FE2A12D1986988
:103BB00009F0FEFF70B106A90AF050F8BDF91E30F9
:103BC000BDF916209A4202BFBDF81A3003F1FF3347
:103BD000ADF81630C8F100027142284611F0EFF935
:103BE0000198294603F047F9BDF91020BDF914905A
:103BF000019BA9EB0209D3F84CA0586D09F101060D
:103C0000A6EB4706514670430AF054FD154BC4F825
:103C10001490B3F900305A1C82420546A8BF9D1C7F
:103C2000BDF9103023607B1E6360019BB542D3E970
:103C30001401A8BF3546A6EB05083E44AAEB0101D6
:103C4000266100FB08F00AF035FD3844A0602844E6
:103C50000138E060C4E9078501A810F081F812B0CE
:103C6000BDE8F087C208001070B598B0064610F0A5
:103C700069F8836D0493438E056C0090C3F3C00311
:103C800005A9044630460393FFF744FF684610F049
:103C900067F801A9204605F073FEBDF906301393BD
:103CA000BDF90A30159303AB179308230F93059BB7
:103CB0001293069B14930E960EA8A84710230F93F9
:103CC000069B01331293079B013B14930EA8A84750
:103CD00011230F93089B01331293099B013B14930B
:103CE0000EA8A84713230F93079B1293089B1493C6
:103CF0000EA8A84709230F93099B12930A9B1493BC
:103D00000EA8A847DDE90A32934206D00C21013300
:103D10000F91129314920EA8A84718B070BD00001E
:103D2000034B044A1A60044BDA68D86010467047A7
:103D3000C4080010DC060010B008001037B5456854
:103D400004460146284605F09EFE80B123680B2BF1
:103D50000FD00F2B17D128460FF0F4FF436E0190C0
:103D60001C6801A80FF0FCFF0CB12846A04703B067
:103D700030BD28460FF0E6FF0190383010F0F1F921
:103D800001A80FF0EDFF204609F0BCF8EFE713B5EE
:103D9000446C836C42630191121B64214A431B1BD8
:103DA00001A992FBF3F00BF0A3FA019B5A1C0192BC
:103DB00025221A70019B00221A7002B010BD806B80
:103DC0000FF0C0BF2DE9F041B0F90030B0F9044068
:103DD000B0F90660E41AB0F9023007461046F61A48
:103DE0000D4613F055FA804611F07AF8B7F84020E6
:103DF000FB6A02F00302012A1B6804F1010406F1C8
:103E000001061DD0022A20D1A4EB080404EBD474CF
:103E100064102C80BB8F2A881A4493B2361AFA8F0A
:103E20002B8006EBD67602EB660296B201385A1E5C
:103E30006E8002EB08030644AB80EE80BDE8F081A3
:103E4000DB431C44A4EB0804E3E72B80E2E730B536
:103E500090F86830C26A13F0010519BFB0F9063056
:103E6000B0F90240B0F90430B0F9004012681B1BF1
:103E7000D0E91140A142B8BF214601338142A8BF19
:103E80000146A3EB420335B1411A5943001B91FB94
:103E9000F0F0104430BD091BF7E700002DE9F043B6
:103EA0008BB0CDE90610CDE904320AF0DFFD169C97
:103EB000403403942A4C0294139C0194129C009465
:103EC000DDE90432DDE9061008F00CFC06460028A6
:103ED00040D0052010F086F9804600283AD03046C0
:103EE0000FF030FF00221599DFF88090089005F060
:103EF0006FFD1C491C4D304605F0C4FE089FD9F8E3
:103F000000307B660FCD07F14C040FC495E8030029
:103F1000022384E80300A7F8403000246423C7E9A3
:103F20001143149B87F86830C7F8388040460FF07B
:103F300009FF2246014609900898FFF728FF09A8C3
:103F40000FF00EFF08A80FF00BFFD9F80030304635
:103F50005B6898470AF080FD30460BB0BDE8F083FF
:103F60003D3D0000E4760300E80600100007001065
:103F7000F0B587B01E468369B0F90C70B0F90A50ED
:103F80000493B0F908300393438A02930023CDE9E8
:103F900000131446B0F91030B0F90E20B9192819E1
:103FA000FFF77CFF07B0F0BD2DE9F0410C4686B06D
:103FB0008046002800F096800AF058FD40460FF039
:103FC000C1FE416C466B00908C42B8BF0C46816CC0
:103FD0008C42A8BF0C46A64205467ED090F8687079
:103FE000FB071CD5A64213DD2146FFF730FF314603
:103FF000ADF80E002846FFF72AFF0023ADF8083081
:1040000040F6FF73ADF80A00ADF80C306C635CE06D
:104010003146FFF71CFF2146ADF80E00EAE7A64245
:1040200063DD2146FFF713FF3146ADF8080028464F
:10403000FFF70DFF0023ADF80A3017F0020740F636
:10404000FF73ADF80C00ADF80E30DFD1A86BCDE9F1
:1040500004770FF0CDFE04280EDC009B9D6B6846B4
:104060000FF07EFE0521284610F0D8F805464046A0
:104070000FF068FE009085630098FFF7A0FE0190A6
:1040800018B3009BD86C11F01BF9019A054604A9DE
:104090000098FFF797FE02A904AA084610F064FFF3
:1040A000DDE900012246FFF772FE019A009804A99B
:1040B000FFF788FE02A9084604AA10F055FF28461B
:1040C00011F0FEF801A80FF04BFE0521404609F063
:1040D000A9FE02A9404608F09DFA68460FF040FE8E
:1040E0000AF0BAFC06B0BDE8F0813146FFF7AFFE3A
:1040F0002146ADF808009AE713B5044658B10AF016
:10410000B5FC20460FF01EFE446B019001A80FF095
:1041100027FE0AF0A1FC204602B010BD73B50D4683
:104120001446064680B10AF0A1FC30460FF00AFEA4
:1041300001900DB1436C2B600CB1836C236001A81E
:104140000FF00EFE0AF088FC02B070BD37B50D46C8
:10415000044670B10AF08AFC20460FF0F3FD01908E
:10416000C56401A80FF0FCFD204608F097FA0AF09C
:1041700073FC03B030BD73B50E4615460446B8B1A6
:104180000AF074FC20460FF0DDFDB54201900ADD17
:10419000836CAB4202D1436CB34204D0C0E91165D9
:1041A000204608F07BFA01A80FF0DAFD0AF054FC73
:1041B00002B070BD37B50D46044678B10AF056FC22
:1041C00020460FF0BFFD0190A0F8405001A80FF06D
:1041D000C7FD204608F062FA0AF03EFC03B030BD8D
:1041E0002DE9F04F0F4687B01646044600285CD0F4
:1041F0000AF03CFC20460FF0A5FD0490C06B03F0D4
:10420000CFFB0546049805F048FF049B019004A8E5
:10421000D3F83C800FF0A4FDBD4240F284800C2214
:104220003946404607F00AFA002800F0828003F081
:10423000A3FC0546002835D03946404603F08BFCE8
:104240000590056005A80FF08BFDDFF8ECB04FF08E
:104250000008019B98452CDB002520460FF072FDDD
:10426000D0F880300490002B05DA436FBB4202DDAA
:10427000204606F0ABFA049B002283F8BD2004A878
:104280000FF06EFD204605F0DDFF064620460FF0DC
:1042900059FD0490002E3AD0204605F0ADFE04A84A
:1042A0000FF05EFD0AF0D8FB2C46204607B0BDE8B3
:1042B000F08F36B3D6F800A0BAF1000F23D0043641
:1042C00050460AF031FB0021814600F109022846E0
:1042D00003F073FBC8B94146284603F03CFCB9F132
:1042E000000F039007DDBAF1000F04D0DBF80020C7
:1042F00051460430904703A80FF032FD08F1010841
:10430000A7E7B246DCE75646DAE70125A5E7D0F88D
:10431000B8301BB1D0F88030002BBDDA39462046CA
:1043200006F083FABBE73146204606F0F1F8054671
:10433000B8E70125B6E700BF280A001070477047AC
:1043400070477047704700002DE9F04743680C2B19
:1043500086B0044611DC012B12DD023B0A2B0FD87C
:10436000DFE813F0E1000E000E00120048000E001E
:104370000E000E000E000E000E01122B00F08280C7
:10438000002006B0BDE8F087924E4369C5693068E9
:104390001D4410F066FFE269D4E90510013A11F0FE
:1043A000C3F8A2692169E06911F05CF8706810F047
:1043B00058FFE269D4E90401013A11F0B5F8F36855
:1043C000A26920690193B36800936D1061696B1E47
:1043D000013A01300DF0E8FFD4E906237169206944
:1043E000019131690091013B013A294601300DF0FC
:1043F000DBFFC5E700680FF0A5FCC56C039003A8C0
:104400000FF0AEFCA168284603F0A5FB049000283D
:10441000B6D08568B0F90480066804A80FF0A0FC47
:10442000284603F044F90746284603F051F908F0FE
:104430000303012B12D0022B12D0002208F00C0132
:104440000429636911D00C2914D000202169034488
:104450000A442846216803F014F991E7F21BEDE7BE
:10446000F21B02EBD2725210E8E7E169C91A01317E
:10447000081AEBE7E169C91A0131081A00EBD0709C
:104480004010E3E700680FF05DFCC36AC56CD0F82C
:104490003C80476BD0F86090029002A8D3F800A04F
:1044A0000FF05EFCA168284603F055FB039000283E
:1044B0003FF466AFB0F9046000F10C0503A80FF0FB
:1044C0004FFC2369ADF810306369ADF8123004A9D0
:1044D000A369ADF814305246E369ADF816300846CA
:1044E0000AF0A2F9A36899450ED1BDF814306169AC
:1044F0005A1EE3695B1A043B032193FBF1F3013B72
:10450000A2EB4303ADF81430404610F0AAFE02209F
:1045100010F02AFF384610F0D3FE324604A9284690
:1045200012F015FC2CE700680FF00CFC476E0490AD
:1045300004A80FF015FC6369E569A669ED1A043D4E
:10454000032395FBF3F5234B986910F08AFEE0698D
:104550006469013D7A1CA7EB8703001BD7186C1018
:10456000043E7C43761BC4EB6004002DFFF608AFCD
:10457000AA19711B204610F075FF013D3C44F4E779
:10458000144E4369C56930681D4410F06AFEA26983
:104590002169E06910F066FF706810F062FEE26960
:1045A000D4E90401013A10F0BFFFF36820690193D8
:1045B000B36800936D10D4E905126B1E01300DF045
:1045C000F3FE7269E3692069019232690092A2697F
:1045D000013B0AE704070010F0B58E4B826853F8E0
:1045E00022504368062B89B0044600F0E78007DCC0
:1045F000002B00F00A81052B51D0002009B0F0BD3E
:10460000122BFAD100680FF09DFB866E0490002EED
:1046100000F0F980A368B0F95C70002B00F0F18025
:10462000032B0CBF0223002300EB8303406D1C6CA3
:1046300010F046FE204610F014FE06A810F030FCE4
:10464000A98BBDF81C30BDF818205B1AADF81C30E2
:10465000BDF81A300233ADF81A30BDF81E30023BF7
:10466000ADF81E30049B0A44ADF81820B3F95E1073
:10467000B3F9602006A810F0A2FC04A80FF070FBAC
:10468000022010F071FE30460FF05CFB3A4606A99E
:10469000059012F05CFB05A80FF062FBADE7EB693B
:1046A000002B73D0AA6803926A6802922A68CDE947
:1046B0000032D0E90623D0E9040113F09BFC002668
:1046C00055F8260010F0CDFDD4E90410EB69A2697D
:1046D0001944D21A304410F0C5FEEB69A269216971
:1046E000E069D21A1944801B10F0BCFED4E9040121
:1046F000EB69E2691944D21A304410F015FFD4E98D
:104700000510EB69E2691944D21A801B10F00CFF06
:10471000002E39D0A86810F0A4FDE9692069666907
:10472000E36942185B1A013A3144023010F024FF69
:10473000E969A2696669E369501A5B1A023A314471
:10474000013010F019FFEE696169E3692F69A26910
:1047500020690197EF6800970B44921B30445B106F
:1047600002310DF021FED4E9062361692069AC69AC
:10477000019419446C6900944910023B921B013169
:1047800030440DF011FE38E7012699E7286810F053
:1047900068FDD4E90401D4E9062313F0E9FA686856
:1047A00010F05FFDD4E90623D4E90401013B013A8E
:1047B0000131013013F0DCFA0226C5E700680FF082
:1047C000C1FA0490206808F0D9FE049A90B1A36859
:1047D000ABB9136F003B18BF012302EB830304A89E
:1047E000DD6E0FF0BDFA002321681A46284602F05C
:1047F00048FF02E7536F002B18BF0223EDE70023A9
:10480000EBE7012310E704A846E7006807F0B2F8D9
:10481000F3E600BF0077030037B50FF093FA038B80
:104820000190DA0701D59B0701D544680DE0057FAB
:10483000019B5C684CB101A80FF092FA20460FF082
:1048400081FA037F0190AB42F2D801A80FF088FAF9
:10485000204603B030BD73B50E4614461D460FF01A
:1048600071FA009056F824000FF06CFA019018B11C
:10487000038B43F00403038301A8013C0FF070FA9B
:10488000AC42EFDC009B1E7F0124731E9C40A4B24F
:10489000009B9D684DB168460FF062FA28460FF004
:1048A00051FA037F0090B34204D868460FF058FADB
:1048B00002B070BD438B23434383E9E7F7B5064657
:1048C0000FF040FA038B00909C0734D4009B5C6887
:1048D000A4B168460FF044FA20460FF033FA009076
:1048E00020460FF02FFA057F0190019B9F6877B952
:1048F000012501A80FF034FA002DE7D068460FF02B
:104900002FFA002C08BF3446204603B0F0BD01A8A2
:104910000FF026FA38460FF015FA027F0190AA42EE
:1049200006DA038BD90702D513F00205E1D015464C
:10493000002DDAD1DCE74468E0E7F7B506460FF072
:1049400001FA077F01900024019B9D6801A8A5B191
:104950000FF006FA28460FF0F5F901900CB9077F21
:104960002C46038BDA07EFD5027FBA42ECDA13F05C
:10497000020F174608BF2C46E6E70FF0F1F9002CAE
:1049800014BF2046304603B0F0BD73B50446204640
:10499000FFF7D3FF254604460FF0D4F9068B0190AC
:1049A00001A80FF0DDF9F30701D4A542EFD12046AD
:1049B00002B070BD07B50FF0C5F90023C0E92E3372
:1049C000019001A80FF0CCF903B05DF804FBF7B536
:1049D00004460FF0B7F9038B0190DB070DD545684E
:1049E0005DB1077F28460FF0ADF90090009B1A7F5C
:1049F000BA4208D868460FF0B3F901A80FF0B0F931
:104A0000204603B0F0BD5E686EB168460FF0A8F9AD
:104A100030460FF097F9047F0090BC4294BF2C46BB
:104A200034463546E2E72C46E4E737B50D460FF04D
:104A300089F90190846854B101A80FF091F92046DA
:104A40000FF080F9037F0190AB4201D0F2DA00242D
:104A500001A80FF085F9204603B030BD13B50FF063
:104A600071F9038B019003F00302032A0FD104684C
:104A700023F00203038301A80FF072F92CB1204642
:104A8000FFF798FF204607F009FE02B010BD01A80D
:104A90000FF066F9F9E713B50FF054F9038B0190A5
:104AA00003F00302012A0FD1046843F002030383D9
:104AB00001A80FF055F92CB12046FFF77BFF2046E7
:104AC00007F0ECFD02B010BD01A80FF049F9F9E7BD
:104AD000F7B50E46144605460FF034F990F99C7070
:104AE000019001A864B20FF03BF99EB13C43BC4277
:104AF0000ED028460FF026F90190A0F89C4001A89E
:104B00000FF02EF92846FFF755FF284607F0C6FD9F
:104B100003B0F0BD3146284627EA040407F0F0F858
:104B2000E5E700B58DB0019249B11B23CDE9020341
:104B300001AB02A80B9388470DB05DF804FB084653
:104B4000FAE72DE9FF470746884602A9154609F00E
:104B500098F83846BDF90A600FF0F4F8D0F8A04094
:104B6000D0F83490D0F83CA0019001A80FF0F8F8EC
:104B7000BAF1000F1DD1B246E4B12246494638468B
:104B8000FFF7CFFF4445BDF90E300AEB00061ED1FA
:104B90004DB1BDF808202A80BDF80C20AA80721EF5
:104BA000A5F802A0EA800133B342ACBF0020012087
:104BB00001E01CB9022004B0BDE8F08744450AF1C9
:104BC000FF3A0BD02046FFF727FE0446D0E7B3425A
:104BD000F0DB2046FFF720FE0446CCE74FF0FF3025
:104BE000E9E72DE9F04188B007460FF0ABF8D0F8BF
:104BF000A880019040460FF0A5F80590047F05AD10
:104C0000059B9E68002E44D028460FF0A9F8304638
:104C10000FF098F80590037FA342F1DA048B14F0AB
:104C2000020434D128460FF09BF8002C39D000261E
:104C3000002241463846FFF784FF431C019B2AD0DF
:104C4000421E012A03D8DA6B0132DA632646D3F812
:104C5000B420D96B914221DB002A01DD013ADA63ED
:104C600003F1380207CA02AC443384E8070093E832
:104C7000070085E8070001A80FF072F82A462146D0
:104C8000384604F0A2FF304608B0BDE8F0811C466B
:104C9000B6E70124C6E7DA6B013AD6E70028C7D1A8
:104CA000DEE701A80FF05CF82646ECE730B587B0E8
:104CB0000D4604460FF046F8D0F8A8100390C0F84F
:104CC000A85003A801910FF04BF82046FFF789FF89
:104CD000019940B1204607F0E1FC0421204609F08B
:104CE000A1F807B030BD04AA2046FFF72AFF01282B
:104CF00003D804A9204607F08DFC04AA29462046C3
:104D0000FFF71FFF0128E8D804A9204607F082FC1E
:104D1000E3E72DE9F04393B006464022002102A8C4
:104D20002FF07DFB30460FF00DF80024C0E92E4433
:104D3000476BD0F8A0500090C0F8B4404FF0FF3956
:104D4000A04665B92CB12B464A4602A92046FFF77A
:104D500082FD68460FF004F813B0BDE8F0832846E2
:104D60000EF0F0FF047FA0F81A8012AB03EB84036F
:104D7000818A43F8405C038B019023F00403038392
:104D8000009BD3F8B8208A42B8BFC3F8B81001A876
:104D90000EF0E6FFA14505DD23464A4602A9284656
:104DA000FFF759FD68460EF0DBFF2A4639463046CC
:104DB000FFF7B7FE814630460EF0C4FFD0F8BC3096
:104DC00000904B44C0F8BC30D0F8B4300133C0F888
:104DD000B4302846FFF720FDA1462C460546B0E733
:104DE0002DE9F04F624FD7F800808DB00446B8F13E
:104DF000000F40F0B78001233B600EF0A3FF04A931
:104E00000390204608F03DFFBDF91220039BBDF939
:104E10001650D3F8BCA0AD1A6A1C92450092CCBFC4
:104E2000012600266EDDD3F8B42001329A632046B5
:104E30000EF088FFD0F8B490D0F834B0D0F8A0507D
:104E4000069006A80EF08CFFB9F1010F1BDD09A931
:104E5000204608F016FFBDF92A90BDF92630A9EBCF
:104E60000303C1467DB12A46594620460193FFF708
:104E700058FE81442846FFF7CFFC019B4B4508F1C3
:104E800001080546EEDA039BC3F84080039BB3F8A4
:104E90009C301A0739D503A80EF062FF3146204630
:104EA00006F03EFF2046FFF734FF20460EF04AFF93
:104EB0000390039BBDF91020BDF91450D3F8B880BE
:104EC000AD1A0135A845D3BF0022C3F84480DD6484
:104ED0009A64B3F89C305B0724D503A80EF040FF1A
:104EE000A845D4BF00210121204606F009FF204635
:104EF0000EF028FF039006BBA8451EDC03A80EF0A9
:104F00002FFF2FE0C3F83C80C0E7204608F05EFE8C
:104F10000028CED0009B9A45DFBF039B01269E63ED
:104F20001E64C6E7204608F043FE0028E3D0A845EB
:104F300003DC039B01225A64DA64039B03F1380209
:104F400007CA06AD85E80700443393E8070009AEB9
:104F500086E8070003A80EF003FF324629462046E4
:104F600004F033FE00233B600DB0BDE8F08F00BFBE
:104F7000101F44A037B504460EF0E4FED0F8B85038
:104F8000019001A80EF0ECFE2DB92046FFF7C1FEFE
:104F90002046FFF725FF03B030BD00002DE9FF419B
:104FA00043681B2B04461FDC112B1FDC012B02D096
:104FB000053B012B18D82068656A0EF0C3FEB0F8D7
:104FC0009C80B0F9C060B0F9C270019001A80EF0E9
:104FD000C7FE6368122B00F0CC806FDC052B00F05D
:104FE0008980062B00F0D280002422E0123B092B9E
:104FF000FAD801A252F823F0B74F0000E94F0000A1
:10500000B74F0000E94F0000E94F0000E94F0000F2
:10501000E94F0000E94F0000215000003B50000024
:10502000436A18680EF08EFE848A029002A80EF081
:1050300097FE204604B0BDE8F08100680EF082FEC5
:10504000636A009018680EF07DFEC48A01900646DF
:105050002CBB009F00693B6D1D7E28B30EF072FED5
:105060000446029002A80EF07BFE338BDA071ED5B1
:10507000C3F3400354F823201AB91E3307EB83030C
:105080005A68538800220099D1F89840AC42B8BFC2
:105090002C469442B8BF14469C42B8BF1C4601A897
:1050A0000EF05EFE6846C2E707F17C04DDE7A36808
:1050B0000BB9D7F884305A880023E4E7142B93D136
:1050C000E86810F0CEF805F12606002795F82430A0
:1050D0009F42C0F2868005F14007002695F83E30D9
:1050E0009E4281DAE269616937F9020B10F01CFA1D
:1050F0000136F3E718F0020F14BFA868286810F013
:10510000B0F82369ADF808306369ADF80A30A369D7
:10511000ADF80C306B8A02A8013BADF80E3010F0F0
:1051200057FA6B8AADF80A30EB8AADF80E302B8A4D
:1051300002A8013BADF80C3010F04AFAAB8A0133FB
:10514000ADF8083002A8A369ADF80C3010F040FAB1
:105150002369ADF80830A369ADF80C30EB8A013350
:10516000ADF80A3002A8E369ADF80E3010F030FA5D
:105170003AE7686810F075F8A86810F066F8286AD1
:10518000002205F1100111F0E2FD2DE7A368022BCA
:105190000FDC002BFFF628AF686E6269E369418877
:1051A0009B1A5B1A03EBD373B5F96A1002EB630227
:1051B00014E0033B012B3FF617AF286E6369E269E9
:1051C0004188D21A521AB5F968100E44018802EBD0
:1051D000D2721F4407EB6202A6EB51010FF0ACF84C
:1051E00002E736F9023BB6F90A20B6F90400934209
:1051F00007D10146B6F91020184610F095F901378D
:1052000064E7194610F02EF9F9E700BF30B58BB00E
:10521000CDE90610CDE9043209F028FC129C9C343B
:105220000394144C02940F9C01940E9C0094DDE9AD
:105230000432DDE9061007F055FA0446A8B10EF075
:1052400081FD11990990102204F0C2FB099D0A49C1
:105250004C2205F150002FF0B9F8084B6B63109BFE
:10526000A5F89C3009A80EF07BFD09F0F5FB20465F
:105270000BB030BD39580000A00700109D4F000052
:10528000F0B587B01E468369B0F90C70B0F90A50CA
:105290000493B0F908300393438A02930223CDE9C3
:1052A00000131446B0F91030B0F90E20B9192819BE
:1052B000FFF7ACFF07B0F0BDF7B50D461746064641
:1052C00009F0D4FB0F4B28461B68984720300EF09E
:1052D00089FF044688B10EF035FD0B4A0190C76086
:1052E000126829461D30904726B1019A138B43F06E
:1052F0000103138301A80EF033FD09F0ADFB204636
:1053000003B0F0BD2C0A0010280A00102DE9F04F60
:105310000C4689B016469A460546002800F0C9801A
:10532000002900F03A8109F0A1FB20460EF00AFDA9
:10533000D0F804800390B8F1000F00F0BE80204642
:10534000FFF745FB039B93F81CB08146039B9F68C6
:1053500003A8002F40F01D810EF002FD28460EF03C
:10536000F1FC049020460EF0EDFC049B0590D3F870
:10537000B020002A00F0FB80002E00F00281BAF17C
:10538000020F40F0A38030460EF0DCFC038B069049
:10539000DB0740F19980D0F804A0BAF1000F00F0CB
:1053A0008F8050460EF0CEFC0790846007A80EF068
:1053B000D7FC069A059B5460C3E901A6127F01320F
:1053C0001A77002606A80EF0CBFC002E40F0D980FC
:1053D000049AD2F8B0300133C2F8B03004A80EF00D
:1053E000BFFC059B05A81D600EF0BAFC2846FFF720
:1053F000E1FA284607F052F920460EF0A3FC03908C
:1054000028460EF09FFC039B0590006D1E7F0FF059
:1054100057FF0398059B047FB3F99020D3F894308D
:1054200001341D3002FB043411F032FFA4B2039B9F
:1054300020449882B8F1000F2CD05FBB5C68C3E9B0
:105440000058A6EB0B0B059AD2F8B0300133C2F826
:10545000B030039B5E6856B103A80EF081FC304665
:105460000EF070FC037F03905B44037705604E45AC
:10547000E9D130460EF066FC0790446007A80EF0B4
:105480006FFC3CB120460EF05DFC0690866006A8DD
:105490000EF066FC05A80EF063FC03A80EF060FC9D
:1054A0002846FFF787FA284607F0F8F809F0D4FAFB
:1054B0003D46284609B0BDE8F08FC346C14645E7E2
:1054C000049BC3F8A44074E701267BE7BAF1000F00
:1054D0001FD130460EF036FCD0F808A00790BAF184
:1054E000000F12D050460EF02DFC0690446006A826
:1054F0000EF036FC079A059B9460C3E9016A127F9F
:105500001A7707A80EF02CFC62E7049BC3F8A040B2
:10551000F0E7BAF1010F7FF45BAF30460EF012FCFA
:105520000690037F019306A80EF01AFC3046FFF7A1
:105530004EFA8246A8B10EF005FC4668069096B178
:1055400030460EF0FFFB0790846007A80EF008FCC1
:10555000069B019A5C60059B06A8C3E9016A1A775D
:10556000D0E73046E7E7049BC3F8A440F0E7D3F860
:10557000A02032B9C3E92944C3F8A040C0E90177AB
:1055800026E704A80EF0ECFB05A80EF0E9FB0127C6
:1055900032E70EF0E5FB002788E70D4689E773B593
:1055A000054600930191164609F060FA06990198A4
:1055B0000022FFF781FE009B044640B101463246BF
:1055C0002846FFF7A3FE10B120460EF01DFC09F09F
:1055D00043FA204602B070BD13B5044660B1019194
:1055E00009F044FA019904222046FFF771FA02B04B
:1055F000BDE8104009F030BA02B010BD13B5044642
:1056000060B1019109F032FA019908222046FFF7B2
:105610005FFA02B0BDE8104009F01EBA02B010BD3A
:1056200037B50D460446B0B109F020FA20460EF019
:1056300089FBB0F89C3001907DB1D90706D523F0E5
:105640000103A0F89C30204607F028F801A80EF0CE
:1056500087FB09F001FA03B030BDDA07F6D443F056
:105660000103EEE77FB500230546164602930C467C
:1056700009B9012A21D8002D64D009F0F7F928468C
:105680000EF060FB01901CB120460EF05BFB029017
:10569000029B052E19D8DFE806F0031317353D4E9F
:1056A000019BD3F8A040029B13B102A80EF058FB57
:1056B00001A80EF055FB09F0CFF9204604B070BDEB
:1056C000019BD3F8A440EEE70BB90024EBE720469A
:1056D000FFF77DF90028F8D00EF034FB4468039002
:1056E0005CB103A80EF03CFB20460EF02BFB029BA6
:1056F000027F1B7F03909A4200D0002403A80EF083
:105700002FFBD0E7002BE0D0197F2046FFF78DF963
:105710000446C8E7002BD8D01A8BD207D5D55C68D1
:1057200020460EF00FFB029B027F1B7F03909A42E4
:1057300098BF0024E2E7002BC7D0197F0029C4D00E
:105740000139E2E72C46B8E713B5044660B109F029
:105750008DF920460EF0F6FAD0F8A840019001A885
:105760000EF0FEFA09F078F9204602B010BD37B508
:105770000D460446B8B109F079F920460EF0E2FA78
:10578000012D019011D1B0F89C30990706D443F057
:105790000203A0F89C30204606F080FF01A80EF01E
:1057A000DFFA09F059F903B030BD002DF6D1B0F899
:1057B0009C309A07F2D523F00203EAE710B50446BD
:1057C00009F054F92046FFF7BFFF28B1FFF776F83C
:1057D00001462046FFF76AFABDE8104009F03CB9DF
:1057E00010B5044609F042F92046FFF7ADFF28B195
:1057F000FFF7A3F801462046FFF758FABDE810402E
:1058000009F02AB910B5044640B109F02FF9204635
:10581000FFF741F9BDE8104009F01EB910BD10B501
:10582000044640B109F022F92046FFF717F9BDE818
:10583000104009F011B910BD2DE9F04F2DED028B8C
:105840004468B5B006460146204604F01CF958B13C
:105850003368262B00F079840BDC0E2B00F0BC8320
:105860000F2B41D00B2B12D035B0BDEC028BBDE815
:10587000F08F40F21312934226D0B3F5107F00F060
:10588000DD822E2BF0D12046FFF774FBECE720469B
:105890000EF058FAD0F8A0400E900EA80EF060FA64
:1058A000002CE1D020460EF04DFA1890006908B1A6
:1058B0000EF0AAFA189B18A85D680EF051FA20465F
:1058C0000EF0A2FA2C46EBE720460EF03BFA0890C9
:1058D000D0F8AC0006F05AF9089B0022C3F8AC20BF
:1058E00008A80EF03DFABFE720460EF02BFA436BF6
:1058F0000390006D08EE103A0FF0E2FCF2681068B9
:1059000051680CAB03C3039BB3F90220B3F9001039
:10591000524249420CA80FF052FB08A9204608F059
:10592000B0F908A90CA808F0E0FE0399BDF83050C2
:10593000D1F8B800BDF92030BDF92420ADF82850C9
:10594000BDF83450ADF82C508D6C0E94D21A013243
:105950005B1B12938242ACBF9B181B18BDF92250EF
:10596000149318AB13951793CD6BD1F8A030049313
:105970000498002D40F0E681049B002B00F0E481A8
:10598000BDF94C30BDF93620ADF82A309A42C0F24C
:10599000DB8103A80EF0E4F9049A18EE101A2046F1
:1059A000FFF7BFF8074620460EF0CCF9BDF82A30C5
:1059B000BDF932200390013B3B441BB29A42ADF843
:1059C0002E3000F3B7810AA808F088FB04AB1793C8
:1059D000139B3B44013B1593039B5B6B002B00F037
:1059E000A981B44B70221B68002118A89847DDF8E4
:1059F000388040460EF0A6F9179B05901E68304689
:105A00000EF0A0F9059B0690B3F89C309B0714D5C7
:105A1000404607F0B3FD059A002800F0B281B2F8C5
:105A20009C3013F0020304D0D2F8A8309D1B6B42C7
:105A30006B4102EB83035B6D1893404607F09EFDBC
:105A4000059B002800F09F81D3F8A820901BD0F17F
:105A5000000949EB00091B6D1F930FF041FA054641
:105A6000DDE90530B3F99020D3F8941090F81CA02C
:105A7000129B0AF1010A0B4402FB0A3A1FFA8AFA46
:105A80001D30ADF870A011F003FC139A159B9B1A02
:105A900001335B1B03EBD37302EB63039BB2013D4A
:105AA000ADF872302B44ADF87630059B03EB8909D5
:105AB0000AF1FF3AD9F860301993D9F854301A93A3
:105AC000069B82441D334046ADF874A0209307F036
:105AD00055FD059A002800F05981B2F89C3013F06A
