:10000000480D0010010300001B0300007C030000EA
:100010001D0300001F03000021030000C3DFFFEFEA
:1000200000000000000000000000000091D002006D
:10003000250300000000000011D1020055D102008C
:10004000A5A50200B1A50200BDA50200C9A5020038
:10005000D5A50200E1A50200EDA50200F9A5020068
:1000600005A6020011A602001DA6020029A6020094
:1000700035A6020041A602004DA6020059A60200C4
:1000800065A6020071A602007DA6020089A60200F4
:1000900095A60200A1A60200ADA60200B9A6020024
:1000A000C5A60200D1A60200DDA60200E9A6020054
:1000B000F5A6020001A702000DA7020019A7020081
:1000C00025A7020031A702003DA7020049A70200B0
:1000D00055A7020061A702006DA7020079A70200E0
:0400E00085A70200EE
:0402FC00FFFFFFFF02
:10030000DFF88CD023488047DFF884D0224880472C
:1003100022482349016000F045B82FE02EE02DE08F
:100320002CE02BE02AE029E028E027E026E025E089
:1003300024E023E022E021E020E01FE01EE01DE0B9
:100340001CE01BE01AE019E018E017E016E015E0E9
:1003500014E013E012E011E010E00FE00EE00DE019
:100360000CE00BE00AE009E008E007E006E005E049
:1003700004E003E002E001E000E0FFE71EF0040F0C
:100380000CBFEFF30880EFF3098029F01DB80000DF
:100390000000011015FB010001EB020008ED00E078
:1003A000000000002B498D462B492C480A1A04D026
:1003B00081F30988022282F31488294829492A4AAC
:1003C00000F037F829482A492A4A00F032F82A482A
:1003D0002A492B4A00F02DF82A482B492B4A00F0D5
:1003E00028F82B482B492C4A00F023F82B482C499D
:1003F0002C4A00F01EF82C482C49002200F024F86A
:100400002B482C49091A00220260043001601E4862
:100410001E49884205D00268043003B4904703BCEB
:10042000F7E700208646EC4600200021224A90474C
:10043000FEE7884207D0521A05D0037801300B70CE
:100440000131013AF9D17047884202D0027001307F
:10045000FAE77047480D0010480D0010480D0010D5
:10046000A88D0600000000100C050010BC04000060
:10047000BC040000845D0300A88D0600000000108D
:1004800000000010845D0300845D0300845D0300B0
:10049000845D0300845D0300845D0300845D0300CC
:1004A000845D0300A88D0600C0177CA0C0387CA026
:0C04B000000E6EA0C0177CA00DFB010028
:1004BC0008B5882016F035FE16F05CFB05221146B7
:1004CC00014816F00DF808BDCC82030010B582B0BF
:1004DC0013F0FAFD044613F0FFFD03468822019247
:1004EC00064A009222460021084614F063F90522C0
:1004FC001146034815F0F4FF02B010BDFF5555002E
:10050C00CC8203002DE9F04F85B013F0DDFD0746DA
:10051C0013F0E2FD344B1C6834B1334B18680AF00D
:10052C0043FE05B0BDE8F08F0646C9231A460021EC
:10053C00084609F0CFFF80460125009533463A4620
:10054C00002108460AF0BCF8274B186064232A46A1
:10055C000021084609F0BEFF814640460AF0FCF82F
:10056C008246882016F0DDFD16F004FB48460AF0A2
:10057C00F3F8882301931D4B00936423002211464A
:10058C00104614F017F948460AF0C2FD05464046DD
:10059C000AF0E2F84FF0640B55F8040B16F0CCFDA2
:1005AC0022465946584618F0DDFD0134642CF3D12F
:1005BC000D4B18680AF0D0F80021029101970096B3
:1005CC0033460A4640460BF00BFB05221146084801
:1005DC0015F086FF40460AF04FF848460AF04CF8F2
:1005EC0050460AF0B9F898E7C0177CA0FF555500A3
:1005FC00CC82030038B50446456855B90E21006815
:10060C000CF002FC4FF07F4120680CF0B0FD284646
:10061C0038BD0DF051FA0546F9E7000008B503683E
:10062C000F2B06D01E2B08D00E2B09D010F0F8FE85
:10063C0002E0094B1B68984708BD0023C360FBE729
:10064C00C3685A68002AF7D01B686E2BF4D1034B91
:10065C0001221A60F0E700BFDC177CA0C8177CA051
:10066C0030B583B0054611F0EDF90446284611F07B
:10067C0003FA451E0A4B01930A4B00932B46A21E0C
:10068C000021012014F096F8074816F055FD2B4672
:10069C00621E4FF0FF31002019F0B0FA03B030BDEC
:1006AC00DCCEC0FFF3F3E6FFA8A851FF10B582B073
:1006BC0004460368013B1C2B36D8DFE803F02435D5
:1006CC0035353535353535353535351E31353535E9
:1006DC00353535353535353535350F0040F2611149
:1006EC00406811F0A1FC044601210DF037FD1049C2
:1006FC0020460DF01BFD02B010BD11F0D3FB2146BE
:10070C0010F0B3F8F7E713F0DFFC00EBD0704110FA
:10071C00412300930B460022606811F09FFFEAE72B
:10072C004068FFF79DFFE6E710F07AFEE3E700BFB5
:10073C00545428FF2DE9F04182B0054643680B2B39
:10074C0006D0122B37D0052B0DD00EF071FF33E0F5
:10075C001B4816F0F1FCEB69AA696969286919F064
:10076C004DFA002028E000680EF00EFA04466A46A6
:10077C0001A928680EF01AFA124B1D8805FB04F427
:10078C00A400009B019A9B1A013394FBF3F494FB95
:10079C00F5F305FB1344641B01340426DFF82480B5
:1007AC0001273A462146404615F09AFE2C44013E5C
:1007BC00F7D1002000E0002002B0BDE8F08100BFBE
:1007CC00A8A851FF3C81030010B504464368052BD3
:1007DC005DD0122B6DD14FF07F4016F0ADFC206830
:1007EC0011F0CEFBB0F5006F05D040F60103984236
:1007FC002AD000205FE020680CF0D8FE00B34FF048
:10080C00FF3016F099FC2C4B1A682C482C4B002A04
:10081C0018BF1846E2696369D21A4388D21A02EBF0
:10082C00D2725210A1692369C91A0388C91A01EB43
:10083C00D17149100132013115F052FE00203AE01D
:10084C00204816F079FCDEE720680CF0AFFED0B142
:10085C004FF0FF3016F070FCE2696369D21A1A4847
:10086C004388D21A02EBD2725210A1692369C91AB9
:10087C000388C91A01EBD17149100132013115F00D
:10088C002FFE002017E00F4816F056FCE4E7006836
:10089C000CF08CFE30B1626921690C4815F020FE19
:1008AC00002008E062692169094815F019FE002052
:1008BC0001E00EF0DDF910BDCC177CA0F067030051
:1008CC00EC660300A8A851FF686703005468030096
:1008DC00C874030010B588B004464368053B132B5D
:1008EC003FD8DFE803F00A3E3E3E3E3E3E3E3E33FE
:1008FC003E3E3E113E3E414141411D4816F011FC29
:10090C0016F038F9002030E00369ADF8183083692F
:10091C00ADF81C304369ADF81A30C369ADF81E3020
:10092C004FF0FF3016F008FC124816F031FC022094
:10093C0016F098FC142201A920680CF0D5FB0E22AD
:10094C0006A901A818F0E7F800200EE00A4816F0F6
:10095C00F3FBE369A2696169206916F089FD002047
:10096C0003E0FFF747FE00E0002008B010BD00BF19
:10097C00A8A851FF30970500C0C0C0FF08B5044BB4
:10098C001B8913F0080F00D108BD15F0E5F9FBE742
:10099C00F0177CA008B5044B1B8913F0080F00D18D
:1009AC0008BD15F0E1F9FBE7F0177CA010B58C46FB
:1009BC00037863B30346194613F8012F002AFAD1C2
:1009CC00C0F1010E8E44BCF1090F23D90123194645
:1009DC0003EB83035A0013460131BCFBF2F2092AE4
:1009EC00F6D801EB0E03C2180024C45471B1704444
:1009FC000B4CA4FB0C13DB0803EB8301ACEB4101A8
:100A0C00303102F8011D9C468242F2D110BD4FF0EC
:100A1C00000ED8E70EF10103C2180021C154E6E71D
:100A2C00CDCCCCCC10B50378FBB103469E4613F865
:100A3C00012F002AFAD1C0F1010CF4440B7883B1D8
:100A4C0064460CF1FF3C00EB0C0E0A460EF8013F1D
:100A5C00944612F8013F002BF8D1C1F10101214459
:100A6C008C44002300F80C3010BD4FF0000CE5E76F
:100A7C0010B586B00023019302930393049305935E
:100A8C004FF4B071134B186811F0CEFA04461249AA
:100A9C0001A8FFF7C7FF114B1968013101A8FFF737
:100AAC0085FF0F4901A8FFF7BDFF0E4B196801A880
:100ABC00FFF77CFF0C4901A8FFF7B4FF0B4B5968FB
:100ACC00013901A8FFF772FF01A920460DF028FBA0
:100ADC0006B010BDEC177CA0845D0300D8177CA079
:100AEC0030F50300E4177CA08C5D0300F0177CA0AC
:100AFC0038B50A4B1B68012B07D10A25074C284631
:100B0C0013F070FA2368012BF9D0054B18680128F3
:100B1C0006BF00221A60002038BD00BFCC177CA095
:100B2C00C8177CA010B584B00C4616F031FA01A899
:100B3C0015F0DAFD9DF80C3043B9206801280AD174
:100B4C0000232360064B01221A6002E0012323607C
:100B5C00002004B010BDFFF7CBFF014B1860F8E785
:100B6C00C8177CA00023034A1360034A1360034A8E
:100B7C0013607047CC177CA0D4177CA0D0177CA036
:100B8C0008B5044A136801331360FFF7EBFFFFF756
:100B9C006FFF08BDE4177CA038B5044603680E3B14
:100BAC00182B7DD8DFE803F00D467C7C7C7C7C7CAC
:100BBC007C7C7C7C7C7C7C137C7C7C7C7C7C7C7CD2
:100BCC004A0011F06FF921460FF04FFE38BD36493F
:100BDC0040680CF0E2FA0E2160680CF019FB4FF43F
:100BEC000471606811F020FA05460E210EF02AF807
:100BFC002E4928460DF0F2FF4FF40061606811F0A9
:100C0C0013FA00210EF019FC40F60101606811F096
:100C1C000BFA00210EF011FC4FF4B071606811F06A
:100C2C0003FA044622490DF07BFA224920460DF0C6
:100C3C005FFACBE74068FFF713FDC7E7806811F058
:100C4C009FF9E368022BC1D1B0F5006F09D040F6D3
:100C5C0001039842BAD1184B01221A60FFF782FFA8
:100C6C00B4E7164B1B686BB10024144B1C6013F0DB
:100C7C00B7F9134B1B68C31A124A136020460FF0C6
:100C8C008FF8A3E70D4B01221A6013F0A9F90D4B55
:100C9C001B68C31A0A4A136060680FF081F895E765
:100CAC0010F0BEFB92E700BFF4900500B8EE030015
:100CBC00905D030044A30500C8177CA0CC177CA052
:100CCC00D0177CA0D4177CA070B582B011F0EAF8D4
:100CDC000FF040FF15F04EFFFFF75CFE13F0F4F938
:100CEC00044613F0F9F9054636480CF029FE36484F
:100CFC000CF098FE35480BF005FE11F0D3F80346C6
:100D0C003D3D0195A4F150020092314A0521314834
:100D1C000EF080FE304E306011F0C4F80346002512
:100D2C00019504EBD4746410013C00942B4A02210D
:100D3C002B480EF06FFE2B4B186011F0D1FC2A489B
:100D4C000CF0FEFD29480CF06DFE29480BF0DAFD85
:100D5C004FF4B071306811F067F911F0C1FC11F06B
:100D6C00A1F80FF0EAFE16F013F900F0AFFD214BDD
:100D7C001D60214B1B681B68BBB11F4D1D4C1F4ECA
:100D8C00FFF7F0FEFFF774FE22682B6853F8223051
:100D9C009847002333601A4A136023680133236099
:100DAC002A6852F82330002BEAD1124B00221A6029
:100DBC00094B18680FF0A4FF0A4B18680FF0A0FF3E
:100DCC0002B070BDE1080000D5070000410700002B
:100DDC00A50B0000F45D0300EC177CA0B906000025
:100DEC00BC5D0300E8177CA0010600007DEC000050
:100DFC003DF60000D8177CA0F0177CA0E4177CA06F
:100E0C00E0177CA030B583B00546164816F0C0F943
:100E1C00284618F017F9044613F056F9124B1A88A5
:100E2C00031B03EBD3735B10043B511D8B42DABFE6
:100E3C000A4612B20022ADF800200023ADF80230B1
:100E4C000138ADF80400084B5B880933ADF8063067
:100E5C00022016F007FA0E226946284617F05BFEB0
:100E6C0003B030BD58D10300CC82030008B5024B4F
:100E7C001B68984708BD00BFDC177CA008B5064B63
:100E8C001B6813B1054B186808BD13F0A9F8044B87
:100E9C001B68C01AF8E700BFCC177CA0D0177CA049
:100EAC00D4177CA02DE9F04105464FF40471204B7A
:100EBC00186811F0B9F80746642D0EDC002138468D
:100ECC000DF0BAFD2A46002138460DF09CFE13F0B9
:100EDC0087F806464FF0050810E04FF40471144BE8
:100EEC00186811F0A1F811F0E2FBE7E7404613F0A7
:100EFC0079F8FFF7FDFDA5420DD960B9FFF7BEFFEC
:100F0C00841B642DF2DD214638460DF095FD3846E4
:100F1C000FF013FEEAE7642D01DCBDE8F0814FF41D
:100F2C000471034B186811F07FF811F0D9FBF4E74A
:100F3C00EC177CA0014B58880A307047CC82030018
:100F4C0010B58CB015F020F82B492C480BF000FC98
:100F5C0010F0A8FF2A4911F0D2FA0CF0D5FA0021B2
:100F6C0001A80CF08BFF00240694214601A80CF07C
:100F7C005DFF012101A80CF081FF0694012101A85D
:100F8C000CF054FF1F480CF0DBFC1F480BF0BAFCB4
:100F9C001E480CF047FD1E480DF000FC1D480EF0DD
:100FAC002BFD1D480CF024FA022016F05BF91B48AF
:100FBC0000F082FC13F0A8F80F280FDD174B1B89EB
:100FCC0013F0040F01D1164B09E014F0DDFF154BA3
:100FDC00154AB0F5001F98BF134600E0104B134A9A
:100FEC001360134B1B68012B02D1FFF76DFEFCE75E
:100FFC00FFF76AFE0CB010BDE0177CA0310B0000AF
:10100C0029060000010600003DF600007DEC000002
:10101C0055F100009DE10000F5FA0000F0177CA0EE
:10102C00BD04000011050000D9040000DC177CA0F1
:10103C00C4177CA008B5FFF735FFFFF7A1FD08BD6D
:10104C002DE9F0411546002847D00C4607460029EB
:10105C0043D013F039F8064613F03EF8804606EB01
:10106C00D6767610FFF796FC2E4B186811F038FBED
:10107C002D4B186811F01BFB15F08AFFFFF7F6FEDD
:10108C004FF0FF3016F058F8022016F0EBF8274816
:10109C0016F07EF83C223146384617F003FC244803
:1010AC0016F076F818F046FB08EBD878C0EB68021F
:1010BC000A323146204617F0F5FB237813B323464A
:1010CC001A4613F8011F0029FAD1C4F1010010448B
:1010DC0000EB80000001FFF7ADFF15F0010F13D0FE
:1010EC00FFF758FC15F0020F11D00E4B186811F0D9
:1010FC00DEFA15F0040F0FD00B4B186811F0D7FA6D
:10110C00BDE8F0810020E3E7FFF738FCEAE7054B88
:10111C00186811F0E5FAECE7034B186811F0E0FAE7
:10112C00EEE700BFE8177CA0EC177CA058D10300B9
:10113C0060BE03002DE9F04F9DB008AC84E80300BD
:10114C0005921E46BDF82030BDF82220033297B21E
:10115C00029715B2BDF82620033A12B2521BD84999
:10116C0081FB0201A1EBE274DA1CADF86820ADF84A
:10117C006A503E33ADF86C30A3B2039303EB4303D8
:10118C003B441BB20493ADF86E30CE4816F000F819
:10119C004FF0FF3015F0D0FF01230E221AA9304674
:1011AC0017F0D2FC00223F211AA815F0C0FE4FF018
:1011BC007F4015F0C1FF1AA816F086F91AA815F091
:1011CC00A4FFBDF968A0BDF96C309A440AEBDA7A39
:1011DC004FEA6A0ABDF96A90BDF96E30994409EB81
:1011EC00D9794FEA69090AAEB74F0FCF0FC60FCFA7
:1011FC000FC60FCF0FC697E80F0086E80F004FEA17
:10120C008A0A4FEA890919F06DFC042019F05AFC7E
:10121C00002637464FF08C0845F2E47B0695079480
:10122C00384616F057F80446384616F091F805463D
:10123C00724206F00F0302F00F0258BF53421CAA71
:10124C0002EB830353F8480C15F076FF08FB04F40B
:10125C00002CBCBF04F57F44FF3409EB244108FB90
:10126C0005F00028BCBF00F57F40FF3042460AEB7A
:10127C00204019F0C9FC5F440136102ED0D1069DD8
:10128C00079C19F027FC002015F03FFF4FF0FF30B2
:10129C0015F052FF059815F07BFFBDF86A30DDF8AC
:1012AC000CB05B44ADF86E30884E0E221AA9304655
:1012BC0017F031FC224600211AA815F038FE0E2238
:1012CC001AA9304617F027FC224600211AA815F05F
:1012DC002EFE0E221AA9304617F01DFCADF86A50EE
:1012EC00049BADF86E3000223F211AA815F01FFEAA
:1012FC004FF0FF38CDF804804FF07F470097BDF9D1
:10130C006E30BDF96C20BDF96A10BDF9680013F0A0
:10131C0089FABDF86A305B44ADF86E30DFF8B0A1E5
:10132C00504615F009FF0E221AA9304617F0F3FBB0
:10133C00224600211AA815F0FAFD4FF0FF2015F0F7
:10134C00FBFE0E221AA9304617F0E5FB22460021BF
:10135C001AA815F0ECFDDFF87C91484615F0ECFE70
:10136C000E221AA9304617F0D6FBADF86A50029A35
:10137C005A440FFA82FBADF86EB000223F211AA836
:10138C0015F0D5FD504615F0D7FE1AA816F09CF8AE
:10139C00224600211AA815F0CAFD4FF0FF2015F0C7
:1013AC00CBFE1AA816F090F8224600211AA815F0C8
:1013BC00BEFD484615F0C0FE1AA816F085F840464A
:1013CC0015F0BAFEADF86A50ADF86EB00E221AA93F
:1013DC00304617F0A0FB224600211AA815F0A7FDF5
:1013EC000E221AA9304617F096FB224600211AA8A5
:1013FC0015F09DFD0E221AA9304617F08CFBADF8A6
:10140C006A50ADF86EB000223F211AA815F08FFD7E
:10141C000197CDF800A0BDF96E30BDF96C20BDF977
:10142C006A10BDF9680013F0C5F9224600211AA80C
:10143C0015F07DFD01974FF0FF230093BDF96E3041
:10144C00BDF96C20BDF96A10BDF9680013F0B2F952
:10145C00224600211AA815F06AFD0197CDF80090DC
:10146C00BDF96E30BDF96C20BDF96A10BDF968008C
:10147C0013F0A0F9ADF86A50ADF86EB0404615F017
:10148C005BFE0E221AA9304617F045FB22460021BE
:10149C001AA815F04CFD0E221AA9304617F03BFB8A
:1014AC00224600211AA815F042FD0E221AA9304638
:1014BC0017F031FB002015F028FE1DB0BDE8F08FB1
:1014CC0056555555309705006C5F0300805E030040
:1014DC000000FFFFFF0000FF2DE9F04182B012F089
:1014EC00F3FD054612F0F8FDB5F5A07F02DB0446CE
:1014FC00EF2807DC052227492748FFF7A1FD02B09A
:10150C00BDE8F081244F052224493846FFF798FDA9
:10151C00FFF7ACFC012012F0F1FC06463846FFF751
:10152C0071FCFFF707FDA5F5A07303EBD3735B10FC
:10153C00ADF8003082B2A4F1F00707EBD777C7F310
:10154C004F07D119ADF80210ED1AADF80450231A5B
:10155C0003EBD37302EB6305ADB26B1EADF8063033
:10156C000F4B104AE84698E80300FFF7E3FDADF88F
:10157C000250E41BADF806400B4B0C4A98E80300F4
:10158C00FFF7D8FD4FF47A60FFF754FD304612F0A8
:10159C00B5FCB4E7845E0300EC5E0300005F03005F
:1015AC00345F030040BC0300505F0300E8BA030043
:1015BC002DE9F84F8846174609F0CEF882461848B0
:1015CC0015F0E6FD022015F04DFE15F055FC00EB74
:1015DC00D070461007F159040B3F0225A8F1070BF8
:1015EC00DFF84090C6F1070622465946484614F0EB
:1015FC0077FF3119404615F01FFD022015F022FE31
:10160C004FF07F4015F098FD284612F028F9143C55
:10161C000235BC42E8D1504609F09EF8BDE8F88F7F
:10162C002C640300086103002DE9F04FABB00522D8
:10163C0098499948FFF704FDFFF718FC9748FFF706
:10164C00E1FB974D0CAE2C460FCC0FC60FCC0FC642
:10165C0094E8030086E8030016AE0FCD0FC60FCD3D
:10166C000FC694E8030086E8030012F02DFD044633
:10167C0012F032FDA4F1AC0303EBD3734FEA630811
:10168C007A3800EBD070431019461C467B23B422E9
:10169C00404609F059F8029010B92BB0BDE8F08F14
:1016AC000AF026FC20A9002202F001035B00013B9A
:1016BC0041F8043B01320A2AF6D122464146002069
:1016CC00FFF776FFFFF7DAFB099040230393012322
:1016DC00089304F17A09734E2746A1E05BF8243095
:1016EC00A9EB030204EBD4704010C0F1040000938A
:1016FC005346063A294656F8200015F0EFFE013401
:10170C0010350A2C13D0052CE8DC5BF82430A9EB3F
:10171C00030204EBD470401000935346063A29465A
:10172C0056F8200015F0DAFE01341035EBE7ADF871
:10173C00288008F10303ADF82C30ADF82A70ADF811
:10174C002E900AA815F0E1FC574815F0F5FC57202F
:10175C0013F0ACFB042400944B46DDF81CA052465D
:10176C003946404616F062FF002015F0CEFC07F11A
:10177C007903039D08EB0502791C08EB040015F0B6
:10178C0077FEFF2013F092FB484815F0D5FC00942F
:10179C004B4652463946404616F09EFB3A46414669
:1017AC00029C2046FFF704FF204609F053F80698E8
:1017BC0008F0D2FF2B46089A13440393093B9A2B4B
:1017CC0084BF5342089316A90CAD0DF1800C6446EE
:1017DC0004E0524244F8042C61450FD00B6854F8D5
:1017EC00042B134441F8043B55F8040B00F10A0E8A
:1017FC007345EEDC0A388342EEDAEAE7FFF73EFB8C
:10180C00049BC01A1E283DDCC0F11F0012F0EAFB3D
:10181C00FFF76EF943F69723059A9A4235DCA0BB85
:10182C00FFF72CFB0490099A831A0593029808F091
:10183C0093FF06901E4815F07FFC08F1AC031A4686
:10184C000793042300934B463946404616F0EEFEB0
:10185C00184815F071FCBC1D07F17E0B08F1AA0AA3
:10186C0008F1020552462946204615F077FD0A3448
:10187C005C45F7D108F1080500240DF1580B4FF029
:10188C00010A40E715F084FBC2E7029808F0F4FE69
:10189C0003E700BFAC5F0300D85F0300E45F030005
:1018AC000C660300F45F0300D99100FF0094F3FF72
:1018BC004A2210FF774830FF034B03600423436038
:1018CC000D230381704700BF000000102DE9F04389
:1018DC0089B06C46404D0FCD0FC42B6824F8023BE9
:1018EC001B0C23700023CDF81330CDF81730CDF836
:1018FC001A3012F0E9FB064612F0EEFB0446FFF735
:10190C00B5FA022015F0AEFC4FF0FF3015F014FCC8
:10191C00DFF8C880404615F03BFC7508A700C4F3FF
:10192C00191229462E4816F0BDFFDFF8B89048462C
:10193C0015F02EFC3A1904EB4202920929462A486A
:10194C0016F0B0FF294815F0F7FB162704FB07F734
:10195C00BF093A462946264816F0A4FF254815F03B
:10196C0017FC07F112022946234816F09BFF4FF093
:10197C00FF3015F0E1FB484615F00AFC15F09CFA17
:10198C000146684631F056F8C4EB441292092946D8
:10199C00684616F087FF262204FB02F217480388DC
:1019AC00F11A9209490814F09BFD4FF0FF3015F025
:1019BC00C3FB404615F0ECFBC4EBC404C4F3D902E2
:1019CC0029460F4816F06EFF41F28830FFF76AFA8D
:1019DC0009B0BDE8F08300BFCC66030058D103000A
:1019EC003466030060BE03003C6603002288FFFFE0
:1019FC0074660300509C05009C66030080900300F5
:101A0C00BC6603002DE9F04F9DB000240D942422F8
:101A1C0021460EA831F04AF9224674497448FFF762
:101A2C000FFB12F051FB824612F056FB834612F06C
:101A3C0063FB834523DB6F4C04AD04F1200654F8A3
:101A4C00040F15F0E5F945F8040FB442F7D1FFF790
:101A5C0015FA00900AEBDA794FEA6909C9F1000925
:101A6C001FFA89F90BEBDB784FEA6808C8F100081C
:101A7C001FFA88F30193002741F287380CE0ADF888
:101A8C005C40ADF85E40ADF860A0ADF862B017A850
:101A9C0015F03BFBCFE70137FFF7F0F9009BC01ABD
:101AAC0040453BDCFFF724F8002837D107F007034B
:101ABC001CAA02EB830353F85C0C15F049FB30F0C5
:101ACC0081FF90FBFAF303FB1A054D44ADB230F0E5
:101ADC0079FF90FBFBF303FB1B06019B1E44B6B284
:101AEC0030F070FF044630F06DFF90FBFBF303FB0E
:101AFC001B031433334494FBFAF20AFB12421432E4
:101B0C002A441BB212B231B228B215F0B1FC19A89A
:101B1C0014F0EAFD9DF86C30002BBCD0FFF730F8C8
:101B2C0012F0D2FA0446009012F0D6FA019004F1A9
:101B3C00FF39A0F13D0815F087F9029015F078F9FE
:101B4C0015F0FAFAFFF79AF903900025412700F1F6
:101B5C00640643464A463946002015F089FC013597
:101B6C00FFF78CF9B042F4DD0446029815F0E4FA64
:101B7C00002015F0CAFA20490DA8FEF753FF009A71
:101B8C0005FB02F2019B7D3B02FB03F3039AA41AB3
:101B9C0093FBF4F34FF47A7103FB01F10DA8FEF7FC
:101BAC0005FFFFF763F94FF0FF3015F0C5FA02207F
:101BBC0015F058FB114815F0EBFA15F05DF9ABEB8D
:101BCC00000202EBD2720AEBDA71521049100DA826
:101BDC0016F068FE052200210846FFF731FA4FF493
:101BEC007A60FFF75FF91DB0BDE8F08F18F00300C5
:101BFC0048F0030060F0030054F0030058D10300D8
:101C0C0030B589B00023019302930393114C124D0C
:101C1C002378012B19D0642204A928682CF0A9FC84
:101C2C0003460028F4D1079A012A09D04FF0FF325D
:101C3C00019202928DF80C3001A814F089FDE7E7AF
:101C4C00059B0193069A0123F3E70020014B1870C2
:101C5C0009B030BD05187CA008187CA030B585B043
:101C6C00334B1A68117811701A68324B1A60324B68
:101C7C00324A1A60324B1B684BB1324B1B78BBB1EA
:101C8C0003A931482DF01DFFD8B105B030BD1DF0B2
:101C9C0023FF2E4A002131F009F8284A0021244B59
:101CAC00186831F003F8264B4FF0FF321A60E4E766
:101CBC00042010F041FC14F08FFF224BFF221A700D
:101CCC00DEE7234A102101202CF07DFB18B103988C
:101CDC002DF007FFD9E71E4A1E491F482EF0A4F924
:101CEC0020B11B4B18682CF091FBF0E71B4B0193B8
:101CFC000523009300234FF48062194919482CF0F6
:101D0C00F1FC30B1124B1968124B18682EF0EDF93A
:101D1C00E7E7FFF715F9144B01221A7015461C461C
:101D2C0028462CF0CBF92378012BF9D0EAE700BF39
:101D3C001000001094267CA090267CA000702F0030
:101D4C00FC177CA004187CA084F0030000B80B00E6
:101D5C0008187CA00C187CA088F0030000187CA04C
:101D6C0094F003000D1C000005187CA0024B4FF0F2
:101D7C00FF321A60704700BF98187CA02DE9F04F15
:101D8C0091B0044625F0A0FD0FAA002120462DF0AD
:101D9C00B4FE4F4E4FF4F84307930025069547F6D3
:101DAC00E07705970223049340F2DF13039340F28C
:101DBC001F330293019500950F9B4FF4F0724FF473
:101DCC004871304626F0C0F9424C2146304626F088
:101DDC0087FC304626F086FC80461F223E49304662
:101DEC0026F091FCADF83450ADF83650F369ADF8EF
:101DFC003830336AADF83A303946304626F0DFF9E0
:101E0C002146304626F06CFC0BAF4FF4B4723946C9
:101E1C000DA825F062FFBDF82CB0BDF82E90BDF8D2
:101E2C003240DFF8B8A04FF4B4725146384625F072
:101E3C006AFFADF82CB0ADF82E90ADF83240544698
:101E4C0034F86039063BADF830300DF124092B46DF
:101E5C0080224946384625F026FF99E8030087E89A
:101E6C00030008F142022B4692B24946384625F04F
:101E7C00E6FEBDF824302AF8603CBDF82830A3807B
:101E8C00BDF8263063804033E380154BA360154BBF
:101E9C00E360154B2361A561E561A56221463046DF
:101EAC0025F0C2FA2946304626F08BF9B4F8663094
:101EBC000093B4F86430B4F86220B4F86010304683
:101ECC0026F0E8F825F014FDA56611B0BDE8F08FFA
:101EDC00A8187CA044570600A0F0030078187CA03A
:101EEC00C4F00300791D00005435050010B582B014
:101EFC00114C0021204626F064F90021204626F0E2
:101F0C005EF90021204626F05FF90C4B1968091286
:101F1C000B4B1A68121202F10903009301F1090329
:101F2C000A3A0A39204626F0B5F80021204626F058
:101F3C004BF902B010BD00BFA8187CA0A4187CA05F
:101F4C00A0187CA02DE9F04F8DB000224E4B1A60EA
:101F5C004E4B5A679A67DA67DA661A67B3F86020ED
:101F6C00B3F864100A44521049490A60B3F862206D
:101F7C00B3F8663013445B10464A1360464A10218E
:101F8C0001202CF020FA10B10DB0BDE8F08F424CBE
:101F9C00424A434920682CF055FA22460AA9414886
:101FAC002EF042F820B13C4B18682CF02FFAEBE7DE
:101FBC000BA93D482DF085FD28B1374B19680A98BF
:101FCC002EF093F8EFE709AA00210B982DF095FD60
:101FDC0008A936482CF016FE18B10B982DF081FD8F
:101FEC00EBE7334908982CF0F9FD0028F5D10B9854
:101FFC00FFF7C4FE2CF022FB0446234B1B68002B7E
:10200C00EBD1DFF89490DFF884802A4F84E01F4BEB
:10201C000022DA661A6710264FF00A0BDFF890A040
:10202C001D4658462CF04AF8DAF8000003685B6944
:10203C00642205A99847EB6E059A1A44EA662B6F41
:10204C0006990B442B67013EEBD11146002AB8BF11
:10205C0002F10F0109110D4AD1661A46002BB8BFC7
:10206C0003F10F021211094B1A674FF0FF325A6736
:10207C002CF0E4FA104B186075E04FF496329FE0A8
:10208C004FF49633A6E000BF98187CA018187CA0DB
:10209C00A4187CA0A0187CA014187CA0E0F003006D
:1020AC00CCF0030088F0030084F00300D8F00300A8
:1020BC009C187CA0A8187CA010187CA0B04200F042
:1020CC00E980784B9B6E002B40F0E880764B1E60CD
:1020DC00764B1D6033120A3B03932B120A3B04937D
:1020EC00734D04AA03A9284626F07AF8284625F051
:1020FC0041FEBDF81020BDF80C106E4825F06CFCAC
:10210C00684B4FF0FF329A6614202BF0D7FF6A4BC6
:10211C001B68002B7FF461AF0023D9F800204146E7
:10212C00384625F027FB054626462CF087FA044650
:10213C00002DE9D1B042E7D0604B186803685B69A9
:10214C00642205A9984705462CF078FA5C4B1A686E
:10215C001860002DD8D1534B5B6F0193002B3FF4CB
:10216C0056AF831A01934F4AD06E059B181A0590EF
:10217C00126F069B9B1A0693019A02FB03F3002B2A
:10218C00BCBF03F57F43FF331B14C3EBC353454A5A
:10219C00926F02EB4322019B03FB00F3002BBCBFAD
:1021AC0003F57F43FF331B143E49C96F01EB4323F7
:1021BC00B2F5963FBFF661AF42498A42B8BF0A46B4
:1021CC0038498A67B3F5963FBFF65AAF3D498B4203
:1021DC00B8BF0B46DFF8CCC0CCF87C30324908686D
:1021EC00DDF804A00AFB02F1DFF8DCE08EFB0165F0
:1021FC00CE17C6EBA51606442C4909680AFB03F555
:10220C008EFB05AEED17C5EBAE150D44BCF864C0E6
:10221C00ACF10B0C4FEA0C2EB6EB0C2F06DD02EBDF
:10222C00D272521052421F4EB26776461D4AB2F815
:10223C0060200B324FEA022CB6EB022F07DA194E54
:10224C00B26F02EBD27252105242B2676646154A16
:10225C00B2F866200B3A4FEA022CB5EB022F06DDE2
:10226C0003EBD3735B105B420E4AD36765460D4B91
:10227C00B3F862300B334FEA032CB5EB032FBFF6E8
:10228C001DAF084AD36F03EBD3735B105B42D3676C
:10229C00654613E7A9427FF414AF35E7FFF726FE36
:1022AC0014E700BF18187CA0A4187CA0A0187CA070
:1022BC00A8187CA014F5040098187CA09C187CA08D
:1022CC0010187CA000D4FEFFD34D621083694FF030
:1022DC00FF329A66704700002DE9F04FA9B0044612
:1022EC0000F16C0B27AA002140682DF006FC25F0AC
:1022FC00EBFA05202BF0E2FE04F108084FF4F8434A
:10230C0007930023069347F6E0720592022204928B
:10231C0040F2DF12039240F21F32029201930093BB
:10232C00279B4FF4F0724FF44871404625F00CFF98
:10233C006B49404626F0D4F96A4B1B68002B41D000
:10234C0023681A6840F2E77302931D230193062356
:10235C000093654B1B68654908A830F043FB1F22AE
:10236C0008A9404626F0CFF90021404625F029FF68
:10237C00404626F0B7F905460023ADF89430ADF889
:10238C009630636AADF89830A36AADF89A30122192
:10239C0025A825F033FC23685E689B68CBB95C46A6
:1023AC00BDF89A20BDF89630D21AA2F23312521B05
:1023BC000023C2F34F021FA925A825F026FC4FF0DD
:1023CC00020A35E023681F221968404626F09BF963
:1023DC00CAE705F14202022392B223A925A825F0EF
:1023EC002EFC802221A923A825F08DFCBDF8842089
:1023FC00A4F86C20BDF88630A4F86E307F32A4F8B7
:10240C0070203F33A4F87230394B6367394BA367A4
:10241C00394BE367C4F884400023C4F88830A4F82F
:10242C0080308C34BCE7A5F11006BAF1010A48D013
:10243C003368002B45D03223802223A925A825F010
:10244C00E4FBBDF89820BDF89430D21AA2F2952284
:10245C000023C2F34F021FA923A825F00AFC06F1A2
:10246C00100504F180074FF032092E4655F8103C48
:10247C00002BD8D04B46802221A923A825F0F9FBAC
:10248C00BDF884302380BDF886306380BDF8883079
:10249C00A380BDF88A30E38055F8103CA36055F852
:1024AC000C3CE36055F8083C236155F8043CA361EF
:1024BC000023E361A38220341035BC42D5D13C46C5
:1024CC00B3E70023A3605946404624F0ADFF2DF03E
:1024DC009DFC10B129B0BDE8F08F25F00FFAF9E79B
:1024EC00445706001C1B7CA0201B7CA0E4F00300BE
:1024FC00C4F00300D9220000543505002DE9F04149
:10250C0082B005464FF4D6702DF086FC04466A4620
:10251C00102101202BF057FF08B1002300935CB170
:10252C004FF4D6720021204630F0C0FB2560009B92
:10253C002BB920462DF074FC02B0BDE8F0816A4640
:10254C0001A923482DF070FD18B100982BF05EFF07
:10255C00EFE7211D1F482DF0B4FA20B10099019826
:10256C002DF0C3FDF1E72046FFF7B6FE04F16C0831
:10257C00194F04F1080605E02046FFF7ADFE09E00F
:10258C003B68BBB9A36EF3B9EB681BB1984710F06D
:10259C00010FF1D14FF0FF33009A4146304625F040
:1025AC00E9F80028ECD0A36E002BE9D12046FFF708
:1025BC0093FEE5E706F0F6F82046FFF78DFE064B96
:1025CC0000221A60D5E760682DF08BFAC6E700BFD1
:1025DC0088F0030084F0030008197CA008B580691A
:1025EC00FFF78CFF08BD000070B504460D460E4B7E
:1025FC001B6883B100202CF011FA0C4B1E681DF0E7
:10260C0057FA2A46B0FBF4F130462DF04AFE002072
:10261C002CF0E6F970BD054905482DF032FE024B51
:10262C004FF0FF321A60E5E70C197CA010197CA062
:10263C0010F1030008B51421FA20FFF7D5FF08BDEF
:10264C0008B54FF4FA716420FFF7CEFF08BD83691B
:10265C004FF0FF32C3F8E4207047000010B582B091
:10266C0004460F4B1B68B3B9002125F0AAFD47F6B1
:10267C00E071204625F0A3FD0A4883884288018832
:10268C00C08801380090013B01320131204625F011
:10269C0001FD02B010BD47F6E07125F092FDE6E7B2
:1026AC001C197CA020197CA010B58EB0044603A97F
:1026BC001C482DF006FA1C4B1B68B3F1FF3F2AD0C7
:1026CC00194B4FF0FF321A6041F28833059342F2F6
:1026DC001073069347F2305307934FF47A730493B5
:1026EC00124B0A93124B0B93124B0C93124B0D93F0
:1026FC004FF4F07300934FF448737622DC210F48AB
:10270C0026F05EF804A903982DF01EFBA069FFF7D4
:10271C00A5FF0EB010BD044B00221A602DF050FB2B
:10272C00F4E700BF84F003001C197CA0FD870200B5
:10273C00B5880200D5890200498A02001C090400F0
:10274C002DE9F04F99B04FF48A702DF065FB1A4BC0
:10275C001860A8B104464FF48A72002130F0A6FA32
:10276C004FF0FF33C4F80431144A102101202BF030
:10277C002AFE40B1104C20682DF052FB0023236040
:10278C0019B0BDE8F08F0D4A17A90D482DF04CFC7F
:10279C0020B10A4B18682BF039FEEBE7064B196891
:1027AC00603108482DF08DF970B1044B19681798F9
:1027BC002DF09BFCEDE700BF18197CA014197CA030
:1027CC0088F0030084F00300D94C236803F5887269
:1027DC0003F58671186E2DF0D1F9246804F16403A9
:1027EC00099325F071F80AAA0021206E2DF085F9C5
:1027FC004FF4F84307930025069547F6E07BCDF898
:10280C0014B00223049340F2DF13039340F21F33FE
:10281C000293019500950A9B4FF4F0724FF44871A6
:10282C00204625F091FCC349204625F059FF20464F
:10283C0025F058FFC4F800011F22BF49204625F09F
:10284C0062FF5946204625F0BAFC2946204625F061
:10285C00B8FCADF82C50ADF82E50E369ADF8303023
:10286C00236AADF832300DF12C090821484625F0C9
:10287C00C5F9D4F8003103F146020DAE052392B22E
:10288C003146484625F0DBF90FAF96E8030087E8A0
:10289C000300052380223146384625F0EAF9012150
:1028AC00304625F0ABF9BDF83430A4F864307F33F2
:1028BC00A4F86830BDF83630A4F866303F33A4F87D
:1028CC006A309E4BE3669E4B23679E4B6367E467BF
:1028DC00C4F8805097E8030086E803006422394668
:1028EC00304625F010FABDF84230BDF83E209B1A58
:1028FC0003EBD3735A100632934E052392B2314632
:10290C00384625F09CF9B6F80080204625F0EAFE02
:10291C0008F110088044A6F80480B6F8028020461E
:10292C0025F0E0FE08F1100880441FFA88F3F380CC
:10293C003288A4F88420B288A4F888207288A4F87D
:10294C008620A4F88A30814BC4F88C30804BC4F8B4
:10295C009030C4F89450C4F89C40C4F8A050BDF812
:10296C003080BDF82C30A8EB0308A8F27928794BFD
:10297C00A3FB0838C8F34F0843462A463946484655
:10298C0025F077F904F1F00A4346542251464846A3
:10299C0025F06FF904F1F80804224146504625F061
:1029AC00B2F91421404625F00DF92B4640F22622AF
:1029BC003946484625F05DF94FF4907204F1E80170
:1029CC00384625F08AF95B49204625F089FE01211D
:1029DC00204625F0E4FE2946204625F0F5FB594615
:1029EC00204625F0ECFB9AE8030089E80300BDF8CB
:1029FC0032300093BDF83030BDF82E20BDF82C10CD
:102A0C00204625F047FB98E8030089E80300BDF851
:102A1C0032300093BDF83030BDF82E20BDF82C10AC
:102A2C00204625F037FB2046FFF718FE3588204658
:102A3C0025F058FE73884219083316324649204651
:102A4C0025F01BFE0127DFF8149140F226283B02EB
:102A5C0089FB0312DE17C6EB2216F60106F4F846C4
:102A6C0000253146204625F0AAFBB4F8EA20B4F83C
:102A7C00E8103A442944204625F0FFF90135454534
:102A8C00EFD10137612FE2D10127DFF8D09040F26E
:102A9C0026283B0289FB0312DE17C6EB2216B60072
:102AAC0006F4787600253146204625F088FBB4F8EC
:102ABC00EA203A44B4F8E81060322944204625F064
:102ACC00DCF901354545EED10137612FE1D1012704
:102ADC00DFF8889040F226283B0289FB0312DE17B0
:102AEC00C6EB2216C6F3C40600253146204625F057
:102AFC0066FBB4F8EA203A44B4F8E810C032294432
:102B0C00204625F0BAF901354545EED10137612F44
:102B1C00E2D147F6E071204625F051FB0999204699
:102B2C0024F082FC24F0E4FE014E0D4F31E000BF96
:102B3C0018197CA04457060018F10300C4F00300D8
:102B4C005B2600005435050020197CA0FCFF030017
:102B5C00B5260000ABAAAAAA34F10300ABAAAA2A94
:102B6C0014197CA00021C2F80C11106E2CF0F9FF86
:102B7C00604B1B684FF0FF32C3F80421306811AA78
:102B8C0000F1640124F08AFC3468D4F80431002B81
:102B9C003CD13368D3F8E420002A40F0A6804FF4EF
:102BAC00FA7211A938682BF0E4FC0028ECD1129BC6
:102BBC001693139B159315AA16A9306825F006FBDE
:102BCC00149B012BDAD13268159BB2F8F2109942A2
:102BDC00D4DCB2F8F6108B42D0DC1699B2F8F000C7
:102BEC008842CBDCB2F8F4008142C7DCB2F8FE00BC
:102BFC008342B7DCC11AD2F8103103FB01F1431C3C
:102C0C00B2F8FA001B1AB1FBF3F1ACE70121204634
:102C1C0025F0C5FDB4F8F880B4F8FAB0B4F8FC901F
:102C2C00B4F8FEA004F5887204F58671206E2CF0C1
:102C3C00A5FFAAEB0B02D4F80C3102FB0333D4F83A
:102C4C001021B3FBF2F5AAEB0505D4F808319D422F
:102C5C002CD08BBB0121204625F0B6FA47F6E0714B
:102C6C00204625F0ACFACDF800A04B465A4641461A
:102C7C00204625F00FFAC4F808510021204625F013
:102C8C00A3FA47F6E071204625F099FA0021204678
:102C9C0025F097FAD4F80821531D009309F10F037E
:102CAC00053AA8F10F01204625F0F4F9114B1B68E9
:102CBC000022C3F804216CE70021204625F084FA99
:102CCC000021204625F07BFA0021204625F079FAD8
:102CDC00D4F80821531D009309F10F03053AA8F10C
:102CEC000F01204625F0D6F9B4E7186E2CF0F9FE4A
:102CFC005BE500BF18197CA0F0B583B006460C4606
:102D0C0015464FF4F843019302F10803009301F1C7
:102D1C000803083A083924F045FE00270197AB1D3B
:102D2C000093A31DAA1FA11F304624F03BFE47F6BB
:102D3C00FF7301932B1D0093231D2A1F211F304667
:102D4C0024F030FE0197AB1C0093A31CAA1EA11EFD
:102D5C00304624F027FE03B0F0BD000010B5A2B041
:102D6C0021A93F482CF0ADFE08B122B010BD21982E
:102D7C002CF0DFFE4FF4807121982CF0F2FE24F041
:102D8C00A3FD20AA002121982CF0B7FE4FF4F843A4
:102D9C0007930023069347F6E072059202220492F1
:102DAC0040F2DF12039240F21F3202920193009321
:102DBC00209B4FF4F0724FF4487108A825F0C4F929
:102DCC00284908A825F08CFC1F22274908A825F0C3
:102DDC009AFC08A825F086FC84B2244B1B78012BA6
:102DEC0023D023464FF44872214908A825F050FC03
:102DFC0063004FF448721F4908A825F049FCC4F140
:102E0C0078039B004FF448721B4908A825F040FC3E
:102E1C00A4EB840404F5F0734FF44872174908A826
:102E2C0025F036FC24F064FD9FE723464FF44872EE
:102E3C00134908A825F02CFCC4F178039B004FF42F
:102E4C0048720D4908A825F023FCA4EB840404F572
:102E5C00F0734FF44872094908A825F019FCE1E712
:102E6C0084F003004457060048F103002C197CA0A1
:102E7C00C8F10300ECF1030088F10300ACF103008E
:102E8C0060F103002DE9F04F97B003901446002336
:102E9C004FF0FF36DFF874B29D4A10320992089653
:102EAC008A469C4A137050462DF07CF81CB99A4BFC
:102EBC001B68032B10D0FFF751FF954FDFF858829A
:102ECC00002304931D46A6E001234FF0FF34E8E7EE
:102EDC0001234FF0FF34E4E7904D8D4A29465046CC
:102EEC002DF078F8099A05F1100150462DF072F882
:102EFC00874B03F1200205F1200150462DF06AF8B2
:102F0C0050462DF05BF80646DBF800300894DBF8F1
:102F1C0000304BB9002ED7D1089B002BD8D17E4B5B
:102F2C0000229A6402F02EFD17B0BDE8F08F1395C5
:102F3C00149509F1010932202BF0C0F8B9F1030FF7
:102F4C001CD812A950462CF0D9FF0028F3D1DBF87D
:102F5C000030B3F1FF3FEAD0129B13F0010F09D000
:102F6C00029B002BE7D0139B1E44149B1C4409F1BD
:102F7C000109E0E74FF0FF330293DCE7B6FBF9F60B
:102F8C001396B4FBF9F4149412AC079A21465046EC
:102F9C002DF020F808F1040694E80F0086E80F00E5
:102FAC00049E741C5C4B1C60FFF744FBBDF81410B2
:102FBC00BDF81820019502F10803009301F10803F4
:102FCC00083A0839039824F0EDFC26B1DBF8003000
:102FDC00DBB932260FE0FFF7C1FEDBF80030002B27
:102FEC00F7D0103708F1100814E030462BF066F8D3
:102FFC00DBF800304BB912A950462CF07FFF0028AB
:10300C00F3D1129B13F0010FEFD1032C73D01037B7
:10301C0008F11008049407977B680593BA68069228
:10302C0092B299B20398FFF767FE0295A9462C4617
:10303C002E4686E7DFF8E8900DF128083225029637
:10304C00049417E028462BF039F812A950462CF0BE
:10305C0055FF0028F6D1129B13F0010FF2D14FF45B
:10306C0096702BF02BF809F1100908F1100812AB2F
:10307C00984524D0D9F80460D9F80870BAB2B1B226
:10308C000398FFF739FE4446214650462CF036FF94
:10309C000028F9D1236813F0010FF5D0FFF7CAFA15
:1030AC00B1B2BAB20023019302F10803009301F10B
:1030BC000803083A0839039824F074FCC5E7029E0B
:1030CC00049C0B9BA3F2D623302B3FF620AF0C9B1A
:1030DC00A3F5CB73302B3FF61AAF0F9BA3F5BC7344
:1030EC00302B3FF614AF109BD83B089A302B98BF6F
:1030FC00224608920BE750462CF060FF0646DBF8A0
:10310C000040002C96D00023089300E708197CA0FF
:10311C0030F203002C197CA0C0197CA0C4197CA02F
:10312C0010F2030010B584B00446184A1021012097
:10313C002BF049F910B1002004B010BD134A03A9BB
:10314C0013482CF071FF20B1104B18682BF05EF96E
:10315C00F1E702A90F482CF0B4FC28B10B4B19680D
:10316C0003982CF0C2FFEFE701AA002102982CF083
:10317C00C4FC094B9B6C002B0CBF22464FF0FF325A
:10318C0003990198FFF77EFEE8E700BF28197CA0A1
:10319C0088F0030084F00300C0197CA030B587B020
:1031AC00002205A911482CF03FFFE0B90524322577
:1031BC0001A905982CF0A2FE019B13F0010F10D071
:1031CC0028462AF07BFF013CF2D14FF0FF3400215E
:1031DC0005982CF08AFF0A202AF070FF204607B0D1
:1031EC0030BD0024F3E74FF0FF34F7E788F003001D
:1031FC0008B54FF0FF30FFF795FF08BD014B0122DA
:10320C001A60704738197CA010B582B00A4C0B4B71
:10321C001988204624F0D5FF47F6E071204624F0AB
:10322C00CEFF51230093A12312222221204624F009
:10323C0031FF02B010BD00BF3C197CA0140000107F
:10324C0008B5084B1B780133DBB2062B28BF0023D3
:10325C00044A1370044A32F81320044B1A80FFF707
:10326C00D3FF08BD34197CA010F403001400001027
:10327C002DE9F04786B081466C482CF0CDFD824696
:10328C006B4C0121204624F09FFF47F6E07120464D
:10329C0024F095FFB9F806300093B9F80430B9F86A
:1032AC000220B9F80010204624F0F4FE05AA0321F0
:1032BC0060482BF043FD002849D1D04613275C4EC3
:1032CC004546CF240494039703AA04A9304624F05E
:1032DC0087FF012300932B46039A0499304625F06F
:1032EC005BF80235013440F25F239C42EAD108F5C9
:1032FC004878013740F2A3139F42E1D102AB4B4A0D
:10330C00514605982BF08AFD18B1484B029A9A4207
:10331C0055D105982BF04AFD454C0121204624F04F
:10332C0053FF0021204624F04AFFB9F806300093E1
:10333C00B9F80430B9F80220B9F80010204624F08E
:10334C00A9FE50462CF06CFD06B0BDE8F087064691
:10335C0005AA032138482BF0F1FC04460028ACD018
:10336C00364B1968364A01F53B2000F5006024F015
:10337C00E0FCFFF765F92E4D0021284624F024FFD0
:10338C000021284624F01DFF47F6E071284624F062
:10339C0016FF2223009340F25F231222CE212846EF
:1033AC0024F078FE092E0DD00D2E27D10D2C1ED019
:1033BC001423D02223491E4825F05FF924E0FFF79F
:1033CC003FF9A6E70D2C0BD0092C4FF014034FF04E
:1033DC00D0020CBF1C491D49154825F04EF913E0CD
:1033EC001423D0221A49284625F047F90CE014235F
:1033FC00D02218490E4825F040F905E01423D022BC
:10340C0015490B4825F039F90121094824F0DCFE57
:10341C004FF4FA602AF052FE084B1868084A00F57F
:10342C003B2101F5006124F084FC75E700E2040007
:10343C003C197CA080F203008CF203002C040010D9
:10344C0000B80B0024F30300BCF20300E4F2030009
:10345C0098F2030004F3030040F303002DE9F04F4E
:10346C0089B005468B482CF0D7FC81468A4C01214B
:10347C00204624F0A9FE47F6E071204624F09FFE7A
:10348C00EB880093AB886A882988204624F002FEDA
:10349C0007AA012181482BF051FC804640B107AAB4
:1034AC0001217F482BF04AFC0446002840F097800D
:1034BC0004AB784A494607982BF09AFC04460798C7
:1034CC002BF074FC4CB1734B049A9A4202D1CA464D
:1034DC00132704E0FFF7B4F82AE0CA4613276E4E10
:1034EC00CDF80C90A3465246AA46951ECF24914681
:1034FC000694059705AA06A9304624F071FE35F806
:10350C00023F059A0699304624F074FE013440F2CD
:10351C005F239C42ECD109F54872013740F2A313AA
:10352C009F42E2D1DDF80C905C465546002C3FD012
:10353C005C4B19685C4A01F53B2000F5006024F0F7
:10354C00F8FBFFF77DF8544C0021204624F03CFE9C
:10355C000021204624F035FE47F6E071204624F089
:10356C002EFE2223009340F25F231222CE2120460E
:10357C0024F090FDB8F1090F76D0B8F10D0F00F0E2
:10358C0081801423D0224949434825F076F8012143
:10359C00414824F019FE4FF4FA602AF08FFD414B9C
:1035AC001868414A00F53B2101F5006124F0C1FB8C
:1035BC00394C0121204624F007FE0021204624F03E
:1035CC00FEFDEB880093AB886A882988204624F09E
:1035DC0061FD48462CF024FC09B0BDE8F08F314B5E
:1035EC001968314A01F53B2000F5006024F0A1FB7D
:1035FC00FFF726F8284E0021304624F0E5FD002187
:10360C00304624F0DEFD47F6E071304624F0D7FD5D
:10361C002223009340F25F231222CE21304624F065
:10362C0039FDB8F1090F0DD0B8F10D0FA9D10D2C42
:10363C0021D0092C26D11423D0221D49164825F05F
:10364C001CF8A4E70D2C08D0092C0DD11423D02282
:10365C001849114825F011F899E71423D02216497E
:10366C00304625F00AF892E71423D02212490A4872
:10367C0025F003F88BE71423D0221049064824F0D8
:10368C00FCFF84E71423D0220C49034824F0F5FFF7
:10369C007DE700BF00E204003C197CA080F203002F
:1036AC008CF203002C04001000B80B00E8F30300AC
:1036BC00C4F3030074F3030050F30300A4F30300FA
:1036CC00A0F1CF0CBCF5C87F1AD2A1F1130CBCF53C
:1036DC00C87F15D2A2F1CF0CBCF5C87F10D2A3F1D4
:1036EC00130CBCF5C87F0BD200B583B00093134606
:1036FC000A460146034824F0D3FB03B05DF804FBF3
:10370C00704700BF3C197CA008B5A0F1CF03B3F5FE
:10371C00C87F09D2A1F11303B3F5C87F04D20A46BE
:10372C000146024824F0A9FB08BD00BF3C197CA04F
:10373C0070B58AB009AA00212CF0DFF924F0C4F886
:10374C001E4C4FF4F84307930025069547F6E07698
:10375C0005960223049340F2DF13039340F21F33C8
:10376C00029301950095099B4FF4F0724FF4487148
:10377C00204624F0E9FC1249204624F0B1FF1F2218
:10378C001049204624F0BFFF3146204624F017FD97
:10379C000D49204623F048FE2946204624F011FD11
:1037AC0040F2A313009340F25F231222CE21204655
:1037BC0024F070FC24F09CF80AB070BD3C197CA07D
:1037CC0044570600F4F3030034F403002DE9F04FE2
:1037DC0091B0854B00221A60844A102101202AF0F6
:1037EC00F2FD10B111B0BDE8F08F804A0EA98048EF
:1037FC002CF01AFC20B17D4B18682AF007FEF1E77B
:10380C000FA97C482CF05DF928B1784B19680E98FB
:10381C002CF06BFCEFE70BAA00210F982CF06DF944
:10382C000F98FFF785FFFFF7EFFC4FF0FF313020CB
:10383C0004F07CFC0026B246B0466B4C6B4D2768FE
:10384C00002F40F0CD804FF0FF3207A928682AF0F6
:10385C0090FE0028F3D1089B0D93099B0C930CAAA6
:10386C000DA9654824F0B2FC0D9BCF3BB3F5C87F86
:10387C0080F0AC800C9B133BB3F5C87F80F0A68026
:10388C000A9B012B01D0B846D9E72CF0B7FA5B4B59
:10389C001988002940F08580574824F090FCB8F135
:1038AC00000F50D0DDF834900C9F0AF1FF308046A9
:1038BC00711E09F1FF3B7B1E02935A460591FFF7DF
:1038CC00FFFE3B465A463146CDF810804046FFF786
:1038DC00F7FE721C114607F1010843465A46039144
:1038EC000498FFF7EDFE029B4A46DDF814B05946EA
:1038FC005046FFF7E5FE3B464A4631465046FFF739
:10390C00DFFE43464A4603995046FFF7D9FE0AF1BB
:10391C00010A09F10109029B4A4659465046FFF734
:10392C00CFFE3B464A4631465046FFF7C9FE43465A
:10393C004A4603995046FFF7C3FEDDF834A00C9EAF
:10394C004FF0FF387BE70D9E0C9F06F1FF3A07F115
:10395C00FF3949465046FFF7D7FE39465046FFF728
:10396C00D3FE07F1010841465046FFF7CDFE49460C
:10397C003046FFF7C9FE39463046FFF7C5FE4146D3
:10398C003046FFF7C1FE013649463046FFF7BCFE14
:10399C0039463046FFF7B8FE41463046FFF7B4FED5
:1039AC00CBE7154824F00BFCB8F1000F08D00C9BAA
:1039BC0000930D9B324651460F4824F071FABCE738
:1039CC000C9A0D990C4824F058FAB6E707AA0C4942
:1039DC00094823F063FD0A9B002B08BFB8462EE76D
:1039EC000F982CF07EF810E738197CA030197CA0C9
:1039FC0088F0030084F003003C197CA01400001034
:103A0C0034F4030070B505460C46B2F5004F2ED0C9
:103A1C00102A41D0002A3ED1486E2AF01BFEB0F588
:103A2C007A7F38D32AF00AFE606604F1680201211D
:103A3C006E482BF083F9002832D1AB686C4A022116
:103A4C0020469847A06E2BF0B1F9002302221946AC
:103A5C002046EE68B0472B69022120469847654BFB
:103A6C001A889B78A4F8022184F8043113E0836847
:103A7C00614A002120469847AB68604A01212046E4
:103A8C009847AB685E4A0221204698472AF0D6FD3B
:103A9C0060660023E36670BD436908469847FAE701
:103AAC00031F0C2B00F28680DFE803F0358484843E
:103ABC0084580784844984846700AB68514A022186
:103ACC0020469847504B07CBC4F80201C4F80611A6
:103ADC00C4F80A211A889B78A4F80E2184F81031B6
:103AEC00E36E0133E3660E2BD5D9AB68474A02214E
:103AFC00204698470023032219462046EE68B0471B
:103B0C002B69032120469847414B03CBC4F8020193
:103B1C00C4F80611BFE7AB683E4A0221204698471D
:103B2C003D4B07CBC4F80201C4F80611C4F80A21B6
:103B3C001A889B78A4F80E2184F81031D0E7AB6872
:103B4C00364A022120469847354B03CBC4F8020174
:103B5C00C4F806111B88A4F80A31C1E7AB68314AD6
:103B6C00022120469847304B03CBC4F80201C4F81D
:103B7C0006111B88A4F80A31B2E7AB682B4A022164
:103B8C00204698472A4E0FCEC4F80201C4F80611FD
:103B9C00C4F80A21C4F80E31337884F812310023AA
:103BAC00032219462046EE68B0472B6903212046B4
:103BBC00984795E7AB681D4A0221204698471D4B54
:103BCC0007CBC4F80201C4F80611C4F80A211B88FB
:103BDC00A4F80E310023032219462046EE68B047A4
:103BEC002B690321204698477AE700BF34F5030080
:103BFC0048F503005CAF0500D4F40300F0F40300B7
:103C0C0024F5030060F5030080F503004CF6030077
:103C1C0064F6030090F50300B0F50300C0F5030053
:103C2C00DCF50300E8F5030004F6030010F60300CE
:103C3C0028F603003CF60300B2F5004F00D07047A5
:103C4C0038B505460C46002184F86C108368264A6A
:103C5C002046984704F1640124482AF0D3FFC8B1E8
:103C6C00AB68234A002120469847002303221946BB
:103C7C002046D5F80CC0E0472B6903212046984715
:103C8C001C4B03CBC4F80201C4F806111B88A4F822
:103C9C000A3138BD04F16801606E2AF09FFF0028DC
:103CAC00DED1A06E03685B6940F6C41204F17001AA
:103CBC0098470028D4D1AB680F4A0021204698477A
:103CCC000023022219462046D5F80CC0E0472B6988
:103CDC00022120469847094B1A889B78A4F80221A8
:103CEC0084F80431D5E700BF6CF60300D8F003006C
:103CFC0088F60300B0F60300BCF603005CAF0500C9
:103D0C00F0B583B005460C46B2F5004F5ED0002AE4
:103D1C007AD1886E03681B6901A99847002840F086
:103D2C008380019A636F9342B8BF6267236F9A4294
:103D3C00B8BF226782EAE273A3EBE273C3F34233A8
:103D4C00C3EB431103EB810604F1780733461214DD
:103D5C005D4938462EF046FEAB683A4600212046B7
:103D6C009847C8202AF0AAF9E36E0133E366052BC5
:103D7C004AD9226FB2F5702F69DA019282EAE273A6
:103D8C00A3EBE273C3F34233C3EB431103EB8106A2
:103D9C00334612144D4938462EF024FEAB683A4691
:103DAC00002120469847EF6800230322194620463D
:103DBC00B8472B690321204698473346BDF90620A6
:103DCC00434904F581702EF00DFE1DE08368414AD5
:103DDC0000212046984704F164013F482AF012FF65
:103DEC00A0B1EE680023032219462046B0472B6988
:103DFC00032120469847394B03CBC4F80201C4F881
:103E0C0006111B88A4F80A3103B0F0BD04F1680157
:103E1C00606E2AF0E3FE0028E3D14FF4C813236749
:103E2C0063670023E366EFE7EE680023032219467D
:103E3C002046B0472B69032120469847284B07CBD7
:103E4C00C4F80201C4F80611C4F80A21DCE7626F59
:103E5C00B2F5201F24DD0192C2F34233C3EB4311B0
:103E6C0003EB8106334612141E4938462EF0BAFD78
:103E7C00AB683A46002120469847EF68002303229E
:103E8C0019462046B8472B690321204698473346EC
:103E9C00BDF90620144904F581702EF0A3FDB3E79B
:103EAC00EF680023022219462046B8472B690221ED
:103EBC00204698473346BDF906200C4904F581701D
:103ECC002EF090FDA0E700BF10F7030034F70300BD
:103EDC0060F70300E0F60300FCF6030004F60300B1
:103EEC0004F7030074F70300A0F70300B0F7030016
:103EFC00F0B58BB005460C46164669466D482AF05F
:103F0C0081FE58B1EE680023032219462046B047C3
:103F1C002B690321204698470BB0F0BD01A90098EE
:103F2C002AF05CFE002832D1B6F5004F3AD0002EB4
:103F3C00F2D120263246002102A82EF0B7FE0198BD
:103F4C0003685F69334602AA4121B847002800F094
:103F5C008A80EE680023032219462046B0472B695D
:103F6C00032120469847544B03CBC4F80201C4F8F4
:103F7C0006111A889B78A4F80A2184F80C31019850
:103F8C0003689C6920234D4A4121A047C4E7EE6891
:103F9C000023032219462046B0472B6903212046F3
:103FAC009847B9E7AB68464A0021204698470198E4
:103FBC0003685E692023414A4121B047B0B1EE68E5
:103FCC000023032219462046B0472B6903212046C3
:103FDC009847394B03CBC4F80201C4F806111A8870
:103FEC009B78A4F80A2184F80C3195E72022AA21A9
:103FFC0002A82EF05BFE019803689E69202302AA9A
:10400C004121B04706462022552102A82EF04EFE33
:10401C00AEB101238DF80830EE6800230322194657
:10402C002046B0472B69032120469847254B07CBE8
:10403C00C4F80201C4F80611C4F80A216CE701980F
:10404C0003689E69142302AA4321B04701238DF80B
:10405C0008300028E0D1019803689C69012302AA6A
:10406C004621A04758E7202202A917482EF01BFC36
:10407C0050B9EE680023022219462046B0472B693E
:10408C000221204698477AE7EE680023032219465E
:10409C002046B0472B690321204698470B4B07CB92
:1040AC00C4F80201C4F80611C4F80A211B7884F87C
:1040BC000E3164E7BCF70300D8F703009C197CA011
:1040CC00C4F70300E4F7030040FC0300F0F703001F
:1040DC0003460120186000BF00BF00BF00BF00BF37
:1040EC0000BF00BF00BF00BF00BF00BF00BF00BFCC
:1040FC0000BF00BF00BF00BF00BF00BF00BF00BFBC
:10410C0000BF00BF00BF00BF00BF00BF00BF00BFAB
:10411C0000BF00BF00BF00BF00BF00BF00BF00BF9B
:10412C0000BF00BF00BF00BF00BF00BF00BF00BF8B
:10413C0000BF00BF00BF00BF00BF00BF00BF00BF7B
:10414C0000BF00BF00BF00BF00BF00BF00BF00BF6B
:10415C0000BF00BF00BF00BF00BF00BF00BF00BF5B
:10416C0000BF00BF00BF00BF00BF00BF00BF00BF4B
:10417C0000BF00BF00BF00BF00BF00BF00BF00BF3B
:10418C0000BF00BF00BF00BF00BF00BF00BF00BF2B
:10419C0000BF00BF00BF00BF00BF00BF00BF00BF1B
:1041AC0000BF00BF00BF00BF00BF00BF00BF00BF0B
:1041BC0000BF00BF00BF00BF00BF00BF00BF00BFFB
:1041CC0000BF00BF00BF00BF00BF00BF00BF00BFEB
:1041DC0000BF00BF00BF00BF00BF00BF00BF00BFDB
:1041EC0000BF00BF00BF00BF00BF00BF00BF00BFCB
:1041FC0000BF00BF00BF00BF00BF00BF00BF00BFBB
:10420C0000BF00BF00BF00BF00BF00BF00BF00BFAA
:10421C0000BF00BF00BF00BF00BF00BF00BF00BF9A
:10422C0000BF00BF00BF00BF00BF00BF00BF00BF8A
:10423C0000BF00BF00BF00BF00BF00BF00BF00BF7A
:10424C0000BF00BF00BF00BF00BF00BF00BF00BF6A
:10425C0000BF00BF00BF1A68824202D140007FF449
:10426C0039AF7047F0B502468908013911F0010EDB
:10427C003CD073464FF0AA3042F823005B00194241
:10428C00FAD14FF055331360734602EB830052F8AA
:10429C002340B4F1AA3F14D15B001942F5D14FF081
:1042AC00AA331360F4464FF055361F4610E05B00FE
:1042BC00194207D052F82340B4F1AA3FF7D0634516
:1042CC00F5D0F0BD57514FEA4C0C11EA0C0F0BD046
:1042DC004FEA8C0502EB8C0042F82C601368B3F1AA
:1042EC00AA3FEED17346E5E70020EAE74FF05533DD
:1042FC0003604FF0AA3303600020E2E7032928D9BA
:10430C0010B502464FEA910C8646012340F8043B57
:10431C009C4503F10103F9D8012300E00B4610463C
:10432C001168994214D1D94342F8041B591C9C457D
:10433C00F4D800236FF001047046DEF80010E21A86
:10434C00914205D101330EF1040E9C45F4D80020A6
:10435C0010BD002070470000B2F5004F00D0704730
:10436C0070B505460C4683682A4A002120469847BA
:10437C0028F09AFE4FF02040FFF7AAFE064628F0E0
:10438C00ADFEB6B1AB68244A012120469847002304
:10439C00032219462046D5F80CC0E0472B690321AF
:1043AC002046984732461D4904F581702EF01AFBC1
:1043BC0070BD28F079FE4FF400014FF02040FFF75C
:1043CC0051FF064628F08AFE002EDBD128F06CFE49
:1043DC004FF400014FF02040FFF790FF064628F005
:1043EC007DFE002ECED1AB680D4A012120469847A8
:1043FC00EE680023022219462046B0472B690221A1
:10440C00204698474FF40002064904F581702EF0BF
:10441C00E9FACDE700F803002CF8030044F8030098
:10442C0014F8030024F80300F0B5C3B006460C469C
:10443C0015468368534A012120469847524B03CBBB
:10444C00C4F80201C4F806111B88A4F80A3141AA69
:10445C00102128462AF0B1FD002874D104F581778B
:10446C00419B512B03D040F2E93043B0F0BD41AA3F
:10447C00112128462AF0A1FD002867D1419B522B1F
:10448C0002D040F2E930F0E741AA122128462AF086
:10449C0094FD00285DD1419B592B02D040F2E930AC
:1044AC00E3E73A4B07CBC4F802017960BA60B36812
:1044BC00374A0121204698474FF480224FF4E001FF
:1044CC0028462AF06BFD002846D1802301AA4FF420
:1044DC00E00128462AF040FD002840D101AB21A97B
:1044EC0013F8012BFF2A3DD18B42F9D1294B07CB75
:1044FC00C4F802017960BA60B368274A01212046EA
:10450C0098470623254A264928462AF036FD60BBE3
:10451C000623244A244928462AF02FFD40BB802339
:10452C0001AA1F4928462AF017FD20BB0C221F495F
:10453C0001A82EF0B8F908BB1D4B1A889B78A4F87B
:10454C000221BB7091E740F2E9308EE740F2E9308E
:10455C008BE740F2E93088E740F2EA3085E740F239
:10456C00EA3082E740F2EB307FE74FF47B707CE778
:10457C004FF47B7079E74FF47B7076E74FF47B70E8
:10458C0073E700BF4CF8030004F603005CF803006B
:10459C0068F8030078F8030084F8030094F803002B
:1045AC00FCFF71009CF8030002007200A4F80300E9
:1045BC005CAF0500F0B591B000230193ADF8083065
:1045CC00B2F5004F01D011B0F0BD05460C46836822
:1045DC001E4A0021204698470FA91D482AF0A0FC2E
:1045EC00C8B903A90F982AF0F7FC039B0F9A214630
:1045FC002846FFF719FF06460F982AF0A1FC66B96A
:10460C00EE680023022219462046B0472B6902218E
:10461C0020469847D7E74FF47A7604F16407C6F33F
:10462C000E020C4938462EF0DDF9AB683A460221F1
:10463C0020469847EE680023032219462046B047CF
:10464C002B69032120469847BDE700BFB4F803004F
:10465C00D4F80300DCF8030030B583B005460C46F3
:10466C00B2F5004F2FD0102A48D0002A44D1486E02
:10467C0029F0F0FFB0F57A7F3ED329F0DFFF6066BA
:10468C0004F16802012165482AF058FB002839D151
:10469C00AB68634A022120469847A06E2AF086FB3D
:1046AC000023022219462046D5F80CC0E0472B699E
:1046BC000221204698475B4B1A889B78A4F802216C
:1046CC0084F8043118E08368574A00212046984743
:1046DC00AB68564A012120469847AB68544A0221E0
:1046EC002046984701A953482AF09EF80023E36618
:1046FC00236729F0A3FF606603B030BD4369084609
:10470C009847F9E7031F092B51D8DFE803F01E5037
:10471C005050504105505032AB68474A0221204658
:10472C009847464B07CBC4F80201C4F80611C4F8ED
:10473C000A211A889B78A4F80E2184F81031236F73
:10474C005A1C042B47D02267D6E7AB683C4A02219F
:10475C00204698473B4B07CBC4F80201C4F806111E
:10476C00C4F80A211A889B78A4F80E2184F8103119
:10477C00E5E7AB68344A022120469847334B03CB1C
:10478C00C4F80201C4F806111B88A4F80A31D6E754
:10479C00AB682F4A0221204698472E4B03CBC4F816
:1047AC000201C4F806111B88A4F80A31C7E7AB68EC
:1047BC001F4A022120469847274B07CBC4F8020119
:1047CC00C4F80611C4F80A211A889B78A4F80E21A3
:1047DC0084F81031B3E700232367E36E0133E366FB
:1047EC00062B16D1AB681D4A0221204698470023A0
:1047FC00032219462046D5F80CC0E0472B6903214B
:10480C0020469847164B03CBC4F80201C4F8061196
:10481C0072E701A907482AF007F86DE74CF9030085
:10482C0048F503005CAF0500F0F8030010F9030035
:10483C0024F503003CF9030060F5030080F5030048
:10484C0090F50300B0F50300C0F50300DCF50300A0
:10485C00E8F5030004F603005CF903004CF60300D2
:10486C0064F6030030B583B005460C46B2F5004F34
:10487C002FD0102A48D0002A44D1486E29F0EAFEE5
:10488C00B0F57A7F3ED329F0D9FE606604F1680258
:10489C00012165482AF052FA002839D1AB68634AE5
:1048AC00022120469847A06E2AF080FA00230222AB
:1048BC0019462046D5F80CC0E0472B69022120464A
:1048CC0098475B4B1A889B78A4F8022184F8043132
:1048DC0018E08368574A002120469847AB68564A2F
:1048EC00012120469847AB68544A0221204698473C
:1048FC0001A9534829F098FF0023E366236729F0A8
:10490C009DFE606603B030BD436908469847F9E7E1
:10491C00031F092B51D8DFE803F01E5050505041B3
:10492C0005505032AB68474A022120469847464B07
:10493C0007CBC4F80201C4F80611C4F80A211A887E
:10494C009B78A4F80E2184F81031236F5A1C042B89
:10495C0047D02267D6E7AB683C4A022120469847ED
:10496C003B4B07CBC4F80201C4F80611C4F80A216A
:10497C001A889B78A4F80E2184F81031E5E7AB680F
:10498C00344A022120469847334B03CBC4F802012A
:10499C00C4F806111B88A4F80A31D6E7AB682F4A75
:1049AC000221204698472E4B03CBC4F80201C4F8D1
:1049BC0006111B88A4F80A31C7E7AB681F4A02210D
:1049CC0020469847274B07CBC4F80201C4F80611C0
:1049DC00C4F80A211A889B78A4F80E2184F81031A7
:1049EC00B3E700232367E36E0133E366062B16D18E
:1049FC00AB681D4A02212046984700230322194622
:104A0C002046D5F80CC0E0472B6903212046984777
:104A1C00164B03CBC4F80201C4F8061172E701A9C6
:104A2C00074829F001FF6DE74CF9030048F5030036
:104A3C005CAF05006CF9030010F9030024F50300CA
:104A4C008CF9030060F5030080F5030090F503007A
:104A5C00B0F50300C0F50300DCF50300E8F5030036
:104A6C0004F603005CF903004CF6030064F6030043
:104A7C00B2F5004F00D070472DE9F04F8BB00646D1
:104A8C000C468368744A00212046984703A9734852
:104A9C002BF017F809A9724829F0E8FE00B3B368A7
:104AAC00704A002120469847F568002303221946D6
:104ABC002046A84733690321204698476A4B03CB0D
:104ACC00C4F80201C4F806111B88A4F80A3109982D
:104ADC0029F0D7FE03982BF004F80BB0BDE8F08F4B
:104AEC00002305930A238DF8183001238DF8193013
:104AFC0004AB089305A9099829F0CAFED8B1B3688C
:104B0C005A4A002120469847F5680023032219468B
:104B1C002046A8473369032120469847544B03CBC2
:104B2C00C4F80201C4F806111A889B78A4F80A216B
:104B3C0084F80C31CBE7049B642202FB03F74D4B4A
:104B4C00A3FB07373F0A04EB020B00233A464A4902
:104B5C0058462DF047FFB3685A4600212046984727
:104B6C0004F5817800233A46444940462DF03AFF3B
:104B7C00A7F15003282B0FD9F568002303221946FF
:104B8C002046A84733690321204698473A463C49BA
:104B9C0040462DF027FF9AE703982AF0D6FF002114
:104BAC0003982AF0DEFF642029F088FA05A90998F9
:104BBC0029F06EFE049B642202FB03F31A46019358
:104BCC002C4BA3FB02394FEA192903982AF0B1FFA9
:104BDC0000254FF00A0A294603982AF0C2FF5046D6
:104BEC0029F06CFA0235B5F5807FF4D14B463A4684
:104BFC00214958462DF0F6FEB3685A46002120464E
:104C0C0098474B463A461D4940462DF0EBFE019B1A
:104C1C00B3F5994F0FD3F5680023032219462046AC
:104C2C00A84733690321204698474A461549404610
:104C3C002DF0D8FE4BE7F5680023022219462046DA
:104C4C00A84733690221204698474B463A460B4900
:104C5C0040462DF0C7FE3AE79CF9030084F00300B0
:104C6C00B4F90300BCF9030004F60300E0F90300F7
:104C7C0004FA0300ABAAAAAA10FA03003CFA030038
:104C8C0048FA030058FA0300B2F5004F00D0704701
:104C9C00F0B587B005460C468368404A0021204693
:104CAC00984705A93E4829F0E1FDE0B1AB683D4AC3
:104CBC000021204698470023032219462046EE681F
:104CCC00B0472B69032120469847374B03CBC4F8D8
:104CDC000201C4F806111B88A4F80A31059829F0C2
:104CEC00D0FD07B0F0BD022301930A238DF80830E4
:104CFC0001238DF80930CDF810D001A9059829F0C1
:104D0C00C7FDD8B1AB68294A002120469847EE6808
:104D1C000023032219462046B0472B690321204665
:104D2C009847234B03CBC4F80201C4F806111A8828
:104D3C009B78A4F80A2184F80C31CFE7009B6422FD
:104D4C0002FB03F31B4EA6FB03269B1B06EB530631
:104D5C00760A04F164073246174938462DF042FEB4
:104D6C00AB683A46002120469847503E282E0AD977
:104D7C00EE680023032219462046B0472B69032115
:104D8C0020469847AAE7EE680023022219462046DF
:104D9C00B0472B690221204698479FE768FA030029
:104DAC00B4F903007CFA030004F603009CFA030038
:104DBC0004FA030025154052C0FA030000B583B075
:104DCC000023019340B1431E062B09D8DFE803F002
:104DDC000C11161B20252A0001A9154829F024FDC9
:104DEC00019803B05DF804FB01A9124829F01CFDE1
:104DFC00F6E701A9104829F017FDF1E701A90F48C2
:104E0C0029F012FDECE701A90D4829F00DFDE7E7AB
:104E1C0001A90C4829F008FDE2E701A90A4829F08C
:104E2C0003FDDDE701A9094829F0FEFCD8E700BF26
:104E3C00D8FA0300E0FA0300E8FA0300F0FA0300E2
:104E4C00F8FA030000FB030008FB030010FB03004F
:104E5C0082B02DE9F04F8FB080468B4616461993E1
:104E6C001C9D8368A04A0121584698479F4B03CB51
:104E7C00CBF80201CBF806111B88ABF80A310DAA4E
:104E8C00102130462AF099F8002840F01B810BF5D0
:104E9C00817A0D9B512B06D040F2E9300FB0BDE862
:104EAC00F04F02B070470DAA112130462AF085F858
:104EBC00002840F00A810D9B522B02D040F2E930C1
:104ECC00ECE70DAA122130462AF077F8002840F0C2
:104EDC00FF800D9B592B40F0FE8000240794CDF8E9
:104EEC0010A00895C146059626465F4607F1640B4F
:104EFC0022467F4958462DF075FDD9F808305A46A0
:104F0C0001213846984700230393E3B206930B9490
:104F1C00039A784958462DF065FDD9F808305A4661
:104F2C00012138469847089B002B00F0B58019AB3F
:104F3C000A934FF000084546CDF82480DDF81CA0FC
:104F4C00099A6D4958462DF04DFDD9F808305A464E
:104F5C000121384698470A9B07935C69B44207D1F4
:104F6C00079B1B69002B00F089804344079341E0A9
:104F7C00624E23463246624958462DF033FDD9F82D
:104F8C0008305A46032138469847B246E8E7464669
:104F9C0035E0434600225B4958462DF023FDD9F8F5
:104FAC0008305A460121384698472A4656490498F3
:104FBC002DF018FD3CB10AF1FF33621E524403F888
:104FCC00016F9A42FBD122462946059E304629F0B4
:104FDC00E5FF002840F082802346524629463046A1
:104FEC0029F0CBFF00287CD108F101082544079B50
:104FFC00984542D0069B002BC9D088F0FF06039B36
:10500C00002BC6D04346039A404958462DF0EAFC83
:10501C00D9F808305A460121384698472A463C4967
:10502C0004982DF0DFFC234652462946059829F0BA
:10503C0093FF002CD8D00AF1FF325346601E504427
:10504C00944612F8011FB14202D18242F8D1CBE74B
:10505C004246C846D946C3F1010301910096634408
:10506C002C4948462DF0BEFCD8F808304A4602219F
:10507C003846984740F2014010E79846099B0133A7
:10508C0009930A9A08320A92089A9A4201D0264643
:10509C0056E7CDF81CA02646039B01330393022B45
:1050AC007FF436AF0B9C0134022C7FF41FAFDDF87C
:1050BC0010A0194B1A889B78A7F802218AF80230A5
:1050CC000020EBE640F2E930E8E640F2E930E5E6B4
:1050DC0040F2E930E2E640F2E930DFE642F24870B5
:1050EC00DCE642F24970D9E64CF8030004F6030002
:1050FC0018FB030024FB030034FB0300000040A05A
:10510C0040FB030060FB03008CFB0300A0FB0300CF
:10511C00CCFB0300E0FB03005CAF0500B2F5004FD5
:10512C0000D07047F0B59BB005460C468368264A04
:10513C0000212046984719A9244829F0F1FE40BBCC
:10514C000DA9199829F048FFEC460DF1380EBEE870
:10515C000F00ACE80F00BEE80F00ACE80F009EE8B3
:10516C0007008CE807000D9B199A21462846FFF78B
:10517C006FFE0646199829F0E3FE66B9EE68002327
:10518C00022219462046B0472B6902212046984737
:10519C0018E04FF47A7604F16407C6F30E020C495A
:1051AC0038462DF01FFCAB683A4602212046984742
:1051BC00EE680023032219462046B0472B690321D1
:1051CC00204698471BB0F0BD1CFC0300D4F803002C
:1051DC00DCF80300034B1B684FF0FF32C3F8D42BF1
:1051EC00704700BFBC197CA070B58AB0044622F091
:1051FC006BFB09AA002120462AF07FFC184C4FF4C7
:10520C00F84307930023069347F6E07605960222AF
:10521C00049240F2DF12039240F21F320292019389
:10522C000093099B4FF4F0724FF44871206822F000
:10523C008BFF0C4D2946206823F052FA1F220A4995
:10524C00206823F060FA3146206822F0B8FF294626
:10525C00206823F045FA22F04BFB0AB070BD00BF6A
:10526C00BC197CA04457060060FC03002DE9F047F4
:10527C0088B0DFF81C81D8F8000000F66424002503
:10528C00ADF81850ADF81A50C369ADF81C30036A6C
:10529C00ADF81E303F4923F023FAD8F8000023F074
:1052AC0021FA87B206AE0A21304622F0A7FC07F19C
:1052BC004602022392B26946304622F0C0FC04AB8F
:1052CC0096E8030083E80300D8F8002002F6CC32FD
:1052DC0082E803000221184622F090FC0437BFB28A
:1052EC00442F38BF44276826DFF8ACA0DFF8AC9019
:1052FC00D8F800301B6EAB422ED9BDF816300133F6
:10530C00BDF812209B1A9F4226DA01233A4602A9C5
:10531C0004A822F07AFCBDF808302380BDF80A30CE
:10532C006380BDF80C30A380BDF80E30E380D8F854
:10533C0000209119A160C4F80CA0C4F81090311F82
:10534C001144A1611649E1610233A2F8D23B013547
:10535C0020348036092DCBD10121684622F04EFC39
:10536C00BDF8003023807F33A380BDF8023063800A
:10537C003F33E3800B4BA3600B4BE3600B4B236180
:10538C000023A361E361A36208B0BDE8F08700BF0E
:10539C00BC197CA0445706001555000090D704009A
:1053AC00BD530000C4F00300E1510000543505006A
:1053BC0030B589B004460388ADF818304388ADF891
:1053CC001A308388ADF81C30C388ADF81E301C4DE4
:1053DC001C49286823F084F9286823F083F985B2E6
:1053EC00022106A822F0EEFB0223402204A906A803
:1053FC0022F03FFC236993B1BDF810300393BDF844
:10540C001230029302AA03A90D4B186822F0E8FE91
:10541C00BDF80820BDF80C10206922F0DDFA2A46F0
:10542C00694606A822F059FCBDF80230BDF80020F0
:10543C00A1680348006823F020F909B030BD00BF13
:10544C00BC197CA04457060070B586B022F03CFA1B
:10545C00284C2949206823F043F9206823F042F9AD
:10546C00054647F6E071206822F0A9FE002120686D
:10547C0022F0A7FE2068B0F8D03BB0F8CE2BB0F8E5
:10548C00CC1BB0F8D26B009622F004FE2068036EA1
:10549C0013BB90F8E03B102B28D0092B28D0174CCD
:1054AC00174A302B18BF1446214623F07AF9114EB7
:1054BC00336882B204A903F6CC3022F024FCAAB2E1
:1054CC0002A904A822F009FCBDF80A30BDF8082096
:1054DC002146306823F0D1F8064B186800F6642199
:1054EC0021F0A2FF22F004FA06B070BD044CDBE7F9
:1054FC00044CD9E7BC197CA044570600BCFC030043
:10550C0088FC03009CFC030008B5806900F068FE71
:10551C00054B1B68D3F8D80BFFF766FEFFF7A6FE0A
:10552C00FFF792FF08BD00BFBC197CA010B59AB064
:10553C0002460C4901A82DF055FA012301AA0A498B
:10554C000BA82DF04FFA6A4601210BA829F0F6FBA7
:10555C00044610B120461AB010BD009829F026FC64
:10556C00F8E700BFE4FC0300ECFC030010B58CB0C2
:10557C000246094902A82DF035FA01AA012102A818
:10558C0029F0DCFB044610B120460CB010BD01988C
:10559C0029F00CFCF8E700BF00FD030010B58CB03F
:1055AC000246094902A82DF01DFA01AA012102A800
:1055BC0029F0C4FB044610B120460CB010BD019874
:1055CC0029F0F4FBF8E700BF18FD03002DE9F047C4
:1055DC0094B0804600231293364B1D680246364920
:1055EC0008A82DF0FFF913A908A82AF08BF918B117
:1055FC00302014B0BDE8F087304913982AF0E0F958
:10560C0068B1129B002B4AD0002B4DDD6435012470
:10561C002646DFF8AC902B4FDFF8ACA019E012ABAC
:10562C0000222A4913982AF0DFF9129B002BEBD1A8
:10563C00274913982AF0C4F912AB00222349139876
:10564C002AF0D2F9DDE70134E4B22646129B9C42E3
:10565C002ADC3246494605A82DF0C4F950230093A4
:10566C002B1D3A4605A913982AF0EAF900BB3246DD
:10567C00514603A82DF0B6F92823009305F15503E4
:10568C003A4603A913982AF0DBF90028DBD145F838
:10569C00808B084B1A68136E01331366D3E713988B
:1056AC002AF068F93020A4E713982AF063F9A0E7F0
:1056BC0030209EE7BC197CA018FD030030FD0300D0
:1056CC0058FD0300FCFF030060FD030044FD0300D4
:1056DC0050FD03002DE9F0478EB00746304B1C6897
:1056EC000246304904A82DF07DF903AA012104A833
:1056FC0029F024FB064618B130460EB0BDE8F08701
:10570C0002A9039829F0A5FB029B002B44D004F1BD
:10571C00640A0025A8462C464FF0010912E02C2BF8
:10572C0006D04F2D0AD80AEB05021371013505E09E
:10573C000AEB050300251D714FF001080134029B93
:10574C00A34229D901AB4A460DF10301039829F074
:10575C004FFB064600BB019BF3B19DF803300D2BAC
:10576C00ECD0B8F1000FDAD00A2B07D0272DE5D8F2
:10577C000AEB050282F855300135DFE755444FF04E
:10578C00000885F855804AF8807B054B1A68136E23
:10579C00013313664546D1E7039829F007FBABE7C5
:1057AC00BC197CA000FD030030B5A9B040F6E43074
:1057BC002AF032FB664B186080B140F6E4320021CF
:1057CC002DF074FA25AA1021012028F0FCFD38B127
:1057DC005F4C20682AF024FB0023236029B030BDE5
:1057EC0025AA24A95B482AF01FFC18B1259828F09B
:1057FC000DFEEDE727A958482AF063F920B1259949
:10580C0024982AF072FCF1E7514B1B68279AC3F8D5
:10581C00D82B4FF0FF31302002F088FC0020FFF72E
:10582C0085FE04460120FFF781FE002C78D068B974
:10583C000123009300238DF804308DF85530684611
:10584C0000F0CEFC27982AF04CF9D8E70020FFF79F
:10585C00A5FE04468DF898000120FFF79FFE8DF8F9
:10586C009900002C5ED0002833D1394B1B680124E1
:10587C00C3F8DC4B00221A662046FFF7A7FE04F1A2
:10588C00A0030DEB030404F8080C314B1B6883F8E0
:10589C00E00B2798FFF7A8FCFFF7E8FCFFF7D4FD17
:1058AC002B4C4FF0FF352368D3F8D43B002BC9D1D8
:1058BC002A4620A9259828F05CFE0028F3D1244B19
:1058CC0018684FF4FA73259A00F6642121F052FF00
:1058DC00E7E70020FFF74AFE05468DF89800012007
:1058EC00FFF744FE8DF899001DB3B0F10D0418BFFD
:1058FC000124174B1B68C3F8DC4B00221A6604F119
:10590C00A0036B4413F8083CCBB1114B1B6804F19A
:10591C00A0020DEB020414F8082C83F8E02BB8E776
:10592C00002386E70A4B1B680024C3F8DC4B1C667B
:10593C00A2E7074B1B680024C3F8DC4B1C6620460F
:10594C00FFF7C8FE04F1A0036B4403F8080CDCE776
:10595C00BC197CA088F0030084F003000022084BE3
:10596C0003F14C0013F8011B0A448342FAD1D243D1
:10597C00034BD86C904214BF16200020704700BF18
:10598C00C0197CA000B583B000220D4B03F14C0074
:10599C0013F8011B0A448342FAD1D243084BDA6450
:1059AC0001A9084829F051F910B103B05DF804FBC6
:1059BC00502300220249019829F063F9F5E700BF52
:1059CC00C0197CA0BCF7030000B583B001A90B483B
:1059DC0029F03BF9034618B1184603B05DF804FBF7
:1059EC00502300220649019829F03AF90346002871
:1059FC00F2D1FFF7B3FF0346EEE700BFBCF703009D
:105A0C00C0197CA038B51A4C5022002120462DF02C
:105A1C004DF94FF0FF35A564C02184F83A10A82247
:105A2C0084F83B200A2384F83C30142084F83D0091
:105A3C00FF2084F83E5084F83F0084F8400084F83E
:105A4C00421084F8432084F84430012384F8453014
:105A5C00BD2384F83530332384F83630062384F89C
:105A6C003730682384F83830222384F8393038BD35
:105A7C00C0197CA0074B1B684FF0FF32C3F80C22F7
:105A8C00C3F824220021C3F81012C3F81422C3F85F
:105A9C001C127047141A7CA0064B1B680022C3F81A
:105AAC0028224FF0FF32C3F81422034B0361034B3F
:105ABC00C3607047141A7CA00CC20400815C000007
:105ACC002DE9F0418EB0054621F0FEFE524B1868D0
:105ADC00524A534C2368D3F8E81102FB010122F01F
:105AEC0028F92068D0F81032D3B94D4B1B68D3F885
:105AFC001C32002B73D1002D00F08380484B1B68A7
:105B0C00D3F82C22002A71D1D3F83032002B75D067
:105B1C0021F01AFF424B1B680022C3F8302272E0BE
:105B2C00002122F04EFB0021206822F048FB0021CE
:105B3C00206822F049FB3B49206822F0D1FD236804
:105B4C000CAE03F5FA7292E8030086E8030001211B
:105B5C00184622F039FB206800F1640121F064FC46
:105B6C002368D3F8C821D3F8C43101322E496846D2
:105B7C002CF038FF6946206822F013FE804623681B
:105B8C0003F5F67393E8030086E803000A21304618
:105B9C0022F034F80AAF1FFA88F23946304622F068
:105BAC00B2F897E8030086E80300206822F09AFD1B
:105BBC0082B23946304622F090F847F6E071206800
:105BCC0022F0FDFA0021206822F0E9FDBDF82A3010
:105BDC00BDF828206946206822F04FFD85E7C622D3
:105BEC004FF4B671114821F0F7FE84E721F086FEE0
:105BFC000B4B1B680022C3F82C2204E021F078FE2A
:105C0C0001E021F075FE064B1B680022C3F814223C
:105C1C000EB0BDE8F08100BF2C04001000B80B00E2
:105C2C00141A7CA04457060068FD0300C44F0400FE
:105C3C0008B50F4B1B68D3F8102292B90C4B1A689D
:105C4C00D2F8C8310133D2F8C4118B4228BF0023DB
:105C5C00C2F8C8314FF0FF33C2F81832C2F83032F4
:105C6C0008BD0020C3F81002FFF72AFFE6E700BFCB
:105C7C00141A7CA008B5084B1B684FF0FF32C3F810
:105C8C002822C3F81422054B0361054BC360002086
:105C9C00FFF7CEFF08BD00BF141A7CA038C9040062
:105CAC00A55A000008B5114B1B68D3F81022BAB9DD
:105CBC000E4B1B68D3F8C8211AB9D3F8C421C3F80A
:105CCC00C821D3F8C821013AC3F8C8210022C3F86F
:105CDC0010224FF0FF32C3F81822C3F82C2208BD53
