:10000000EC0E0010010300001B0300007C03000045
:100010001D0300001F030000210300001FDEFFEF8F
:10002000000000000000000000000000B1E5020038
:10003000250300000000000041E60200A5E60200E2
:10004000F5B0020005B1020015B1020025B10200B1
:1000500035B1020045B1020055B1020065B10200A0
:1000600075B1020085B1020095B10200A5B1020090
:10007000B5B10200C5B10200D5B10200E5B1020080
:10008000F5B1020005B2020015B2020025B202006D
:1000900035B2020045B2020055B2020065B202005C
:1000A00075B2020085B2020095B20200A5B202004C
:1000B000B5B20200C5B20200D5B20200E5B202003C
:1000C000F5B2020005B3020015B3020025B3020029
:1000D00035B3020045B3020055B3020065B3020018
:0400E00075B30200F2
:0402FC00FFFFFFFF02
:10030000DFF88CD023488047DFF884D0224880472C
:1003100022482349016000F045B82FE02EE02DE08F
:100320002CE02BE02AE029E028E027E026E025E089
:1003300024E023E022E021E020E01FE01EE01DE0B9
:100340001CE01BE01AE019E018E017E016E015E0E9
:1003500014E013E012E011E010E00FE00EE00DE019
:100360000CE00BE00AE009E008E007E006E005E049
:1003700004E003E002E001E000E0FFE71EF0040F0C
:100380000CBFEFF30880EFF3098029F049B80000B3
:100390000000011049E401001503030008ED00E02E
:1003A000000000002B498D462B492C480A1A04D026
:1003B00081F30988022282F31488294829492A4AAC
:1003C00000F037F829482A492A4A00F032F82A482A
:1003D0002A492B4A00F02DF82A482B492B4A00F0D5
:1003E00028F82B482B492C4A00F023F82B482C499D
:1003F0002C4A00F01EF82C482C49002200F024F86A
:100400002B482C49091A00220260043001601E4862
:100410001E49884205D00268043003B4904703BCEB
:10042000F7E700208646EC4600200021224A90474C
:10043000FEE7884207D0521A05D0037801300B70CE
:100440000131013AF9D17047884202D0027001307F
:10045000FAE77047EC0E0010EC0E0010EC0E0010E6
:10046000C8C2040000000010B0060010BC04000068
:10047000BC040000E0730300C8C2040000000010C8
:1004800000000010E0730300E0730300E07303005A
:10049000E0730300E0730300E0730300E073030004
:1004A000E0730300C8C20400001B44A0EC3D44A05C
:0C04B00000E637A0001B44A0CBE30100D5
:1004BC0070B540F20D1030F02FFA002140F20D1003
:1004CC0030F042FA142440F20D163225304630F04A
:1004DC000BFA28462FF05CF9304630F011FA28461A
:1004EC002FF056F9013CF1D140F20D15FA242846B3
:1004FC0030F0FAF920462FF04BF9284630F000FA8C
:10050C0020462FF045F9F2E700B583B0064B019376
:10051C000323009300238022044905482FF086FC16
:10052C00002003B05DF804FB8C1E44A0E0730300B4
:10053C00BD04000000B583B000210191012036F00C
:10054C003DFF124833F038FD36F02CFF80B91048CF
:10055C002FF02CFFA0B9FFF7D7FF0E4823F000FBBC
:10056C0036F034FF36F02EFF002003B05DF804FBAC
:10057C00094833F021FD36F01DFF36F017FFE6E792
:10058C00064A002101A829F0D7FBE4E7E873030031
:10059C001074030020740300007403001C74030027
:1005AC0008B51DF037FE1DF02FFB1DF0AFFE50B14E
:1005BC001DF0ACFD1DF016FC00201DF003FD01200C
:1005CC001DF0DEFC08BD1DF039FC00201DF0FAFC0E
:1005DC00F5E7000000B583B01DF076FE1DF0B8FD08
:1005EC00FFF7DEFF00221146104628F067FD074B8F
:1005FC0001930323009300234FF4C0620449054880
:10060C002FF014FC002003B05DF804FBAC2544A0D3
:10061C00287403004105000010B588B00B4CCDE9DF
:10062C000610CDE9043210F02BFA0294084C019418
:10063C000124DDE90432DDE90610009400F022F813
:10064C00049010F013FA049808B010BD6CB30300BA
:10065C00307403007FB50E460192054615F010FC70
:10066C0003680390DB6816215B6A002098470446F8
:10067C0003A815F013FC1CB1019A31462846A0477B
:10068C0004B070BD2DE9F04FDFF8FCB087B01C460C
:10069C00DBF8003003915B7C109F82469146DDE9CC
:1006AC00110100220FF06EFF054628B94FF000082B
:1006BC00404607B0BDE8F08F03699B68984711F07E
:1006CC00CCFB00FB09F60290073615F053FD17F032
:1006DC0001084FEAD60605D10028B8BF03308010B8
:1006EC0000EB4000002C07DCC6B11838B0FBF6F06C
:1006FC0064428442A8BF0446B8F1000F10D103999C
:10070C00CDF8008023464A46504602F04DF8074685
:10071C00002C07DC28460FF033FFC7E73046E7E72D
:10072C000027F5E706FB04F01830B8F1000F0CD0E9
:10073C0015F0AAFD804658B928460FF021FF002F6E
:10074C00B4D0384615F0FEFBB2E715F0EBFDF1E73F
:10075C0015F096FB039BC380029B0590C0E9043700
:10076C000560A0F804A0A0F808904481C66005A814
:10077C0015F094FB129B2B61DBF80030C5F8088058
:10078C005B7CAB6194E700BF3005001013B50446E9
:10079C0088B110F075F9204615F072FB03680190D2
:1007AC001B699B68984711F058FB044601A815F08B
:1007BC0075FB10F05BF9204602B010BD13B5044672
:1007CC00E0B110F05DF90E4B1B681B6EA34201D11A
:1007DC0016F0B6FD204615F053FB0190406908B1A8
:1007EC0000F0F2FC019B18680FF0CAFE01A815F08E
:1007FC0055FB204615F0A6FB10F038F902B010BDE1
:10080C00300500102DE9FF47DDF830A0064699466B
:10081C000F46904610F034F9194B1B68587C194B55
:10082C0053F82040E3681B68042B06D02468002C86
:10083C00F8D10FF095FE0446D8B1E3680121DB6ACC
:10084C00204698470546C0B12469A36898470130F3
:10085C0004BF0D4C4AF0010ACDE90154CDF800A0BB
:10086C004B46424639463046FFF70CFF044610F023
:10087C00FDF8204604B0BDE8F0870446F7E700BF5A
:10088C00300500108C2344A06CB3030013B5002476
:10089C000094FFF7B7FF02B010BD000073B5124E05
:1008AC00044610F0EDF833681D6E34B916F048FDAF
:1008BC0010F0DCF8284602B070BD0DB116F040FD0A
:1008CC000EF0FCF9204615F0DBFA336801901C663B
:1008DC0000680FF097FE01A815F0E0FA14F056F836
:1008EC0010F028FCE4E700BF300500102DE9F043C0
:1008FC000C4685B015460646002844D010F0C0F8CA
:10090C00002016F065FD214B1B6807463046D3F8D6
:10091C00609015F0B5FA03680190986913F01CFE0D
:10092C00019A1B4B9C42138904BFB2F90440B2F9E3
:10093C000650ADF80840013B2344ADF80C30538908
:10094C00ADF80A50013B2B448046ADF80E300EF04A
:10095C007DF901A815F0A2FA02A80DF0B1FF38B18B
:10096C002A462146304600F069F80DF0F7FEF6E70E
:10097C00404613F0F1FD4846FFF790FF384616F05D
:10098C0027FD10F073F805B0BDE8F08330050010BA
:10099C0001F0FFFF014A1146FFF7A8BF01F0FFFF6E
:1009AC002DE9F84FDDE90ABA07460C4615461E46F6
:1009BC009046894637F8020BD847D047B8F1010862
:1009CC0049F8040BF6D11F2E06D83246294620468C
:1009DC00BDE8F84F0FF020BCBDE8F88F2DE9F347C8
:1009EC001F2BDDE90A8ADDF830900C46154616D827
:1009FC00CDF800A018F0F8FF2E4627463868C847F7
:100A0C00013E47F8040BF9D1B8F11F0F12D842463A
:100A1C002946204602B0BDE8F0470FF0FDBB164654
:100A2C000F463868DAF804309847013E47F8040B53
:100A3C00F7D1E1E702B0BDE8F08700002DE9F04FF7
:100A4C002DED048B904608EE101A99B0054600283F
:100A5C0000F0548215F014FA4469139013A815F0A1
:100A6C001DFA2846FFF792FE8346BBF1080F284675
:100A7C0002DD002C00F0068215F002FAC36809931F
:100A8C00B0F90830AA4F159008EE903AB0F90A3038
:100A9C000D930368D0F810A01B6910935B68119339
:100AAC003B684669587C11F043F93B680B90587CC5
:100ABC0011F064F9159C0E9015A815F0EFF9BAF128
:100ACC00080F04F118042CD9BAF1110F34BF02230A
:100ADC00042328460F9302F055F83A68537C1633DA
:100AEC00054652F82330D3F810908368984711F0DC
:100AFC0075F90828074623DC0420B84015F0C4FB20
:100B0C000C90E8B1012303FA07F715F0AFF94FF099
:100B1C00000B03465F4506DC0C9815F0A7F90A900C
:100B2C0011E00123D5E76A680A9358469047D9F833
:100B3C00002090470A9B43F82B000BF1010BE9E7CF
:100B4C0000230C930A93119B0E9A934200F0F280AF
:100B5C00774B1B68587C11F019F918EE903A0E90EF
:100B6C00980015F091FB09EE100A98B1002E00F0D8
:100B7C00CD80304615F084F9002616904FF0010B0D
:100B8C000D9BB3420ADC16A815F088F919EE100A71
:100B9C0015F0D8F90C9815F0D5F9AFE1169800239B
:100BAC00179383680DF15C095B6932464946984797
:100BBC0018EE903A8342054639D119EE100A15F019
:100BCC005FF9BAF1080F0E9B1490014623D90193DB
:100BDC00119B009318EE902A0B9B2046FFF7E0FE2A
:100BEC0000230593149B0493002303930B9BCDF8D4
:100BFC0000B0CDE901B318EE100A01232A46414694
:100C0C0010F08EF914A815F049F9099B013608F17A
:100C1C0001081C44B4E70293109B01930B9B0093B7
:100C2C0018EE902A53462046FFF7D8FED8E7BAF1C3
:100C3C00010F5BD0002DE8D019EE100A15F020F949
:100C4C00BAF1080F014614900E9B179851D90F9FBB
:100C5C000193119B00932A460B9B00FB0740FFF767
:100C6C009FFE00230593149B049300231798039372
:100C7C0018EE107A0B9BCDF800B02A464146CDE910
:100C8C0001B33844012310F04BF914A815F006F900
:100C9C001798284417901698836832465B6917A9F1
:100CAC0098470546C6E7179B18EE102AD01803F094
:100CBC000702002BB8BF073304EBE3030493099B33
:100CCC0006920A9A0592CDE902B32A4601234146BF
:100CDC00CDE900BB10F03EF81798284417901698F1
:100CEC00836832465B69494698470546002DDAD140
:100CFC008BE70F9F0293109B01930B9B00932A464B
:100D0C00534600FB0740FFF769FEAAE70A9BCDE9B3
:100D1C000443099BCDE902A30123CDE9003318EE6E
:100D2C00902A0D9B18EE100A414610F0F9F82DE7A9
:100D3C0030050010002E00F09380304615F0A0F81E
:100D4C00002616904FF0010B0D9BB34203DC16A846
:100D5C0015F0A4F81EE7169800231793836817AFB5
:100D6C005B6932463946984718EE903A83420546FD
:100D7C0024D132461698836891465B690132394614
:100D8C000B92984785420B9AF4D00A9BA9EB060765
:100D9C00CDE90443099B0137CDE902A3CDE900BBA2
:100DAC003B4618EE100A2A4608EB060110F0B8F87C
:100DBC00099B03FB074409F10106C5E7BAF1010FD2
:100DCC0008EB060904D13DBB099BB1461C44F2E774
:100DDC0009EE107A002DF7D00A9B179805930F9BFC
:100DEC0003FB0043049318EE107A099B2A46CDE9C5
:100DFC0002A3494601233844CDE900BB10F090F81A
:100E0C001798284417901698836819EE101A5B6986
:100E1C00324698470546DDE7179B18EE102AD01886
:100E2C0003F00702002BB8BF073304EBE303049372
:100E3C00099B06920A9A0592CDE902B32A46012330
:100E4C004946CDE900BB0FF085FF17982844179051
:100E5C001698836832465B69394698470546B2E76F
:100E6C000A9BCDE90443099BCDE902A30123CDE9FB
:100E7C00003318EE902A0D9B18EE100A414610F024
:100E8C004FF887E614F0FCFFB0F90A300168B0F9AE
:100E9C00087015900B938246C368D1F810900D938F
:100EAC0015A814F0FBFF9E49D9F804300968099382
:100EBC00487C9C4951F820100B690A931B680C93D1
:100ECC0010F036FF08280D9B1DD9112834BF0224C1
:100EDC0004240A9A914518D10AF11800CDE903307F
:100EEC0000210123CDE9003305910B9BCDF808B00F
:100EFC0018EE100A3A46414610F012F819B0BDEC43
:100F0C00048BBDE8F08F0124E3E7BBF1200F40F028
:100F1C009E8004FB07F015F0B7F90D900028EDD07A
:100F2C0014F0AEFF1790284614F0AAFF00F1180336
:100F3C000993E3000E930A9B1590D3F810904FEA97
:100F4C00870AB9F1000F32D04FF00109022C179922
:100F5C0003D0042C01D0012C08D1DDE9090523466E
:100F6C002D693A46A847099B534409931799CDF824
:100F7C0000900023CDE9033105930E9B18EE100A67
:100F8C00CDE901933A46012341460FF0C9FF0B9B73
:100F9C00013B08F1010B0B9307D115A814F07EFF50
:100FAC0017A814F07BFF0D98F5E5D846CEE701267F
:100FBC00022CDDF85CB02CD0042C39D0012C10D1D3
:100FCC0009993B4651F8040B0F930C9B0A919847D7
:100FDC000F9B0BF8010B013B0A99F3D1099B53446E
:100FEC000993179BCDF81490CDE903930E9B0096B3
:100FFC00CDE9016318EE100A01233A4641460FF081
:10100C008FFF0B9B013B08F1010B0B93C5D0D8460E
:10101C00CEE709993B4651F8040B0F930C9B0A91B0
:10102C0098470F9B2BF8020B013B0A99F3D1D5E79C
:10103C0009993B4651F8040B0F930C9B0A91984766
:10104C000F9B4BF8040B013B0A99F3D1C6E7BBF19C
:10105C00100F7FF453AF07FB04F015F015F90D904A
:10106C0000283FF44BAF14F00BFF1790284614F0F8
:10107C0007FF0A9B15901B6900F11805002B53D034
:10108C00D9F81430002B4FD0B0F90800800015F0BF
:10109C00FBF8824600283ED014F0F2FE1690002891
:1010AC003FF47BAF7B000993E3000C93022CDDF83B
:1010BC005CB003D0042C01D0012C0FD1284616991A
:1010CC00D9F8146002233A46B0470A9E169836693E
:1010DC0023463A465946B047099B1D4417990023AD
:1010EC00CDE9033105930C9B02930123CDE9003329
:1010FC0018EE100A3A4641460FF012FF0B9B013BCB
:10110C0008F1010B0B9308D116A814F0C7FE50463A
:10111C0014F018FF41E716903FE7D846C6E700BF2A
:10112C00300500108C2344A0E3000A937E00022CAF
:10113C00DDF85C902BD0042C37D0012C0DD1AB46B4
:10114C00BA46099B3BF8020B98470C9B9847BAF19F
:10115C00010A09F8010BF4D1354400230593179BC0
:10116C000493002303930A9B02930123CDE90033DC
:10117C0018EE100A3A4641460FF0D2FE0B9B013B8B
:10118C0008F101090B933FF408AFC846CFE7AB4613
:10119C00BA46099B3BF8020B98470C9B9847BAF14F
:1011AC00010A29F8020BF4D1D6E7AB46BA46099BE3
:1011BC003BF8020B98470C9B9847BAF1010A49F887
:1011CC00040BF4D1C8E700BF37B505460FF058FC47
:1011DC00284614F055FE84890190013C24B2848188
:1011EC0001A814F05BFE14B9284614F0ABFE0FF006
:1011FC003DFC03B030BD2DE9F843089E05468846FA
:10120C00994614461644A8682246476801344B4652
:10121C0041462846B847A642F5D1BDE8F883000000
:10122C0013B504460FF02CFC1CB9094B1B681C6E43
:10123C0044B1204614F024FEB0F90440019001A8FA
:10124C0014F02CFE0FF012FC204602B010BD00BFB3
:10125C003005001013B504460FF012FC1CB9094BF5
:10126C001B681C6E44B1204614F00AFEB0F906400F
:10127C00019001A814F012FE0FF0F8FB204602B00A
:10128C0010BD00BF3005001013B5044660B10FF05F
:10129C00F7FB204614F0F4FD019000F1180401A8AE
:1012AC0014F0FCFD0FF0E2FB204602B010BD000074
:1012BC007FB50C461546064658B30FF0E1FB304699
:1012CC0014F0DEFD144B01909C42038904BFB0F96D
:1012DC000440B0F90650ADF80840013B2344ADF88A
:1012EC000C304389ADF80A50013B2B4401A8ADF8F2
:1012FC000E3014F0D3FD02A80DF0E2FA38B12A46F4
:10130C0021463046FFF7A6F90DF028FAF6E70FF064
:10131C00ADFB04B070BD00BF01F0FFFF014A1146E8
:10132C00FFF7C6BF01F0FFFF0123037400207047D5
:10133C0070472DE9F04F85B004460D461746984688
:10134C001AF00AFA064618B9012005B0BDE8F08F6C
:10135C001AF034FA01236B7094F9101004F108029E
:10136C0029B32B7040460292B847214630461AF0FA
:10137C0049FA30461AF0D8F9002340462B70B8478A
:10138C00029A304611461AF03DFA30461AF0AAF984
:10139C00012200232A7000926B7042463946204687
:1013AC0001F0A0F80028CFD128702074CDE740467A
:1013BC000392B847214630461AF024FAB4F90030AB
:1013CC00039AB4F902B0B4F904A0B4F906900293EC
:1013DC002146204615F064FE029B2381A4F80AB036
:1013EC00A4F80CA0A4F80E90CFE7000013B50446A7
:1013FC000FF046FB1CB9094B1B681C6E44B1204610
:10140C0014F03EFDB0F90840019001A814F046FD1F
:10141C000FF02CFB204602B010BD00BF30050010B1
:10142C0013B504460FF02CFB1CB9094B1B681C6E42
:10143C0044B1204614F024FDB0F90A40019001A8F3
:10144C0014F02CFD0FF012FB204602B010BD00BFB3
:10145C00300500100129024818BF0020704700BF5A
:10146C00307403001629024818BF0020704700BFD3
:10147C00692A000008290CBF202000207047006852
:10148C00C3681B6A184713B580680C4614F0F8FC47
:10149C00B0F90420018922800A44013AB0F90630DF
:1014AC00A280428963801344013B0190E38001A830
:1014BC0014F0F4FC02B010BD0D4B1B6837B504469C
:1014CC00186E0D4614F0DCFCB0F90610B0F90430BF
:1014DC0001906D1AE41AC168A40001FB054418348C
:1014EC00044401A814F0DAFC204603B030BD00BF60
:1014FC003005001008B508461146FFF7DDFF0068FF
:10150C0008BD0000154B1B6873B5186E15460C46CC
:10151C0014F0B6FC294600902046FFF7CDFF009B47
:10152C001B681B699B6806469847336820F07F4010
:10153C0043403360009B586950B114F0A1FC8368A0
:10154C0001901B682A462146984701A814F0A6FC76
:10155C00684614F0A3FC02B070BD00BF300500104B
:10156C0073B51E460F4B1B68186E0C46154614F0CF
:10157C0087FC294600902046FFF79EFF009B0660E3
:10158C00586950B114F07CFC836801901B682A46A2
:10159C002146984701A814F081FC684614F07EFCA3
:1015AC0002B070BD300500102DE9F743DFF8B080B4
:1015BC001E46D8F80030186E0F46154614F060FC25
:1015CC000090406908B114F05BFC01902946384644
:1015DC00FFF772FFD8F80030009A197CC90704464F
:1015EC0021D513681B699B68984720F07F480198A8
:1015FC0020B183682A461B6839469847236883EADA
:10160C0008032360009B0135DB68AE421C44EEDA14
:10161C00684614F043FC019B13B101A814F03EFC86
:10162C0003B0BDE8F0831B6CD2F80C80D3F80090AB
:10163C00019B63B1019883682A461B6839460135C2
:10164C009847AE42C4F800904444F3DAE0E7761BC6
:10165C000136013EC4F800904444FAD1D8E700BFEB
:10166C00300500102DE9F04FDFF8AC801C46D8F89F
:10167C00003085B0186EDDF838900F46154614F022
:10168C00FFFB294602903846FFF716FF029BD8F85D
:10169C000020D3F80CA0126C06465869D2F800B0A2
:1016AC00E41B013470B114F0EBFBA9EB050301331F
:1016BC0000932A46234639460390FFF79CFD03A866
:1016CC0014F0ECFB4D4505DD02A814F0E7FB05B06A
:1016DC00BDE8F08FD8F800301B7CDB0712D5029BDD
:1016EC001B681B699B689847324620F07F40234655
:1016FC001168013B81EA000142F8041BF8D1564401
:10170C000135DFE7002CFADD23463246013B42F877
:10171C0004BBFBD1F3E700BF3005001007B5009206
:10172C00FFF7A0FF03B05DF804FB00002DE9F04FBC
:10173C002DED028B9E4C91B00E46029323680790C0
:10174C00186E1F9DDDF884B00492002835D014F07B
:10175C0097FB0E90406908B114F092FB0E9B0F9012
:10176C00DB6806930EA814F099FB209B0F98F318D6
:10177C00039350B123681B7C9C0706D41C9B0093DD
:10178C00DDE90312029BFFF736FDDDE90301FFF7EC
:10179C0093FE1D9B172B044670DD029BDFF81892FD
:1017AC009B0008EE103A4FF000081C9B0F989845D0
:1017BC0008DB10B10FA814F071FB11B0BDEC028B5B
:1017CC00BDE8F08F30B18368049A5E680399029B80
:1017DC004244B047079B1B69DA686AB1D9F80030FC
:1017EC0018EE102A2946204698471E9B1D44069B3E
:1017FC0008F101081C44D8E75B684FF07F4098471C
:10180C00DDF808A0030E059327462E464FF0000B7B
:10181C005346B4465CF8041B059AB2EB116F059A5B
:10182C004FEA116008BF0BF1010B824203F1FF3349
:10183C0001D1002BEED1BBF1000F10D04FEA8B027F
:10184C0031463846D9F8003008929847089AAAEBE6
:10185C000B0A17441644BAF1000FD7D1C5E730680C
:10186C00020E06D0534B39681B6840F07F409847F6
:10187C003860043704360AF1FF3AECE71D9B102B55
:10188C0032D14FF0000827E0049B08EB030936B176
:10189C00B36803995F68029B4A463046B8470027F5
:1018AC00039B35F81700D919079B05911B695B68D9
:1018BC00984744F827002EB1B36805991B684A462F
:1018CC0030469847029B0137BB42E9D11E9B1D4411
:1018DC00069B08F101081C441C9B0F9E9845D3DB0A
:1018EC00002E7FF467AF68E71D9B082B6DD1DFF8E6
:1018FC00C080DFF8C490002711E0049BDA19D8F8F7
:10190C0000301B7C03F00303BBF1000F36D083B116
:10191C00022B1BD01E9B1D44069B01371C441C9B99
:10192C00DDF83CA09F42E8DBBAF1000F7FF442AF38
:10193C0043E702992B462246691813F8010B5BF812
:10194C00200042F8040B9942F7D1E3E70026039BF1
:10195C009919AB5D6BB15BF8233044F82630BAF1C2
:10196C00000F06D0DAF8083005921B6850469847ED
:10197C00059A029B0136B342E9D1CBE7F3B1022BB6
:10198C00C8D15E46039B9919AB5D5BB144F8263018
:10199C00BAF1000F06D0DAF8083005921B685046F1
:1019AC009847059A029B0136B342EBD1B2E700BFD0
:1019BC003005001050050010D4040010D9F8003088
:1019CC00029A294620469847A4E7B24BBBF1000F78
:1019DC0008BF9B46209B9B000B93209B5B000A93AC
:1019EC00031D0593049B08EE103A05F1010A059BB3
:1019FC00049A1C1F18EE103A9B1A1C9A9A420AF170
:101A0C00FF3704DC0F9B002B7FF4D4AED5E61D9B77
:101A1C00022B00F0AA80042B00F04281012B40F035
:101A2C0098809D4B1B68186E14F02AFA209A1AF8AD
:101A3C00013CDDF808800E90C2F10805974AD65C8F
:101A4C00954B209A1B681B7C03F00301022946FA74
:101A5C0002F61DD0D90755D4454528BF4546A8EBFD
:101A6C0005082B46214606F00100013B5BF82000DF
:101A7C0041F8040B4FEA5606F5D104EB8504B8F196
:101A8C00000F63D017F8013F844A0825D65CE3E7C2
:101A9C000F98DBF804900399454528BF4546A8EB01
:101AAC00050850B35EB904EB85042944B8F1000F66
:101ABC004CD017F8013F794A0825D65CECE7F207C1
:101ACC000AD5836818EE102A1B68CDE908019847DF
:101ADC00DDE90801C4F80090013D01F1010104F1B8
:101AEC000404E3D07608DDE7F30748BFC4F80090A0
:101AFC00013D04F10404D9D07608002EF4D104EB96
:101B0C008504D3E7079B1B699B68984720F07F40AF
:101B1C00454528BF4546A8EB0508AC462346F207C9
:101B2C0042BF196841401960BCF1010C03F1040378
:101B3C004FEA5606F3D104EB8504B8F1000F05D03B
:101B4C0017F8013F554A0825D65CE1E70EA814F0BA
:101B5C00A5F918EE103A013308EE103A1E9B9A4480
:101B6C00DDE905321344059341E7209B1AF8016C1B
:101B7C00C3F104050A9B9E40474B1B681B7C03F07A
:101B8C000303012BEDB2F6B25DD0022B1FD0002B5C
:101B9C00DFD1029B9D42C8BFDDB25B1B29462046AC
:101BAC004FEA961C01395BF82C2040F8042BB60048
:101BBC0011F0FF01F6B2F3D1013DEDB2013504EBAA
:101BCC008504002BC5D017F8016F0425E2E7DDE989
:101BDC0002980F984D456FF00303C8BF5FFA89F563
:101BEC0003FB0843CDE90853A9EB0509414616F060
:101BFC00C00F0FD0B309099A5BF8233042F821309B
:101C0C0040B1836818EE102A1B68CDE90C01984787
:101C1C00DDE90C01089B013BB60013F0FF0301F159
:101C2C000101F6B20893E2D1013DEDB26B1C08F153
:101C3C00010804EB8304A844B9F1000F89D017F80C
:101C4C00016F0425C6E7029B9D42C8BFDDB25B1B3A
:101C5C002946A44616F0C00F18BFDCF8000001F1AD
:101C6C00FF311CBF80F0FF00CCF80000B60011F073
:101C7C00FF010CF1040CF6B2ECD1013DEDB20135D3
:101C8C0004EB8504002B3FF464AF17F8016F0425B7
:101C9C00DAE700BF6474030030050010D8AA030013
:101CAC000B9B1AF8011C9940684B1B681B7C03F0BA
:101CBC000303012BCDB235D0022B5FD0002B7FF468
:101CCC0048AF209B002B57D02D0957465BF8253089
:101CDC002360029B059C9AF80050013B012B19DDF7
:101CEC00581004F1080103F001033E184FEA151CCB
:101CFC0005F00F055BF82C2041F8082C5BF82550FB
:101D0C0041F8045C17F8015FBE4201F10801EDD106
:101D1C0004EBC004002B3FF41CAF2D095BF82530FD
:101D2C00236016E7209B0298C3F10203DBB28342C7
:101D3C00C8BFC3B2C01A1E46A44615F0C00F18BFC8
:101D4C00DCF8001006F1FF361CBF81F0FF01CCF867
:101D5C0000102D0116F0FF060CF1040CEDB2ECD1C5
:101D6C00013BDBB2013304EB830400283FF4F1AEFA
:101D7C0017F8015F0223DAE7029BAFE7209BDDF83F
:101D8C003C90002B34D011F0F00F0ED02D095BF8E5
:101D9C0025302360B9F1000F07D0D9F8083003992A
:101DAC001B6818EE102A48469847039B059C9AF826
:101DBC0000505E1C029B574603F1FF38B8F1010F2F
:101DCC0019DCB8F1000F3FF4C4AE2D093FF4C1AEDD
:101DDC005BF825302360B9F1000F3FF4BAAED9F8A7
:101DEC00083018EE102A1B68314648469847B0E672
:101DFC00DDE90286E2E715F0F00F0ED02B095BF857
:101E0C0023302360B9F1000F07D0D9F8083018EE51
:101E1C00102A1B6831464846984715F00F050DD01F
:101E2C005BF825306360B9F1000F07D0D9F80830A2
:101E3C0018EE102A1B68711C4846984717F8015F6A
:101E4C0008340236A8F10208B8E700BF30050010CC
:101E5C002DE9F04F2DED048B99B009EE100A01938A
:101E6C00279B0D4614464BB30EF00AFEA94B1B687C
:101E7C00D96C6A1803921A6D2799A3180C93039BBB
:101E8C00289AADF858300C9B002AD8BF9B18039A9F
:101E9C00013A0A44ADF85C200199269A8A42B8BFEF
:101EAC000A469BB2013AADF85A3016A81344ADF865
:101EBC005E300CF005FD30B90EF0D8FD19B0BDEC5C
:101ECC00048BBDE8F08F279B269A5B100D93019B2A
:101EDC009B1A289A9B1A119319EE100A13F0D0FF33
:101EEC00B0F90830049303EBD3735B100593049B98
:101EFC000693039B02930023159007930023059AE6
:101F0C0027990A44069905928A4203F10103F6D3F4
:101F1C00079A1A4407920123049A0893069B1344C8
:101F2C000693DDE90532934280F0CC80DDE9023284
:101F3C00289911989B1A0D9A03FB0122279992FB61
:101F4C00F1F20A920A99019A521A0D9903FB0013A5
:101F5C00279993FBF1F3D31A0F93159B019AB3F9BD
:101F6C000860079B03F1FF39269B93427CD0C7BFC7
:101F7C00269FDDF8048017469846A7EB080006FB61
:101F8C0006F307FB06FA9AFBF0FA00FB003007EEAB
:101F9C00900AF8EEE77AD8BFA6EB090917EE900A7B
:101FAC00D4BF4FF0000B4FF0010B30F0C7FD41ECEC
:101FBC00100B31F067FB08FB08F8AAEB060000FBDE
:101FCC00008007EE900AF8EEE77A55EC104B17EE0E
:101FDC00900A30F0B3FD41EC100B31F053FB07EEDF
:101FEC0090AA51EC100BB8EEE78A30F0C3FD07EE67
:101FFC00906A07EE100AF8EEE77A2046294667EE5B
:10200C00878A30F0B7FD07EE900AC8EEA77AFDEE8E
:10201C00E77A17EE903A3B444B4407EE903AF8EED1
:10202C00E77A87EE887A07EE907AF8EEE77AC7EED1
:10203C00886A77EE667AF5EEC07AF1EE10FA00DC7B
:10204C0012D507EE109AF8EEC76A86EEA77AFDEE67
:10205C00C77A17EE909ABBF1000F01D1A6EB0909D4
:10206C004E45D8BF06F1FF39159BDDF80880B3F952
:10207C0008304B45D8BF03F1FF39089B43441093FC
:10208C00159CB4F90A300B93224B1B68587C0FF04B
:10209C007DFE0E90C8B9109B08F101084345EFD1A5
:1020AC00029B089A13440293079A049B93423FF7AE
:1020BC0025AF15A813F0F2FE0CF050FB00287FF4AE
:1020CC000BAFF9E6089B013326E70B9BDDF830A03C
:1020DC00099303EBD3767610002500230F9A164450
:1020EC00099A964212D31D440127099B0B9A13445B
:1020FC009E4209930CD2B4F90A309D420CDBB4F920
:10210C000A3001359D42BA44E7DBC4E70133E5E709
:10211C000137EAE730050010B4F90430B4F90620B1
:10212C00E168A9EB0303AA1A04EB830301FB023356
:10213C009B69129318460E9B9847129B190E834667
:10214C00DDD0FF29CAB21AD13B46013BD7D30A9A3C
:10215C001293991851445A4640460FF0A9F8129B15
:10216C00F3E70A99594451444046CDE912230EF045
:10217C0075FBDDE91223BBF1010BF2D2BFE7BB46C5
:10218C00F9E700BF2DE9F04F2DED028BA54D93B073
:10219C0004460EF075FC2B689A680992DA680E9268
:1021AC000CB91C6E7CB3204613F06AFE002311930D
:1021BC002B6810901B6E204608EE103AFEF76EFB53
:1021CC002046FEF7E3FA08282AD9112834BF4FF02D
:1021DC0002084FF004080FF093FD08280590034601
:1021EC0021D9112834BF0223042300200393FEF7C6
:1021FC0055FB039B984518D210A813F04FFE18EE10
:10220C00100AFEF74BFB874B099A1B689A600E9AD3
:10221C00DA600EF02BFC13B0BDEC028BBDE8F08F36
:10222C004FF00108D7E70123DFE7109AB2F9063027
:10223C005089B2F9045014891844013802B223EAC7
:10224C00E3732C44049208930FF04AFD013C24B232
:10225C00A04225EAE57503DC0FF042FD013804B21B
:10226C000FF046FD049B984204DC0FF041FD013851
:10227C0003B20493109B586908B113F001FE11903E
:10228C001098DFF8A091B0F90410B0F90620DFF82F
:10229C0098A10029B4BF49420021002AB4BF524280
:1022AC00002219F087FB089E0690A4EB050B049BFB
:1022BC00B3424FDA119B13B111A813F0EFFD109B31
:1022CC001B681B695F68D9F80030587C0FF04EFD15
:1022DC000646002F90D000288ED087428CD0B8F1C3
:1022EC00040F89D1641B04F101084FEA880307939A
:1022FC004FEA48030D9363100C93A3100B93E31058
:10230C000A93E343069303F0010300270F93089B02
:10231C00049A3B449A42FFF66FAFB8F1000F5ADDB6
:10232C0010983A46002119F045FB079BC418039BF3
:10233C00022B00F0AE80042B00F0BC80012B4AD1A4
:10234C00059B013B072B46D8DFE803F0234745707C
:10235C0045454592D9F800305B7C5AF823300193FF
:10236C00069B0093284633462246314614F024FB44
:10237C00119838B183685B6832461F4629460BF1C9
:10238C000103B847109B069ADB681A440692013683
:10239C008DE710983A46002119F00CFB069B03F0D0
:1023AC0007050A9BC24600EB03094FF0010B99F895
:1023BC0000000BFA05F318402841C0B2B0470135B4
:1023CC0025F00703BAF1010AA9EBE50944F8040D5D
:1023DC0045FA03F5EBD1013799E710983A460021FD
:1023EC0019F0E8FA069B03F003050B9BC24600EBC1
:1023FC0003094FF0030B6B0099F800000BFA03F282
:10240C0010401841C0B2B047013525F00303BAF1B2
:10241C00010AA9EBA50944F8040D45FA03F5EAD124
:10242C00D9E700BF300500108C2344A010983A4621
:10243C00002119F0BFFA0C9B0F9D00EB0309C2465B
:10244C004FF00F0BAB0099F800000BFA03F21040A1
:10245C001841C0B2B047013525F00103BAF1010AA9
:10246C00A9EB650944F8040D45FA03F5EAD1B2E786
:10247C0010983A46002119F09DFAC14600EB080568
:10248C0015F8010DB047B9F1010944F8040DF7D165
:10249C00A1E710983A46002119F08CFA0D9BC14621
:1024AC00C51835F8020DB047B9F1010944F8040D0F
:1024BC00F7D190E710983A46002119F07BFA079B68
:1024CC00C146C51855F8040DB047B9F1010944F8D7
:1024DC00040DF7D17FE700BF014B1860704700BFB8
:1024EC00F81E44A02DE9F04F2DED028BDFF86CB1F6
:1024FC0087B00546984608EE102A03910EF0C0FAF4
:10250C00DBF800305C7C534B1B57012B20463FDD26
:10251C000FF0BAFB814620460FF0B9FB0446002DA4
:10252C003DD004A805A914F093FD0498B5F90070EA
:10253C00B5F90430B5F902604844421E059827EA03
:10254C00E7779A42D4BFC7EB0209C7EB03092044D3
:10255C00B5F9062026EAE676431E9342D4BFC6EBB5
:10256C000304C6EB020409F101090134B8F1000FB0
:10257C0001D1C4F10008B9F1000F01DD002C11DC10
:10258C000EF074FA002007B0BDEC028BBDE8F08FA2
:10259C000FF080FB814620460FF07FFBBEE72E46F6
:1025AC002F46E3E7129B00934A4643463146384692
:1025BC00FEF728F9054638B918EE100A039B984720
:1025CC000EF054FA0120DEE7FEF72AFF8442824621
:1025DC0006D0DBF80030986C10B132210CF099FF6A
:1025EC002846FEF75BF9A1464FF00008CA4503DD0B
:1025FC004946284619F01AFAB8F1000F08D02846B7
:10260C0006EB0802394619F0DFF9284619F02AFAC8
:10261C00039B18EE100A98470F4B1B680BB1FF2059
:10262C0098472846D044FEF7B5F94445A9EB0A096A
:10263C00DCDC2846FEF7C2F80020FEF72FF95445E3
:10264C009ED0DBF80030986C002899D033210CF028
:10265C0060FF95E7872344A0F81E44A030050010C6
:10266C00B0F90030C91AB0F9023010B50469D21AA9
:10267C00CB1004FB02321432802301F0070143FA21
:10268C0001F1835C1943815410BDB0F906309342BB
:10269C0070B5064643DD0C68B0F90450AC423EDA26
:1026AC0003695343143303EBE403013DC218ED10EB
:1026BC00F35CA5EBE400551C04F007029340DBB27D
:1026CC002BB11A060BD5FF2B1ED1E21D10E028B33F
:1026DC00083415F8013B013824F00704F0E75B00DF
:1026EC00DBB20134EDE75B00DBB201325E06FAD4FB
:1026FC0002F00703072B0ED101380CD415F8013B5F
:10270C00FF2B06D10832F7E72246EFE75B00DBB27E
:10271C0001321806FAD4101B0C60013070BD002079
:10272C00FCE713F00FBCB0F90630026900215A43E4
:10273C00143031F0D2BDF8B5B0F900400E1BB0F931
:10274C000410B1421FDDB0F90250551B026933442D
:10275C0055435C425A1E05EBE6051435FF21D21099
:10276C0006F0070704F0070441FA07F701FA04F42E
:10277C00B2EBE602435D00EB050CFFB2E4B203D111
:10278C0027401F434755F8BD1F434755551E002D85
:10279C000CF1010604DD30462A4631F09EFD2E4434
:1027AC0033781C433470EEE72DE9E74702F10F054F
:1027BC002D116D00824603FB05F0143089469046BE
:1027CC001F4613F0AFFD0646B0B10EF059F9304676
:1027DC0013F056FB0A4B8360012301908381A0F810
:1027EC0000A0A0F80290A0F80480C780056101A8A1
:1027FC0013F054FB0EF03AF9304603B0BDE8E08715
:10280C00A474030070B50F4C25680C68B5F90C6006
:10281C000444013CA41B002CC8BF001B10600C68B6
:10282C00B5F90800A04209DD001B18600C682044B3
:10283C00086011681B68C91A116070BD00221A600B
:10284C00FBE700BF3005001070B50F4C25680C6815
:10285C00B5F90E600444013CA41B002CC8BF001B3E
:10286C0010600C68B5F90A00844209DA001B186084
:10287C000C682044086011681B68C91A116070BD8F
:10288C0000221A60FBE700BF300500102DE9F04F65
:10289C00A1B0CDE90C211F46804613F0F1FA036874
:1028AC00B0F90850D3F81090B0F90A60D9F8043098
:1028BC000E9004460EA8079313F0F0FA614B1B68B8
:1028CC005A7C614B53F82220604B99453DD11369DA
:1028DC004B453AD15E4B0DF14C0C183403F1300AD8
:1028EC00E14618685968E646AEE8030008335345DC
:1028FC00F446F6D11868CEF80000494600204FF097
:10290C00640C4B8813FB06F393FBFCFE0B8813FB48
:10291C0005F393FBFCF305FB0E3354F823301B0E2D
:10292C00FF2B12D101300D2801F10401E9D1012353
:10293C00CDE902330023CDE90043464CDDE90C1010
:10294C00246833462A46A0476AE0D36808219B6A6C
:10295C00104698471728044665D8032808BF082452
:10296C007B68089300203B68099317F011FC002842
:10297C0056D10FAB11AA0DA92846FFF743FF119BA7
:10298C00002B4DDD10AB12AA0CA93046FFF75CFFF3
:10299C00129B002B44DDDFF8C0A0119B0A93DDE9EC
:1029AC000C1BDDE90F6940460B91FEF76DFC13AB78
:1029BC0005FB09620193079B009300EB82020A9BC3
:1029CC000B99584617F004FB064648B3089B534531
:1029DC000FD011993B4622460DF0A8FD48B9D7F807
:1029EC0010B0BBF1000F20D004232A4631463046EC
:1029FC00D8470C99119A0D984B1C0C930023CDE9D8
:102A0C000463CDE902430123CDE900330EF088FACB
:102A1C00109B01331093129B013B1293002BBCD1E2
:102A2C0021B0BDE8F08F20249AE7B146AB46D9F827
:102A3C000000099B9847BBF1010B49F8040BF6D138
:102A4C00D7E700BF300500108C2344A06CB3030003
:102A5C00BC7403005CB303004B6601002DE9F0432A
:102A6C00DFF808813D4BD8F800703D4E7C7C53F864
:102A7C0024C03468DCF810308FB0CDE9062105464F
:102A8C0024B9FFF703FF0FB0BDE8F083DCF80C208E
:102A9C00396E126821B942B1DDE906212846F0E70A
:102AAC00072AF9D02F4A9342F6D1284613F0E8F9B9
:102ABC00B0F90840B0F90A90C7680C900CA813F054
:102ACC00EDF90AAB08AA07A92046FFF79BFE089B65
:102ADC00002BD8DD0BAB09AA06A94846FFF7B4FEBC
:102AEC00099B002BCFDD2846FEF7CEFBDDE90A3132
:102AFC0001FB043300EB8301D8F80030186EF0B101
:102B0C00DDE90645059113F0BBF9B0F90630D0F8B4
:102B1C000C800D90E31AB0F904402C1BA40008FBA8
:102B2C000344183404440DA813F0B8F9CDE9008718
:102B3C00DDE90823356805992046A847A3E7587CAA
:102B4C00099B0193089B0093A400074B02941C68FB
:102B5C000B46DDE90621A04795E700BF8C2344A076
:102B6C00102444A06CB303000C2444A030050010C6
:102B7C00024B1860024B1960704700BFFC1E44A04A
:102B8C00001F44A013B5044660B10DF079FF204638
:102B9C0013F076F90368019001A81C6913F07EF913
:102BAC000DF064FF204602B010BD37B5456F002D07
:102BBC0004460BDBD0F8B00040B113F061F9838808
:102BCC00009033B9656F684613F068F9284603B076
:102BDC0030BD006813F054F9636F019030F8135056
:102BEC0001A813F05BF9EEE737B5054613F048F989
:102BFC00D0F8B0400090684613F050F924B9142076
:102C0C0013F090FB0446C0B1284613F039F900903C
:102C1C00C0F8B040204613F033F9009B01904FF000
:102C2C00FF32C3F88020064BC360064B836001A8BB
:102C3C0013F034F9684613F031F903B030BD00BF1E
:102C4C00B92C0000D92C000070B586B00D46044696
:102C5C0013F016F9D0F8B020039003A8019213F0EA
:102C6C001DF9019AEAB1104613F00AF9868804900E
:102C7C00006813F005F900210590B14207DA30F82D
:102C8C001120AA420BD10022204608F061F805A8B9
:102C9C0013F004F904A813F001F906B070BD01316A
:102CAC00EBE72946204608F053F8F6E713B504463F
:102CBC0013F0E6F80190006813F044F901A813F042
:102CCC00EDF8204613F03EF902B010BD2DE9F04F9F
:102CDC002DED048B8BB0074613F0D2F890F8C23070
:102CEC00079013B190F8C13013B9D0F8B00040B9C7
:102CFC0007A813F0D3F800200BB0BDEC048BBDE893
:102D0C00F08F13F0BDF8079B0890D86B04F02CF8EB
:102D1C00089B044607989D88FFF747FFAC4209EED5
:102D2C00100A1BD0089B07A81E6813F0B7F808A858
:102D3C0013F0B4F86100002E34D1084613F0F2FA07
:102D4C000646002800F0DE80384613F099F807900C
:102D5C00D0F8B00013F094F808900660089B18683F
:102D6C0013F08EF8079A099092F8C2303BB3AC423C
:102D7C001CDC089B012C9C8029DC079B012283F81E
:102D8C00C22083F8C120089A586B127CD3F88010AB
:102D9C0005F0A9F909A813F081F807A813F07EF83B
:102DAC0008A8A6E7304613F0D9FAC9E7002382F841
:102DBC00C33020F815500135AC42FAD1D9E782F86E
:102DCC00C330A342D5DA20F813300133F9E792F877
:102DDC00C330A3B1A4B200EB4403641000EB440471
:102DEC00844205D119EE101A3846FFF72DFFC4E7BF
:102DFC00028833F8021D20F8021B1A80F0E7DFED81
:102E0C00428AA04607EE908AF8EEE77A4FF0000966
:102E1C0087EEA88A4D46BDEEC88A18EE108AB8F126
:102E2C00010FB8BF4FF00108A4EB08034FEA4806A6
:102E3C000093009B9D4207DB18EE103A012BE1DC5E
:102E4C00B9F1000FDED1CDE7099B33F806B033F8AA
:102E5C001510079B6A00D86B019204F00FF80290D2
:102E6C0028B1079B0068D3F8801004F007F8049091
:102E7C0002A813F013F8DDF810A0BAF1000F3ED041
:102E8C0004A813F00BF8079B5946D86B03F0F6FF18
:102E9C00039028B1079B0068D3F8801003F0EEFF75
:102EAC00059003A812F0FAFFDDF814B0BBF1000F87
:102EBC0025D005A812F0F2FF079BD3F88010186CF0
:102ECC0003F0DCFF0690D0B143680BF104010AF16A
:102EDC0004009847824606A812F0E0FF089B1B7C72
:102EEC000BB1CAF1000ABAF1000F08DD099B6A00A8
:102EFC0068009A5A995B19529A534FF0010901359F
:102F0C00023696E70120F7E66666A63F024B0A46B4
:102F1C001B68014610461847DC040010F0B500236E
:102F2C0085B0CDE90033CDE902016B4602A902243C
:102F3C000A2651F8042B92F900002D2825D10132D4
:102F4C0041F8042C012551F8040C05E00124F0E7AC
:102F5C001F6806FB07221A6010F9012B12B1303AD8
:102F6C00092AF5D941F8040C15B11A6852421A60B5
:102F7C00012C03F10403E9D1DDE900239A4206DCBC
:102F8C00B4BF0120002005B0F0BD0025DBE74FF0F9
:102F9C00FF30F8E773B50D4616460446C8B10DF080
:102FAC006FFD204612F06CFF0090204608F077F879
:102FBC00854209DA009B2946186C03F05FFF0190EB
:102FCC00466001A812F06AFF684612F067FF0DF028
:102FDC004DFD02B070BD37B5044680B10DF050FD0B
:102FEC00204612F04DFFD0F8B050019001A812F01D
:102FFC0055FF15B92046FFF7F7FD0DF037FD03B06F
:10300C0030BDF0B50C4685B01646054618B90124FE
:10301C00204605B0F0BD08F042F8A042F7D90DF0FB
:10302C002FFD284612F02CFF21460190006C03F076
:10303C0025FF039001A812F031FF039B5F6803A8E2
:10304C0012F02CFF0FB32846FFF7CEFD284612F0E6
:10305C0017FF0190D0F8B00012F012FF029090B15F
:10306C00019BC3F880400024067483F8C1402846B5
:10307C0007F06DFA02A812F011FF01A812F00EFF72
:10308C000DF0F4FCC4E70124F4E70124F8E72DE982
:10309C00F0418AB002A904460CF0D5FD204612F08E
:1030AC00EFFEBDF90A30BDF90E60026E476DD0F827
:1030BC005C800190F61A836D1344F61AB0F87830E0
:1030CC00590707D4416FB142D4BF002101212046DA
:1030DC0009F0D2FC019BBDF90C505A6FDA67BDF9AF
:1030EC000820C3F88460AD1AB3F8782047449207DF
:1030FC00A5EB070507D4196F8D42ACBF0021012148
:10310C00204609F0A9FC0198036FC0F88830C0F87C
:10311C0090507C300CF094FB019888300CF090FBB4
:10312C00019B03F17C0207CA883307AD85E80700D1
:10313C0093E8070004AE86E8070001A812F0AEFE83
:10314C0032462946204606F077FD0AB0BDE8F081EC
:10315C0073B50D46064612F093FE0190284606F014
:10316C0041FA044628460CF0C5FBFE28019B11D100
:10317C0093F8942022B1DA6FD3F88400121A141B3E
:10318C00C3F8804030460BF025F901A812F086FEFA
:10319C0002B070BD93F895202AB1D3F88820D3F8EB
:1031AC009000121A141BC3F88C40EBE72DE9F04F7A
:1031BC00D0E900742DED028B014695B005462046F2
:1031CC0006F0C0FDB7F5407F064602D12046FFF75A
:1031DC005EFFBEB12B680F2B1DD00CDC052B16D05F
:1031EC000B2B00F02182284615B0BDEC028BBDE8FC
:1031FC00F04F0BF073BD262B00F05C82312BF2D11B
:10320C00B84BEB6015B0BDEC028BBDE8F08F2046DF
:10321C00FFF73DFFE7E7EB680193204612F030FE25
:10322C00C36D0093C36AD0F860901B680B900CAE12
:10323C00D0E915BA304602930CF09CFA0B98314643
:10324C0006F033FD96E8030010AD85E80300BDF8E9
:10325C004230029ABDF80810534413FA82F3ADF8C9
:10326C004230BDF84020BDF846305A44A3EB090368
:10327C005B1A0A44ADF84630ADF84020BDF8443036
:10328C00009A9B1A5B1AADF8443095E803000EAB1C
:10329C0083E8030018460CF029FF204609F03AFA9F
:1032AC000B9B18B1596B904A914204D0586B14F097
:1032BC0062F813F01DFC0B9BD3F8983013B100216E
:1032CC00204698470B9D95F86C3043B312A92046C5
:1032DC000CF0B9FCEB6ABDF948201B680393BDF9EF
:1032EC004C300793BDF94E30286C0593BDF94A302C
:1032FC0004920693D5E9117814F049F813F098FE6E
:10330C00049A079B08EE100A002F40F0EF80B8F1EA
:10331C00000F40F0218118EE100A14F095F8029A73
:10332C000CA910A80DF08AFA10A80CF0DFFE0B9B6C
:10333C0093F83B20002A00F09D8000994BEA0A028A
:10334C000A4352EA090200F09580DA6A059312A941
:10335C001368029320460CF076FC0CF097FB03905C
:10336C000CF09CFB009BBDF94C700490FF1A059B64
:10337C00BDF94860986BBDF94A80BDF94E5013F009
:10338C00FAFF059BD86B5E44D044A5EB090513F0FE
:10339C00FEFFBBF1000F1AD0029B03995A1E019B32
:1033AC00B3F900305A445B1A9A4210DBBDF94E3027
:1033BC000299BDF9480001335144A3EB090313F002
:1033CC0059FB6A1C08F1FF31701E14F0B1F9BAF107
:1033DC00000F17D0019A029BB2F902200499013B0D
:1033EC005344521A93420DDBBDF94C20BDF94A10DF
:1033FC00BDF9480013F03EFB7A1C711E08F1FF303A
:10340C0014F034F9009BD3B1BDF94C200399501C36
:10341C00C01A019BB3F90430A3EB010B58450EDC29
:10342C00BDF94E30029901335144A3EB090313F05B
:10343C0021FB6A1C08F1FF31781C14F079F9B9F101
:10344C00000F17D0019ABDF94E30B2F90600049A5C
:10345C00591CA1EB0901A0EB020949450ADCBDF995
:10346C004C20BDF9480013F005FB7A1C711E681C3A
:10347C0014F0FCF80B9BD3F8983013B101212046C3
:10348C00984720460CF07AFB30B10BF053FFBDF897
:10349C003E30181AADF83E000EA80CF027FE0B9B20
:1034AC00586E03F061FC00250646AE4240F0868063
:1034BC0010A80CF01BFE0B9B986E03F055FC00251E
:1034CC000646AE4240F0958000200CF00FFE0B9BA0
:1034DC00D3F8983013B10221204698470BA812F06C
:1034EC00DDFC8FE650415247EFCDAB00B5F87810BC
:1034FC00EE6CC90758BFD5F88C103E4448BF00216C
:10350C000E44B74222DD9B1A0133009A95F87A00DB
:10351C00A3EB0B039B1A049313F096FF039B5B44E2
:10352C000393049BB3427FF7F2AE039BBDF94A10A1
:10353C0095F87A209819BDF94E305144A3EB090344
:10354C0032B1024615F0F2FA3E44EAE7F61BD8E730
:10355C001A4614F0EDF8F7E72E6DD5F88030464496
:10356C00F61AB04522DDDDE905329F1A0137A7EBCB
:10357C000A0795F87B00A7EB090713F065FFB74224
:10358C007FF7C9AE0099BDF94C20BDF94E30BDF99D
:10359C004800521A95F87B10A3EB09039B1B584467
:1035AC0039B1194615F0C2FA4644E8E7A6EB08060D
:1035BC00D7E70146184614F059F8F5E70B9B294656
:1035CC00586E03F04AFC12F05BFC129078B107685D
:1035DC00384612F055FC0A9030B103680199384610
:1035EC0098470AA812F05AFC12A812F057FC0135A1
:1035FC005BE70B9B2946986E03F02FFC12F040FC06
:10360C00129078B10768384612F03AFC099030B144
:10361C00036801993846984709A812F03FFC12A894
:10362C0012F03CFC01354CE7204612F029FC1090BE
:10363C00406E03F099FB00240546A542109B10DC5C
:10364C00986E03F091FB00240546A542109B21DCEB
:10365C00586E03F0D9FB109B986E03F0D5FB10A8A5
:10366C003DE7586E214603F0F8FB12F009FC12906E
:10367C0070B10668304612F003FC0E9028B1476812
:10368C000EA812F00BFC3046B84712A812F006FC3C
:10369C000134D2E7986E214603F0DFFB12F0F0FB09
:1036AC00129028B1006812F04DFC12A812F0F6FB33
:1036BC000134CAE7EB68052B7FF495AD2046AE6864
:1036CC000CF05FFA864204D1D5E90101FFF740FD09
:1036DC0089E52046AE680CF051FA86427FF483AD42
:1036EC00F2E700BF2DE9FF41044612F0C9FBD0E917
:1036FC001787D0E91565019001A812F0CFFB02A93C
:10370C0020460CF0A0FABDF80830BDF80C201E4481
:10371C00BDF80A30ADF808601D44BDF80E30ADF8A8
:10372C000A50A2EB0802DB1B02A92046ADF80C20C4
:10373C00ADF80E300AF00AFE04B0BDE8F081F7B522
:10374C001E46836804460D46174673B3D0E904033E
:10375C00984214D1013806FB00F23144284630F06F
:10376C00F1FB206901383246394606FB005030F037
:10377C00E9FBA06803B0BDE8F040FFF7B3BF431C02
:10378C0023613246394606FB005030F0DBFBA06863
:10379C0012F076FBD0F89850019001A812F07EFB45
:1037AC00E36823B11DB92046984703B0F0BDA0686B
:1037BC00FFF798FFF9E70000F0B58BB0CDE90610E4
:1037CC00CDE904320DF05CF9149C703403941C4C5C
:1037DC000294119C0194109C0094DDE90432DDE903
:1037EC0006100AF027FE064620B303F058FB0546E8
:1037FC0003F055FB0446304612F042FBC0E9195465
:10380C00104D13990990002205F09CFF0FCD099FD4
:10381C0007F134040FC40FCD0FC495E80F0084E8F2
:10382C000F00129BA7F878300023A7F8943009A852
:10383C0012F034FB0DF01AF930460BB0F0BD00BF9E
:10384C00B9310000F400001010B586B000240494C7
:10385C000B9C03940A9C0294099C0194089C009470
:10386C00FFF7AAFF06B010BD30B585B00446019134
:10387C00E0B10DF005F9204612F002FB456E039005
:10388C0003A812F00BFB019812F0FAFA0290846074
:10389C0002A812F003FB04220DEB0201284603F0F0
:1038AC0070FA20460AF096FD0DF0E0F805B030BD38
:1038BC002DE9F7430F46044648B30DF0E1F82046D6
:1038CC0012F0DEFAD0F86480019001A812F0E6FA4A
:1038DC00404603F049FA00250646B54212DA29465D
:1038EC00404603F0BAFAA8B112F0CAFAD0F8009028
:1038FC000090684612F0D2FAB9450BD129464046E1
:10390C0000F0DAF920460AF065FD0DF0AFF803B0CF
:10391C00BDE8F0830135E0E730B585B00446019190
:10392C00E0B10DF0ADF8204612F0AAFA856E0390C6
:10393C0003A812F0B3FA019812F0A2FA0290846074
:10394C0002A812F0ABFA04220DEB0201284603F098
:10395C0018FA20460AF03EFD0DF088F805B030BD8F
:10396C002DE9F7430F46044648B30DF089F820467D
:10397C0012F086FAD0F86880019001A812F08EFA45
:10398C00404603F0F1F900250646B54212DA294605
:10399C00404603F062FAA8B112F072FAD0F8009027
:1039AC000090684612F07AFAB9450BD12946404688
:1039BC0000F082F920460AF00DFD0DF057F803B027
:1039CC00BDE8F0830135E0E773B50E4615460446B5
:1039DC00D0B10DF055F8204612F052FA032D01909B
:1039EC0010D800EB8502556BB54203D056632046C8
:1039FC000AF0F0FC01A812F051FA0DF037F8284645
:103A0C0002B070BD0025F5E70546F8E773B50D4625
:103A1C000446B0B10DF034F8204612F031FA90F8AB
:103A2C006C600190AE4204D080F86C5020460AF0D5
:103A3C00D1FC01A812F032FA0DF018F8304602B0A1
:103A4C0070BD0646FAE773B50D460446A0B10DF0FD
:103A5C0017F8204612F014FA466C0190AE4203D0CF
:103A6C00456420460AF0B6FC01A812F017FA0CF0D7
:103A7C00FDFF304602B070BD0646FAE773B50D4641
:103A8C000446A0B10CF0FCFF204612F0F9F9866C4C
:103A9C000190AE4203D0856420460AF09BFC01A83D
:103AAC0012F0FCF90CF0E2FF304602B070BD064695
:103ABC00FAE773B50D460446A0B10CF0E1FF2046C1
:103ACC0012F0DEF9066D0190AE4203D0056520467A
:103ADC00FFF708FE01A812F0E1F90CF0C7FF304621
:103AEC0002B070BD0646FAE7F7B50C4617461E46FF
:103AFC000546A8B10CF0C4FF284612F0C1F9089B8A
:103B0C000366C0E915470190C66501A812F0C6F915
:103B1C002846FFF7BCFA28460AF05CFC0CF0A6FF1E
:103B2C0003B0F0BD30B58DB0044612F0A9F9436E68
:103B3C0001909D6801A812F0B1F90023CDE9024370
:103B4C0002A82B6898470DB030BD2DE9F04794B012
:103B5C00044612F095F990F86820416B066ED0F887
:103B6C002C90D0F84CA0019002F00102079204F0C6
:103B7C00EEFC0DF10C08054601A812F08FF907AB0D
:103B8C004146204613930BF0E7FD0B23CDE90A4386
:103B9C00BDF90C300E93BDF90E300F93BDF91030FA
:103BAC001093BDF9123011930AA8B047D9F8003020
:103BBC006BB198E803000DF1140989E803000122A8
:103BCC00484649460CF03AFE48460CF08FFA05235D
:103BDC00CDE90A43BDF90E20BDF90C300799CDE9AA
:103BEC000E3200294DD0BDF9103010932A44119299
:103BFC00002308930AA8B047079FBDF90C30BDF904
:103C0C000E00BDF91010BDF91220002F3FD00E93FD
:103C1C00431901330F930123CDE9101208930AA81D
:103C2C00B047204612F02CF9019004F048FC0290A9
:103C3C00002831D0504613F0D9FB029A0198414626
:103C4C0004F040FC01A812F029F9029B09931223FD
:103C5C00CDE90A43BDF90C300E93BDF90E300F932C
:103C6C00BDF910301093BDF9123011930AA8B0476A
:103C7C0002A812F013F900200CF038FA14B0BDE8C9
:103C8C00F0872B441093BDF912301193B0E72B44FD
:103C9C000133CDE90E30BEE701A8EAE7034B044A35
:103CAC001A60044B5A69586110467047280300107B
:103CBC00240100101003001037B50C4612F0E0F888
:103CCC0003880090A3421AD94568C5B10CF0D8FE00
:103CDC00284612F0D5F8019000EB840012F0E1FABE
:103CEC000099019A0B88013BA5009BB20B802A44DA
:103CFC009C4209DB01A812F0D1F80CF0B7FE684623
:103D0C0012F0CCF803B030BD516842F8041B0134FA
:103D1C00EEE7D31E012B02D951F8223013B900EB78
:103D2C008200C36F1846704737B512F0A9F8038BA1
:103D3C000190DA0701D59B0701D544680DE0057F9A
:103D4C00019B5C684CB101A812F0A8F8204612F057
:103D5C0097F8037F0190AB42F2D801A812F09EF8BD
:103D6C00204603B030BD73B50E4614461D4612F006
:103D7C0087F8009056F8240012F082F8019018B1E0
:103D8C00038B43F00403038301A8013C12F086F873
:103D9C00AC42EFDC009B1E7F0124731E9C40A4B23E
:103DAC00009B9D684DB1684612F078F8284612F0D9
:103DBC0067F8037F0090B34204D8684612F06EF89F
:103DCC0002B070BD438B23434383E9E7F7B5064646
:103DDC0012F056F8038B00909C0734D4009B5C685F
:103DEC00A4B1684612F05AF8204612F049F8009037
:103DFC00204612F045F8057F0190019B9F6877B92A
:103E0C00012501A812F04AF8002DE7D0684612F0FF
:103E1C0045F8002C08BF3446204603B0F0BD01A87D
:103E2C0012F03CF8384612F02BF8027F0190AA42AF
:103E3C0006DA038BD90702D513F00205E1D015463B
:103E4C00002DDAD1DCE74468E0E7F7B5064612F05E
:103E5C0017F8077F01900024019B9D6801A8A5B16C
:103E6C0012F01CF8284612F00BF801900CB9077FE1
:103E7C002C46038BDA07EFD5027FBA42ECDA13F04B
:103E8C00020F174608BF2C46E6E712F007F8002C85
:103E9C0014BF2046304603B0F0BD73B5044620462F
:103EAC00FFF7D3FF2546044611F0EAFF068B01907D
:103EBC0001A811F0F3FFF30701D4A542EFD120467E
:103ECC0002B070BD07B511F0DBFF0023C0E92E3343
:103EDC00019001A811F0E2FF03B05DF804FBF7B507
:103EEC00044611F0CDFF038B0190DB070DD545681F
:103EFC005DB1077F284611F0C3FF0090009B1A7F2D
:103F0C00BA4208D8684611F0C9FF01A811F0C6FFE3
:103F1C00204603B0F0BD5E686EB1684611F0BEFF7E
:103F2C00304611F0ADFF037F0090BB4294BF2C468E
:103F3C0034463546E2E72C46E4E737B50D4611F03A
:103F4C009FFF0190846854B101A811F0A7FF20468F
:103F5C0011F096FF037F0190AB4201D0F2DA0024FE
:103F6C0001A811F09BFF204603B030BD13B511F032
:103F7C0087FF038B019003F00302032A0FD104681F
:103F8C0023F00203038301A811F088FF2CB1204613
:103F9C00FFF798FF20460AF01DFA02B010BD01A8E9
:103FAC0011F07CFFF9E713B511F06AFF038B019058
:103FBC0003F00302012A0FD1046843F002030383C8
:103FCC0001A811F06BFF2CB12046FFF77BFF2046B8
:103FDC000AF000FA02B010BD01A811F05FFFF9E77A
:103FEC00F7B50E461446054611F04AFF90F99C7041
:103FFC00019001A864B211F051FF9EB13C43BC4248
:10400C000ED0284611F03CFF0190A0F89C4001A86E
:10401C0011F044FF2846FFF755FF28460AF0DAF95D
:10402C0003B0F0BD3146284627EA040408F014FD1D
:10403C00E5E700B58DB0019249B11B23CDE9020330
:10404C0001AB02A80B9388470DB05DF804FB084642
:10405C00FAE72DE9FF470746884602A915460BF0FB
:10406C00F2FD3846BDF90A6011F00AFFD0F8A04005
:10407C00D0F83490D0F83CA0019001A811F00EFFBC
:10408C00BAF1000F1DD1B246E4B12246494638467A
:10409C00FFF7CFFF4445BDF90E300AEB00061ED1E9
:1040AC004DB1BDF808202A80BDF80C20AA80721EE4
:1040BC00A5F802A0EA800133B342ACBF0020012076
:1040CC0001E01CB9022004B0BDE8F08744450AF1B8
:1040DC00FF3A0BD02046FFF727FE0446D0E7B34249
:1040EC00F0DB2046FFF720FE0446CCE74FF0FF3014
:1040FC00E9E72DE9F04188B0074611F0C1FED0F890
:10410C00A8800190B8F1000F56D0404611F0B8FECF
:10411C000590047F05AD059B9E68002E44D0284673
:10412C0011F0BCFE304611F0ABFE0590037FA342AC
:10413C00F1DA048B14F0020434D1284611F0AEFEEF
:10414C00002C39D00026002241463846FFF781FF6B
:10415C00431C019B2AD0421E012A03D8DA6B013280
:10416C00DA632646D3F8B420D96B914221DB002ABE
:10417C0001DD013ADA6303F1380207CA02AC4433B9
:10418C0084E8070093E8070085E8070001A811F010
:10419C0085FE2A462146384605F04EFD304608B0CD
:1041AC00BDE8F0811C46B6E70124C6E7DA6B013A9C
:1041BC00D6E70028C7D1DEE701A811F06FFE002674
:1041CC00ECE730B587B00D46044611F059FED0F837
:1041DC00A8100390C0F8A85003A8019111F05EFE3E
:1041EC002046FFF786FF019940B120460AF0F2F80D
:1041FC00042120460BF010FE07B030BD04AA204667
:10420C00FFF727FF012803D804A920460AF09EF8DF
:10421C0004AA29462046FFF71CFF0128E8D804A968
:10422C0020460AF093F8E3E72DE9F04393B00646F5
:10423C004022002102A830F050F8304611F020FE48
:10424C000024C0E92E44476BD0F8A0500090C0F871
:10425C00B4404FF0FF39A04665B92CB12B464A4605
:10426C0002A92046FFF77FFD684611F017FE13B038
:10427C00BDE8F083284611F003FE047FA0F81A80F5
:10428C0012AB03EB8403818A43F8405C038B0190EF
:10429C0023F004030383009BD3F8B8208A42B8BFF1
:1042AC00C3F8B81001A811F0F9FDA14505DD2346AE
:1042BC004A4602A92846FFF756FD684611F0EEFD66
:1042CC002A4639463046FFF7B4FE8146304611F097
:1042DC00D7FDD0F8BC3000904B44C0F8BC30D0F8BF
:1042EC00B4300133C0F8B4302846FFF71DFDA146A9
:1042FC002C460546B0E700002DE9F04F624FD7F889
:10430C0000808DB00446B8F1000F40F0B780012357
:10431C003B6011F0B5FD04A9039020460BF093FC13
:10432C00BDF91220039BBDF91650D3F8BCA0AD1AF1
:10433C006A1C92450092CCBF012600266EDDD3F894
:10434C00B42001329A63204611F09AFDD0F8B49053
:10435C00D0F834B0D0F8A050069006A811F09EFD0D
:10436C00B9F1010F1BDD09A920460BF06CFCBDF95E
:10437C002A90BDF92630A9EB0303C1467DB12A462C
:10438C00594620460193FFF754FE81442846FFF717
:10439C00CBFC019B4B4508F101080546EEDA039B6B
:1043AC00C3F84080039BB3F89C301A0739D503A897
:1043BC0011F074FD3146204608F05EFB2046FFF7F5
:1043CC0033FF204611F05CFD0390039BBDF91020D8
:1043DC00BDF91450D3F8B880AD1A0135A845D3BF38
:1043EC000022C3F84480DD649A64B3F89C305B0708
:1043FC0024D503A811F052FDA845D4BF00210121FA
:10440C00204608F029FB204611F03AFD039006BB2C
:10441C00A8451EDC03A811F041FD2FE0C3F83C8039
:10442C00C0E720460BF0ADFB0028CED0009B9A4590
:10443C00DFBF039B01269E631E64C6E720460BF07C
:10444C009DFB0028E3D0A84503DC039B01225A64A2
:10445C00DA64039B03F1380207CA06AD85E807004E
:10446C00443393E8070009AE86E8070003A811F06F
:10447C0015FD32462946204605F0DEFB00233B6045
:10448C000DB0BDE8F08F00BF041F44A037B5044643
:10449C0011F0F6FCD0F8B850019001A811F0FEFC18
:1044AC002DB92046FFF7C0FE2046FFF725FF03B0CD
:1044BC0030BD00002DE9FF4143681B2B04461FDC77
:1044CC00112B1FDC012B02D0053B012B18D82068C7
:1044DC00656A11F0D5FCB0F89C80B0F9C060B0F9F9
:1044EC00C270019001A811F0D9FC6368122B00F086
:1044FC00C9806CDC052B00F08680062B00F0CF8089
:10450C00002422E0123B092BFAD801A252F823F026
:10451C00DB4400000D450000DB4400000D450000AD
:10452C000D4500000D4500000D4500000D45000037
:10453C00454500005F450000436A186811F0A0FC77
:10454C00848A029002A811F0A9FC204604B0BDE8B0
:10455C00F081006811F094FC636A0090186811F007
:10456C008FFCC48A0190064614BB009F00693B6D0A
:10457C001D7E10B311F084FC0446029002A811F0C9
:10458C008DFC328BD3071BD5C2F340022146384633
:10459C00FFF7BFFB438800220099D1F89840AC424A
:1045AC00B8BF2C469442B8BF14469C42B8BF1C46B8
:1045BC0001A811F073FC6846C5E707F17C04E0E73D
:1045CC00A3680BB9D7F884305A880023E4E7142B7E
:1045DC0096D1E86812F0DBFE05F12606002795F867
:1045EC0024309F42C0F2868005F14007002695F8E2
:1045FC003E309E4284DAE269616937F9020B13F0AE
:10460C0097F80136F3E718F0020F14BFA868286872
:10461C0012F0BDFE2369ADF808306369ADF80A30BD
:10462C00A369ADF80C306B8A02A8013BADF80E30D3
:10463C0013F0D2F86B8AADF80A30EB8AADF80E3075
:10464C002B8A02A8013BADF80C3013F0C5F8AB8AED
:10465C000133ADF8083002A8A369ADF80C3013F0A3
:10466C00BBF82369ADF80830A369ADF80C30EB8AC0
:10467C000133ADF80A3002A8E369ADF80E3013F03F
:10468C00ABF83DE7686812F082FEA86812F073FE82
:10469C00286A002205F1100114F0E3FC30E7A3684E
:1046AC00022B0FDC002BFFF62BAF686E6269E369FF
:1046BC0041889B1A5B1A03EBD373B5F96A1002EBB2
:1046CC00630214E0033B012B3FF61AAF286E6369BB
:1046DC00E2694188D21A521AB5F968100E44018861
:1046EC0002EBD2721F4407EB6202A6EB510111F0F0
:1046FC00C3FE05E736F9023BB6F90A20B6F9040009
:10470C00934207D10146B6F91020184613F010F861
:10471C00013764E7194612F0A9FFF9E730B58BB001
:10472C00CDE90610CDE904320CF0AAF9129C9C34A8
:10473C000394144C02940F9C01940E9C0094DDE99C
:10474C000432DDE9061009F075FE0446A8B111F03B
:10475C0097FB11990990102204F0F4FF099D0A4966
:10476C004C2205F150002FF08FFD084B6B63109B12
:10477C00A5F89C3009A811F091FB0CF077F92046B4
:10478C000BB030BD594D000030010010C144000089
:10479C00F0B587B01E468369B0F90C70B0F90A50B9
:1047AC000493B0F908300393438A02930223CDE9B2
:1047BC0000131446B0F91030B0F90E20B9192819AD
:1047CC00FFF7ACFF07B0F0BDF7B50D461746064630
:1047DC000CF056F90F4B28461B689847203011F007
:1047EC00A1FD044688B111F04BFB0B4A0190C76048
:1047FC00126829461D30904726B1019A138B43F05D
:10480C000103138301A811F049FB0CF02FF920468A
:10481C0003B0F0BDE4040010E00400102DE9F04FEB
:10482C000C4689B016469A460546002800F0C98009
:10483C00002900F03A810CF023F9204611F020FBFE
:10484C00D0F804800390B8F1000F00F0BE80204631
:10485C00FFF745FB039B93F81CB08146039B9F68B5
:10486C0003A8002F40F01D8111F018FB284611F011
:10487C0007FB0490204611F003FB049B0590D3F832
:10488C00B020002A00F0FB80002E00F00281BAF16B
:10489C00020F40F0A380304611F0F2FA038B069021
:1048AC00DB0740F19980D0F804A0BAF1000F00F0BA
:1048BC008F80504611F0E4FA0790846007A811F03D
:1048CC00EDFA069A059B5460C3E901A6127F0132EA
:1048DC001A77002606A811F0E1FA002E40F0D980D4
:1048EC00049AD2F8B0300133C2F8B03004A811F0F9
:1048FC00D5FA059B05A81D6011F0D0FA2846FFF7E4
:10490C00E1FA284609F066FD204611F0B9FA039049
:10491C00284611F0B5FA039B0590006D1E7F12F02E
:10492C0065FD0398059A047FB2F99010631CD2F8C8
:10493C0094401D3001FB034414F03EFEA4B2039BD3
:10494C0020449882B8F1000F2CD05FBB5C68C3E99F
:10495C000058A6EB0B0B059AD2F8B0300133C2F815
:10496C00B030039B5E6856B103A811F097FA30463D
:10497C0011F086FA037F03905B44037705604E4584
:10498C00E9D1304611F07CFA0790446007A811F089
:10499C0085FA3CB1204611F073FA0690866006A8A1
:1049AC0011F07CFA05A811F079FA03A811F076FA47
:1049BC002846FFF787FA284609F00CFD0CF056F84C
:1049CC003D46284609B0BDE8F08FC346C14645E7D1
:1049DC00049BC3F8A44074E701267BE7BAF1000FEF
:1049EC001FD1304611F04CFAD0F808A00790BAF15C
:1049FC00000F12D0504611F043FA0690446006A8FE
:104A0C0011F04CFA079A059B9460C3E9016A127F76
:104A1C001A7707A811F042FA62E7049BC3F8A0408A
:104A2C00F0E7BAF1010F7FF45BAF304611F028FAD2
:104A3C000690037F019306A811F030FA3046FFF779
:104A4C004EFA8246A8B111F01BFA4668069096B150
:104A5C00304611F015FA0790846007A811F01EFA81
:104A6C00069B019A5C60059B06A8C3E9016A1A774C
:104A7C00D0E73046E7E7049BC3F8A440F0E7D3F84F
:104A8C00A02032B9C3E92944C3F8A040C0E901779A
:104A9C0026E704A811F002FA05A811F0FFF9012786
:104AAC0032E711F0FBF9002788E70D4689E773B56B
:104ABC0005460093019116460BF0E2FF069901980A
:104ACC000022FFF781FE009B044640B101463246AE
:104ADC002846FFF7A3FE10B1204611F033FA0BF075
:104AEC00C5FF204602B070BD13B5044660B10191FC
:104AFC000BF0C6FF019904222046FFF771FA02B0B1
:104B0C00BDE810400BF0B2BF02B010BD13B50446A7
:104B1C0060B101910BF0B4FF019908222046FFF718
:104B2C005FFA02B0BDE810400BF0A0BF02B010BDA0
:104B3C0037B50D460446B0B10BF0A2FF204611F07C
:104B4C009FF9B0F89C3001907DB1D90706D523F0C0
:104B5C000103A0F89C30204609F03CFC01A811F0A0
:104B6C009DF90BF083FF03B030BDDA07F6D443F0A8
:104B7C000103EEE77FB500230546164602930C466B
:104B8C0009B9012A21D8002D66D00BF079FF2846EF
:104B9C0011F076F901901CB1204611F071F90290D8
:104BAC00029B052E19D8DFE806F0031317353D508C
:104BBC00019BD3F8A040029B13B102A811F06EF92F
:104BCC0001A811F06BF90BF051FF204604B070BD39
:104BDC00019BD3F8A440EEE70BB90024EBE7204689
:104BEC00FFF77DF90028F8D011F04AF944680390DA
:104BFC005CB103A811F052F9204611F041F9029B67
:104C0C00027F1B7F03909A4200D0002403A811F06E
:104C1C0045F9D0E7002BE0D0197F2046FFF78DF93E
:104C2C000446C8E7002BD8D01A8BD207D5D55C68C0
:104C3C00002CD2D0204611F023F9029B027F1B7F5F
:104C4C0003909A4298BF0024E0E7002BC5D0197F4F
:104C5C000029C2D00139E0E72C46B6E713B504466B
:104C6C0060B10BF00DFF204611F00AF9D0F8A84006
:104C7C00019001A811F012F90BF0F8FE204602B0D9
:104C8C0010BD37B50D460446B8B10BF0F9FE204601
:104C9C0011F0F6F8012D019011D1B0F89C2091077C
:104CAC0006D442F00202A0F89C20204609F092FBA8
:104CBC0001A811F0F3F80BF0D9FE03B030BD002DB4
:104CCC00F6D1B0F89C209307F2D522F00202EAE765
:104CDC0010B504460BF0D4FE2046FFF7BFFF28B1F9
:104CEC00FFF774F801462046FFF76BFABDE8104059
:104CFC000BF0BCBE10B504460BF0C2FE2046FFF70D
:104D0C00ADFF28B1FFF7A1F801462046FFF759FA8D
:104D1C00BDE810400BF0AABE10B5044640B10BF034
:104D2C00AFFE2046FFF73FF9BDE810400BF09EBEEA
:104D3C0010BD10B5044640B10BF0A2FE2046FFF7A3
:104D4C0015F9BDE810400BF091BE10BD2DE9F04FE8
:104D5C002DED028B4468B5B006460146204604F0A2
:104D6C00F1FF58B133682E2B2AD01CDC0F2B5FD0EF
:104D7C0009DC0B2B2CD00E2B00F0DB8335B0BDECFB
:104D8C00028BBDE8F08F262BF8D1F368052B00F0D1
:104D9C008884062BF2D1204635B0BDEC028BBDE8E1
:104DAC00F04FFFF78FB840F2131293422DD0B3F5AA
:104DBC00107F00F0E882312BE0D11C4BF360DDE773
:104DCC00204635B0BDEC028BBDE8F04FFFF75EBB63
:104DDC00204611F055F8D0F8A0400E900EA811F016
:104DEC005DF8002CCAD0204611F04AF818900069E2
:104DFC0008B111F0A7F8189B18A85D6811F04EF8CF
:104E0C00204611F09FF82C46EBE7204611F038F8BD
:104E1C000890D0F8AC0007F065FD089B0022C3F8A1
:104E2C00AC2008A811F03AF8A8E700BF4545525449
:104E3C00204611F025F8436B0390006D08EE103AF4
:104E4C0012F0D4FAF268106851680CAB03C3039BE0
:104E5C00B3F90220B3F90010524249420CA812F0E7
:104E6C004AF908A920460AF0EEFE08A90CA80BF096
:104E7C0046FC0399BDF83050D1F8B800BDF920308C
:104E8C00BDF92420ADF82850BDF83450ADF82C50A5
:104E9C008D6C0E94D21A01325B1B12938242ACBF02
:104EAC009B181B18BDF92250149318AB139517932C
:104EBC00CD6BD1F8A03004930498002D40F0E6811E
:104ECC00049B002B00F0E481BDF94C30BDF9362079
:104EDC00ADF82A309A42C0F2DB8103A810F0DEFF55
:104EEC00049A18EE101A2046FFF7A3F8074620463E
:104EFC0010F0C6FFBDF82A30BDF932200390013BFB
:104F0C003B441BB29A42ADF82E3000F3B7810AA88D
:104F1C000BF0ECF804AB1793139B3B44013B15933C
:104F2C00039B5B6B002B00F0A981B44B70221B68B8
:104F3C00002118A89847DDF83880404610F0A0FFF3
:104F4C00179B05901E68304610F09AFF059B069043
:104F5C00B3F89C309B0714D540460AF09BFA059A8F
:104F6C00002800F0B281B2F89C3013F0020304D098
:104F7C00D2F8A8309D1B6B426B4102EB83035B6D37
:104F8C00189340460AF086FA059B002800F09F8192
:104F9C00D3F8A820901BD0F1000A4AEB000A1B6D35
:104FAC001F9312F039F88146DDE90510057F129B3D
:104FBC00B1F990C06A1CD1F894501D440CFB0255F9
:104FCC00ADB21D30ADF8705014F0F6FA139A159B73
:104FDC009B1A0133A3EB090303EBD37302EB6303BB
:104FEC009BB209F1FF39ADF872304B44ADF8763015
:104FFC00059B03EB8A0A013DDAF860301993DAF865
:10500C0054301A93069B05441D334046ADF874503A
:10501C0020930AF03FFA059A002800F05B81B2F861
:10502C009C3013F0020304D0D2F8A830991B4B42E9
:10503C004B4102EB83035B6D1893069B1D8B15F0A4
:10504C0001050FD05D686DB1284610F019FF069B65
:10505C000790057F1B7F07A89D4294BF0025012563
:10506C0010F01CFF059BB3F89C30DB0700F19D8012
:10507C0040460AF00FFA059B002800F02D81B3F88A
:10508C009C0010F0020007D0D3F8A800A0EB060C8F
:10509C00DCF1000040EB0C0003EB8000DDF818A005
:1050AC00C26E1B92DDF854901399D3F890E0129ACB
:1050BC009AF81C60019209EB01030EFB062203EB2C
:1050CC00D3730EEBDE70BAF818C0013A5B104010C7
:1050DC00002E00F016819DF884600DF1D00B0BEBC7
:1050EC00460BA2EB00080FFA88F82BF83E8C0DF15A
:1050FC00D00B0BEB460B1CF0040F2BF84A8C0DF16C
:10510C00D00B0BEB460B1BB22BF8441C0DF1D00B48
:10511C000BEB460B0CBF0FFA89F119462BF8381C18
:10512C00711CC9B21CF0010F8DF8841000F0D880EE
:10513C000244002D00F0D2801CF0020F14D00DF1AF
:10514C00D00B0BEB410B0FFA82FC2BF83ECC0DF184
:10515C00D00B0BEB410B02362BF84ACC2BF8443C12
:10516C002BF8389C8DF884609DF8841034AE06EBD7
:10517C00410626F8383C34AE06EB4106013126F8E0
:10518C00443C019B26F83E2C26F84A8C03448DF8AF
:10519C008410581EBAF81A209DF89E300021002A5F
:1051AC0040F0A28009B18DF89E30DDE90561129BBB
:1051BC0091F81C80D6F89020086902FB083808F199
:1051CC00FF39002800F0BC8010F05AFE079006460C
:1051DC0007A810F063FE069BDDF814A01B8BDAF811
:1051EC00908013F0010F00F0C28013F0020300F066
:1051FC00A980002D40F0B98002E000BFD804001057
:10520C002A4631465046FEF784FDDAF8903031904C
:10521C0003EB0908ADF8CA808DF8CD5005A810F045
:10522C003DFE06A810F03AFE18AB1793049B1E9394
:10523C0005230F93039B0EA85B6B984712230F93C8
:10524C00039B0EA85B6B984714230F93039B0EA82C
:10525C005B6B984706230F93309B33B19DF8CC3092
:10526C001093039B0EA85B6B9847319B33B19DF851
:10527C00CD301093039B0EA85B6B98471398384462
:10528C0013900498FEF750FD049019E6013DC0B947
:10529C0000200AF02BFF039B586DBA4B98420BD0A1
:1052AC00139BADF82A30BDF82630ADF82E300BF03C
:1052BC00F3FF0AA811F012FC039804F011FD03A8E7
:1052CC00B0E5FEF731FD0490F6E5022355E64FF00C
:1052DC00020A64E60223ACE60220DDE6024443E760
:1052EC000EF1FF310A443FE7D60707D534AE591CFF
:1052FC0006EB430323F8300CCBB201215208704467
:10530C004DE70CF0030CBCF1030F7FF44EAF002DF6
:10531C003FF44BAF9DF88410024434A800EB4100DD
:10532C0012B220F83E2C34A800EB4100013120F8D9
:10533C004A2C20F8443C20F8389C8DF8841034E733
:10534C007C3648E7002D3FF45BAF1D460322314607
:10535C005046FEF7DEFC08EBD87809EB6808309075
:10536C00ADF8C8808DF8CC204AE70422EFE7B3688B
:10537C000BB9DAF884303193C8440223ADF8CA80F3
:10538C008DF8CD304AE7F768002F00F0C980204631
:10539C00FFF764FC3B7A8046002B00F0BF80204670
:1053AC000AF0A8FC002844D10121204607F0F0F8AF
:1053BC002046D7F8049010F063FDD0F834A0D0F854
:1053CC00A050C66B189018A810F068FD002E3FD1A5
:1053DC00002D45D10025204610F052FD0C90002DDB
:1053EC0000F09480284610F04BFD0C9A3B68916CB1
:1053FC000E900B44D2F890C0067FB2F9C0100CFB93
:10540C0006F65B1A9E423ADC0CEB0601994236DD3D
:10541C00B0F8189019F0010F31D00EA810F03EFD25
:10542C000CA810F03BFD284619F0020F52D0FEF7E5
:10543C009DFD012120460AF0EFFC2046FFF70EFCF3
:10544C0080453FF49BAC042120460AF0E5FC95E432
:10545C00013E002DBED02846FEF766FC0546B5E79A
:10546C002A4651462046FEF7E4FDB145064401DBD1
:10547C00B145B0DD2846FEF757FC0546A8E7B2F863
:10548C009C309B071CD5204618A90AF0DCFBBDF903
:10549C006060BDF964003B68B3423BDB834239DC9E
:1054AC000C9BD3F8AC60C6B10E9B0EA81E8B10F0F3
:1054BC00F5FC0CA810F0F2FC284616F0020FB5E72C
:1054CC00D2F8943066441D3006EB030914F074F8DE
:1054DC004844E0E7FEF767FDABE7C3F8A850204669
:1054EC0008F078FF0EA810F0D9FC0CA810F0D6FC30
:1054FC0033464FF496723146204607F033FA054690
:10550C00204610F0BDFC0C90C0F8AC500CA810F06C
:10551C00C5FC8EE70EA810F0C1FCF7E7022189E765
:10552C000321204635B0BDEC028BBDE8F04F0AF0EC
:10553C0073BC204610F0A4FCD0F8AC50089008A81E
:10554C0010F0ACFC002D7FF419ACF3685A68002AFB
:10555C003FF414AC20461F6810F092FCD0F8A080E9
:10556C00D0F8A8500A900AA810F098FCA7F11003E4
:10557C00082B00F29180DFE803F03876076F8F8FED
:10558C008F7D8300EFCDAB00002D3FF4F7AB2846A9
:10559C0010F076FC068B0C900CA810F07FFCF0073A
:1055AC007FF5ECABB1071BD5204610F069FC0E90D3
:1055BC00D0F8A80010F064FC436818902BB10E9A38
:1055CC002046C2F8A83008F005FF0EA810F066FCC3
:1055DC0018A810F063FC2046FEF78BFDFFF7CEBB3E
:1055EC002846FFF799FBFFF7C9BB002D3FF4C6AB6C
:1055FC00284610F045FC068B0C900CA810F04EFCC5
:10560C00F207284624D5B30703D5FFF792FBFFF723
:10561C00B5BB10F035FC1890077F2E463046FEF7D0
:10562C003CFC064618A810F039FC304610F028FC5B
:10563C001890037F9F4202D8002BEFD12E4618A85A
:10564C0010F02CFC31462046FEF7BBFDFFF796BB55
:10565C00FEF723FC0146F6E7002D3FF48FAB2846FE
:10566C00FEF7B4FBF6E7002D3FF488AB2846FEF7B7
:10567C00ECFBEFE7B8F1000F3FF480AB4146E2E7FB
:10568C00002D3FF47BAB2846FEF7A0FB2E4686424E
:10569C000546F8D10146D6E7304609F01FFBFFF767
:1056AC006DBB204610F0ECFB08902046B5680AF064
:1056BC0068FA85420ED1B06818A90AF08DFA089BD9
:1056CC00199ADA6308A810F0E9FB204608F082FE6C
:1056DC000A21B9E62046B5680AF050FA8542F1D1A4
:1056EC00B06818A90AF078FA089B199A9A64E9E745
:1056FC000229F7B505460C46164628D80BF0C0F91A
:10570C00284610F0BDFB036900905BB9684610F0A9
:10571C00C5FB0C2010F006FE0746284610F0B0FB27
:10572C0000900761009B186960B110F0A9FB019013
:10573C0040F8246001A810F0B1FB009B186808B178
:10574C0008F048FE684610F0A9FB0BF08FF903B087
:10575C00F0BD37B50C460546B8B10BF091F92846AB
:10576C0010F08EFB038B019003F001022260C3F357
:10577C00400382F00102C4E902236360037F2361CA
:10578C0001A810F08BFB0BF071F903B030BD70B5B4
:10579C008CB005460C4610F073FBC36D019001A84C
:1057AC009E6810F07BFB0295032C05D8DFE804F013
:1057BC0002090B0D18230393736802A898470CB0C9
:1057CC0070BD1623F7E71523F5E71723F3E737B575
:1057DC0004460D4610F054FBB0F87C3001906DB1CE
:1057EC00190706D443F00803A0F87C30204608F0D3
:1057FC00F1FD01A810F052FB03B030BD1A07F8D52B
:10580C0023F00803F0E700002DE9F043456887B06A
:10581C00044628460AF04AF9064610F031FB476E5A
:10582C00D0F84880D0F88090019001A810F036FB99
:10583C002368222B11DC0D2B4EDD0E3B142B4BD889
:10584C00DFE803F036124A4A4A4A4E4E4A4E4A4A5A
:10585C004A4A4A4A25314A4A4700312B3CD1224B0D
:10586C00E36007B0BDE8F083204B984504D0404678
:10587C000BF012FD11F03CF9002FF2D094E80F0060
:10588C0002AE86E80F0003953046B847E9E7E368B7
:10589C00002BE6D0B9F1000F17D04D4515D0484676
:1058AC000AF09CFBDDE72146304604F04BFAD8E7C2
:1058BC00E3685A68002A0FDD1B68092B05D00A2BF8
:1058CC000AD1284606F09AFECBE7284606F0CAFE17
:1058DC00C7E7C4F80C80C4E717B166602046D4E76C
:1058EC00204609F0FBF9BCE743415246EFCDAB0033
:1058FC0008B5438E13F02003024607D0B0F95400CC
:10590C0018B9506B11F0C6FB023008BD1846FCE705
:10591C002DE9F74304460D46164610F0B1FAC36D57
:10592C00B0F900809F68B0F902900090684610F0C2
:10593C00B5FA3B680021204698470746204609F0F7
:10594C00AAFF044610B903B0BDE8F083204610F05E
:10595C0097FAB0F902300190A3EB09039F420BD1E7
:10596C00836A1B060FD5B0F900303268A3EB08032D
:10597C009A4201DB013B336001A810F08FFA2046FC
:10598C000AF05BF8DDE7B0F904302A68A3EB0803F2
:10599C009A42DCBF01332B60EEE72DE9F04F87B064
:1059AC000646894610F06CFAC26D0390946801218A
:1059BC002268304690472268032180463046904743
:1059CC002268022183463046904722680021824695
:1059DC00304690470090039809F084FC05460398E4
:1059EC0009F087FC07460398448E14F0200418BF76
:1059FC00B0F95840FFF77CFF03990246C86E18B106
:105A0C00019209F097FC019A009BBDF80010A9F8CF
:105A1C000020013D14FA82F414FA83F40139A5EB49
:105A2C000B0B013F11FA82F2A9F802000FFA88F869
:105A3C000FFA8BFB2044A7EB0A0AA9F80600A9F879
:105A4C000E30A9F81220A9F80480A9F808B0A9F81A
:105A5C000AA0A9F80C80A9F810B003A810F01EFA3F
:105A6C00B9F90C200492B9F91020059204A905AAE1
:105A7C003046FFF74DFF049AA9F80C20059AA9F8B7
:105A8C00102007B0BDE8F08F70B586B0064610F058
:105A9C00F7F9D0E91A450090684610F0FFF954EA7E
:105AAC00050325D001A93046FFF777FFACB1BDF94E
:105ABC000A20BDF9081020460AF07EF9BDF90A301B
:105ACC00BDF90E20BDF90C10D21ABDF90830C91A57
:105ADC000132013120460AF0E1FA4DB1BDF90A203C
:105AEC00BDF90630BDF90810D21A28460AF064F93F
:105AFC0006B070BD1FB50446F0B101910AF0C0FFAD
:105B0C00204610F0BDF9036F029002A8039310F029
:105B1C00C5F9019903A80AF01BFF58B1204610F0F3
:105B2C00AFF9039B0290036702A810F0B7F9204667
:105B3C0008F050FC0AF09AFF04B010BD2DE9F041BA
:105B4C008EB0CDE90610CDE90432DDF854800AF0B0
:105B5C0097FF1A9C60340394354C029448F480549B
:105B6C000194149C0094DDE90432DDE9061008F080
:105B7C0061FC0646002855D010F082F92D4D17997E
:105B8C000890302203F0DEFD0FCD089F07F134049E
:105B9C000FC40FCD0FC495E80300199B264D84E864
:105BAC0003007B66169BA7F87C3000242B68FB65F2
:105BBC00C7F88040FC66C7F8884008A810F06EF95A
:105BCC0009A93046FFF7E9FEBDF92A10BDF92800F6
:105BDC00BDF92E30BDF92C200394184C02945B1A9D
:105BEC00121A41F282740132CDE90064013308F0DB
:105BFC0021FC2B6804465B6830469847304610F011
:105C0C003FF90890846608A810F048F942F20403A2
:105C1C0018EA030F02D1304606F042FC18993046C0
:105C2C00FFF768FF0AF022FF30460EB0BDE8F081A6
:105C3C00E55C00007C010010A40100101558000068
:105C4C00F0B589B01E468369B0F90C70B0F90A50F2
:105C5C0006930E9B059343680493B0F908300393A5
:105C6C00438A02930023CDE900131446B0F9103097
:105C7C00B0F90E20B9192819FFF760FF09B0F0BD73
:105C8C0037B50D46044698B10AF0FAFE204610F0DE
:105C9C00F7F8B0F95A300190AB4204D0A0F85A5042
:105CAC00204608F097FB01A810F0F8F80AF0DEFE89
:105CBC0003B030BD13B5044658B101910AF0E0FEB3
:105CCC0001992046FFF783FD02B0BDE810400AF0B1
:105CDC00CDBE02B010BD00002DE9F047446886B07F
