:1000000010090010010300001B0300007C03000026
:100010001D0300001F03000021030000FBE3FFEFAE
:10002000000000000000000000000000618C0100E2
:100030002503000000000000C18C0100058D0100B7
:1000400005560100155601002556010035560100E0
:1000500045560100555601006556010075560100D0
:100060008556010095560100A5560100B5560100C0
:10007000C5560100D5560100E5560100F5560100B0
:10008000055701001557010025570100355701009C
:10009000455701005557010065570100755701008C
:1000A0008557010095570100A5570100B55701007C
:1000B000C5570100D5570100E5570100F55701006C
:1000C0000558010015580100255801003558010058
:1000D0004558010055580100655801007558010048
:0400E000855801003E
:0402FC00FFFFFFFF02
:10030000DFF88CD023488047DFF884D0224880472C
:1003100022482349016000F045B82FE02EE02DE08F
:100320002CE02BE02AE029E028E027E026E025E089
:1003300024E023E022E021E020E01FE01EE01DE0B9
:100340001CE01BE01AE019E018E017E016E015E0E9
:1003500014E013E012E011E010E00FE00EE00DE019
:100360000CE00BE00AE009E008E007E006E005E049
:1003700004E003E002E001E000E0FFE71EF0040F0C
:100380000CBFEFF30880EFF3098013F0CBBA000045
:10039000000001104B8D0000A9B3010008ED00E042
:1003A0000000000027498D4627482849284A00F0C8
:1003B00037F828482849294A00F032F828482949BE
:1003C000294A00F02DF8294829492A4A00F028F83E
:1003D00029482A492A4A00F023F82A482A492B4A60
:1003E00000F01EF82A482B49002200F024F82A4881
:1003F0002A49091A00220260043001601C481D4984
:10040000884205D00268043003B4904703BCF7E784
:1004100000208646EC4600200021214A9047FEE756
:10042000884207D0521A05D0037801300B70013191
:10043000013AF9D17047884202D002700130FAE7E0
:100440007047000010090010004604000000001072
:10045000D4000010A4040000A40400008C000200DA
:100460000046040000000010000000108C00020094
:100470008C0002008C0002008C0002008C00020044
:100480008C0002008C0002008C0002000046040078
:10049000007017A0949117A0989117A0000080A059
:0404A000438D000088
:1004A400024B4FF0FF321A60704700BF887017A0EC
:1004B4002DE9F04F91B0044612F0BAFD0FAA0021C5
:1004C40020461BF0AAFE4F4E4FF4F8430793002535
:1004D400069547F6E07705970223049340F2DF136D
:1004E400039340F21F330293019500950F9B4FF441
:1004F400F0724FF44871304611F054FD424C2146DD
:10050400304612F080F8304612F07FF880461F2201
:100514003E49304612F08CF8ADF83450ADF8365000
:10052400F369ADF83830336AADF83A3039463046BD
:1005340011F073FD2146304612F065F80BAF4FF40D
:10054400B47239460DA812F0CBFFBDF82CB0BDF83B
:100554002E90BDF83240DFF8B8A04FF4B472514683
:10056400384612F0DDFFADF82CB0ADF82E90ADF8A2
:100574003240544634F86039063BADF830300DF162
:1005840024092B4680224946384612F083FF99E815
:10059400030087E8030008F142022B4692B2494661
:1005A400384612F031FFBDF824302AF8603CBDF81B
:1005B4002830A380BDF8263063804033E380154B98
:1005C400A360154BE360154B2361A561E561A5624A
:1005D4002146304612F065FA2946304611F01FFDD7
:1005E400B4F866300093B4F86430B4F86220B4F818
:1005F4006010304611F07DFC12F02EFDA56611B09E
:10060400BDE8F08F987017A0A41404008C000200B9
:10061400687017A0B0000200A5040000DC2E0300DF
:1006240010B582B0114C0021204611F0F8FC0021D5
:10063400204611F0F2FC0021204611F0F3FC0C4B93
:10064400196809120B4B1A68121202F1090300937C
:1006540001F109030A3A0A39204611F04AFC002143
:10066400204611F0DFFC02B010BD00BF987017A047
:10067400947017A0907017A02DE9F04F8DB0002250
:100684004E4B1A604E4B5A679A67DA67DA661A67F6
:10069400B3F86020B3F864100A44521049490A6060
:1006A400B3F86220B3F8663013445B10464A136013
:1006B400464A102101201AF0B3FA10B10DB0BDE87A
:1006C400F08F424C424A434920681AF0E0FA22462D
:1006D4000AA941481CF01EF920B13C4B18681AF0D5
:1006E400C1FAEBE70BA93D481BF073FD28B1374B6A
:1006F40019680A981CF07BF9EFE709AA00210B9806
:100704001BF08BFD08A936481AF0D4FE18B10B98DB
:100714001BF076FDEBE7334908981AF0B7FE002882
:10072400F5D10B98FFF7C4FE1AF080FB0446234B67
:100734001B68002BEBD1DFF89490DFF884802A4FFC
:1007440084E01F4B0022DA661A6710264FF00A0B6A
:10075400DFF890A01D4658461AF09EF9DAF800001A
:1007640003685B69642205A99847EB6E059A1A44ED
:10077400EA662B6F06990B442B67013EEBD11146B9
:10078400002AB8BF02F10F0109110D4AD1661A46B9
:10079400002BB8BF03F10F021211094B1A674FF077
:1007A400FF325A671AF042FB104B186075E04FF4A1
:1007B40096329DE04FF49633A4E000BF887017A0F2
:1007C400087017A0947017A0907017A0047017A059
:1007D400A4250200B8000200C4000200D0000200F8
:1007E400D40002008C7017A0987017A0007017A096
:1007F400B04200F0E780774B9B6E002B40F0E68020
:10080400754B1E60754B1D6033120A3B03932B120C
:100814000A3B0493724D04AA03A9284611F00FFC65
:10082400284612F0BFFEBDF81020BDF80C106D482C
:1008340012F066FC674B4FF0FF329A6614201AF0F0
:100844002BF9694B1B68002B7FF461AF0023D9F8A7
:1008540000204146384612F01BFB054626461AF096
:10086400E5FA0446002DE9D1B042E7D05F4B1868A1
:1008740003685B69642205A9984705461AF0D6FA0D
:100884005B4B1A681860002DD8D1524B5B6F0193F3
:10089400002B3FF456AF831A01934E4BD96E059A41
:1008A400521A0592196F069B5B1A0693019901FB74
:1008B40002F2002ABCBF02F57F42FF3212144549FE
:1008C400896F01EB4222019901FB03F3002BBCBFAA
:1008D40003F57F43FF331B143E49C96F01EB4323E8
:1008E400B2F5963FBFF663AF42498A42B8BF0A46A3
:1008F40038498A67B3F5963FBFF65CAF3D498B42F2
:10090400B8BF0B46DFF8CCC0CCF87C30324908685D
:10091400DDF804A00AFB02F1DFF8DCE08EFB0165E0
:10092400CE17C6EBA51606442C4909680AFB03F545
:100934008EFB05AEED17C5EBAE150D44BCF864C0D7
:10094400ACF10B0C4FEA0C2EB6EB0C2F06DD02EBD0
:10095400D272521052421F4EB26776461D4AB2F806
:1009640060200B324FEA022CB6EB022F07DA194E45
:10097400B26F02EBD27252105242B2676646154A07
:10098400B2F866200B3A4FEA022CB5EB022F06DDD3
:1009940003EBD3735B105B420E4AD36765460D4B82
:1009A400B3F862300B334FEA032CB5EB032FBFF6D9
:1009B4001FAF084AD36F03EBD3735B105B42D3675B
:1009C400654615E7A9427FF416AF37E7FFF728FE1F
:1009D40016E700BF087017A0947017A0907017A0B6
:1009E400987017A09CEE0200887017A08C7017A056
:1009F400007017A000D4FEFFD34D6210034B0360B8
:100A0400034B0B6080231360704700BF507517A021
:100A1400507317A0034B0360034B0B6080231360D8
:100A2400704700BFF87217A0F87017A083694FF0E1
:100A3400FF329A66704700002DE9F04FA9B00446D2
:100A440000F16C0B27AA002140681BF0E6FB12F0B2
:100A5400EFFA05201AF020F804F108084FF4F843DF
:100A640007930023069347F6E0720592022204924C
:100A740040F2DF12039240F21F320292019300937C
:100A8400279B4FF4F0724FF44871404611F08AFAF4
:100A94006B49404611F0B7FD6A4B1B68002B41D0EF
:100AA40023681A6840F2E97302930E230193072323
:100AB4000093654B1B68654908A81DF04FFD1F2274
:100AC40008A9404611F0B4FD0021404611F0A7FAF0
:100AD400404611F09AFD05460023ADF89430ADF878
:100AE4009630636AADF89830A36AADF89A30122153
:100AF40025A812F05DFC23685E689B68CBB95C4650
:100B0400BDF89A20BDF89630D21AA2F23312521BC5
:100B14000023C2F34F021FA925A812F053FC4FF083
:100B2400020A35E023681F221968404611F080FD4F
:100B3400CAE705F14202022392B223A925A812F0C2
:100B440063FC802221A923A812F0EAFCBDF88420CA
:100B5400A4F86C20BDF88630A4F86E307F32A4F877
:100B640070203F33A4F87230394B6367394BA36765
:100B7400394BE367C4F884400023C4F88830A4F8F0
:100B840080308C34BCE7A5F11006BAF1010A48D0D4
:100B94003368002B45D03223802223A925A812F0E4
:100BA40011FCBDF89820BDF89430D21AA2F2952217
:100BB4000023C2F34F021FA923A812F047FC06F139
:100BC400100504F180074FF032092E4655F8103C09
:100BD400002BD8D04B46802221A923A812F036FC42
:100BE400BDF884302380BDF886306380BDF888303A
:100BF400A380BDF88A30E38055F8103CA36055F813
:100C04000C3CE36055F8083C236155F8043CA361AF
:100C14000023E361A38220341035BC42D5D13C4685
:100C2400B3E70023A3605946404611F03AFF1BF096
:100C340099FC10B129B0BDE8F08F12F015FAF9E76C
:100C4400A4140400547717A0587717A0DC000200FE
:100C5400B0000200310A0000DC2E03002DE9F0414F
:100C640082B005464FF4D6701BF082FC04466A46F7
:100C74001021012019F0D4FF08B1002300935CB1C6
:100C84004FF4D672002120461DF065FD2560009BBF
:100C94002BB920461BF074FC02B0BDE8F0816A4613
:100CA40001A923481BF036FE18B1009819F0DAFFA9
:100CB400EFE7211D1F481BF08CFA20B10099019821
:100CC4001BF095FEF1E72046FFF7B6FE04F16C0831
:100CD400194F04F1080605E02046FFF7ADFE09E0D0
:100CE4003B68BBB9A36EF3B9EB681BB1984710F02E
:100CF400010FF1D14FF0FF33009A4146304612F014
:100D0400C7F80028ECD0A36E002BE9D12046FFF7EA
:100D140093FEE5E706F0F2F92046FFF78DFE064B59
:100D240000221A60D5E760681BF06AFAC6E700BFC4
:100D3400C4000200D0000200A87517A008B580699D
:100D4400FFF78CFF08BD000070B504460D460E4B3E
:100D54001B6883B100201AF09DFA0C4B1E6807F043
:100D6400CDFF2A46B0FBF4F130461BF0D0FC002046
:100D74001AF062FA70BD054905481BF0B1FC024B3C
:100D84004FF0FF321A60E5E7AC7517A0B07517A0F5
:100D94000801020008B51421FA20FFF7D5FF08BDA9
:100DA40008B54FF4FA716420FFF7CEFF08BD8369DC
:100DB4004FF0FF32C3F8E4207047000010B582B052
:100DC40004460F4B1B68B3B9002111F028F947F60C
:100DD400E071204611F021F90A488388428801888D
:100DE400C08801380090013B01320131204611F0E6
:100DF40080F802B010BD47F6E07111F010F9E6E793
:100E0400BC7517A0C07517A010B58EB0044603A911
:100E14001C481BF0DEF91C4B1B68B3F1FF3F2AD0C2
:100E2400194B4FF0FF321A6041F28833059342F2B6
:100E34001073069347F2305307934FF47A73049375
:100E4400124B0A93124B0B93124B0C93124B0D93B0
:100E54004FF4F07300934FF448737622DC210F486B
:100E640012F0D8FB04A903981BF016FBA069FFF746
:100E7400A5FF0EB010BD044B00221A601BF048FB06
:100E8400F4E700BFD0000200BC7517A0493601008A
:100E94000537010055380100CD380100FC28020057
:100EA4002DE9F04F97B04FF48A701BF061FB1A4B99
:100EB4001860A8B104464FF48A7200211DF04BFC5F
:100EC4004FF0FF33C4F80431144A1021012019F003
:100ED400A7FE40B1104C20681BF052FB0023236096
:100EE40017B0BDE8F08F0D4A15A90D481BF012FD8F
:100EF40020B10A4B186819F0B5FEEBE7064B1968E8
:100F0400603108481BF065F970B1044B19681598F5
:100F14001BF06DFDEDE700BFB87517A0B47517A001
:100F2400C4000200D0000200D84C236803F5887284
:100F340003F58671186E1BF0B6F9246812F078F880
:100F440008AA0021206E1BF068F94FF4F8430793B8
:100F54000025069547F6E07BCDF814B002230493F0
:100F640040F2DF13039340F21F330293019500957F
:100F7400089B4FF4F0724FF44871204611F012F8B8
:100F8400C349204611F03FFB204611F03EFBC4F854
:100F940000011F22BF49204611F04AFB5946204652
:100FA40011F03BF82946204611F039F8ADF82450E9
:100FB400ADF82650E369ADF82830236AADF82A303D
:100FC4000DF124090821484612F0F2F9D4F8003151
:100FD40003F146020BAE052392B23146484612F0A5
:100FE40013FA0DAF96E8030087E803000523802277
:100FF4003146384612F02AFA0121304612F0D8F967
:10100400BDF82C30A4F864307F33A4F86830BDF800
:101014002E30A4F866303F33A4F86A309E4BE36662
:101024009E4B23679E4B6367E467C4F8805097E840
:10103400030086E8030064223946304612F070FA51
:10104400BDF83A30BDF836209B1A03EBD3735A101F
:101054000632944E052392B23146384612F0D4F942
:10106400B6F80080204611F0D0FA08F11008804448
:10107400A6F80480B6F80280204611F0C6FA08F1FA
:10108400100880441FFA88F3F3803288A4F884207F
:10109400B288A4F888207288A4F88620A4F88A303C
:1010A400814BC4F88C30814BC4F89030C4F8945010
:1010B400C4F89C40C4F8A050BDF82880BDF8243082
:1010C400A8EB0308A8F27928794BA3FB0838C8F3E6
:1010D4004F0843462A463946484612F0B7F904F108
:1010E400F00A434654225146484612F0AFF904F13F
:1010F400F80804224146504612F012FA14214046E0
:1011040012F03AF92B4640F226223946484612F0AC
:101114009DF94FF4907204F1E801384612F0E0F9B9
:101124005B49204611F06FFA0121204611F0D7FAED
:101134002946204610F076FF5946204610F06DFFF0
:101144009AE8030089E80300BDF82A300093BDF84B
:101154002830BDF82620BDF82410204610F0C9FE22
:1011640098E8030089E80300BDF82A300093BDF82D
:101174002830BDF82620BDF82410204610F0B9FE12
:101184002046FFF71BFE3588204611F03EFA73888F
:101194004219083316324749204611F0F9F901275C
:1011A400DFF8149140F226283B0289FB0312DE1774
:1011B400C6EB2216F60106F4F84600253146204611
:1011C40010F02BFFB4F8EA20B4F8E8103A442944AC
:1011D400204610F079FD01354545EFD10137612FE7
:1011E400E2D10127DFF8D09040F226283B0289FBA8
:1011F4000312DE17C6EB2216B60006F47876002535
:101204003146204610F009FFB4F8EA203A44B4F815
:10121400E81060322944204610F056FD013545455A
:10122400EED10137612FE1D10127DFF88C9040F234
:1012340026283B0289FB0312DE17C6EB2216C6F3EF
:10124400C40600253146204610F0E7FEB4F8EA2033
:101254003A44B4F8E810C0322944204610F034FD72
:1012640001354545EED10137612FE2D147F6E071F2
:10127400204610F0D2FE04F16401204611F011FC66
:1012840011F0EAFE014E0D4F31E000BFB87517A012
:10129400A414040010010200B0000200B30D000009
:1012A400DC2E0300C07517A03C1F02000D0E0000C9
:1012B400ABAAAAAA2C010200ABAAAA2AB47517A049
:1012C4000021C2F80C11106E1AF0DFFF604B1B688E
:1012D4004FF0FF32C3F8042130680FAA00F1640113
:1012E40011F030FC3468D4F80431002B3CD133685D
:1012F400D3F8E420002A40F0A6804FF4FA720FA934
:10130400386819F044FD0028ECD1109B1493119B0C
:10131400139313AA14A9306810F086FE129B012BB4
:10132400DAD13268139BB2F8F2109942D4DCB2F8E5
:10133400F6108B42D0DC1499B2F8F0008842CBDC72
:10134400B2F8F4008142C7DCB2F8FE008342B7DC95
:10135400C11AD2F8103103FB01F1431CB2F8FA00B0
:101364001B1AB1FBF3F1ACE70121204611F0B7F9E8
:10137400B4F8F880B4F8FAB0B4F8FC90B4F8FEA06D
:1013840004F5887204F58671206E1AF08CFFAAEBBE
:101394000B02D4F80C3102FB0333D4F81021B3FB55
:1013A400F2F5AAEB0505D4F808319D422CD08BBB8D
:1013B4000121204610F036FE47F6E071204610F079
:1013C4002CFECDF800A04B465A464146204610F06C
:1013D40090FDC4F808510021204610F023FE47F682
:1013E400E071204610F019FE0021204610F017FE8F
:1013F400D4F80821531D009309F10F03053AA8F10D
:101404000F01204610F075FD114B1B680022C3F834
:1014140004216CE70021204610F004FE0021204640
:1014240010F0FBFD0021204610F0F9FDD4F808214E
:10143400531D009309F10F03053AA8F10F0120464B
:1014440010F057FDB4E7186E1AF0DAFE5DE500BF40
:10145400B87517A0F0B583B006460C4615464FF490
:10146400F843019302F10803009301F10803083AD9
:10147400083911F027FE00270197AB1D0093A31D27
:10148400AA1FA11F304611F01DFE47F6FF730193FA
:101494002B1D0093231D2A1F211F304611F012FE1D
:1014A4000197AB1C0093A31CAA1EA11E304611F089
:1014B40009FE03B0F0BD000010B5A2B021A93F4859
:1014C4001AF087FE08B122B010BD21981AF0C3FEAD
:1014D4004FF4807121981AF0D8FE11F0A9FD20AACA
:1014E400002121981AF099FE4FF4F8430793002342
:1014F400069347F6E07205920222049240F2DF124C
:10150400039240F21F32029201930093209B4FF406
:10151400F0724FF4487108A810F044FD284908A857
:1015240011F071F81F22274908A811F081F808A8C2
:1015340011F06BF884B2244B1B78012B23D0234683
:101544004FF44872214908A811F02EF863004FF4B3
:1015540048721F4908A811F027F8C4F178039B00CA
:101564004FF448721B4908A811F01EF8A4EB840438
:1015740004F5F0734FF44872174908A811F014F8F1
:1015840011F06AFD9FE723464FF44872134908A8F7
:1015940011F00AF8C4F178039B004FF448720D4926
:1015A40008A811F001F8A4EB840404F5F0734FF4D7
:1015B4004872094908A810F0F7FFE1E7D0000200DB
:1015C400A414040040010200CC7517A0C00102005D
:1015D400E401020080010200A4010200580102009B
:1015E4002DE9F04F99B005908B46144600234FF037
:1015F400FF36DFF88CA2A34A02F110070A962546AB
:101604000B97A14A137058461BF03CF91DB99F4B28
:101614001B68032B11D0FFF74FFFDFF868929B4E36
:10162400002306931F46B04689E001234FF0FF359F
:10163400E7E701234FF0FF35E3E7954C914A214654
:1016440058461BF039F90B9A04F1100158461BF067
:1016540033F98C4B03F1200204F1200158461BF0AE
:101664002BF958461BF01BF90446DAF800300A95AA
:10167400DAF800304BB9002CD7D10A9B002BD8D113
:10168400824B00229A6402F0BFFD19B0BDE8F08FCE
:10169400159716970135204619F0FEF9032D40F2EF
:1016A400D380049B9B081593B608169614AC099A2C
:1016B400214658461BF000F908F1040594E80F0090
:1016C40085E80F00069D6C1C704B1C60FFF762FBE5
:1016D400BDF81C10BDF82020019702F10803009307
:1016E40001F10803083A0839059811F0EBFC25B11B
:1016F400DAF80030E3B9322510E0FFF7DDFEDAF85E
:101704000030002BF7D009F1100908F1100815E09A
:10171400284619F0C1F9DAF800304BB914A9584633
:101724001BF04CF80028F3D1149B13F0010FEFD1F8
:10173400032C78D009F1100908F110080694CDF8AB
:101744002490D9F804300793D9F80820089292B26B
:1017540099B20598FFF77EFE03973D463E460497EF
:10176400322471E0DFF82C910DF130083225039416
:10177400049317E0284619F08FF914A958461BF072
:101784001DF80028F6D1149B13F0010FF2D14FF489
:10179400967019F081F909F1100908F1100814ABD9
:1017A400984524D0D9F80460D9F80870BAB2B1B217
:1017B4000598FFF74FFE4446214658461AF0FEFFAF
:1017C4000028F9D1236813F0010FF5D0FFF7E2FAEE
:1017D400B1B2BAB20023019302F10803009301F1FC
:1017E4000803083A0839059811F06CFCC5E7039C16
:1017F400049B0D9AA2F2D622302A3FF639AF0E9AF4
:10180400A2F5CB72302A3FF633AF119AA2F5BC721F
:10181400302A3FF62DAF129AD83A0A99302A98BF47
:1018240019460A9124E758461BF039F80446DAF8B9
:101834000030002B96D000230A9319E74FF0FF33B2
:101844000393204619F028F914A958461AF0B6FF54
:101854000028F6D1DAF80030B3F1FF3F3FF418AFB7
:10186400149B13F0010FE9D0039B002BE9D0159BC7
:10187400049A1A440492169B1E4401350BE700BFD8
:10188400A87517A0C8250200CC7517A0647617A008
:10189400687617A0A825020010B584B00446184A3B
:1018A4001021012019F0BCF910B1002004B010BDC2
:1018B400134A03A913481BF02DF820B1104B1868E4
:1018C40019F0D0F9F1E702A90F481AF082FC28B107
:1018D4000B4B196803981BF08AF8EFE701AA002163
:1018E40002981AF09AFC094B9B6C002B0CBF224601
:1018F4004FF0FF3203990198FFF772FEE8E700BF4B
:10190400C87517A0C4000200D0000200647617A0B6
:1019140030B587B0002205A911481AF0FBFFE0B9E1
:101924000524322501A905981AF048FF019B13F0FC
:10193400010F10D0284619F0AFF8013CF2D14FF056
:10194400FF34002105981BF052F80A2019F0A4F87E
:10195400204607B030BD0024F3E74FF0FF34F7E72B
:10196400C400020008B54FF0FF30FFF795FF08BD33
:10197400014B01221A607047D87517A010B582B0C8
:101984000A4C0B4B1988204610F049FB47F6E071CE
:10199400204610F042FB51230093A123122222215E
:1019A400204610F0A6FA02B010BD00BFDC7517A0E7
:1019B4000000001008B5084B1B780133DBB2062B7E
:1019C40028BF0023044A1370044A32F81320044B3E
:1019D4001A80FFF7D3FF08BDD47517A0182602009C
:1019E400000000102DE9F04786B081466C481AF0DB
:1019F400BFFD82466B4C0121204610F013FB47F6D5
:101A0400E071204610F009FBB9F806300093B9F8EC
:101A14000430B9F80220B9F80010204610F069FA31
:101A240005AA0321604819F0F1FD002849D1D046E8
:101A340013275C4E4546CF240494039703AA04A9B4
:101A4400304610F0FCFA012300932B46039A0499C4
:101A5400304610F0F5FB0235013440F25F239C421E
:101A6400EAD108F54878013740F2A3139F42E1D147
:101A740002AB4B4A5146059819F03DFE18B1484B4C
:101A8400029A9A4255D1059819F0FAFD454C012164
:101A9400204610F0C7FA0021204610F0BEFAB9F82B
:101AA40006300093B9F80430B9F80220B9F80010F0
:101AB400204610F01EFA50461AF062FD06B0BDE84A
:101AC400F087064605AA0321384819F09FFD04460D
:101AD4000028ACD0364B1968364A01F53B2000F596
:101AE400006011F03DFDFFF75BF92E4D0021284603
:101AF40010F098FA0021284610F091FA47F6E071A8
:101B0400284610F08AFA2223009340F25F2312221F
:101B1400CE21284610F0EDF9092E0DD00D2E27D137
:101B24000D2C1ED01423D02223491E4810F030FD62
:101B340024E0FFF735F9A6E70D2C0BD0092C4FF064
:101B440014034FF0D0020CBF1C491D49154810F076
:101B54001FFD13E01423D0221A49284610F018FD63
:101B64000CE01423D02218490E4810F011FD05E0B2
:101B74001423D02215490B4810F00AFD012109480D
:101B840010F050FA4FF4FA6018F086FF084B18680A
:101B9400084A00F53B2101F5006111F0E1FC75E70D
:101BA40000E20400DC7517A008020200140202001F
:101BB4000400001000B80B00AC0202004402020052
:101BC4006C020200200202008C020200C802020021
:101BD4002DE9F04F89B005468B481AF0C9FC8146BF
:101BE4008A4C0121204610F01DFA47F6E071204688
:101BF40010F013FAEB880093AB886A882988204692
:101C040010F077F907AA0121814819F0FFFC8046FA
:101C140040B107AA01217F4819F0F8FC04460028C6
:101C240040F0978004AB784A4946079819F04CFD78
:101C34000446079819F024FD4CB1734B049A9A4258
:101C440002D1CA46132704E0FFF7AAF82AE0CA46DD
:101C540013276E4ECDF80C90A3465246AA46951E05
:101C6400CF2491460694059705AA06A9304610F09C
:101C7400E6F935F8023F059A0699304610F0EAF97C
:101C8400013440F25F239C42ECD109F548720137DC
:101C940040F2A3139F42E2D1DDF80C905C46554616
:101CA400002C3FD05C4B19685C4A01F53B2000F5E1
:101CB400006011F055FCFFF773F8544C00212046E6
:101CC40010F0B0F90021204610F0A9F947F6E071B0
:101CD400204610F0A2F92223009340F25F2312223F
:101CE400CE21204610F005F9B8F1090F76D0B8F1ED
:101CF4000D0F00F081801423D0224949434810F08D
:101D040047FC0121414810F08DF94FF4FA6018F0B6
:101D1400C3FE414B1868414A00F53B2101F50061BF
:101D240011F01EFC394C0121204610F07BF90021F2
:101D3400204610F072F9EB880093AB886A882988F2
:101D4400204610F0D6F848461AF01AFC09B0BDE84F
:101D5400F08F314B1968314A01F53B2000F50060E2
:101D640011F0FEFBFFF71CF8284E0021304610F05E
:101D740059F90021304610F052F947F6E071304627
:101D840010F04BF92223009340F25F231222CE215C
:101D9400304610F0AEF8B8F1090F0DD0B8F10D0FC0
:101DA400A9D10D2C21D0092C26D11423D0221D49D0
:101DB400164810F0EDFBA4E70D2C08D0092C0DD12A
:101DC4001423D0221849114810F0E2FB99E7142398
:101DD400D0221649304610F0DBFB92E71423D022C0
:101DE40012490A4810F0D4FB8BE71423D02210497F
:101DF400064810F0CDFB84E71423D0220C49034895
:101E040010F0C6FB7DE700BF00E20400DC7517A0FC
:101E140008020200140202000400001000B80B00C3
:101E2400700302004C030200FC020200D80202000C
:101E34002C030200A0F1CF0CBCF5C87F1AD2A1F18B
:101E4400130CBCF5C87F15D2A2F1CF0CBCF5C87F2A
:101E540010D2A3F1130CBCF5C87F0BD200B583B02C
:101E6400009313460A46014603480FF03FFF03B0B0
:101E74005DF804FB704700BFDC7517A008B5A0F13E
:101E8400CF03B3F5C87F09D2A1F11303B3F5C87F1B
:101E940004D20A46014602480FF016FF08BD00BFEF
:101EA400DC7517A070B58AB009AA00211AF0B5F93B
:101EB40011F0BEF81E4C4FF4F84307930025069525
:101EC40047F6E07605960223049340F2DF1303936A
:101ED40040F21F33029301950095099B4FF4F07271
:101EE4004FF44871204610F05DF81249204610F076
:101EF4008AFB1F221049204610F09AFB31462046E7
:101F040010F08BF80D49204610F0CBFD29462046F1
:101F140010F085F840F2A313009340F25F231222DD
:101F2400CE2120460FF0E5FF11F096F80AB070BDFF
:101F3400DC7517A0A41404007C030200242602000C
:101F44002DE9F04F91B0854B00221A60844A10218C
:101F5400012018F065FE10B111B0BDE8F08F804A81
:101F64000EA980481AF0D6FC20B17D4B186818F0F1
:101F740079FEF1E70FA97C481AF02BF928B1784BC8
:101F840019680E981AF033FDEFE70BAA00210F9899
:101F94001AF043F90F98FFF785FFFFF7EFFC4FF0B6
:101FA400FF31302004F064FD0026B246B0466B4C8D
:101FB4006B4D2768002F40F0CD804FF0FF3207A90A
:101FC400286818F0E4FE0028F3D1089B0D93099BC0
:101FD4000C930CAA0DA9654810F026F80D9BCF3B75
:101FE400B3F5C87F80F0AC800C9B133BB3F5C87F7E
:101FF40080F0A6800A9B012B01D0B846D9E71AF0DD
:10200400A9FA5B4B1988002940F08580574810F0E5
:1020140004F8B8F1000F50D0DDF834900C9F0AF1A9
:10202400FF308046711E09F1FF3B7B1E02935A4626
:102034000591FFF7FFFE3B465A463146CDF8108026
:102044004046FFF7F7FE721C114607F101084346AC
:102054005A4603910498FFF7EDFE029B4A46DDF8C9
:1020640014B059465046FFF7E5FE3B464A46314612
:102074005046FFF7DFFE43464A4603995046FFF7B2
:10208400D9FE0AF1010A09F10109029B4A4659469F
:102094005046FFF7CFFE3B464A4631465046FFF7CF
:1020A400C9FE43464A4603995046FFF7C3FEDDF88E
:1020B40034A00C9E4FF0FF387BE70D9E0C9F06F179
:1020C400FF3A07F1FF3949465046FFF7D7FE394634
:1020D4005046FFF7D3FE07F1010841465046FFF78B
:1020E400CDFE49463046FFF7C9FE39463046FFF774
:1020F400C5FE41463046FFF7C1FE0136494630462B
:10210400FFF7BCFE39463046FFF7B8FE414630467D
:10211400FFF7B4FECBE715480FF07FFFB8F1000FCF
:1021240008D00C9B00930D9B324651460F480FF08C
:10213400DDFDBCE70C9A0D990C480FF0C5FDB6E720
:1021440007AA0C49094810F0FDFC0A9B002B08BFA4
:10215400B8462EE70F981AF053F810E7D87517A071
:10216400D07517A0C4000200D0000200DC7517A0CF
:10217400000000102426020070B505460C46B2F596
:10218400004F20D0102A33D0002A30D1486E18F0E6
:102194005BFEB0F57A7F2AD318F048FE606604F13E
:1021A400680201216D4819F031FA102800F2BB8051
:1021B400DFE800F022B9B9B96AB9B9B9B98D3CB947
:1021C400B97EB9B99C008368654A002120469847C6
:1021D400AB68644A012120469847AB68624A0221F1
:1021E4002046984718F022FE60660023E36670BD1F
:1021F400436908469847FAE7AB685C4A02212046DF
:102204009847A06E19F03CFA002302221946204692
:10221400EE68B0472B69022120469847544B1A8830
:102224009B78A4F8022184F80431E0E7AB68514AB2
:10223400022120469847504B07CBC4F80201C4F84A
:102244000611C4F80A211A889B78A4F80E2184F890
:102254001031E36E0133E3660E2BC8D9AB68474AED
:102264000221204698470023032219462046EE689F
:10227400B0472B69032120469847414B03CBC4F850
:102284000201C4F80611B2E7AB683E4A02212046B7
:1022940098473D4B07CBC4F80201C4F80611C4F8B3
:1022A4000A211A889B78A4F80E2184F81031D0E70B
:1022B400AB68364A022120469847354B03CBC4F815
:1022C4000201C4F806111B88A4F80A31C1E7AB68FF
:1022D400304A0221204698472F4B03CBC4F8020111
:1022E400C4F806111B88A4F80A31B2E7AB682B4A7C
:1022F4000221204698472A4E0FCEC4F80201C4F8A2
:102304000611C4F80A21C4F80E31337884F8123166
:102314000023032219462046EE68B0472B690321A7
:102324002046984795E7AB681C4A02212046984707
:102334001C4B07CBC4F80201C4F80611C4F80A21E7
:102344001B88A4F80E310023032219462046EE68A8
:10235400B0472B690321204698477AE7100402000E
:10236400B0030200CC0302000004020024040200B3
:10237400901702003C0402005C04020028050200DD
:10238400400502006C0402008C0402009C0402005C
:10239400B8040200C4040200E0040200EC040200D9
:1023A4000405020018050200B2F5004F00D0704782
:1023B40038B505460C46002184F86C108368264A1B
:1023C4002046984704F16401244819F073F8C8B111
:1023D400AB68234A0021204698470023032219466C
:1023E4002046D5F80CC0E0472B69032120469847C6
:1023F4001C4B03CBC4F80201C4F806111B88A4F8D3
:102404000A3138BD04F16801606E19F03FF8002804
:10241400DED1A06E03685B6940F6C41204F170015A
:1024240098470028D4D1AB680F4A0021204698472A
:102434000023022219462046D5F80CC0E0472B6938
:10244400022120469847094B1A889B78A4F8022158
:1024540084F80431D5E700BF48050200D400020027
:10246400640502008C050200980502009017020022
:10247400F0B583B005460C46B2F5004F5ED0002A95
:102484007AD1886E03681B6901A99847002840F037
:102494008380019A636F9342B8BF6267236F9A4245
:1024A400B8BF226782EAE273A3EBE273C3F3423359
:1024B40004F17807C3EB431103EB8106334612148E
:1024C4005D4938461CF04AF8AB683A46002120467C
:1024D4009847C82018F0E0FAE36E0133E366052B51
:1024E4004AD9226FB2F5702F69DA019282EAE27357
:1024F400A3EBE273C3F34233C3EB431103EB810653
:10250400334612144D4938461CF028F8AB683A4655
:10251400002120469847EF680023032219462046ED
:10252400B8472B690321204698473346BDF9062056
:10253400434904F581701CF011F81DE08368414A99
:1025440000212046984704F164013F4818F0B2FF87
:10255400A0B1EE680023032219462046B0472B6938
:10256400032120469847394B03CBC4F80201C4F831
:1025740006111B88A4F80A3103B0F0BD04F1680108
:10258400606E18F083FF0028E3D14FF4C81323676B
:1025940063670023E366EFE7EE680023032219462E
:1025A4002046B0472B69032120469847284B07CB88
:1025B400C4F80201C4F80611C4F80A21DCE7626F0A
:1025C400B2F5201F24DD0192C2F34233C3EB431161
:1025D40003EB8106334612141E4938461BF0BEFF36
:1025E400AB683A46002120469847EF68002303224F
:1025F40019462046B8472B6903212046984733469D
:10260400BDF90620144904F581701BF0A7FFB3E758
:10261400EF680023022219462046B8472B6902219D
:10262400204698473346BDF906200C4904F58170CD
:102634001BF094FFA0E700BFEC05020010060200A7
:102644003C060200BC050200D8050200E0040200BA
:10265400E0050200500602007C0602008C0602001F
:10266400F0B58BB005460C46164669466D4818F021
:1026740021FF58B1EE680023032219462046B047D3
:102684002B690321204698470BB0F0BD01A900989F
:1026940018F0FCFE002832D1B6F5004F3AD0002ED7
:1026A400F2D120263246002102A81CF054F80198E9
:1026B40003685F69334602AA4121B847002800F045
:1026C4008A80EE680023032219462046B0472B690E
:1026D400032120469847544B03CBC4F80201C4F8A5
:1026E40006111A889B78A4F80A2184F80C31019801
:1026F40003689C6920234D4A4121A047C4E7EE6842
:102704000023032219462046B0472B6903212046A3
:102714009847B9E7AB68464A002120469847019894
:1027240003685E692023414A4121B047B0B1EE6895
:102734000023032219462046B0472B690321204673
:102744009847394B03CBC4F80201C4F806111A8820
:102754009B78A4F80A2184F80C3195E72022AA2159
:1027640002A81BF0F8FF019803689E69202302AABF
:102774004121B04706462022552102A81BF0EBFF59
:10278400AEB101238DF80830EE6800230322194608
:102794002046B0472B69032120469847254B07CB99
:1027A400C4F80201C4F80611C4F80A216CE70198C0
:1027B40003689E69142302AA4321B04701238DF8BC
:1027C40008300028E0D1019803689C69012302AA1B
:1027D4004621A04758E7202202A917481BF049FECA
:1027E40050B9EE680023022219462046B0472B69EF
:1027F4000221204698477AE7EE680023032219460F
:102804002046B0472B690321204698470B4B07CB42
:10281400C4F80201C4F80611C4F80A211B7884F82C
:102824000E3164E798060200B40602003C7617A055
:10283400A0060200C0060200C4260200CC06020064
:1028440003460120186000BF00BF00BF00BF00BFE7
:1028540000BF00BF00BF00BF00BF00BF00BF00BF7C
:1028640000BF00BF00BF00BF00BF00BF00BF00BF6C
:1028740000BF00BF00BF00BF00BF00BF00BF00BF5C
:1028840000BF00BF00BF00BF00BF00BF00BF00BF4C
:1028940000BF00BF00BF00BF00BF00BF00BF00BF3C
:1028A40000BF00BF00BF00BF00BF00BF00BF00BF2C
:1028B40000BF00BF00BF00BF00BF00BF00BF00BF1C
:1028C40000BF00BF00BF00BF00BF00BF00BF00BF0C
:1028D40000BF00BF00BF00BF00BF00BF00BF00BFFC
:1028E40000BF00BF00BF00BF00BF00BF00BF00BFEC
:1028F40000BF00BF00BF00BF00BF00BF00BF00BFDC
:1029040000BF00BF00BF00BF00BF00BF00BF00BFCB
:1029140000BF00BF00BF00BF00BF00BF00BF00BFBB
:1029240000BF00BF00BF00BF00BF00BF00BF00BFAB
:1029340000BF00BF00BF00BF00BF00BF00BF00BF9B
:1029440000BF00BF00BF00BF00BF00BF00BF00BF8B
:1029540000BF00BF00BF00BF00BF00BF00BF00BF7B
:1029640000BF00BF00BF00BF00BF00BF00BF00BF6B
:1029740000BF00BF00BF00BF00BF00BF00BF00BF5B
:1029840000BF00BF00BF00BF00BF00BF00BF00BF4B
:1029940000BF00BF00BF00BF00BF00BF00BF00BF3B
:1029A40000BF00BF00BF00BF00BF00BF00BF00BF2B
:1029B40000BF00BF00BF00BF00BF00BF00BF00BF1B
:1029C40000BF00BF00BF1A68824202D140007FF4FA
:1029D40039AF7047F0B502468908013911F0010E8C
:1029E4003CD073464FF0AA3042F823005B001942F2
:1029F400FAD14FF055331360734602EB830052F85B
:102A04002340B4F1AA3F14D15B001942F5D14FF031
:102A1400AA331360F4464FF055361F4610E05B00AE
:102A2400194207D052F82340B4F1AA3FF7D06345C6
:102A3400F5D0F0BD57514FEA4C0C11EA0C0F0BD0F6
:102A44004FEA8C0502EB8C0042F82C601368B3F15A
:102A5400AA3FEED17346E5E70020EAE74FF055338D
:102A640003604FF0AA3303600020E2E7032928D96A
:102A740010B502464FEA910C8646012340F8043B08
:102A84009C4503F10103F9D8012300E00B461046ED
:102A94001168994214D1D94342F8041B591C9C452E
:102AA400F4D800236FF001047046DEF80010E21A37
:102AB400914205D101330EF1040E9C45F4D8002057
:102AC40010BD002070470000B2F5004F00D07047E1
:102AD40070B505460C4683682A4A0021204698476B
:102AE40016F0CEF84FF02040FFF7AAFE064616F087
:102AF400D7F8B6B1AB68244A012120469847002391
:102B0400032219462046D5F80CC0E0472B6903215F
:102B14002046984732461D4904F581701BF01EFD7E
:102B240070BD16F0ADF84FF080714FF02040FFF704
:102B340051FF064616F0B4F8002EDBD116F0A0F8CB
:102B44004FF080714FF02040FFF790FF064616F0DB
:102B5400A7F8002ECED1AB680D4A01212046984734
:102B6400EE680023022219462046B0472B69022151
:102B7400204698474FF08072064904F581701BF097
:102B8400EDFCCDE7DC060200080702002007020086
:102B9400F006020000070200F0B5C3B006460C467A
:102BA40015468368534A012120469847524B03CB6C
:102BB400C4F80201C4F806111B88A4F80A3141AA1A
:102BC4001021284618F052FE002874D104F58177AC
:102BD400419B512B03D040F2E93043B0F0BD41AAF0
:102BE4001121284618F042FE002867D1419B522B40
:102BF40002D040F2E930F0E741AA1221284618F049
:102C040035FE00285DD1419B592B02D040F2E930BA
:102C1400E3E73A4B07CBC4F802017960BA60B368C2
:102C2400374A0121204698474FF480224FF4E001AF
:102C3400284618F00BFE002846D1802301AA4FF441
:102C4400E001284618F0DEFD002840D101AB21A99F
:102C540013F8012BFF2A3DD18B42F9D1294B07CB25
:102C6400C4F802017960BA60B368274A012120469A
:102C740098470623254A2649284618F0D5FD60BB07
:102C84000623244A2449284618F0CEFD40BB80235D
:102C940001AA1F49284618F0B5FD20BB0C221F4984
:102CA40001A81BF0E6FB08BB1D4B1A889B78A4F80F
:102CB4000221BB7091E740F2E9308EE740F2E9303F
:102CC4008BE740F2E93088E740F2EA3085E740F2EA
:102CD400EA3082E740F2EB307FE74FF47B707CE729
:102CE4004FF47B7079E74FF47B7076E74FF47B7099
:102CF40073E700BF28070200E0040200380702005F
:102D04004407020054070200600702007007020033
:102D1400FCFF7100780702000200720080070200C5
:102D240090170200F0B591B000230193ADF808307C
:102D3400B2F5004F01D011B0F0BD05460C468368D2
:102D44001E4A0021204698470FA91D4818F036FD59
:102D5400C8B903A90F9818F099FD039B0F9A21464F
:102D64002846FFF719FF06460F9818F03EFD66B98E
:102D7400EE680023022219462046B0472B6902213F
:102D840020469847D7E74FF47A7604F16407C6F3F0
:102D94000E020C4938461BF0E1FBAB683A460221AF
:102DA40020469847EE680023032219462046B04780
:102DB4002B69032120469847BDE700BF9007020016
:102DC400B0070200B807020030B583B005460C46D0
:102DD400B2F5004F1ED0102A37D0002A33D1486EE6
:102DE40018F032F8B0F57A7F2DD318F01FF860662A
:102DF40004F168020121654818F008FC0D2800F26E
:102E04008E80DFE800F0268C8C8C5A8C8C8C8C7D28
:102E1400418C8C6E83685E4A002120469847AB68DB
:102E24005C4A012120469847AB685B4A0221204650
:102E3400984701A9594818F0E7F80023E366236787
:102E440017F0F4FF606603B030BD43690846984745
:102E5400F9E7AB68524A022120469847A06E18F061
:102E64000FFC0023022219462046D5F80CC0E04787
:102E74002B690221204698474A4B1A889B78A4F86C
:102E8400022184F80431DEE7AB68474A0221204678
:102E94009847464B07CBC4F80201C4F80611C4F89E
:102EA4000A211A889B78A4F80E2184F81031236F24
:102EB4005A1C042B47D02267C5E7AB683C4A022161
:102EC400204698473B4B07CBC4F80201C4F80611CF
:102ED400C4F80A211A889B78A4F80E2184F81031CA
:102EE400E5E7AB68344A022120469847334B03CBCD
:102EF400C4F80201C4F806111B88A4F80A31D6E705
:102F0400AB682F4A0221204698472E4B03CBC4F8C6
:102F14000201C4F806111B88A4F80A31C7E7AB689C
:102F24001D4A022120469847274B07CBC4F80201CB
:102F3400C4F80611C4F80A211A889B78A4F80E2153
:102F440084F81031B3E700232367E36E0133E366AB
:102F5400062B16D1AB681D4A022120469847002350
:102F6400032219462046D5F80CC0E0472B690321FB
:102F740020469847164B03CBC4F80201C4F8061147
:102F840061E701A9054818F03FF85CE7280802004A
:102F9400CC070200EC07020000040200180802003B
:102FA40024040200901702003C0402005C040200A6
:102FB4006C0402008C0402009C040200B8040200A9
:102FC400C4040200E00402003808020028050200DC
:102FD4004005020030B583B005460C46B2F5004FFB
:102FE4001ED0102A37D0002A33D1486E17F02CFF98
:102FF400B0F57A7F2DD317F019FF606604F16802EB
:103004000121654818F002FB0D2800F28E80DFE8EC
:1030140000F0268C8C8C5A8C8C8C8C7D418C8C6E24
:1030240083685E4A002120469847AB685C4A0121C8
:1030340020469847AB685B4A02212046984701A97D
:10304400594817F0E1FF0023E366236717F0EEFE0B
:10305400606603B030BD436908469847F9E7AB683A
:10306400524A022120469847A06E18F009FB00231B
:10307400022219462046D5F80CC0E0472B690221EC
:10308400204698474A4B1A889B78A4F8022184F872
:103094000431DEE7AB68474A022120469847464B95
:1030A40007CBC4F80201C4F80611C4F80A211A882F
:1030B4009B78A4F80E2184F81031236F5A1C042B3A
:1030C40047D02267C5E7AB683C4A022120469847AF
:1030D4003B4B07CBC4F80201C4F80611C4F80A211B
:1030E4001A889B78A4F80E2184F81031E5E7AB68C0
:1030F400344A022120469847334B03CBC4F80201DB
:10310400C4F806111B88A4F80A31D6E7AB682F4A25
:103114000221204698472E4B03CBC4F80201C4F881
:1031240006111B88A4F80A31C7E7AB681D4A0221BF
:1031340020469847274B07CBC4F80201C4F8061170
:10314400C4F80A211A889B78A4F80E2184F8103157
:10315400B3E700232367E36E0133E366062B16D13E
:10316400AB681D4A022120469847002303221946D2
:103174002046D5F80CC0E0472B6903212046984728
:10318400164B03CBC4F80201C4F8061161E701A988
:10319400054817F039FF5CE72808020048080200D8
:1031A400EC07020000040200680802002404020084
:1031B400901702003C0402005C0402006C0402004C
:1031C4008C0402009C040200B8040200C40402003F
:1031D400E00402003808020028050200400502004D
:1031E400B2F5004F00D070472DE9F04F8BB0064682
:1031F4000C468368744A00212046984703A9734803
:1032040018F0E7FF09A9724817F024FF00B3B36868
:10321400704A002120469847F56800230322194686
:103224002046A84733690321204698476A4B03CBBD
:10323400C4F80201C4F806111B88A4F80A310998DD
:1032440017F015FF039818F0DBFF0BB0BDE8F08F03
:10325400002305930A238DF8183001238DF81930C3
:1032640004AB089305A9099817F009FFD8B1B3680E
:103274005A4A002120469847F5680023032219463C
:103284002046A8473369032120469847544B03CB73
:10329400C4F80201C4F806111A889B78A4F80A211C
:1032A40084F80C31CBE7049B642202FB03F74D4BFB
:1032B400A3FB07373F0A04EB020B00233A464A49B3
:1032C40058461BF04BF9B3685A46002120469847EC
:1032D40004F5817800233A46444940461BF03EF900
:1032E400A7F15003282B0FD9F568002303221946B0
:1032F4002046A84733690321204698473A463C496B
:1033040040461BF02BF99AE7039818F0B1FF00210F
:10331400039818F0BAFF642017F0BEFB05A90998BA
:1033240017F0ADFE049B642202FB03F31A460193DB
:103334002C4BA3FB02394FEA1929039818F08BFF91
:1033440000254FF00A0A2946039818F09EFF5046BC
:1033540017F0A2FB0235B5F5807FF4D14B463A460F
:10336400214958461BF0FAF8B3685A460021204612
:1033740098474B463A461D4940461BF0EFF8019BDF
:10338400B3F5994F0FD3F56800230322194620465D
:10339400A84733690321204698474A4615494046C1
:1033A4001BF0DCF84BE7F56800230222194620469F
:1033B400A84733690221204698474B463A460B49B1
:1033C40040461BF0CBF83AE778080200D000020030
:1033D4009008020098080200E0040200BC08020001
:1033E400E0080200ABAAAAAAEC080200180902002D
:1033F4002409020034090200B2F5004F00D07047DE
:10340400F0B587B005460C468368404A0021204643
:10341400984705A93E4817F01DFEE0B1AB683D4A48
:103424000021204698470023032219462046EE68CF
:10343400B0472B69032120469847374B03CBC4F888
:103444000201C4F806111B88A4F80A31059817F084
:103454000EFE07B0F0BD022301930A238DF8083055
:1034640001238DF80930CDF810D001A9059817F083
:1034740006FED8B1AB68294A002120469847EE6879
:103484000023032219462046B0472B690321204616
:103494009847234B03CBC4F80201C4F806111A88D9
:1034A4009B78A4F80A2184F80C31CFE7009B6422AE
:1034B40002FB03F31B4EA6FB03269B1B06EB5306E2
:1034C400760A04F164073246174938461BF046F879
:1034D400AB683A46002120469847503E282E0AD928
:1034E400EE680023032219462046B0472B690321C6
:1034F40020469847AAE7EE68002302221946204690
:10350400B0472B690221204698479FE744090200EF
:103514009008020058090200E00402007809020041
:10352400E0080200251540529C09020000B583B052
:1035340000230193072809D8DFE800F0040C1116D2
:103544001B20252A01A9154817F05EFD019803B038
:103554005DF804FB01A9124817F056FDF6E701A92E
:10356400104817F051FDF1E701A90F4817F04CFD81
:10357400ECE701A90D4817F047FDE7E701A90C485E
:1035840017F042FDE2E701A90A4817F03DFDDDE727
:1035940001A9094817F038FDD8E700BFB4090200B3
:1035A400BC090200C4090200CC090200D4090200CB
:1035B400DC090200E4090200EC09020082B02DE9F2
:1035C400F04F8FB080468B46144619931C9D836838
:1035D400A14A012158469847A04B03CBCBF80201DE
:1035E400CBF806111B88ABF80A310DAA102120462E
:1035F40018F03CF9002840F01D810BF5817A0D9BF1
:10360400512B06D040F2E9300FB0BDE8F04F02B0C4
:1036140070470DAA1121204618F028F9002840F01F
:103624000C810D9B522B02D040F2E930ECE70DAA3D
:103634001221204618F01AF9002840F001810D9B50
:10364400592B40F00081002606960896CDF814A068
:1036540037460995DA4607940AF1640B069A8049BD
:1036640058461AF07BFFD8F808305A4601215046D4
:10367400984700230493049A7A4958461AF06EFF37
:10368400D8F808305A46012150469847099B002B28
:1036940000F0B88019AB0B934FF000094D46CDF8FC
:1036A4002890CDF80CA0DDF820A00A9A6E4958465F
:1036B4001AF054FFD8F808305A4601210398984765
:1036C4000B9B1E465C69BC4209D13369002B00F098
:1036D40089804B440893069B5B42DFB23FE0634F13
:1036E40023463A46624958461AF038FFD8F808305B
:1036F4005A46032103989847BA46E6E74B46002208
:103704005C4958461AF02AFFD8F808305A46012175
:10371400039898472A46584905981AF01FFF3CB168
:103724000AF1FF33621E524403F8016F9342FBD146
:1037340022462946079E304618F088F8002840F0B3
:103744008580234652462946304618F06DF80028F5
:103754007FD109F101092544089B994541D087EAA5
:103764000906049B002BC9D04B4601224349584605
:103774001AF0F4FED8F808305A4601210398984705
:103784002A463F4905981AF0E9FE2346524629463F
:10379400079818F037F8002CDBD00AF1FF325346B3
:1037A400601E5044944612F8011FB14202D1824275
:1037B400F8D1CEE74F46D946DDF80CB0C3F101038A
:1037C4000191009663443A462E4948461AF0C6FED3
:1037D400D8F808304A4602215846984740F201403A
:1037E40012E799460A9B01330A930B9A08320B920B
:1037F400099A9A4201D0274657E7CDF820A0DDF870
:103804000CA02746049B01330493022B7FF433AFAF
:10381400069B01330693022B7FF41EAFD346DDF8DB
:1038240014A0194B1A889B78ABF802218AF802304D
:103834000020E9E640F2E930E6E640F2E930E3E66A
:1038440040F2E930E0E640F2E930DDE642F2487069
:10385400DAE642F24970D7E628070200E0040200E3
:10386400F4090200000A0200100A0200000040A04D
:103874001C0A02003C0A0200680A02007C0A0200D8
:10388400A80A0200BC0A020090170200B2F5004F19
:1038940000D07047F0B59BB005460C468368264AB5
:1038A40000212046984719A9244817F087FF40BBF8
:1038B4000DA9199817F0EAFFEC460DF1380EBEE891
:1038C4000F00ACE80F00BEE80F00ACE80F009EE864
:1038D40007008CE807000D9B199A21462846FFF73C
:1038E4006DFE0646199817F080FF66B9EE6800234E
:1038F400022219462046B0472B69022120469847E8
:1039040018E04FF47A7604F16407C6F30E020C490A
:1039140038461AF023FEAB683A46022120469847FF
:10392400EE680023032219462046B0472B69032181
:10393400204698471BB0F0BDF80A0200B007020009
:10394400B8070200034B1B684FF0FF32C3F8D42BB7
:10395400704700BF607617A070B58AB004460FF0B8
:1039640067FB09AA0021204618F057FC184C4FF4B5
:10397400F84307930023069347F6E0760596022260
:10398400049240F2DF12039240F21F32029201933A
:103994000093099B4FF4F0724FF4487120680EF0C5
:1039A40001FB0C4D294620680EF02DFE1F220A490A
:1039B40020680EF03DFE314620680EF02EFB2946AD
:1039C40020680EF020FE0FF047FB0AB070BD00BF68
:1039D400607617A0A41404001C0B02002DE9F04724
:1039E40088B0734F386800F664240023ADF81830AB
:1039F400ADF81A30C369ADF81C30036AADF81E3057
:103A04006C490EF000FE38680EF0FFFD86B206AD7C
:103A1400052128460FF0CCFC06F14602022392B29F
:103A2400694628460FF0F0FC04AB95E8030083E8F0
:103A340003003A6802F6CC3282E8030002211846F9
:103A44000FF0B6FC0436B6B2442E38BF44265A4BA7
:103A54001D78082D61D80027DFF85481DFF85CA1B8
:103A6400DFF85C91D8F800301B6EAB4233D9BDF857
:103A740016300133BDF812209B1A9E422BDA012323
:103A8400324602A904A80FF09DFCBDF8083023803B
:103A9400BDF80A306380BDF80C30413BA380BDF80B
:103AA4000E20E280D8F80010EB0103F1680008440E
:103AB400A060C4F80CA0C4F8109064330B44A36154
:103AC400404BE3610232A1F8D22B01372034013597
:103AD400ABB2082BC6D9012168460FF069FCBDF8CA
:103AE400003023807F33A380BDF8023063803F33EE
:103AF400E380354BA360354BE360354B23610023F2
:103B0400A361E3612A4B1B681B6EBB4207D82034B8
:103B14000023A36008B0BDE8F0870027DBE701219C
:103B240068460FF045FC224B1B68B3F8D02B413A92
:103B34002284B3F8D02B013AA284B3F8CE2B0132FD
:103B44006284B3F8CE2B4132E284224AA262224A32
:103B5400E262224A22630022A263E2631B6E9F4256
:103B640028BF4034D4D2012168460FF021FC104B09
:103B74001B68B3F8D02B413AA4F84020B3F8D02BFB
:103B8400013AA4F84420B3F8D22B413AA4F84220D5
:103B9400B3F8D23B013BA4F846300E4BA364104B60
:103BA400E364104B23650023A365E3656034AFE74A
:103BB400607617A0A41404005C7617A0913D000061
:103BC40018D10200ED3B0000B000020049390000AA
:103BD400DC2E03003C1F0200713D00002042020065
:103BE400453D0000F43A020030B589B0044603882C
:103BF400ADF818304388ADF81A308388ADF81C301E
:103C0400C388ADF81E301C4D1C4928680EF0FBFC1F
:103C140028680EF0FAFC85B2022106A80FF0ACFB6E
:103C24000223402204A906A80FF010FC236993B1D3
:103C3400BDF810300393BDF81230029302AA03A911
:103C44000D4B18680EF0FBF9BDF80820BDF80C10F8
:103C540020690FF055FA2A46694606A80FF040FC81
:103C6400BDF80230BDF80020A168034800680EF0DA
:103C74008FFC09B030BD00BF607617A0A414040007
:103C840070B586B00FF0D4F9284C294920680EF09D
:103C9400BAFC20680EF0B9FC054647F6E0712068CE
:103CA4000EF0BBF9002120680EF0B9F92068B0F8D5
:103CB400D03BB0F8CE2BB0F8CC1BB0F8D26B00964A
:103CC4000EF017F92068036E13BB90F8E03B102B3D
:103CD40028D0092B28D0174C174A302B18BF14466C
:103CE40021460EF0FEFC114E336882B204A903F69D
:103CF400CC300FF015FCAAB202A904A80FF0F0FB17
:103D0400BDF80A30BDF80820214630680EF040FCAA
:103D1400064B186800F664210EF0C3FE0FF09CF900
:103D240006B070BD044CDBE7044CD9E7607617A0FD
:103D3400A4140400780B0200440B0200580B020088
:103D440008B5084B1B78591D074A1268126E914238
:103D540000D308BD0133034A1370FFF73FFEFFF79A
:103D64008FFFF6E75C7617A0607617A008B5064BC0
:103D74001B7803B908BD013B034A1370FFF72EFEFD
:103D8400FFF77EFFF6E700BF5C7617A008B58069F1
:103D940000F0B8FE054B1B68D3F8D80BFFF7DCFD29
:103DA400FFF71CFEFFF76CFF08BD00BF607617A08D
:103DB40010B59AB002460C4901A81AF0CFFB0123B2
:103DC40001AA0A490BA81AF0C9FB6A4601210BA8EB
:103DD40017F01CFC044610B120461AB010BD009820
:103DE40017F04EFCF8E700BFA00B0200A80B02007E
:103DF40010B58CB00246094902A81AF0AFFB01AA1B
:103E0400012102A817F002FC044610B120460CB0B0
:103E140010BD019817F034FCF8E700BFBC0B02009A
:103E240010B58CB00246094902A81AF097FB01AA02
:103E3400012102A817F0EAFB044610B120460CB099
:103E440010BD019817F01CFCF8E700BFD40B02006A
:103E54002DE9F04794B0804600231293364B1D6839
:103E64000246364908A81AF079FB13A908A818F0E5
:103E7400C5F818B1302014B0BDE8F0873049139864
:103E840018F021F968B1129B002B4AD0002B4DDDAC
:103E9400643501242646DFF8AC902B4FDFF8ACA044
:103EA40019E012AB00222A49139818F021F9129B49
:103EB400002BEBD12749139818F005F912AB002217
:103EC4002349139818F014F9DDE70134E4B22646C7
:103ED400129B9C422ADC3246494605A81AF03EFB56
:103EE400502300932B1D3A4605A9139818F030F976
:103EF40000BB3246514603A81AF030FB2823009336
:103F040005F155033A4603A9139818F021F900283E
:103F1400DBD145F8808B084B1A68136E01331366A6
:103F2400D3E7139818F0A4F83020A4E7139818F0F6
:103F34009FF8A0E730209EE7607617A0D40B02001C
:103F4400EC0B0200140C02003C1F02001C0C0200CB
:103F5400000C02000C0C02002DE9F0478EB007465D
:103F6400304B1C680246304904A81AF0F7FA03AA39
:103F7400012104A817F04AFB064618B130460EB0DA
:103F8400BDE8F08702A9039817F0D2FB029B002B2F
:103F940044D004F1640A0025A8462C464FF00109D8
:103FA40012E02C2B06D04F2D0AD80AEB0502137110
:103FB400013505E00AEB050300251D714FF00108EA
:103FC4000134029BA34229D901AB4A460DF10301F6
:103FD400039817F079FB064600BB019BF3B19DF8EB
:103FE40003300D2BECD0B8F1000FDAD00A2B07D038
:103FF400272DE5D80AEB050282F855300135DFE7B5
:1040040055444FF0000885F855804AF8807B054BED
:104014001A68136E013313664546D1E7039817F007
:104024002FFBABE7607617A0BC0B020030B5A9B03C
:1040340040F6E43018F09CFA664B186080B140F604
:10404400E43200211AF087FB25AA1021012016F082
:10405400E7FD38B15F4C206818F092FA0023236022
:1040640029B030BD25AA24A95B4818F053FC18B127
:10407400259816F0F7FDEDE727A9584818F0A9F898
:1040840020B12599249818F0B2FCF1E7514B1B6834
:10409400279AC3F8D82B4FF0FF31302002F0E8FC08
:1040A4000020FFF785FE04460120FFF781FE002C67
:1040B40078D068B90123009300238DF804308DF87B
:1040C4005530684600F01EFD279818F099F8D8E797
:1040D4000020FFF7A5FE04468DF898000120FFF7A5
:1040E4009FFE8DF89900002C5ED0002833D1394B07
:1040F4001B680124C3F8DC4B00221A662046FFF734
:10410400A7FE04F1A0030DEB030404F8080C314BE3
:104114001B6883F8E00B2798FFF71EFCFFF75EFC93
:10412400FFF7AEFD2B4C4FF0FF352368D3F8D43B9B
:10413400002BC9D12A4620A9259816F028FE00286C
:10414400F3D1244B18684FF4FA73259A00F66421CE
:104154000EF09EFEE7E70020FFF74AFE05468DF8C5
:1041640098000120FFF744FE8DF899001DB3B0F1CB
:104174000D0418BF0124174B1B68C3F8DC4B002245
:104184001A6604F1A0036B4413F8083CCBB1114B3D
:104194001B6804F1A0020DEB020414F8082C83F848
:1041A400E02BB8E7002386E70A4B1B680024C3F81A
:1041B400DC4B1C66A2E7074B1B680024C3F8DC4BEE
:1041C4001C662046FFF7C8FE04F1A0036B4403F805
:1041D400080CDCE7607617A0C4000200D0000200DF
:1041E4000022084B03F14C0013F8011B0A448342DC
:1041F400FAD1D243034BD86C904214BF162000204E
:10420400704700BF647617A000B583B000220D4B41
:1042140003F14C0013F8011B0A448342FAD1D24340
:10422400084BDA6401A9084817F06CF910B103B01F
:104234005DF804FB502300220249019817F081F92C
:10424400F5E700BF647617A09806020000B583B0B6
:1042540001A90B4817F056F9034618B1184603B0E4
:104264005DF804FB502300220649019817F057F922
:1042740003460028F2D1FFF7B3FF0346EEE700BF81
:1042840098060200647617A038B51A4C5022002113
:1042940020461AF060FA4FF0FF35A564C02184F877
:1042A4003A10A82284F83B200A2384F83C301420D6
:1042B40084F83D00FF2084F83E5084F83F0084F8E1
:1042C400400084F8421084F8432084F844300123E9
:1042D40084F84530BD2384F83530332384F83630F0
:1042E400062384F83730682384F83830222384F88E
:1042F400393038BD647617A0074B1B684FF0FF3286
:10430400C3F80C22C3F824220021C3F81012C3F806
:104314001422C3F81C127047C07617A0064B1B6802
:104324000022C3F828224FF0FF32C3F81422034BB3
:104334000361034BC3607047C07617A094BB0200AF
:10434400914500002DE9F0418EB005460EF070FE57
:10435400764B1B68D3F8E831012B07D87BB9744B33
:104364001868744A01460FF0FBF808E0714A724974
:10437400096802FB03116E4B18680FF0F1F86B4BE0
:104384001868D0F81032002B37D1684B1B68D3F86B
:104394001C32002B40F09180002D00F0BC80634B58
:1043A4001B68D3F82C22002A40F08E80D3F83022E8
:1043B400002A00F0AD80D3F8E831042B00F08C80A3
:1043C4005A4B1B68D3F8E831002B00F093805A4B0A
:1043D4001868564C2368D3F8E811564B03FB01F1D7
:1043E400A1F53B23A3F50063014418440EF00EFF2E
:1043F40023680022C3F830228FE000210DF00FFE65
:104404004A4C002120680DF008FE002120680DF0C0
:1044140009FE4A4920680EF0F6F823680CAE03F54D
:10442400FA7292E8030086E80300012118460DF0B1
:10443400F9FD206800F164010EF033FB2368D3F822
:10444400C821D3F8C43101323D4968461AF086F8D0
:10445400694620680EF045F98046236803F5F67333
:1044640093E8030086E803000A2130460EF0A0FF1B
:104474000AAF1FFA88F2394630460FF051F897E830
:10448400030086E8030020680EF0BFF882B23946C4
:1044940030460FF025F847F6E07120680DF0BDFDB9
:1044A400002120680EF01BF9BDF82A30BDF8282041
:1044B400694620680EF06CF867E7C6224FF4B671BF
:1044C40020480EF01DFE67E70EF0CEFD174B1B686B
:1044D4000022C3F82C2220E0174B1868154A00F577
:1044E4000C1101F5205100F56A1000F5C0500FF0D1
:1044F40037F865E7104B18680E4A00F53B1101F5D3
:104504000051A0F53B20A0F500600FF029F85EE70C
:104514000EF0A2FD01E00EF09FFD044B1B6800228B
:10452400C3F814220EB0BDE8F08100BFC07617A016
:104534000400001000B80B00B47617A0A414040003
:10454400240C02004C49020008B50F4B1B68D3F839
:10455400102292B90C4B1A68D2F8C8310133D2F840
:10456400C4118B4228BF0023C2F8C8314FF0FF3377
:10457400C2F81832C2F8303208BD0020C3F8100265
:10458400FFF7E0FEE6E700BFC07617A008B5084BCA
:104594001B684FF0FF32C3F82822C3F81422054BDE
:1045A4000361054BC3600020FFF7CEFF08BD00BFC9
:1045B400C07617A0C0C202002143000008B5114B09
:1045C4001B68D3F81022BAB90E4B1B68D3F8C82164
:1045D4001AB9D3F8C421C3F8C821D3F8C821013AC1
:1045E400C3F8C8210022C3F810224FF0FF32C3F8E9
:1045F4001822C3F82C2208BD0020C3F81002FFF7CC
:10460400A1FEE1E7C07617A02DE9F04FADF5077DD7
:104614000188B0F802A00469A789E28904F11500B1
:1046240006AD86AE10F801CC4FEADC0C10F8023C63
:10463400DB085B0143EA8C2310F803CC43EADC0378
:1046440025F8023B0330B542ECD1002A4ED0501E6F
:1046540007F2123307FB003323440020DFF8948071
:10466400994605913B46049232E002365D4525D0D9
:1046740015F8013B06AA32F81340002CF5D0234666
:1046840052463146D8F800000DF0E4FC06F1010969
:10469400234652464946D8F800000DF0DBFC234679
:1046A4003A463146D8F800000DF0D4FC23463A4689
:1046B4004946D8F800000DF0CDFCD6E7DDF80490AB
:1046C400029B039801300AF1020A049A82420DD037
:1046D400CB46A9EB03094D46002BF3D00AF10107A1
:1046E400059ECDF8049002930390C1E70DF5077D74
:1046F400BDE8F08FC07617A02DE9F04FBFB04FF0A2
:10470400FF32002307930693DFF864B21F46B2E03A
:104714004FF0FF32AFE093F8CC21022A40F0BE8084
:10472400002207923B97079A03323C9200223BA94E
:10473400D3F8E00116F0D1FA002206929BE093F838
:10474400D421022A40F0AF8001220792EAE7059FB4
:10475400029D3D95D4F82432002B40F0EA80D4F831
:104764003432002B00F0C1804FF000038DF8243068
:10477400DBF800301B6E1A680135009509AB7D49E2
:104784001DA819F0EBFE08AA01211DA816F03EFF92
:10479400002840F0CE80039BDD1C089816F070FFC3
:1047A400754B196801F56A1303F5C05304F50972D2
:1047B400724800FB05111DA80EF088FD0446002870
:1047C40040F0B780DBF80000039B00EBC303022238
:1047D40083F8CC213D9AC3F8D021069B002B00F02E
:1047E400A6803B9B9A4200F09580002243E0002E75
:1047F4003CD1049B002BBCBF5B180493049B5F1E3D
:10480400B8F1000FB8BFF0442E46434608F1FF3814
:10481400049A0497013081422AD9B2FBF1F701FBD3
:1048240017220392B3FBFEF70EFB1733029304EB3C
:10483400C207D7F8D0914B4589D197F8CC71002F96
:1048440085D0B542E6D3002DD1D1614538BFACEB5C
:10485400010C0CF10105D64538BFAAEB0E0A5346EC
:104864000AF1010A6246AC460125D3E73546D1E791
:10487400059F4FF0FF32DBF800303DA9D3F8DC018F
:1048840016F085FA98B93D9FB7F1FF3F62D0DBF887
:104894000030D3F8D02197423FF43DAFD3F8D8216C
:1048A40097423FF44CAF3B974FF0FF3306933D974D
:1048B400079802463B46DBF80040D4F8C4E1714651
:1048C400022928BF0221461C0138049007F1010A7D
:1048D40007F1FF3CBEF1000F3FF41AAF002005467C
:1048E400E046B4460646059797E7226E55322449BA
:1048F40009A819F033FE3BE73D9B3B934FF0FF3390
:104904003C931B4B1B6800223BA9D3F8E00116F033
:10491400E4F911E03C9500223BA9D0F8E00116F03F
:10492400DCF93D9F039B079306940022A3E7002232
:10493400A1E7069B002BDFD1DBF80030039A03EBE1
:10494400C203022283F8CC213D9AC3F8D02100226D
:10495400069290E74FF0FF323B92054B1B683BA950
:10496400D3F8E00116F0B9F900203FB0BDE8F08FAC
:10497400C07617A0400C0200B47617A000B80B0054
:10498400340C020070B58AB004460EF051FB09AA3B
:104994000021204617F041FC154C4FF4F8430793CF
:1049A4000023069347F6E07605960222049240F22D
:1049B400DF12039240F21F32029201930093099B8B
:1049C4004FF4F0724FF4487120680DF0EBFA094D82
:1049D400294620680DF017FE314620680DF01DFBB6
:1049E400294620680DF00FFE0EF036FB0AB070BDAC
:1049F400C07617A0A414040030B5B1B0194B1B68DD
:104A04000022C3F8C421174C174D1DE000238DF874
:104A14000C3023681A6E1268D3F8C4310133009342
:104A240003AB124917A819F099FD02AA012117A88E
:104A340016F0ECFDA0B92268D2F8C4310133C2F8F3
:104A4400C431029816F01CFE2368D3F83422002ADD
:104A5400DCD11A6E5532294603A819F07FFDD8E738
:104A640031B030BDC07617A0340C0200400C0200F7
:104A740070B582B0224B1B68D3F8C8614FF0FF3287
:104A840003F5E471D3F8DC0116F064F91C4CFA2543
:104A940008E0C3F81C02FFF755FC19E02368D3F8BB
:104AA4001C222AB323682A466946D3F8E00116F08B
:104AB4006EF90028F2D1009BB342F3D1019BB3F10C
:104AC400FF3F13D00E4B1B68D3F81C22002AE0D101
:104AD4000B4B1B680022C3F818224FF0FF31C3F8B8
:104AE40014120199C3F8E811C3F81C2202B070BD76
:104AF4004FF0FF32C3F81C220020FFF723FCD1E75C
:104B0400C07617A02DE9F04395B005464FF40E701A
:104B140017F02EFDBE4B186058B304464FF40E72C6
:104B2400002119F018FE04F5EE720421032016F09A
:104B340077F808B3B64B1B68D3F8E421002A40F099
:104B44003A82B34B1B68D3F8DC01002840F04B8257
:104B5400AF4B1B68D3F8E001002840F04782AC4C0F
:104B6400206817F00DFD00232360AA4B186817F086
:104B740007FD15B0BDE8F083A54B1A6802F5F07285
:104B84000821032016F04CF80028D3D12B794BB917
:104B940095F8553033B99E4B1B684FF0FF32C3F87C
:104BA400342204E09A4B1B680022C3F834229A484A
:104BB40017F0DEFC974A10600028DAD000F53C2399
:104BC40003F2FF736FF30B03944A1360904B1A685C
:104BD4000023C2F8E43102F5F2720192022200923B
:104BE4004FF420728E498F4816F070F90028A1D135
:104BF400874B1B684FF0FF31C3F810120022C3F833
:104C04001C22C3F80C221D66C3F8C821C3F818126D
:104C1400C3F81412C3F82022834B1B6883B112AA71
:104C24001021012015F0FCFF002883D112AA11A93C
:104C34007E4817F06FFE48B1129816F013F879E722
:104C4400794A0121032015F0EBFFE8E713A978481E
:104C540017F0BFFA20B11299119817F0C8FEEBE7CC
:104C6400FFF7CAFE6A4B1B68D3F8C4311BB913980B
:104C740017F0C6FAEFE71398FFF784FE644F3C6819
:104C84000025ADF80C50ADF80E50E369ADF81030C6
:104C9400236AADF81230674920460DF0B4FC396838
:104CA40003AE2B464A2201F5FA7130460EF0ACFBF6
:104CB4003B6803F5FE7296E8030082E8030005AE44
:104CC40003F5FA7393E8030086E8030005213046F0
:104CD4000EF06EFB2823402207A930460EF0B6FBE7
:104CE400BDF81C30A4F86430BDF81E30A4F866305A
:104CF400BDF82030A4F86830BDF82230A4F86A303A
:104D0400DFF83491C4F86C904C4B23674C4B6367C9
:104D1400E567DFF83081C4F880802823402207A9A2
:104D240030460EF093FBBDF81C30A4F88430BDF877
:104D34001E30A4F88630BDF82030A4F88830BDF8C1
:104D44002230A4F88A30C4F88C903F4BC4F89030D9
:104D54003E4BC4F89430C4F89C50C4F8A080282377
:104D6400402207A930460EF071FBBDF81C30A4F8B0
:104D7400A430BDF81E30A4F8A630BDF82030A4F845
:104D8400A830BDF82230A4F8AA30C4F8AC90304B57
:104D9400C4F8B0302F4BC4F8B430C4F8BC50C4F8D5
:104DA400C08039680223642201F5F67130460EF0A2
:104DB40071FB2823402207A930460EF06BFBBDF897
:104DC4001C30A4F8C430BDF81E30A4F8C630BDF8B9
:104DD4002030A4F8C830BDF82230A4F8CA30C4F892
:104DE400CC901D4BC4F8D0301C4BC4F8D430C4F85C
:104DF400DC50C4F8E080C4F8EC503B68D3F80C32C3
:104E0400002B7FF434AF3C464FF0FF37064E3DE0B5
:104E1400C07617A0B87617A060215200B47617A008
:104E2400540C0200FD460000BC7617A0C40002002A
:104E3400D0000200A41404003C1F0200C14500007D
:104E440068B402000D4600009145000094BB0200C6
:104E54004D450000ECC90200FD4200003CAD0200DB
:104E6400FFF706FE15F0E2FF054616E03846FFF7A9
:104E740069FA15F0DBFF054614E00020FFF764FB38
:104E84002368D3F80C32002B7FF4F1AE17F062FBE9
:104E94002368D3F81832002BE2D12368D3F81432F4
:104EA400002BE3D100220DF12701306815F06FFFCC
:104EB400022812D09DF82730012BDED0022B08D017
:104EC400002BDDD14B4B1B684FF0FF32C3F80C2293
:104ED400CDE60020FFF772FBD2E73A460DA91298FF
:104EE40015F055FF0028CBD1424B1868D0F810328A
:104EF40083B9109B012B3FD0D0F82832D3B1284678
:104F040015F0A2FF40F6B733984210D90020FFF7FE
:104F14001BFB0CE04FF4FA73129A00F164010DF0DC
:104F2400B7FF284615F090FFB0F57A6F17D2109BA3
:104F3400012B27D02F4B1A68D2F820324BB1D2F86C
:104F44000832D2F804229B1A13F1800F2BDB802B3A
:104F54002DDC284B1B680022C3F8202290E7254B48
:104F64001B680022C3F810224FF0FF32C3F814224A
:104F740015F05CFF0546DAE74FF0FF33C0F8103256
:104F8400C0F814321B4B1B68D3F820223AB90F9A8D
:104F9400C3F804224FF0FF32C3F8202270E70F9ABF
:104FA400C3F80822F6E70020FFF7CEFAD1E7002085
:104FB400FFF704FBCDE74FF0FF320C920CA9D3F8B6
:104FC400DC0115F0C7FE00250A4C0A9523684FF052
:104FD400FF320AA9D3F8E00115F0D9FE0A9BB3F118
:104FE400FF3FF2D1ADE515F03DFEB1E515F03AFE17
:104FF400B5E500BFC07617A08269D2F8C83183F046
:105004000103C2F8C831704783694FF0FF329A60D8
:10501400704700002DE9F04F95B004460EF008F8F3
:10502400254613AA002155F80C0B17F0F6F84FF497
:10503400F84307930026069647F6E07705974FF066
:105044000209CDF8109040F2DF13039340F21F33AE
:10505400029301960096139B4FF4F0724FF448713B
:1050640028460CF09FFFDFF8D8A1514628460DF0E2
:10507400CAFA28460DF0C9FAA4F8C0011F227149E2
:1050840028460DF0D5FA394628460CF0C6FF3146BD
:1050940028460CF0C4FFADF84460ADF84660A36A3E
:1050A400ADF84830E36AADF84A30082111A80EF093
:1050B4007FF9B4F8C02146324B4692B20BA911A82D
:1050C4000EF0A2F901210BA80EF072F9BDF82C30F4
:1050D400A4F86C307F33A4F87030BDF82E30A4F8F7
:1050E4006E303F33A4F87230574B6367574BA36756
:1050F400574BE367C4F88440C4F8886031462846B7
:105104000DF0EDFA314628460CF08CFF01212846BB
:105114000DF0E5FA4F4928460DF075FA312128467D
:105124000DF077FAA4F8C20128460DF06EFA82B2A7
:10513400A4F8C421B4F8C2B10BEB4B0B4FEA4B0BF0
:105144000BF18A0B04F5D6770832802A38BF802207
:1051540092B2394611A80EF0C3F90DF13C0897E854
:10516400030088E803001FFA8BF2394640460EF02C
:10517400D7F997E8030088E803004B46802209A981
:1051840040460EF087F9334680220DA909A80EF097
:1051940019F9BDF83430A4F88C30BDF83630A4F8D1
:1051A4008E30BDF83830A4F89030BDF83A30A4F809
:1051B4009230DFF8A4B0C4F894B0284BC4F8983007
:1051C400274BC4F89C30C4F8A440C4F8A860B4F8D1
:1051D400C2210432334692B20DA940460EF05AF968
:1051E400BDF83430A4F8AC30BDF83630A4F8AE3095
:1051F400BDF83830A4F8B030BDF83A30A4F8B23075
:10520400C4F8B4B0154BC4F8B830C4F8BC60C4F8E2
:10521400C440C4F8C860494638460EF0C9F8C4F81A
:10522400D460514628460DF0EEF904F16C0128468D
:105234000DF037FC0DF010FF15B0BDE8F08F00BF86
:10524400A41404005C0C0200B00002000D50000025
:10525400DC2E03006C7E03003C1F0200FD4F0000A7
:10526400B87302002DE9F04F8DB04FF4E87017F0D9
:105274007FF9764B1860A0B104464FF4E872002120
:1052840019F069FA0123C4F8BC3104F5E6717048D9
:1052940017F0C7F940B16D4C206817F071F900237D
:1052A40023600DB0BDE8F08F6A4A1021012015F08B
:1052B400B7FC30B1654B1B68D3F8CC0117F0BEF9CD
:1052C400E9E7644A0BA9644817F024FB20B1614B59
:1052D400186815F0C7FCEDE75C4B19685F4816F0D9
:1052E40078FF28B15B4B19680B9817F080FBEEE749
:1052F400564C2068FFF78EFE20688368002B6BD025
:10530400006816F07DFFEDE7059B03EBC303544AE9
:1053140082FB0312DB17C3EB620303F5001305934F
:105324001A149BB203EB8303DB0B4E4908A819F054
:1053340015F974E04C4B089371E06D08454405F190
:10534400FF3AB9F8AE21414620460CF0EFFF47F68C
:10535400E07120460CF061FE039B1978202901D0EE
:105364005F2920D107AA06A920460CF0F8FF069B66
:105374009A451CDCA8465E4529D0394620460CF0E7
:105384004EFE394620460CF048FE394620460CF0C5
:1053940049FEB9F8C2510136039633782E2BCCD08E
:1053A4005F2BCBD1C9E720460DF031F8DAE7394657
:1053B40020460CF032FE079AB9F8C4311344013B7D
:1053C4000093AB1E069920460CF093FDD2E71F4BC9
:1053D40018688368002B93D14FF4FA731D4A12683E
:1053E40000F16C010C300DF053FD184BD3F8009014
:1053F40005A9D9F8CC0117F029F900289AD1D9F8D0
:10540400C811012980D0059B1A149BB203EB8303B6
:10541400DB0B002989D1154908A819F09FF809F177
:105424000C04134920460DF0EEF8002120460DF03F
:1054340056F947F6E07120460CF0EFFDB9F8AC815F
:105444000DF11F060DF1260B002796E7C87617A06D
:10545400D8050200C47617A0C4000200D0000200E0
:10546400676666668C0C020045727200800C02004E
:105474006C7E030070477047A0F862104FF0FF3352
:10548400C0F8C83070474FF0FF33C0F8C8307047D9
:10549400074B1B6803B9704710B5D0F83441114667
:1054A400204609F0B1F90349204609F0ADF910BDD1
:1054B400CC7617A0500E020010B5D0F83441054B3D
:1054C40053F82210204609F09FF90349204609F0B9
:1054D4009BF910BDE4260200980C020008B5094BA4
:1054E4001B683BB9084B1B6843B1084909F08CF9A8
:1054F400002008BD064909F087F9F9E7054909F0D4
:1055040083F9F5E7DC7617A0E07617A0A40C020077
:105514009C0C0200B00C020030B587B0054601298E
:105524001ED0144602293CD1204B1B6853B3204B98
:105534001A68204901A819F011F8616801A819F046
:105544005FF908B3194B1B684BB3194B1A681A4916
:1055540001A819F003F801A9284609F055F90CE04F
:10556400124B1B6863B1124B1A68144901A818F056
:10557400F5FF01A9284609F047F9002007B030BD1E
:105584000022F2E70022D4E7094B1A680C4901A86B
:1055940018F0E4FF01A9284609F036F9EDE70022E6
:1055A400D5E7084909F030F9E7E700BF547717A0B9
:1055B400587717A000070200D80C0200C00C0200A4
:1055C400C80C0200E80C020010B50446012904D0FE
:1055D400064909F019F9002010BD012001F0F8FD79
:1055E4000349204609F010F9F5E700BFE80C020072
:1055F400A40C020010B50446012904D0064909F0A0
:1056040003F9002010BD022001F0E2FD0349204609
:1056140009F0FAF8F5E700BF040D0200A40C02003B
:1056240010B5012904D00446022905D0002010BD7C
:10563400032001F0CDFDF9E70B4B4FF0FF321A6068
:10564400032001F0C5FD084A1368002BFCD1074B69
:105654001B6823B10649204609F0D6F8E6E7054958
:10566400204609F0D1F8E1E7DC7617A0E07617A030
:10567400A40C0200B00C020010B50446012904D0A9
:10568400064909F0C1F8002010BD052001F0A0FD75
:105694000349204609F0B8F8F5E700BF040D0200FD
:1056A400A40C020008B5002001F092FD002008BD02
:1056B400F8B50646042904D0124909F0A5F80020DB
:1056C400F8BD1546506809F07FF80446A86809F04B
:1056D4007BF80746E86809F077F8E40104F4F84435
:1056E400BF0007F478773C43C0F3C4000443064B7F
:1056F4001C80042001F06CFD0449304609F084F854
:10570400DDE700BF040D0200D47617A0A40C02004C
:105714002DE9F84380460D46144602F58179144B71
:105724001A889B78A4F8022189F80230204601F0F7
:1057340079FD0023C4F8C830C4F834814FF4004222
:1057440021460C48A847D4F8C8304BB9094F002665
:10575400324621463846A847D4F8C830002BF7D043
:105764004A460549404609F07BF8BDE8F88300BF86
:1057740090170200F82602005C1F020010B5CEB09C
:105784000446022905D0094909F03EF800204EB02C
:1057940010BD506809F018F836900123ADF80031B7
:1057A4006A4603492046FFF7B3FFEFE7040D020002
:1057B400CD2A000010B5CEB00446022905D00C490C
:1057C40009F022F800204EB010BD506808F0FCFF2C
:1057D4000023ADF8003128B16A4606492046FFF798
:1057E40097FFEFE76A4604492046FFF791FFE9E790
:1057F400040D020091380000292D000000B5CFB03F
:10580400012906D0054908F0FFFF00204FB05DF8DC
:1058140004FB6A460249FFF77BFFF6E7040D02002A
:10582400FD33000000B5CFB0012906D0054908F0CA
:10583400EBFF00204FB05DF804FB6A460249FFF716
:1058440067FFF6E7040D02006526000000B5CFB03F
:10585400012906D0054908F0D7FF00204FB05DF8B4
:1058640004FB6A460249FFF753FFF6E7040D020002
:105874007524000000B5CFB0012906D0054908F011
:10588400C3FF00204FB05DF804FB6A460249FFF7EE
:105894003FFFF6E7040D02007D21000000B5CFB004
:1058A400012906D0054908F0AFFF00204FB05DF88C
:1058B40004FB6A460249FFF72BFFF6E7040D0200DA
:1058C400AD23000000B5CFB0012906D0054908F08A
:1058D4009BFF00204FB05DF804FB6A460249FFF7C6
:1058E40017FFF6E7040D0200CD2D000000B5CFB080
:1058F400012906D0054908F087FF00204FB05DF864
:1059040004FB6A460249FFF703FFF6E7040D0200B1
:10591400D92F000010B50446022904D00B4908F021
:1059240073FF002010BD506808F04EFF031E18BF1F
:1059340001235B42064A1360064A074B002818BF3E
:105944001A460649204608F08BFFEAE7040D0200D8
:10595400CC7617A0240D0200200D0200280D0200B1
:1059640030B5C3B00446012906D0414908F04CFFC4
:105974000025284643B030BD41A93E4815F01EFF1E
:1059840000286ED14FF480224FF4E001419815F0C5
:105994005DFF002834D1802301AA4FF4E00141982F
:1059A40015F030FF002832D101AB21A913F8012BE7
:1059B400FF2A33D18B42F9D106232F4A2F4941982C
:1059C40015F032FF88BB06232D4A2E49419815F065
:1059D4002BFF88BB802301AA2849419815F012FFA8
:1059E40088BB0C22284901A818F043FD054688BB52
:1059F4002649204608F008FF419815F0F6FEB8E75E
:105A04002349204608F000FF4FF0FF35B1E7214954
:105A1400204608F0F9FE4FF0FF35AAE71E4920465C
:105A240008F0F2FE4FF0FF35A3E71C49204608F0CA
:105A3400EBFE4FF0FF359CE71849204608F0E4FEE2
:105A44004FF0FF3595E71349204608F0DDFE4FF08F
:105A5400FF358EE71249204608F0D6FE4FF0FF3599
:105A640087E71049204608F0CFFE002581E700BFF4
:105A7400040D0200B007020070070200FCFF73006F
:105A8400780702000200740080070200A40C0200E0
:105A94003C0D02005C0D0200780D0200900D020026
:105AA400B00D0200D00D02002DE9F04F89B0009036
:105AB40014460139062900F2DD82DFE811F0D5022F
:105AC400DB02DB02CA020700DB02BF00506808F0F9
:105AD4007BFE0546A06808F077FE8146E06808F082
:105AE40073FE8046206908F06FFE0646E8B2FDF7B3
:105AF4001DFD0746002862D05FFA88F0FDF716FD09
:105B04000446002863D049EA052080B215F0C4FF9A
:105B14000546B0F1FF3F62D046EA082080B215F096
:105B2400BBFF0546B0F1FF3F5ED05FFA86F82368FD
:105B34001B6B0022414620469847012505FA06F6CC
:105B440023681B6A31462046984723685B6B002212
:105B540041462046984705FA09F53B685B6A2946A1
:105B6400384698473B68DB692946384698473B687E
:105B74005B6B00225FFA89F138469847322012F0B5
:105B840099FF2368DB6A07AA3146204698473B6899
:105B94009B6A294638469847322012F08BFF2368C7
:105BA400DB6A06AA314620469847079B43B3069B07
:105BB400FBB91B49009808F053FE002550E22A4621
:105BC4001849009808F04CFE4FF0FF3548E2424671
:105BD4001449009808F044FE4FF0FF3540E21249A2
:105BE400009808F03DFE3BE21049009808F038FEAA
:105BF40036E20F49009808F033FE4FF0FF352FE2EC
:105C0400069B33B10B49009808F02AFE4FF0FF358C
:105C140026E20949009808F023FE4FF0FF351FE201
:105C2400A40C0200EC0D0200040E02002C0E020073
:105C3400540E02007C0E0200680E0200506808F048
:105C4400C3FD0546A06808F0BFFD8246E06808F081
:105C5400BBFD8046206908F0B7FD8346606908F003
:105C6400B3FD8146A06908F0AFFD0190E8B2FDF7ED
:105C74005DFC0746002800F080815FFA88F0FDF79C
:105C840055FC0446002800F080815FFA89F0FDF796
:105C94004DFC0646002800F080814AEA052080B2C7
:105CA40015F0FAFE0546B0F1FF3F00F07E814BEAA5
:105CB400082080B215F0F0FE0546B0F1FF3F00F079
:105CC4007981019B43EA092080B215F0E5FE05467F
:105CD400B0F1FF3F00F073814FF0010808FA0AF5B4
:105CE4003B681B6A294638469847E9B203913B68EA
