:1000000010090010010300001B0300007C03000026
:100010001D0300001F03000021030000FBE3FFEFAE
:10002000000000000000000000000000498F0100F7
:100030002503000000000000A18F0100E58F0100F2
:10004000C5580100D5580100E5580100F5580100D8
:1000500005590100155901002559010035590100C4
:1000600045590100555901006559010075590100B4
:100070008559010095590100A5590100B5590100A4
:10008000C5590100D5590100E5590100F559010094
:10009000055A0100155A0100255A0100355A010080
:1000A000455A0100555A0100655A0100755A010070
:1000B000855A0100955A0100A55A0100B55A010060
:1000C000C55A0100D55A0100E55A0100F55A010050
:1000D000055B0100155B0100255B0100355B01003C
:0400E000455B01007B
:0402FC00FFFFFFFF02
:10030000DFF88CD023488047DFF884D0224880472C
:1003100022482349016000F045B82FE02EE02DE08F
:100320002CE02BE02AE029E028E027E026E025E089
:1003300024E023E022E021E020E01FE01EE01DE0B9
:100340001CE01BE01AE019E018E017E016E015E0E9
:1003500014E013E012E011E010E00FE00EE00DE019
:100360000CE00BE00AE009E008E007E006E005E049
:1003700004E003E002E001E000E0FFE71EF0040F0C
:100380000CBFEFF30880EFF3098013F023BB0000EC
:10039000000001100F8E000021B7010008ED00E001
:1003A000000000002C498D462C482D492D4A00F0B4
:1003B00041F82D482D492E4A00F03CF82D482E4991
:1003C0002E4A00F037F82E482E492F4A00F032F816
:1003D0002E482F492F4A00F02DF82F482F49304A38
:1003E00000F028F82F483049304A00F023F8304810
:1003F0003049002200F029F82F483049002200F04F
:1004000024F82F482F49091A0022026004300160A5
:100410001C481D49884205D00268043003B4904747
:1004200003BCF7E700208646EC4600200021264A60
:100430009047FEE7884207D0521A05D00378013072
:100440000B700131013AF9D17047884202D0027035
:100450000130FAE77047000010090010A0490400BD
:1004600000000010D4000010CC040000CC040000F8
:1004700030040200A0490400000000100000001039
:100480003004020030040200300402003004020094
:100490003004020030040200300402003004020084
:1004A000A0490400744A0400D4000010D4000010D5
:1004B000007017A0909117A0909117A0989117A085
:0C04C000989117A0000080A0078E00009B
:1004CC00024B4FF0FF321A60704700BF887017A0C4
:1004DC002DE9F04F91B0044612F0FCFD0FAA00215B
:1004EC0020461CF070F84F4E4FF4F843079300254C
:1004FC00069547F6E07705970223049340F2DF1345
:10050C00039340F21F330293019500950F9B4FF418
:10051C00F0724FF44871304611F090FD424C214678
:10052C00304612F0C2F8304612F0C1F880461F2255
:10053C003E49304612F0CEF8ADF83450ADF8365096
:10054C00F369ADF83830336AADF83A303946304695
:10055C0011F0AFFD2146304612F0A7F80BAF4FF467
:10056C00B47239460DA813F00FF8BDF82CB0BDF8D5
:10057C002E90BDF83240DFF8B8A04FF4B47251465B
:10058C00384613F021F8ADF82CB0ADF82E90ADF83C
:10059C003240544634F86039063BADF830300DF13A
:1005AC0024092B4680224946384612F0C7FF99E8A9
:1005BC00030087E8030008F142022B4692B2494639
:1005CC00384612F075FFBDF824302AF8603CBDF8AF
:1005DC002830A380BDF8263063804033E380154B70
:1005EC00A360154BE360154B2361A561E561A56222
:1005FC002146304612F0A7FA2946304611F05BFD31
:10060C00B4F866300093B4F86430B4F86220B4F8EF
:10061C006010304611F0B9FC12F070FDA56611B0F7
:10062C00BDE8F08F987017A0481804003004020041
:10063C00687017A054040200CD040000803203003F
:10064C0010B582B0114C0021204611F034FD002170
:10065C00204611F02EFD0021204611F02FFD0C4BF1
:10066C00196809120B4B1A68121202F10903009354
:10067C0001F109030A3A0A39204611F086FC0021DF
:10068C00204611F01BFD02B010BD00BF987017A0E2
:10069C00947017A0907017A02DE9F04F8DB0002228
:1006AC004E4B1A604E4B5A679A67DA67DA661A67CE
:1006BC00B3F86020B3F864100A44521049490A6038
:1006CC00B3F86220B3F8663013445B10464A1360EB
:1006DC00464A102101201AF05BFC10B10DB0BDE8A8
:1006EC00F08F424C424A434920681AF088FC22465B
:1006FC000AA941481CF0ECFA20B13C4B18681AF0DE
:10070C0069FCEBE70BA93D481BF039FF28B1374BCF
:10071C0019680A981CF049FBEFE709AA00210B980D
:10072C001BF051FF08A936481BF07EF818B10B9846
:10073C001BF03CFFEBE7334908981BF061F80028ED
:10074C00F5D10B98FFF7C4FE1AF028FD0446234B95
:10075C001B68002BEBD1DFF89490DFF884802A4FD4
:10076C0084E01F4B0022DA661A6710264FF00A0B42
:10077C00DFF890A01D4658461AF046FBDAF8000048
:10078C0003685B69642205A99847EB6E059A1A44C5
:10079C00EA662B6F06990B442B67013EEBD1114691
:1007AC00002AB8BF02F10F0109110D4AD1661A4691
:1007BC00002BB8BF03F10F021211094B1A674FF04F
:1007CC00FF325A671AF0EAFC104B186075E04FF4D0
:1007DC0096329DE04FF49633A4E000BF887017A0CA
:1007EC00087017A0947017A0907017A0047017A031
:1007FC00482902005C040200680402007404020030
:10080C00780402008C7017A0987017A0007017A0C5
:10081C00B04200F0E780774B9B6E002B40F0E680F7
:10082C00754B1E60754B1D6033120A3B03932B12E4
:10083C000A3B0493724D04AA03A9284611F04BFC01
:10084C00284612F003FFBDF81020BDF80C106D48BF
:10085C0012F0A8FC674B4FF0FF329A6614201AF086
:10086C00D3FA694B1B68002B7FF461AF0023D9F8D6
:10087C0000204146384612F05DFB054626461AF02C
:10088C008DFC0446002DE9D1B042E7D05F4B1868CF
:10089C0003685B69642205A9984705461AF07EFC3B
:1008AC005B4B1A681860002DD8D1524B5B6F0193CB
:1008BC00002B3FF456AF831A01934E4BD96E059A19
:1008CC00521A0592196F069B5B1A0693019901FB4C
:1008DC0002F2002ABCBF02F57F42FF3212144549D6
:1008EC00896F01EB4222019901FB03F3002BBCBF82
:1008FC0003F57F43FF331B143E49C96F01EB4323C0
:10090C00B2F5963FBFF663AF42498A42B8BF0A467A
:10091C0038498A67B3F5963FBFF65CAF3D498B42C9
:10092C00B8BF0B46DFF8CCC0CCF87C303249086835
:10093C00DDF804A00AFB02F1DFF8DCE08EFB0165B8
:10094C00CE17C6EBA51606442C4909680AFB03F51D
:10095C008EFB05AEED17C5EBAE150D44BCF864C0AF
:10096C00ACF10B0C4FEA0C2EB6EB0C2F06DD02EBA8
:10097C00D272521052421F4EB26776461D4AB2F8DE
:10098C0060200B324FEA022CB6EB022F07DA194E1D
:10099C00B26F02EBD27252105242B2676646154ADF
:1009AC00B2F866200B3A4FEA022CB5EB022F06DDAB
:1009BC0003EBD3735B105B420E4AD36765460D4B5A
:1009CC00B3F862300B334FEA032CB5EB032FBFF6B1
:1009DC001FAF084AD36F03EBD3735B105B42D36733
:1009EC00654615E7A9427FF416AF37E7FFF728FEF7
:1009FC0016E700BF087017A0947017A0907017A08E
:100A0C00987017A040F20200887017A08C7017A085
:100A1C00007017A000D4FEFFD34D6210704783699D
:100A2C004FF0FF329A6670472DE9F04FABB0044699
:100A3C0000F16C0929AA002140681BF0C4FD12F0DA
:100A4C0049FB05201AF0E0F904F108084FF4F843CB
:100A5C0007930023069347F6E07205920222049254
:100A6C0040F2DF12039240F21F3202920193009384
:100A7C00299B4FF4F0724FF44871404611F0DEFAA6
:100A8C007849404611F011FE774B1B68002B00F0A3
:100A9C00A78023681A680AAD40F2EA7302930A230E
:100AAC00019302230093714B1B68714928461DF07A
:100ABC0039FF1F222946404611F00CFE002140460A
:100ACC0011F0F9FA404611F0F2FD05460023ADF89D
:100ADC009C30ADF89E30636AADF8A030A36AADF8D7
:100AEC00A230122127A812F0B7FC23685E689B681D
:100AFC00002B7CD14C46BDF8A220BDF89E30D21AFA
:100B0C00A2F23312521B0023C2F34F0221A927A8D1
:100B1C0012F0ACFC022325AF0DF18C0ACDF820802D
:100B2C00CDF8249099463368002B00F09180322345
:100B3C008022394627A812F099FCBDF8A020BDF8F8
:100B4C009C30D21AA2F295220023C2F34F0221A9A3
:100B5C00384612F0CFFC06F1100504F1800B4FF073
:100B6C0032082E4655F8103C002B6BD043468022A1
:100B7C005146384612F0BEFCBDF88C302380BDF8CF
:100B8C008E306380BDF89030A380BDF89230E38046
:100B9C0055F8103CA36055F80C3CE36055F8083C44
:100BAC00236155F8043CA3610023E361A382203444
:100BBC0010355C45D5D1B9F1010947D1DDF820805C
:100BCC00DDF824900023CBF808304946404611F05C
:100BDC00BAFF1BF0A1FE002840D02BB0BDE8F08F6F
:100BEC0023681F221968404611F074FD66E705F171
:100BFC00420225AF022392B2394627A812F058FCC4
:100C0C00802223A9384612F0DFFCBDF88C20A4F812
:100C1C006C20BDF88E30A4F86E307F32A4F87020B2
:100C2C003F33A4F87230134B6367134BA367134B1A
:100C3C00E367C4F884400023C4F88830A4F88030FB
:100C4C008C3458E7A5F11006A346B4E75C466AE776
:100C5C00DDF82080DDF82490A346B3E712F056FAB5
:100C6C00BBE700BF48180400A47217A0A87217A015
:100C7C0080040200540402002B0A0000803203009E
:100C8C002DE9F04182B005464FF4D6701BF04AFEB8
:100C9C0004466A46102101201AF07AF908B10023A3
:100CAC0000935CB14FF4D672002120461DF035FF45
:100CBC002560009B2BB920461BF03CFE02B0BDE822
:100CCC00F0816A4601A923481CF002F818B100987B
:100CDC001AF080F9EFE7211D1F481BF050FC20B1E2
:100CEC00009901981CF061F8F1E72046FFF79CFE93
:100CFC0004F16C08194F04F1080605E02046FFF7D3
:100D0C0093FE09E03B68BBB9A36EF3B9EB681BB16A
:100D1C00984710F0010FF1D14FF0FF33009A414684
:100D2C00304612F007F90028ECD0A36E002BE9D165
:100D3C002046FFF779FEE5E706F030FA2046FFF78C
:100D4C0073FE064B00221A60D5E760681BF02EFC80
:100D5C00C6E700BF6804020074040200F87017A014
:100D6C0008B58069FFF78CFF08BD000070B504461C
:100D7C000D460E4B1B6883B100201AF043FC0C4B44
:100D8C001E6808F019F82A46B0FBF4F130461BF047
:100D9C0098FE00201AF008FC70BD054905481BF0B0
:100DAC0079FE024B4FF0FF321A60E5E7FC7017A09A
:100DBC00007117A0AC04020008B51421FA20FFF74B
:100DCC00D5FF08BD08B54FF4FA716420FFF7CEFFCC
:100DDC0008BD83694FF0FF32C3F8E4207047000070
:100DEC0010B582B004460F4B1B68B3B9002111F04B
:100DFC0062F947F6E071204611F05BF90A488388E6
:100E0C0042880188C08801380090013B01320131D1
:100E1C00204611F0BAF802B010BD47F6E07111F09F
:100E2C004AF9E6E70C7117A0107117A008B5034B2F
:100E3C0000221A601BF046FD08BD00BF0C7117A004
:100E4C0000B58FB003A91A481BF099FB194B1B680E
:100E5C00B3F1FF3F28D0174B4FF0FF321A6041F22D
:100E6C008833059342F21073069347F2305307937D
:100E7C004FF47A730493104B0A93104B0B93104B53
:100E8C000C93104B0D934FF4F07300934FF4487385
:100E9C007622DC210C4812F011FC04A903981BF0FB
:100EAC00D5FC0FB05DF804FBFFF7C0FFF9E700BFFE
:100EBC00740402000C7117A0F9360100B53701005B
:100ECC00053901007D390100A02C020010B5044643
:100EDC00FFF7B6FFA069FFF783FF10BD2DE9F04FB8
:100EEC0097B04FF48A701BF01DFD1A4B1860A8B117
:100EFC0004464FF48A7200211DF00FFE4FF0FF33B1
:100F0C00C4F80431144A102101201AF041F840B100
:100F1C00104C20681BF00EFD0023236017B0BDE8B9
:100F2C00F08F0D4A15A90D481BF0D2FE20B10A4BCB
:100F3C0018681AF04FF8EBE7064B1968603108484F
:100F4C001BF01DFB70B1044B196815981BF02DFF9D
:100F5C00EDE700BF087117A0047117A06804020028
:100F6C0074040200D84C236803F5887203F586716B
:100F7C00186E1BF06EFB246812F0ACF808AA002166
:100F8C00206E1BF020FB4FF4F843079300250695C9
:100F9C0047F6E07BCDF814B00223049340F2DF1344
:100FAC00039340F21F33029301950095089B4FF475
:100FBC00F0724FF44871204611F040F8C3492046B6
:100FCC0011F073FB204611F072FBC4F800011F22D4
:100FDC00BF49204611F07EFB5946204611F069F8B6
:100FEC002946204611F067F8ADF82450ADF826508C
:100FFC00E369ADF82830236AADF82A300DF12409E5
:10100C000821484612F028FAD4F8003103F14602C0
:10101C000BAE052392B23146484612F049FA0DAF99
:10102C0096E8030087E80300052380223146384602
:10103C0012F060FA0121304612F00EFABDF82C3095
:10104C00A4F864307F33A4F86830BDF82E30A4F8CF
:10105C0066303F33A4F86A309E4BE3669E4B2367A1
:10106C009E4B6367E467C4F8805097E8030086E8FA
:10107C00030064223946304612F0A6FABDF83A3025
:10108C00BDF836209B1A03EBD3735A100632944EDC
:10109C00052392B23146384612F00AFAB6F80080AF
:1010AC00204611F004FB08F110088044A6F80480D7
:1010BC00B6F80280204611F0FAFA08F110088044C4
:1010CC001FFA88F3F3803288A4F88420B288A4F83D
:1010DC0088207288A4F88620A4F88A30814BC4F842
:1010EC008C30814BC4F89030C4F89450C4F89C40B8
:1010FC00C4F8A050BDF82880BDF82430A8EB030834
:10110C00A8F27928794BA3FB0838C8F34F0843465B
:10111C002A463946484612F0EDF904F1F00A4346E6
:10112C0054225146484612F0E5F904F1F80804221D
:10113C004146504612F048FA1421404612F070F91C
:10114C002B4640F226223946484612F0D3F94FF48A
:10115C00907204F1E801384612F016FA5B49204609
:10116C0011F0A3FA0121204611F00BFB2946204671
:10117C0010F0A4FF5946204610F09BFF9AE803009C
:10118C0089E80300BDF82A300093BDF82830BDF87B
:10119C002620BDF82410204610F0F7FE98E8030036
:1011AC0089E80300BDF82A300093BDF82830BDF85B
:1011BC002620BDF82410204610F0E7FE2046FFF74D
:1011CC000FFE3588204611F072FA738842190833E5
:1011DC0016324749204611F02DFA0127DFF81491F9
:1011EC0040F226283B0289FB0312DE17C6EB2216BF
:1011FC00F60106F4F84600253146204610F059FF5A
:10120C00B4F8EA20B4F8E8103A442944204610F027
:10121C00A7FD01354545EFD10137612FE2D10127FB
:10122C00DFF8D09040F226283B0289FB0312DE1730
:10123C00C6EB2216B60006F4787600253146204619
:10124C0010F037FFB4F8EA203A44B4F8E8106032F2
:10125C002944204610F084FD01354545EED1013777
:10126C00612FE1D10127DFF88C9040F226283B0258
:10127C0089FB0312DE17C6EB2216C6F3C406002543
:10128C003146204610F015FFB4F8EA203A44B4F881
:10129C00E810C0322944204610F062FD0135454566
:1012AC00EED10137612FE2D147F6E071204610F004
:1012BC0000FF04F16401204611F045FC11F01EFF03
:1012CC00014E0D4F0FAD30E0087117A04818040007
:1012DC00B404020054040200DF0D0000803203004D
:1012EC00107117A0E0220200D90E0000ABAAAAAA26
:1012FC00D0040200ABAAAA2A047117A00021C2F8DC
:10130C000C11106E1BF097F9604B1B684FF0FF32FD
:10131C00C3F8042130682A4600F1640111F064FC22
:10132C003468D4F80431002B3CD13368D3F8E42072
:10133C00002A40F0A6804FF4FA722946386819F05A
:10134C00DEFE0028ECD1109B1493119B139313AA6F
:10135C0014A9306810F0B4FE129B012BDAD132685C
:10136C00139BB2F8F2109942D4DCB2F8F6108B420F
:10137C00D0DC1499B2F8F0008842CBDCB2F8F4005F
:10138C008142C7DCB2F8FE008342B7DCC11AD2F846
:10139C00103103FB01F1431CB2F8FA001B1AB1FB2C
:1013AC00F3F1ACE70121204611F0EBF9B4F8F88029
:1013BC00B4F8FAB0B4F8FC90B4F8FEA004F5887256
:1013CC0004F58671206E1BF044F9AAEB0B02D4F8DD
:1013DC000C3102FB0333D4F81021B3FBF2F5AAEB6A
:1013EC000505D4F808319D422CD08BBB0121204639
:1013FC0010F064FE47F6E071204610F05AFECDF86E
:10140C0000A04B465A464146204610F0BEFDC4F89B
:10141C0008510021204610F051FE47F6E07120469D
:10142C0010F047FE0021204610F045FED4F80821AC
:10143C00531D009309F10F03053AA8F10F01204643
:10144C0010F0A3FD114B1B680022C3F8042139E7EF
:10145C000021204610F032FE0021204610F029FE1B
:10146C000021204610F027FED4F80821531D0093CC
:10147C0009F10F03053AA8F10F01204610F085FD84
:10148C00B4E7186E1BF092F85DE500BF087117A069
:10149C00F0B583B006460C4615464FF4F84301935D
:1014AC0002F10803009301F10803083A083911F01E
:1014BC005BFE00270197AB1D0093A31DAA1FA11F64
:1014CC00304611F051FE47F6FF7301932B1D00932C
:1014DC00231D2A1F211F304611F046FE0197AB1C1D
:1014EC000093A31CAA1EA11E304611F03DFE03B0B2
:1014FC00F0BD000030B5A3B021A941481BF03FF866
:10150C0008B123B030BD21981BF07BF84FF48071EB
:10151C0021981BF090F811F0DDFD20AA00212198F4
:10152C001BF051F808AC4FF4F843079300230693D3
:10153C0047F6E07205920222049240F2DF12039207
:10154C0040F21F32029201930093209B4FF4F072F1
:10155C004FF44871204610F071FD2A49204611F0D5
:10156C00A4F81F222849204611F0B4F8204611F0A7
:10157C009EF884B2254B1B78012B24D008AD234652
:10158C004FF448722249284611F060F863004FF47A
:10159C0048722049284611F059F8C4F178039B0091
:1015AC004FF448721C49284611F050F8A4EB8404FF
:1015BC0004F5F0734FF448721849284611F046F8B8
:1015CC0011F09CFD9DE708AD23464FF44872144979
:1015DC00284611F03BF8C4F178039B004FF4487295
:1015EC000D49284611F032F8A4EB840404F5F0738D
:1015FC004FF448720949284611F028F8E0E700BF7B
:10160C007404020048180400E40402001C7117A0C2
:10161C00640502008805020024050200480502004A
:10162C00FC0402002DE9F04F97B004908B46002388
:10163C004FF0FF37DFF874A2099715469C4A1370D8
:10164C0058461BF0FDFA1DB99A4B1B68032B09D0A9
:10165C00FFF750FF984F974B0393002308930DF11E
:10166C00480974E0944E954C3246214658461BF07E
:10167C0001FB06F1100204F1100158461BF0FAFAB6
:10168C0006F1200204F1200158461BF0F3FA5846EB
:10169C001BF0E3FA0446854B1B680995D2E0002346
:1016AC00139314930136204619F0AEFB032E40F22F
:1016BC00E380AD0813954FEA98031493079A4946B3
:1016CC0058461BF0D7FA039B1C1D99E80F0084E8C1
:1016DC000F00089D6C1C774B1C60FFF76DFBBDF871
:1016EC001410BDF818200023019302F10803009395
:1016FC0001F10803083A0839049811F035FD25B1B9
:10170C00DAF80030E3B9322510E0FFF7F3FEDAF82F
:10171C000030002BF7D01037039B1033039315E0E8
:10172C00284619F071FBDAF800304BB94946584697
:10173C001BF01EFA0028F3D1129B13F0010FEFD10E
:10174C00032C75D01037039B103303930894079721
:10175C007B680593BA68069292B299B20498FFF727
:10176C0097FE00250295A8462E46322484E0DFF829
:10177C0050910DF1280812AD32260394059717E00D
:10178C00304619F041FB294658461BF0F1F9002868
:10179C00F6D1129B13F0010FF2D14FF4967019F0A1
:1017AC0033FB09F1100908F1100812AB984526D04B
:1017BC00D9F804300293D9F80870BAB299B20498E7
:1017CC00FFF766FE4446214658461BF0D1F9002827
:1017DC00F9D1236813F0010FF5D0FFF7EDFABDF83E
:1017EC000810BAB20023019302F10803009301F12F
:1017FC000803083A0839049811F0B6FCC3E7039CB7
:10180C00059F0B9AA2F2D622302A1BD80C9AA2F56D
:10181C00CB72302A16D80F9AA2F5BC72302A11D886
:10182C00109AD83A099B302A98BF3B46099309E095
:10183C0058461BF012FA0446DAF80070002F96D0C6
:10184C0000230993DAF800306BB94FF0FF35012310
:10185C00002C7FF4F3AE099A002A7FF4EFAE154BFF
:10186C009A6402F009FD17B0BDE8F08F4FF0FF331A
:10187C000293204619F0C8FA494658461BF078F9ED
:10188C000028F6D1DAF80030B3F1FF3F3FF407AF90
:10189C00129B13F0010FE9D0029B002BE9D0139B94
:1018AC001D44149B98440136FDE600BFF87017A048
:1018BC001C7117A0B47117A06C290200B87117A085
:1018CC004C29020010B584B00446184A102101209E
:1018DC0019F05EFB10B1002004B010BD134A03A92F
:1018EC0013481BF0F5F920B1104B186819F072FB76
:1018FC00F1E702A90F481AF042FE28B10B4B196808
:10190C0003981BF052FAEFE701AA002102981AF093
:10191C005AFE094B9B6C002B0CBF22464FF0FF323A
:10192C0003990198FFF77EFEE8E700BF187117A036
:10193C006804020074040200B47117A070B586B07C
:10194C00002205A912481BF0C3F9E8B9052401AD22
:10195C003226294605981BF00BF9019B13F0010F59
:10196C0010D0304619F050FA013CF2D14FF0FF3450
:10197C00002105981BF019FA0A2019F045FA2046A7
:10198C0006B070BD0024F3E74FF0FF34F7E700BF5B
:10199C006804020008B54FF0FF30FFF793FF08BD55
:1019AC00014B01221A607047287117A010B582B044
:1019BC000A4C0B4B1988204610F07DFB47F6E07162
:1019CC00204610F076FB51230093A12312222221F2
:1019DC00204610F0DAFA02B010BD00BF2C7117A02F
:1019EC000000001008B5084B1B780133DBB2062B46
:1019FC0028BF0023044A1370044A32F81320044B06
:101A0C001A80FFF7D3FF08BD247117A0BC29020070
:101A1C00000000102DE9F04F89B005466E481AF011
:101A2C0081FF03906D4C0121204610F047FB47F6D7
:101A3C00E071204610F03DFBEB880093AB886A8880
:101A4C002988204610F0A1FA07AA0321644819F04E
:101A5C0097FF002850D1DDF80CA04FF013090DF1C1
:101A6C00140806AF5D4ED346CA46A9465D46CF2440
:101A7C000694CDF814A042463946304610F02BFBA4
:101A8C00012300932B46059A0699304610F024FC4E
:101A9C000235013440F25F239C42E9D10BF5487BBF
:101AAC000AF1010A40F2A3139A45DFD14D4604AB6B
:101ABC00494A0399079819F0E0FF18B1464B049A6C
:101ACC009A4251D1079819F095FF444C01212046B8
:101ADC0010F0F4FA0021204610F0EBFAEB8800939A
:101AEC00AB886A882988204610F04FFA03981AF0C0
:101AFC0021FF09B0BDE8F08F074607AA032139483A
:101B0C0019F03EFF04460028A5D0374B1968374A18
:101B1C0001F53B2000F5006011F076FDFFF752F95E
:101B2C002E4E0021304610F0C9FA0021304610F03C
:101B3C00C2FA47F6E071304610F0BBFA222300934C
:101B4C0040F25F231222CE21304610F01EFA092FEC
:101B5C000DD00D2F27D10D2C1ED01423D0222449AB
:101B6C001E4810F067FD24E0FFF72CF9AAE70D2CB6
:101B7C000BD0092C4FF014034FF0D0020CBF1D49B1
:101B8C001D49164810F056FD13E01423D0221B49B2
:101B9C00304610F04FFD0CE01423D02218490F48AA
:101BAC0010F048FD05E01423D02216490B4810F024
:101BBC0041FD0121094810F081FA4FF4FA6019F047
:101BCC0023F9094B1868094A00F53B2101F500611E
:101BDC0011F01AFD79E700BF00E204002C7117A088
:101BEC00AC050200B80502000400001000B80B00A0
:101BFC0050060200E805020010060200C4050200AF
:101C0C00300602006C0602002DE9F04F8BB0054641
:101C1C0090481AF087FE03908F4C0121204610F05B
:101C2C004DFA47F6E071204610F043FAEB8800932A
:101C3C00AB886A882988204610F0A7F909AA0121E7
:101C4C00864819F09DFE814640B109AA01218448BD
:101C5C0019F096FE0446002840F0A18006AB7D4AA0
:101C6C000399099819F0F2FE0446099819F0C2FE7E
:101C7C005CB1784B069A9A4204D1DDF80CA04FF077
:101C8C00130B06E0FFF79EF832E0DDF80CA04FF0E6
:101C9C00130B0DF11C0808AF6F4ECDF81090059486
:101CAC00D146DA46AB46A9F10205CF240894CDF80B
:101CBC001CA042463946304610F00DFA35F8023F6A
:101CCC00079A0899304610F011FA013440F25F235C
:101CDC009C42EBD109F548790AF1010A40F2A313B1
:101CEC009A45E0D1DDF81090059C5D46002C3FD064
:101CFC005C4B19685C4A01F53B2000F5006011F063
:101D0C0083FCFFF75FF8544C0021204610F0D6F905
:101D1C000021204610F0CFF947F6E071204610F074
:101D2C00C8F92223009340F25F231222CE212046D1
:101D3C0010F02BF9B9F1090F76D0B9F10D0F00F0B5
:101D4C0081801423D0224949434810F073FC0121AF
:101D5C00414810F0B3F94FF4FA6019F055F8414BC3
:101D6C001868414A00F53B2101F5006111F04CFC6B
:101D7C00394C0121204610F0A1F90021204610F029
:101D8C0098F9EB880093AB886A882988204610F074
:101D9C00FCF803981AF0CEFD0BB0BDE8F08F314B78
:101DAC001968314A01F53B2000F5006011F02CFC5C
:101DBC00FFF708F8284E0021304610F07FF900217B
:101DCC00304610F078F947F6E071304610F071F9B2
:101DDC002223009340F25F231222CE21304610F0D2
:101DEC00D4F8B9F1090F0DD0B9F10D0FA9D10D2C03
:101DFC0021D0092C26D11423D0221D49164810F0CD
:101E0C0019FCA4E70D2C08D0092C0DD11423D022D9
:101E1C001849114810F00EFC99E71423D0221649EA
:101E2C00304610F007FC92E71423D02212490A48DE
:101E3C0010F000FC8BE71423D0221049064810F058
:101E4C00F9FB84E71423D0220C49034810F0F2FB71
:101E5C007DE700BF00E204002C7117A0AC05020066
:101E6C00B80502000400001000B80B0014070200B3
:101E7C00F0060200A00602007C060200D00602005A
:101E8C00A0F1CF0CBCF5C87F1AD2A1F1130CBCF594
:101E9C00C87F15D2A2F1CF0CBCF5C87F10D2A3F12C
:101EAC00130CBCF5C87F0BD200B583B0009313465E
:101EBC000A46014603480FF065FF03B05DF804FBCA
:101ECC00704700BF2C7117A008B5A0F1CF03B3F574
:101EDC00C87F09D2A1F11303B3F5C87F04D20A4617
:101EEC00014602480FF03CFF08BD00BF2C7117A043
:101EFC0070B58AB009AA00211AF065FB11F0EAF856
:101F0C001E4C4FF4F84307930025069547F6E076F0
:101F1C0005960223049340F2DF13039340F21F3320
:101F2C00029301950095099B4FF4F0724FF44871A0
:101F3C00204610F083F81249204610F0B6FB1F2201
:101F4C001049204610F0C6FB3146204610F0B1F87F
:101F5C000D49204610F0F7FD2946204610F0ABF84D
:101F6C0040F2A313009340F25F231222CE212046AD
:101F7C0010F00BF811F0C2F80AB070BD2C7117A05C
:101F8C004818040020070200C82902002DE9F04F70
:101F9C0091B0864B00221A60854A1021012018F05E
:101FAC00F7FF10B111B0BDE8F08F814A0EA981483E
:101FBC001AF08EFE20B17E4B186819F00BF8F1E781
:101FCC000FA97D481AF0DBFA28B1794B19680E98E5
:101FDC001AF0EBFEEFE70BAA00210F981AF0F3FAB8
:101FEC000F98FFF785FFFFF7E1FC4FF0FF31302032
:101FFC0004F090FD0026B246B1466C4C6C4D0DF1D0
:10200C001C082768002F40F0CD804FF0FF3241466E
:10201C00286819F074F80028F3D1089B0D93099BDC
:10202C000C930CAA0DA9654810F04AF80D9BCF3BF8
:10203C00B3F5C87F80F0AC800C9B133BB3F5C87F25
:10204C0080F0A6800A9B012B01D0B946D7E71AF085
:10205C005BFC5B4B1988002940F08580574810F0D9
:10206C0028F8B9F1000F50D0DDF834900C9F0AF12C
:10207C00FF308046711E09F1FF3B7B1E02935A46CE
:10208C000591FFF7FDFE3B465A463146CDF81080D0
:10209C004046FFF7F5FE721C114607F10108434656
:1020AC005A4603910498FFF7EBFE029B4A46DDF873
:1020BC0014B059465046FFF7E3FE3B464A463146BC
:1020CC005046FFF7DDFE43464A4603995046FFF75C
:1020DC00D7FE0AF1010A09F10109029B4A46594649
:1020EC005046FFF7CDFE3B464A4631465046FFF779
:1020FC00C7FE43464A4603995046FFF7C1FEDDF83A
:10210C0034A00C9E4FF0FF3979E70D9E0C9F06F121
:10211C00FF3A07F1FF3949465046FFF7D5FE3946DD
:10212C005046FFF7D1FE07F1010841465046FFF734
:10213C00CBFE49463046FFF7C7FE39463046FFF71F
:10214C00C3FE41463046FFF7BFFE013649463046D6
:10215C00FFF7BAFE39463046FFF7B6FE4146304629
:10216C00FFF7B2FECBE715480FF0A3FFB9F1000F54
:10217C0008D00C9B00930D9B324651460F480FF034
:10218C0001FEBCE70C9A0D990C480FF0E9FDB6E77F
:10219C0007AA0C49094810F027FD0A9B002B08BF21
:1021AC00B9462CE70F981AF001FA0EE7287117A020
:1021BC00207117A068040200740402002C7117A08F
:1021CC0000000010C829020038B505460C46B2F5CF
:1021DC00004F20D0102A33D0002A30D1486E18F08E
:1021EC00EBFFB0F57A7F2AD318F0D8FF606604F1C4
:1021FC0068020121714819F0C3FB102800F2C1805C
:10220C00DFE800F022BFBFBF6CBFBFBFBF8F3DBFB9
:10221C00BF80BFBF9E008368694A00212046984753
:10222C00AB68684A012120469847AB68664A022190
:10223C002046984718F0B2FF60660023E36638BD6D
:10224C00436908469847FAE7AB68604A0221204682
:10225C009847A06E19F0CEFB0023022219462046A7
:10226C00D5F80CC0E0472B69022120469847584B03
:10227C001A889B78A4F8022184F80431DFE7AB6854
:10228C00544A022120469847534B07CBC4F802010D
:10229C00C4F80611C4F80A211A889B78A4F80E21F8
:1022AC0084F81031E36E0133E3660E2BC7D9AB68AB
:1022BC004A4A022120469847002303221946204609
:1022CC00D5F80CC0E0472B69032120469847444BB6
:1022DC0003CBC4F80201C4F80611B0E7AB68414A5D
:1022EC00022120469847404B07CBC4F80201C4F8A2
:1022FC000611C4F80A211A889B78A4F80E2184F8D8
:10230C001031CFE7AB68394A022120469847384B49
:10231C0003CBC4F80201C4F806111B88A4F80A31D7
:10232C00C0E7AB68334A022120469847324B03CBB7
:10233C00C4F80201C4F806111B88A4F80A31B1E7ED
:10234C00AB682E4A022120469847DFF8B4C0BCE89F
:10235C000F00C4F80201C4F80611C4F80A21C4F82D
:10236C000E319CF8003084F81231002303221946F8
:10237C002046D5F80CC0E0472B690321204698472E
:10238C0090E7AB681D4A0221204698471D4B07CBAE
:10239C00C4F80201C4F80611C4F80A211B88A4F879
:1023AC000E310023032219462046D5F80CC0E04715
:1023BC002B6903212046984774E700BFB40702003D
:1023CC005407020070070200A4070200C8070200AD
:1023DC00341B0200E007020000080200CC080200D7
:1023EC00E408020010080200300802004008020055
:1023FC005C080200680802008408020090080200D1
:10240C00A8080200BC080200B2F5004F00D07047CB
:10241C0038B505460C46002184F86C108368264AB2
:10242C002046984704F16401244819F0FDF9C8B11D
:10243C00AB68234A00212046984700230322194603
:10244C002046D5F80CC0E0472B690321204698475D
:10245C001C4B03CBC4F80201C4F806111B88A4F86A
:10246C000A3138BD04F16801606E19F0C9F9002811
:10247C00DED1A06E03685B6940F6C41204F17001F2
:10248C0098470028D4D1AB680F4A002120469847C2
:10249C000023022219462046D5F80CC0E0472B69D0
:1024AC00022120469847094B1A889B78A4F80221F0
:1024BC0084F80431D5E700BFEC0802007804020070
:1024CC0008090200300902003C090200341B02001A
:1024DC00F0B583B005460C46B2F5004F4BD0002A40
:1024EC0067D1886E03681B6901A99847002870D1D1
:1024FC00019A636F9342B8BF6267236F9A42B8BF69
:10250C00226782EAE273A3EBE273C3F3423304F172
:10251C007807C3EB431103EB8106334612145F4972
:10252C0038461CF0FFF9AB683A4600212046984724
:10253C00C82018F069FCE36E0133E366052B38D92B
:10254C00226FB2F5702F57DB626FB2F5201F7CDC67
:10255C00EF680023022219462046B8472B69022156
:10256C00204698473346BDF906204D4904F5817045
:10257C001CF0D8F91DE083684A4A00212046984790
:10258C0004F16401484819F04FF9A0B1EE6800233A
:10259C00032219462046B0472B6903212046984751
:1025AC00424B03CBC4F80201C4F806111B88A4F8F3
:1025BC000A3103B0F0BD04F16801606E19F020F926
:1025CC000028E3D14FF4C813236763670023E36645
:1025DC00EFE7EE680023032219462046B0472B692B
:1025EC00032120469847324B07CBC4F80201C4F8AC
:1025FC000611C4F80A21DCE7019282EAE273A3EB2C
:10260C00E273C3F34233C3EB431103EB810633464E
:10261C001214284938461CF085F9AB683A4600215B
:10262C0020469847EF680023032219462046B847F6
:10263C002B690321204698473346BDF906201E49D5
:10264C0004F581701CF06EF9B3E7019282EAE27333
:10265C00A3EBE273C3F34233C3EB431103EB8106E9
:10266C0033461214154938461CF05CF9AB683A46EF
:10267C00002120469847EF68002303221946204684
:10268C00B8472B690321204698473346BDF90620ED
:10269C000B4904F581701CF045F98AE7900902009A
:1026AC00300A0200600902007C0902008408020062
:1026BC0084090200B4090200E0090200F4090200D6
:1026CC00200A02002DE9F0418AB005460C46164658
:1026DC006946704819F0A8F860B1EE68002303222F
:1026EC0019462046B0472B690321204698470AB06B
:1026FC00BDE8F08101A9009819F082F8002834D1C6
:10270C00B6F5004F3CD0002EF1D102AE20273A4650
:10271C00002130461CF001FA01980368D3F81480AC
:10272C003B4632464121C047002800F08B80EE68C2
:10273C000023032219462046B0472B69032120466B
:10274C009847554B03CBC4F80201C4F806111A88FC
:10275C009B78A4F80A2184F80C31019803689C69D1
:10276C0020234E4A4121A047C1E7EE6800230322F3
:10277C0019462046B0472B69032120469847B6E7F7
:10278C00AB68474A002120469847019803685E6968
:10279C002023424A4121B047B0B1EE680023032206
:1027AC0019462046B0472B690321204698473A4BDF
:1027BC0003CBC4F80201C4F806111A889B78A4F85C
:1027CC000A2184F80C3192E702AF2022AA21384664
:1027DC001CF0A3F9019803689E6920233A46412115
:1027EC00B04706462022552138461CF096F9AEB16A
:1027FC0001238DF80830EE68002303221946204689
:10280C00B0472B69032120469847264B07CBC4F8C9
:10281C000201C4F80611C4F80A2168E7019803689C
:10282C009E69142302AA4321B04701238DF8083076
:10283C000028E0D1019803689C69012302AA462173
:10284C00A04754E7202202A917481BF0F6FF50B905
:10285C00EE680023022219462046B0472B6902215C
:10286C002046984779E7EE68002303221946204654
:10287C00B0472B690321204698470C4B07CBC4F873
:10288C000201C4F80611C4F80A211B7884F80E3131
:10289C0063E700BF3C0A0200580A02008C7117A0C3
:1028AC00440A0200640A0200682A0200700A02004C
:1028BC0003460120186000BF00BF00BF00BF00BF6F
:1028CC0000BF00BF00BF00BF00BF00BF00BF00BF04
:1028DC0000BF00BF00BF00BF00BF00BF00BF00BFF4
:1028EC0000BF00BF00BF00BF00BF00BF00BF00BFE4
:1028FC0000BF00BF00BF00BF00BF00BF00BF00BFD4
:10290C0000BF00BF00BF00BF00BF00BF00BF00BFC3
:10291C0000BF00BF00BF00BF00BF00BF00BF00BFB3
:10292C0000BF00BF00BF00BF00BF00BF00BF00BFA3
:10293C0000BF00BF00BF00BF00BF00BF00BF00BF93
:10294C0000BF00BF00BF00BF00BF00BF00BF00BF83
:10295C0000BF00BF00BF00BF00BF00BF00BF00BF73
:10296C0000BF00BF00BF00BF00BF00BF00BF00BF63
:10297C0000BF00BF00BF00BF00BF00BF00BF00BF53
:10298C0000BF00BF00BF00BF00BF00BF00BF00BF43
:10299C0000BF00BF00BF00BF00BF00BF00BF00BF33
:1029AC0000BF00BF00BF00BF00BF00BF00BF00BF23
:1029BC0000BF00BF00BF00BF00BF00BF00BF00BF13
:1029CC0000BF00BF00BF00BF00BF00BF00BF00BF03
:1029DC0000BF00BF00BF00BF00BF00BF00BF00BFF3
:1029EC0000BF00BF00BF00BF00BF00BF00BF00BFE3
:1029FC0000BF00BF00BF00BF00BF00BF00BF00BFD3
:102A0C0000BF00BF00BF00BF00BF00BF00BF00BFC2
:102A1C0000BF00BF00BF00BF00BF00BF00BF00BFB2
:102A2C0000BF00BF00BF00BF00BF00BF00BF00BFA2
:102A3C0000BF00BF00BF1A68824202D140007FF481
:102A4C0039AF7047F0B502468908013911F0010E13
:102A5C003CD073464FF0AA3042F823005B00194279
:102A6C00FAD14FF055331360734602EB830052F8E2
:102A7C002340B4F1AA3F14D15B001942F5D14FF0B9
:102A8C00AA331360F4464FF055361F4610E05B0036
:102A9C00194207D052F82340B4F1AA3FF7D063454E
:102AAC00F5D0F0BD57514FEA4C0C11EA0C0F0BD07E
:102ABC004FEA8C0502EB8C0042F82C601368B3F1E2
:102ACC00AA3FEED17346E5E70020EAE74FF0553315
:102ADC0003604FF0AA3303600020E2E7032928D9F2
:102AEC0010B502464FEA910C8646012340F8043B90
:102AFC009C4503F10103F9D8012300E00B46104675
:102B0C001168994214D1D94342F8041B591C9C45B5
:102B1C00F4D800236FF001047046DEF80010E21ABE
:102B2C00914205D101330EF1040E9C45F4D80020DE
:102B3C0010BD002070470000B2F5004F00D0704768
:102B4C0070B505460C4683682A4A002120469847F2
:102B5C0016F006FA4FF02040FFF7AAFE064616F0D4
:102B6C000FFAB6B1AB68244A0121204698470023DE
:102B7C00032219462046D5F80CC0E0472B690321E7
:102B8C002046984732461D4904F581701BF0CAFE59
:102B9C0070BD16F0E5F94FF080714FF02040FFF753
:102BAC0051FF064616F0ECF9002EDBD116F0D8F9E1
:102BBC004FF080714FF02040FFF790FF064616F063
:102BCC00DFF9002ECED1AB680D4A01212046984783
:102BDC00EE680023022219462046B0472B690221D9
:102BEC00204698474FF08072064904F581701BF01F
:102BFC0099FECDE7800A0200AC0A0200C40A02006A
:102C0C00940A0200A40A0200F0B5C3B006460C46B2
:102C1C0015468368534A012120469847524B03CBF3
:102C2C00C4F80201C4F806111B88A4F80A3141AAA1
:102C3C001021284618F0DCFF002874D104F58177A8
:102C4C00419B512B03D040F2E93043B0F0BD41AA77
:102C5C001121284618F0CCFF002867D1419B522B3C
:102C6C0002D040F2E930F0E741AA1221284618F0D0
:102C7C00BFFF00285DD1419B592B02D040F2E930B7
:102C8C00E3E73A4B07CBC4F802017960BA60B3684A
:102C9C00374A0121204698474FF480224FF4E00137
:102CAC00284618F095FF002846D1802301AA4FF43E
:102CBC00E001284618F068FF002840D101AB21A99B
:102CCC0013F8012BFF2A3DD18B42F9D1294B07CBAD
:102CDC00C4F802017960BA60B368274A0121204622
:102CEC0098470623254A2649284618F05FFF60BB03
:102CFC000623244A2449284618F058FF40BB802359
:102D0C0001AA1F49284618F03FFF20BB0C221F497F
:102D1C0001A81BF092FD08BB1D4B1A889B78A4F8E8
:102D2C000221BB7091E740F2E9308EE740F2E930C6
:102D3C008BE740F2E93088E740F2EA3085E740F271
:102D4C00EA3082E740F2EB307FE74FF47B707CE7B0
:102D5C004FF47B7079E74FF47B7076E74FF47B7020
:102D6C0073E700BFCC0A020084080200DC0A0200F0
:102D7C00E80A0200F80A0200040B0200140B02001D
:102D8C00FCFF71001C0B020002007200240B0200FD
:102D9C00341B0200F0B591B00C4600230193ADF842
:102DAC000830B2F5004F01D011B0F0BD0546836874
:102DBC001E4A0021204698470FA91D4818F0C0FE56
:102DCC00C8B903A90F9818F023FF039B0F9A21464B
:102DDC002846FFF719FF06460F9818F0C8FE66B98B
:102DEC00EE680023022219462046B0472B690221C7
:102DFC0020469847D8E74FF47A7604F16407C6F377
:102E0C000E020C4938461BF08DFDAB683A46022188
:102E1C0020469847EE680023032219462046B04707
:102E2C002B69032120469847BEE700BF340B0200F4
:102E3C00540B02005C0B020030B583B005460C4607
:102E4C00B2F5004F1ED0102A37D0002A33D1486E6D
:102E5C0018F0B2F9B0F57A7F2DD318F09FF96066AF
:102E6C0004F168020121654818F08AFD0D2800F272
:102E7C008E80DFE800F0268C8C8C5A8C8C8C8C7DB0
:102E8C00418C8C6E83685E4A002120469847AB6863
:102E9C005C4A012120469847AB685B4A02212046D8
:102EAC00984701A9594818F067FA0023E36623678D
:102EBC0018F074F9606603B030BD43690846984752
:102ECC00F9E7AB68524A022120469847A06E18F0E9
:102EDC0091FD0023022219462046D5F80CC0E0478C
:102EEC002B690221204698474A4B1A889B78A4F8F4
:102EFC00022184F80431DEE7AB68474A0221204600
:102F0C009847464B07CBC4F80201C4F80611C4F825
:102F1C000A211A889B78A4F80E2184F81031236FAB
:102F2C005A1C042B47D02267C5E7AB683C4A0221E8
:102F3C00204698473B4B07CBC4F80201C4F8061156
:102F4C00C4F80A211A889B78A4F80E2184F8103151
:102F5C00E5E7AB68344A022120469847334B03CB54
:102F6C00C4F80201C4F806111B88A4F80A31D6E78C
:102F7C00AB682F4A0221204698472E4B03CBC4F84E
:102F8C000201C4F806111B88A4F80A31C7E7AB6824
:102F9C001D4A022120469847274B07CBC4F8020153
:102FAC00C4F80611C4F80A211A889B78A4F80E21DB
:102FBC0084F81031B3E700232367E36E0133E36633
:102FCC00062B16D1AB681D4A0221204698470023D8
:102FDC00032219462046D5F80CC0E0472B69032183
:102FEC0020469847164B03CBC4F80201C4F80611CF
:102FFC0061E701A9054818F0BFF95CE7CC0B0200AA
:10300C00700B0200900B0200A4070200BC0B020024
:10301C00C8070200341B0200E0070200000802008F
:10302C001008020030080200400802005C08020090
:10303C006808020084080200DC0B0200CC080200C5
:10304C00E408020030B583B005460C46B2F5004FDB
:10305C001ED0102A37D0002A33D1486E18F0ACF8A5
:10306C00B0F57A7F2DD318F099F8606604F16802F8
:10307C000121654818F084FC0D2800F28E80DFE8F1
:10308C0000F0268C8C8C5A8C8C8C8C7D418C8C6EAC
:10309C0083685E4A002120469847AB685C4A012150
:1030AC0020469847AB685B4A02212046984701A905
:1030BC00594818F061F90023E366236718F06EF89D
:1030CC00606603B030BD436908469847F9E7AB68C2
:1030DC00524A022120469847A06E18F08BFC002320
:1030EC00022219462046D5F80CC0E0472B69022174
:1030FC00204698474A4B1A889B78A4F8022184F8FA
:10310C000431DEE7AB68474A022120469847464B1C
:10311C0007CBC4F80201C4F80611C4F80A211A88B6
:10312C009B78A4F80E2184F81031236F5A1C042BC1
:10313C0047D02267C5E7AB683C4A02212046984736
:10314C003B4B07CBC4F80201C4F80611C4F80A21A2
:10315C001A889B78A4F80E2184F81031E5E7AB6847
:10316C00344A022120469847334B03CBC4F8020162
:10317C00C4F806111B88A4F80A31D6E7AB682F4AAD
:10318C000221204698472E4B03CBC4F80201C4F809
:10319C0006111B88A4F80A31C7E7AB681D4A022147
:1031AC0020469847274B07CBC4F80201C4F80611F8
:1031BC00C4F80A211A889B78A4F80E2184F81031DF
:1031CC00B3E700232367E36E0133E366062B16D1C6
:1031DC00AB681D4A0221204698470023032219465A
:1031EC002046D5F80CC0E0472B69032120469847B0
:1031FC00164B03CBC4F80201C4F8061161E701A910
:10320C00054818F0B9F85CE7CC0B0200EC0B020097
:10321C00900B0200A40702000C0C0200C80702006D
:10322C00341B0200E0070200000802001008020034
:10323C0030080200400802005C0802006808020026
:10324C0084080200DC0B0200CC080200E408020037
:10325C00B2F5004F00D070472DE9F04F8BB0064609
:10326C000C468368744A00212046984703A973488A
:10327C0019F085F909A9724818F0A4F800B3B368DD
:10328C00704A002120469847F5680023032219460E
:10329C002046A84733690321204698476A4B03CB45
:1032AC00C4F80201C4F806111B88A4F80A31099865
:1032BC0018F095F8039819F079F90BB0BDE8F08F78
:1032CC00002305930A238DF8183001238DF819304B
:1032DC0004AB089305A9099818F089F8D8B1B3681C
:1032EC005A4A002120469847F568002303221946C4
:1032FC002046A8473369032120469847544B03CBFB
:10330C00C4F80201C4F806111A889B78A4F80A21A3
:10331C0084F80C31CBE7049B642202FB03F74D4B82
:10332C00A3FB07373F0A04EB020B00233A464A493A
:10333C0058461BF0F7FAB3685A46002120469847C6
:10334C0004F5817800233A46444940461BF0EAFADA
:10335C00A7F15003282B0FD9F56800230322194637
:10336C002046A84733690321204698473A463C49F2
:10337C0040461BF0D7FA9AE7039819F04FF9002151
:10338C00039819F058F9642017F03EFD05A9099827
:10339C0018F02DF8049B642202FB03F31A460193E8
:1033AC002C4BA3FB02394FEA1929039819F029F980
:1033BC0000254FF00A0A2946039819F03CF95046AB
:1033CC0017F022FD0235B5F5807FF4D14B463A4615
:1033DC00214958461BF0A6FAB3685A4600212046EC
:1033EC0098474B463A461D4940461BF09BFA019BB9
:1033FC00B3F5994F0FD3F5680023032219462046E5
:10340C00A84733690321204698474A461549404648
:10341C001BF088FA4BE7F568002302221946204678
:10342C00A84733690221204698474B463A460B4938
:10343C0040461BF077FA3AE71C0C020074040200B9
:10344C00340C02003C0C020084080200600C0200E8
:10345C00840C0200ABAAAAAA900C0200BC0C0200BD
:10346C00C80C0200D80C0200B2F5004F00D0704717
:10347C00F0B587B005460C468368404A00212046CB
:10348C00984705A93E4817F09DFFE0B1AB683D4A4F
:10349C000021204698470023032219462046EE6857
:1034AC00B0472B69032120469847374B03CBC4F810
:1034BC000201C4F806111B88A4F80A31059817F00C
:1034CC008EFF07B0F0BD022301930A238DF808305C
:1034DC0001238DF80930CDF810D001A9059817F00B
:1034EC0086FFD8B1AB68294A002120469847EE6880
:1034FC000023032219462046B0472B69032120469E
:10350C009847234B03CBC4F80201C4F806111A8860
:10351C009B78A4F80A2184F80C31CFE7009B642235
:10352C0002FB03F31B4EA6FB03269B1B06EB530669
:10353C00760A04F164073246174938461BF0F2F953
:10354C00AB683A46002120469847503E282E0AD9AF
:10355C00EE680023032219462046B0472B6903214D
:10356C0020469847AAE7EE68002302221946204617
:10357C00B0472B690221204698479FE7E80C0200D0
:10358C00340C0200FC0C0200840802001C0D02002A
:10359C00840C020025154052400D020000B583B08A
:1035AC0000230193072809D8DFE800F0040C11165A
:1035BC001B20252A01A9154817F0DEFE019803B03F
:1035CC005DF804FB01A9124817F0D6FEF6E701A935
:1035DC00104817F0D1FEF1E701A90F4817F0CCFE07
:1035EC00ECE701A90D4817F0C7FEE7E701A90C4865
:1035FC0017F0C2FEE2E701A90A4817F0BDFEDDE7AD
:10360C0001A9094817F0B8FED8E700BF580D020011
:10361C00600D0200680D0200700D0200780D0200B2
:10362C00800D0200880D0200900D020082B02DE981
:10363C00F04F8FB080468B46144619931C9D8368BF
:10364C009B4A0121584698479A4B03CBCBF8020171
:10365C00CBF806111B88ABF80A310DAA10212046B5
:10366C0018F0C6FA002840F011810BF5817A0D9BF9
:10367C00512B06D040F2E9300FB0BDE8F04F02B04C
:10368C0070470DAA1121204618F0B2FA002840F01C
:10369C0000810D9B522B02D040F2E930ECE70DAAD1
:1036AC001221204618F0A4FA002840F0F5800D9B5A
:1036BC00592B40F0F48000260596B146CDF810A0A9
:1036CC0009950896C246D846069408F1640B059AEB
:1036DC00794958461BF026F9DAF808305A46012188
:1036EC004046984700230393039A744958461BF0AD
:1036FC0019F9DAF808305A46012140469847099BD7
:10370C00002B00F0AC80059BC3EB0323079319AB94
:10371C000B9300273D460A970A9A694958461BF0B5
:10372C0001F9DAF808305A460121404698470B9BBC
:10373C001E465C69089B9C4206D13369002B00F045
:10374C008280FB1808933DE0DFF8789123464A46C7
:10375C005D4958461BF0E6F8DAF808305A46032162
:10376C0040469847E9E73B460022584958461BF02B
:10377C00D9F8DAF808305A460121404698472A46CB
:10378C00534904981BF0CEF83CB109F1FF33621E8B
:10379C004A4403F8016F9342FBD122462946069E08
:1037AC00304618F015FA00287CD123464A462946A3
:1037BC00304618F0FBF9002877D101372544089BD7
:1037CC009F423FD0079B83EA0706039B002BCAD07E
:1037DC003B4601223F4958461BF0A4F8DAF8083062
:1037EC005A460121404698472A463B4904981BF00B
:1037FC0099F823464A462946069818F0C5F9002C34
:10380C00DBD009F1FF324B46601E4844944612F857
:10381C00011FB14202D19042F8D1CEE7D946C3F193
:10382C0001030191009663443A462C4948461BF02B
:10383C0079F8DAF808304A4602214046984740F2B7
:10384C00014019E71F460A9B01330A930B9A083271
:10385C000B92099A9A4201D008945DE70894039B55
:10386C0001330393022B7FF43FAF059B0133059388
:10387C00022B7FF42AAFDDF810A0194B1A889B7825
:10388C00A8F802218AF802300020F5E640F2E9306F
:10389C00F2E640F2E930EFE640F2E930ECE640F2D5
:1038AC00E930E9E642F24870E6E642F24970E3E6B6
:1038BC00CC0A020084080200980D0200A40D02003C
:1038CC00B40D0200000040A0C00D0200E00D02008B
:1038DC000C0E0200200E02004C0E0200600E0200C4
:1038EC00341B0200B2F5004F00D07047F0B59BB00E
:1038FC0005460C468368264A00212046984719A99C
:10390C00244818F01DF940BB0DA9199818F080F93E
:10391C00EC460DF1380EBEE80F00ACE80F00BEE827
:10392C000F00ACE80F009EE807008CE807000D9B29
:10393C00199A21462846FFF779FE0646199818F081
:10394C0016F966B9EE680023022219462046B047E4
:10395C002B6902212046984718E04FF47A7604F13F
:10396C006407C6F30E020C4938461AF0DBFFAB684D
:10397C003A46022120469847EE6800230322194656
:10398C002046B0472B690321204698471BB0F0BD59
:10399C009C0E0200540B02005C0B0200034B1B68D4
:1039AC004FF0FF32C3F8D42B704700BFB07117A093
:1039BC0070B58AB004460FF08DFB09AA0021204691
:1039CC0018F001FE184C4FF4F843079300230693AC
:1039DC0047F6E07605960222049240F2DF1203923B
:1039EC0040F21F32029201930093099B4FF4F07244
:1039FC004FF4487120680EF021FB0C4D29462068CD
:103A0C000EF053FE1F220A4920680EF063FE314669
:103A1C0020680EF04EFB294620680EF046FE0FF093
:103A2C006DFB0AB070BD00BFB07117A04818040040
:103A3C00C00E02002DE9F04788B0734F386800F6CD
:103A4C0064240023ADF81830ADF81A30C369ADF812
:103A5C001C30036AADF81E306C490EF026FE386837
:103A6C000EF025FE86B206AD052128460FF0F4FCBB
:103A7C0006F14602022392B2694628460FF018FD61
:103A8C0004AB95E8030083E803003A6802F6CC32F5
:103A9C0082E80300022118460FF0DEFC0436B6B2B1
:103AAC00442E38BF44265A4B1D78082D61D8002768
:103ABC00DFF85481DFF85CA1DFF85C91D8F80030B6
:103ACC001B6EAB4233D9BDF816300133BDF8122052
:103ADC009B1A9E422BDA0123324602A904A80FF04E
:103AEC00C5FCBDF808302380BDF80A306380BDF8F2
:103AFC000C30413BA380BDF80E20E280D8F80010BA
:103B0C00EB0103F168000844A060C4F80CA0C4F8F1
:103B1C00109064330B44A361404BE3610232A1F873
:103B2C00D22B013720340135ABB2082BC6D9012179
:103B3C0068460FF091FCBDF8003023807F33A380E2
:103B4C00BDF8023063803F33E380354BA360354BC7
:103B5C00E360354B23610023A361E3612A4B1B68AF
:103B6C001B6EBB4207D820340023A36008B0BDE80D
:103B7C00F0870027DBE7012168460FF06DFC224B34
:103B8C001B68B3F8D02B413A2284B3F8D02B013AFE
:103B9C00A284B3F8CE2B01326284B3F8CE2B41321F
:103BAC00E284224AA262224AE262224A2263002270
:103BBC00A263E2631B6E9F4228BF4034D4D2012122
:103BCC0068460FF049FC104B1B68B3F8D02B413AF8
:103BDC00A4F84020B3F8D02B013AA4F84420B3F851
:103BEC00D22B413AA4F84220B3F8D23B013BA4F8C3
:103BFC0046300E4BA364104BE364104B236500233B
:103C0C00A365E3656034AFE7B07117A048180400F2
:103C1C00AC7117A0F53D0000BCD402004D3C000077
:103C2C0054040200A939000080320300E022020093
:103C3C00D53D0000C4450200A93D0000983E02009D
:103C4C0070B588B004460388ADF818304388ADF8D9
:103C5C001A308388ADF81C30C388ADF81E301C4D6B
:103C6C001C4928680EF021FD28680EF020FD85B255
:103C7C0006AE022130460FF0D3FB0223402204A9EA
:103C8C0030460FF037FC236993B1BDF81030039325
:103C9C00BDF81230029302AA03A90D4B18680EF05E
:103CAC001AFABDF80820BDF80C1020690FF07AFA4A
:103CBC002A46694606A80FF067FCBDF80230BDF82D
:103CCC000020A168024800680EF0B4FC08B070BD7A
:103CDC00B07117A048180400F0B587B00FF0FAF9CE
:103CEC00294C2A4920680EF0E0FC20680EF0DFFC1D
:103CFC00054647F6E07120680EF0DBF900212068DC
:103D0C000EF0D9F92068B0F8D03BB0F8CE2BB0F853
:103D1C00CC1BB0F8D26B00960EF037F92068036E0E
:103D2C001BBB90F8E03B102B05D0092B27D0302B78
:103D3C0027D0174F00E0164F39460EF024FD04AE85
:103D4C00114C236882B2314603F6CC300FF03CFCA8
:103D5C00AAB202A930460FF017FCBDF80A30BDF824
:103D6C000820394620680EF065FC074B186800F6F1
:103D7C0064210EF0E8FE0FF0C1F907B0F0BD054F5D
:103D8C00DAE7054FD8E700BFB07117A04818040058
:103D9C00E80E0200FC0E02001C0F020008B5084BD6
:103DAC001B78591D074A1268126E914200D308BD48
:103DBC000133034A1370FFF73DFEFFF78DFFF6E763
:103DCC00AC7117A0B07117A008B5064B1B7803B9DE
:103DDC0008BD013B034A1370FFF72CFEFFF77CFF75
:103DEC00F6E700BFAC7117A008B5806900F0CAFEF9
:103DFC00054B1B68D3F8D80BFFF7DAFDFFF71AFE5B
:103E0C00FFF76AFF08BD00BFB07117A030B59BB0BB
:103E1C00024601AD0C4928461AF084FD0BAC012377
:103E2C002A460A4920461AF07DFD6A4601212046A1
:103E3C0017F0A6FD044610B120461BB030BD00980B
:103E4C0017F0D8FDF8E700BF440F02004C0F02003A
:103E5C0010B58CB0024602AC084920461AF062FD3F
:103E6C0001AA0121204617F08BFD044610B1204613
:103E7C000CB010BD019817F0BDFDF8E7600F020003
:103E8C0010B58CB0024602AC084920461AF04AFD27
:103E9C0001AA0121204617F073FD044610B12046FB
:103EAC000CB010BD019817F0A5FDF8E7780F0200D3
:103EBC002DE9F04F95B0814600231293384B1D68C5
:103ECC0008AC0246374920461AF02CFD13A92046AF
:103EDC0018F06AFA18B1302015B0BDE8F08F3249ED
:103EEC00139818F0C6FA70B1129B002B4DD0002B12
:103EFC0050DD643501242746DFF8B0A0DFF8B08030
:103F0C00DFF8B0B019E012AB00222B49139818F06F
:103F1C00C5FA129B002BEAD12849139818F0A9FA7C
:103F2C0012AB00222449139818F0B8FADCE70134DC
:103F3C00E4B22746129B9C422CDC05AE3A46514615
:103F4C0030461AF0EFFC502300932B1D42463146AD
:103F5C00139818F0D3FA08BB03AE3A4659463046CC
:103F6C001AF0E0FC2823009305F155034246314634
:103F7C00139818F0C3FA0028D9D145F8809B084B48
:103F8C001A68136E01331366D1E7139818F046FACA
:103F9C003020A1E7139818F041FA9DE730209BE7F9
:103FAC00B07117A0780F0200900F0200B80F02003A
:103FBC00E0220200C00F0200A40F0200B00F0200AA
:103FCC002DE9F04F91B002460190314B1D6806ACC3
:103FDC00304920461AF0A6FC05AA0121204617F00C
:103FEC00CFFC064618B1304611B0BDE8F08F04A9DD
:103FFC00059817F05FFD049B002B45D005F1640B71
:10400C0000252F462C460DF10C0A0DF10B094FF033
:10401C00010811E02C2B06D04F2D09D80BEB050213
:10402C001371013504E00BEB050300251D7101270D
:10403C000134049BA34227D953464246494605986E
:10404C0017F004FD0646F8B9039BEBB19DF80B3055
:10405C000D2BEDD0002FDDD00A2B07D0272DE7D864
:10406C000BEB050282F855300135E1E75D44002782
:10407C0085F85570019B4BF8803B054B1A68136E05
:10408C00013313663D46D3E7059817F0B3FCAAE756
:10409C00B07117A0600F020070B5A8B040F6E43004
:1040AC0018F040FC674B186080B140F6E4320021F8
:1040BC001AF033FD25AA1021012016F069FF38B142
:1040CC00604C206818F036FC0023236028B070BDCB
:1040DC0025AA24A95C4818F0FBFD18B1259816F008
:1040EC0079FFEDE727A9594818F049FA20B125992D
:1040FC00249818F05AFEF1E7524B1B68279AC3F824
:10410C00D82B4FF0FF31302002F004FD0020FFF7D8
:10411C007DFE04460120FFF779FE002C79D068B9AA
:10412C000123009300238DF804308DF85530684638
:10413C0000F028FD279818F039FAD8E70020FFF78F
:10414C009FFE04468DF898000120FFF799FE8DF82C
:10415C009900002C5FD0002834D13A4B1B68012405
:10416C00C3F8DC4B00221A662046FFF7A1FE04F1CF
:10417C00A0030DEB030404F8080C324B1B6883F806
:10418C00E00B2798FFF714FCFFF754FCFFF7A4FD96
:10419C002C4C20AE4FF0FF352368D3F8D43B002BCA
:1041AC00C8D12A463146259816F0A9FF0028F3D12C
:1041BC00244B18684FF4FA73259A00F664210EF01C
:1041CC00B9FEE7E70020FFF743FE05468DF898009F
:1041DC000120FFF73DFE8DF899001DB3B0F10D04E1
:1041EC0018BF0124174B1B68C3F8DC4B00221A665E
:1041FC0004F1A0036B4413F8083CCBB1114B1B68C2
:10420C0004F1A0020DEB020414F8082C83F8E02B47
:10421C00B7E7002385E70B4B1B680024C3F8DC4B86
:10422C001C66A1E7074B1B680024C3F8DC4B1C661B
:10423C002046FFF7C5FE04F1A0036B4403F8080CFD
:10424C00DCE700BFB07117A0680402007404020020
:10425C000022084B03F14C0013F8011B0A44834263
:10426C00FAD1D243034BD86C904214BF16200020D5
:10427C00704700BFB47117A000B583B000220D4B7E
:10428C0003F14C0013F8011B0A448342FAD1D243C8
:10429C00084BDA6401A9084817F0EFFA10B103B023
:1042AC005DF804FB502300220249019817F004FB2F
:1042BC00F5E700BFB47117A03C0A020000B583B04B
:1042CC0001A90B4817F0D9FA034618B1184603B0E8
:1042DC005DF804FB502300220649019817F0DAFA26
:1042EC0003460028F2D1FFF7B3FF0346EEE700BF09
:1042FC003C0A0200B47117A038B51A4C50220021A8
:10430C0020461AF00AFC4FF0FF35A564C02184F852
:10431C003A10A82284F83B200A2384F83C3014205D
:10432C0084F83D00FF2084F83E5084F83F0084F868
:10433C00400084F8421084F8432084F84430012370
:10434C0084F84530BD2384F83530332384F8363077
:10435C00062384F83730682384F83830222384F815
:10436C00393038BDB47117A0074B1B684FF0FF32C2
:10437C00C3F80C22C3F824220021C3F81012C3F88E
:10438C001422C3F81C127047107217A0064B1B683E
:10439C000022C3F828224FF0FF32C3F81422034B3B
:1043AC000361034BC3607047107217A038BF020043
:1043BC00094600002DE9F0438FB005460EF08AFE49
:1043CC00764B1B68D3F8E831012B07D87BB9744BBB
:1043DC001868744A01460FF017F908E0714A7249DF
:1043EC00096802FB03116E4B18680FF00DF96B4B4B
:1043FC001868D0F81032002B37D1684B1B68D3F8F3
:10440C001C32002B40F09180002D00F0BC80634BDF
:10441C001B68D3F82C22002A40F08E80D3F830226F
:10442C00002A00F0AD80D3F8E831042B00F08C802A
:10443C005A4B1B68D3F8E831002B00F093805A4B91
:10444C001868564C2368D3F8E811564B03FB01F15E
:10445C00A1F53B23A3F50063014418440EF028FF9B
:10446C0023680022C3F830228FE000210DF023FED8
:10447C004A4C002120680DF01CFE002120680DF034
:10448C001DFE4A4920680EF010F923680CAE03F5A6
:10449C00FA7292E8030086E80300012118460DF039
:1044AC000DFE206800F164010EF04DFB2368D3F87B
:1044BC00C821D3F8C43101323D4968461AF032FAAA
:1044CC00694620680EF05FF98146236803F5F673A0
:1044DC0093E8030086E803000A2130460EF0BCFF87
:1044EC000AAF1FFA89F2394630460FF06DF897E89B
:1044FC00030086E8030020680EF0D9F882B2394632
:10450C0030460FF041F847F6E07120680DF0D1FD10
:10451C00002120680EF035F9BDF82A30BDF82820AE
:10452C00694620680EF086F867E7C6224FF4B6712C
:10453C0020480EF037FE67E70EF0E8FD174B1B68BE
:10454C000022C3F82C2220E0174B1868154A00F5FE
:10455C000C1101F5205100F56A1000F5C0500FF058
:10456C0053F865E7104B18680E4A00F53B1101F53E
:10457C000051A0F53B20A0F500600FF045F85EE778
:10458C000EF0BCFD01E00EF0B9FD044B1B680022DF
:10459C00C3F814220FB0BDE8F08300BF107217A04F
:1045AC000400001000B80B00047217A04818040097
:1045BC00C80F0200F04C020008B50F4B1B68D3F873
:1045CC00102292B90C4B1A68D2F8C8310133D2F8C8
:1045DC00C4118B4228BF0023C2F8C8314FF0FF33FF
:1045EC00C2F81832C2F8303208BD0020C3F81002ED
:1045FC00FFF7E0FEE6E700BF107217A008B5084B06
:10460C001B684FF0FF32C3F82822C3F81422054B65
:10461C000361054BC3600020FFF7CEFF08BD00BF50
:10462C00107217A064C602009943000008B5114B24
:10463C001B68D3F81022BAB90E4B1B68D3F8C821EB
:10464C001AB9D3F8C421C3F8C821D3F8C821013A48
:10465C00C3F8C8210022C3F810224FF0FF32C3F870
:10466C001822C3F82C2208BD0020C3F81002FFF753
:10467C00A1FEE1E7107217A02DE9F04FADF5077D13
:10468C00B0F800C0B0F802B00769B989F88907F131
:10469C00150406AE0DF5067E14F8012CD20814F89C
:1046AC00023CDB085B0143EA822314F8032C43EA47
:1046BC00D20326F8023B03347645EDD100284FD0C7
:1046CC00441E01F2123201FB0422174400220DF1A8
:1046DC00180ADFF894803B46CDF814C00490D946F4
:1046EC0030E00236BD4224D015F8013B3AF81340B5
:1046FC00002CF6D023464A463146D8F800000DF07F
:10470C00F5FC06F1010B23464A465946D8F8000041
:10471C000DF0ECFC2346009A3146D8F800000DF061
:10472C00E5FC2346009A5946D8F800000DF0DEFC53
:10473C00D7E7019B0299039A013209F10209049807
:10474C0090420DD01F465B1A1D460029F4D009F18A
:10475C00010B059ECDF800B0019302910392C3E7C3
:10476C000DF5077DBDE8F08F107217A02DE9F04F05
:10477C00BFB04FF0FF320023079306930593B1E0CF
:10478C004FF0FF32AEE093F8CC21022A40F0BF800C
:10479C0000220792059A3B92079A03323C92002220
:1047AC003BA9D3F8E00116F050FC0022069299E0E8
:1047BC0093F8D421022A40F0B08001220792E9E755
:1047CC00039D3D95D4F82432002B40F0EE80D4F8B4
:1047DC003432002B00F0C4804FF000038DF82430ED
:1047EC00814B1B681B6E1A681DAF0135009509AB18
:1047FC007E4938461AF096F808AA0121384617F077
:10480C00BFF8002840F0D180049BDD1C089817F0FD
:10481C00F1F8774B196801F56A1303F5C05304F5E9
:10482C000972744800FB051138460EF0A1FD0446D0
:10483C00002840F0BA806C4B1868049B00EBC30353
:10484C00022283F8CC213D9AC3F8D021069B002B81
:10485C0000F0A9803B9B9A4200F09780002241E037
:10486C00002E3BD1B8F1000FB8BF884408F1FF37D8
:10487C00B9F1000FB8BFF1442E464B4609F1FF3990
:10488C004246B846013081422AD9B2FBF1F701FB0E
:10489C0017220492B3FBFEF70EFB1733039304EBC2
:1048AC00C207D7F8D0B15B458AD197F8CC71002FED
:1048BC0086D0B542E6D3002DD2D1614538BFACEBE2
:1048CC00010C0CF10105D64538BFAAEB0E0A534674
:1048DC000AF1010A6246AC460125D3E73546D1E719
:1048EC004FF0FF32404B1B683DA9D3F8DC0116F0AA
:1048FC0006FCB8B93D9B0593B3F1FF3F66D03A4B2C
:10490C001B68D3F8D021059991423FF43CAFD3F802
:10491C00D821059991423FF44BAF059B3B934FF047
:10492C00FF330693059D3D95079802462B462E496D
:10493C000C68D4F8C4E17146022928BF0221461C38
:10494C00471E05F1010A05F1FF3BBEF1000F3FF4D4
:10495C0017AF00200546B846B4460646D94694E73C
:10496C00226E5532244909A819F0DCFF38E73D9B2B
:10497C003B934FF0FF333C931B4B1B6800223BA92E
:10498C00D3F8E00116F061FB12E03C9500223BA944
:10499C00D0F8E00116F059FB3D9B0593049B07935F
:1049AC00069400229EE700229CE7069B002BDED19A
:1049BC000D4B1B68049A03EBC203022283F8CC2133
:1049CC003D9AC3F8D021002206928BE74FF0FF32BC
:1049DC003B92054B1B683BA9D3F8E00116F035FB65
:1049EC0000203FB0BDE8F08F107217A0E40F02005A
:1049FC00047217A000B80B00D80F020070B58AB073
:104A0C0004460EF067FB09AA0021204617F0DBFDD7
:104A1C00154C4FF4F84307930023069347F6E076C2
:104A2C0005960222049240F2DF12039240F21F32EA
:104A3C00029201930093099B4FF4F0724FF448716A
:104A4C0020680DF0FBFA094D294620680DF02DFE6B
:104A5C00314620680DF02DFB294620680DF025FE0F
:104A6C000EF04CFB0AB070BD107217A04818040071
:104A7C00F0B5B1B01A4B1B680022C3F8C421184C16
:104A8C00184F03AE21E01A6E55323946304619F0F4
:104A9C0049FF23681A6E126817ADD3F8C43101337D
:104AAC00009333461049284619F03CFF02AA012115
:104ABC00284616F065FF88B92268D2F8C431013354
:104ACC00C2F8C431029816F095FF2368D3F834224B
:104ADC00002AD8D000238DF80C30DAE731B0F0BDC5
:104AEC00107217A0D80F0200E40F0200F0B583B0CB
:104AFC00234B1B68D3F8C8714FF0FF3203F5E471F8
:104B0C00D3F8DC0116F0DEFA6E461D4CFA2508E0EF
:104B1C00C3F81C02FFF74EFC19E02368D3F81C22E3
:104B2C002AB323682A463146D3F8E00116F0E7FA97
:104B3C000028F2D1009BBB42F3D1019BB3F1FF3FA4
:104B4C0013D00F4B1B68D3F81C22002AE0D10C4B5E
:104B5C001B680022C3F818224FF0FF31C3F814125F
:104B6C000199C3F8E811C3F81C2203B0F0BD4FF053
:104B7C00FF32C3F81C220020FFF71CFCD1E700BF5A
:104B8C00107217A02DE9F04794B005464FF40E7043
:104B9C0017F0C8FEC24B186058B304464FF40E729F
:104BAC00002119F0BAFF04F5EE720421032016F06F
:104BBC00EFF908B3BA4B1B68D3F8E421002A40F094
:104BCC003C82B74B1B68D3F8DC01002840F04E82C6
:104BDC00B34B1B68D3F8E001002840F04A82B04C7C
:104BEC00206817F0A7FE00232360AE4B186817F05F
:104BFC00A1FE14B0BDE8F087A94B1A6802F5F0725B
:104C0C000821032016F0C4F90028D3D12B794BB915
:104C1C0095F8553033B9A24B1B684FF0FF32C3F8EF
:104C2C00342204E09E4B1B680022C3F834229E48B9
:104C3C0017F078FE9B4A10600028DAD000F53C2370
:104C4C0003F2FF736FF30B03984A1360944B1A68CB
:104C5C000023C2F8E43102F5F272019202220092B2
:104C6C004FF420729249934816F0E8FA0028A1D12B
:104C7C008B4B1B684FF0FF31C3F810120022C3F8A6
:104C8C001C22C3F80C221D66C3F8C821C3F81812E5
:104C9C00C3F81412C3F82022874B1B6883B112AAE5
:104CAC001021012016F074F9002883D112AA11A941
:104CBC00824818F00DF848B1129816F08BF979E784
:104CCC007D4A0121032016F063F9E8E713A97C481B
:104CDC0017F055FC20B11299119818F066F8EBE713
:104CEC00FFF7C6FE6E4B1B68D3F8C4311BB9139883
:104CFC0017F05CFCEFE71398FFF780FE684F3C68F9
:104D0C000025ADF80C50ADF80E50E369ADF810303D
:104D1C00236AADF812306B4920460DF0C6FC396899
:104D2C0003AE2B464A2201F5FA7130460EF0C0FB59
:104D3C003B6803F5FE7296E8030082E8030005AEBB
:104D4C0003F5FA7393E8030086E803000521304667
:104D5C000EF082FB0DF11C0A2823402251463046EE
:104D6C000EF0C8FBBDF81C30A4F86430BDF81E3042
:104D7C00A4F86630BDF82030A4F86830BDF82230B5
:104D8C00A4F86A30DFF84091C4F86C904F4B23675D
:104D9C004F4B6367E567DFF83C81C4F880802823BC
:104DAC004022514630460EF0A5FBBDF81C30A4F84D
:104DBC008430BDF81E30A4F88630BDF82030A4F83D
:104DCC008830BDF82230A4F88A30C4F88C90424B5D
:104DDC00C4F89030414BC4F89430C4F89C50C4F8DB
:104DEC00A08028234022514630460EF083FBBDF8AC
:104DFC001C30A4F8A430BDF81E30A4F8A630BDF8C1
:104E0C002030A4F8A830BDF82230A4F8AA30C4F899
:104E1C00AC90334BC4F8B030324BC4F8B430C4F857
:104E2C00BC50C4F8C08039680223642201F5F671C5
:104E3C0030460EF083FB28234022514630460EF0BC
:104E4C007DFBBDF81C30A4F8C430BDF81E30A4F8AE
:104E5C00C630BDF82030A4F8C830BDF82230A4F814
:104E6C00CA30C4F8CC90204BC4F8D0301F4BC4F8D7
:104E7C00D430C4F8DC50C4F8E080C4F8EC503B6883
:104E8C00D3F80C32002B7FF432AF3C464FF0FF3797
:104E9C00094E3DE0FFF72AFE16F080F905463EE08C
:104EAC00107217A0087217A060215200047217A08C
:104EBC00F80F0200794700000C7217A0680402007A
:104ECC007404020048180400E02202003946000075
:104EDC000CB80200854600000946000038BF0200ED
:104EEC00C545000090CD020075430000E0B0020003
:104EFC003846FFF75FFA16F051F9054614E000202A
:104F0C00FFF75AFB2368D3F80C32002B7FF4EFAE7B
:104F1C0017F0FAFC2368D3F81832002BBAD12368A7
:104F2C00D3F81432002BE3D100220DF127013068A5
:104F3C0016F0E5F8022812D09DF82730012BDED0B0
:104F4C00022B08D0002BDDD14B4B1B684FF0FF32EE
:104F5C00C3F80C22CBE60020FFF768FBD2E73A46F9
:104F6C000DA9129816F0CBF80028CBD1424B18683B
:104F7C00D0F8103283B9109B012B3FD0D0F82832D7
:104F8C00D3B1284616F018F940F6B733984210D929
:104F9C000020FFF711FB0CE04FF4FA73129A00F1AA
:104FAC0064010DF0C7FF284616F006F9B0F57A6FCC
:104FBC0017D2109B012B27D02F4B1A68D2F8203216
:104FCC004BB1D2F80832D2F804229B1A13F1800F9D
:104FDC002BDB802B2DDC284B1B680022C3F82022F6
:104FEC0090E7254B1B680022C3F810224FF0FF32CC
:104FFC00C3F8142216F0D2F80546DAE74FF0FF3367
:10500C00C0F81032C0F814321B4B1B68D3F82022A6
:10501C003AB90F9AC3F804224FF0FF32C3F820229A
:10502C0070E70F9AC3F80822F6E70020FFF7C4FADE
:10503C00D1E70020FFF7FAFACDE74FF0FF320C92E0
:10504C000CA9D3F8DC0116F03DF800260AAD0A4C89
:10505C000A9623684FF0FF322946D3F8E00116F088
:10506C004EF80A9BB3F1FF3FF2D1AAE515F0B2FF5F
:10507C00AEE515F0AFFFB2E5107217A08269D2F859
:10508C00C83183F00103C2F8C831704783694FF00F
:10509C00FF329A60704700002DE9F04F95B004463E
:1050AC000EF018F8254613AA002155F80C0B17F032
:1050BC008AFA4FF4F84307930026069647F6E077F2
:1050CC0005974FF00209CDF8109040F2DF130393CF
:1050DC0040F21F33029301960096139B4FF4F0722B
:1050EC004FF4487128460CF0A9FF784928460DF07A
:1050FC00DCFA28460DF0DBFAA4F8C0011F22744933
:10510C0028460DF0E7FA394628460CF0D2FF314616
:10511C0028460CF0D0FFADF84460ADF84660A36AA9
:10512C00ADF84830E36AADF84A300DF14408082177
:10513C0040460EF091F9B4F8C02146320BAF4B4605
:10514C0092B2394640460EF0B3F9012138460EF0C2
:10515C0083F9BDF82C30A4F86C307F33A4F8703090
:10516C00BDF82E30A4F86E303F33A4F87230594B92
:10517C006367594BA367594BE367C4F88440C4F881
:10518C008860314628460DF0FCFA314628460CF072
:10519C0095FF012128460DF0F4FA514928460DF0EF
:1051AC0084FA312128460DF086FAA4F8C20128466B
:1051BC000DF07DFA82B2A4F8C421B4F8C2B10BEBA5
:1051CC004B0B4FEA4B0B0BF18A0B04F5D6770832DD
:1051DC00802A38BF802292B2394640460EF0D4F96C
:1051EC000DF13C0897E8030088E803001FFA8BF2E6
:1051FC00394640460EF0E8F997E8030088E80300CA
:10520C000DF1240B4B468022594640460EF096F980
:10521C000DF1340A33468022514658460EF026F9D9
:10522C00BDF83430A4F88C30BDF83630A4F88E308C
:10523C00BDF83830A4F89030BDF83A30A4F892306C
:10524C00DFF8A0B0C4F894B0274BC4F89830274BC3
:10525C00C4F89C30C4F8A440C4F8A860B4F8C221C7
:10526C000432334692B2514640460EF067F9BDF80F
:10527C003430A4F8AC30BDF83630A4F8AE30BDF8FC
:10528C003830A4F8B030BDF83A30A4F8B230C4F8D5
:10529C00B4B0154BC4F8B830C4F8BC60C4F8C44002
:1052AC00C4F8C860494638460EF0D6F8C4F8D46045
:1052BC00064928460DF0F9F904F16C0128460DF069
:1052CC0042FC0DF01BFF15B0BDE8F08F4818040030
:1052DC0000100200540402009950000080320300B8
:1052EC0010820300E0220200895000005C7702006B
:1052FC002DE9F04F8DB04FF4E87017F013FB764B9F
:10530C001860A0B104464FF4E872002119F005FCB6
:10531C000123C4F8BC3104F5E671704817F05BFB4F
:10532C0040B16D4C206817F005FB002323600DB0D5
:10533C00BDE8F08F6A4A1021012015F029FE30B12A
:10534C00654B1B68D3F8CC0117F052FBE9E7644AB4
:10535C000BA9644817F0BCFC20B1614B186815F020
:10536C0039FEEDE75C4B19685F4817F008F928B176
:10537C005B4B19680B9817F018FDEEE7564C20683C
:10538C00FFF78AFE20688368002B6BD0006817F04B
:10539C000DF9EDE7059B03EBC303544A82FB0312A3
:1053AC00DB17C3EB620303F5001305931A149BB2CE
:1053BC0003EB8303DB0B4E4908A819F0B3FA74E036
:1053CC004C4B089371E06D08454405F1FF3AB9F870
:1053DC00AE21414620460CF0F5FF47F6E071204621
:1053EC000CF067FE039B1978202901D05F2920D18E
:1053FC0007AA06A920460CF0FEFF069B9A451CDC6A
:10540C00A8465E4529D0394620460CF054FE394654
:10541C0020460CF04EFE394620460CF04FFEB9F8F3
:10542C00C2510136039633782E2BCCD05F2BCBD1C7
:10543C00C9E720460DF037F8DAE7394620460CF07C
:10544C0038FE079AB9F8C4311344013B0093AB1EE4
:10545C00069920460CF099FDD2E71F4B186883681B
:10546C00002B93D14FF4FA731D4A126800F16C01B2
:10547C000C300DF05FFD184BD3F8009005A9D9F84E
:10548C00CC0117F0BDFA00289AD1D9F8C81101291E
:10549C0080D0059B1A149BB203EB8303DB0B002912
:1054AC0089D1154908A819F03DFA09F10C041349E2
:1054BC0020460DF0FAF8002120460DF062F947F66F
:1054CC00E07120460CF0F5FDB9F8AC810DF11F062A
:1054DC000DF1260B002796E7187217A07C09020025
:1054EC00147217A0680402007404020067666666F2
:1054FC00301002004572720024100200108203006A
:10550C0070477047A0F862104FF0FF33C0F8C830F6
:10551C0070474FF0FF33C0F8C8307047074B1B681B
:10552C0003B9704710B5D0F834411146204609F044
:10553C00D9F90349204609F0D5F910BD1C7217A002
:10554C00F411020010B5D0F83441054B53F8221079
:10555C00204609F0C7F90349204609F0C3F910BDEC
:10556C00882A02003C10020008B5094B1B683BB9A5
:10557C00084B1B6843B1084909F0B4F9002008BD79
:10558C00064909F0AFF9F9E7054909F0ABF9F5E778
:10559C002C7217A0307217A04810020040100200A5
:1055AC005410020070B586B00546012920D014466F
:1055BC0002293FD1214B1B686BB3214B1A6801AEFA
:1055CC002049304619F0AEF96168304619F0F9FA05
:1055DC0018B31A4B1B685BB3194B1A6801AC1A4908
:1055EC00204619F09FF92146284609F07BF90DE079
:1055FC00124B1B686BB1124B1A6801AC1349204655
:10560C0019F090F92146284609F06CF9002006B0F3
:10561C0070BD0022F1E70022D1E7094B1A680C4952
:10562C00304619F07FF93146284609F05BF9EDE771
:10563C000022D3E7074909F055F9E7E7A47217A050
:10564C00A87217A0A40A02007C10020064100200C9
:10565C006C1002008C10020010B50446012904D015
:10566C00064909F03FF9002010BD012001F000FEB1
:10567C000349204609F036F9F5E700BF8C1002000B
:10568C004810020010B50446012904D0064909F05F
:10569C0029F9002010BD022001F0EAFD0349204643
:1056AC0009F020F9F5E700BFA8100200481002002D
:1056BC0010B5012904D00446022905D0002010BDE4
:1056CC00032001F0D5FDF9E70B4B4FF0FF321A60C8
:1056DC00032001F0CDFD084A1368002BFCD1074BC9
:1056EC001B6823B10649204609F0FCF8E6E705499A
:1056FC00204609F0F7F8E1E72C7217A0307217A0DA
:10570C00481002005410020010B50446012904D0C0
:10571C00064909F0E7F8002010BD052001F0A8FDAE
:10572C000349204609F0DEF8F5E700BFA810020097
:10573C004810020008B5002001F09AFD002008BDB9
:10574C00F8B50646042904D0124909F0CBF800201C
:10575C00F8BD1546506809F0A5F80446A86809F08C
:10576C00A1F80746E86809F09DF8E40104F4F84450
:10577C00BF0007F478773C43C0F3C4000443064BE6
:10578C001C80042001F074FD0449304609F0AAF88D
:10579C00DDE700BFA8100200247217A04810020019
:1057AC002DE9F84380460D46144602F58179144BD9
:1057BC001A889B78A4F8022189F80230204601F05F
:1057CC0081FD0023C4F8C830C4F834814FF4004282
:1057DC0021460C48A847D4F8C8304BB9094F0026CD
:1057EC00324621463846A847D4F8C830002BF7D0AB
:1057FC004A460549404609F0A7F8BDE8F88300BFC2
:10580C00341B02009C2A02000023020010B5CEB00B
:10581C000446022905D0094909F064F800204EB06D
:10582C0010BD506809F03EF86A4636900123ADF879
:10583C00003103492046FFF7B3FFEFE7A810020041
:10584C00452B000010B5CEB00446022905D00C49FA
:10585C0009F048F800204EB010BD506809F022F84D
:10586C000022ADF8002128B16A4606492046FFF710
:10587C0097FFEFE76A4604492046FFF791FFE9E7F7
:10588C00A8100200F1380000A12D000000B5CFB027
:10589C00012906D0054909F025F800204FB05DF824
:1058AC0004FB6A460249FFF77BFFF6E7A8100200EB
:1058BC007534000000B5CFB0012906D0054909F0B8
:1058CC0011F800204FB05DF804FB6A460249FFF75F
:1058DC0067FFF6E7A8100200D126000000B5CFB094
:1058EC00012906D0054908F0FDFF00204FB05DF8F6
:1058FC0004FB6A460249FFF753FFF6E7A8100200C3
:10590C00DD24000000B5CFB0012906D0054908F010
:10591C00E9FF00204FB05DF804FB6A460249FFF72F
:10592C003FFFF6E7A8100200D521000000B5CFB06C
:10593C00012906D0054908F0D5FF00204FB05DF8CD
:10594C0004FB6A460249FFF72BFFF6E7A81002009A
:10595C001524000000B5CFB0012906D0054908F088
:10596C00C1FF00204FB05DF804FB6A460249FFF707
:10597C0017FFF6E7A8100200452E000000B5CFB0C7
:10598C00012906D0054908F0ADFF00204FB05DF8A5
:10599C0004FB6A460249FFF703FFF6E7A810020072
:1059AC005130000010B50446022904D00B4908F010
:1059BC0099FF002010BD506808F074FF002814BF38
:1059CC004FF0FF320022064B1A6014BF054A064AFC
:1059DC000649204608F0B8FFEBE700BFA81002000C
:1059EC001C7217A0C4100200C8100200CC100200D8
:1059FC0030B5C3B00446012906D0414908F072FF06
:105A0C000025284643B030BD41A93E4816F098F811
:105A1C0000286ED14FF480224FF4E001419816F02B
:105A2C00D7F8002834D1802301AA4FF4E001419823
:105A3C0016F0AAF8002832D101AB21A913F8012BDA
:105A4C00FF2A33D18B42F9D106232F4A2F49419893
:105A5C0016F0ACF888BB06232D4A2E49419816F057
:105A6C00A5F888BB802301AA2849419816F08CF828
:105A7C0088BB0C22284901A818F0DFFE054688BB1C
:105A8C002649204608F02EFF419816F070F8B8E72A
:105A9C002349204608F026FF4FF0FF35B1E7214996
:105AAC00204608F01FFF4FF0FF35AAE71E4920469D
:105ABC0008F018FF4FF0FF35A3E71C49204608F00B
:105ACC0011FF4FF0FF359CE71849204608F00AFFFC
:105ADC004FF0FF3595E71349204608F003FF4FF0D0
:105AEC00FF358EE71249204608F0FCFE4FF0FF35DB
:105AFC0087E71049204608F0F5FE002581E700BF36
:105B0C00A8100200540B0200140B0200FCFF7300DF
:105B1C001C0B020002007400240B0200481002004F
:105B2C00E0100200001102001C11020034110200EE
:105B3C0054110200741102002DE9F04F89B000904D
:105B4C0014460139062900F2DD82DFE811F0D50296
:105B5C00DB02DB02CA020700DB02BF00506808F060
:105B6C00A1FE0546A06808F09DFE8146E06808F09D
:105B7C0099FE8046206908F095FE0646E8B2FDF7CE
:105B8C000DFD0746002862D05FFA88F0FDF706FD90
:105B9C000446002863D049EA052080B216F03EF98D
:105BAC000546B0F1FF3F62D046EA082080B216F0FD
:105BBC0035F90546B0F1FF3F5ED05FFA86F82368F1
:105BCC001B6B0022414620469847012505FA06F634
:105BDC0023681B6A31462046984723685B6B00227A
:105BEC0041462046984705FA09F53B685B6A294609
:105BFC00384698473B68DB692946384698473B68E6
:105C0C005B6B00225FFA89F138469847322013F01B
:105C1C00C3F82368DB6A07AA3146204698473B68DD
:105C2C009B6A294638469847322013F0B5F823680A
:105C3C00DB6A06AA314620469847079B43B3069B6E
:105C4C00FBB91B49009808F07FFE002550E22A465C
:105C5C001849009808F078FE4FF0FF3548E24246AC
:105C6C001449009808F070FE4FF0FF3540E21249DD
:105C7C00009808F069FE3BE21049009808F064FEB9
:105C8C0036E20F49009808F05FFE4FF0FF352FE227
:105C9C00069B33B10B49009808F056FE4FF0FF35C8
:105CAC0026E20949009808F04FFE4FF0FF351FE23D
:105CBC004810020090110200A8110200D01102003D
:105CCC00F8110200201202000C120200506808F0B9
:105CDC00E9FD0546A06808F0E5FD8246E06808F09D
