:10000000440D0010010300001B0300007C030000EE
:100010001D0300001F03000021030000C7DFFFEFE6
:10002000000000000000000000000000D1CD020030
:10003000250300000000000051CE020095CE020012
:100040004D9F0200599F0200659F0200719F0200B0
:100050007D9F0200899F0200959F0200A19F0200E0
:10006000AD9F0200B99F0200C59F0200D19F020010
:10007000DD9F0200E99F0200F59F020001A002003F
:100080000DA0020019A0020025A0020031A002006C
:100090003DA0020049A0020055A0020061A002009C
:1000A0006DA0020079A0020085A0020091A00200CC
:1000B0009DA00200A9A00200B5A00200C1A00200FC
:1000C000CDA00200D9A00200E5A00200F1A002002C
:1000D000FDA0020009A1020015A1020021A1020059
:0400E0002DA102004C
:0402FC00FFFFFFFF02
:10030000DFF88CD023488047DFF884D0224880472C
:1003100022482349016000F045B82FE02EE02DE08F
:100320002CE02BE02AE029E028E027E026E025E089
:1003300024E023E022E021E020E01FE01EE01DE0B9
:100340001CE01BE01AE019E018E017E016E015E0E9
:1003500014E013E012E011E010E00FE00EE00DE019
:100360000CE00BE00AE009E008E007E006E005E049
:1003700004E003E002E001E000E0FFE71EF0040F0C
:100380000CBFEFF30880EFF3098028F0A3BC000056
:100390000000011053ED0100E1E4020008ED00E06F
:1003A000000000002B498D462B492C480A1A04D026
:1003B00081F30988022282F31488294829492A4AAC
:1003C00000F037F829482A492A4A00F032F82A482A
:1003D0002A492B4A00F02DF82A482B492B4A00F0D5
:1003E00028F82B482B492C4A00F023F82B482C499D
:1003F0002C4A00F01EF82C482C49002200F024F86A
:100400002B482C49091A00220260043001601E4862
:100410001E49884205D00268043003B4904703BCEB
:10042000F7E700208646EC4600200021224A90474C
:10043000FEE7884207D0521A05D0037801300B70CE
:100440000131013AF9D17047884202D0027001307F
:10045000FAE77047440D0010440D0010440D0010E1
:1004600000B306000000001008050010BC040000E6
:10047000BC0400002857030000B306000000001071
:1004800000000010285703002857030028570300D6
:100490002857030028570300285703002857030054
:1004A0002857030000B3060060983EA0B8C23EA0E3
:0C04B00000EA33A060983EA04BED010074
:1004BC0008B5882016F0CDF915F000FF052211467D
:1004CC00014815F0B1FB08BD487D030010B582B0A2
:1004DC0013F08AF9044613F08FF90346882201922F
:1004EC00064A009222460021084613F0F3FC05222E
:1004FC001146034815F098FB02B010BDFF5555008E
:10050C00487D03002DE9F04F85B013F06DF90746D7
:10051C0013F072F9344B1C6834B1334B18680AF081
:10052C00D3F905B0BDE8F08F0646C9231A46002161
:10053C00084609F05FFB80460125009533463A4694
:10054C000021084609F04CFC274B186064232A460E
:10055C000021084609F04EFB8146404609F08CFC10
:10056C008246882016F075F915F0A8FE484609F069
:10057C0083FC882301931D4B0093642300221146B6
:10058C00104613F0A7FC48460AF052F905464046BF
:10059C0009F072FC4FF0640B55F8040B16F064F97B
:1005AC0022465946584618F075F90134642CF3D19B
:1005BC000D4B186809F060FC002102910197009620
:1005CC0033460A4640460AF09BFE0522114608486F
:1005DC0015F02AFB404609F0DFFB484609F0DCFB2E
:1005EC00504609F049FC98E760983EA0FF5555002D
:1005FC00487D030038B50446456855B90E2100689E
:10060C000BF092FF4FF07F4120680CF040F9284628
:10061C0038BD0CF0E1FD0546F9E7000008B50368AC
:10062C000F2B06D01E2B08D00E2B09D010F088FAF9
:10063C0002E0094B1B68984708BD0023C360FBE729
:10064C00C3685A68002AF7D01B686E2BF4D1034B91
:10065C0001221A60F0E700BF7C983EA068983EA08B
:10066C0030B583B0054610F07DFD0446284610F0E9
:10067C0093FD451E0A4B01930A4B00932B46A21E79
:10068C000021012013F026FC074816F0EDF82B464C
:10069C00621E4FF0FF31002018F048FE03B030BD51
:1006AC00DCCEC0FFF3F3E6FFA8A851FF10B582B073
:1006BC0004460368013B1C2B36D8DFE803F02435D5
:1006CC0035353535353535353535351E31353535E9
:1006DC00353535353535353535350F0040F2611149
:1006EC00406811F031F8044601210DF0C7F81049AB
:1006FC0020460DF0ABF802B010BD10F063FF2146A0
:10070C000FF043FCF7E713F06FF800EBD0704110DB
:10071C00412300930B460022606811F02FFBEAE79F
:10072C004068FFF79DFFE6E710F00AFAE3E700BF29
:10073C00545428FF2DE9F04182B0054643680B2B39
:10074C0006D0122B37D0052B0DD00EF001FB33E069
:10075C001B4816F089F8EB69AA696969286918F0D1
:10076C00E5FD002028E000680DF09EFD04466A4679
:10077C0001A928680DF0AAFD124B1D8805FB04F495
:10078C00A400009B019A9B1A013394FBF3F494FB95
:10079C00F5F305FB1344641B01340426DFF82480B5
:1007AC0001273A462146404615F03EFA2C44013EBC
:1007BC00F7D1002000E0002002B0BDE8F08100BFBE
:1007CC00A8A851FFB87B030010B504464368052B5D
:1007DC005DD0122B6DD14FF07F4016F045F820689C
:1007EC0010F05EFFB0F5006F05D040F601039842A3
:1007FC002AD000205FE020680CF068FA00B34FF0BC
:10080C00FF3016F031F82C4B1A682C482C4B002A70
:10081C0018BF1846E2696369D21A4388D21A02EBF0
:10082C00D2725210A1692369C91A0388C91A01EB43
:10083C00D17149100132013115F0F6F900203AE07E
:10084C00204816F011F8DEE720680CF03FFAD0B122
:10085C004FF0FF3016F008F8E2696369D21A1A48B3
:10086C004388D21A02EBD2725210A1692369C91AB9
:10087C000388C91A01EBD17149100132013115F00D
:10088C00D3F9002017E00F4815F0EEFFE4E70068FD
:10089C000CF01CFA30B1626921690C4815F0C4F9EE
:1008AC00002008E062692169094815F0BDF90020B3
:1008BC0001E00DF06DFD10BD6C983EA06C62030064
:1008CC0068610300A8A851FFE4610300D062030033
:1008DC00446F030010B588B004464368053B132BE6
:1008EC003FD8DFE803F00A3E3E3E3E3E3E3E3E33FE
:1008FC003E3E3E113E3E414141411D4815F0A9FF8F
:10090C0015F0DCFC002030E00369ADF81830836989
:10091C00ADF81C304369ADF81A30C369ADF81E3020
:10092C004FF0FF3015F0A0FF124815F0C9FF022060
:10093C0016F030F8142201A920680BF065FF0E2286
:10094C0006A901A817F07FFC00200EE00A4815F05C
:10095C008BFFE369A2696169206916F021F9002017
:10096C0003E0FFF747FE00E0002008B010BD00BF19
:10097C00A8A851FF687A0500C0C0C0FF08B5044B99
:10098C001B8913F0080F00D108BD14F075FDFBE7AF
:10099C0090983EA008B5044B1B8913F0080F00D1AA
:1009AC0008BD14F071FDFBE790983EA010B58C4685
:1009BC00037863B30346194613F8012F002AFAD1C2
:1009CC00C0F1010E8E44BCF1090F23D90123194645
:1009DC0003EB83035A0013460131BCFBF2F2092AE4
:1009EC00F6D801EB0E03C2180024C45471B1704444
:1009FC000B4CA4FB0C13DB0803EB8301ACEB4101A8
:100A0C00303102F8011D9C468242F2D110BD4FF0EC
:100A1C00000ED8E70EF10103C2180021C154E6E71D
:100A2C00CDCCCCCC10B50378FBB103469E4613F865
:100A3C00012F002AFAD1C0F1010CF4440B7883B1D8
:100A4C0064460CF1FF3C00EB0C0E0A460EF8013F1D
:100A5C00944612F8013F002BF8D1C1F10101214459
:100A6C008C44002300F80C3010BD4FF0000CE5E76F
:100A7C0010B586B00023019302930393049305935E
:100A8C004FF4B071134B186810F05EFE0446124917
:100A9C0001A8FFF7C7FF114B1968013101A8FFF737
:100AAC0085FF0F4901A8FFF7BDFF0E4B196801A880
:100ABC00FFF77CFF0C4901A8FFF7B4FF0B4B5968FB
:100ACC00013901A8FFF772FF01A920460CF0B8FE0E
:100ADC0006B010BD8C983EA02857030078983EA015
:100AEC00C0EF030084983EA03057030090983EA0BE
:100AFC0038B50A4B1B68012B07D10A25074C284631
:100B0C0012F000FE2368012BF9D0054B1868012860
:100B1C0006BF00221A60002038BD00BF6C983EA0B2
:100B2C0068983EA010B584B00C4615F0C9FD01A81C
:100B3C0015F07EF99DF80C3043B9206801280AD1D4
:100B4C0000232360064B01221A6002E0012323607C
:100B5C00002004B010BDFFF7CBFF014B1860F8E785
:100B6C0068983EA00023034A1360034A1360034AAB
:100B7C00136070476C983EA074983EA070983EA08D
:100B8C0008B5044A136801331360FFF7EBFFFFF756
:100B9C006FFF08BD84983EA038B5044603680E3B31
:100BAC00182B7DD8DFE803F00D467C7C7C7C7C7CAC
:100BBC007C7C7C7C7C7C7C137C7C7C7C7C7C7C7CD2
:100BCC004A0010F0FFFC21460FF0DFF938BD364922
:100BDC0040680BF072FE0E2160680BF0A9FE4FF41A
:100BEC000471606810F0B0FD05460E210DF0BAFBE3
:100BFC002E4928460DF082FB4FF40061606810F01E
:100C0C00A3FD00210DF0A9FF40F60101606810F072
:100C1C009BFD00210DF0A1FF4FF4B071606810F046
:100C2C0093FD044622490CF00BFE224920460CF0A1
:100C3C00EFFDCBE74068FFF713FDC7E7806810F0C6
:100C4C002FFDE368022BC1D1B0F5006F09D040F63F
:100C5C0001039842BAD1184B01221A60FFF782FFA8
:100C6C00B4E7164B1B686BB10024144B1C6012F0DC
:100C7C0047FD134B1B68C31A124A136020460EF033
:100C8C001FFCA3E70D4B01221A6012F039FD0D4B2E
:100C9C001B68C31A0A4A136060680EF011FC95E7D2
:100CAC000FF04EFF92E700BF2C74050034E90300EF
:100CBC00345703007C86050068983EA06C983EA0D3
:100CCC0070983EA074983EA070B582B010F07AFC7B
:100CDC000FF0D0FA15F0F2FAFFF75CFE12F084FD7B
:100CEC00044612F089FD054636480CF0B9F9364831
:100CFC000CF028FA35480BF095F910F063FC03461C
:100D0C003D3D0195A4F150020092314A0521314834
:100D1C000EF010FA304E306010F054FC03460025F3
:100D2C00019504EBD4746410013C00942B4A02210D
:100D3C002B480EF0FFF92B4B186011F061F82A4884
:100D4C000CF08EF929480CF0FDF929480BF06AF9E2
:100D5C004FF4B071306810F0F7FC11F051F810F04E
:100D6C0031FC0FF07AFA15F0ABFC00F083FF214B4D
:100D7C001D60214B1B681B68BBB11F4D1D4C1F4ECA
:100D8C00FFF7F0FEFFF774FE22682B6853F8223051
:100D9C009847002333601A4A136023680133236099
:100DAC002A6852F82330002BEAD1124B00221A6029
:100DBC00094B18680FF034FB0A4B18680FF030FB26
:100DCC0002B070BDE1080000D5070000410700002B
:100DDC00A50B0000985703008C983EA0B9060000A4
:100DEC006057030088983EA0010600009DE30000B8
:100DFC005DED000078983EA090983EA084983EA0AF
:100E0C0080983EA030B583B00546164815F058FDC5
:100E1C00284617F0AFFC044612F0E6FC124B1A8879
:100E2C00031B03EBD3735B10043B511D8B42DABFE6
:100E3C000A4612B20022ADF800200023ADF80230B1
:100E4C000138ADF80400084B5B880933ADF8063067
:100E5C00022015F09FFD0E226946284617F0F3F983
:100E6C0003B030BDD4CB0300487D030008B5024B62
:100E7C001B68984708BD00BF7C983EA008B5064B80
:100E8C001B6813B1054B186808BD12F039FC044BF4
:100E9C001B68C01AF8E700BF6C983EA070983EA083
:100EAC0074983EA02DE9F04105464FF40471204B97
:100EBC00186810F049FC0746642D0EDC00213846FA
:100ECC000DF04AF92A46002138460DF02CFA12F0A2
:100EDC0017FC06464FF0050810E04FF40471144B54
:100EEC00186810F031FC10F072FFE7E7404612F082
:100EFC0009FCFFF7FDFDA5420DD960B9FFF7BEFF58
:100F0C00841B642DF2DD214638460DF025F9384658
:100F1C000FF0A3F9EAE7642D01DCBDE8F0814FF492
:100F2C000471034B186810F00FFC10F069FFF4E724
:100F3C008C983EA0014B58880A307047487D0300BE
:100F4C0010B58CB014F0C4FB2B492C480AF090FF60
:100F5C0010F038FB2A4910F062FE0BF065FE002100
:100F6C0001A80CF01BFB00240694214601A80CF0F0
:100F7C00EDFA012101A80CF011FB0694012101A846
:100F8C000CF0E4FA1F480CF06BF81F480BF04AF811
:100F9C001E480CF0D7F81E480CF090FF1D480EF0C0
:100FAC00BBF81D480BF0B4FD022015F0F3FC1B48F8
:100FBC0000F056FE12F038FC0F280FDD174B1B8982
:100FCC0013F0040F01D1164B09E014F081FB154B03
:100FDC00154AB0F5001F98BF134600E0104B134A9A
:100FEC001360134B1B68012B02D1FFF76DFEFCE75E
:100FFC00FFF76AFE0CB010BD80983EA0310B0000CC
:10100C0029060000010600005DED00009DE30000D4
:10101C0075E80000BDD8000015F2000090983EA0C5
:10102C00BD04000011050000D90400007C983EA00E
:10103C0064983EA008B5FFF735FFFFF7A1FD08BD8A
:10104C002DE9F0411546002847D00C4607460029EB
:10105C0043D012F0C9FB064612F0CEFB804606EBDD
:10106C00D6767610FFF796FC2E4B186810F0C8FE5B
:10107C002D4B186810F0ABFE15F022FBFFF7F6FEB7
:10108C004FF0FF3015F0F0FB022015F083FC2748E1
:10109C0015F016FC3C223146384616F09BFF2448CE
:1010AC0015F00EFC17F0DEFE08EBD878C0EB6802EA
:1010BC000A323146204616F08DFF237813B32346AF
:1010CC001A4613F8011F0029FAD1C4F1010010448B
:1010DC0000EB80000001FFF7ADFF15F0010F13D0FE
:1010EC00FFF758FC15F0020F11D00E4B186810F0DA
:1010FC006EFE15F0040F0FD00B4B186810F067FE46
:10110C00BDE8F0810020E3E7FFF738FCEAE7054B88
:10111C00186810F075FEECE7034B186810F070FEC1
:10112C00EEE700BF88983EA08C983EA0D4CB03007D
:10113C00DCB803002DE9F04F9DB008AC84E8030047
:10114C0005921E46BDF82030BDF82220033297B21E
:10115C00029715B2BDF82620033A12B2521BD84999
:10116C0081FB0201A1EBE274DA1CADF86820ADF84A
:10117C006A503E33ADF86C30A3B2039303EB4303D8
:10118C003B441BB20493ADF86E30CE4815F098FB7F
:10119C004FF0FF3015F068FB01230E221AA93046E0
:1011AC0017F06AF800223F211AA815F058FA4FF0F0
:1011BC007F4015F059FB1AA815F01EFD1AA815F062
:1011CC003CFBBDF968A0BDF96C309A440AEBDA7AA5
:1011DC004FEA6A0ABDF96A90BDF96E30994409EB81
:1011EC00D9794FEA69090AAEB74F0FCF0FC60FCFA7
:1011FC000FC60FCF0FC697E80F0086E80F004FEA17
:10120C008A0A4FEA890919F005F8042018F0F2FF50
:10121C00002637464FF08C0845F2E47B0695079480
:10122C00384615F0EFFB0446384615F029FC054608
:10123C00724206F00F0302F00F0258BF53421CAA71
:10124C0002EB830353F8480C15F00EFB08FB04F477
:10125C00002CBCBF04F57F44FF3409EB244108FB90
:10126C0005F00028BCBF00F57F40FF3042460AEB7A
:10127C00204019F061F85F440136102ED0D1069D44
:10128C00079C18F0BFFF002015F0D7FA4FF0FF3085
:10129C0015F0EAFA059815F013FBBDF86A30DDF885
:1012AC000CB05B44ADF86E30884E0E221AA9304655
:1012BC0016F0C9FF224600211AA815F0D0F90E220B
:1012CC001AA9304616F0BFFF224600211AA815F0C5
:1012DC00C6F90E221AA9304616F0B5FFADF86A50C1
:1012EC00049BADF86E3000223F211AA815F0B7F917
:1012FC004FF0FF38CDF804804FF07F470097BDF9D1
:10130C006E30BDF96C20BDF96A10BDF9680012F0A1
:10131C0019FEBDF86A305B44ADF86E30DFF8B0A151
:10132C00504615F0A1FA0E221AA9304616F08BFF82
:10133C00224600211AA815F092F94FF0FF2015F063
:10134C0093FA0E221AA9304616F07DFF2246002190
:10135C001AA815F084F9DFF87C91484615F084FA48
:10136C000E221AA9304616F06EFFADF86A50029A9A
:10137C005A440FFA82FBADF86EB000223F211AA836
:10138C0015F06DF9504615F06FFA1AA815F034FCEB
:10139C00224600211AA815F062F94FF0FF2015F033
:1013AC0063FA1AA815F028FC224600211AA815F099
:1013BC0056F9484615F058FA1AA815F01DFC404687
:1013CC0015F052FAADF86A50ADF86EB00E221AA9AB
:1013DC00304616F038FF224600211AA815F03FF9C6
:1013EC000E221AA9304616F02EFF224600211AA80A
:1013FC0015F035F90E221AA9304616F024FFADF877
:10140C006A50ADF86EB000223F211AA815F027F9EA
:10141C000197CDF800A0BDF96E30BDF96C20BDF977
:10142C006A10BDF9680012F055FD224600211AA879
:10143C0015F015F901974FF0FF230093BDF96E30AD
:10144C00BDF96C20BDF96A10BDF9680012F042FDBF
:10145C00224600211AA815F002F90197CDF8009048
:10146C00BDF96E30BDF96C20BDF96A10BDF968008C
:10147C0012F030FDADF86A50ADF86EB0404615F084
:10148C00F3F90E221AA9304616F0DDFE2246002191
:10149C001AA815F0E4F80E221AA9304616F0D3FE5D
:1014AC00224600211AA815F0DAF80E221AA93046A5
:1014BC0016F0C9FE002015F0C0F91DB0BDE8F08F84
:1014CC0056555555687A05001059030024580300E9
:1014DC000000FFFFFF0000FF2DE9F04182B012F089
:1014EC0083F9054612F088F9B5F5A07F02DB0446B6
:1014FC00EF2807DC052227492748FFF7A1FD02B09A
:10150C00BDE8F081244F052224493846FFF798FDA9
:10151C00FFF7ACFC012012F081F806463846FFF7C5
:10152C0071FCFFF707FDA5F5A07303EBD3735B10FC
:10153C00ADF8003082B2A4F1F00707EBD777C7F310
:10154C004F07D119ADF80210ED1AADF80450231A5B
:10155C0003EBD37302EB6305ADB26B1EADF8063033
:10156C000F4B104AE84698E80300FFF7E3FDADF88F
:10157C000250E41BADF806400B4B0C4A98E80300F4
:10158C00FFF7D8FD4FF47A60FFF754FD304612F0A8
:10159C0045F8B4E72858030090580300A4580300FA
:1015AC00D8580300BCB60300F458030064B503001C
:1015BC002DE9F84F8846174608F05EFC824618481D
:1015CC0015F07EF9022015F0E5F914F0EDFF00EBB3
:1015DC00D070461007F159040B3F0225A8F1070BF8
:1015EC00DFF84090C6F1070622465946484614F0EB
:1015FC001BFB3119404615F0B7F8022015F0BAF96B
:10160C004FF07F4015F030F9284611F0B8FC143C2F
:10161C000235BC42E8D1504608F02EFCBDE8F88FEC
:10162C00D05D0300AC5A03002DE9F04FABB005229E
:10163C0098499948FFF704FDFFF718FC9748FFF706
:10164C00E1FB974D0CAE2C460FCC0FC60FCC0FC642
:10165C0094E8030086E8030016AE0FCD0FC60FCD3D
:10166C000FC694E8030086E8030012F0BDF80446A8
:10167C0012F0C2F8A4F1AC0303EBD3734FEA630886
:10168C007A3800EBD070431019461C467B23B422E9
:10169C00404608F0E9FB029010B92BB0BDE8F08F82
:1016AC0009F0B6FF20A9002202F001035B00013B08
:1016BC0041F8043B01320A2AF6D122464146002069
:1016CC00FFF776FFFFF7DAFB099040230393012322
:1016DC00089304F17A09734E2746A1E05BF8243095
:1016EC00A9EB030204EBD4704010C0F1040000938A
:1016FC005346063A294656F8200015F087FA01346D
:10170C0010350A2C13D0052CE8DC5BF82430A9EB3F
:10171C00030204EBD470401000935346063A29465A
:10172C0056F8200015F072FA01341035EBE7ADF8DD
:10173C00288008F10303ADF82C30ADF82A70ADF811
:10174C002E900AA815F079F8574815F08DF8572007
:10175C0012F03CFF042400944B46DDF81CA05246CA
:10176C003946404616F0FAFA002015F066F807F1F3
:10177C007903039D08EB0502791C08EB040015F0B6
:10178C000FFAFF2012F022FF484815F06DF8009474
:10179C004B4652463946404615F036FF3A464146CE
:1017AC00029C2046FFF704FF204608F0E3FB069856
:1017BC0008F062FB2B46089A13440393093B9A2BBF
:1017CC0084BF5342089316A90CAD0DF1800C6446EE
:1017DC0004E0524244F8042C61450FD00B6854F8D5
:1017EC00042B134441F8043B55F8040B00F10A0E8A
:1017FC007345EEDC0A388342EEDAEAE7FFF73EFB8C
:10180C00049BC01A1E283DDCC0F11F0011F07AFFAA
:10181C00FFF76EF943F69723059A9A4235DCA0BB85
:10182C00FFF72CFB0490099A831A0593029808F091
:10183C0023FB06901E4815F017F808F1AC031A4666
:10184C000793042300934B463946404616F086FA1C
:10185C00184815F009F8BC1D07F17E0B08F1AA0A0F
:10186C0008F1020552462946204615F00FF90A34B4
:10187C005C45F7D108F1080500240DF1580B4FF029
:10188C00010A40E714F01CFFC2E7029808F084FA42
:10189C0003E700BF505903007C590300885903002B
:1018AC00B05F030098590300D99100FF0094F3FF37
:1018BC004A2210FF774830FF2DE9F04FCDB0C84ACF
:1018CC0049AB07CA03C31A807722C6492BA830F04C
:1018DC0096FE002117914C2218A830F0B9FE11F099
:1018EC0083FF079011F088FF0546B0F58C7FC0F29E
:1018FC00A081B0F1780748BF0F373F1105222BA903
:10190C0049A8FFF79DFBFFF7B1FA4FF0FF3014F039
:10191C00ABFFB54814F0D4FF079B03EBD3710C223B
:10192C004910B24816F056FBB14814F0C9FF4FEA03
:10193C00470A17F097FAAAEB000000EBD07464107A
:10194C003C3422460121AB4816F030FB544422466D
:10195C000121A94816F02AFBBE00039654442246E6
:10196C000121A64816F022FB0AEB07035B00059346
:10197C00544422460121A24816F018FBFB000493A4
:10198C005444224601219F4816F010FBF3195B00CA
:10199C0006935444224601219B4816F007FB0AEBA0
:1019AC0007039B0015930AEB04020121974816F0DC
:1019BC00FDFA974814F084FF11F036FF014617A882
:1019CC00FEF7F4FF934917A8FFF72CF8092013F042
:1019DC006FFD0446002840F02E81A5F119020C2160
:1019EC0017A816F0E3FAFFF749FA814607EB47030D
:1019FC0003F13C02089203F13B02099207EB8702C8
:101A0C0002F13C010A9102F13B010B91C7EBC701BA
:101A1C0001F13C000C9001F13B000D9007EBC7006D
:101A2C0000F13C040E943B300F9007EB420202F1A4
:101A3C003C0010903B32119207EB830303F13C0204
:101A4C0012923B331393490001F13B031493DFF8DB
:101A5C00C881BB4641F26F76FFF710FAA0EB090084
:101A6C00B04200F3F580FFF743F8002840F0F08017
:101A7C00FFF704FAA0EB090088FB0023C417C4EBA2
:101A8C00E3144FF4FA6303FB140488FB0423E517F7
:101A9C00C5EBA315614B03FB054414F011FEB4F523
:101AAC00FA7FD9DCC4EB042488FB0423E417C4EBD1
:101ABC006314C5EB05256C4004EB042304EB0324F1
:101ACC00C4F1FF1606F57F46079BA3F13C05019474
:101ADC00534F00970BF13B032A463C21084612F06A
:101AEC0031FA019600970AF13B032A460BF13C01AF
:101AFC003C2012F027FA01944FF0FF270097099B26
:101B0C002A460AF13C013C2012F01CFA019600977F
:101B1C00039B3B332A4608993C2012F013FA01949C
:101B2C00404F00970B9B2A4603993C313C2012F006
:101B3C0009FA01960097059B3B332A460A993C20EB
:101B4C0012F000FA0194384F00970D9B2A46059924
:101B5C003C313C2012F0F6F901960097049B3B3384
:101B6C002A460C993C2012F0EDF901946FF0FF0716
:101B7C0000970F9B2A4604993C313C2012F0E2F965
:101B8C0001960097069B3B332A460E993C2012F097
:101B9C00D9F901946FF47F070097119B2A46069997
:101BAC003C313C2012F0CEF901960097159F07F1BD
:101BBC003B032A4610993C2012F0C4F901946FF4AF
:101BCC007F440094139B2A4607F13C013C2012F001
:101BDC00B9F901960094149B2A4612993C2025E0F1
:101BEC002C60030038600300D4CB0300D85F0300E3
:101BFC00DCB80300E45F0300E85F0300F05F030060
:101C0C00F85F03000060030008600300106003002D
:101C1C007C86050018600300D34D621018FCFFFF92
:101C2C000000FFFFFF0000FF808080FF12F08AF9A8
:101C3C0010E70A2762E6084917A8FEF7F3FE2146CB
:101C4C0017A8FEF7B3FE054917A8FEF7EBFEC4E68E
:101C5C004DB0BDE8F08F00BF20600300246003008E
:101C6C00034B0360042343600D230381704700BFC3
:101C7C00000000102DE9F04389B06C46404D0FCDAB
:101C8C000FC42B6824F8023B1B0C23700023CDF8E7
:101C9C001330CDF81730CDF81A3011F0A5FD0646EB
:101CAC0011F0AAFD0446FFF7E1F8022014F072FED1
:101CBC004FF0FF3014F0D8FDDFF8C880404614F028
:101CCC00FFFD7508A700C4F3191229462E4816F01B
:101CDC0081F9DFF8B890484614F0F2FD3A1904EB9C
:101CEC004202920929462A4816F074F9294814F040
:101CFC00BBFD162704FB07F7BF093A4629462648C1
:101D0C0016F068F9254814F0DBFD07F1120229469C
:101D1C00234816F05FF94FF0FF3014F0A5FD48464C
:101D2C0014F0CEFD14F060FC0146684630F076FBF2
:101D3C00C4EB441292092946684616F04BF9262248
:101D4C0004FB02F217480388F11A9209490813F0B0
:101D5C006BFF4FF0FF3014F087FD404614F0B0FDE0
:101D6C00C4EBC404C4F3D90229460F4816F032F967
:101D7C0041F28830FFF796F809B0BDE8F08300BF58
:101D8C0048610300D4CB0300B0600300DCB803004F
:101D9C00B86003002288FFFFF0600300887F050015
:101DAC0018610300FC8A03003861030030B589B068
:101DBC000023019302930393114C124D2378012BB2
:101DCC0019D0642204A928682CF0C4F80346002812
:101DDC00F4D1079A012A09D04FF0FF3201920292F6
:101DEC008DF80C3001A814F057F8E7E7059B019328
:101DFC00069A0123F3E70020014B187009B030BD9F
:101E0C00A5983EA0A8983EA030B585B0334B1A6873
:101E1C00117811701A68324B1A60324B324A1A60C0
:101E2C00324B1B684BB1324B1B78C3B103A9314801
:101E3C002DF02FFBE0B105B030BD1CF049FF4FF485
:101E4C007F32002130F004FC274A0021234B186814
:101E5C0030F0FEFB254B4FF0FF321A60E3E7042015
:101E6C000FF0FAFE14F05CFA214BFF221A70DDE73A
:101E7C00214A102101202BF097FF18B103982DF067
:101E8C0018FBD8E71C4A1D491D482DF0C5FD20B193
:101E9C00194B18682BF0ABFFF0E71A4B0193052395
:101EAC00009300234FF48062174918482CF00AF96C
:101EBC0030B1114B1968114B18682DF00EFEE7E785
:101ECC00FFF73EF8124B01221A7015461C462846A5
:101EDC002BF020FE2378012BF9D0EAE7100000103C
:101EEC007CB03EA078B03EA000F81F009C983EA0AD
:101EFC00A4983EA094EA0300A8983EA0AC983EA0FB
:101F0C0098EA0300A0983EA0A4EA0300B91D0000C3
:101F1C00A5983EA0024B4FF0FF321A60704700BFED
:101F2C0038993EA02DE9F04F91B0044625F050F9B8
:101F3C000FAA002120462DF0C8FA4E4E4FF4F8435C
:101F4C0007930025069547F6E0770597022304933F
:101F5C0040F20F13039340F2DF13029301950095A7
:101F6C000F9B4FF488724FF4F071304625F070FDE2
:101F7C00414C2146304626F039F8304626F038F8E8
:101F8C0080461F223D49304626F043F8ADF83450C8
:101F9C00ADF83650F369ADF83830336AADF83A30F5
:101FAC003946304625F08FFD2146304626F01EF886
:101FBC000BAFC82239460DA825F013FBBDF82CB089
:101FCC00BDF82E90BDF83240DFF8B4A0C8225146BF
:101FDC00384625F01CFBADF82CB0ADF82E90ADF8C2
:101FEC003240544634F86039063BADF830300DF1D0
:101FFC0024092B4640224946384625F0D8FA99E860
:10200C00030087E8030008F122022B4692B24946EE
:10201C00384625F098FABDF824302AF8603CBDF813
:10202C002830A380BDF8263063802033E380154B25
:10203C00A360154BE360154B2361A561E561A562B7
:10204C002146304624F074FE2946304625F03DFDED
:10205C00B4F866300093B4F86430B4F86220B4F885
:10206C006010304625F09AFC25F0C6F8A56611B034
:10207C00BDE8F08F48993EA02C600600B0EA030042
:10208C0018993EA0D4EA0300211F00007406050035
:10209C0010B582B0104C0021204625F016FD002111
:1020AC00204625F010FD0021204625F011FD0B4B9C
:1020BC00196809120A4B1A681212131D00930B1D92
:1020CC00053A0539204625F069FC0021204625F00B
:1020DC00FFFC02B010BD00BF48993EA044993EA041
:1020EC0040993EA02DE9F04F8DB000224E4B1A6066
:1020FC004E4B5A679A67DA67DA661A67B3F860204C
:10210C00B3F864100A44521049490A60B3F86220CB
:10211C00B3F8663013445B10464A1360464A1021EC
:10212C0001202BF041FE10B10DB0BDE8F08F424CF8
:10213C00424A434920682BF076FE22460AA94148C0
:10214C002DF06AFC20B13C4B18682BF050FEEBE7ED
:10215C000BA93D482DF09DF928B1374B19680A9809
:10216C002DF0BBFCEFE709AA00210B982DF0ADF97F
:10217C0008A936482CF036FA18B10B982DF099F9BD
:10218C00EBE7334908982CF019FA0028F5D10B9895
:10219C00FFF7C8FE2BF042FF0446234B1B68002BB5
:1021AC00EBD1DFF89490DFF884802A4F84E01F4B4A
:1021BC000022DA661A6710264FF00A0BDFF890A09F
:1021CC001D4658462BF0A6FCDAF8000003685B6944
:1021DC00642205A99847EB6E059A1A44EA662B6FA0
:1021EC0006990B442B67013EEBD11146002AB8BF70
:1021FC0002F10F0109110D4AD1661A46002BB8BF26
:10220C0003F10F021211094B1A674FF0FF325A6794
:10221C002BF004FF104B186075E04FF496329DE0E4
:10222C004FF49633A4E000BF38993EA0B8983EA076
:10223C0044993EA040993EA0B4983EA0F0EA030019
:10224C00DCEA030098EA030094EA0300E8EA0300DE
:10225C003C993EA048993EA0B0983EA0B04200F0F8
:10226C00E780774B9B6E002B40F0E680754B1E6031
:10227C00754B1D603312053B03932B12053B0493E6
:10228C00724D04AA03A9284625F030FC284625F0F7
:10229C00F5F9BDF81020BDF80C106D4825F020F8AC
:1022AC00674B4FF0FF329A6614202BF033FC694BCE
:1022BC001B68002B7FF461AF0023D9F80020414646
:1022CC00384624F0DBFE054626462BF0A7FE0446D6
:1022DC00002DE9D1B042E7D05F4B186803685B6909
:1022EC00642205A9984705462BF098FE5B4B1A68AB
:1022FC001860002DD8D1524B5B6F0193002B3FF42B
:10230C0056AF831A01934E4BD96E059A521A059209
:10231C00196F069B5B1A0693019901FB02F2002AC6
:10232C00BCBF02F57F42FF3212144549896F01EBA5
:10233C004222019901FB03F3002BBCBF03F57F4341
:10234C00FF331B143E49C96F01EB4323B2F5963F93
:10235C00BFF663AF42498A42B8BF0A4638498A671A
:10236C00B3F5963FBFF65CAF3D498B42B8BF0B4609
:10237C00DFF8CCC0CCF87C3032490868DDF804A01A
:10238C000AFB02F1DFF8DCE08EFB0165CE17C6EB31
:10239C00A51606442C4909680AFB03F58EFB05AE0D
:1023AC00ED17C5EBAE150D44BCF864C0ACF1060CD2
:1023BC004FEA0C2EB6EB0C2F06DD02EBD27252104C
:1023CC0052421F4EB26776461D4AB2F86020063262
:1023DC004FEA022CB6EB022F07DA194EB26F02EB62
:1023EC00D27252105242B2676646154AB2F8662053
:1023FC00063A4FEA022CB5EB022F06DD03EBD37342
:10240C005B105B420E4AD36765460D4BB3F86230E6
:10241C0006334FEA032CB5EB032FBFF61FAF084A68
:10242C00D36F03EBD3735B105B42D367654615E741
:10243C00A9427FF416AF37E7FFF72AFE16E700BF75
:10244C00B8983EA044993EA040993EA048993EA021
:10245C0034C6040038993EA03C993EA0B0983EA0EA
:10246C0000D4FEFFD34D621083694FF0FF329A66A1
:10247C00704700002DE9F04FA9B0044600F16C0B39
:10248C0027AA002140682DF020F824F0A1FE052099
:10249C002BF040FB04F108084FF4F843079300239A
:1024AC00069347F6E07205920222049240F20F1254
:1024BC00039240F2DF12029201930093279B4FF498
:1024CC0088724FF4F071404625F0C2FA6B494046D1
:1024DC0025F08CFD6A4B1B68002B40D023681A68D2
:1024EC0040F2E77302931D23019306230093654B7F
:1024FC001B68654908A82FF069FF1F2208A94046F0
:10250C0025F087FD0021404625F0DFFA404625F0F6
:10251C006FFD05460023ADF89430ADF89630636A34
:10252C00ADF89830A36AADF89A30082125A824F0AC
:10253C00E9FF23685E689B68C3B95C46BDF89A20C6
:10254C00BDF89630D21AA93A521B0023C2F34F029F
:10255C001FA925A824F0DDFF4FF0020A35E02368FF
:10256C001F221968404625F054FDCBE705F12202E5
:10257C00022392B223A925A824F0E5FF402221A929
:10258C0023A825F044F8BDF88420A4F86C20BDF8ED
:10259C008630A4F86E303F32A4F870201F33A4F8B4
:1025AC0072303A4B63673A4BA3673A4BE367C4F814
:1025BC0084400023C4F88830A4F880308C34BDE704
:1025CC00A5F11006BAF1010A48D03368002B45D0AA
:1025DC002823402223A925A824F09BFFBDF898208E
:1025EC00BDF89430D21AA2F259120023C2F34F0252
:1025FC001FA923A824F0C1FF06F1100504F18007E0
:10260C004FF01E092E4655F8103C002BD8D04B46E7
:10261C00402221A923A824F0B0FFBDF884302380E8
:10262C00BDF886306380BDF88830A380BDF88A3051
:10263C00E38055F8103CA36055F80C3CE36055F86A
:10264C00083C236155F8043CA3610023E361A38299
:10265C0020341035BC42D5D13C46B3E70023A360EF
:10266C005946404624F064FB2DF0AAF810B129B06D
:10267C00BDE8F08F24F0C6FDF9E700BF2C60060022
:10268C0084A43EA088A43EA0F4EA0300D4EA03008C
:10269C0075240000740605002DE9F04182B0054652
:1026AC004FF4D6702DF092F804466A4610210120A2
:1026BC002BF07AFB08B1002300935CB14FF4D67277
:1026CC00002120462FF0C4FF2560009B2BB920462B
:1026DC002DF080F802B0BDE8F0816A4601A92348CC
:1026EC002DF09AF918B100982BF081FBEFE7211D22
:1026FC001F482CF0CEFE20B1009901982DF0EDF979
:10270C00F1E72046FFF7B6FE04F16C08194F04F10F
:10271C00080605E02046FFF7ADFE09E03B68BBB9B3
:10272C00A36EF3B9EB681BB1984710F0010FF1D110
:10273C004FF0FF33009A4146304624F09FFC0028AE
:10274C00ECD0A36E002BE9D12046FFF793FEE5E712
:10275C0006F094FA2046FFF78DFE064B00221A6015
:10276C00D5E760682CF0A5FEC6E700BF98EA030029
:10277C0094EA0300A8993EA008B58069FFF78CFF86
:10278C0008BD000070B504460D460E4B1B6883B1A6
:10279C0000202BF033FE0C4B1E681CF0AFFA2A46BF
:1027AC00B0FBF4F130462DF082FA00202BF008FE3D
:1027BC0070BD054905482DF06AFA024B4FF0FF3207
:1027CC001A60E5E7AC993EA0B0993EA020EB03005F
:1027DC0008B51421FA20FFF7D5FF08BD08B54FF452
:1027EC00FA716420FFF7CEFF08BD83694FF0FF320A
:1027FC00C3F8E4207047000010B582B004460F4BBC
:10280C001B68B3B9002125F060F947F6E07120464A
:10281C0025F059F90A48838842880188C088013814
:10282C000090013B01320131204625F0B7F802B08F
:10283C0010BD47F6E07125F048F9E6E7BC993EA0DB
:10284C00C0993EA010B58EB0044603A91C482CF0CC
:10285C0020FE1C4B1B68B3F1FF3F2AD0194B4FF0E5
:10286C00FF321A6041F28833059342F210730693DB
:10287C0047F2305307934FF47A730493124B0A9335
:10288C00124B0B93124B0C93124B0D934FF488730A
:10289C0000934FF4F07340226F210F4825F016FC83
:1028AC0004A903982CF02AFFA069FFF7A5FF0EB02E
:1028BC0010BD044B00221A602CF05CFFF4E700BF43
:1028CC0094EA0300BC993EA009810200C181020078
:1028DC00E182020055830200AC0304002DE9F04FA5
:1028EC0099B04FF48A702CF071FF1A4B1860A8B194
:1028FC0004464FF48A7200212FF0AAFE4FF0FF33EA
:10290C00C4F80431144A102101202BF04DFA40B1C7
:10291C00104C20682CF05EFF0023236019B0BDE83A
:10292C00F08F0D4A17A90D482DF076F820B10A4BFF
:10293C0018682BF05CFAEBE7064B19686031084815
:10294C002CF0A7FD70B1044B196817982DF0C5F841
:10295C00EDE700BFB8993EA0B4993EA098EA0300F9
:10296C0094EA0300C94C236803F5887203F5867159
:10297C00186E2CF0EBFD246804F16403099324F029
:10298C0027FC0AAA0021206E2CF09FFD4FF4F8437F
:10299C0007930025069547F6E07BCDF814B002238B
:1029AC00049340F20F13039340F2DF13029301954B
:1029BC0000950A9B4FF488724FF4F071204625F075
:1029CC0047F8B349204625F011FB204625F010FBB3
:1029DC00C4F800011F22AF49204625F01AFB5946C6
:1029EC00204625F070F82946204625F06EF8ADF803
:1029FC002C50ADF82E50E369ADF83030236AADF8A9
:102A0C0032300DF12C090821484624F07BFDD4F816
:102A1C00003103F126020DAE052392B23146484631
:102A2C0024F091FD0FAF96E8030087E8030005231F
:102A3C0040223146384624F0A0FD0121304624F0D6
:102A4C0061FDBDF83430A4F864303F33A4F868302D
:102A5C00BDF83630A4F866301F33A4F86A308E4BBC
:102A6C00E3668E4B23678E4B6367E467C4F8805034
:102A7C0097E8030086E8030064223946304624F0C8
:102A8C00C6FDBDF84230BDF83E209B1A03EBD37354
:102A9C005A100632834E052392B23146384624F042
:102AAC0052FDB6F80080204625F0A2FA08F1100875
:102ABC008044A6F80480B6F80280204625F098FAE7
:102ACC0008F1100880441FFA88F3F3803288A4F8C8
:102ADC008420B288A4F888207288A4F88620A4F8F0
:102AEC008A30714BC4F88C30704BC4F89030C4F8F9
:102AFC009450C4F89C40C4F8A050BDF83080BDF888
:102B0C002C30A8EB0308A8F21318694BA3FB083868
:102B1C00C8F34F0843462A463946484624F02DFD53
:102B2C0004F1F00A434654225146484624F025FD50
:102B3C0004F1F80804224146504624F068FD1421A3
:102B4C00404624F0C3FC2B46C0223946484624F0AC
:102B5C0014FDC02204F1E801384624F042FD4C4932
:102B6C00204625F043FA0121204625F09EFA2946FD
:102B7C00204624F0ADFF5946204624F0A4FF9AE8E5
:102B8C00030089E80300BDF832300093BDF8303003
:102B9C00BDF82E20BDF82C10204624F0FFFE98E83E
:102BAC00030089E80300BDF832300093BDF83030E3
:102BBC00BDF82E20BDF82C10204624F0EFFE204648
:102BCC00FFF71AFE3588204625F012FA7388421951
:102BDC00083316323749204625F0D5F901267702FD
:102BEC0007F4F84700253946204624F06CFFB4F86A
:102BFC00EA20B4F8E81032442944204624F0C1FD00
:102C0C000135C02DEFD10136412EE8D10126370117
:102C1C0007F4787700253946204624F054FFB4F8A1
:102C2C00EA203244B4F8E81040322944204624F01B
:102C3C00A8FD0135C02DEED10136412EE7D101267C
:102C4C00C6F3440700253946204624F03CFFB4F86F
:102C5C00EA203244B4F8E81080322944204624F0AB
:102C6C0090FD0135C02DEED10136412EE8D147F64D
:102C7C00E071204624F027FF0999204624F058F8EB
:102C8C0024F0BAFA014E0C4F2FE000BFB8993EA0C9
:102C9C002C60060028EB0300D4EA0300F7270000A1
:102CAC0074060500C0993EA08CFA03005128000060
:102CBC00ABAAAAAA44EB0300B4993EA00021C2F827
:102CCC000C11106E2CF035FC604B1B684FF0FF3272
:102CDC00C3F80421306811AA00F1640124F062F8F1
:102CEC003468D4F80431002B3CD13368D3F8E42099
:102CFC00002A40F0A6804FF4FA7211A938682BF024
:102D0C0029F90028ECD1129B1693139B159315AA45
:102D1C0016A9306824F0E0FE149B012BDAD132683E
:102D2C00159BB2F8F2109942D4DCB2F8F6108B4233
:102D3C00D0DC1699B2F8F0008842CBDCB2F8F40083
:102D4C008142C7DCB2F8FE008342B7DCC11AD2F86C
:102D5C00103103FB01F1431CB2F8FA001B1AB1FB52
:102D6C00F3F1ACE70121204625F09FF9B4F8F88087
:102D7C00B4F8FAB0B4F8FC90B4F8FEA004F588727C
:102D8C0004F58671206E2CF0E1FBAAEB0B02D4F853
:102D9C000C3102FB0333D4F81021B3FBF2F5AAEB90
:102DAC000505D4F808319D422CD08BBB012120465F
:102DBC0024F08EFE47F6E071204624F084FECDF818
:102DCC0000A04B465A464146204624F0E7FDC4F885
:102DDC0008510021204624F07BFE47F6E071204686
:102DEC0024F071FE0021204624F06FFED4F8082157
:102DFC00531D009309F10F03053AA8F10F0120466A
:102E0C0024F0CCFD114B1B680022C3F804216CE7A5
:102E1C000021204624F05CFE0021204624F053FEC5
:102E2C000021204624F051FED4F80821531D0093B4
:102E3C0009F10F03053AA8F10F01204624F0AEFD6D
:102E4C00B4E7186E2CF035FB7DE500BFB8993EA0B9
:102E5C00F0B583B006460C4615464FF4F843019383
:102E6C00131D00930B1D043A043924F01FFA00279C
:102E7C000197EB1C0093E31CEA1EE11E304624F084
:102E8C0015FA47F6FF730193AB1C0093A31CAA1E03
:102E9C00A11E304624F00AFA01976B1C0093631CA8
:102EAC006A1E611E304624F001FA03B0F0BD00002A
:102EBC0010B5A2B021A93F482CF0EBFA08B122B012
:102ECC0010BD21982CF01DFB4FF4807121982CF033
:102EDC0030FB24F07DF920AA002121982CF0F5FA82
:102EEC004FF4F84307930023069347F6E0720592DC
:102EFC000222049240F20F12039240F2DF1202926D
:102F0C0001930093209B4FF488724FF4F07108A842
:102F1C0024F09EFD284908A825F068F81F222749AF
:102F2C0008A825F076F808A825F062F884B2244B9E
:102F3C001B78012B23D023464FF4F072214908A8AB
:102F4C0025F02CF863004FF4F0721F4908A825F007
:102F5C0025F8C4F144039B004FF4F0721B4908A8F8
:102F6C0025F01CF8A4EB840404F588734FF4F0727C
:102F7C00174908A825F012F824F03EF99FE72346DC
:102F8C004FF4F072134908A825F008F8C4F1440373
:102F9C009B004FF4F0720D4908A824F0FFFFA4EB3E
:102FAC00840404F588734FF4F072094908A824F0DE
:102FBC00F5FFE1E794EA03002C60060058EB0300F0
:102FCC00CC993EA0D8EB0300FCEB030098EB03007C
:102FDC00BCEB030070EB03002DE9F04F97B00390AE
:102FEC00144600234FF0FF36DFF868B29A4A1032CD
:102FFC00099208968A46994A137050462CF0CAFCDE
:10300C001CB9974B1B68032B10D0FFF751FF924F45
:10301C00DFF84C82002304931D46A4E001234FF0FB
:10302C00FF34E8E701234FF0FF34E4E78D4D8A4A83
:10303C00294650462CF0C6FC099A05F11001504661
:10304C002CF0C0FC844B03F1200205F1200150460A
:10305C002CF0B8FC50462CF0A9FC0646DBF80030EE
:10306C000894DBF800304BB9002ED7D1089B002B0D
:10307C00D8D17B4B00229A6402F016FF17B0BDE842
:10308C00F08F1395149509F1010932202AF042FDB5
:10309C00B9F1030F1CD812A950462CF027FC0028BC
:1030AC00F3D1DBF80030B3F1FF3FEAD0129B13F001
:1030BC00010F09D0029B002BE7D0139B1E44149BDD
:1030CC001C4409F10109E0E74FF0FF330293DCE700
:1030DC00B6FBF9F61396B4FBF9F4149412AC079AF8
:1030EC00214650462CF06EFC08F1040694E80F00C3
:1030FC0086E80F00049E741C594B1C60FFF768FB9C
:10310C00BDF81410BDF818200195131D00930B1D6C
:10311C00043A0439039824F0C9F826B1DBF80030DE
:10312C00DBB932260FE0FFF7C3FEDBF80030002BD3
:10313C00F7D0103708F1100814E030462AF0EAFCFA
:10314C00DBF800304BB912A950462CF0CFFB00280D
:10315C00F3D1129B13F0010FEFD1032C6FD010376A
:10316C0008F11008049407977B680593BA680692D7
:10317C0092B299B20398FFF76BFE0295A9462C46C2
:10318C002E4688E7DFF8E0900DF1280832250296EC
:10319C00049417E028462AF0BDFC12A950462CF0E6
:1031AC00A5FB0028F6D1129B13F0010FF2D14FF4BE
:1031BC0096702AF0AFFC09F1100908F1100812AB57
:1031CC00984522D0D9F80460D9F80870BAB2B1B2D7
:1031DC000398FFF73DFE4446214650462CF086FBF3
:1031EC000028F9D1236813F0010FF5D0FFF7F0FA9E
:1031FC00B1B2BAB200230193131D00930B1D043A14
:10320C000439039824F052F8C7E7029E049C0B9BE8
:10321C00A3F5CB73302B3FF624AF0C9BC63B302B66
:10322C003FF61FAF0F9BD83B302B3FF61AAF109BCE
:10323C00703B089A302B98BF2246089211E75046F3
:10324C002CF0B4FB0646DBF80040002C9AD000238F
:10325C00089306E7A8993EA040EC0300CC993EA049
:10326C009CA33EA0A0A33EA020EC030010B584B00C
:10327C000446184A102101202AF096FD10B10020B6
:10328C0004B010BD134A03A913482CF0C5FB20B1A0
:10329C00104B18682AF0ABFDF1E702A90F482CF08F
:1032AC00F8F828B10B4B196803982CF016FCEFE7D3
:1032BC0001AA002102982CF008F9094B9B6C002BF9
:1032CC000CBF22464FF0FF3203990198FFF784FEA2
:1032DC00E8E700BFC8993EA098EA030094EA03000F
:1032EC009CA33EA030B587B0002205A911482CF054
:1032FC0093FBE0B90524322501A905982CF0F6FAC8
:10330C00019B13F0010F10D028462AF003FC013C5E
:10331C00F2D14FF0FF34002105982CF0DEFB0A208F
:10332C002AF0F8FB204607B030BD0024F3E74FF03D
:10333C00FF34F7E798EA030008B54FF0FF30FFF7CA
:10334C0095FF08BD704700002A4B186800B97047FC
:10335C002DE9F04F83B04FF0FF312AF05AFC264C88
:10336C002649204624F042FE0021204624F09DFEF2
:10337C000021204624F0AEFB4FF47871204624F057
:10338C00A2FBDFF87CB01F4B01934FF01B0AA04649
:10339C0040F2D1171EE00834BC4211D015F8012FB1
:1033AC0016F8013F9A42F6D04A462146404624F090
:1033BC00ECFC2978404624F04BFD2B783370EAE77F
:1033CC000AF1080A0BF12D0B019B2D330193BAF175
:1033DC00E30F04D0D146019E5D466924DEE701214E
:1033EC00054824F062FE034B18682AF035FC03B044
:1033FC00BDE8F08FD4993EA0ACA23EA08469060033
:10340C00439E3EA0DB993EA070B5144901F587663A
:10341C000B462D310A4601F120051468D2F804E060
:10342C00D2F808C0D0681C60C3F804E0C3F808C028
:10343C00D86010321033AA42EFD1156854689068E6
:10344C001D605C609860127B1A73B142E0D12D2232
:10345C00202103482FF0FCF870BD00BF449E3EA015
:10346C007CA23EA038B50446354B186800B938BD6F
:10347C004FF0FF312AF0CDFB324B1B882C2B02D99D
:10348C00304B00221A80304B1B88182B02D92E4B44
:10349C0000221A800C2C20D00A2C2ED00D2C38D0C7
:1034AC00082C3AD0284B1D882648038805EB45028A
:1034BC00C2EB021225490A44D45401339BB2038057
:1034CC002C2B15D96B1C9BB21F4A1380182B0FD9B0
:1034DC00FFF79AFF1C4B1D800AE040F26542202149
:1034EC001A482FF0B5F80023164A1380164A138099
:1034FC00134B18682AF0B0FBB9E7134A1488631C05
:10350C009BB21380182BF3D9FFF77EFF0E4B1C8058
:10351C00EEE70C4B00221A80EAE70A4B1B88002BC3
:10352C00E6D0013B9BB2074A1380074A128802EB94
:10353C004202C2EB021205490A442021D154D7E7BA
:10354C00D4993EA0DA993EA0D8993EA0449E3EA0C4
:10355C0010B50446007828B1FFF784FF14F8010F6A
:10356C000028F9D110BD00002DE9F0478CB00446BD
:10357C0023F02EFE0BAA002120462BF0A6FF414C77
:10358C004FF4F84307930023069347F6E07505952F
:10359C000222049240F20F12039240F2DF120292C6
:1035AC00019300930B9B4FF488724FF4F0712046FB
:1035BC0024F04EFA3449204624F018FD1F223349DA
:1035CC00204624F026FD2946204624F07CFA304E75
:1035DC00DFF8C080A146B2463369002B48D033884F
:1035EC000A937388099309AA0AA9264824F07EFA3B
:1035FC00BDF82420BDF82810306923F071FE98F82E
:10360C000010002451B1454600241E4F384624F0CA
:10361C00F3FC044415F8011F0029F7D1BAF8063061
:10362C00BAF80020BAF804100A4464080233C4EB58
:10363C0062024146484624F0A6FC2036D6F80880A3
:10364C00B8F1000FC7D10F4C0021204624F03DFAF1
:10365C00E323009340F2D11319226721204624F072
:10366C009DF9FFF771FE23F0C7FD0CB0BDE8F087A4
:10367C00F3880093B38872883188024824F08EF95D
:10368C00BDE700BFACA23EA02C60060090EC03008E
:10369C00D0EC0300D4EA030010B582B040F26544CC
:1036AC002246002121482EF0D3FF2246202120481B
:1036BC002EF0CEFF00231F4A13801F4A13801F4A8F
:1036CC00102101202AF070FB08B102B010BD1B4A7A
:1036DC0069461B482CF0A0F920B1184B18682AF049
:1036EC0086FBF2E701A917482BF0D3FE98B9164BCD
:1036FC001B68B3B10198FFF737FF1448FFF728FF99
:10370C00FFF722FEFFF76AF84FF4FA602AF002FA8C
:10371C0001982BF0CEFE094B196800982CF0DDF9BE
:10372C00DBE709482AF004FAE4E700BFDC993EA085
:10373C00449E3EA0D8993EA0DA993EA0D0993EA0D6
:10374C0098EA030094EA0300D4993EA0B8EC030075
:10375C00014B01221A60704714A33EA010B582B031
:10376C000A4C0B4B1988204624F0AFF947F6E07150
:10377C00204624F0A8F938230093A02319226121B4
:10378C00204624F00BF902B010BD00BF18A33EA0D8
:10379C001400001008B5084B1B780133DBB2062B64
:1037AC0028BF0023044A1370044A32F81320044B38
:1037BC001A80FFF7D3FF08BD10A33EA0A0EE0300B4
:1037CC00140000102DE9F04786B0814669482BF0B3
:1037DC00FDFF8246684C0121204624F079F947F61A
:1037EC00E071204624F06FF9B9F806300093B9F86F
:1037FC000430B9F80220B9F80010204624F0CEF8B5
:10380C0005AA03215D482AF089FF002846D1D0463D
:10381C001A27594E4546B8240494039703AA04A9C1
:10382C00304624F063F9012300932B46039A049944
:10383C00304624F037FA02350134B4F5C07FEBD1B1
:10384C0008F5C8780137E22FE4D102AB494A51465A
:10385C0005982AF0D3FF18B1464B029A9A4253D1DD
:10386C0005982AF093FF444C0121204624F030F9AE
:10387C000021204624F027F9B9F806300093B9F856
:10388C000430B9F80220B9F80010204624F086F86C
:10389C0050462BF09FFF06B0BDE8F087064605AA00
:1038AC00032137482AF03AFF04460028AFD0354BA5
:1038BC0019684FF47F32881823F0BFFEFEF78EFF95
:1038CC002D4D0021284624F003F90021284624F030
:1038DC00FCF847F6E071284624F0F5F8292300930C
:1038EC004FF4C0731922B721284624F057F8092E3B
:1038FC000DD00D2E27D10D2C1ED01B23B922224901
:10390C001D4824F040FB24E0FEF768FFA8E70D2CCF
:10391C000BD0092C4FF01B034FF0B9020CBF1B4905
:10392C001B49154824F02FFB13E01B23B92219491E
:10393C00284624F028FB0CE01B23B92216490E481C
:10394C0024F021FB05E01B23B92214490A4824F07A
:10395C001AFB0121084824F0BBF84FF4FA602AF056
:10396C00D9F8084B18684FF47F32811823F065FEA4
:10397C0079E700BF8038010018A33EA010ED0300CA
:10398C001CED03002C040010B4ED03004CED0300FF
:10399C0074ED030028ED030094ED0300D0ED03005B
:1039AC002DE9F04F89B0054686482BF00FFF804675
:1039BC00854C0121204624F08BF847F6E071204617
:1039CC0024F081F8EB880093AB886A88298820461C
:1039DC0023F0E4FF07AA01217C482AF09FFE8146D0
:1039EC0040B107AA01217A482AF098FE0446002823
:1039FC0040F08F8004AB734A414607982AF0E8FEEA
:103A0C00044607982AF0C2FE4CB16E4B049A9A42B7
:103A1C0002D1C2461A2704E0FEF7E0FE27E0C246B8
:103A2C001A27694ECDF80C80D046A246AB46A8F1B9
:103A3C000205B8240694059705AA06A9304624F079
:103A4C0055F835F8023F059A0699304624F058F897
:103A5C000134B4F5C07FEDD108F5C8780137E22FF9
:103A6C00E5D1DDF80C8054465D46002C3AD0594B1C
:103A7C0019684FF47F32881823F0DFFDFEF7AEFE95
:103A8C00514C0021204624F023F80021204624F03C
:103A9C001CF847F6E071204624F015F82923009312
:103AAC004FF4C0731922B721204623F077FFB9F1E8
:103ABC00090F71D0B9F10D0F7CD01B23B9224649E7
:103ACC00414824F060FA01213F4824F001F84FF4FA
:103ADC00FA602AF01FF83F4B18684FF47F328118B8
:103AEC0023F0ABFD384C0121204623F0F1FF0021DF
:103AFC00204623F0E8FFEB880093AB886A8829887E
:103B0C00204623F04BFF40462BF064FE09B0BDE885
:103B1C00F08F304B19684FF47F32881823F08DFDED
:103B2C00FEF75CFE284E0021304623F0D1FF002129
:103B3C00304623F0CAFF47F6E071304623F0C3FF4E
:103B4C00292300934FF4C0731922B721304623F078
:103B5C0025FFB9F1090F0DD0B9F10D0FADD10D2C19
:103B6C0021D0092C26D11B23B9221C49164824F03C
:103B7C000AFAA8E70D2C08D0092C0DD11B23B92269
:103B8C001749114824F0FFF99DE71B23B922154969
:103B9C00304624F0F8F996E71B23B92211490A485C
:103BAC0024F0F1F98FE71B23B9220F49064824F0C2
:103BBC00EAF988E71B23B9220B49034824F0E3F9FF
:103BCC0081E700BF8038010018A33EA010ED030070
:103BDC001CED03002C04001078EE030054EE0300DF
:103BEC0004EE0300E0ED030034EE0300A0F1B80C8A
:103BFC00BCF1C70F1AD8A1F11A0CBCF1C70F15D81C
:103C0C00A2F1B80CBCF1C70F10D8A3F11A0CBCF17F
:103C1C00C70F0BD800B583B0009313460A46014674
:103C2C00034823F0C1FD03B05DF804FB704700BFEF
:103C3C0018A33EA008B5A0F1B803C72B08D8A1F172
:103C4C001A03C72B04D80A460146024823F099FDF3
:103C5C0008BD00BF18A33EA070B58AB009AA002108
:103C6C002BF033FC23F0B4FA1E4C4FF4F8430793BB
:103C7C000025069547F6E07605960223049340F25C
:103C8C000F13039340F2DF13029301950095099BE8
:103C9C004FF488724FF4F071204623F0D9FE12498C
:103CAC00204624F0A3F91F221049204624F0B1F934
:103CBC003146204623F007FF0D49204623F038F803
:103CCC002946204623F001FFE22300934FF4C073F2
:103CDC001922B721204623F061FE23F08DFA0AB099
:103CEC0070BD00BF18A33EA02C60060084EE03003C
:103CFC00C4EE03002DE9F04F91B0844B00221A6002
:103D0C00834A102101202AF04FF810B111B0BDE800
:103D1C00F08F7F4A0EA97F482BF07EFE20B17C4BA2
:103D2C0018682AF064F8F1E70FA97B482BF0B1FB77
:103D3C0028B1774B19680E982BF0CFFEEFE70BAA42
:103D4C0000210F982BF0C1FB0F98FFF785FFFFF7B1
:103D5C0005FD4FF0FF31302004F058FC0026B24630
:103D6C00B0466A4C6A4D2768002F40F0CB804FF06C
:103D7C00FF3207A928682AF0EDF80028F3D1089B38
:103D8C000D93099B0C930CAA0DA9644823F0A4FE77
:103D9C000D9BB83BC72B00F2AB800C9B1A3BC72B7F
:103DAC0000F2A6800A9B012B01D0B846DBE72BF072
:103DBC00FFFC5B4B1988002940F08580574823F0A5
:103DCC0082FEB8F1000F50D0DDF834900C9F0AF150
:103DDC00FF308046711E09F1FF3B7B1E02935A4651
:103DEC000591FFF703FF3B465A463146CDF810804C
:103DFC004046FFF7FBFE721C114607F101084346D3
:103E0C005A4603910498FFF7F1FE029B4A46DDF8EF
:103E1C0014B059465046FFF7E9FE3B464A46314638
:103E2C005046FFF7E3FE43464A4603995046FFF7D8
:103E3C00DDFE0AF1010A09F10109029B4A465946C5
:103E4C005046FFF7D3FE3B464A4631465046FFF7F5
:103E5C00CDFE43464A4603995046FFF7C7FEDDF8B0
:103E6C0034A00C9E4FF0FF387DE70D9E0C9F06F1A1
:103E7C00FF3A07F1FF3949465046FFF7DBFE39465A
:103E8C005046FFF7D7FE07F1010841465046FFF7B1
:103E9C00D1FE49463046FFF7CDFE39463046FFF796
:103EAC00C9FE41463046FFF7C5FE0136494630464D
:103EBC00FFF7C0FE39463046FFF7BCFE41463046A0
:103ECC00FFF7B8FECBE7154823F0FDFDB8F1000F66
:103EDC0008D00C9B00930D9B324651460F4823F0A3
:103EEC0063FCBCE70C9A0D990C4823F04AFCB6E72E
:103EFC0007AA0C49094822F055FF0A9B002B08BF62
:103F0C00B84630E70F982BF0D4FA12E714A33EA072
:103F1C000CA33EA098EA030094EA030018A33EA069
:103F2C0014000010C4EE030070B505460C46B2F543
:103F3C00004F2ED0102A41D0002A3ED1486E2AF0D4
:103F4C0079F8B0F57A7F38D32AF068F8606604F116
:103F5C00680201216E482AF0E1FB002832D1AB68DF
:103F6C006C4A022120469847A06E2AF00FFC0023D1
:103F7C00022219462046EE68B0472B6902212046E2
:103F8C009847654B1A889B78A4F8022184F8043171
:103F9C0013E08368614A002120469847AB68604A69
:103FAC00012120469847AB685E4A0221204698477B
:103FBC002AF034F860660023E36670BD4369084656
:103FCC009847FAE7031F0C2B00F28680DFE803F01A
:103FDC003584848484580784844984846700AB685E
:103FEC00514A022120469847504B07CBC4F8020196
:103FFC00C4F80611C4F80A211A889B78A4F80E217B
:10400C0084F81031E36E0133E3660E2BD5D9AB681F
:10401C00474A02212046984700230322194620468E
:10402C00EE68B0472B69032120469847414B03CBE0
:10403C00C4F80201C4F80611BFE7AB683E4A02217E
:10404C00204698473D4B07CBC4F80201C4F8061133
:10405C00C4F80A211A889B78A4F80E2184F8103130
:10406C00D0E7AB68364A022120469847354B03CB44
:10407C00C4F80201C4F806111B88A4F80A31C1E780
:10408C00AB68314A022120469847304B03CBC4F829
:10409C000201C4F806111B88A4F80A31B2E7AB6818
:1040AC002B4A0221204698472A4E0FCEC4F8020113
:1040BC00C4F80611C4F80A21C4F80E31337884F818
:1040CC0012310023032219462046EE68B0472B69B3
:1040DC0003212046984795E7AB681D4A02212046EC
:1040EC0098471D4B07CBC4F80201C4F80611C4F85D
:1040FC000A211B88A4F80E310023032219462046FE
:10410C00EE68B0472B690321204698477AE700BF39
:10411C00C4EF0300D8EF03007892050064EF0300AE
:10412C0080EF0300B4EF0300F0EF030010F0030086
:10413C00DCF00300F4F0030020F0030040F0030077
:10414C0050F003006CF0030078F0030094F00300CF
:10415C00A0F00300B8F00300CCF00300B2F5004F60
:10416C0000D0704738B505460C46002184F86C1019
:10417C008368264A2046984704F1640124482AF0B3
:10418C0031FAC8B1AB68234A002120469847002376
:10419C00032219462046D5F80CC0E0472B690321B1
:1041AC00204698471C4B03CBC4F80201C4F80611F7
:1041BC001B88A4F80A3138BD04F16801606E2AF03E
:1041CC00FDF90028DED1A06E03685B6940F6C412CD
:1041DC0004F1700198470028D4D1AB680F4A002134
:1041EC00204698470023022219462046D5F80CC0D9
:1041FC00E0472B69022120469847094B1A889B7887
:10420C00A4F8022184F80431D5E700BFFCF00300C8
:10421C00E8EA030018F1030040F103004CF103003D
:10422C0078920500F0B583B005460C46B2F5004F08
:10423C005ED0002A7AD1886E03681B6901A9984761
:10424C00002840F08380019A636F9342B8BF626785
:10425C00236F9A42B8BF226782EAE273A3EBE27340
:10426C00C3F34233C3EB431103EB810604F178072C
:10427C00334612145D4938462EF0A8F8AB683A461E
:10428C00002120469847C82029F044FCE36E0133F6
:10429C00E366052B4AD9226FB2F5702F69DA0192C9
:1042AC0082EAE273A3EBE273C3F34233C3EB431131
:1042BC0003EB8106334612144D4938462EF086F82E
:1042CC00AB683A46002120469847EF68002303224A
:1042DC0019462046B8472B69032120469847334698
:1042EC00BDF90620434904F581702EF06FF81DE0EE
:1042FC008368414A00212046984704F164013F48F5
:10430C002AF070F9A0B1EE6800230322194620466A
:10431C00B0472B69032120469847394B03CBC4F88F
:10432C000201C4F806111B88A4F80A3103B0F0BDD1
:10433C0004F16801606E2AF041F90028E3D14FF4D2
:10434C00C813236763670023E366EFE7EE68002377
:10435C00032219462046B0472B6903212046984773
:10436C00284B07CBC4F80201C4F80611C4F80A2183
:10437C00DCE7626FB2F5201F24DD0192C2F34233F9
:10438C00C3EB431103EB8106334612141E49384626
:10439C002EF01CF8AB683A46002120469847EF688F
:1043AC000023032219462046B8472B6903212046D7
:1043BC0098473346BDF90620144904F581702EF058
:1043CC0005F8B3E7EF680023022219462046B847E8
:1043DC002B690221204698473346BDF906200C492B
:1043EC0004F581702DF0F2FFA0E700BFA0F10300EF
:1043FC00C4F10300F0F1030070F103008CF1030031
:10440C0094F0030094F1030004F2030030F2030073
:10441C0040F20300F0B58BB005460C4616466946D3
:10442C006D482AF0DFF858B1EE68002303221946D4
:10443C002046B0472B690321204698470BB0F0BDAE
:10444C0001A900982AF0BAF8002832D1B6F5004F2D
:10445C003AD0002EF2D120263246002102A82EF0AE
:10446C00F7F8019803685F69334602AA4121B847FF
:10447C00002800F08A80EE680023032219462046AB
:10448C00B0472B69032120469847544B03CBC4F803
:10449C000201C4F806111A889B78A4F80A2184F842
:1044AC000C31019803689C6920234D4A4121A04797
:1044BC00C4E7EE680023032219462046B0472B6957
:1044CC00032120469847B9E7AB68464A00212046AD
:1044DC009847019803685E692023414A4121B047FF
:1044EC00B0B1EE680023032219462046B0472B6971
:1044FC00032120469847394B03CBC4F80201C4F87A
:10450C0006111A889B78A4F80A2184F80C3195E7D7
:10451C002022AA2102A82EF09BF8019803689E691C
:10452C00202302AA4121B04706462022552102A889
:10453C002EF08EF8AEB101238DF80830EE68002312
:10454C00032219462046B0472B6903212046984781
:10455C00254B07CBC4F80201C4F80611C4F80A2194
:10456C006CE7019803689E69142302AA4321B047A3
:10457C0001238DF808300028E0D1019803689C696C
:10458C00012302AA4621A04758E7202202A9174876
:10459C002DF08DFE50B9EE680023022219462046FC
:1045AC00B0472B690221204698477AE7EE68002332
:1045BC00032219462046B0472B6903212046984711
:1045CC000B4B07CBC4F80201C4F80611C4F80A213E
:1045DC001B7884F80E3164E74CF2030068F2030098
:1045EC0078A33EA054F2030074F20300D0F603004B
:1045FC0080F2030003460120186000BF00BF00BF1B
:10460C0000BF00BF00BF00BF00BF00BF00BF00BFA6
:10461C0000BF00BF00BF00BF00BF00BF00BF00BF96
:10462C0000BF00BF00BF00BF00BF00BF00BF00BF86
:10463C0000BF00BF00BF00BF00BF00BF00BF00BF76
:10464C0000BF00BF00BF00BF00BF00BF00BF00BF66
:10465C0000BF00BF00BF00BF00BF00BF00BF00BF56
:10466C0000BF00BF00BF00BF00BF00BF00BF00BF46
:10467C0000BF00BF00BF00BF00BF00BF00BF00BF36
:10468C0000BF00BF00BF00BF00BF00BF00BF00BF26
:10469C0000BF00BF00BF00BF00BF00BF00BF00BF16
:1046AC0000BF00BF00BF00BF00BF00BF00BF00BF06
:1046BC0000BF00BF00BF00BF00BF00BF00BF00BFF6
:1046CC0000BF00BF00BF00BF00BF00BF00BF00BFE6
:1046DC0000BF00BF00BF00BF00BF00BF00BF00BFD6
:1046EC0000BF00BF00BF00BF00BF00BF00BF00BFC6
:1046FC0000BF00BF00BF00BF00BF00BF00BF00BFB6
:10470C0000BF00BF00BF00BF00BF00BF00BF00BFA5
:10471C0000BF00BF00BF00BF00BF00BF00BF00BF95
:10472C0000BF00BF00BF00BF00BF00BF00BF00BF85
:10473C0000BF00BF00BF00BF00BF00BF00BF00BF75
:10474C0000BF00BF00BF00BF00BF00BF00BF00BF65
:10475C0000BF00BF00BF00BF00BF00BF00BF00BF55
:10476C0000BF00BF00BF00BF00BF00BF00BF00BF45
:10477C0000BF00BF00BF00BF00BF1A68824202D159
:10478C0040007FF439AF7047F0B502468908013913
:10479C0011F0010E3CD073464FF0AA3042F82300C2
:1047AC005B001942FAD14FF055331360734602EB9C
:1047BC00830052F82340B4F1AA3F14D15B00194294
:1047CC00F5D14FF0AA331360F4464FF055361F461F
:1047DC0010E05B00194207D052F82340B4F1AA3F15
:1047EC00F7D06345F5D0F0BD57514FEA4C0C11EAA8
:1047FC000C0F0BD04FEA8C0502EB8C0042F82C60AE
:10480C001368B3F1AA3FEED17346E5E70020EAE75F
:10481C004FF0553303604FF0AA3303600020E2E7FA
:10482C00032928D910B502464FEA910C864601237C
:10483C0040F8043B9C4503F10103F9D8012300E047
:10484C000B4610461168994214D1D94342F8041B07
:10485C00591C9C45F4D800236FF001047046DEF817
:10486C000010E21A914205D101330EF1040E9C4561
:10487C00F4D8002010BD002070470000B2F5004FA6
:10488C0000D0704770B505460C4683682A4A002153
:10489C002046984728F0A8FA4FF02040FFF7AAFED0
:1048AC00064628F0BBFAB6B1AB68244A0121204673
:1048BC0098470023032219462046D5F80CC0E04740
:1048CC002B6903212046984732461D4904F5817017
:1048DC002DF07CFD70BD28F087FA4FF400014FF0ED
:1048EC002040FFF751FF064628F098FA002EDBD146
:1048FC0028F07AFA4FF400014FF02040FFF790FFB8
:10490C00064628F08BFA002ECED1AB680D4A012159
:10491C0020469847EE680023022219462046B047ED
:10492C002B690221204698474FF40002064904F5F2
:10493C0081702DF04BFDCDE790F20300BCF203002B
:10494C00D4F20300A4F20300B4F20300F0B5C3B038
:10495C0006460C4615468368534A01212046984763
:10496C00524B03CBC4F80201C4F806111B88A4F8FF
:10497C000A3141AA1021284629F0EDFF002874D1F4
:10498C0004F58177419B512B03D040F2E93043B0C1
:10499C00F0BD41AA1121284629F0DDFF002867D17E
:1049AC00419B522B02D040F2E930F0E741AA122190
:1049BC00284629F0D0FF00285DD1419B592B02D00D
:1049CC0040F2E930E3E73A4B07CBC4F802017960D7
:1049DC00BA60B368374A0121204698474FF48022C9
:1049EC004FF4E001284629F0A7FF002846D1802388
:1049FC0001AA4FF4E001284629F07CFF002840D1A1
:104A0C0001AB21A913F8012BFF2A3DD18B42F9D11F
:104A1C00294B07CBC4F802017960BA60B368274A06
:104A2C000121204698470623254A2649284629F085
:104A3C0072FF60BB0623244A2449284629F06BFFE9
:104A4C0040BB802301AA1F49284629F053FF20BBF5
:104A5C000C221F4901A82DF02AFC08BB1D4B1A88FB
:104A6C009B78A4F80221BB7091E740F2E9308EE705
:104A7C0040F2E9308BE740F2E93088E740F2EA3067
:104A8C0085E740F2EA3082E740F2EB307FE74FF403
:104A9C007B707CE74FF47B7079E74FF47B7076E7A3
:104AAC004FF47B7073E700BFDCF2030094F003005B
:104ABC00ECF20300F8F2030008F3030014F3030014
:104ACC0024F30300FCFF71002CF3030002007200BE
:104ADC0034F3030078920500F0B591B000230193F4
:104AEC00ADF80830B2F5004F01D011B0F0BD05465D
:104AFC000C4683681E4A0021204698470FA91D4882
:104B0C0029F0DCFEC8B903A90F9829F033FF039BE9
:104B1C000F9A21462846FFF719FF06460F9829F0F1
:104B2C00DDFE66B9EE680023022219462046B04726
:104B3C002B69022120469847D7E74FF47A7604F187
:104B4C006407C6F30E020C4938462DF03FFCAB68E7
:104B5C003A46022120469847EE6800230322194664
:104B6C002046B0472B69032120469847BDE700BF7C
:104B7C0044F3030064F303006CF3030030B583B01B
:104B8C0005460C46B2F5004F2FD0102A48D0002A0B
:104B9C0044D1486E29F04EFAB0F57A7F3ED329F015
:104BAC003DFA606604F168020121654829F0B6FD02
:104BBC00002839D1AB68634A022120469847A06E81
:104BCC0029F0E4FD0023022219462046D5F80CC03A
:104BDC00E0472B690221204698475B4B1A889B784B
:104BEC00A4F8022184F8043118E08368574A0021A4
:104BFC0020469847AB68564A012120469847AB6837
:104C0C00544A02212046984701A9534829F0FCFA3E
:104C1C000023E366236729F001FA606603B030BD18
:104C2C00436908469847F9E7031F092B51D8DFE879
:104C3C0003F01E505050504105505032AB68474A5B
:104C4C00022120469847464B07CBC4F80201C4F812
:104C5C000611C4F80A211A889B78A4F80E2184F84E
:104C6C001031236F5A1C042B47D02267D6E7AB6850
:104C7C003C4A0221204698473B4B07CBC4F8020123
:104C8C00C4F80611C4F80A211A889B78A4F80E21DE
:104C9C0084F81031E5E7AB68344A02212046984786
:104CAC00334B03CBC4F80201C4F806111B88A4F8DB
:104CBC000A31D6E7AB682F4A0221204698472E4B83
:104CCC0003CBC4F80201C4F806111B88A4F80A31FE
:104CDC00C7E7AB681F4A022120469847274B07CBF2
:104CEC00C4F80201C4F80611C4F80A211A889B788A
:104CFC00A4F80E2184F81031B3E700232367E36E88
:104D0C000133E366062B16D1AB681D4A02212046FF
:104D1C0098470023032219462046D5F80CC0E047DB
:104D2C002B69032120469847164B03CBC4F802018C
:104D3C00C4F8061172E701A9074829F065FA6DE776
:104D4C00DCF30300D8EF03007892050080F3030036
:104D5C00A0F30300B4EF0300CCF30300F0EF030067
:104D6C0010F0030020F0030040F0030050F00300AB
:104D7C006CF0030078F0030094F00300ECF30300F4
:104D8C00DCF00300F4F0030030B583B005460C46AC
:104D9C00B2F5004F2FD0102A48D0002A44D1486ECB
:104DAC0029F048F9B0F57A7F3ED329F037F96066DF
:104DBC0004F168020121654829F0B0FC002839D1C2
:104DCC00AB68634A022120469847A06E29F0DEFCAE
:104DDC000023022219462046D5F80CC0E0472B6967
:104DEC000221204698475B4B1A889B78A4F8022135
:104DFC0084F8043118E08368574A0021204698470C
:104E0C00AB68564A012120469847AB68544A0221A8
:104E1C002046984701A9534829F0F6F90023E36688
:104E2C00236729F0FBF8606603B030BD4369084680
:104E3C009847F9E7031F092B51D8DFE803F01E5000
:104E4C005050504105505032AB68474A0221204621
:104E5C009847464B07CBC4F80201C4F80611C4F8B6
:104E6C000A211A889B78A4F80E2184F81031236F3C
:104E7C005A1C042B47D02267D6E7AB683C4A022168
:104E8C00204698473B4B07CBC4F80201C4F80611E7
:104E9C00C4F80A211A889B78A4F80E2184F81031E2
:104EAC00E5E7AB68344A022120469847334B03CBE5
:104EBC00C4F80201C4F806111B88A4F80A31D6E71D
:104ECC00AB682F4A0221204698472E4B03CBC4F8DF
:104EDC000201C4F806111B88A4F80A31C7E7AB68B5
:104EEC001F4A022120469847274B07CBC4F80201E2
:104EFC00C4F80611C4F80A211A889B78A4F80E216C
:104F0C0084F81031B3E700232367E36E0133E366C3
:104F1C00062B16D1AB681D4A022120469847002368
:104F2C00032219462046D5F80CC0E0472B69032113
:104F3C0020469847164B03CBC4F80201C4F806115F
:104F4C0072E701A9074829F05FF96DE7DCF303006C
:104F5C00D8EF030078920500FCF30300A0F30300E4
:104F6C00B4EF03001CF40300F0EF030010F0030097
:104F7C0020F0030040F0030050F003006CF003003D
:104F8C0078F0030094F00300ECF30300DCF0030072
:104F9C00F4F00300B2F5004F00D070472DE9F04F4C
:104FAC008BB006460C468368744A0021204698470D
:104FBC0003A973482AF06DFA09A9724829F046F939
:104FCC0000B3B368704A002120469847F568002367
:104FDC00032219462046A8473369032120469847E7
:104FEC006A4B03CBC4F80201C4F806111B88A4F861
:104FFC000A31099829F035F903982AF05AFA0BB0BE
:10500C00BDE8F08F002305930A238DF81830012397
:10501C008DF8193004AB089305A9099829F028F9E3
:10502C00D8B1B3685A4A002120469847F568002346
:10503C00032219462046A847336903212046984786
:10504C00544B03CBC4F80201C4F806111A889B78A0
:10505C00A4F80A2184F80C31CBE7049B642202FBF0
:10506C0003F74D4BA3FB07373F0A04EB020B00235E
:10507C003A464A4958462DF0A9F9B3685A460021D8
:10508C002046984704F5817800233A464449404627
:10509C002DF09CF9A7F15003282B0FD9F5680023AC
:1050AC00032219462046A847336903212046984716
:1050BC003A463C4940462DF089F99AE703982AF084
:1050CC002CFA002103982AF034FA642028F022FDEF
:1050DC0005A9099829F0CCF8049B642202FB03F380
:1050EC001A4601932C4BA3FB02394FEA192903985A
:1050FC002AF007FA00254FF00A0A294603982AF0ED
:10510C0018FA504628F006FD0235B5F5807FF4D12B
:10511C004B463A46214958462DF058F9B3685A4641
:10512C000021204698474B463A461D4940462DF0F3
:10513C004DF9019BB3F5994F0FD3F568002303226A
:10514C0019462046A84733690321204698474A460A
:10515C00154940462DF03AF94BE7F5680023022239
:10516C0019462046A84733690221204698474B46EA
:10517C003A460B4940462DF029F93AE72CF4030046
:10518C0094EA030044F403004CF4030094F003008D
:10519C0070F4030094F40300ABAAAAAAA0F40300D1
:1051AC00CCF40300D8F40300E8F40300B2F5004F8C
:1051BC0000D07047F0B587B005460C468368404A6E
:1051CC0000212046984705A93E4829F03FF8E0B158
:1051DC00AB683D4A0021204698470023032219461C
:1051EC002046EE68B0472B69032120469847374B81
:1051FC0003CBC4F80201C4F806111B88A4F80A31C9
:10520C00059829F02EF807B0F0BD022301930A236C
:10521C008DF8083001238DF80930CDF810D001A994
:10522C00059829F025F8D8B1AB68294A0021204609
:10523C009847EE680023032219462046B0472B6995
:10524C00032120469847234B03CBC4F80201C4F832
:10525C0006111A889B78A4F80A2184F80C31CFE740
:10526C00009B642202FB03F31B4EA6FB03269B1B35
:10527C0006EB5306760A04F16407324617493846A2
:10528C002DF0A4F8AB683A46002120469847503ED2
:10529C00282E0AD9EE680023032219462046B0476F
:1052AC002B69032120469847AAE7EE6800230222C7
:1052BC0019462046B0472B690221204698479FE7A4
:1052CC00F8F4030044F403000CF5030094F003001D
:1052DC002CF5030094F403002515405250F50300FF
:1052EC0000B583B00023019340B1431E062B09D8AF
:1052FC00DFE803F00C11161B20252A0001A9154824
:10530C0028F082FF019803B05DF804FB01A9124854
:10531C0028F07AFFF6E701A9104828F075FFF1E7AD
:10532C0001A90F4828F070FFECE701A90D4828F0FF
:10533C006BFFE7E701A90C4828F066FFE2E701A93B
:10534C000A4828F061FFDDE701A9094828F05CFF55
:10535C00D8E700BF68F5030070F5030078F503008B
:10536C0080F5030088F5030090F5030098F5030021
:10537C00A0F5030082B02DE9F04F8FB080468B462C
:10538C00164619931C9D8368A04A012158469847DC
:10539C009F4B03CBCBF80201CBF806111B88ABF863
:1053AC000A310DAA1021304629F0D5FA002840F018
:1053BC001B810BF5817A0D9B512B06D040F2E93005
:1053CC000FB0BDE8F04F02B070470DAA1121304666
:1053DC0029F0C1FA002840F00A810D9B522B02D013
:1053EC0040F2E930ECE70DAA1221304629F0B3FA6D
:1053FC00002840F0FF800D9B592B40F0FE800024CC
:10540C000794CDF810A00895C146059626465F4630
:10541C0007F1640B22467F4958462CF0D7FFD9F888
:10542C0008305A4601213846984700230393E3B2CB
:10543C0006930B94039A784958462CF0C7FFD9F879
:10544C0008305A46012138469847089B002B00F03B
:10545C00B58019AB0A934FF000084546CDF824806F
:10546C00DDF81CA0099A6D4958462CF0AFFFD9F80D
:10547C0008305A460121384698470A9B07935C69C5
:10548C00B44207D1079B1B69002B00F08980434471
:10549C00079341E0624E23463246624958462CF04F
:1054AC0095FFD9F808305A46032138469847B2463A
:1054BC00E8E7464635E0434600225B4958462CF067
:1054CC0085FFD9F808305A460121384698472A46B4
:1054DC00564904982CF07AFF3CB10AF1FF33621E56
:1054EC00524403F8016F9A42FBD122462946059E8D
:1054FC00304629F021FA002840F08280234652469B
:10550C002946304629F007FA00287CD108F1010819
:10551C002544079B984542D0069B002BC9D088F0A8
:10552C00FF06039B002BC6D04346039A40495846BE
:10553C002CF04CFFD9F808305A46012138469847D0
:10554C002A463C4904982CF041FF234652462946F2
:10555C00059829F0CFF9002CD8D00AF1FF32534628
:10556C00601E5044944612F8011FB14202D182428F
:10557C00F8D1CBE74246C846D946C3F101030191A5
:10558C00009663442C4948462CF020FFD8F808308C
:10559C004A4602213846984740F2014010E79846A7
:1055AC00099B013309930A9A08320A92089A9A4283
:1055BC0001D0264656E7CDF81CA02646039B0133A6
:1055CC000393022B7FF436AF0B9C0134022C7FF437
:1055DC001FAFDDF810A0194B1A889B78A7F8022191
:1055EC008AF802300020EBE640F2E930E8E640F2BF
:1055FC00E930E5E640F2E930E2E640F2E930DFE698
:10560C0042F24870DCE642F24970D9E6DCF2030063
:10561C0094F00300A8F50300B4F50300C4F50300EF
:10562C00000040A0D0F50300F0F503001CF60300C9
:10563C0030F603005CF6030070F603007892050068
:10564C00B2F5004F00D07047F0B59BB005460C4644
:10565C008368264A00212046984719A9244829F036
:10566C002DF940BB0DA9199829F084F9EC460DF1E0
:10567C00380EBEE80F00ACE80F00BEE80F00ACE837
:10568C000F009EE807008CE807000D9B199A214635
:10569C002846FFF76FFE0646199829F01FF966B9E0
:1056AC00EE680023022219462046B0472B690221DE
:1056BC002046984718E04FF47A7604F16407C6F355
:1056CC000E020C4938462CF081FEAB683A4602219A
:1056DC0020469847EE680023032219462046B0471F
:1056EC002B690321204698471BB0F0BDACF6030094
:1056FC0064F303006CF30300034B1B684FF0FF32A1
:10570C00C3F8D42B704700BF98A33EA030B58BB024
:10571C00044621F05DFD09AA0021204629F0D5FEA2
:10572C00174C4FF4F84307930023069347F6E075A4
:10573C0005950222049240F20F12039240F2DF12FE
:10574C00029201930093099B4FF488724FF4F0710D
:10575C00206822F07DF90B49206822F047FC1F22BB
:10576C000949206822F055FC2946206822F0ABF943
:10577C000649206822F03AFC21F03EFD0BB030BD0A
:10578C0098A33EA02C600600F0F60300947B060064
:10579C002DE9F04788B0DFF81C81D8F8000000F63E
:1057AC0064240025ADF81850ADF81A50C369ADF853
:1057BC001C30036AADF81E303F4922F017FCD8F8B4
:1057CC00000022F015FC87B206AE0A21304621F00B
:1057DC0099FE07F12602022392B26946304621F067
:1057EC00B2FE04AB96E8030083E80300D8F800206F
:1057FC0002F6CC3282E803000221184621F082FE28
:10580C000437BFB2242F38BF24276826DFF8ACA09A
:10581C00DFF8AC90D8F800301B6EAB422ED9BDF837
:10582C0016300133BDF812209B1A9F4226DA012351
:10583C003A4602A904A821F06CFEBDF8083023807A
:10584C00BDF80A306380BDF80C30A380BDF80E3073
:10585C00E380D8F800209119A160C4F80CA0C4F81A
:10586C001090311F1144A1611649E1610233A2F875
:10587C00D23B013520348036092DCBD1012168462D
:10588C0021F040FEBDF8003023803F33A380BDF8EB
:10589C00023063801F33E3800B4BA3600B4BE36040
:1058AC000B4B23610023A361E361A36208B0BDE845
:1058BC00F08700BF98A33EA02C600600395A000068
:1058CC00B0A80400E1580000D4EA0300055700001A
:1058DC007406050030B589B004460388ADF818305D
:1058EC004388ADF81A308388ADF81C30C388ADF806
:1058FC001E301C4D1C49286822F078FB286822F0C9
:10590C0077FB85B2022106A821F0E0FD02232022BC
:10591C0004A906A821F031FE236993B1BDF810301B
:10592C000393BDF81230029302AA03A90D4B186819
:10593C0022F0DCF8BDF80820BDF80C10206921F02D
:10594C00CFFC2A46694606A821F04BFEBDF8023072
:10595C00BDF80020A1680348006822F014FB09B0D0
:10596C0030BD00BF98A33EA02C60060070B586B079
:10597C0021F02EFC284C2949206822F037FB2068A6
:10598C0022F036FB054647F6E071206822F09BF8C2
:10599C000021206822F099F82068B0F8D03BB0F8CC
:1059AC00CE2BB0F8CC1BB0F8D26B009621F0F6FFE2
:1059BC002068036E13BB90F8E03B102B28D0092B0A
:1059CC0028D0174C174A302B18BF1446214622F00A
:1059DC006EFB114E336882B204A903F6CC3021F071
:1059EC0016FEAAB202A904A821F0FBFDBDF80A30EC
:1059FC00BDF808202146306822F0C5FA064B18681D
:105A0C0000F6642121F094F921F0F6FB06B070BD8C
:105A1C00044CDBE7044CD9E798A33EA02C600600AD
:105A2C004CF7030018F703002CF7030008B5806946
:105A3C0000F046FE054B1B68D3F8D80BFFF766FE4B
:105A4C00FFF7A6FEFFF792FF08BD00BF98A33EA08C
:105A5C0010B59AB002460C4901A82CF0B7FC0123F2
:105A6C0001AA0A490BA82CF0B1FC6A4601210BA82B
:105A7C0028F054FE044610B120461AB010BD009810
:105A8C0028F084FEF8E700BF74F703007CF70300EE
:105A9C0010B58CB00246094902A82CF097FC01AA5B
:105AAC00012102A828F03AFE044610B120460CB0A1
:105ABC0010BD019828F06AFEF8E700BF90F70300CC
:105ACC0010B58CB00246094902A82CF07FFC01AA43
:105ADC00012102A828F022FE044610B120460CB089
:105AEC0010BD019828F052FEF8E700BFA8F703009C
:105AFC002DE9F04794B0804600231293364B1D6875
:105B0C000246364908A82CF061FC13A908A829F014
:105B1C00E1FB18B1302014B0BDE8F0873049139880
:105B2C0029F036FC68B1129B002B4AD0002B4DDDBE
:105B3C00643501242646DFF8AC902B4FDFF8ACA07F
:105B4C0019E012AB00222A49139829F035FC129B5C
:105B5C00002BEBD12749139829F01AFC12AB002229
:105B6C002349139829F028FCDDE70134E4B22646DA
:105B7C00129B9C422ADC3246494605A82CF026FC96
:105B8C00502300932B1D3A4605A9139829F040FC8D
:105B9C0000BB3246514603A82CF018FC2823009376
:105BAC0005F155033A4603A9139829F031FC002856
:105BBC00DBD145F8808B084B1A68136E01331366E2
:105BCC00D3E7139829F0BEFB3020A4E7139829F0F3
:105BDC00B9FBA0E730209EE798A33EA0A8F70300EE
:105BEC00C0F70300E8F703008CFA0300F0F703009A
:105BFC00D4F70300E0F703002DE9F0478EB0074619
:105C0C00304B1C680246304904A82CF0DFFB03AA79
:105C1C00012104A828F082FD064618B130460EB0CA
:105C2C00BDE8F08702A9039828F003FE029B002B25
:105C3C0044D004F1640A0025A8462C464FF0010913
:105C4C0012E02C2B06D04F2D0AD80AEB050213714B
:105C5C00013505E00AEB050300251D714FF0010825
:105C6C000134029BA34229D901AB4A460DF1030131
:105C7C00039828F0ADFD064600BB019BF3B19DF8DF
:105C8C0003300D2BECD0B8F1000FDAD00A2B07D073
:105C9C00272DE5D80AEB050282F855300135DFE7F0
:105CAC0055444FF0000885F855804AF8807B054B29
:105CBC001A68136E013313664546D1E7039828F032
:105CCC0065FDABE798A33EA090F7030030B5A9B0F3
:105CDC0040F6E43029F07AFD664B186080B140F64E
