:1000000018090010010300001B0300007C0300001E
:100010001D0300001F03000021030000F3E3FFEFB6
:1000200000000000000000000000000081850100C9
:100030002503000000000000118601005586010024
:10004000394F0100494F0100594F0100694F01002C
:10005000794F0100894F0100994F0100A94F01001C
:10006000B94F0100C94F0100D94F0100E94F01000C
:10007000F94F0100095001001950010029500100F9
:1000800039500100495001005950010069500100E8
:10009000795001008950010099500100A9500100D8
:1000A000B9500100C9500100D9500100E9500100C8
:1000B000F9500100095101001951010029510100B5
:1000C00039510100495101005951010069510100A4
:1000D000795101008951010099510100A951010094
:0400E000B951010011
:0402FC00FFFFFFFF02
:10030000DFF88CD023488047DFF884D0224880472C
:1003100022482349016000F045B82FE02EE02DE08F
:100320002CE02BE02AE029E028E027E026E025E089
:1003300024E023E022E021E020E01FE01EE01DE0B9
:100340001CE01BE01AE019E018E017E016E015E0E9
:1003500014E013E012E011E010E00FE00EE00DE019
:100360000CE00BE00AE009E008E007E006E005E049
:1003700004E003E002E001E000E0FFE71EF0040F0C
:100380000CBFEFF30880EFF3098012F069BF0000A3
:1003900000000110618C0000A9AF010008ED00E031
:1003A0000000000027498D4627482849284A00F0C8
:1003B00037F828482849294A00F032F828482949BE
:1003C000294A00F02DF8294829492A4A00F028F83E
:1003D00029482A492A4A00F023F82A482A492B4A60
:1003E00000F01EF82A482B49002200F024F82A4881
:1003F0002A49091A00220260043001601C481D4984
:10040000884205D00268043003B4904703BCF7E784
:1004100000208646EC4600200021214A9047FEE756
:10042000884207D0521A05D0037801300B70013191
:10043000013AF9D17047884202D002700130FAE7E0
:100440007047000018090010505A04000000001006
:10045000DC000010A4040000A404000084FD0100DE
:10046000505A0400000000100000001084FD01003C
:1004700084FD010084FD010084FD010084FD010074
:1004800084FD010084FD010084FD0100505A040038
:10049000A0A33CA02CD93CA000E82EA0A0A33CA087
:0404A0002D8C00009F
:1004A400024B4FF0FF321A60704700BF28A43CA0F3
:1004B4002DE9F04F91B0044612F058FA0FAA00212A
:1004C40020461BF0F6FC4F4E4FF4F84307930025EB
:1004D400069547F6E07705970223049340F2DF136D
:1004E400039340F27F230293019500950F9B4FF4F1
:1004F400F0724FF42071304611F0E0F9424C21467D
:10050400304611F01BFD304611F01AFD80461F22C3
:100514003E49304611F027FDADF83450ADF8365061
:10052400F369ADF83830336AADF83A3039463046BD
:1005340011F0FFF92146304611F000FD0BAF4FF4E6
:10054400B47239460DA812F06DFCBDF82CB0BDF89C
:100554002E90BDF83240DFF8B8A04FF4B472514683
:10056400384612F07FFCADF82CB0ADF82E90ADF803
:100574003240544634F86039063BADF830300DF162
:1005840024092B4680224946384612F025FC99E876
:10059400030087E8030008F142022B4692B2494661
:1005A400384612F0D3FBBDF824302AF8603CBDF87D
:1005B4002830A380BDF8263063804033E380154B98
:1005C400A360154BE360154B2361A561E561A5624A
:1005D4002146304611F000FF2946304611F0ABF9B0
:1005E400B4F866300093B4F86430B4F86220B4F818
:1005F4006010304611F009F912F0CCF9A56611B07B
:10060400BDE8F08F38A43CA01423040084FD01004D
:1006140008A43CA0A8FD0100A5040000180E0300D6
:1006240010B582B0114C0021204611F084F900214C
:10063400204611F07EF90021204611F07FF90C4B81
:10064400196809120B4B1A68121202F1090300937C
:1006540001F109030A3A0A39204611F0D6F80021BB
:10066400204611F06BF902B010BD00BF38A43CA0C5
:1006740034A43CA030A43CA02DE9F04F8DB000225E
:100684004E4B1A604E4B5A679A67DA67DA661A67F6
:10069400B3F86020B3F864100A44521049490A6060
:1006A400B3F86220B3F8663013445B10464A136013
:1006B400464A102101201AF060F810B10DB0BDE8CF
:1006C400F08F424C424A434920681AF09AF8224675
:1006D4000AA941481BF0C4FF20B13C4B18681AF02A
:1006E40071F8EBE70BA93D481BF0BFFB28B1374B72
:1006F40019680A981CF021F8EFE709AA00210B9861
:100704001BF0D7FB08A936481AF0D4FC18B10B9893
:100714001BF0C2FBEBE7334908981AF0B7FC00283A
:10072400F5D10B98FFF7C4FE1AF080F90446234B69
:100734001B68002BEBD1DFF89490DFF884802A4FFC
:1007440084E01F4B0022DA661A6710264FF00A0B6A
:10075400DFF890A01D46584619F01AFFDAF8000099
:1007640003685B69642205A99847EB6E059A1A44ED
:10077400EA662B6F06990B442B67013EEBD11146B9
:10078400002AB8BF02F10F0109110D4AD1661A46B9
:10079400002BB8BF03F10F021211094B1A674FF077
:1007A400FF325A671AF042F9104B186075E04FF4A3
:1007B40096329DE04FF49633A4E000BF28A43CA0F9
:1007C400A8A33CA034A43CA030A43CA0A4A33CA077
:1007D400D4FD0100B0FD0100BCFD0100C8FD010015
:1007E400CCFD01002CA43CA038A43CA0A0A33CA0B8
:1007F400B04200F0E780774B9B6E002B40F0E68020
:10080400754B1E60754B1D6033120A3B03932B120C
:100814000A3B0493724D04AA03A9284611F09DF8DB
:10082400284612F061FBBDF81020BDF80C106D488D
:1008340012F03AF9674B4FF0FF329A66142019F020
:10084400A7FE694B1B68002B7FF461AF0023D9F826
:1008540000204146384611F0B9FF054626461AF0F5
:10086400E5F80446002DE9D1B042E7D05F4B1868A3
:1008740003685B69642205A9984705461AF0D6F80F
:100884005B4B1A681860002DD8D1524B5B6F0193F3
:10089400002B3FF456AF831A01934E4BD96E059A41
:1008A400521A0592196F069B5B1A0693019901FB74
:1008B40002F2002ABCBF02F57F42FF3212144549FE
:1008C400896F01EB4222019901FB03F3002BBCBFAA
:1008D40003F57F43FF331B143E49C96F01EB4323E8
:1008E400B2F5963FBFF663AF42498A42B8BF0A46A3
:1008F40038498A67B3F5963FBFF65CAF3D498B42F2
:10090400B8BF0B46DFF8CCC0CCF87C30324908685D
:10091400DDF804A00AFB02F1DFF8DCE08EFB0165E0
:10092400CE17C6EBA51606442C4909680AFB03F545
:100934008EFB05AEED17C5EBAE150D44BCF864C0D7
:10094400ACF10B0C4FEA0C2EB6EB0C2F06DD02EBD0
:10095400D272521052421F4EB26776461D4AB2F806
:1009640060200B324FEA022CB6EB022F07DA194E45
:10097400B26F02EBD27252105242B2676646154A07
:10098400B2F866200B3A4FEA022CB5EB022F06DDD3
:1009940003EBD3735B105B420E4AD36765460D4B82
:1009A400B3F862300B334FEA032CB5EB032FBFF6D9
:1009B4001FAF084AD36F03EBD3735B105B42D3675B
:1009C400654615E7A9427FF416AF37E7FFF728FE1F
:1009D40016E700BFA8A33CA034A43CA030A43CA0CC
:1009E40038A43CA0D8CD020028A43CA02CA43CA050
:1009F400A0A33CA000D4FEFFD34D6210034B0360C0
:100A0400034B0B6080231360704700BFF0A83CA029
:100A1400F0A63CA0034B0360034B0B6080231360E0
:100A2400704700BF98A63CA098A43CA083694FF0EF
:100A3400FF329A66704700002DE9F04FA9B00446D2
:100A440000F16C0A27AA002140681BF032FA11F069
:100A54008DFF052019F09CFD04F108074FF4F843BD
:100A640007930023069347F6E0720592022204924C
:100A740040F2DF12039240F27F220292019300932C
:100A8400279B4FF4F0724FF42071384610F016FF94
:100A94006B49384611F052FA6A4B1B68002B41D05F
:100AA40023681A684FF4FD6302930623019303231A
:100AB4000093654B1B68654908A81DF027FC1F229D
:100AC40008A9384611F04FFA0021384610F033FFD8
:100AD400384611F035FA05460023ADF89430ADF8E8
:100AE4009630636AADF89830A36AADF89A30122153
:100AF40025A812F0FFF823685E689B68CBB95446BA
:100B0400BDF89A20BDF89630D21AA2F23312521BC5
:100B14000023C2F34F021FA925A812F0F5F84FF0E5
:100B2400020935E023681F221968384611F01BFAC0
:100B3400CAE705F14202022392B223A925A812F0C2
:100B440005F9802221A923A812F08CF9BDF884208C
:100B5400A4F86C20BDF88630A4F86E307F32A4F877
:100B640070203F33A4F87230394B6367394BA36765
:100B7400394BE367C4F884400023C4F88830A4F8F0
:100B840080308C34BCE7A5F11006B9F1010948D0D6
:100B94003368002B45D03223802223A925A812F0E4
:100BA400B3F8BDF89820BDF89430D21AA2F2E3123B
:100BB4000023C2F34F021FA923A812F0E9F806F19B
:100BC400100504F160084FF0320B2E4655F8103C26
:100BD400002BD8D05B46802221A923A812F0D8F894
:100BE400BDF884302380BDF886306380BDF888303A
:100BF400A380BDF88A30E38055F8103CA36055F813
:100C04000C3CE36055F8083C236155F8043CA361AF
:100C14000023E361A382203410354445D5D14446F2
:100C2400B3E70023A3605146384611F0D5FB1BF00F
:100C3400D7FA10B129B0BDE8F08F11F0B3FEF9E78F
:100C44001423040044BF3CA048BF3CA0D8FD0100CD
:100C5400A8FD0100310A0000180E03002DE9F0413F
:100C640082B005464FF4B6701BF0C0FA04466A46DB
:100C74001021012019F081FD08B1002300935CB11B
:100C84004FF4B672002120461DF03DFC2560009B08
:100C94002BB920461BF0B2FA02B0BDE8F0816A46D7
:100CA40001A923481BF0DCFC18B1009819F08AFD57
:100CB400EFE7211D1F481BF0D8F820B100990198D7
:100CC4001BF03BFDF1E72046FFF7B6FE04F16C088C
:100CD400194F04F1080605E02046FFF7ADFE09E0D0
:100CE4003B68BBB9A36EF3B9EB681BB1984710F02E
:100CF400010FF1D14FF0FF33009A4146304611F015
:100D040065FD0028ECD0A36E002BE9D12046FFF747
:100D140093FEE5E706F0D8F92046FFF78DFE064B73
:100D240000221A60D5E760681BF0B6F8C6E700BF7A
:100D3400BCFD0100C8FD010048A93CA008B58069BC
:100D4400FFF78CFF08BD000070B504460D460E4B3E
:100D54001B6883B100201AF09DF80C4B1E6807F045
:100D640043FF2A46B0FBF4F130461BF076FB00202B
:100D74001AF062F870BD054905481BF057FB024B99
:100D84004FF0FF321A60E5E74CA93CA050A93CA003
:100D940004FE010008B51421FA20FFF7D5FF08BDB1
:100DA40008B54FF4FA716420FFF7CEFF08BD8369DC
:100DB4004FF0FF32C3F8E4207047000010B582B052
:100DC40004460F4B1B68B3B9002110F0B4FD47F67D
:100DD400E071204610F0ADFD0A48838842880188FE
:100DE400C08801380090013B01320131204610F0E7
:100DF4000CFD02B010BD47F6E07110F09CFDE6E773
:100E04005CA93CA060A93CA010B58EB0044603A91F
:100E14001C481BF02AF81C4B1B68B3F1FF3F2AD077
:100E2400194B4FF0FF321A6041F28833059342F2B6
:100E34001073069347F2305307934FF47A73049375
:100E4400124B0A93124B0B93124B0C93124B0D93B0
:100E54004FF4F07300934FF420737622DC210F4893
:100E640012F07AF804A903981BF054F9A069FFF76B
:100E7400A5FF0EB010BD044B00221A601BF086F9CA
:100E8400F4E700BFC8FD01005CA93CA08D2F010060
:100E94004930010095310100093201009016020029
:100EA4002DE9F04F99B04FF48A701BF09FF91A4B5B
:100EB4001860A8B104464FF48A7200211DF023FB88
:100EC4004FF0FF33C4F80431144A1021012019F003
:100ED40054FC40B1104C20681BF090F900232360AF
:100EE40019B0BDE8F08F0D4A17A90D481BF0B8FBE7
:100EF40020B10A4B186819F065FCEBE7064B19683A
:100F0400603108481AF0B1FF70B1044B19681798A2
:100F14001BF013FCEDE700BF58A93CA054A93CA06A
:100F2400BCFD0100C8FD0100D74C236803F588729D
:100F340003F58671186E1AF0F5FF246804F1640352
:100F4400099311F013FD0AAA0021206E1AF0B1FFD3
:100F54004FF4F84307930025069547F6E07BCDF858
:100F640014B00223049340F2DF13039340F27F236F
:100F74000293019500950A9B4FF4F0724FF420718F
:100F8400204610F09BFCC149204610F0D7FF2046B4
:100F940010F0D6FFC4F800011F22BD49204610F00E
:100FA400E2FF5946204610F0C4FC2946204610F0C2
:100FB400C2FCADF82C50ADF82E50E369ADF83030DA
:100FC400236AADF832300DF12C090821484611F09E
:100FD40091FED4F8003103F146020DAE052392B21E
:100FE4003146484611F0B2FE0FAF96E8030087E899
:100FF4000300052380223146384611F0C9FE012141
:10100400304611F077FEBDF83430A4F864307F33F5
:10101400A4F86830BDF83630A4F866303F33A4F83D
:101024006A309C4BE3669C4B23679C4B6367E46785
:10103400C4F8805097E8030086E803006422394628
:10104400304611F00FFFBDF84230BDF83E209B1A28
:1010540003EBD3735A100632914E052392B23146F4
:10106400384611F073FEB6F80080204610F068FF91
:1010740008F110088044A6F80480B6F802802046DF
:1010840010F05EFF08F1100880441FFA88F3F38023
:101094003288A4F88420B288A4F888207288A4F83E
:1010A4008620A4F88A307F4BC4F88C307E4BC4F879
:1010B4009030C4F89450C4F89C40C4F8A050BDF8D3
:1010C4003080BDF82C30A8EB0308A8F2E318774B66
:1010D400A3FB0838C8F34F0843462A463946484616
:1010E40011F056FE04F1F00A434654225146484694
:1010F40011F04EFE04F1F80804224146504611F066
:10110400B1FE1421404611F0D9FD2B464FF4C872AC
:101114003946484611F03CFE4FF4907204F1E80160
:10112400384611F07FFE5949204610F007FF01218F
:10113400204610F06FFF2946204610F0FFFB594669
:10114400204610F0F6FB9AE8030089E80300BDF896
:1011540032300093BDF83030BDF82E20BDF82C108D
:10116400204610F052FB98E8030089E80300BDF81C
:1011740032300093BDF83030BDF82E20BDF82C106D
:10118400204610F042FB2046FFF718FE3588204623
:1011940010F0D6FE738842190833163244492046AB
:1011A40010F091FE0127DFF80C813B0288FB03124B
:1011B400DE17C6EB2216F60106F4F8460025314682
:1011C400204610F0B6FBB4F8EA20B4F8E8103A442C
:1011D4002944204610F004FA0135B5F5C87FEED154
:1011E4000137612FE1D10127DFF8C8803B0288FB7A
:1011F4000312DE17C6EB2216B60006F47876002535
:101204003146204610F095FBB4F8EA203A44B4F88D
:10121400E81060322944204610F0E2F90135B5F5B2
:10122400C87FEDD10137612FE0D10127DFF8848039
:101234003B0288FB0312DE17C6EB2216C6F3C40674
:1012440000253146204610F074FBB4F8EA203A44F5
:10125400B4F8E810C0322944204610F0C1F9013531
:10126400B5F5C87FEDD10137612FE1D147F6E071C3
:10127400204610F05EFB0999204611F0ADF811F0FC
:1012840089FB014E0C4F30E058A93CA01423040004
:101294000CFE0100A8FD0100B30D0000180E0300B0
:1012A40060A93CA03C7903000D0E0000ABAAAAAAD9
:1012B40028FE0100ABAAAA2A54A93CA00021C2F826
:1012C4000C11106E1AF020FE604B1B684FF0FF32B9
:1012D400C3F80421306811AA00F1640111F0CEF8BA
:1012E4003468D4F80431002B3CD13368D3F8E420BB
:1012F400002A40F0A6804FF4FA7211A9386819F058
:101304002AFB0028ECD1129B1693139B159315AA64
:1013140016A9306810F016FB149B012BDAD1326841
:10132400159BB2F8F2109942D4DCB2F8F6108B4255
:10133400D0DC1699B2F8F0008842CBDCB2F8F400A5
:101344008142C7DCB2F8FE008342B7DCC11AD2F88E
:10135400103103FB01F1431CB2F8FA001B1AB1FB74
:10136400F3F1ACE70121204610F054FEB4F8F88004
:10137400B4F8FAB0B4F8FC90B4F8FEA004F588729E
:1013840004F58671206E1AF0CDFDAAEB0B02D4F899
:101394000C3102FB0333D4F81021B3FBF2F5AAEBB2
:1013A4000505D4F808319D422CD08BBB0121204681
:1013B40010F0C4FA47F6E071204610F0BAFACDF8FE
:1013C40000A04B465A464146204610F01EFAC4F887
:1013D40008510021204610F0B1FA47F6E07120468A
:1013E40010F0A7FA0021204610F0A5FAD4F808213D
:1013F400531D009309F10F03053AA8F10F0120468C
:1014040010F003FA114B1B680022C3F804216CE7A7
:101414000021204610F092FA0021204610F089FAAB
:101424000021204610F087FAD4F80821531D0093B8
:1014340009F10F03053AA8F10F01204610F0E5F970
:10144400B4E7186E1AF028FD5FE500BF58A93CA068
:10145400F0B583B006460C4615464FF4F8430193A5
:1014640002F10803009301F10803083A083911F066
:10147400FDFA00270197AB1D0093A31DAA1FA11F0E
:10148400304611F0F3FA47F6FF7301932B1D0093D6
:10149400231D2A1F211F304611F0E8FA0197AB1CC7
:1014A4000093A31CAA1EA11E304611F0DFFA03B05C
:1014B400F0BD000010B5A2B021A93F481AF0D5FC38
:1014C40008B122B010BD21981AF011FD4FF48071BB
:1014D40021981AF019FD11F049FA20AA0021219847
:1014E4001AF0E7FC4FF4F84307930023069347F6FA
:1014F400E07205920222049240F2DF12039240F25B
:101504007F22029201930093209B4FF4F0724FF4D8
:10151400207108A810F0D2F9284908A810F00EFD8F
:101524001F22274908A810F01EFD08A810F008FD86
:1015340084B2244B1B78012B23D023464FF4207212
:10154400214908A810F0CBFC63004FF420721F4916
:1015540008A810F0C4FCC4F178039B004FF4207277
:101564001B4908A810F0BBFCA4EB840404F5F07339
:101574004FF42072174908A810F0B1FC11F00AFAD0
:101584009FE723464FF42072134908A810F0A7FCE4
:10159400C4F178039B004FF420720D4908A810F0A1
:1015A4009EFCA4EB840404F5F0734FF42072094903
:1015B40008A810F094FCE1E7C8FD0100142304001E
:1015C4003CFE01006CA93CA0BCFE0100E0FE010051
:1015D4007CFE0100A0FE010054FE01002DE9F04F45
:1015E40097B00390144600234FF0FF36DFF874B22F
:1015F4009D4A1032099208968A469C4A13705046B6
:101604001AF0E6FF1CB99A4B1B68032B10D0FFF7A6
:1016140051FF954FDFF85882002304931D46A6E03E
:1016240001234FF0FF34E8E701234FF0FF34E4E7F0
:10163400904D8D4A294650461AF0E4FF099A05F167
:10164400100150461AF0DEFF874B03F1200205F12A
:10165400200150461AF0D6FF50461AF0C6FF06463F
:10166400DBF800300894DBF800304BB9002ED7D1FA
:10167400089B002BD8D17E4B00229A6402F012FE04
:1016840017B0BDE8F08F1395149509F101093220C4
:1016940018F07EFFB9F1030F1CD812A950461AF0B6
:1016A40033FF0028F3D1DBF80030B3F1FF3FEAD079
:1016B400129B13F0010F09D0029B002BE7D0139B60
:1016C4001E44149B1C4409F10109E0E74FF0FF3369
:1016D4000293DCE7B6FBF9F61396B4FBF9F4149421
:1016E40012AC079A214650461AF08CFF08F1040602
:1016F40094E80F0086E80F00049E741C5C4B1C6089
:10170400FFF748FBBDF81410BDF81820019502F14D
:101714000803009301F10803083A0839039811F00B
:10172400A5F926B1DBF80030DBB932260FE0FFF76C
:10173400C1FEDBF80030002BF7D0103708F1100899
:1017440014E0304618F024FFDBF800304BB912A93E
:1017540050461AF0D9FE0028F3D1129B13F0010F62
:10176400EFD1032C73D0103708F1100804940797B5
:101774007B680593BA68069292B299B20398FFF710
:1017840067FE0295A9462C462E4686E7DFF8E890C8
:101794000DF1280832250296049417E0284618F023
:1017A400F7FE12A950461AF0AFFE0028F6D1129B9C
:1017B40013F0010FF2D14FF4967018F0E9FE09F11D
:1017C400100908F1100812AB984524D0D9F8046028
:1017D400D9F80870BAB2B1B20398FFF739FE44469B
:1017E400214650461AF090FE0028F9D1236813F0E0
:1017F400010FF5D0FFF7CEFAB1B2BAB200230193CC
:1018040002F10803009301F10803083A0839039828
:1018140011F02CF9C5E7029E049C0B9BA3F236231E
:10182400302B3FF620AF0C9BA3F5CB73302B3FF648
:101834001AAF0F9BA3F59473302B3FF614AF109B94
:10184400D83B089A302B98BF224608920BE75046A3
:101854001AF0CBFE0646DBF80040002C96D000239D
:10186400089300E748A93CA024FF01006CA93CA010
:101874005CBE3CA060BE3CA004FF010010B584B077
:101884000446184A1021012018F077FF10B10020F7
:1018940004B010BD134A03A913481AF0E1FE20B1A5
:1018A400104B186818F08EFFF1E702A90F481AF0E0
:1018B400DCFA28B10B4B196803981AF03EFFEFE7E6
:1018C40001AA002102981AF0F4FA094B9B6C002B30
:1018D4000CBF22464FF0FF3203990198FFF77EFEBA
:1018E400E8E700BF68A93CA0BCFD0100C8FD0100F9
:1018F4005CBE3CA030B587B0002205A911481AF09F
:10190400AFFEE0B90524322501A905981AF0FCFDC3
:10191400019B13F0010F10D0284618F039FE013C4A
:10192400F2D14FF0FF34002105981AF006FF0A2087
:1019340018F02EFE204607B030BD0024F3E74FF028
:10194400FF34F7E7BCFD010008B54FF0FF30FFF7A7
:1019540095FF08BD704700002DE9F84F274B186824
:1019640008B9BDE8F88F4FF0FF3118F099FE244C08
:101974002449204610F0E2FA0021204610F04AFBE8
:10198400002120460FF0DCFF4FF4787120460FF061
:10199400D0FFDFF874B0DFF874A04FF014092746C5
:1019A4001EE00834B4F5167F11D015F8012F16F88F
:1019B400013F9A42F5D042462146384610F051F98B
:1019C4002978384610F0BEF92B783370E9E709F12D
:1019D40008090BF1330B0AF1330AB9F5D27F04D0AD
:1019E400C84656465D46C024DFE70121044810F08E
:1019F40011FB024B186818F078FEB2E774A93CA0FA
:101A04006CBD3CA00411040073B33CA07BA93CA0B2
:101A140070B5124901F6C3160B4633310A4601F17B
:101A240030051468D2F804E0D2F808C0D0681C600D
:101A3400C3F804E0C3F808C0D86010321033AA42D7
:101A4400EFD11088927818809A70B142E4D1332291
:101A5400202103481CF057FD70BD00BF74B33CA0A7
:101A640037BD3CA038B50446354B186800B938BDBD
:101A74004FF0FF3118F014FE324B1B88322B02D981
:101A8400304B00221A80304B1B88312B02D92E4B4D
:101A940000221A800C2C20D00A2C2ED00D2C38D0E9
:101AA400082C3AD0284B1D882648038805EB4502AC
:101AB40002EB021225490A44D45401339BB2038039
:101AC400322B15D96B1C9BB21F4A1380312B0FD9B3
:101AD400FFF79EFF1C4B1D800AE040F6F612202102
:101AE4001A481CF010FD0023164A1380164A13806E
:101AF400134B186818F0F9FDB9E7134A1488631CEE
:101B04009BB21380312BF3D9FFF782FF0E4B1C805D
:101B1400EEE70C4B00221A80EAE70A4B1B88002BE5
:101B2400E6D0013B9BB2074A1380074A128802EBB6
:101B3400420202EB021205490A442021D154D7E79C
:101B440074A93CA07AA93CA078A93CA074B33CA099
:101B540010B50446007828B1FFF784FF14F8010F8C
:101B64000028F9D110BD00002DE9F0478CB00446DF
:101B740010F0FCFE0BAA002120461AF09AF9414C01
:101B84004FF4F84307930023069347F6E075059551
:101B94000222049240F2DF12039240F27F22029268
:101BA400019300930B9B4FF4F0724FF42071204685
:101BB4000FF084FE3449204610F0C0F91F22334947
:101BC400204610F0D0F9294620460FF0B2FE304EE0
:101BD400DFF8C080A146B2463369002B49D0338870
:101BE4000A937388099309AA0AA926480FF0B5FE37
:101BF400BDF82420BDF82810306910F055FF98F87E
:101C04000010002451B1454600241E4F384610F000
:101C14009BF9044415F8011F0029F7D1BAF80630DE
:101C2400BAF80020BAF804100A4464080233C4EB7A
:101C340062024146484610F046F92036D6F808803C
:101C4400B8F1000FC7D10F4C002120460FF073FEEE
:101C54004FF4D27300934FF418731222BE2120461E
:101C64000FF0D3FDFFF778FE10F094FE0CB0BDE842
:101C7400F087F3880093B3887288318801480FF0A5
:101C8400C4FDBCE76CBD3CA01423040074FF010038
:101C9400B4FF0100A8FD010010B582B040F6F614AF
:101CA4002246002121481CF02EFC224620212048F7
:101CB4001CF029FC00231F4A13801F4A13801F4A6B
:101CC4001021012018F059FD08B102B010BD1B4AC3
:101CD40069461B481AF0C4FC20B1184B186818F068
:101CE40071FDF2E701A917481AF0BFF898B9164B2D
:101CF4001B68B3B10198FFF737FF1448FFF728FFBB
:101D0400FFF72AFEFFF74CF84FF4FA6018F040FC96
:101D140001981AF0C1F8094B196800981AF00DFDE2
:101D2400DBE7094818F042FCE4E700BF7CA93CA0CB
:101D340074B33CA078A93CA07AA93CA070A93CA0AB
:101D4400BCFD0100C8FD010074A93CA09CFF01007A
:101D5400014B01221A607047D4BD3CA010B582B07B
:101D64000A4C0B4B198820460FF0E5FD47F6E0714D
:101D740020460FF0DEFD51230093A12312222221DD
:101D840020460FF042FD02B010BD00BFD8BD3CA0FC
:101D94000000001008B5084B1B780133DBB2062B9A
:101DA40028BF0023044A1370044A32F81320044B5A
:101DB4001A80FFF7D3FF08BDD0BD3CA08401020008
:101DC400000000102DE9F04786B081466A481AF0F9
:101DD4000DFA8246694C012120460FF0AFFD47F60B
:101DE400E07120460FF0A5FDB9F806300093B9F86C
:101DF4000430B9F80220B9F8001020460FF005FDB0
:101E040005AA03215E4819F001FA002849D1D046F9
:101E140013275A4E4546CF240494039703AA04A9D2
:101E240030460FF09AFD012300932B46039A049940
:101E340030460FF093FE0235013440F25F239C429A
:101E4400EAD108F54878013740F2A3139F42E1D163
:101E540002AB494A5146059819F04DFA18B1464B60
:101E6400029A9A4253D1059819F00AFA434C012177
:101E740020460FF063FD002120460FF05AFDB9F80B
:101E840006300093B9F80430B9F80220B9F800100C
:101E940020460FF0BAFC50461AF0B0F906B0BDE87F
:101EA400F087064605AA0321364819F0AFF904461F
:101EB4000028ACD0344B19684FF41622881810F05F
:101EC400F1FFFEF76DFF2D4D002128460FF036FD82
:101ED400002128460FF02FFD47F6E07128460FF049
:101EE40028FD2223009340F25F231222CE212846AC
:101EF4000FF08BFC092E0DD00D2E27D10D2C1ED0EA
:101F04001423D02221491D480FF0DDFF24E0FEF701
:101F140047FFA8E70D2C0BD0092C4FF014034FF00A
:101F2400D0020CBF1A491B4914480FF0CCFF13E030
:101F34001423D022184928460FF0C5FF0CE01423BF
:101F4400D02216490D480FF0BEFF05E01423D0221D
:101F540013490A480FF0B7FF012108480FF0EEFCBF
:101F64004FF4FA6018F014FB074B18684FF416226C
:101F7400811810F097FF79E700E20400D8BD3CA077
:101F8400F4FF0100000002000400001098000200A9
:101F940030000200580002000C0002007800020029
:101FA400B40002002DE9F04F89B0054687481AF0C5
:101FB4001DF98146864C012120460FF0BFFC47F6EF
:101FC400E07120460FF0B5FCEB880093AB886A887B
:101FD400298820460FF019FC07AA01217D4819F031
:101FE40015F9804640B107AA01217B4819F00EF982
:101FF4000446002840F0928004AB744A494607988E
:1020040019F062F90446079819F03AF94CB16F4B8C
:10201400049A9A4202D1CA46132704E0FEF7C0FE8E
:102024002AE0CA4613276A4ECDF80C90A3465246BE
:10203400AA46951ECF2491460694059705AA06A99B
:1020440030460FF08AFC35F8023F059A069930466F
:102054000FF08EFC013440F25F239C42ECD109F571
:102064004872013740F2A3139F42E2D1DDF80C908D
:102074005C465546002C3AD0584B19684FF416224A
:10208400881810F00FFFFEF78BFE514C00212046FC
:102094000FF054FC002120460FF04DFC47F6E07190
:1020A40020460FF046FC2223009340F25F231222C5
:1020B400CE2120460FF0A9FBB8F1090F71D0B8F179
:1020C4000D0F7CD01423D022454941480FF0FBFE6C
:1020D40001213F480FF032FC4FF4FA6018F058FA2F
:1020E4003E4B18684FF41622811810F0DBFE384C72
:1020F400012120460FF022FC002120460FF019FC9C
:10210400EB880093AB886A88298820460FF07DFB12
:1021140048461AF073F809B0BDE8F08F2F4B1968E0
:102124004FF41622881810F0BDFEFEF739FE284E33
:10213400002130460FF002FC002130460FF0FBFB7B
:1021440047F6E07130460FF0F4FB2223009340F28F
:102154005F231222CE2130460FF057FBB8F1090F4E
:102164000DD0B8F10D0FADD10D2C21D0092C26D1F5
:102174001423D0221B4916480FF0A5FEA8E70D2C06
:1021840008D0092C0DD11423D022174910480FF080
:102194009AFE9DE71423D022144930460FF093FE93
:1021A40096E71423D022114909480FF08CFE8FE7DB
:1021B4001423D0220E4906480FF085FE88E7142325
:1021C400D0220B4902480FF07EFE81E700E20400B2
:1021D400D8BD3CA0F4FF0100000002000400001080
:1021E4005C01020038010200E8000200C4000200A1
:1021F40018010200A0F1CF0CBCF5C87F1AD2A1F1DE
:10220400130CBCF5C87F15D2A2F1CF0CBCF5C87F66
:1022140010D2A3F1130CBCF5C87F0BD200B583B068
:10222400009313460A46014603480FF0EBF903B046
:102234005DF804FB704700BFD8BD3CA008B5A0F111
:10224400CF03B3F5C87F09D2A1F11303B3F5C87F57
:1022540004D20A46014602480FF0C2F908BD00BF85
:10226400D8BD3CA070B58AB009AA002119F021FE9E
:1022740010F07CFB1E4C4FF4F843079300250695A1
:1022840047F6E07605960223049340F2DF130393A6
:1022940040F27F23029301950095099B4FF4F0725D
:1022A4004FF4207120460FF009FB124920460FF02D
:1022B40045FE1F22104920460FF055FE31462046A8
:1022C4000FF037FB0D49204610F086F829462046CA
:1022D4000FF031FB40F2A313009340F25F2312226C
:1022E400CE2120460FF091FA10F054FB0AB070BDD5
:1022F400D8BD3CA01423040068010200A801020018
:102304002DE9F04F91B0854B00221A60844A1021C8
:10231400012018F032FA10B111B0BDE8F08F804AF4
:102324000EA980481AF09CF920B17D4B186818F06A
:1023340049FAF1E70FA97C4819F097FD28B1784BC9
:1023440019680E981AF0F9F9EFE70BAA00210F9813
:1023540019F0AFFD0F98FFF785FFFFF7FFFC4FF073
:10236400FF31302004F066FB0026B246B0466B4CC9
:102374006B4D2768002F40F0CD804FF0FF3207A946
:10238400286818F0E8FA0028F3D1089B0D93099BFC
:102394000C930CAA0DA965480FF0D4FA0D9BCF3B02
:1023A400B3F5C87F80F0AC800C9B133BB3F5C87FBA
:1023B40080F0A6800A9B012B01D0B846D9E719F01A
:1023C40007FF5B4B1988002940F0858057480FF0C0
:1023D400B0FAB8F1000F50D0DDF834900C9F0AF138
:1023E400FF308046711E09F1FF3B7B1E02935A4663
:1023F4000591FFF7FFFE3B465A463146CDF8108063
:102404004046FFF7F7FE721C114607F101084346E8
:102414005A4603910498FFF7EDFE029B4A46DDF805
:1024240014B059465046FFF7E5FE3B464A4631464E
:102434005046FFF7DFFE43464A4603995046FFF7EE
:10244400D9FE0AF1010A09F10109029B4A465946DB
:102454005046FFF7CFFE3B464A4631465046FFF70B
:10246400C9FE43464A4603995046FFF7C3FEDDF8CA
:1024740034A00C9E4FF0FF387BE70D9E0C9F06F1B5
:10248400FF3A07F1FF3949465046FFF7D7FE394670
:102494005046FFF7D3FE07F1010841465046FFF7C7
:1024A400CDFE49463046FFF7C9FE39463046FFF7B0
:1024B400C5FE41463046FFF7C1FE01364946304667
:1024C400FFF7BCFE39463046FFF7B8FE41463046BA
:1024D400FFF7B4FECBE715480FF02BFAB8F1000F65
:1024E40008D00C9B00930D9B324651460F480FF0C9
:1024F40089F8BCE70C9A0D990C480FF071F8B6E70F
:1025040007AA0C4909480FF0B9FF0A9B002B08BF22
:10251400B8462EE70F9819F0BFFC10E7D4BD3CA0D5
:10252400CCBD3CA0BCFD0100C8FD0100D8BD3CA051
:1025340000000010A801020070B505460C46B2F573
:10254400004F2ED0102A41D0002A3ED1486E18F0F8
:102554007BFAB0F57A7F38D318F068FA606604F134
:10256400680201216E4818F051FE002832D1AB6890
:102574006C4A022120469847A06E18F081FE002381
:10258400022219462046EE68B0472B6902212046F4
:102594009847654B1A889B78A4F8022184F8043183
:1025A40013E08368614A002120469847AB68604A7B
:1025B400012120469847AB685E4A0221204698478D
:1025C40018F034FA60660023E36670BD4369084678
:1025D4009847FAE7031F0C2B00F28680DFE803F02C
:1025E4003584848484580784844984846700AB6870
:1025F400514A022120469847504B07CBC4F80201A8
:10260400C4F80611C4F80A211A889B78A4F80E218C
:1026140084F81031E36E0133E3660E2BD5D9AB6831
:10262400474A0221204698470023032219462046A0
:10263400EE68B0472B69032120469847414B03CBF2
:10264400C4F80201C4F80611BFE7AB683E4A022190
:10265400204698473D4B07CBC4F80201C4F8061145
:10266400C4F80A211A889B78A4F80E2184F8103142
:10267400D0E7AB68364A022120469847354B03CB56
:10268400C4F80201C4F806111B88A4F80A31C1E792
:10269400AB68314A022120469847304B03CBC4F83B
:1026A4000201C4F806111B88A4F80A31B2E7AB682A
:1026B4002B4A0221204698472A4E0FCEC4F8020125
:1026C400C4F80611C4F80A21C4F80E31337884F82A
:1026D40012310023032219462046EE68B0472B69C5
:1026E40003212046984795E7AB681D4A02212046FE
:1026F40098471D4B07CBC4F80201C4F80611C4F86F
:102704000A211B88A4F80E3100230322194620460F
:10271400EE68B0472B690321204698477AE700BF4B
:10272400A8020200BC020200286903004802020059
:102734006402020098020200D4020200F4020200C1
:10274400C0030200D80302000403020024030200B1
:1027540034030200500302005C0302007803020009
:10276400840302009C030200B0030200B2F5004F90
:1027740000D0704738B505460C46002184F86C102B
:102784008368264A2046984704F16401244818F0D7
:1027940091FCC8B1AB68234A002120469847002326
:1027A400032219462046D5F80CC0E0472B690321C3
:1027B400204698471C4B03CBC4F80201C4F8061109
:1027C4001B88A4F80A3138BD04F16801606E18F062
:1027D4005DFC0028DED1A06E03685B6940F6C4127C
:1027E40004F1700198470028D4D1AB680F4A002146
:1027F400204698470023022219462046D5F80CC0EB
:10280400E0472B69022120469847094B1A889B7898
:10281400A4F8022184F80431D5E700BFE0030200E4
:10282400CCFD0100FC030200240402003004020079
:1028340028690300F0B583B005460C46B2F5004F95
:102844005ED0002A7AD1886E03681B6901A9984773
:10285400002840F08380019A636F9342B8BF626797
:10286400236F9A42B8BF226782EAE273A3EBE27352
:10287400C3F3423304F17807C3EB431103EB81063E
:10288400334612145D4938461BF040FDAB683A46A6
:10289400002120469847C82017F07AFEE36E0133E2
:1028A400E366052B4AD9226FB2F5702F69DA0192DB
:1028B40082EAE273A3EBE273C3F34233C3EB431143
:1028C40003EB8106334612144D4938461BF01EFDB6
:1028D400AB683A46002120469847EF68002303225C
:1028E40019462046B8472B690321204698473346AA
:1028F400BDF90620434904F581701BF007FD1DE076
:102904008368414A00212046984704F164013F4806
:1029140018F0D0FBA0B1EE6800230322194620462C
:10292400B0472B69032120469847394B03CBC4F8A1
:102934000201C4F806111B88A4F80A3103B0F0BDE3
:1029440004F16801606E18F0A1FB0028E3D14FF494
:10295400C813236763670023E366EFE7EE68002389
:10296400032219462046B0472B6903212046984785
:10297400284B07CBC4F80201C4F80611C4F80A2195
:10298400DCE7626FB2F5201F24DD0192C2F342330B
:10299400C3EB431103EB8106334612141E49384638
:1029A4001BF0B4FCAB683A46002120469847EF6818
:1029B4000023032219462046B8472B6903212046E9
:1029C40098473346BDF90620144904F581701BF07D
:1029D4009DFCB3E7EF680023022219462046B8475E
:1029E4002B690221204698473346BDF906200C493D
:1029F40004F581701BF08AFCA0E700BF8404020088
:102A0400A8040200D404020054040200700402006A
:102A14007803020078040200E804020014050200AE
:102A240024050200F0B58BB005460C4616466946EF
:102A34006D4818F03FFB58B1EE6800230322194695
:102A44002046B0472B690321204698470BB0F0BDC0
:102A540001A9009818F01AFB002832D1B6F5004FEE
:102A64003AD0002EF2D120263246002102A81BF0D3
:102A74004AFD019803685F69334602AA4121B847B9
:102A8400002800F08A80EE680023032219462046BD
:102A9400B0472B69032120469847544B03CBC4F815
:102AA4000201C4F806111A889B78A4F80A2184F854
:102AB4000C31019803689C6920234D4A4121A047A9
:102AC400C4E7EE680023032219462046B0472B6969
:102AD400032120469847B9E7AB68464A00212046BF
:102AE4009847019803685E692023414A4121B04711
:102AF400B0B1EE680023032219462046B0472B6983
:102B0400032120469847394B03CBC4F80201C4F88B
:102B140006111A889B78A4F80A2184F80C3195E7E9
:102B24002022AA2102A81BF0EEFC019803689E69EA
:102B3400202302AA4121B04706462022552102A89B
:102B44001BF0E1FCAEB101238DF80830EE680023E0
:102B5400032219462046B0472B6903212046984793
:102B6400254B07CBC4F80201C4F80611C4F80A21A6
:102B74006CE7019803689E69142302AA4321B047B5
:102B840001238DF808300028E0D1019803689C697E
:102B9400012302AA4621A04758E7202202A9174888
:102BA4001BF040FB50B9EE68002302221946204670
:102BB400B0472B690221204698477AE7EE68002344
:102BC400032219462046B0472B6903212046984723
:102BD4000B4B07CBC4F80201C4F80611C4F80A2150
:102BE4001B7884F80E3164E7300502004C050200BE
:102BF40038BE3CA03805020058050200B4090200A2
:102C04006405020003460120186000BF00BF00BF36
:102C140000BF00BF00BF00BF00BF00BF00BF00BFB8
:102C240000BF00BF00BF00BF00BF00BF00BF00BFA8
:102C340000BF00BF00BF00BF00BF00BF00BF00BF98
:102C440000BF00BF00BF00BF00BF00BF00BF00BF88
:102C540000BF00BF00BF00BF00BF00BF00BF00BF78
:102C640000BF00BF00BF00BF00BF00BF00BF00BF68
:102C740000BF00BF00BF00BF00BF00BF00BF00BF58
:102C840000BF00BF00BF00BF00BF00BF00BF00BF48
:102C940000BF00BF00BF00BF00BF00BF00BF00BF38
:102CA40000BF00BF00BF00BF00BF00BF00BF00BF28
:102CB40000BF00BF00BF00BF00BF00BF00BF00BF18
:102CC40000BF00BF00BF00BF00BF00BF00BF00BF08
:102CD40000BF00BF00BF00BF00BF00BF00BF00BFF8
:102CE40000BF00BF00BF00BF00BF00BF00BF00BFE8
:102CF40000BF00BF00BF00BF00BF00BF00BF00BFD8
:102D040000BF00BF00BF00BF00BF00BF00BF00BFC7
:102D140000BF00BF00BF00BF00BF00BF00BF00BFB7
:102D240000BF00BF00BF00BF00BF00BF00BF00BFA7
:102D340000BF00BF00BF00BF00BF00BF00BF00BF97
:102D440000BF00BF00BF00BF00BF00BF00BF00BF87
:102D540000BF00BF00BF00BF00BF00BF00BF00BF77
:102D640000BF00BF00BF00BF00BF00BF00BF00BF67
:102D740000BF00BF00BF00BF00BF00BF00BF00BF57
:102D840000BF00BF00BF00BF00BF1A68824202D16B
:102D940040007FF439AF7047F0B502468908013925
:102DA40011F0010E3CD073464FF0AA3042F82300D4
:102DB4005B001942FAD14FF055331360734602EBAE
:102DC400830052F82340B4F1AA3F14D15B001942A6
:102DD400F5D14FF0AA331360F4464FF055361F4631
:102DE40010E05B00194207D052F82340B4F1AA3F27
:102DF400F7D06345F5D0F0BD57514FEA4C0C11EABA
:102E04000C0F0BD04FEA8C0502EB8C0042F82C60BF
:102E14001368B3F1AA3FEED17346E5E70020EAE771
:102E24004FF0553303604FF0AA3303600020E2E70C
:102E3400032928D910B502464FEA910C864601238E
:102E440040F8043B9C4503F10103F9D8012300E059
:102E54000B4610461168994214D1D94342F8041B19
:102E6400591C9C45F4D800236FF001047046DEF829
:102E74000010E21A914205D101330EF1040E9C4573
:102E8400F4D8002010BD002070470000B2F5004FB8
:102E940000D0704770B505460C4683682A4A002165
:102EA4002046984715F07CFB4FF02040FFF7AAFE20
:102EB400064615F093FBB6B1AB68244A01212046BF
:102EC40098470023032219462046D5F80CC0E04752
:102ED4002B6903212046984732461D4904F5817029
:102EE4001BF014FA70BD15F05BFB4FF400014FF0BA
:102EF4002040FFF751FF064615F070FB002EDBD192
:102F040015F04EFB4FF400014FF02040FFF790FF07
:102F1400064615F063FB002ECED1AB680D4A0121A5
:102F240020469847EE680023022219462046B047FF
:102F34002B690221204698474FF40002064904F504
:102F440081701BF0E3F9CDE774050200A0050200CF
:102F5400B80502008805020098050200F0B5C3B068
:102F640006460C4615468368534A01212046984775
:102F7400524B03CBC4F80201C4F806111B88A4F811
:102F84000A3141AA1021284618F070FA002874D199
:102F940004F58177419B512B03D040F2E93043B0D3
:102FA400F0BD41AA1121284618F060FA002867D123
:102FB400419B522B02D040F2E930F0E741AA1221A2
:102FC400284618F053FA00285DD1419B592B02D0B2
:102FD40040F2E930E3E73A4B07CBC4F802017960E9
:102FE400BA60B368374A0121204698474FF48022DB
:102FF4004FF4E001284618F029FA002846D180232E
:1030040001AA4FF4E001284618F0FCF9002840D149
:1030140001AB21A913F8012BFF2A3DD18B42F9D131
:10302400294B07CBC4F802017960BA60B368274A18
:103034000121204698470623254A2649284618F0A8
:10304400F3F960BB0623244A2449284618F0ECF916
:1030540040BB802301AA1F49284618F0D3F920BB9E
:103064000C221F4901A81BF0DDF808BB1D4B1A8870
:103074009B78A4F80221BB7091E740F2E9308EE717
:1030840040F2E9308BE740F2E93088E740F2EA3079
:1030940085E740F2EA3082E740F2EB307FE74FF415
:1030A4007B707CE74FF47B7079E74FF47B7076E7B5
:1030B4004FF47B7073E700BFC00502007803020081
:1030C400D0050200DC050200EC050200F805020050
:1030D40008060200FCFF71001006020002007200E4
:1030E4001806020028690300F0B591B0002301938B
:1030F400ADF80830B2F5004F01D011B0F0BD05466F
:103104000C4683681E4A0021204698470FA91D4893
:1031140018F054F9C8B903A90F9818F0B7F9039B2C
:103124000F9A21462846FFF719FF06460F9818F014
:103134005CF966B9EE680023022219462046B047BE
:103144002B69022120469847D7E74FF47A7604F199
:103154006407C6F30E020C4938461BF0D7F8AB6877
:103164003A46022120469847EE6800230322194676
:103174002046B0472B69032120469847BDE700BF8E
:1031840028060200480602005006020030B583B04B
:1031940005460C46B2F5004F2FD0102A48D0002A1D
:1031A40044D1486E17F050FCB0F57A7F3ED317F047
:1031B4003DFC606604F168020121654818F026F8B8
:1031C400002839D1AB68634A022120469847A06E93
:1031D40018F056F80023022219462046D5F80CC0F0
:1031E400E0472B690221204698475B4B1A889B785D
:1031F400A4F8022184F8043118E08368574A0021B6
:1032040020469847AB68564A012120469847AB6848
:10321400544A02212046984701A9534817F0F4FC68
:103224000023E366236717F001FC606603B030BD3A
:10323400436908469847F9E7031F092B51D8DFE88B
:1032440003F01E505050504105505032AB68474A6D
:10325400022120469847464B07CBC4F80201C4F824
:103264000611C4F80A211A889B78A4F80E2184F860
:103274001031236F5A1C042B47D02267D6E7AB6862
:103284003C4A0221204698473B4B07CBC4F8020135
:10329400C4F80611C4F80A211A889B78A4F80E21F0
:1032A40084F81031E5E7AB68344A02212046984798
:1032B400334B03CBC4F80201C4F806111B88A4F8ED
:1032C4000A31D6E7AB682F4A0221204698472E4B95
:1032D40003CBC4F80201C4F806111B88A4F80A3110
:1032E400C7E7AB681F4A022120469847274B07CB04
:1032F400C4F80201C4F80611C4F80A211A889B789C
:10330400A4F80E2184F81031B3E700232367E36E99
:103314000133E366062B16D1AB681D4A0221204611
:1033240098470023032219462046D5F80CC0E047ED
:103334002B69032120469847164B03CBC4F802019E
:10334400C4F8061172E701A9074817F05DFC6DE7A0
:10335400C0060200BC0202002869030064060200E1
:103364008406020098020200B0060200D4020200A1
:10337400F4020200040302002403020034030200E6
:10338400500302005C03020078030200D00602002E
:10339400C0030200D803020030B583B005460C46D2
:1033A400B2F5004F2FD0102A48D0002A44D1486EDD
:1033B40017F04AFBB0F57A7F3ED317F037FB60660F
:1033C40004F168020121654817F020FF002839D173
:1033D400AB68634A022120469847A06E17F050FF5D
:1033E4000023022219462046D5F80CC0E0472B6979
:1033F4000221204698475B4B1A889B78A4F8022147
:1034040084F8043118E08368574A0021204698471D
:10341400AB68564A012120469847AB68544A0221BA
:103424002046984701A9534817F0EEFB0023E366B2
:10343400236717F0FBFA606603B030BD43690846A2
:103444009847F9E7031F092B51D8DFE803F01E5012
:103454005050504105505032AB68474A0221204633
:103464009847464B07CBC4F80201C4F80611C4F8C8
:103474000A211A889B78A4F80E2184F81031236F4E
:103484005A1C042B47D02267D6E7AB683C4A02217A
:10349400204698473B4B07CBC4F80201C4F80611F9
:1034A400C4F80A211A889B78A4F80E2184F81031F4
:1034B400E5E7AB68344A022120469847334B03CBF7
:1034C400C4F80201C4F806111B88A4F80A31D6E72F
:1034D400AB682F4A0221204698472E4B03CBC4F8F1
:1034E4000201C4F806111B88A4F80A31C7E7AB68C7
:1034F4001F4A022120469847274B07CBC4F80201F4
:10350400C4F80611C4F80A211A889B78A4F80E217D
:1035140084F81031B3E700232367E36E0133E366D5
:10352400062B16D1AB681D4A02212046984700237A
:10353400032219462046D5F80CC0E0472B69032125
:1035440020469847164B03CBC4F80201C4F8061171
:1035540072E701A9074817F057FB6DE7C0060200A0
:10356400BC02020028690300E0060200840602008F
:103574009802020000070200D4020200F4020200D2
:103584000403020024030200340302005003020077
:103594005C03020078030200D0060200C0030200AC
:1035A400D803020070470000B2F5004F00D0704706
:1035B400F0B587B005460C468368404A0021204692
:1035C400984705A93E4817F045FBE0B1AB683D4A72
:1035D4000021204698470023032219462046EE681E
:1035E400B0472B69032120469847374B03CBC4F8D7
:1035F4000201C4F806111B88A4F80A31059817F0D3
:1036040036FB07B0F0BD022301930A238DF808307E
:1036140001238DF80930CDF810D001A9059817F0D1
:103624002EFBD8B1AB68294A002120469847EE68A2
:103634000023032219462046B0472B690321204664
:103644009847234B03CBC4F80201C4F806111A8827
:103654009B78A4F80A2184F80C31CFE7009B6422FC
:1036640002FB03F31B4EA6FB03269B1B06EB530630
:10367400760A04F164073246174938461AF046FEC2
:10368400AB683A46002120469847503E282E0AD976
:10369400EE680023032219462046B0472B69032114
:1036A40020469847AAE7EE680023022219462046DE
:1036B400B0472B690221204698479FE7DC070200A8
:1036C40028070200F0070200780302001008020035
:1036D40078070200251540523408020000B583B073
:1036E4000023019340B1431E062B09D8DFE803F001
:1036F4000C11161B20252A0001A9154817F084FA7D
:10370400019803B05DF804FB01A9124817F07CFA94
:10371400F6E701A9104817F077FAF1E701A90F4875
:1037240017F072FAECE701A90D4817F06DFAE7E714
:1037340001A90C4817F068FAE2E701A90A4817F052
:1037440063FADDE701A9094817F05EFAD8E700BF7C
:103754004C080200540802005C08020064080200DD
:103764006C080200740802007C080200840802004D
:1037740082B02DE9F04F8FB080468B4616461993E0
:103784001C9D8368A04A0121584698479F4B03CB50
:10379400CBF80201CBF806111B88ABF80A310DAA4D
:1037A4001021304617F062FE002840F01B810BF513
:1037B400817A0D9B512B06D040F2E9300FB0BDE861
:1037C400F04F02B070470DAA1121304617F04EFE9B
:1037D400002840F00A810D9B522B02D040F2E930C0
:1037E400ECE70DAA1221304617F040FE002840F005
:1037F400FF800D9B592B40F0FE8000240694CDF8E9
:103804000CA00895C246049626465F4607F1640B51
:1038140022467F4958461AF079FDDAF808305A46AC
:1038240001213846984700230293E3B205930B9491
:10383400029A0792774958461AF068FDDAF8083078
:103844005A46012138469847089B002B00F0B48063
:1038540019AB0A934FF000094D46CDF82490DDF8DA
:103864001880099A6C4958461AF050FDDAF8083065
:103874005A460121384698470A9B06935C69B4422C
:1038840007D1069B1B69002B00F088804B440693EC
:1038940041E0624E23463246614958461AF036FDED
:1038A400DAF808305A46032138469847B046E8E724
:1038B4004E4635E04B4600225A4958461AF026FD3A
:1038C400DAF808305A460121384698472A465649BC
:1038D40003981AF01BFD3CB108F1FF33621E424409
:1038E40003F8016F9A42FBD122462946049E3046D2
:1038F40017F0ACFD002840F081802346424629465B
:10390400304617F091FD00287BD109F101092544C7
:10391400069B994541D0059B002BC9D089F0FF0631
:10392400029B002BC6D04B46079A404958461AF0D2
:10393400EDFCDAF808305A460121384698472A4601
:103944003B4903981AF0E2FC234642462946049870
:1039540017F058FD002CD8D008F1FF324346601E02
:103964004044944612F8011FB14202D18242F8D178
:10397400CBE74A46D946C3F101030191009663445B
:103984002C4948461AF0C2FCDAF808304A460221AB
:103994003846984740F2014010E79946099B0133A5
:1039A40009930A9A08320A92089A9A4201D0264642
:1039B40057E7CDF818802646029B01330293022B69
:1039C4007FF436AF0B9C0134022C7FF41FAFDDF87B
:1039D4000CA0194B1A889B78A7F802218AF80230A8
:1039E4000020EBE640F2E930E8E640F2E930E5E6B3
:1039F40040F2E930E2E640F2E930DFE642F24870B4
:103A0400DCE642F24970D9E6C00502007803020000
:103A14008C08020098080200A8080200000040A0D8
:103A2400B4080200D40802000009020014090200CC
:103A3400400902005409020028690300B2F5004F4E
:103A440000D07047F0B59BB005460C468368264A03
:103A540000212046984719A9244817F0AFFC40BB21
:103A64000DA9199817F012FDEC460DF1380EBEE8B9
:103A74000F00ACE80F00BEE80F00ACE80F009EE8B2
:103A840007008CE807000D9B199A21462846FFF78A
:103A94006FFE0646199817F0A8FC66B9EE68002375
:103AA400022219462046B0472B6902212046984736
:103AB40018E04FF47A7604F16407C6F30E020C4959
:103AC40038461AF023FCAB683A4602212046984750
:103AD400EE680023032219462046B0472B690321D0
:103AE400204698471BB0F0BD90090200480602002A
:103AF40050060200034B1B684FF0FF32C3F8D42B6F
:103B0400704700BF58BE3CA070B58AB004460EF0A2
:103B14002DFF09AA0021204618F0CBF9184C4FF4C8
:103B2400F84307930023069347F6E07605960222AE
:103B3400049240F2DF12039240F27F220292019338
:103B44000093099B4FF4F0724FF4207120680DF03C
:103B5400B5FE0C4D294620680EF0F0F91F220A49E3
:103B640020680EF000FA314620680DF0E2FE294686
:103B740020680EF0E3F90EF00DFF0AB070BD00BF2F
:103B840058BE3CA014230400D40902002DE9F047D8
:103B940088B0DFF81C81D8F8000000F66424002502
:103BA400ADF81850ADF81A50C369ADF81C30036A6B
:103BB400ADF81E303F490EF0C1F9D8F800000EF000
:103BC400BFF987B206AE0A2130460FF093F807F129
:103BD4004602022392B2694630460FF0B7F804ABAE
:103BE40096E8030083E80300D8F8002002F6CC32FC
:103BF40082E80300022118460FF07CF80437BFB2B4
:103C0400442F38BF44276826DFF8ACA0DFF8AC9017
:103C1400D8F800301B6EAB422ED9BDF816300133F4
:103C2400BDF812209B1A9F4226DA01233A4602A9C4
:103C340004A80FF069F8BDF808302380BDF80A30F5
:103C44006380BDF80C30A380BDF80E30E380D8F853
:103C540000209119A160C4F80CA0C4F81090311F81
:103C64001144A1611649E1610233A2F8D23B203428
:103C740001358036092DCBD1012168460FF03AF881
:103C8400BDF8003023807F33A380BDF80230638009
:103C94003F33E3800B4BA3600B4BE3600B4B23617F
:103CA4000023A361E361A36208B0BDE8F08700BF0D
:103CB40058BE3CA0142304002D3E000054B0020062
:103CC400D53C0000A8FD0100F93A0000180E0300DD
:103CD40030B589B004460388ADF818304388ADF890
:103CE4001A308388ADF81C30C388ADF81E301C4DE3
:103CF4001C4928680EF022F928680EF021F985B2D3
:103D0400022106A80EF0DAFF0223402204A906A825
:103D14000FF03EF8236993B1BDF810300393BDF85A
:103D24001230029302AA03A90D4B18680DF015FE78
:103D3400BDF80820BDF80C1020690EF0B5FE2A4627
:103D4400694606A80FF06EF8BDF80230BDF80020F1
:103D5400A168034800680EF0B6F809B030BD00BF92
:103D640058BE3CA01423040070B586B00EF0FEFDCE
:103D7400284C294920680EF0E1F820680EF0E0F89C
:103D8400054647F6E07120680DF0D3FD0021206858
:103D94000DF0D1FD2068B0F8D03BB0F8CE2BB0F8D0
:103DA400CC1BB0F8D26B00960DF02FFD2068036E8B
:103DB40013BB90F8E03B102B28D0092B28D0174CCC
:103DC400174A302B18BF144621460EF025F9114E20
:103DD400336882B204A903F6CC300FF043F8AAB2D8
:103DE40002A904A80FF01EF8BDF80A30BDF8082097
:103DF400214630680EF067F8064B186800F6642117
:103E04000EF0EAFA0EF0C6FD06B070BD044CDBE716
:103E1400044CD9E758BE3CA014230400300A020025
:103E2400FC090200100A020008B5806900F066FE71
:103E3400054B1B68D3F8D80BFFF766FEFFF7A6FE09
:103E4400FFF792FF08BD00BF58BE3CA010B59AB062
:103E540002460C4901A81AF059FA012301AA0A4999
:103E64000BA81AF053FA6A4601210BA817F0CEF9F1
:103E7400044610B120461AB010BD009817F000FA9D
:103E8400F8E700BF580A0200600A020010B58CB0BF
:103E94000246094902A81AF039FA01AA012102A826
:103EA40017F0B4F9044610B120460CB010BD0198C7
:103EB40017F0E6F9F8E700BF740A020010B58CB0F9
:103EC4000246094902A81AF021FA01AA012102A80E
:103ED40017F09CF9044610B120460CB010BD0198AF
:103EE40017F0CEF9F8E700BF8C0A02002DE9F0477D
:103EF40094B0804600231293364B1D68024636491F
:103F040008A81AF003FA13A908A817F0C3FE18B1F9
:103F1400302014B0BDE8F0873049139817F01FFF24
:103F240068B1129B002B4AD0002B4DDD643501246F
:103F34002646DFF8AC902B4FDFF8ACA019E012ABAB
:103F440000222A49139817F01FFF129B002BEBD174
:103F54002749139817F003FF12AB00222349139843
:103F640017F012FFDDE70134E4B22646129B9C42AF
:103F74002ADC3246494605A81AF0C8F950230093B2
:103F84002B1D3A4605A9139817F02EFF00BB3246A5
:103F9400514603A81AF0BAF92823009305F15503F2
:103FA4003A4603A9139817F01FFF0028DBD145F800
:103FB400808B084B1A68136E01331366D3E713988A
:103FC40017F0A2FE3020A4E7139817F09DFEA0E797
:103FD40030209EE758BE3CA08C0A0200A40A0200CE
:103FE400CC0A02003C790300D40A0200B80A020099
:103FF400C40A02002DE9F0478EB00746304B1C6816
:104004000246304904A81AF081F903AA012104A840
:1040140017F0FCF8064618B130460EB0BDE8F0873C
:1040240002A9039817F084F9029B002B44D004F1F1
:10403400640A0025A8462C464FF0010912E02C2BF7
:1040440006D04F2D0AD80AEB05021371013505E09D
:104054000AEB050300251D714FF001080134029B92
:10406400A34229D901AB4A460DF10301039817F085
:104074002BF9064600BB019BF3B19DF803300D2BD1
:10408400ECD0B8F1000FDAD00A2B07D0272DE5D8F1
:104094000AEB050282F855300135DFE755444FF04D
:1040A400000885F855804AF8807B054B1A68136E22
:1040B400013313664546D1E7039817F0E1F8ABE7FF
:1040C40058BE3CA0740A020030B5A9B040F6E430F2
:1040D40018F08CF8664B186080B140F6E432002189
:1040E4001AF011FA25AA1021012016F046FB38B166
:1040F4005F4C206818F082F80023236029B030BD9B
:1041040025AA24A95B4818F0ABFA18B1259816F033
:1041140059FBEDE727A9584817F0A7FE20B12599C8
:10412400249818F00AFBF1E7514B1B68279AC3F84F
:10413400D82B4FF0FF31302002F07CFC0020FFF739
:1041440085FE04460120FFF781FE002C78D068B973
:104154000123009300238DF804308DF85530684610
:1041640000F0CCFC279817F097FED8E70020FFF763
:10417400A5FE04468DF898000120FFF79FFE8DF8F8
:104184009900002C5ED0002833D1394B1B680124E0
:10419400C3F8DC4B00221A662046FFF7A7FE04F1A1
:1041A400A0030DEB030404F8080C314B1B6883F8DF
:1041B400E00B2798FFF7A8FCFFF7E8FCFFF7D4FD16
:1041C4002B4C4FF0FF352368D3F8D43B002BC9D1D7
:1041D4002A4620A9259816F0BEFB0028F3D1244BCB
:1041E40018684FF4FA73259A00F664210EF0EEFA7B
:1041F400E7E70020FFF74AFE05468DF89800012006
:10420400FFF744FE8DF899001DB3B0F10D0418BFFB
:104214000124174B1B68C3F8DC4B00221A6604F117
:10422400A0036B4413F8083CCBB1114B1B6804F199
:10423400A0020DEB020414F8082C83F8E02BB8E775
:10424400002386E70A4B1B680024C3F8DC4B1C667A
:10425400A2E7074B1B680024C3F8DC4B1C6620460E
:10426400FFF7C8FE04F1A0036B4403F8080CDCE775
:1042740058BE3CA0BCFD0100C8FD01000022084B53
:1042840003F14C0013F8011B0A448342FAD1D243D0
:10429400034BD86C904214BF16200020704700BF17
:1042A4005CBE3CA000B583B000220D4B03F14C0072
:1042B40013F8011B0A448342FAD1D243084BDA644F
:1042C40001A9084816F01EFF10B103B05DF804FB05
:1042D400502300220249019816F033FFF5E700BF8E
:1042E4005CBE3CA03005020000B583B001A90B48B8
:1042F40016F008FF034618B1184603B05DF804FB36
:10430400502300220649019816F009FF03460028AD
:10431400F2D1FFF7B3FF0346EEE700BF300502001A
:104324005CBE3CA038B51A4C5022002120461AF03D
:10433400EAF84FF0FF35A564C02184F83A10A822AA
:1043440084F83B200A2384F83C30142084F83D0090
:10435400FF2084F83E5084F83F0084F8400084F83D
:10436400421084F8432084F84430012384F8453013
:10437400BD2384F83530332384F83630062384F89B
:104384003730682384F83830222384F8393038BD34
:104394005CBE3CA0074B1B684FF0FF32C3F80C22F5
:1043A400C3F824220021C3F81012C3F81422C3F85E
:1043B4001C127047B0BE3CA0064B1B680022C3F819
:1043C40028224FF0FF32C3F81422034B0361034B3E
:1043D400C3607047B0BE3CA0D09A0200954500006F
:1043E4002DE9F0418EB005460EF0C0FA524B186824
:1043F400524C2368D3F8E8114FF4162202FB010152
:104404000EF050FD2068D0F81032D3B94B4B1B6826
:10441400D3F81C32002B73D1002D00F08380474B5E
:104424001B68D3F82C22002A71D1D3F83032002B28
:1044340075D00EF0E5FA414B1B680022C3F8302218
:1044440072E000210DF077FA002120680DF071FA76
:10445400002120680DF072FA394920680DF06EFDD4
:1044640023680CAE03F5FA7292E8030086E80300B1
:10447400012118460DF062FA206800F164010DF084
:10448400ABFF2368D3F8C821D3F8C43101322D49D6
:10449400684619F03BFF694620680DF0BDFD804673
:1044A400236803F5F67393E8030086E803000A2102
:1044B40030460EF01FFC0AAF1FFA88F23946304628
:1044C4000EF0D0FC97E8030086E8030020680DF0A6
:1044D40037FD82B2394630460EF0A4FC47F6E0714F
:1044E40020680DF026FA002120680DF093FDBDF838
:1044F4002A30BDF82820694620680DF0E4FC85E7E1
:10450400C6224FF48E7110480EF0CEFA84E70EF0F6
:1045140049FA0A4B1B680022C3F82C2204E00EF06F
:1045240039FA01E00EF036FA044B1B680022C3F896
:1045340014220EB0BDE8F08104000010B0BE3CA00F
:1045440014230400DC0A02008828020008B50F4B7B
:104554001B68D3F8102292B90C4B1A68D2F8C831F0
:104564000133D2F8C4118B4228BF0023C2F8C831EA
:104574004FF0FF33C2F81832C2F8303208BD0020C1
:10458400C3F81002FFF72CFFE6E700BFB0BE3CA063
:1045940008B5084B1B684FF0FF32C3F82822C3F854
:1045A4001422054B0361054BC3600020FFF7CEFFC7
:1045B40008BD00BFB0BE3CA0FCA10200BD4300008A
:1045C40008B5114B1B68D3F81022BAB90E4B1B68FF
:1045D400D3F8C8211AB9D3F8C421C3F8C821D3F831
:1045E400C821013AC3F8C8210022C3F810224FF0B1
:1045F400FF32C3F81822C3F82C2208BD0020C3F8E8
:104604001002FFF7EDFEE1E7B0BE3CA02DE9F04F4C
:10461400ADF5077D0188B0F802A00469A789E28995
:1046240004F1150006AD86AE10F801CC4FEADC0C9F
:1046340010F8023CDB085B0143EA8C2310F803CC3E
:1046440043EADC0325F8023B0330B542ECD1002AEF
:104654004ED0501E07F2123307FB003323440020D0
:10466400DFF894800591049299463B4632E0023685
:104674005D4525D015F8013B06AA32F81340002CFD
:10468400F5D0234652463146D8F800000DF070F9B3
:1046940006F10109234652464946D8F800000DF0B8
:1046A40067F923463A463146D8F800000DF060F920
:1046B40023463A464946D8F800000DF059F9D6E7A2
:1046C400019B0298DDF80C9001300AF1020A049A69
:1046D40082420DD0CB46A9EB03094D46002BF3D003
:1046E4000AF10107059E01930290CDF80C90C1E7F1
:1046F4000DF5077DBDE8F08FB0BE3CA02DE9F04F6D
:10470400BFB04FF0FF320023079306931F46B0E07B
:104714004FF0FF32ADE093F8CC21022A40F0BC8088
:10472400002207923B97079A03323C9200223BA94E
:10473400D3F8E00116F08BF80022069299E093F882
:10474400D421022A40F0AD8001220792EAE74F46C5
:10475400039D3D95D4F82432002B40F0E880D4F832
:104764003432002B00F0BF804FF000038DF824306A
:104774007E4B1B681B6E1A680135009509AB7C499A
:104784001DA819F0C3FD08AA01211DA816F03EFDBD
:10479400002840F0CC80049BDD1C089816F070FDC6
:1047A400744B1B6803F53B1303F5005304F50972BE
:1047B400E9B21DA80EF02CFA0446002840F0B78098
:1047C4006A4B1868049B00EBC303022283F8CC21D4
:1047D4003D9AC3F8D021069B002B00F0A6803B9B9A
:1047E4009A4200F09580002243E0002E3CD1059BC4
:1047F400002BBCBF5B180593059B5F1EB8F1000F2F
:10480400B8BFF0442E46424608F1FF38059B059791
:10481400013081422AD9B3FBF1F701FB173304932A
:10482400B2FBFEF70EFB1722039204EBC307D7F883
:10483400D0B15A458BD197F8CC71002F87D0AE42B6
:10484400E6D8002DD1D1614538BFACEB010C0CF199
:104854000105D64538BFAAEB0E0A52460AF1010AF1
:104864006346AC460125D3E73546D1E74F464FF0C2
:10487400FF323E4B1B683DA9D3F8DC0116F06BF800
:1048840098B93D9FB7F1FF3F62D0384B1B68D3F80E
:10489400D02197423FF43FAFD3F8D82197423FF459
:1048A4004EAF3B974FF0FF3306933D97079803466F
:1048B4003A462E490C68D4F8C4E17146022928BF4F
:1048C4000221461C0138059007F1010A07F1FF3B5C
:1048D400BEF1000F3FF41CAF0020B4460646B946B3
:1048E4000546D84697E7226E5532234909A819F0A0
:1048F4000DFD3DE73D9B3B934FF0FF333C931B4B3A
:104904001B6800223BA9D3F8E00115F0A0FF11E0D9
:104914003C9500223BA9D0F8E00115F098FF3D9F9B
:10492400049B079306940022A3E70022A1E7069BB9
:10493400002BDFD10D4B1B68049A03EBC203022248
:1049440083F8CC213D9AC3F8D0210022069290E747
:104954004FF0FF323B92054B1B683BA9D3F8E001B3
:1049640015F075FF00203FB0BDE8F08FB0BE3CA04D
:10497400F80A020004000010EC0A020070B58AB0C4
:1049840004460DF0F3FF09AA0021204617F091FA1E
:10499400154C4FF4F84307930023069347F6E0764B
:1049A40005960222049240F2DF12039240F27F2223
:1049B400029201930093099B4FF4F0724FF420711B
:1049C40020680CF07BFF094D294620680DF0B6FAEB
:1049D400314620680CF0ADFF294620680DF0AEFA90
:1049E4000DF0D8FF0AB070BDB0BE3CA01423040083
:1049F40030B5B1B0194B1B680022C3F8C421174C61
:104A0400174D1DE000238DF80C3023681A6E1268D0
:104A1400D3F8C4310133009303AB124917A819F03A
:104A240075FC02AA012117A816F0F0FBA0B92268B0
:104A3400D2F8C4310133C2F8C431029816F020FC14
:104A44002368D3F83422002ADCD11A6E5532294661
:104A540003A819F05BFCD8E731B030BDB0BE3CA070
:104A6400EC0A0200F80A020070B582B0224B1B68FF
:104A7400D3F8C8614FF0FF3203F5E471D3F8DC01D9
:104A840015F03EFF1C4CFA2508E0C3F81C02FFF7A2
:104A9400A7FC19E02368D3F81C222AB323682A460A
:104AA4006946D3F8E00115F056FF0028F2D1009BC7
:104AB400B342F3D1019BB3F1FF3F13D00E4B1B68FC
:104AC400D3F81C22002AE0D10B4B1B680022C3F848
:104AD40018224FF0FF31C3F814120199C3F8E811FA
:104AE400C3F81C2202B070BD4FF0FF32C3F81C2281
:104AF4000020FFF775FCD1E7B0BE3CA02DE9F043E0
:104B040095B005464FF40E7017F070FBBB4B186060
:104B140038B304464FF40E72002119F0F4FC04F586
:104B2400EE720421032015F028FEE8B1B34B1B6894
:104B3400D3F8E421002A40F02182B04B1B68D3F85B
:104B4400DC01002840F03282AC4B1B68D3F8E00152
:104B5400002840F02E82A94C206817F04FFB002358
:104B6400236015B0BDE8F083A44B1A6802F5F07217
:104B74000821032015F001FE0028D7D12B794BB969
:104B840095F8553033B99D4B1B684FF0FF32C3F88D
:104B9400342204E0994B1B680022C3F83422974B5B
:104BA4001A680023C2F8E43102F5F272019202227B
:104BB40000924FF420729249924815F087FF002822
:104BC400B4D18E4B1B684FF0FF31C3F81012002292
:104BD400C3F81C22C3F80C221D66C3F8C821C3F80D
:104BE4001812C3F81412C3F82022874B1B6883B130
:104BF40012AA1021012015F0C0FD002896D112AA96
:104C040011A9824817F02CFD48B1129815F0DAFD6D
:104C14008CE77D4A0121032015F0AFFDE8E713A9D5
:104C24007B4817F022F920B11299119817F085FDED
:104C3400EBE7FFF7DDFE714B1B68D3F8C4311BB9FA
:104C4400139817F029F9EFE71398FFF797FE6B4FC6
:104C54003C680025ADF80C50ADF80E50E369ADF892
:104C64001030236AADF812306A4920460DF066F917
:104C7400396803AE2B464A2201F5FA7130460EF02C
:104C840065F83B6803F5FE7296E8030082E80300CA
:104C940005AE03F5FA7393E8030086E803000521E3
:104CA40030460EF027F82823402207A930460EF09C
:104CB4006FF8BDF81C30A4F86430BDF81E30A4F8B9
:104CC4006630BDF82030A4F86830BDF82230A4F86E
:104CD4006A30DFF84491C4F86C90504B2367504B12
:104CE4006367E567DFF83C81C4F8808028234022AD
:104CF40007A930460EF04CF8BDF81C30A4F88430F7
:104D0400BDF81E30A4F88630BDF82030A4F88830F1
:104D1400BDF82230A4F88A30C4F88C90424BC4F811
:104D24009030424BC4F89430C4F89C50C4F8A0802E
:104D34002823402207A930460EF02AF8BDF81C307B
:104D4400A4F8A430BDF81E30A4F8A630BDF8203075
:104D5400A4F8A830BDF82230A4F8AA30C4F8AC9066
:104D6400334BC4F8B030334BC4F8B430C4F8BC503F
:104D7400C4F8C08039680223642201F5F671304614
:104D84000EF02AF82823402207A930460EF024F812
:104D9400BDF81C30A4F8C430BDF81E30A4F8C630E9
:104DA400BDF82030A4F8C830BDF82230A4F8CA30C9
:104DB400C4F8CC90204BC4F8D030204BC4F8D43085
:104DC400C4F8DC50C4F8E080C4F8EC503B68D3F875
:104DD4000C32002B7FF434AF3C464FF0FF370A4EC1
:104DE40037E0FFF741FE15F021FE054638E038466E
:104DF400FFF7F6FA15F01AFE054636E0B0BE3CA001
:104E04000C0B020001470000ACBE3CA0BCFD01003D
:104E1400C8FD0100142304003C790300C5450000CB
:104E2400A49302001146000095450000D09A0200A8
:104E34005145000028A9020099430000788C020023
:104E44000020FFF783FB2368D3F80C32002B7FF498
:104E5400F7AE17F0BDF92368D3F81832002BC0D190
:104E64002368D3F81432002BC1D100220DF127019D
:104E7400306815F070FD022812D09DF82730012B00
:104E8400DED0022B08D0002BDDD14B4B1B684FF03A
:104E9400FF32C3F80C22D3E60020FFF791FBD2E7E0
:104EA4003A460DA9129815F056FD0028CBD1424B75
:104EB4001868D0F8103283B9109B012B3FD0D0F87A
:104EC4002832D3B1284615F0BFFD40F6B7339842D7
:104ED40010D90020FFF73AFB0CE04FF4FA73129A52
:104EE40000F164010DF072FC284615F0ADFDB0F53B
:104EF4007A6F17D2109B012B27D02F4B1A68D2F848
:104F040020324BB1D2F80832D2F804229B1A13F1A2
:104F1400800F2BDB802B2DDC274B1B680022C3F872
:104F2400202290E7244B1B680022C3F810224FF084
:104F3400FF32C3F8142215F079FD0546DAE74FF085
:104F4400FF33C0F81032C0F814321B4B1B68D3F87F
:104F540020223AB90F9AC3F804224FF0FF32C3F863
:104F6400202270E70F9AC3F80822F6E70020FFF723
:104F7400EDFAD1E70020FFF723FBCDE74FF0FF3236
:104F84000C920CA9D3F8DC0115F0BAFC00250A4CEC
:104F94000A9523684FF0FF320AA9D3F8E00115F00F
:104FA400DAFC0A9BB3F1FF3FF2D1C6E515F00AFC27
:104FB400CAE515F007FCCEE5B0BE3CA08269D2F884
:104FC400C83183F00103C2F8C831704783694FF0D8
:104FD400FF329A60704700002DE9F04F95B0044607
:104FE4000DF0C4FC254613AA002155F80C0B16F04D
:104FF40060FF4FF4F84307930026069647F6E077E0
:1050040005974FF00209CDF8109040F2DF13039397
:1050140040F27F23029301960096139B4FF4F072A3
:105024004FF4207128460CF049FCDFF8D8A1514612
:1050340028460CF083FF28460CF082FFA4F8C00138
:105044001F22714928460CF08EFF394628460CF081
:1050540070FC314628460CF06EFCADF84460ADF8A7
:105064004660A36AADF84830E36AADF84A300821D7
:1050740011A80DF03FFEB4F8C02146324B4692B25F
:105084000BA911A80DF062FE01210BA80DF032FE50
:10509400BDF82C30A4F86C307F33A4F87030BDF820
:1050A4002E30A4F86E303F33A4F87230574B636748
:1050B400574BA367574BE367C4F88440C4F8886030
:1050C400314628460CF0A6FF314628460CF036FC43
:1050D400012128460CF09EFF4F4928460CF02EFF74
:1050E400312128460CF030FFA4F8C20128460CF008
:1050F40027FF82B2A4F8C421B4F8C2B10BEB4B0B66
:105104004FEA4B0B0BF18A0B04F5D6770832802A51
:1051140038BF802292B2394611A80DF083FE0DF1FA
:105124003C0897E8030088E803001FFA8BF239462D
:1051340040460DF097FE97E8030088E803004B46CD
:10514400802209A940460DF047FE334680220DA96E
:1051540009A80DF0D9FDBDF83430A4F88C30BDF8A1
:105164003630A4F88E30BDF83830A4F89030BDF84D
:105174003A30A4F89230DFF8A4B0C4F894B0284BC5
:10518400C4F89830274BC4F89C30C4F8A440C4F841
:10519400A860B4F8C2210432334692B20DA9404645
:1051A4000DF01AFEBDF83430A4F8AC30BDF836303A
:1051B400A4F8AE30BDF83830A4F8B030BDF83A30B9
:1051C400A4F8B230C4F8B4B0154BC4F8B830C4F87D
:1051D400BC60C4F8C440C4F8C860494638460DF001
:1051E40089FDC4F8D460514628460CF0A7FE04F1AA
:1051F4006C0128460DF0F0F80DF0CCFB15B0BDE8BD
:10520400F08F00BF14230400140B0200A8FD01005A
:10521400D14F0000180E0300CC7A03003C79030040
:10522400C14F0000F45202002DE9F04F8DB04FF44D
:10523400E87016F0DBFF764B1860A0B104464FF41B
:10524400E872002119F05FF90123C4F8BC3104F5B8
:10525400E671704817F023F840B16D4C206816F0E1
:10526400CDFF002323600DB0BDE8F08F6A4A102102
:10527400012015F082FA30B1654B1B68D3F8CC01DC
:1052840017F01AF8E9E7644A0BA9644817F0E8F93B
:1052940020B1614B186815F095FAEDE75C4B19687D
:1052A4005F4816F0E2FD28B15B4B19680B9817F0C4
:1052B40044FAEEE7564C2068FFF78EFE20688368B8
:1052C400002B6BD0006816F0E7FDEDE7059B03EBC0
:1052D400C303544A82FB0312DB17C3EB620303F5D7
:1052E400001305931A149BB203EB8303DB0B4E49A3
:1052F40008A819F00BF874E04C4B089371E06D08A2
:10530400454405F1FF3AB9F8AE21414620460CF078
:10531400A8FC47F6E07120460CF00BFB039B1978C0
:10532400202901D05F2920D107AA06A920460CF024
:10533400B1FC069B9A451CDCA8465E4529D039463B
:1053440020460CF0F8FA394620460CF0F2FA3946B9
:1053540020460CF0F3FAB9F8C251013603963378BB
:105364002E2BCCD05F2BCBD1C9E720460CF0EAFC26
:10537400DAE7394620460CF0DCFA079AB9F8C4316A
:105384001344013B0093AB1E069920460CF03DFAF2
:10539400D2E71F4B18688368002B93D14FF4FA733C
:1053A4001D4A126800F16C010C300DF00FFA184B15
:1053B400D3F8009005A9D9F8CC0116F085FF002890
:1053C4009AD1D9F8C811012980D0059B1A149BB22F
:1053D40003EB8303DB0B002989D1154908A818F0D6
:1053E40095FF09F10C04134920460CF0A7FD002198
:1053F40020460CF00FFE47F6E07120460CF099FAB7
:10540400B9F8AC810DF11F060DF1260B002796E7C4
:10541400B8BE3CA070040200B4BE3CA0BCFD0100B8
:10542400C8FD010067666666440B0200457272009F
:10543400380B0200CC7A030070477047A0F8621062
:105444004FF0FF33C0F8C83070474FF0FF33C0F857
:10545400C8307047074B1B6803B9704710B5D0F8C4
:1054640034411146204608F093FE0349204608F0D3
:105474008FFE10BDBCBE3CA07468030010B5D0F80C
:105484003441054B53F82210204608F081FE0349AD
:10549400204608F07DFE10BD10140200500B0200DF
:1054A40008B5094B1B683BB9084B1B6843B1084955
:1054B40008F06EFE002008BD064908F069FEF9E711
:1054C400054908F065FEF5E7CCBE3CA0D0BE3CA083
:1054D4005C0B0200540B0200680B020030B587B06D
:1054E400054601291ED0144602293CD1204B1B68D5
:1054F40053B3204B1A68204901A818F007FF6168CC
:1055040001A819F055F808B3194B1B684BB3194B94
:105514001A681A4901A818F0F9FE01A9284608F0EA
:1055240037FE0CE0124B1B6863B1124B1A68144926
:1055340001A818F0EBFE01A9284608F029FE002076
:1055440007B030BD0022F2E70022D4E7094B1A6805
:105554000C4901A818F0DAFE01A9284608F018FE43
:10556400EDE70022D5E7084908F012FEE7E700BF9F
:1055740044BF3CA048BF3CA098050200900B020029
:10558400780B0200800B0200A00B020010B5044649
:10559400012904D0064908F0FBFD002010BD0120BC
:1055A40001F0FCFD0349204608F0F2FDF5E700BFD9
:1055B400A00B02005C0B020010B50446012904D0C4
:1055C400064908F0E5FD002010BD022001F0E6FDCB
:1055D4000349204608F0DCFDF5E700BFBC0B0200E0
:1055E4005C0B020010B5012904D00446022905D041
:1055F400002010BD032001F0D1FDF9E70B4B4FF063
:10560400FF321A60032001F0C9FD084A1368002B19
:10561400FCD1074B1B6823B10649204608F0B8FDAE
:10562400E6E70549204608F0B3FDE1E7CCBE3CA01F
:10563400D0BE3CA05C0B0200680B020010B504460F
:10564400012904D0064908F0A3FD002010BD05205F
:1056540001F0A4FD0349204608F09AFDF5E700BFD8
:10566400BC0B02005C0B020008B5002001F096FDA3
:10567400002008BDF8B50646042904D0124908F0F4
:1056840087FD0020F8BD1546506808F061FD04460A
:10569400A86808F05DFD0746E86808F059FDE401D4
:1056A40004F4F844BF0007F478773C43C0F3C40023
:1056B4000443064B1C80042001F070FD044930466D
:1056C40008F066FDDDE700BFBC0B0200C4BE3CA0D1
:1056D4005C0B02002DE9F84380460D46144602F5A2
:1056E4008179144B1A889B78A4F8022189F8023036
:1056F400204601F07DFD0023C4F8C830C4F834818D
:105704004FF4004221460C48A847D4F8C8304BB99E
:10571400094F0026324621463846A847D4F8C830F7
:10572400002BF7D04A460549404608F05DFDBDE828
:10573400F88300BF28690300241402005C79030085
:1057440010B5CEB00446022905D0094908F020FD61
:1057540000204EB010BD506808F0FAFC36900123CA
:10576400ADF800316A4603492046FFF7B3FFEFE77F
:10577400BC0B0200912E000010B5CEB004460229E5
:1057840005D00C4908F004FD00204EB010BD50684F
:1057940008F0DEFC0023ADF8003128B16A46064962
:1057A4002046FFF797FFEFE76A4604492046FFF7D4
:1057B40091FFE9E7BC0B0200413A0000ED30000024
:1057C40000B5CFB0012906D0054908F0E1FC00205E
:1057D4004FB05DF804FB6A460249FFF77BFFF6E72A
:1057E400BC0B0200AD35000000B5CFB0012906D0D6
:1057F400054908F0CDFC00204FB05DF804FB6A4673
:105804000249FFF767FFF6E7BC0B0200292A0000F4
:1058140000B5CFB0012906D0054908F0B9FC002035
:105824004FB05DF804FB6A460249FFF753FFF6E701
:10583400BC0B02003928000000B5CFB0012906D006
:10584400054908F0A5FC00204FB05DF804FB6A464A
:105854000249FFF73FFFF6E7BC0B02003D250000BD
:1058640000B5CFB0012906D0054908F091FC00200D
:105874004FB05DF804FB6A460249FFF72BFFF6E7D9
:10588400BC0B02007127000000B5CFB0012906D07F
:10589400054908F07DFC00204FB05DF804FB6A4622
:1058A4000249FFF717FFF6E7BC0B02009131000035
:1058B40000B5CFB0012906D0054908F069FC0020E5
:1058C4004FB05DF804FB6A460249FFF703FFF6E7B1
:1058D400BC0B02009D33000010B50446022904D01D
:1058E4000B4908F055FC002010BD506808F030FC4E
:1058F400031E18BF01235B42064A1360064A074B86
:10590400002818BF1A460649204608F06DFCEAE74D
:10591400BC0B0200BCBE3CA0DC0B0200D80B020096
:10592400E00B020030B5C3B00446012906D041495A
:1059340008F02EFC0025284643B030BD41A93E485E
:1059440015F03CFD00286ED14FF480224FF4E001A5
:10595400419815F07BFD002834D1802301AA4FF42F
:10596400E001419815F04EFD002832D101AB21A988
:1059740013F8012BFF2A33D18B42F9D106232F4A86
:105984002F49419815F050FD88BB06232D4A2E4916
:10599400419815F049FD88BB802301AA2849419804
:1059A40015F030FD88BB0C22284901A818F03AFCF8
:1059B400054688BB2649204608F0EAFB419815F0C5
:1059C40014FDB8E72349204608F0E2FB4FF0FF3509
:1059D400B1E72149204608F0DBFB4FF0FF35AAE789
:1059E4001E49204608F0D4FB4FF0FF35A3E71C49BD
:1059F400204608F0CDFB4FF0FF359CE718492046C0
:105A040008F0C6FB4FF0FF3595E71349204608F030
:105A1400BFFB4FF0FF358EE71249204608F0B8FB74
:105A24004FF0FF3587E71049204608F0B1FB002509
:105A340081E700BFBC0B0200480602000806020012
:105A4400FCFF730010060200020074001806020036
:105A54005C0B0200F40B0200140C0200300C020078
:105A6400480C0200680C0200880C02002DE9F04F7B
:105A740089B0009014460139062900F2DD82DFE87E
:105A840011F0D502DB02DB02CA020700DB02BF0011
:105A9400506808F05DFB0546A06808F059FB814694
:105AA400E06808F055FB8046206908F051FB064683
:105AB400E8B2FDF713FE0746002862D05FFA88F0CB
:105AC400FDF70CFE0446002863D049EA052080B2A5
:105AD40015F0E2FD0546B0F1FF3F62D046EA08202A
:105AE40080B215F0D9FD0546B0F1FF3F5ED05FFAF4
:105AF40086F823681B6B00224146204698470125FF
:105B040005FA06F623681B6A31462046984723683F
:105B14005B6B002241462046984705FA09F53B682D
:105B24005B6A2946384698473B68DB69294638460C
:105B340098473B685B6B00225FFA89F138469847C7
:105B4400322012F037FC2368DB6A07AA314620466C
:105B540098473B689B6A294638469847322012F09A
:105B640029FC2368DB6A06AA314620469847079B2E
:105B740043B3069BFBB91B49009808F035FB00258D
:105B840050E22A461849009808F02EFB4FF0FF35E2
:105B940048E242461449009808F026FB4FF0FF35CE
:105BA40040E21249009808F01FFB3BE210490098BC
:105BB40008F01AFB36E20F49009808F015FB4FF085
:105BC400FF352FE2069B33B10B49009808F00CFB1C
:105BD4004FF0FF3526E20949009808F005FB4FF025
:105BE400FF351FE25C0B0200A40C0200BC0C020097
:105BF400E40C02000C0D0200340D0200200D020022
:105C0400506808F0A5FA0546A06808F0A1FA824693
:105C1400E06808F09DFA8046206908F099FA834606
:105C2400606908F095FA8146A06908F091FA01903C
:105C3400E8B2FDF753FD0746002800F080815FFAC3
:105C440088F0FDF74BFD0446002800F080815FFAE0
:105C540089F0FDF743FD0646002800F080814AEAFA
:105C6400052080B215F018FD0546B0F1FF3F00F0A5
:105C74007E814BEA082080B215F00EFD0546B0F196
:105C8400FF3F00F07981019B43EA092080B215F0BF
:105C940003FD0546B0F1FF3F00F073814FF00108AA
:105CA40008FA0AF53B681B6A294638469847E9B260
:105CB40003913B681B6B0222384698475FFA8AF1CE
:105CC4003B685B6B002202913846984708FA0BF94F
:105CD40023681B6A4946204698475FFA89F0049076
:105CE40023681B6B02220146204698475FFA8BFB10
