:10000000400D0010010300001B0300007C030000F2
:100010001D0300001F03000021030000CBDFFFEFE2
:10002000000000000000000000000000B1F002002D
:10003000250300000000000041F1020085F10200EC
:1000400071BB020081BB020091BB0200A1BB020098
:10005000B1BB0200C1BB0200D1BB0200E1BB020088
:10006000F1BB020001BC020011BC020021BC020075
:1000700031BC020041BC020051BC020061BC020064
:1000800071BC020081BC020091BC0200A1BC020054
:10009000B1BC0200C1BC0200D1BC0200E1BC020044
:1000A000F1BC020001BD020011BD020021BD020031
:1000B00031BD020041BD020051BD020061BD020020
:1000C00071BD020081BD020091BD0200A1BD020010
:1000D000B1BD0200C1BD0200D1BD0200E1BD020000
:0400E000F1BD02006C
:0402FC00FFFFFFFF02
:10030000DFF88CD023488047DFF884D0224880472C
:1003100022482349016000F045B82FE02EE02DE08F
:100320002CE02BE02AE029E028E027E026E025E089
:1003300024E023E022E021E020E01FE01EE01DE0B9
:100340001CE01BE01AE019E018E017E016E015E0E9
:1003500014E013E012E011E010E00FE00EE00DE019
:100360000CE00BE00AE009E008E007E006E005E049
:1003700004E003E002E001E000E0FFE71EF0040F0C
:100380000CBFEFF30880EFF3098029F061BC000097
:100390000000011043F00100291C030008ED00E0FB
:1003A0000000000027498D4627482849284A00F0C8
:1003B00037F828482849294A00F032F828482949BE
:1003C000294A00F02DF8294829492A4A00F028F83E
:1003D00029482A492A4A00F023F82A482A492B4A60
:1003E00000F01EF82A482B49002200F024F82A4881
:1003F0002A49091A00220260043001601C481D4984
:10040000884205D00268043003B4904703BCF7E784
:1004100000208646EC4600200021214A9047FEE756
:10042000884207D0521A05D0037801300B70013191
:10043000013AF9D17047884202D002700130FAE7E0
:1004400070470000400D001060E106000000001041
:1004500004050010A4040000A40400007885030033
:1004600060E1060000000010000000107885030025
:10047000788503007885030078850300788503007C
:1004800078850300788503007885030060E1060025
:1004900060985EA0CCC85EA000EA53A060985EA001
:0404A0003BF001002C
:1004A40008B5882016F039FB16F044F805221146E9
:1004B400014815F0F5FC08BD98AB030010B582B0F7
:1004C40013F084FA044613F089FA03468822019251
:1004D400064A009222460021084613F0EDFD05224B
:1004E4001146034815F0DCFC02B010BDFF55550061
:1004F40098AB03002DE9F04F85B013F067FA074677
:1005040013F06CFA344B1C6834B1334B18680AF09E
:1005140043FA05B0BDE8F08F0646C9231A46002108
:10052400084609F0CFFB80460125009533463A463C
:100534000021084609F0BCFC274B186064232A46B6
:100544000021084609F0BEFB8146404609F0FCFC48
:100554008246882016F0E1FA15F0ECFF484609F0CF
:10056400F3FC882301931D4B00936423002211465E
:10057400104613F0A1FD48460AF0C2F9054640466C
:1005840009F0E2FC4FF0640B55F8040B16F0D0FAB6
:1005940022465946584618F0E1FA0134642CF3D146
:1005A4000D4B186809F0D0FC0021029101970096C8
:1005B40033460A4640460AF00BFF05221146084816
:1005C40015F06EFC404609F04FFC484609F04CFC1F
:1005D400504609F0B9FC98E764985EA0FF555500B1
:1005E40098AB030038B50446456855B90E21006838
:1005F4000CF002F84FF07F4120680CF0B0F9284667
:1006040038BD0CF051FE0546F9E7000008B5036853
:100614000F2B06D01E2B08D00E2B09D010F0F8FAA1
:1006240002E0094B1B68984708BD0023C360FBE741
:10063400C3685A68002AF7D01B686E2BF4D1034BA9
:1006440001221A60F0E700BF7C985EA068985EA063
:1006540030B583B0054610F057FE0446284610F026
:100664006DFE451E0A4B01930A4B00932B46A21EB6
:100674000021012013F020FD074816F059FA2B46FB
:10068400621E4FF0FF31002019F076F803B030BD40
:10069400DCCEC0FFF3F3E6FFA8A851FF10B582B08B
:1006A40004460368013B1C2B36D8DFE803F02435ED
:1006B40035353535353535353535351E3135353501
:1006C400353535353535353535350F0040F2611161
:1006D400406811F00BF9044601210DF037F9104977
:1006E40020460DF01BF902B010BD11F03DF8214673
:1006F4000FF0B3FCF7E713F069F900EBD070411089
:10070400412300930B460022606811F029FCEAE7BC
:100714004068FFF79DFFE6E710F07AFAE3E700BFD1
:10072400545428FF2DE9F04182B0054643680B2B51
:1007340006D0122B37D0052B0DD00EF071FB33E011
:100744001B4816F0F5F9EB69AA696969286919F07B
:1007540013F8002028E000680DF00EFE04466A46F7
:1007640001A928680DF01AFE124B1D8805FB04F43C
:10077400A400009B019A9B1A013394FBF3F494FBAD
:10078400F5F305FB1344641B01340426DFF82480CD
:1007940001273A462146404615F082FB2C44013E8F
:1007A400F7D1002000E0002002B0BDE8F08100BFD6
:1007B400A8A851FF08AA030010B504464368052BF6
:1007C4005DD0122B6DD14FF07F4016F0B1F9206847
:1007D40011F038F8B0F5006F05D040F601039842E7
:1007E4002AD000205FE020680CF0D8FA00B34FF064
:1007F400FF3016F09DF92C4B1A682C482C4B002A1C
:1008040018BF1846E2696369D21A4388D21A02EB08
:10081400D2725210A1692369C91A0388C91A01EB5B
:10082400D17149100132013115F03AFB00203AE050
:10083400204816F07DF9DEE720680CF0AFFAD0B15D
:100844004FF0FF3016F074F9E2696369D21A1A485E
:100854004388D21A02EBD2725210A1692369C91AD1
:100864000388C91A01EBD17149100132013115F025
:1008740017FB002017E00F4816F05AF9E4E7006868
:100884000CF08CFA30B1626921690C4815F008FB50
:10089400002008E062692169094815F001FB002085
:1008A40001E00DF0DDFD10BD6C985EA0BC9003006E
:1008B400B88F0300A8A851FF3490030020910300CF
:1008C400949D030010B588B004464368053B132B80
:1008D4003FD8DFE803F00A3E3E3E3E3E3E3E3E3316
:1008E4003E3E3E113E3E414141411D4816F015F940
:1008F40015F020FE002030E00369ADF8183083695C
:10090400ADF81C304369ADF81A30C369ADF81E3038
:100914004FF0FF3016F00CF9124816F035F90220AA
:1009240016F09CF9142201A920680BF0D5FF0E22C1
:1009340006A901A817F0EBFD00200EE00A4816F006
:10094400F7F8E369A2696169206916F08DFA00205D
:1009540003E0FFF747FE00E0002008B010BD00BF31
:10096400A8A851FFBCA80500C0C0C0FF08B5044B2F
:100974001B8913F0080F00D108BD14F06FFEFBE7CC
:1009840090985EA008B5044B1B8913F0080F00D1A2
:1009940008BD14F06BFEFBE790985EA010B58C4682
:1009A400037863B30346194613F8012F002AFAD1DA
:1009B400C0F1010E8E44BCF1090F23D9012319465D
:1009C40003EB83035A0013460131BCFBF2F2092AFC
:1009D400F6D801EB0E03C2180024C45471B170445C
:1009E4000B4CA4FB0C13DB0803EB8301ACEB4101C0
:1009F400303102F8011D9C468242F2D110BD4FF005
:100A0400000ED8E70EF10103C2180021C154E6E735
:100A1400CDCCCCCC10B50378FBB103469E4613F87D
:100A2400012F002AFAD1C0F1010CF4440B7883B1F0
:100A340064460CF1FF3C00EB0C0E0A460EF8013F35
:100A4400944612F8013F002BF8D1C1F10101214471
:100A54008C44002300F80C3010BD4FF0000CE5E787
:100A640010B586B000230193029303930493059376
:100A74004FF4B071134B186810F038FF0446124954
:100A840001A8FFF7C7FF114B1968013101A8FFF74F
:100A940085FF0F4901A8FFF7BDFF0E4B196801A898
:100AA400FFF77CFF0C4901A8FFF7B4FF0B4B596813
:100AB400013901A8FFF772FF01A920460CF028FFB5
:100AC40006B010BD8C985EA07885030078985EA06F
:100AD400101E040084985EA08085030090985EA098
:100AE40038B50A4B1B68012B07D10A25074C284649
:100AF40012F0FAFE2368012BF9D0054B186801287F
:100B040006BF00221A60002038BD00BF6C985EA0AA
:100B140068985EA010B584B00C4615F035FF01A8A6
:100B240015F0C2FA9DF80C3043B9206801280AD1A7
:100B340000232360064B01221A6002E00123236094
:100B4400002004B010BDFFF7CBFF014B1860F8E79D
:100B540068985EA00023034A1360034A1360034AA3
:100B6400136070476C985EA074985EA070985EA045
:100B740008B5044A136801331360FFF7EBFFFFF76E
:100B84006FFF08BD84985EA038B5044603680E3B29
:100B9400182B7DD8DFE803F00D467C7C7C7C7C7CC4
:100BA4007C7C7C7C7C7C7C137C7C7C7C7C7C7C7CEA
:100BB4004A0010F0D9FD21460FF04FFA38BD3649EE
:100BC40040680BF0E2FE0E2160680BF019FF4FF451
:100BD4000471606810F08AFE05460E210DF02AFCAF
:100BE4002E4928460DF0F2FB4FF40061606810F0C6
:100BF4007DFE00210EF019F840F60101606810F046
:100C040075FE00210EF011F84FF4B071606810F019
:100C14006DFE044622490CF07BFE224920460CF06E
:100C24005FFECBE74068FFF713FDC7E7806810F06D
:100C340009FEE368022BC1D1B0F5006F09D040F67C
:100C440001039842BAD1184B01221A60FFF782FFC0
:100C5400B4E7164B1B686BB10024144B1C6012F0F4
:100C640041FE134B1B68C31A124A136020460EF050
:100C74008FFCA3E70D4B01221A6012F033FE0D4BDB
:100C84001B68C31A0A4A136060680EF081FC95E77A
:100C94000FF0BEFF92E700BF80A205008417040096
:100CA40084850300D0B4050068985EA06C985EA0AB
:100CB40070985EA074985EA070B582B010F054FD78
:100CC4000FF040FB15F036FCFFF75CFE12F07EFEE1
:100CD400044612F083FE054636480CF029FA3648DD
:100CE4000CF098FA35480BF005FA10F03DFD034678
:100CF4003D3D0195A4F150020092314A052131484D
:100D04000EF080FA304E306010F02EFD03460025C0
:100D1400019504EBD4746410013C00942B4A022125
:100D24002B480EF06FFA2B4B186011F05BF92A4830
:100D34000CF0FEF929480CF06DFA29480BF0DAF9A9
:100D44004FF4B071306810F0D1FD11F04BF910F090
:100D54000BFD0FF0EAFA15F017FE00F0ADFF214B82
:100D64001D60214B1B681B68BBB11F4D1D4C1F4EE2
:100D7400FFF7F0FEFFF774FE22682B6853F8223069
:100D84009847002333601A4A1360236801332360B1
:100D94002A6852F82330002BEAD1124B00221A6041
:100DA400094B18680FF0A4FB0A4B18680FF0A0FB5E
:100DB40002B070BDC9080000BD070000290700008B
:100DC4008D0B0000E88503008C985EA0A10600004E
:100DD400B085030088985EA0E905000065E4000082
:100DE40025EE000078985EA090985EA084985EA09E
:100DF40080985EA030B583B00546164815F0C4FE51
:100E0400284617F01BFE044612F0E0FD124B1A8828
:100E1400031B03EBD3735B10043B511D8B42DABFFE
:100E24000A4612B20022ADF800200023ADF80230C9
:100E34000138ADF80400084B5B880933ADF806307F
:100E4400022015F00BFF0E226946284617F05FFBBF
:100E540003B030BD24FA030098AB030008B5024B7D
:100E64001B68984708BD00BF7C985EA008B5064B78
:100E74001B6813B1054B186808BD12F033FD044B11
:100E84001B68C01AF8E700BF6C985EA070985EA05B
:100E940074985EA02DE9F04105464FF40471204B8F
:100EA400186810F023FD0746642D0EDC0021384637
:100EB4000DF0BAF92A46002138460DF09CFA12F0DA
:100EC40011FD06464FF0050810E04FF40471144B71
:100ED400186810F00BFD11F06CF8E7E7404612F0CB
:100EE40003FDFFF7FDFDA5420DD960B9FFF7BEFF75
:100EF400841B642DF2DD214638460DF095F9384601
:100F04000FF013FAEAE7642D01DCBDE8F0814FF439
:100F14000471034B186810F0E9FC11F063F8F4E76E
:100F24008C985EA0014B58880A30704798AB030038
:100F340070B58CB0384D00242C812C60374B1C606C
:100F4400374B1C60374B1C60374E3460374B1C608A
:100F5400374B1C60374B1C60374B1C60374B1C6095
:100F6400374B1C60374B1C6014F0EEFC314636489E
:100F74000AF0E6FF10F0F8FB344910F022FF0BF002
:100F8400BBFE214601A80CF071FB0694214601A882
:100F94000CF044FB012101A80CF068FB069401212C
:100FA40001A80CF03BFB2A480CF0C2F829480BF0CE
:100FB400A1F829480CF02EF928480CF0E7FF28483E
:100FC4000EF012F927480BF00BFE022015F046FE36
:100FD400284600F067FE12F019FD0F280EDD2B895C
:100FE40013F0040F01D1204B09E014F0ADFC1F4BAA
:100FF4001F4AB0F5001F98BF134600E01A4B0B4A76
:1010040013601C4B1B68012B02D1FFF755FEFCE754
:10101400FFF752FE0CB070BD90985EA08C985EA055
:1010240088985EA084985EA080985EA07C985EA05C
:1010340078985EA074985EA070985EA06C985EA08C
:1010440068985EA064985EA0190B00001106000069
:10105400E905000025EE000065E400003DE900001C
:1010640085D90000DDF20000A5040000F9040000A9
:10107400C104000060985EA008B5FFF70BFFFFF7FE
:1010840077FD08BD2DE9F0411546002847D00C46F0
:101094000746002943D012F099FC064612F09EFC44
:1010A400804606EBD6767610FFF76CFC2E4B18685C
:1010B40010F098FF2D4B186810F07BFF15F064FCBE
:1010C400FFF7CCFE4FF0FF3015F032FD022015F093
:1010D400C5FD274815F058FD3C223146384617F027
:1010E400DDF8244815F050FD18F020F808EBD87806
:1010F400C0EB68020A323146204617F0CFF8237855
:1011040013B323461A4613F8011F0029FAD1C4F178
:101114000100104400EB80000001FFF7ADFF15F063
:10112400010F13D0FFF72EFC15F0020F11D00E4B58
:10113400186810F03EFF15F0040F0FD00B4B186821
:1011440010F037FFBDE8F0810020E3E7FFF70EFC65
:10115400EAE7054B186810F045FFECE7034B186805
:1011640010F040FFEEE700BF88985EA08C985EA068
:1011740024FA03002CE703002DE9F04F9DB008ACDE
:1011840084E8030005921E46BDF82030BDF82220F5
:10119400033297B2029715B2BDF82620033A12B271
:1011A400521BD84981FB0201A1EBE274DA1CADF8B1
:1011B4006820ADF86A503E33ADF86C30A3B20393A7
:1011C40003EB43033B441BB20493ADF86E30CE48AB
:1011D40015F0DAFC4FF0FF3015F0AAFC01230E22C3
:1011E4001AA9304617F0ACF900223F211AA815F0CD
:1011F4009AFB4FF07F4015F09BFC1AA815F060FE97
:101204001AA815F07EFCBDF968A0BDF96C309A44AB
:101214000AEBDA7A4FEA6A0ABDF96A90BDF96E30D0
:10122400994409EBD9794FEA69090AAEB74F0FCF50
:101234000FC60FCF0FC60FCF0FC697E80F0086E873
:101244000F004FEA8A0A4FEA890919F009FA0420C3
:1012540019F0F6F9002637464FF08C0845F2E47B86
:1012640006950794384615F031FD0446384615F0C6
:101274006BFD0546724206F00F0302F00F0258BFE1
:1012840053421CAA02EB830353F8480C15F050FC9C
:1012940008FB04F4002CBCBF04F57F44FF3409EBC5
:1012A400244108FB05F00028BCBF00F57F40FF3057
:1012B40042460AEB204019F065FA5F440136102ECD
:1012C400D0D1069D079C19F0C3F9002015F019FC34
:1012D4004FF0FF3015F02CFC059815F055FCBDF8C7
:1012E4006A30DDF80CB05B44ADF86E30884E0E22E7
:1012F4001AA9304617F00BF9224600211AA815F056
:1013040012FB0E221AA9304617F001F922460021D9
:101314001AA815F008FB0E221AA9304617F0F7F8A0
:10132400ADF86A50049BADF86E3000223F211AA834
:1013340015F0F9FA4FF0FF38CDF804804FF07F47ED
:101344000097BDF96E30BDF96C20BDF96A10BDF986
:10135400680012F0E9FEBDF86A305B44ADF86E3007
:10136400DFF8B0A1504615F0E3FB0E221AA930466F
:1013740017F0CDF8224600211AA815F0D4FA4FF040
:10138400FF2015F0D5FB0E221AA9304617F0BFF83E
:10139400224600211AA815F0C6FADFF87C914846C7
:1013A40015F0C6FB0E221AA9304617F0B0F8ADF8B6
:1013B4006A50029A5A440FFA82FBADF86EB00022CA
:1013C4003F211AA815F0AFFA504615F0B1FB1AA840
:1013D40015F076FD224600211AA815F0A4FA4FF064
:1013E400FF2015F0A5FB1AA815F06AFD224600217E
:1013F4001AA815F098FA484615F09AFB1AA815F0A1
:101404005FFD404615F094FBADF86A50ADF86EB040
:101414000E221AA9304617F07AF8224600211AA89B
:1014240015F081FA0E221AA9304617F070F82246F8
:1014340000211AA815F077FA0E221AA9304617F0DF
:1014440066F8ADF86A50ADF86EB000223F211AA8D4
:1014540015F069FA0197CDF800A0BDF96E30BDF919
:101464006C20BDF96A10BDF9680012F025FE224611
:1014740000211AA815F057FA01974FF0FF230093A3
:10148400BDF96E30BDF96C20BDF96A10BDF9680074
:1014940012F012FE224600211AA815F044FA019710
:1014A400CDF80090BDF96E30BDF96C20BDF96A101D
:1014B400BDF9680012F000FEADF86A50ADF86EB0E8
:1014C400404615F035FB0E221AA9304617F01FF8D6
:1014D400224600211AA815F026FA0E221AA930462F
:1014E40017F015F8224600211AA815F01CFA0E224E
:1014F4001AA9304617F00BF8002015F002FB1DB0B6
:10150400BDE8F08F56555555BCA80500608703000B
:10151400748603000000FFFFFF0000FF2DE9F04187
:1015240082B012F053FA054612F058FAB5F5A07FCE
:1015340002DB0446EF2807DC052227492748FFF78A
:10154400A1FD02B0BDE8F081244F052224493846AC
:10155400FFF798FDFFF782FC012012F051F90646CF
:101564003846FFF747FCFFF7DDFCA5F5A07303EB56
:10157400D3735B10ADF8003082B2A4F1F00707EB2F
:10158400D777C7F34F07D119ADF80210ED1AADF8AC
:101594000450231A03EBD37302EB6305ADB26B1E45
:1015A400ADF806300F4B104AE84698E80300FFF701
:1015B400E3FDADF80250E41BADF806400B4B0C4ABA
:1015C40098E80300FFF7D8FD4FF47A60FFF754FD65
:1015D400304612F015F9B4E778860300E08603007C
:1015E400F4860300288703000CE503004487030006
:1015F400B4E303002DE9F84F8846174608F0A4FC2D
:101604008246184815F0C0FA022015F027FB15F0A1
:101614002FF900EBD070461007F159040B3F022557
:10162400A8F1070BDFF84090C6F107062246594699
:10163400484614F035FC3119404615F0F9F90220FA
:1016440015F0FCFA4FF07F4015F072FA284611F0BD
:1016540088FD143C0235BC42E8D1504608F074FCC5
:10166400BDE8F88F208C0300FC8803002DE9F04FBF
:10167400ABB0052298499948FFF704FDFFF7EEFB4C
:101684009748FFF7B7FB974D0CAE2C460FCC0FC60F
:101694000FCC0FC694E8030086E8030016AE0FCD06
:1016A4000FC60FCD0FC694E8030086E8030012F0BE
:1016B4008DF9044612F092F9A4F1AC0303EBD37351
:1016C4004FEA63087A3800EBD070431019461C4681
:1016D4007B23B422404608F02FFC029010B92BB0B3
:1016E400BDE8F08F09F0FCFF20A9002202F00103FD
:1016F4005B00013B41F8043B01320A2AF6D1224641
:1017040041460020FFF776FFFFF7B0FB0990402326
:1017140003930123089304F17A09734E2746A1E049
:101724005BF82430A9EB030204EBD4704010C0F141
:10173400040000935346063A294656F8200015F053
:10174400C9FB013410350A2C13D0052CE8DC5BF8F6
:101754002430A9EB030204EBD470401000935346E9
:10176400063A294656F8200015F0B4FB013410352A
:10177400EBE7ADF8288008F10303ADF82C30ADF8A1
:101784002A70ADF82E900AA815F0BBF9574815F049
:10179400CFF9572013F00CF8042400944B46DDF8DD
:1017A4001CA052463946404616F03CFC002015F079
:1017B400A8F907F17903039D08EB0502791C08EBEE
:1017C400040015F051FBFF2012F0F2FF484815F019
:1017D400AFF900944B4652463946404616F078F825
:1017E4003A464146029C2046FFF704FF204608F093
:1017F40029FC069808F0A8FB2B46089A1344039387
:10180400093B9A2B84BF5342089316A90CAD0DF1E2
:10181400800C644604E0524244F8042C61450FD025
:101824000B6854F8042B134441F8043B55F8040B9B
:1018340000F10A0E7345EEDC0A388342EEDAEAE779
:10184400FFF714FB049BC01A1E283DDCC0F11F00E7
:1018540012F04AF8FFF744F943F69723059A9A429F
:1018640035DCA0BBFFF702FB0490099A831A0593A9
:10187400029808F069FB06901E4815F059F908F122
:10188400AC031A460793042300934B46394640465B
:1018940016F0C8FB184815F04BF9BC1D07F17E0B78
:1018A40008F1AA0A08F1020552462946204615F015
:1018B40051FA0A345C45F7D108F1080500240DF10A
:1018C400580B4FF0010A40E715F05EF8C2E70298A2
:1018D40008F0CAFA03E700BFA0870300CC8703001F
:1018E400D8870300008E0300E8870300D99100FF26
:1018F4000094F3FF4A2210FF774830FF2DE9F04FA0
:10190400CDB0C84A49AB07CA03C31A807722C64977
:101914002BA833F0A0FD002117914C2218A833F016
:10192400C3FD12F053F8079012F058F80546B0F5CD
:101934008C7FC0F2A081B0F1780748BF0F373F1108
:1019440005222BA949A8FFF79DFBFFF787FA4FF063
:10195400FF3015F0EDF8B54815F016F9079B03EBC9
:10196400D3710C224910B24816F098FCB14815F016
:101974000BF94FEA470A17F0D9FBAAEB000000EB7A
:10198400D07464103C3422460121AB4816F072FC3A
:10199400544422460121A94816F06CFCBE0003966B
:1019A400544422460121A64816F064FC0AEB0703BE
:1019B4005B000593544422460121A24816F05AFCC8
:1019C400FB0004935444224601219F4816F052FC24
:1019D400F3195B0006935444224601219B4816F0F8
:1019E40049FC0AEB07039B0015930AEB040201214F
:1019F400974816F03FFC974815F0C6F812F006F821
:101A0400014617A8FEF7CAFF934917A8FFF702F883
:101A1400092013F03FFE0446002840F02E81A5F172
:101A240019020C2117A816F025FCFFF71FFA8146AE
:101A340007EB470303F13C02089203F13B020992CE
:101A440007EB870202F13C010A9102F13B010B9181
:101A5400C7EBC70101F13C000C9001F13B000D9074
:101A640007EBC70000F13C040E943B300F9007EBEA
:101A7400420202F13C0010903B32119207EB8303C7
:101A840003F13C0212923B331393490001F13B03EF
:101A94001493DFF8C881BB4641F26F76FFF7E6F98D
:101AA400A0EB0900B04200F3F580FFF719F8002815
:101AB40040F0F080FFF7DAF9A0EB090088FB00237F
:101AC400C417C4EBE3144FF4FA6303FB140488FB58
:101AD4000423E517C5EBA315614B03FB054414F080
:101AE40053FFB4F5FA7FD9DCC4EB042488FB042348
:101AF400E417C4EB6314C5EB05256C4004EB042325
:101B040004EB0324C4F1FF1606F57F46079BA3F1FB
:101B14003C050194534F00970BF13B032A463C21AB
:101B2400084612F001FB019600970AF13B032A468E
:101B34000BF13C013C2012F0F7FA01944FF0FF271F
:101B44000097099B2A460AF13C013C2012F0ECFA6A
:101B540001960097039B3B332A4608993C2012F0D8
:101B6400E3FA0194404F00970B9B2A4603993C31BA
:101B74003C2012F0D9FA01960097059B3B332A4684
:101B84000A993C2012F0D0FA0194384F00970D9B2B
:101B94002A4605993C313C2012F0C6FA019600977A
:101BA400049B3B332A460C993C2012F0BDFA019465
:101BB4006FF0FF0700970F9B2A4604993C313C20A5
:101BC40012F0B2FA01960097069B3B332A460E990F
:101BD4003C2012F0A9FA01946FF47F070097119B3F
:101BE4002A4606993C313C2012F09EFA0196009751
:101BF400159F07F13B032A4610993C2012F094FAF2
:101C040001946FF47F440094139B2A4607F13C012E
:101C14003C2012F089FA01960094149B2A461299EA
:101C24003C2025E07C8E0300888E030024FA030008
:101C3400288E03002CE70300348E0300388E030043
:101C4400408E0300488E0300508E0300588E03001C
:101C5400608E0300D0B40500688E0300D34D62107B
:101C640018FCFFFF0000FFFFFF0000FF808080FFE3
:101C740012F05AFA10E70A2762E6084917A8FEF795
:101C8400C9FE214617A8FEF789FE054917A8FEF7E5
:101C9400C1FEC4E64DB0BDE8F08F00BF708E0300F6
:101CA400748E0300034B0360042343600D230381FC
:101CB400704700BF000000102DE9F04389B06C4666
:101CC400404D0FCD0FC42B6824F8023B1B0C23702E
:101CD4000023CDF81330CDF81730CDF81A3011F0B9
:101CE40075FE064611F07AFE0446FFF7B7F80220A7
:101CF40014F0B4FF4FF0FF3014F01AFFDFF8C8807F
:101D0400404614F041FF7508A700C4F31912294690
:101D14002E4816F0C3FADFF8B890484614F034FFA2
:101D24003A1904EB4202920929462A4816F0B6FAF7
:101D3400294814F0FDFE162704FB07F7BF093A46AD
:101D44002946264816F0AAFA254814F01DFF07F183
:101D540012022946234816F0A1FA4FF0FF3014F07E
:101D6400E7FE484614F010FF14F0A2FD0146684651
:101D740033F080FAC4EB441292092946684616F0FF
:101D84008DFA262204FB02F217480388F11A9209FD
:101D9400490814F085F84FF0FF3014F0C9FE4046AE
:101DA40014F0F2FEC4EBC404C4F3D90229460F486C
:101DB40016F074FA41F28830FFF76CF809B0BDE808
:101DC400F08300BF988F030024FA0300008F030000
:101DD4002CE70300088F03002288FFFF408F0300D5
:101DE400DCAD0500688F03004CB90300888F030045
:101DF40030B589B00023019302930393114C124D23
:101E04002378012B19D0642204A928682FF0E2FB5F
:101E140003460028F4D1079A012A09D04FF0FF3273
:101E2400019202928DF80C3001A814F071F9E7E7E1
:101E3400059B0193069A0123F3E70020014B1870D8
:101E440009B030BDA8985EA0AC985EA008B5064B5A
:101E54001968064B186831F0E2FA14F023FC0020EC
:101E6400034B186008BD00BFAC985EA0B0985EA09C
:101E7400A4985EA030B585B004463C4B1A6811782E
:101E840011701A683A4B1A603A4B3B4A1A603B4B42
:101E94001B684BB13A4B1B68C3B103A9394830F0F6
:101EA40024FE38B305B030BD1DF08EF84FF4FF2288
:101EB400002133F0F9FA304A00212C4B186833F032
:101EC400F3FA2E4B4FF0FF321A60E3E704200FF0D1
:101ED40095FF14F061FB4FF07F400FF0AFFF02203D
:101EE40017F032FA01200EF0BBFF254B4FF0FF3202
:101EF4001A60D2E7244A102101202FF07DFA18B18C
:101F0400039830F009FECDE71F4A2049204831F0FC
:101F140019FA20B11C4B18682FF093FAF0E71D4B07
:101F240001930423009300234FF480621A491B4851
:101F34002FF00CFC80B90A221949A06833F0E4F8A8
:101F440080B1184B01221A7015461C4628462FF002
:101F5400F3F82378012BF9D0FFF778FF074B002221
:101F64001A60D7E7FEF7E4FFEBE700BF10000010AC
:101F740050B55EA04CB55EA000F83F009C985EA0F2
:101F8400A4985EA0E4180400AC985EA0B0985EA08B
:101F9400E8180400A0985EA0F4180400F51D0000E1
:101FA4008C850300A8985EA0024B4FF0FF321A60A4
:101FB400704700BF3C995EA02DE9F04F91B00446F4
:101FC40027F0CCF90FAA0021204630F0B2FD4E4E86
:101FD4004FF4F84307930025069547F6E0770597F5
:101FE4000223049340F20F13039340F2DF1302938E
:101FF400019500950F9B4FF488724FF4F0713046B1
:1020040026F054F9414C2146304626F08FFC3046E8
:1020140026F08EFC80461F223D49304626F09BFC6C
:10202400ADF83450ADF83650F369ADF83830336A52
:10203400ADF83A303946304626F073F92146304639
:1020440026F074FC0BAFC82239460DA827F0E2FB3A
:10205400BDF82CB0BDF82E90BDF83240DFF8B4A026
:10206400C8225146384627F0F5FBADF82CB0ADF840
:102074002E90ADF83240544634F86039063BADF842
:1020840030300DF124092B4640224946384627F0CA
:102094009BFB99E8030087E8030008F122022B4622
:1020A40092B24946384627F049FBBDF824302AF855
:1020B400603CBDF82830A380BDF82630638020330F
:1020C400E380154BA360154BE360154B2361A561B9
:1020D400E561A5622146304626F076FE2946304663
:1020E40026F021F9B4F866300093B4F86430B4F8FB
:1020F4006220B4F86010304626F07FF827F042F9E9
:10210400A56611B0BDE8F08F4C995EA0148F06004F
:10211400001904001C995EA024190400AD1F0000DE
:10212400C034050010B582B0104C0021204626F0C2
:10213400FAF80021204626F0F4F80021204626F083
:10214400F5F80B4B196809120A4B1A681212131D81
:1021540000930B1D053A0539204626F04EF8002160
:10216400204626F0E3F802B010BD00BF4C995EA0F3
:1021740048995EA044995EA02DE9F04F8DB00022ED
:102184004E4B1A604E4B5A679A67DA67DA661A67DB
:10219400B3F86020B3F864100A44521049490A6045
:1021A400B3F86220B3F8663013445B10464A1360F8
:1021B400464A102101202FF01FF910B10DB0BDE8DF
:1021C400F08F424C424A434920682FF059F9224685
:1021D4000AA9414831F0B6F820B13C4B18682FF0F9
:1021E40030F9EBE70BA93D4830F07FFC28B1374BC1
:1021F40019680A9831F013F9EFE709AA00210B983E
:1022040030F097FC08A936482FF094FD18B10B98CC
:1022140030F082FCEBE7334908982FF077FD002873
:10222400F5D10B98FFF7C8FE2FF040FA0446234B74
:102234001B68002BEBD1DFF89490DFF884802A4FE1
:1022440084E01F4B0022DA661A6710264FF00A0B4F
:10225400DFF890A01D4658462EF06EFFDAF8000015
:1022640003685B69642205A99847EB6E059A1A44D2
:10227400EA662B6F06990B442B67013EEBD111469E
:10228400002AB8BF02F10F0109110D4AD1661A469E
:10229400002BB8BF03F10F021211094B1A674FF05C
:1022A400FF325A672FF002FA104B186075E04FF4B2
:1022B40096329DE04FF49633A4E000BF3C995EA0B3
:1022C400BC985EA048995EA044995EA0B8985EA0B0
:1022D400401904002C190400E8180400E418040050
:1022E4003819040040995EA04C995EA0B4985EA091
:1022F400B04200F0E780774B9B6E002B40F0E68005
:10230400754B1E60754B1D603312053B03932B12F6
:10231400053B0493724D04AA03A9284626F015F838
:10232400284627F0D9FABDF81020BDF80C106D48E6
:1023340027F0B2F8674B4FF0FF329A6614202EF064
:10234400FBFE694B1B68002B7FF461AF0023D9F8B7
:1023540000204146384626F031FF054626462FF038
:10236400A5F90446002DE9D1B042E7D05F4B1868C7
:1023740003685B69642205A9984705462FF096F91E
:102384005B4B1A681860002DD8D1524B5B6F0193D8
:10239400002B3FF456AF831A01934E4BD96E059A26
:1023A400521A0592196F069B5B1A0693019901FB59
:1023B40002F2002ABCBF02F57F42FF3212144549E3
:1023C400896F01EB4222019901FB03F3002BBCBF8F
:1023D40003F57F43FF331B143E49C96F01EB4323CD
:1023E400B2F5963FBFF663AF42498A42B8BF0A4688
:1023F40038498A67B3F5963FBFF65CAF3D498B42D7
:10240400B8BF0B46DFF8CCC0CCF87C303249086842
:10241400DDF804A00AFB02F1DFF8DCE08EFB0165C5
:10242400CE17C6EBA51606442C4909680AFB03F52A
:102434008EFB05AEED17C5EBAE150D44BCF864C0BC
:10244400ACF1060C4FEA0C2EB6EB0C2F06DD02EBBA
:10245400D272521052421F4EB26776461D4AB2F8EB
:10246400602006324FEA022CB6EB022F07DA194E2F
:10247400B26F02EBD27252105242B2676646154AEC
:10248400B2F86620063A4FEA022CB5EB022F06DDBD
:1024940003EBD3735B105B420E4AD36765460D4B67
:1024A400B3F8623006334FEA032CB5EB032FBFF6C3
:1024B4001FAF084AD36F03EBD3735B105B42D36740
:1024C400654615E7A9427FF416AF37E7FFF72AFE02
:1024D40016E700BFBC985EA048995EA044995EA030
:1024E4004C995EA080F404003C995EA040995EA0E3
:1024F400B4985EA000D4FEFFD34D6210034B03607A
:10250400034B0B6080231360704700BF049E5EA0E2
:10251400049C5EA0034B0360034B0B608023136099
:10252400704700BFAC9B5EA0AC995EA083694FF07E
:10253400FF329A66704700002DE9F04FA9B00446B7
:1025440000F16C0B27AA0021406830F0F2FA26F063
:1025540005FF05202EF0F0FD04F108084FF4F843C0
:1025640007930023069347F6E07205920222049231
:1025740040F20F12039240F2DF1202920193009391
:10258400279B4FF488724FF4F071404625F08EFE7D
:102594006B49404626F0CAF96A4B1B68002B40D0B1
:1025A40023681A684FF4FD630293062301930323FF
:1025B4000093654B1B68654908A832F033FE1F225F
:1025C40008A9404626F0C7F90021404625F0ABFE95
:1025D400404626F0ADF905460023ADF89430ADF839
:1025E4009630636AADF89830A36AADF89A30082142
:1025F40025A827F077F823685E689B68C3B95C4612
:10260400BDF89A20BDF89630D21AA93A521B00237D
:10261400C2F34F021FA925A827F06EF84FF0020A53
:1026240035E023681F221968404626F094F9CBE769
:1026340005F12202022392B223A925A827F07EF8ED
:10264400402221A923A827F005F9BDF88420A4F885
:102654006C20BDF88630A4F86E303F32A4F87020A8
:102664001F33A4F872303A4B63673A4BA3673A4B73
:10267400E367C4F884400023C4F88830A4F88030A9
:102684008C34BDE7A5F11006BAF1010A48D03368CD
:10269400002B45D02823402223A925A827F02CF875
:1026A400BDF89820BDF89430D21AA2F25912002332
:1026B400C2F34F021FA923A827F062F806F1100500
:1026C40004F180074FF01E092E4655F8103C002BEC
:1026D400D8D04B46402221A923A827F051F8BDF8B1
:1026E40084302380BDF886306380BDF88830A380B1
:1026F400BDF88A30E38055F8103CA36055F80C3CD3
:10270400E36055F8083C236155F8043CA3610023B9
:10271400E361A38220341035BC42D5D13C46B3E7F3
:102724000023A3605946404626F04EFB30F0A6FB3A
:1027340010B129B0BDE8F08F26F02CFEF9E700BFF8
:10274400148F060038A95EA03CA95EA044190400B9
:102754002419040031250000C03405002DE9F0419E
:1027640082B005464FF4D67030F08EFB04466A46BC
:10277400102101202EF040FE08B1002300935CB12B
:102784004FF4D6720021204632F08EFE2560009B65
:102794002BB9204630F080FB02B0BDE8F0816A46D8
:1027A40001A9234830F0CEFD18B100982EF049FE5F
:1027B400EFE7211D1F4830F098F920B100990198E6
:1027C40030F02DFEF1E72046FFF7B6FE04F16C0869
:1027D400194F04F1080605E02046FFF7ADFE09E0B5
:1027E4003B68BBB9A36EF3B9EB681BB1984710F013
:1027F400010FF1D14FF0FF33009A4146304626F0E5
:10280400DDFC0028ECD0A36E002BE9D12046FFF7B5
:1028140093FEE5E706F08AFA2046FFF78DFE064BA5
:1028240000221A60D5E7606830F076F9C6E700BF89
:10283400E8180400E41804005C9E5EA008B58069F2
:10284400FFF78CFF08BD000070B504460D460E4B23
:102854001B6883B100202FF05DF90C4B1E681CF03F
:10286400C9FB2A46B0FBF4F1304630F068FC002086
:102874002FF022F970BD0549054830F049FC024BA0
:102884004FF0FF321A60E5E7609E5EA0649E5EA092
:102894007019040008B51421FA20FFF7D5FF08BD0C
:1028A40008B54FF4FA716420FFF7CEFF08BD8369C1
:1028B4004FF0FF32C3F8E4207047000010B582B037
:1028C40004460F4B1B68B3B9002125F02CFD47F6D5
:1028D400E071204625F025FD0A4883884288018856
:1028E400C08801380090013B01320131204625F0B7
:1028F40084FC02B010BD47F6E07125F014FDE6E754
:10290400709E5EA0749E5EA010B58EB0044603A9AE
:102914001C4830F0EAF81C4B1B68B3F1FF3F2AD087
:10292400194B4FF0FF321A6041F28833059342F29B
:102934001073069347F2305307934FF47A7304935A
:10294400124B0A93124B0B93124B0C93124B0D9395
:102954004FF4887300934FF4F07340226F210F48B3
:1029640026F0F2FF04A9039830F022FAA069FFF7D9
:10297400A5FF0EB010BD044B00221A6030F054FACB
:10298400F4E700BFE4180400709E5EA07D99020085
:10299400399A0200859B0200F99B0200F831040079
:1029A4002DE9F04F99B04FF48A7030F06DFA1A4B5C
:1029B4001860A8B104464FF48A72002132F074FD05
:1029C4004FF0FF33C4F80431144A102101202EF0D3
:1029D40013FD40B1104C206830F05EFA00232360F0
:1029E40019B0BDE8F08F0D4A17A90D4830F0AAFCC4
:1029F40020B10A4B18682EF024FDEBE7064B19684A
:102A04006031084830F071F870B1044B19681798B8
:102A140030F005FDEDE700BF6C9E5EA0689E5EA0F1
:102A2400E8180400E4180400C94C236803F588720C
:102A340003F58671186E30F0C2F8246804F164035B
:102A4400099326F08BFC0AAA0021206E30F071F85D
:102A54004FF4F84307930025069547F6E07BCDF83D
:102A640014B00223049340F20F13039340F2DF13D4
:102A74000293019500950A9B4FF488724FF4F0710C
:102A8400204625F013FCB349204625F04FFF20468D
:102A940025F04EFFC4F800011F22AF49204625F05F
:102AA4005AFF5946204625F03CFC2946204625F08D
:102AB4003AFCADF82C50ADF82E50E369ADF8303047
:102AC400236AADF832300DF12C090821484626F06E
:102AD40009FED4F8003103F126020DAE052392B2AB
:102AE4003146484626F02AFE0FAF96E8030087E8F1
:102AF4000300052340223146384626F041FE0121D9
:102B0400304626F0EFFDBDF83430A4F864303F338E
:102B1400A4F86830BDF83630A4F866301F33A4F842
:102B24006A308E4BE3668E4B23678E4B6367E46794
:102B3400C4F8805097E8030086E80300642239460D
:102B4400304626F087FEBDF84230BDF83E209B1A81
:102B540003EBD3735A100632834E052392B23146E7
:102B6400384626F0EBFDB6F80080204625F0E0FE5E
:102B740008F110088044A6F80480B6F802802046C4
:102B840025F0D6FE08F1100880441FFA88F3F3807C
:102B94003288A4F88420B288A4F888207288A4F823
:102BA4008620A4F88A30714BC4F88C30704BC4F87A
:102BB4009030C4F89450C4F89C40C4F8A050BDF8B8
:102BC4003080BDF82C30A8EB0308A8F21318694B29
:102BD400A3FB0838C8F34F0843462A4639464846FB
:102BE40026F0CEFD04F1F00A4346542251464846ED
:102BF40026F0C6FD04F1F80804224146504626F0AA
:102C040029FE1421404626F051FD2B46C0223946A8
:102C1400484626F0B5FDC02204F1E801384626F006
:102C2400F9FD4C49204625F081FE0121204625F07E
:102C3400E9FE2946204625F079FB5946204625F031
:102C440070FB9AE8030089E80300BDF83230009372
:102C5400BDF83030BDF82E20BDF82C10204625F0EC
:102C6400CCFA98E8030089E80300BDF832300093F9
:102C7400BDF83030BDF82E20BDF82C10204625F0CC
:102C8400BCFA2046FFF71AFE3588204625F050FE90
:102C940073884219083316323749204625F00BFE53
:102CA4000126770207F4F84700253946204625F027
:102CB40038FBB4F8EA20B4F8E8103244294420463A
:102CC40025F086F90135C02DEFD10136412EE8D12A
:102CD4000126370107F4787700253946204625F088
:102CE40020FBB4F8EA203244B4F8E8104032294416
:102CF400204625F06DF90135C02DEED10136412E67
:102D0400E7D10126C6F3440700253946204625F0BD
:102D140008FBB4F8EA203244B4F8E81080322944BD
:102D2400204625F055F90135C02DEED10136412E4E
:102D3400E8D147F6E071204625F0F3FA09992046D8
:102D440026F042F826F01EFB014E0C4F2FE000BF88
:102D54006C9E5EA0148F06007819040024190400E8
:102D6400B3280000C0340500749E5EA0DCD20500C8
:102D74000D290000ABAAAAAA94190400689E5EA0BB
:102D84000021C2F80C11106E2FF00BFF604B1B6872
:102D94004FF0FF32C3F80421306811AA00F1640136
:102DA40026F064F83468D4F80431002B3CD133683D
:102DB400D3F8E420002A40F0A6804FF4FA7211A957
:102DC40038682EF007FC0028ECD1129B1693139B55
:102DD400159315AA16A9306825F0ACFA149B012B9B
:102DE400DAD13268159BB2F8F2109942D4DCB2F809
:102DF400F6108B42D0DC1699B2F8F0008842CBDC96
:102E0400B2F8F4008142C7DCB2F8FE008342B7DCBA
:102E1400C11AD2F8103103FB01F1431CB2F8FA00D5
:102E24001B1AB1FBF3F1ACE70121204625F0EAFDC2
:102E3400B4F8F880B4F8FAB0B4F8FC90B4F8FEA092
:102E440004F5887204F58671206E2FF0B8FEAAEBA3
:102E54000B02D4F80C3102FB0333D4F81021B3FB7A
:102E6400F2F5AAEB0505D4F808319D422CD08BBBB2
:102E74000121204625F05AFA47F6E071204625F054
:102E840050FACDF800A04B465A464146204625F05C
:102E9400B4F9C4F808510021204625F047FA47F652
:102EA400E071204625F03DFA0021204625F03BFA4A
:102EB400D4F80821531D009309F10F03053AA8F132
:102EC4000F01204625F099F9114B1B680022C3F825
:102ED40004216CE70021204625F028FA0021204631
:102EE40025F01FFA0021204625F01DFAD4F8082108
:102EF400531D009309F10F03053AA8F10F01204671
:102F040025F07BF9B4E7186E2FF006FE7DE500BFCF
:102F14006C9E5EA0F0B583B006460C4615464FF491
:102F2400F8430193131D00930B1D043A043926F052
:102F340095FA00270197EB1C0093E31CEA1EE11E9F
:102F4400304626F08BFA47F6FF730193AB1C0093CF
:102F5400A31CAA1EA11E304626F080FA01976B1C02
:102F64000093631C6A1E611E304626F077FA03B094
:102F7400F0BD000010B5A2B021A93F482FF0B5FD67
:102F840008B122B010BD21982FF0F1FD4FF48071EB
:102F940021982FF006FE26F0E1F920AA00212198BD
:102FA4002FF0C7FD4FF4F84307930023069347F629
:102FB400E07205920222049240F20F12039240F250
:102FC400DF12029201930093209B4FF488724FF416
:102FD400F07108A825F06AF9284908A825F0A6FC8C
:102FE4001F22274908A825F0B6FC08A825F0A0FC54
:102FF40084B2244B1B78012B23D023464FF4F07268
:10300400214908A825F063FC63004FF4F0721F49BE
:1030140008A825F05CFCC4F144039B004FF4F07253
:103024001B4908A825F053FCA4EB840404F5887319
:103034004FF4F072174908A825F049FC26F0A2F9CC
:103044009FE723464FF4F072134908A825F03FFC8C
:10305400C4F144039B004FF4F0720D4908A825F015
:1030640036FCA4EB840404F588734FF4F072094928
:1030740008A825F02CFCE1E7E4180400148F0600EE
:10308400A8190400809E5EA0281A04004C1A0400AB
:10309400E81904000C1A0400C01904002DE9F04FCB
:1030A40097B00390144600234FF0FF36DFF868B260
:1030B4009A4A1032099208968A46994A13705046E1
:1030C40030F0F8F81CB9974B1B68032B10D0FFF7AE
:1030D40051FF924FDFF84C82002304931D46A4E075
:1030E40001234FF0FF34E8E701234FF0FF34E4E716
:1030F4008D4D8A4A2946504630F0F6F8099A05F172
:103104001001504630F0F0F8844B03F1200205F131
:103114002001504630F0E8F8504630F0D8F8064622
:10312400DBF800300894DBF800304BB9002ED7D11F
:10313400089B002BD8D17B4B00229A6402F016FF27
:1031440017B0BDE8F08F1395149509F101093220E9
:103154002DF0F2FFB9F1030F1CD812A9504630F03C
:1031640045F80028F3D1DBF80030B3F1FF3FEAD093
:10317400129B13F0010F09D0029B002BE7D0139B85
:103184001E44149B1C4409F10109E0E74FF0FF338E
:103194000293DCE7B6FBF9F61396B4FBF9F4149446
:1031A40012AC079A2146504630F09EF808F1040606
:1031B40094E80F0086E80F00049E741C594B1C60B1
:1031C400FFF768FBBDF81410BDF818200195131D16
:1031D40000930B1D043A0439039826F03FF926B1F5
:1031E400DBF80030DBB932260FE0FFF7C3FEDBF873
:1031F4000030002BF7D0103708F1100814E03046E7
:103204002DF09AFFDBF800304BB912A950462FF08D
:10321400EDFF0028F3D1129B13F0010FEFD1032C23
:103224006FD0103708F11008049407977B68059352
:10323400BA68069292B299B20398FFF76BFE0295B0
:10324400A9462C462E4688E7DFF8E0900DF12808C1
:1032540032250296049417E028462DF06DFF12A93A
:1032640050462FF0C3FF0028F6D1129B13F0010F34
:10327400F2D14FF496702DF05FFF09F1100908F1B7
:10328400100812AB984522D0D9F80460D9F8087018
:10329400BAB2B1B20398FFF73DFE44462146504608
:1032A4002FF0A4FF0028F9D1236813F0010FF5D003
:1032B400FFF7F0FAB1B2BAB200230193131D0093E1
:1032C4000B1D043A0439039826F0C8F8C7E7029E98
:1032D400049C0B9BA3F5CB73302B3FF624AF0C9BC4
:1032E400C63B302B3FF61FAF0F9BD83B302B3FF62E
:1032F4001AAF109B703B089A302B98BF2246089255
:1033040011E750462FF0E3FF0646DBF80040002C9F
:103314009AD00023089306E75C9E5EA0901A0400EE
:10332400809E5EA050A85EA054A85EA0701A0400FF
:1033340010B584B00446184A102101202EF05CF820
:1033440010B1002004B010BD134A03A913482FF094
:10335400F9FF20B1104B18682EF073F8F1E702A9B9
:103364000F482FF0C2FB28B10B4B1968039830F0BB
:1033740056F8EFE701AA002102982FF0DAFB094B77
:103384009B6C002B0CBF22464FF0FF32039901982F
:10339400FFF784FEE8E700BF7C9E5EA0E818040007
:1033A400E418040050A85EA030B587B0002205A937
:1033B40011482FF0C7FFE0B90524322501A905986B
:1033C4002FF014FF019B13F0010F10D028462DF0AD
:1033D400B3FE013CF2D14FF0FF340021059830F0E8
:1033E4001EF80A202DF0A8FE204607B030BD0024A8
:1033F400F3E74FF0FF34F7E7E818040008B54FF09F
:10340400FF30FFF795FF08BD704700002A4B18688E
:1034140000B970472DE9F04F83B04FF0FF312DF024
:1034240013FF264C2649204625F080FA0021204629
:1034340025F0E8FA0021204624F07AFF4FF4787151
:10344400204624F06EFFDFF87CB01F4B01934FF051
:103454001B0AA04640F2D1171EE00834BC4211D02A
:1034640015F8012F16F8013F9A42F6D04A46214634
:10347400404625F0EEF82978404625F05BF92B7894
:103484003370EAE70AF1080A0BF12D0B019B2D3387
:103494000193BAF1E30F04D0D146019E5D4669243D
:1034A400DEE70121054825F0ADFA034B18682DF03D
:1034B400F0FE03B0BDE8F08F889E5EA060A75EA01A
:1034C4006C980600F7A25EA08F9E5EA070B51449AA
:1034D40001F587660B462D310A4601F12005146873
:1034E400D2F804E0D2F808C0D0681C60C3F804E045
:1034F400C3F808C0D86010321033AA42EFD115685F
:10350400546890681D605C609860127B1A73B142C5
:10351400E0D12D222021034831F0C6FF70BD00BF49
:10352400F8A25EA030A75EA038B50446354B1868F3
:1035340000B938BD4FF0FF312DF086FE324B1B88A9
:103544002C2B02D9304B00221A80304B1B88182BAD
:1035540002D92E4B00221A800C2C20D00A2C2ED0FB
:103564000D2C38D0082C3AD0284B1D8826480388C7
:1035740005EB4502C2EB021225490A44D454013337
:103584009BB203802C2B15D96B1C9BB21F4A138052
:10359400182B0FD9FFF79AFF1C4B1D800AE040F24D
:1035A400654220211A4831F07FFF0023164A138018
:1035B400164A1380134B18682DF06BFEB9E7134AB3
:1035C4001488631C9BB21380182BF3D9FFF77EFF7A
:1035D4000E4B1C80EEE70C4B00221A80EAE70A4BE4
:1035E4001B88002BE6D0013B9BB2074A1380074A95
:1035F400128802EB4202C2EB021205490A4420215E
:10360400D154D7E7889E5EA08E9E5EA08C9E5EA05D
:10361400F8A25EA010B50446007828B1FFF784FF35
:1036240014F8010F0028F9D110BD00002DE9F0476E
:103634008CB0044625F092FE0BAA002120462FF000
:1036440078FA414C4FF4F84307930023069347F666
:10365400E07505950222049240F20F12039240F2A3
:10366400DF120292019300930B9B4FF488724FF484
:10367400F071204624F01AFE3449204625F056F90C
:103684001F223349204625F066F92946204624F0B6
:1036940048FE304EDFF8C080A146B2463369002BA5
:1036A40048D033880A937388099309AA0AA926483B
:1036B40024F04BFEBDF82420BDF82810306925F015
:1036C400EBFE98F80010002451B1454600241E4F2B
:1036D400384625F031F9044415F8011F0029F7D1C3
:1036E400BAF80630BAF80020BAF804100A4464089C
:1036F4000233C4EB62024146484625F0DCF820362A
:10370400D6F80880B8F1000FC7D10F4C002120462D
:1037140024F009FEE323009340F2D1131922672118
:10372400204624F06AFDFFF771FE25F02BFE0CB055
:10373400BDE8F087F3880093B38872883188024823
:1037440024F05BFDBDE700BF60A75EA0148F0600F8
:10375400E01A0400201B04002419040010B582B0F0
:1037640040F2654422460021214831F09DFE224664
:103774002021204831F098FE00231F4A13801F4A5D
:1037840013801F4A102101202DF036FE08B102B02B
:1037940010BD1B4A69461B482FF0D4FD20B1184BBD
:1037A40018682DF04EFEF2E701A917482FF09DF995
:1037B40098B9164B1B68B3B10198FFF737FF14484B
:1037C400FFF728FFFFF722FEFFF76AF84FF4FA60CD
:1037D4002DF0B2FC01982FF09FF9094B196800985D
:1037E4002FF01DFEDBE709482DF0B4FCE4E700BF31
:1037F400909E5EA0F8A25EA08C9E5EA08E9E5EA0AF
:10380400849E5EA0E8180400E4180400889E5EA06C
:10381400081B0400014B01221A607047C8A75EA070
:1038240010B582B00A4C0B4B1988204624F07BFD5E
:1038340047F6E071204624F074FD38230093A0235A
:1038440019226121204624F0D8FC02B010BD00BF2B
:10385400CCA75EA01400001008B5084B1B780133F8
:10386400DBB2062B28BF0023044A1370044A32F843
:103874001320044B1A80FFF7D3FF08BDC4A75EA032
:10388400F01C0400140000102DE9F04786B08146B6
:1038940069482FF0F9FA8246684C0121204624F049
:1038A40045FD47F6E071204624F03BFDB9F80630AB
:1038B4000093B9F80430B9F80220B9F80010204692
:1038C40024F09BFC05AA03215D482EF0DFFA0028B2
:1038D40046D1D0461A27594E4546B8240494039736
:1038E40003AA04A9304624F030FD012300932B469B
:1038F400039A0499304624F029FE02350134B4F5C4
:10390400C07FEBD108F5C8780137E22FE4D102ABD0
:10391400494A514605982EF02EFB18B1464B029A9F
:103924009A4253D105982EF0EBFA444C01212046DB
:1039340024F0FCFC0021204624F0F3FCB9F8063006
:103944000093B9F80430B9F80220B9F80010204601
:1039540024F053FC50462FF09FFA06B0BDE8F087E0
:10396400064605AA032137482EF090FA044600289B
:10397400AFD0354B19684FF47F32881825F08AFF91
:10398400FEF78EFF2D4D0021284624F0CFFC0021A8
:10399400284624F0C8FC47F6E071284624F0C1FC10
:1039A400292300934FF4C0731922B721284624F029
:1039B40024FC092E0DD00D2E27D10D2C1ED01B2337
:1039C400B92222491D4824F076FF24E0FEF768FF5F
:1039D400A8E70D2C0BD0092C4FF01B034FF0B902B4
:1039E4000CBF1B491B49154824F065FF13E01B233A
:1039F400B9221949284624F05EFF0CE01B23B922A2
:103A040016490E4824F057FF05E01B23B922144938
:103A14000A4824F050FF0121084824F087FC4FF4A1
:103A2400FA602DF089FB084B18684FF47F32811837
:103A340025F030FF79E700BF80380100CCA75EA0F5
:103A4400601B04006C1B04002C040010041C040004
:103A54009C1B0400C41B0400781B0400E41B04002A
:103A6400201C04002DE9F04F89B0054686482FF04C
:103A74000BFA8046854C0121204624F057FC47F67A
:103A8400E071204624F04DFCEB880093AB886A88F3
:103A94002988204624F0B1FB07AA01217C482EF096
:103AA400F5F9814640B107AA01217A482EF0EEF9D2
:103AB4000446002840F08F8004AB734A41460798BF
:103AC4002EF042FA044607982EF01AFA4CB16E4BC7
:103AD400049A9A4202D1C2461A2704E0FEF7E0FE95
:103AE40027E0C2461A27694ECDF80C80D046A2467C
:103AF400AB46A8F10205B8240694059705AA06A9C1
:103B0400304624F022FC35F8023F059A06993046E7
:103B140024F026FC0134B4F5C07FEDD108F5C87853
:103B24000137E22FE5D1DDF80C8054465D46002CC8
:103B34003AD0594B19684FF47F32881825F0AAFE01
:103B4400FEF7AEFE514C0021204624F0EFFB00218D
:103B5400204624F0E8FB47F6E071204624F0E1FB20
:103B6400292300934FF4C0731922B721204624F06F
:103B740044FBB9F1090F71D0B9F10D0F7CD01B23AF
:103B8400B9224649414824F096FE01213F4824F0D9
:103B9400CDFB4FF4FA602DF0CFFA3F4B18684FF489
:103BA4007F32811825F076FE384C0121204624F01E
:103BB400BDFB0021204624F0B4FBEB880093AB88C6
:103BC4006A882988204624F018FB40462FF064F9BF
:103BD40009B0BDE8F08F304B19684FF47F32881874
:103BE40025F058FEFEF75CFE284E0021304624F0F6
:103BF4009DFB0021304624F096FB47F6E0713046E9
:103C040024F08FFB292300934FF4C0731922B721AA
:103C1400304624F0F2FAB9F1090F0DD0B9F10D0FC5
:103C2400ADD10D2C21D0092C26D11B23B9221C493E
:103C3400164824F040FEA8E70D2C08D0092C0DD11D
:103C44001B23B9221749114824F035FE9DE71B2395
:103C5400B9221549304624F02EFE96E71B23B922DB
:103C640011490A4824F027FE8FE71B23B9220F4984
:103C7400064824F020FE88E71B23B9220B49034899
:103C840024F019FE81E700BF80380100CCA75EA0B4
:103C9400601B04006C1B04002C040010C81C0400EE
:103CA400A41C0400541C0400301C0400841C0400E4
:103CB400A0F1B80CBCF1C70F1AD8A1F11A0CBCF1D1
:103CC400C70F15D8A2F1B80CBCF1C70F10D8A3F1D7
:103CD4001A0CBCF1C70F0BD800B583B00093134680
:103CE4000A460146034824F085F903B05DF804FB55
:103CF400704700BFCCA75EA008B5A0F1B803C72BDE
:103D040008D8A1F11A03C72B04D80A460146024871
:103D140024F05EF908BD00BFCCA75EA070B58AB0E0
:103D240009AA00212EF005FF25F018FB1E4C4FF4C4
:103D3400F84307930025069547F6E0760596022397
:103D4400049340F20F13039340F2DF13029301959F
:103D54000095099B4FF488724FF4F071204624F0CB
:103D6400A5FA1249204624F0E1FD1F2210492046FD
:103D740024F0F1FD3146204624F0D3FA0D492046C3
:103D840025F022F82946204624F0CDFAE2230093B8
:103D94004FF4C0731922B721204624F02EFA25F0DF
:103DA400F1FA0AB070BD00BFCCA75EA0148F060064
:103DB400D41C0400141D04002DE9F04F91B0844B71
:103DC40000221A60834A102101202DF015FB10B146
:103DD40011B0BDE8F08F7F4A0EA97F482FF0B2FAE8
:103DE40020B17C4B18682DF02CFBF1E70FA97B4820
:103DF4002EF07BFE28B1774B19680E982FF00FFB3D
:103E0400EFE70BAA00210F982EF093FE0F98FFF70F
:103E140085FFFFF705FD4FF0FF31302004F04EFC25
:103E24000026B246B0466A4C6A4D2768002F40F01F
:103E3400CB804FF0FF3207A928682DF0CBFB002878
:103E4400F3D1089B0D93099B0C930CAA0DA964480C
:103E540024F070FA0D9BB83BC72B00F2AB800C9B8F
:103E64001A3BC72B00F2A6800A9B012B01D0B8464F
:103E7400DBE72EF0FBFF5B4B1988002940F08580BF
:103E8400574824F04EFAB8F1000F50D0DDF83490C2
:103E94000C9F0AF1FF308046711E09F1FF3B7B1E27
:103EA40002935A460591FFF703FF3B465A463146B3
:103EB400CDF810804046FFF7FBFE721C114607F157
:103EC400010843465A4603910498FFF7F1FE029B0A
:103ED4004A46DDF814B059465046FFF7E9FE3B4622
:103EE4004A4631465046FFF7E3FE43464A460399A5
:103EF4005046FFF7DDFE0AF1010A09F10109029BB0
:103F04004A4659465046FFF7D3FE3B464A46314699
:103F14005046FFF7CDFE43464A4603995046FFF705
:103F2400C7FEDDF834A00C9E4FF0FF387DE70D9EF0
:103F34000C9F06F1FF3A07F1FF3949465046FFF757
:103F4400DBFE39465046FFF7D7FE07F1010841462C
:103F54005046FFF7D1FE49463046FFF7CDFE3946BD
:103F64003046FFF7C9FE41463046FFF7C5FE01362D
:103F740049463046FFF7C0FE39463046FFF7BCFEDF
:103F840041463046FFF7B8FECBE7154824F0C9F99F
:103F9400B8F1000F08D00C9B00930D9B324651469C
:103FA4000F4824F027F8BCE70C9A0D990C4824F02C
:103FB4000FF8B6E707AA0C49094824F057FF0A9BF3
:103FC400002B08BFB84630E70F982EF0A5FD12E786
:103FD400C8A75EA0C0A75EA0E8180400E418040007
:103FE400CCA75EA014000010141D040070B5054693
:103FF4000C46B2F5004F2ED0102A41D0002A3ED1F3
:10400400486E2DF061FBB0F57A7F38D32DF04EFB6E
:10401400606604F1680201216E482DF037FF002824
:1040240032D1AB686C4A022120469847A06E2DF02D
:1040340067FF0023022219462046EE68B0472B6929
:10404400022120469847654B1A889B78A4F80221E0
:1040540084F8043113E08368614A002120469847BC
:10406400AB68604A012120469847AB685E4A02214A
:10407400204698472DF01AFB60660023E36670BD66
:10408400436908469847FAE7031F0C2B00F2868021
:10409400DFE803F035848484845807848449848465
:1040A4006700AB68514A022120469847504B07CB22
:1040B400C4F80201C4F80611C4F80A211A889B78CE
:1040C400A4F80E2184F81031E36E0133E3660E2B5D
:1040D400D5D9AB68474A02212046984700230322DA
:1040E40019462046EE68B0472B69032120469847BD
:1040F400414B03CBC4F80201C4F80611BFE7AB6817
:104104003E4A0221204698473D4B07CBC4F80201A2
:10411400C4F80611C4F80A211A889B78A4F80E2161
:1041240084F81031D0E7AB68364A0221204698471C
:10413400354B03CBC4F80201C4F806111B88A4F85C
:104144000A31C1E7AB68314A022120469847304B17
:1041540003CBC4F80201C4F806111B88A4F80A3181
:10416400B2E7AB682B4A0221204698472A4E0FCE6D
:10417400C4F80201C4F80611C4F80A21C4F80E31C7
:10418400337884F812310023032219462046EE685E
:10419400B0472B6903212046984795E7AB681D4A31
:1041A4000221204698471D4B07CBC4F80201C4F8EE
:1041B4000611C4F80A211B88A4F80E310023032237
:1041C40019462046EE68B0472B69032120469847DC
:1041D4007AE700BF141E0400281E0400ECC1050089
:1041E400B41D0400D01D0400041E0400401E04007D
:1041F400601E04002C1F0400441F0400701E0400F1
:10420400901E0400A01E0400BC1E0400C81E04006E
:10421400E41E0400F01E0400081F04001C1F040018
:10422400B2F5004F00D0704738B505460C46002162
:1042340084F86C108368264A2046984704F1640188
:1042440024482DF077FDC8B1AB68234A00212046ED
:1042540098470023032219462046D5F80CC0E047AE
:104264002B690321204698471C4B03CBC4F8020159
:10427400C4F806111B88A4F80A3138BD04F168019A
:10428400606E2DF043FD0028DED1A06E03685B69EB
:1042940040F6C41204F1700198470028D4D1AB68E9
:1042A4000F4A00212046984700230222194620463F
:1042B400D5F80CC0E0472B69022120469847094BEA
:1042C4001A889B78A4F8022184F80431D5E700BF4A
:1042D4004C1F040038190400681F0400901F0400D8
:1042E4009C1F0400ECC10500F0B583B005460C46E4
:1042F400B2F5004F5ED0002A7AD1886E03681B693C
:1043040001A99847002840F08380019A636F934283
:10431400B8BF6267236F9A42B8BF226782EAE2732A
:10432400A3EBE273C3F3423304F17807C3EB431105
:1043340003EB8106334612145D49384630F072FFB0
:10434400AB683A46002120469847C8202CF0F4FE7A
:10435400E36E0133E366052B4AD9226FB2F5702F61
:1043640069DA019282EAE273A3EBE273C3F34233A4
:10437400C3EB431103EB8106334612144D4938460F
:1043840030F050FFAB683A46002120469847EF686A
:104394000023032219462046B8472B6903212046EF
:1043A40098473346BDF90620434904F5817030F03F
:1043B40039FF1DE08368414A00212046984704F1F3
:1043C40064013F482DF0B6FCA0B1EE68002303223F
:1043D40019462046B0472B69032120469847394B9C
:1043E40003CBC4F80201C4F806111B88A4F80A31EF
:1043F40003B0F0BD04F16801606E2DF087FC002865
:10440400E3D14FF4C813236763670023E366EFE740
:10441400EE680023032219462046B0472B69032186
:1044240020469847284B07CBC4F80201C4F806116C
:10443400C4F80A21DCE7626FB2F5201F24DD019283
:10444400C2F34233C3EB431103EB81063346121428
:104454001E49384630F0E6FEAB683A460021204655
:104464009847EF680023032219462046B8472B6972
:104474000321204698473346BDF90620144904F524
:10448400817030F0CFFEB3E7EF68002302221946B3
:104494002046B8472B690221204698473346BDF988
:1044A40006200C4904F5817030F0BCFEA0E700BF83
:1044B400F01F04001420040040200400C01F040066
:1044C400DC1F0400E41E0400E41F04005420040064
:1044D4008020040090200400F0B58BB005460C4603
:1044E400164669466D482DF025FC58B1EE68002348
:1044F400032219462046B0472B69032120469847DA
:104504000BB0F0BD01A900982DF000FC002832D1B9
:10451400B6F5004F3AD0002EF2D1202632460021C3
:1045240002A830F0C1FF019803685F69334602AA0C
:104534004121B847002800F08A80EE680023032256
:1045440019462046B0472B69032120469847544B0F
:1045540003CBC4F80201C4F806111A889B78A4F8A6
:104564000A2184F80C31019803689C6920234D4A80
:104574004121A047C4E7EE680023032219462046E0
:10458400B0472B69032120469847B9E7AB68464AF0
:10459400002120469847019803685E692023414A18
:1045A4004121B047B0B1EE680023032219462046EA
:1045B400B0472B69032120469847394B03CBC4F8F5
:1045C4000201C4F806111A889B78A4F80A2184F819
:1045D4000C3195E72022AA2102A830F065FF01984A
:1045E40003689E69202302AA4121B047064620227F
:1045F400552102A830F058FFAEB101238DF80830E0
:10460400EE680023032219462046B0472B69032194
:1046140020469847254B07CBC4F80201C4F806117D
:10462400C4F80A216CE7019803689E69142302AA5E
:104634004321B04701238DF808300028E0D10198C8
:1046440003689C69012302AA4621A04758E7202257
:1046540002A9174830F058FD50B9EE680023022231
:1046640019462046B0472B690221204698477AE72D
:10467400EE680023032219462046B0472B69032124
:10468400204698470B4B07CBC4F80201C4F8061127
:10469400C4F80A211B7884F80E3164E79C200400D6
:1046A400B82004002CA85EA0A4200400C4200400A8
:1046B40020250400D020040003460120186000BF18
:1046C40000BF00BF00BF00BF00BF00BF00BF00BFEE
:1046D40000BF00BF00BF00BF00BF00BF00BF00BFDE
:1046E40000BF00BF00BF00BF00BF00BF00BF00BFCE
:1046F40000BF00BF00BF00BF00BF00BF00BF00BFBE
:1047040000BF00BF00BF00BF00BF00BF00BF00BFAD
:1047140000BF00BF00BF00BF00BF00BF00BF00BF9D
:1047240000BF00BF00BF00BF00BF00BF00BF00BF8D
:1047340000BF00BF00BF00BF00BF00BF00BF00BF7D
:1047440000BF00BF00BF00BF00BF00BF00BF00BF6D
:1047540000BF00BF00BF00BF00BF00BF00BF00BF5D
:1047640000BF00BF00BF00BF00BF00BF00BF00BF4D
:1047740000BF00BF00BF00BF00BF00BF00BF00BF3D
:1047840000BF00BF00BF00BF00BF00BF00BF00BF2D
:1047940000BF00BF00BF00BF00BF00BF00BF00BF1D
:1047A40000BF00BF00BF00BF00BF00BF00BF00BF0D
:1047B40000BF00BF00BF00BF00BF00BF00BF00BFFD
:1047C40000BF00BF00BF00BF00BF00BF00BF00BFED
:1047D40000BF00BF00BF00BF00BF00BF00BF00BFDD
:1047E40000BF00BF00BF00BF00BF00BF00BF00BFCD
:1047F40000BF00BF00BF00BF00BF00BF00BF00BFBD
:1048040000BF00BF00BF00BF00BF00BF00BF00BFAC
:1048140000BF00BF00BF00BF00BF00BF00BF00BF9C
:1048240000BF00BF00BF00BF00BF00BF00BF00BF8C
:1048340000BF00BF00BF00BF00BF00BF00BF1A68B9
:10484400824202D140007FF439AF7047F0B502468E
:104854008908013911F0010E3CD073464FF0AA309B
:1048640042F823005B001942FAD14FF0553313602C
:10487400734602EB830052F82340B4F1AA3F14D1EB
:104884005B001942F5D14FF0AA331360F4464FF0A0
:1048940055361F4610E05B00194207D052F82340FA
:1048A400B4F1AA3FF7D06345F5D0F0BD57514FEAB4
:1048B4004C0C11EA0C0F0BD04FEA8C0502EB8C0068
:1048C40042F82C601368B3F1AA3FEED17346E5E7D2
:1048D4000020EAE74FF0553303604FF0AA3303603A
:1048E4000020E2E7032928D910B502464FEA910CCB
:1048F4008646012340F8043B9C4503F10103F9D8A3
:10490400012300E00B4610461168994214D1D943A3
:1049140042F8041B591C9C45F4D800236FF0010491
:104924007046DEF80010E21A914205D101330EF10F
:10493400040E9C45F4D8002010BD002070470000F0
:10494400B2F5004F00D0704770B505460C46836839
:104954002A4A0021204698472AF0BAFB4FF020400B
:10496400FFF7AAFE06462AF0D1FBB6B1AB68244A8B
:104974000121204698470023032219462046D5F8F2
:104984000CC0E0472B6903212046984732461D4955
:1049940004F5817030F046FC70BD2AF099FB4FF4A9
:1049A40000014FF02040FFF751FF06462AF0AEFB0E
:1049B400002EDBD12AF08CFB4FF400014FF0204095
:1049C400FFF790FF06462AF0A1FB002ECED1AB687C
:1049D4000D4A012120469847EE6800230222194619
:1049E4002046B0472B690221204698474FF4000225
:1049F400064904F5817030F015FCCDE7E020040091
:104A04000C21040024210400F420040004210400E7
:104A1400F0B5C3B006460C4615468368534A0121D7
:104A240020469847524B03CBC4F80201C4F8061140
:104A34001B88A4F80A3141AA102128462DF056FB00
:104A4400002874D104F58177419B512B03D040F2A7
:104A5400E93043B0F0BD41AA112128462DF046FBB0
:104A6400002867D1419B522B02D040F2E930F0E795
:104A740041AA122128462DF039FB00285DD1419B23
:104A8400592B02D040F2E930E3E73A4B07CBC4F8A4
:104A940002017960BA60B368374A01212046984719
:104AA4004FF480224FF4E00128462DF00FFB00283C
:104AB40046D1802301AA4FF4E00128462DF0E2FA02
:104AC400002840D101AB21A913F8012BFF2A3DD1C5
:104AD4008B42F9D1294B07CBC4F802017960BA6043
:104AE400B368274A0121204698470623254A2649C8
:104AF40028462DF0D9FA60BB0623244A24492846C7
:104B04002DF0D2FA40BB802301AA1F4928462DF07C
:104B1400B9FA20BB0C221F4901A830F0F5FA08BBF2
:104B24001D4B1A889B78A4F80221BB7091E740F2D0
:104B3400E9308EE740F2E9308BE740F2E93088E76C
:104B440040F2EA3085E740F2EA3082E740F2EB30A7
:104B54007FE74FF47B707CE74FF47B7079E74FF489
:104B64007B7076E74FF47B7073E700BF2C21040061
:104B7400E41E04003C2104004821040058210400E0
:104B84006421040074210400FCFF71007C210400F2
:104B94000200720084210400ECC10500F0B591B05C
:104BA40000230193ADF80830B2F5004F01D011B0E5
:104BB400F0BD05460C4683681E4A002120469847EE
:104BC4000FA91D482DF03AFAC8B903A90F982DF082
:104BD4009DFA039B0F9A21462846FFF719FF0646C4
:104BE4000F982DF042FA66B9EE68002302221946A6
:104BF4002046B0472B69022120469847D7E74FF457
:104C04007A7604F16407C6F30E020C49384630F094
:104C140009FBAB683A46022120469847EE68002318
:104C2400032219462046B0472B69032120469847A2
:104C3400BDE700BF94210400B4210400BC2104009A
:104C440030B583B005460C46B2F5004F2FD0102A7C
:104C540048D0002A44D1486E2CF036FDB0F57A7F56
:104C64003ED32CF023FD606604F1680201216548FF
:104C74002DF00CF9002839D1AB68634A0221204693
:104C84009847A06E2DF03CF90023022219462046D5
:104C9400D5F80CC0E0472B690221204698475B4BAE
:104CA4001A889B78A4F8022184F8043118E08368F8
:104CB400574A002120469847AB68564A01212046AE
:104CC4009847AB68544A02212046984701A95348A3
:104CD4002CF0DAFD0023E36623672CF0E7FC606622
:104CE40003B030BD436908469847F9E7031F092B11
:104CF40051D8DFE803F01E50505050410550503257
:104D0400AB68474A022120469847464B07CBC4F874
:104D14000201C4F80611C4F80A211A889B78A4F881
:104D24000E2184F81031236F5A1C042B47D02267BC
:104D3400D6E7AB683C4A0221204698473B4B07CB59
:104D4400C4F80201C4F80611C4F80A211A889B7831
:104D5400A4F80E2184F81031E5E7AB68344A022147
:104D640020469847334B03CBC4F80201C4F806111C
:104D74001B88A4F80A31D6E7AB682F4A02212046E3
:104D840098472E4B03CBC4F80201C4F806111B88C4
:104D9400A4F80A31C7E7AB681F4A022120469847A6
:104DA400274B07CBC4F80201C4F80611C4F80A2142
:104DB4001A889B78A4F80E2184F81031B3E70023F5
:104DC4002367E36E0133E366062B16D1AB681D4AF5
:104DD4000221204698470023032219462046D5F88D
:104DE4000CC0E0472B69032120469847164B03CBA0
:104DF400C4F80201C4F8061172E701A907482CF0AF
:104E040043FD6DE72C220400281E0400ECC10500BC
:104E1400D0210400F0210400041E04001C2204001C
:104E2400401E0400601E0400701E0400901E040056
:104E3400A01E0400BC1E0400C81E0400E41E0400DE
:104E44003C2204002C1F0400441F040030B583B02E
:104E540005460C46B2F5004F2FD0102A48D0002A40
:104E640044D1486E2CF030FCB0F57A7F3ED32CF060
:104E74001DFC606604F16802012165482DF006F806
:104E8400002839D1AB68634A022120469847A06EB6
:104E94002DF036F80023022219462046D5F80CC01E
:104EA400E0472B690221204698475B4B1A889B7880
:104EB400A4F8022184F8043118E08368574A0021D9
:104EC40020469847AB68564A012120469847AB686C
:104ED400544A02212046984701A953482CF0D4FC97
:104EE4000023E36623672CF0E1FB606603B030BD6A
:104EF400436908469847F9E7031F092B51D8DFE8AF
:104F040003F01E505050504105505032AB68474A90
:104F1400022120469847464B07CBC4F80201C4F847
:104F24000611C4F80A211A889B78A4F80E2184F883
:104F34001031236F5A1C042B47D02267D6E7AB6885
:104F44003C4A0221204698473B4B07CBC4F8020158
:104F5400C4F80611C4F80A211A889B78A4F80E2113
:104F640084F81031E5E7AB68344A022120469847BB
:104F7400334B03CBC4F80201C4F806111B88A4F810
:104F84000A31D6E7AB682F4A0221204698472E4BB8
:104F940003CBC4F80201C4F806111B88A4F80A3133
:104FA400C7E7AB681F4A022120469847274B07CB27
:104FB400C4F80201C4F80611C4F80A211A889B78BF
:104FC400A4F80E2184F81031B3E700232367E36EBD
:104FD4000133E366062B16D1AB681D4A0221204635
:104FE40098470023032219462046D5F80CC0E04711
:104FF4002B69032120469847164B03CBC4F80201C2
:10500400C4F8061172E701A907482CF03DFC6DE7CE
:105014002C220400281E0400ECC105004C220400CC
:10502400F0210400041E04006C220400401E04004D
:10503400601E0400701E0400901E0400A01E0400E4
:10504400BC1E0400C81E0400E41E04003C2204002C
:105054002C1F0400441F0400B2F5004F00D0704719
:105064002DE9F04F8BB006460C468368744A002144
:105074002046984703A973482DF037FD09A97248C3
:105084002CF028FC00B3B368704A002120469847EE
:10509400F5680023032219462046A84733690321F3
:1050A400204698476A4B03CBC4F80201C4F80611A2
:1050B4001B88A4F80A3109982CF019FC03982DF0E8
:1050C4002BFD0BB0BDE8F08F002305930A238DF868
:1050D400183001238DF8193004AB089305A90998F9
:1050E4002CF00DFCD8B1B3685A4A002120469847E9
:1050F400F5680023032219462046A8473369032193
:1051040020469847544B03CBC4F80201C4F8061157
:105114001A889B78A4F80A2184F80C31CBE7049B05
:10512400642202FB03F74D4BA3FB07373F0A04EB52
:10513400020B00233A464A49584630F073F8B368E4
:105144005A4600212046984704F5817800233A46C0
:105154004449404630F066F8A7F15003282B0FD994
:10516400F5680023032219462046A8473369032122
:10517400204698473A463C49404630F053F89AE76F
:1051840003982DF001FD002103982DF00AFD642001
:105194002BF0D2FF05A909982CF0B1FB049B6422E3
:1051A40002FB03F31A4601932C4BA3FB02394FEA8B
:1051B400192903982DF0DBFC00254FF00A0A294633
:1051C40003982DF0EEFC50462BF0B6FF0235B5F5F2
:1051D400807FF4D14B463A462149584630F022F8B4
:1051E400B3685A460021204698474B463A461D4923
:1051F400404630F017F8019BB3F5994F0FD3F5688B
:105204000023032219462046A84733690321204678
:1052140098474A461549404630F004F84BE7F5688C
:105224000023022219462046A8473369022120465A
:1052340098474B463A460B4940462FF0F3FF3AE76E
:105244007C220400E4180400942204009C2204003C
:10525400E41E0400C0220400E4220400ABAAAAAAAB
:10526400F02204001C230400282304003823040033
:10527400B2F5004F00D07047F0B587B005460C4634
:105284008368404A00212046984705A93E482CF0EF
:1052940021FBE0B1AB683D4A00212046984700233A
:1052A400032219462046EE68B0472B6903212046A5
:1052B4009847374B03CBC4F80201C4F806111B8886
:1052C400A4F80A3105982CF012FB07B0F0BD0223B4
:1052D40001930A238DF8083001238DF80930CDF8A5
:1052E40010D001A905982CF00AFBD8B1AB68294A63
:1052F400002120469847EE680023032219462046E1
:10530400B0472B69032120469847234B03CBC4F8AD
:105314000201C4F806111A889B78A4F80A2184F8BB
:105324000C31CFE7009B642202FB03F31B4EA6FB68
:1053340003269B1B06EB5306760A04F164073246E8
:10534400174938462FF06EFFAB683A4600212046D5
:105354009847503E282E0AD9EE68002303221946A6
:105364002046B0472B69032120469847AAE7EE68F8
:105374000023022219462046B0472B690221204609
:1053840098479FE748230400942204005C23040008
:10539400E41E04007C230400E4220400251540528A
:1053A400A023040000B583B00023019340B1431E41
:1053B400062B09D8DFE803F00C11161B20252A0060
:1053C40001A915482CF060FA019803B05DF804FBBC
:1053D40001A912482CF058FAF6E701A910482CF05C
:1053E40053FAF1E701A90F482CF04EFAECE701A9B2
:1053F4000D482CF049FAE7E701A90C482CF044FACF
:10540400E2E701A90A482CF03FFADDE701A90948BF
:105414002CF03AFAD8E700BFB8230400C0230400F4
:10542400C8230400D0230400D8230400E02304008C
:10543400E8230400F023040082B02DE9F04F8FB07C
:1054440080468B46164619931C9D8368A04A012109
:10545400584698479F4B03CBCBF80201CBF8061173
:105464001B88ABF80A310DAA102130462CF03EFE01
:10547400002840F01B810BF5817A0D9B512B06D03F
:1054840040F2E9300FB0BDE8F04F02B070470DAA0A
:10549400112130462CF02AFE002840F00A810D9B91
:1054A400522B02D040F2E930ECE70DAA122130462B
:1054B4002CF01CFE002840F0FF800D9B592B40F07F
:1054C400FE8000240694CDF80CA00895C2460496EC
:1054D40026465F4607F1640B22467F4958462FF063
:1054E400A1FEDAF808305A460121384698470023CD
:1054F4000293E3B205930B94029A079277495846B4
:105504002FF090FEDAF808305A46012138469847C1
:10551400089B002B00F0B48019AB0A934FF00009EC
:105524004D46CDF82490DDF81880099A6C49584608
:105534002FF078FEDAF808305A46012138469847A9
:105544000A9B06935C69B44207D1069B1B69002B36
:1055540000F088804B44069341E0624E2346324675
:10556400614958462FF05EFEDAF808305A460321A6
:1055740038469847B046E8E74E4635E04B460022A9
:105584005A4958462FF04EFEDAF808305A4601219F
:10559400384698472A46564903982FF043FE3CB1B3
:1055A40008F1FF33621E424403F8016F9A42FBD1B3
:1055B40022462946049E30462CF088FD002840F0FF
:1055C400818023464246294630462CF06DFD002852
:1055D4007BD109F101092544069B994541D0059BDE
:1055E400002BC9D089F0FF06029B002BC6D04B4686
:1055F400079A404958462FF015FEDAF808305A4603
:105604000121384698472A463B4903982FF00AFE61
:1056140023464246294604982CF034FD002CD8D069
:1056240008F1FF324346601E4044944612F8011FBD
:10563400B14202D18242F8D1CBE74A46D946C3F1FE
:1056440001030191009663442C4948462FF0EAFD7A
:10565400DAF808304A4602213846984740F20140B9
:1056640010E79946099B013309930A9A08320A9272
:10567400089A9A4201D0264657E7CDF81880264664
:10568400029B01330293022B7FF436AF0B9C01344F
:10569400022C7FF41FAFDDF80CA0194B1A889B78FD
:1056A400A7F802218AF802300020EBE640F2E93044
:1056B400E8E640F2E930E5E640F2E930E2E640F2BD
:1056C400E930DFE642F24870DCE642F24970D9E69E
:1056D4002C210400E41E0400F82304000424040024
:1056E40014240400000040A02024040040240400EA
:1056F4006C24040080240400AC240400C0240400AE
:10570400ECC10500B2F5004F00D07047F0B59BB076
:1057140005460C468368264A00212046984719A965
:1057240024482CF08BFC40BB0DA919982CF0EEFCFE
:10573400EC460DF1380EBEE80F00ACE80F00BEE8F1
:105744000F00ACE80F009EE807008CE807000D9BF3
:10575400199A21462846FFF76FFE064619982CF041
:1057640084FC66B9EE680023022219462046B0473D
:105774002B6902212046984718E04FF47A7604F109
:105784006407C6F30E020C4938462FF04BFDAB6894
:105794003A46022120469847EE6800230322194620
:1057A4002046B0472B690321204698471BB0F0BD23
:1057B400FC240400B4210400BC210400034B1B6836
:1057C4004FF0FF32C3F8D42B704700BF4CA85EA043
:1057D40030B58BB0044623F0C1FD09AA0021204650
:1057E4002DF0A7F9174C4FF4F843079300230693C1
:1057F40047F6E07505950222049240F20F120392D7
:1058040040F2DF12029201930093099B4FF48872D5
:105814004FF4F071206822F049FD0B49206823F011
:1058240085F81F220949206823F095F82946206845
:1058340022F077FD0649206823F078F823F0A2FDD2
:105844000BB030BD4CA85EA0148F060040250400A8
:105854007CAA06002DE9F04788B0DFF81C81D8F84F
:10586400000000F664240025ADF81850ADF81A5075
:10587400C369ADF81C30036AADF81E303F4923F00C
:1058840055F8D8F8000023F053F887B206AE0A2181
:10589400304623F027FF07F12602022392B269461D
:1058A400304623F04BFF04AB96E8030083E8030083
:1058B400D8F8002002F6CC3282E803000221184610
:1058C40023F010FF0437BFB2242F38BF24276826E3
:1058D400DFF8ACA0DFF8AC90D8F800301B6EAB4218
:1058E4002ED9BDF816300133BDF812209B1A9F4201
:1058F40026DA01233A4602A904A823F0FDFEBDF8E6
:1059040008302380BDF80A306380BDF80C30A380D2
:10591400BDF80E30E380D8F800209119A160C4F8D6
:105924000CA0C4F81090311F1144A1611649E16123
:105934000233A2F8D23B203401358036092DCBD175
:105944000121684623F0CEFEBDF8003023803F33AA
:10595400A380BDF8023063801F33E3800B4BA36048
:105964000B4BE3600B4B23610023A361E361A36250
:1059740008B0BDE8F08700BF4CA85EA0148F0600F5
:10598400F55A0000FCD604009D59000024190400B7
:10599400C1570000C034050030B589B004460388FF
:1059A400ADF818304388ADF81A308388ADF81C3050
:1059B400C388ADF81E301C4D1C49286822F0B6FF80
:1059C400286822F0B5FF85B2022106A823F06EFEF6
:1059D4000223202204A906A823F0D2FE236993B14E
:1059E400BDF810300393BDF81230029302AA03A944
:1059F4000D4B186822F0A9FCBDF80820BDF80C1066
:105A0400206923F049FD2A46694606A823F002FFCF
:105A1400BDF80230BDF80020A1680348006822F0F8
:105A24004AFF09B030BD00BF4CA85EA0148F060029
:105A340070B586B023F092FC284C2949206822F0E6
:105A440075FF206822F074FF054647F6E071206870
:105A540022F067FC0021206822F065FC2068B0F881
:105A6400D03BB0F8CE2BB0F8CC1BB0F8D26B00967C
:105A740022F0C3FB2068036E13BB90F8E03B102BAD
:105A840028D0092B28D0174C174A302B18BF14469E
:105A9400214622F0B9FF114E336882B204A903F6FD
:105AA400CC3023F0D7FEAAB202A904A823F0B2FE98
:105AB400BDF80A30BDF808202146306822F0FBFE0C
:105AC400064B186800F6642123F07EF923F05AFC93
:105AD40006B070BD044CDBE7044CD9E74CA85EA0CB
:105AE400148F06009C250400682504007C2504000E
:105AF40008B5806900F046FE054B1B68D3F8D80B47
:105B0400FFF766FEFFF7A6FEFFF792FF08BD00BF92
:105B14004CA85EA010B59AB002460C4901A82FF01B
:105B240081FB012301AA0A490BA82FF07BFB6A46DB
:105B340001210BA82CF0AAF9044610B120461AB092
:105B440010BD00982CF0DCF9F8E700BFC425040070
:105B5400CC25040010B58CB00246094902A82FF0E8
:105B640061FB01AA012102A82CF090F9044610B1AE
:105B740020460CB010BD01982CF0C2F9F8E700BF24
:105B8400E025040010B58CB00246094902A82FF0A4
:105B940049FB01AA012102A82CF078F9044610B1AE
:105BA40020460CB010BD01982CF0AAF9F8E700BF0C
:105BB400F82504002DE9F04794B0804600231293A1
:105BC400364B1D680246364908A82FF02BFB13A953
:105BD40008A82CF09FFE18B1302014B0BDE8F0875F
:105BE400304913982CF0FBFE68B1129B002B4AD06D
:105BF400002B4DDD643501242646DFF8AC902B4F95
:105C0400DFF8ACA019E012AB00222A4913982CF05B
:105C1400FBFE129B002BEBD1274913982CF0DFFEDF
:105C240012AB0022234913982CF0EEFEDDE7013479
:105C3400E4B22646129B9C422ADC3246494605A819
:105C44002FF0F0FA502300932B1D3A4605A9139820
:105C54002CF00AFF00BB3246514603A82FF0E2FAAB
:105C64002823009305F155033A4603A913982CF011
:105C7400FBFE0028DBD145F8808B084B1A68136EB5
:105C840001331366D3E713982CF07EFE3020A4E78B
:105C940013982CF079FEA0E730209EE74CA85EA074
:105CA400F82504001026040038260400DCD2050080
:105CB4004026040024260400302604002DE9F04781
:105CC4008EB00746304B1C680246304904A82FF0BA
:105CD400A9FA03AA012104A82CF0D8F8064618B1A1
:105CE40030460EB0BDE8F08702A903982CF060F9A5
